{"contracts/security-token/Dividends.sol":{"Dividends":{"abi":[{"inputs":[{"internalType":"address","name":"transferRules_","type":"address"},{"internalType":"address","name":"contractAdmin_","type":"address"},{"internalType":"address","name":"tokenReserveAdmin_","type":"address"},{"internalType":"string","name":"symbol_","type":"string"},{"internalType":"string","name":"name_","type":"string"},{"internalType":"uint8","name":"decimals_","type":"uint8"},{"internalType":"uint256","name":"totalSupply_","type":"uint256"},{"internalType":"uint256","name":"maxTotalSupply_","type":"uint256"},{"internalType":"uint256","name":"_minTimelockAmount","type":"uint256"},{"internalType":"uint256","name":"_maxReleaseDelay","type":"uint256"}],"stateMutability":"nonpayable","type":"constructor"},{"anonymous":false,"inputs":[{"indexed":true,"internalType":"address","name":"admin","type":"address"},{"indexed":true,"internalType":"address","name":"addr","type":"address"},{"indexed":true,"internalType":"bool","name":"status","type":"bool"}],"name":"AddressFrozen","type":"event"},{"anonymous":false,"inputs":[{"indexed":true,"internalType":"address","name":"admin","type":"address"},{"indexed":true,"internalType":"address","name":"addr","type":"address"},{"indexed":true,"internalType":"uint256","name":"value","type":"uint256"}],"name":"AddressMaxBalance","type":"event"},{"anonymous":false,"inputs":[{"indexed":true,"internalType":"address","name":"admin","type":"address"},{"indexed":true,"internalType":"address","name":"addr","type":"address"},{"indexed":true,"internalType":"uint256","name":"value","type":"uint256"}],"name":"AddressTransferGroup","type":"event"},{"anonymous":false,"inputs":[{"indexed":true,"internalType":"address","name":"admin","type":"address"},{"indexed":true,"internalType":"uint256","name":"fromGroup","type":"uint256"},{"indexed":true,"internalType":"uint256","name":"toGroup","type":"uint256"},{"indexed":false,"internalType":"uint256","name":"lockedUntil","type":"uint256"}],"name":"AllowGroupTransfer","type":"event"},{"anonymous":false,"inputs":[{"indexed":true,"internalType":"address","name":"owner","type":"address"},{"indexed":true,"internalType":"address","name":"spender","type":"address"},{"indexed":false,"internalType":"uint256","name":"value","type":"uint256"}],"name":"Approval","type":"event"},{"anonymous":false,"inputs":[{"indexed":true,"internalType":"address","name":"payee","type":"address"},{"indexed":true,"internalType":"address","name":"token","type":"address"},{"indexed":false,"internalType":"uint256","name":"amount","type":"uint256"},{"indexed":true,"internalType":"uint256","name":"snapshotId","type":"uint256"}],"name":"Claimed","type":"event"},{"anonymous":false,"inputs":[{"indexed":true,"internalType":"address","name":"payer","type":"address"},{"indexed":true,"internalType":"address","name":"token","type":"address"},{"indexed":false,"internalType":"uint256","name":"amount","type":"uint256"},{"indexed":true,"internalType":"uint256","name":"snapshotId","type":"uint256"}],"name":"Funded","type":"event"},{"anonymous":false,"inputs":[{"indexed":false,"internalType":"address","name":"admin","type":"address"},{"indexed":false,"internalType":"bool","name":"status","type":"bool"}],"name":"Pause","type":"event"},{"anonymous":false,"inputs":[{"indexed":true,"internalType":"address","name":"grantor","type":"address"},{"indexed":true,"internalType":"address","name":"grantee","type":"address"},{"indexed":false,"internalType":"uint8","name":"role","type":"uint8"},{"indexed":true,"internalType":"bool","name":"status","type":"bool"}],"name":"RoleChange","type":"event"},{"anonymous":false,"inputs":[{"indexed":true,"internalType":"address","name":"from","type":"address"},{"indexed":true,"internalType":"uint256","name":"scheduleId","type":"uint256"}],"name":"ScheduleCreated","type":"event"},{"anonymous":false,"inputs":[{"indexed":true,"internalType":"address","name":"from","type":"address"},{"indexed":true,"internalType":"address","name":"to","type":"address"},{"indexed":true,"internalType":"uint256","name":"scheduleId","type":"uint256"},{"indexed":false,"internalType":"uint256","name":"amount","type":"uint256"},{"indexed":false,"internalType":"uint256","name":"commencementTimestamp","type":"uint256"},{"indexed":false,"internalType":"uint256","name":"timelockId","type":"uint256"},{"indexed":false,"internalType":"address[]","name":"cancelableBy","type":"address[]"}],"name":"ScheduleFunded","type":"event"},{"anonymous":false,"inputs":[{"indexed":false,"internalType":"uint256","name":"id","type":"uint256"}],"name":"Snapshot","type":"event"},{"anonymous":false,"inputs":[{"indexed":true,"internalType":"address","name":"canceledBy","type":"address"},{"indexed":true,"internalType":"address","name":"target","type":"address"},{"indexed":true,"internalType":"uint256","name":"timelockIndex","type":"uint256"},{"indexed":false,"internalType":"address","name":"relaimTokenTo","type":"address"},{"indexed":false,"internalType":"uint256","name":"canceledAmount","type":"uint256"},{"indexed":false,"internalType":"uint256","name":"paidAmount","type":"uint256"}],"name":"TimelockCanceled","type":"event"},{"anonymous":false,"inputs":[{"indexed":true,"internalType":"address","name":"from","type":"address"},{"indexed":true,"internalType":"address","name":"to","type":"address"},{"indexed":false,"internalType":"uint256","name":"value","type":"uint256"}],"name":"Transfer","type":"event"},{"anonymous":false,"inputs":[{"indexed":false,"internalType":"address","name":"admin","type":"address"},{"indexed":false,"internalType":"address","name":"oldRules","type":"address"},{"indexed":false,"internalType":"address","name":"newRules","type":"address"}],"name":"Upgrade","type":"event"},{"anonymous":false,"inputs":[{"indexed":true,"internalType":"address","name":"payee","type":"address"},{"indexed":true,"internalType":"address","name":"token","type":"address"},{"indexed":false,"internalType":"uint256","name":"amount","type":"uint256"},{"indexed":true,"internalType":"uint256","name":"snapshotId","type":"uint256"}],"name":"Withdrawn","type":"event"},{"inputs":[],"name":"_decimals","outputs":[{"internalType":"uint8","name":"","type":"uint8"}],"stateMutability":"view","type":"function"},{"inputs":[{"internalType":"address","name":"owner","type":"address"},{"internalType":"address","name":"spender","type":"address"}],"name":"allowance","outputs":[{"internalType":"uint256","name":"","type":"uint256"}],"stateMutability":"view","type":"function"},{"inputs":[{"internalType":"address","name":"spender","type":"address"},{"internalType":"uint256","name":"amount","type":"uint256"}],"name":"approve","outputs":[{"internalType":"bool","name":"","type":"bool"}],"stateMutability":"nonpayable","type":"function"},{"inputs":[{"internalType":"address","name":"who","type":"address"}],"name":"balanceOf","outputs":[{"internalType":"uint256","name":"","type":"uint256"}],"stateMutability":"view","type":"function"},{"inputs":[{"internalType":"address","name":"account","type":"address"},{"internalType":"uint256","name":"snapshotId","type":"uint256"}],"name":"balanceOfAt","outputs":[{"internalType":"uint256","name":"","type":"uint256"}],"stateMutability":"view","type":"function"},{"inputs":[{"internalType":"address","name":"who","type":"address"},{"internalType":"uint256","name":"timelockIndex","type":"uint256"}],"name":"balanceOfTimelock","outputs":[{"internalType":"uint256","name":"","type":"uint256"}],"stateMutability":"view","type":"function"},{"inputs":[{"internalType":"address[]","name":"to","type":"address[]"},{"internalType":"uint256[]","name":"amounts","type":"uint256[]"},{"internalType":"uint256[]","name":"commencementTimestamps","type":"uint256[]"},{"internalType":"uint256[]","name":"scheduleIds","type":"uint256[]"},{"internalType":"address[]","name":"cancelableBy","type":"address[]"}],"name":"batchFundReleaseSchedule","outputs":[{"internalType":"bool","name":"success","type":"bool"}],"stateMutability":"nonpayable","type":"function"},{"inputs":[{"internalType":"address","name":"from","type":"address"},{"internalType":"uint256","name":"value","type":"uint256"}],"name":"burn","outputs":[],"stateMutability":"nonpayable","type":"function"},{"inputs":[{"internalType":"uint256","name":"commencedTimestamp","type":"uint256"},{"internalType":"uint256","name":"currentTimestamp","type":"uint256"},{"internalType":"uint256","name":"amount","type":"uint256"},{"components":[{"internalType":"uint256","name":"releaseCount","type":"uint256"},{"internalType":"uint256","name":"delayUntilFirstReleaseInSeconds","type":"uint256"},{"internalType":"uint256","name":"initialReleasePortionInBips","type":"uint256"},{"internalType":"uint256","name":"periodBetweenReleasesInSeconds","type":"uint256"}],"internalType":"struct RestrictedLockupToken.ReleaseSchedule","name":"releaseSchedule","type":"tuple"}],"name":"calculateUnlocked","outputs":[{"internalType":"uint256","name":"unlocked","type":"uint256"}],"stateMutability":"pure","type":"function"},{"inputs":[{"internalType":"uint256","name":"commencedTimestamp","type":"uint256"},{"internalType":"uint256","name":"currentTimestamp","type":"uint256"},{"internalType":"uint256","name":"amount","type":"uint256"},{"internalType":"uint256","name":"releaseCount","type":"uint256"},{"internalType":"uint256","name":"delayUntilFirstReleaseInSeconds","type":"uint256"},{"internalType":"uint256","name":"initialReleasePortionInBips","type":"uint256"},{"internalType":"uint256","name":"periodBetweenReleasesInSeconds","type":"uint256"}],"name":"calculateUnlocked","outputs":[{"internalType":"uint256","name":"unlocked","type":"uint256"}],"stateMutability":"pure","type":"function"},{"inputs":[{"internalType":"uint256","name":"commencedTimestamp","type":"uint256"},{"internalType":"uint256","name":"currentTimestamp","type":"uint256"},{"internalType":"uint256","name":"amount","type":"uint256"},{"internalType":"uint256","name":"scheduleId","type":"uint256"}],"name":"calculateUnlocked","outputs":[{"internalType":"uint256","name":"unlocked","type":"uint256"}],"stateMutability":"view","type":"function"},{"inputs":[{"internalType":"address","name":"target","type":"address"},{"internalType":"uint256","name":"timelockIndex","type":"uint256"},{"internalType":"uint256","name":"scheduleId","type":"uint256"},{"internalType":"uint256","name":"commencementTimestamp","type":"uint256"},{"internalType":"uint256","name":"totalAmount","type":"uint256"},{"internalType":"address","name":"reclaimTokenTo","type":"address"}],"name":"cancelTimelock","outputs":[{"internalType":"bool","name":"success","type":"bool"}],"stateMutability":"nonpayable","type":"function"},{"inputs":[{"internalType":"address","name":"token","type":"address"},{"internalType":"uint256","name":"snapshotId","type":"uint256"}],"name":"claimDividend","outputs":[],"stateMutability":"nonpayable","type":"function"},{"inputs":[{"internalType":"address","name":"token","type":"address"},{"internalType":"address","name":"receiver","type":"address"},{"internalType":"uint256","name":"snapshotId","type":"uint256"}],"name":"claimedBalanceAt","outputs":[{"internalType":"uint256","name":"","type":"uint256"}],"stateMutability":"view","type":"function"},{"inputs":[],"name":"contractAdminCount","outputs":[{"internalType":"uint8","name":"","type":"uint8"}],"stateMutability":"view","type":"function"},{"inputs":[{"internalType":"uint256","name":"releaseCount","type":"uint256"},{"internalType":"uint256","name":"delayUntilFirstReleaseInSeconds","type":"uint256"},{"internalType":"uint256","name":"initialReleasePortionInBips","type":"uint256"},{"internalType":"uint256","name":"periodBetweenReleasesInSeconds","type":"uint256"}],"name":"createReleaseSchedule","outputs":[{"internalType":"uint256","name":"unlockScheduleId","type":"uint256"}],"stateMutability":"nonpayable","type":"function"},{"inputs":[],"name":"decimals","outputs":[{"internalType":"uint8","name":"","type":"uint8"}],"stateMutability":"view","type":"function"},{"inputs":[{"internalType":"address","name":"spender","type":"address"},{"internalType":"uint256","name":"subtractedValue","type":"uint256"}],"name":"decreaseAllowance","outputs":[{"internalType":"bool","name":"","type":"bool"}],"stateMutability":"nonpayable","type":"function"},{"inputs":[{"internalType":"address","name":"from","type":"address"},{"internalType":"address","name":"to","type":"address"},{"internalType":"uint256","name":"value","type":"uint256"}],"name":"detectTransferRestriction","outputs":[{"internalType":"uint8","name":"","type":"uint8"}],"stateMutability":"view","type":"function"},{"inputs":[{"internalType":"address","name":"from","type":"address"},{"internalType":"address","name":"to","type":"address"},{"internalType":"uint256","name":"value","type":"uint256"}],"name":"enforceTransferRestrictions","outputs":[],"stateMutability":"view","type":"function"},{"inputs":[{"internalType":"address","name":"addr","type":"address"},{"internalType":"bool","name":"status","type":"bool"}],"name":"freeze","outputs":[],"stateMutability":"nonpayable","type":"function"},{"inputs":[{"internalType":"address","name":"token","type":"address"},{"internalType":"uint256","name":"amount","type":"uint256"},{"internalType":"uint256","name":"snapshotId","type":"uint256"}],"name":"fundDividend","outputs":[],"stateMutability":"nonpayable","type":"function"},{"inputs":[{"internalType":"address","name":"to","type":"address"},{"internalType":"uint256","name":"amount","type":"uint256"},{"internalType":"uint256","name":"commencementTimestamp","type":"uint256"},{"internalType":"uint256","name":"scheduleId","type":"uint256"},{"internalType":"address[]","name":"cancelableBy","type":"address[]"}],"name":"fundReleaseSchedule","outputs":[{"internalType":"bool","name":"success","type":"bool"}],"stateMutability":"nonpayable","type":"function"},{"inputs":[{"internalType":"address","name":"token","type":"address"},{"internalType":"uint256","name":"snapshotId","type":"uint256"}],"name":"fundsAt","outputs":[{"internalType":"uint256","name":"","type":"uint256"}],"stateMutability":"view","type":"function"},{"inputs":[{"internalType":"uint256","name":"from","type":"uint256"},{"internalType":"uint256","name":"to","type":"uint256"}],"name":"getAllowGroupTransferTime","outputs":[{"internalType":"uint256","name":"timestamp","type":"uint256"}],"stateMutability":"view","type":"function"},{"inputs":[{"internalType":"address","name":"from","type":"address"},{"internalType":"address","name":"to","type":"address"}],"name":"getAllowTransferTime","outputs":[{"internalType":"uint256","name":"timestamp","type":"uint256"}],"stateMutability":"view","type":"function"},{"inputs":[],"name":"getCurrentSnapshotId","outputs":[{"internalType":"uint256","name":"","type":"uint256"}],"stateMutability":"view","type":"function"},{"inputs":[{"internalType":"address","name":"addr","type":"address"}],"name":"getFrozenStatus","outputs":[{"internalType":"bool","name":"status","type":"bool"}],"stateMutability":"view","type":"function"},{"inputs":[{"internalType":"address","name":"addr","type":"address"}],"name":"getMaxBalance","outputs":[{"internalType":"uint256","name":"","type":"uint256"}],"stateMutability":"view","type":"function"},{"inputs":[{"internalType":"address","name":"addr","type":"address"}],"name":"getTransferGroup","outputs":[{"internalType":"uint256","name":"groupID","type":"uint256"}],"stateMutability":"view","type":"function"},{"inputs":[{"internalType":"address","name":"addr","type":"address"},{"internalType":"uint8","name":"role","type":"uint8"}],"name":"grantRole","outputs":[],"stateMutability":"nonpayable","type":"function"},{"inputs":[{"internalType":"address","name":"addr","type":"address"},{"internalType":"uint8","name":"role","type":"uint8"}],"name":"hasRole","outputs":[{"internalType":"bool","name":"","type":"bool"}],"stateMutability":"view","type":"function"},{"inputs":[{"internalType":"address","name":"spender","type":"address"},{"internalType":"uint256","name":"addedValue","type":"uint256"}],"name":"increaseAllowance","outputs":[{"internalType":"bool","name":"","type":"bool"}],"stateMutability":"nonpayable","type":"function"},{"inputs":[],"name":"isPaused","outputs":[{"internalType":"bool","name":"","type":"bool"}],"stateMutability":"view","type":"function"},{"inputs":[{"internalType":"address","name":"who","type":"address"}],"name":"lockedAmountOf","outputs":[{"internalType":"uint256","name":"amount","type":"uint256"}],"stateMutability":"view","type":"function"},{"inputs":[{"internalType":"address","name":"who","type":"address"},{"internalType":"uint256","name":"timelockIndex","type":"uint256"}],"name":"lockedAmountOfTimelock","outputs":[{"internalType":"uint256","name":"locked","type":"uint256"}],"stateMutability":"view","type":"function"},{"inputs":[],"name":"maxReleaseDelay","outputs":[{"internalType":"uint256","name":"","type":"uint256"}],"stateMutability":"view","type":"function"},{"inputs":[],"name":"maxTotalSupply","outputs":[{"internalType":"uint256","name":"","type":"uint256"}],"stateMutability":"view","type":"function"},{"inputs":[{"internalType":"uint8","name":"restrictionCode","type":"uint8"}],"name":"messageForTransferRestriction","outputs":[{"internalType":"string","name":"","type":"string"}],"stateMutability":"view","type":"function"},{"inputs":[],"name":"minTimelockAmount","outputs":[{"internalType":"uint256","name":"","type":"uint256"}],"stateMutability":"view","type":"function"},{"inputs":[{"internalType":"address","name":"to","type":"address"},{"internalType":"uint256","name":"value","type":"uint256"}],"name":"mint","outputs":[],"stateMutability":"nonpayable","type":"function"},{"inputs":[],"name":"name","outputs":[{"internalType":"string","name":"","type":"string"}],"stateMutability":"view","type":"function"},{"inputs":[],"name":"pause","outputs":[],"stateMutability":"nonpayable","type":"function"},{"inputs":[{"internalType":"uint256","name":"","type":"uint256"}],"name":"releaseSchedules","outputs":[{"internalType":"uint256","name":"releaseCount","type":"uint256"},{"internalType":"uint256","name":"delayUntilFirstReleaseInSeconds","type":"uint256"},{"internalType":"uint256","name":"initialReleasePortionInBips","type":"uint256"},{"internalType":"uint256","name":"periodBetweenReleasesInSeconds","type":"uint256"}],"stateMutability":"view","type":"function"},{"inputs":[{"internalType":"address","name":"addr","type":"address"},{"internalType":"uint8","name":"role","type":"uint8"}],"name":"revokeRole","outputs":[],"stateMutability":"nonpayable","type":"function"},{"inputs":[{"internalType":"address","name":"spender","type":"address"},{"internalType":"uint256","name":"value","type":"uint256"}],"name":"safeApprove","outputs":[],"stateMutability":"nonpayable","type":"function"},{"inputs":[],"name":"scheduleCount","outputs":[{"internalType":"uint256","name":"count","type":"uint256"}],"stateMutability":"view","type":"function"},{"inputs":[{"internalType":"address","name":"addr","type":"address"},{"internalType":"uint256","name":"groupID","type":"uint256"},{"internalType":"uint256","name":"lockedBalanceUntil","type":"uint256"},{"internalType":"uint256","name":"maxBalance","type":"uint256"},{"internalType":"bool","name":"status","type":"bool"}],"name":"setAddressPermissions","outputs":[],"stateMutability":"nonpayable","type":"function"},{"inputs":[{"internalType":"uint256","name":"from","type":"uint256"},{"internalType":"uint256","name":"to","type":"uint256"},{"internalType":"uint256","name":"lockedUntil","type":"uint256"}],"name":"setAllowGroupTransfer","outputs":[],"stateMutability":"nonpayable","type":"function"},{"inputs":[{"internalType":"address","name":"addr","type":"address"},{"internalType":"uint256","name":"updatedValue","type":"uint256"}],"name":"setMaxBalance","outputs":[],"stateMutability":"nonpayable","type":"function"},{"inputs":[{"internalType":"address","name":"addr","type":"address"},{"internalType":"uint256","name":"groupID","type":"uint256"}],"name":"setTransferGroup","outputs":[],"stateMutability":"nonpayable","type":"function"},{"inputs":[],"name":"snapshot","outputs":[{"internalType":"uint256","name":"","type":"uint256"}],"stateMutability":"nonpayable","type":"function"},{"inputs":[],"name":"symbol","outputs":[{"internalType":"string","name":"","type":"string"}],"stateMutability":"view","type":"function"},{"inputs":[{"internalType":"address","name":"who","type":"address"}],"name":"timelockBalanceOf","outputs":[{"internalType":"uint256","name":"","type":"uint256"}],"stateMutability":"view","type":"function"},{"inputs":[{"internalType":"address","name":"who","type":"address"}],"name":"timelockCountOf","outputs":[{"internalType":"uint256","name":"","type":"uint256"}],"stateMutability":"view","type":"function"},{"inputs":[{"internalType":"address","name":"who","type":"address"},{"internalType":"uint256","name":"index","type":"uint256"}],"name":"timelockOf","outputs":[{"components":[{"internalType":"uint256","name":"scheduleId","type":"uint256"},{"internalType":"uint256","name":"commencementTimestamp","type":"uint256"},{"internalType":"uint256","name":"tokensTransferred","type":"uint256"},{"internalType":"uint256","name":"totalAmount","type":"uint256"},{"internalType":"address[]","name":"cancelableBy","type":"address[]"}],"internalType":"struct RestrictedLockupToken.Timelock","name":"timelock","type":"tuple"}],"stateMutability":"view","type":"function"},{"inputs":[{"internalType":"address","name":"","type":"address"},{"internalType":"uint256","name":"","type":"uint256"}],"name":"timelocks","outputs":[{"internalType":"uint256","name":"scheduleId","type":"uint256"},{"internalType":"uint256","name":"commencementTimestamp","type":"uint256"},{"internalType":"uint256","name":"tokensTransferred","type":"uint256"},{"internalType":"uint256","name":"totalAmount","type":"uint256"}],"stateMutability":"view","type":"function"},{"inputs":[],"name":"tokenPrecisionDivider","outputs":[{"internalType":"uint256","name":"","type":"uint256"}],"stateMutability":"view","type":"function"},{"inputs":[{"internalType":"address","name":"token","type":"address"},{"internalType":"uint256","name":"snapshotId","type":"uint256"}],"name":"tokensAt","outputs":[{"internalType":"uint256","name":"","type":"uint256"}],"stateMutability":"view","type":"function"},{"inputs":[{"internalType":"address","name":"who","type":"address"}],"name":"tokensBalanceOf","outputs":[{"internalType":"uint256","name":"","type":"uint256"}],"stateMutability":"view","type":"function"},{"inputs":[{"internalType":"address","name":"token","type":"address"},{"internalType":"address","name":"receiver","type":"address"},{"internalType":"uint256","name":"snapshotId","type":"uint256"}],"name":"totalAwardedBalanceAt","outputs":[{"internalType":"uint256","name":"","type":"uint256"}],"stateMutability":"view","type":"function"},{"inputs":[],"name":"totalSupply","outputs":[{"internalType":"uint256","name":"","type":"uint256"}],"stateMutability":"view","type":"function"},{"inputs":[{"internalType":"uint256","name":"snapshotId","type":"uint256"}],"name":"totalSupplyAt","outputs":[{"internalType":"uint256","name":"","type":"uint256"}],"stateMutability":"view","type":"function"},{"inputs":[{"internalType":"address","name":"who","type":"address"},{"internalType":"uint256","name":"timelockIndex","type":"uint256"}],"name":"totalUnlockedToDateOfTimelock","outputs":[{"internalType":"uint256","name":"total","type":"uint256"}],"stateMutability":"view","type":"function"},{"inputs":[{"internalType":"address","name":"recipient","type":"address"},{"internalType":"uint256","name":"amount","type":"uint256"}],"name":"transfer","outputs":[{"internalType":"bool","name":"","type":"bool"}],"stateMutability":"nonpayable","type":"function"},{"inputs":[{"internalType":"address","name":"sender","type":"address"},{"internalType":"address","name":"recipient","type":"address"},{"internalType":"uint256","name":"amount","type":"uint256"}],"name":"transferFrom","outputs":[{"internalType":"bool","name":"","type":"bool"}],"stateMutability":"nonpayable","type":"function"},{"inputs":[],"name":"transferRules","outputs":[{"internalType":"contract ITransferRules","name":"","type":"address"}],"stateMutability":"view","type":"function"},{"inputs":[{"internalType":"address","name":"to","type":"address"},{"internalType":"uint256","name":"value","type":"uint256"},{"internalType":"uint256","name":"timelockId","type":"uint256"}],"name":"transferTimelock","outputs":[{"internalType":"bool","name":"","type":"bool"}],"stateMutability":"nonpayable","type":"function"},{"inputs":[{"internalType":"address","name":"token","type":"address"},{"internalType":"address","name":"receiver","type":"address"},{"internalType":"uint256","name":"snapshotId","type":"uint256"}],"name":"unclaimedBalanceAt","outputs":[{"internalType":"uint256","name":"","type":"uint256"}],"stateMutability":"view","type":"function"},{"inputs":[{"internalType":"address","name":"who","type":"address"}],"name":"unlockedAmountOf","outputs":[{"internalType":"uint256","name":"amount","type":"uint256"}],"stateMutability":"view","type":"function"},{"inputs":[{"internalType":"address","name":"who","type":"address"},{"internalType":"uint256","name":"timelockIndex","type":"uint256"}],"name":"unlockedAmountOfTimelock","outputs":[{"internalType":"uint256","name":"unlocked","type":"uint256"}],"stateMutability":"view","type":"function"},{"inputs":[{"internalType":"address","name":"who","type":"address"}],"name":"unlockedBalanceOf","outputs":[{"internalType":"uint256","name":"","type":"uint256"}],"stateMutability":"view","type":"function"},{"inputs":[],"name":"unpause","outputs":[],"stateMutability":"nonpayable","type":"function"},{"inputs":[{"internalType":"contract ITransferRules","name":"newTransferRules","type":"address"}],"name":"upgradeTransferRules","outputs":[],"stateMutability":"nonpayable","type":"function"},{"inputs":[{"internalType":"address","name":"token","type":"address"},{"internalType":"uint256","name":"snapshotId","type":"uint256"}],"name":"withdrawalRemains","outputs":[],"stateMutability":"nonpayable","type":"function"}],"evm":{"bytecode":{"linkReferences":{},"object":"60c060409080825234620007fd576200547b80380380916200002282856200081e565b833981019161014082840312620007fd576200003e8262000842565b916200004d6020820162000842565b6200005a83830162000842565b60608301519093906001600160401b038111620007fd57866200007f91850162000857565b608084015190966001600160401b038211620007fd57620000a291850162000857565b60a08401519560ff87168703620007fd5760c08501519360e086015161012061010088015197015193805160018060401b038111620006d45760035491600183811c93168015620007f2575b6020841014620007dc578190601f9384811162000785575b50602090848311600114620006f657600092620006ea575b50508160011b916000199060031b1c1916176003555b8a51906001600160401b038211620006d45760049b8c54600181811c91168015620006c9575b6020821014620006b457908183859493116200065b575b506020918311600114620005f057600092620005e4575b50508160011b916000199060031b1c1916178a555b6001600b556015805460ff19908116909155926001600160a01b0392838216156200059557831692831562000548578916998a15620004f35760ff600f54911691610100600160a81b039060081b169060018060a81b0319161717600f55601055600052600960205282600020600182825416179055600181600a541617600a55866000526002836000209182549060ff8216911617179055600560205281600020936000602052826000205497600097885b81600052600d60205285600020548a101562000290576200028262000289916200027b8c8c62000acb565b90620008ce565b99620009d1565b9862000250565b620002a0908b99979899620008ce565b96600098895b83600052600d60205287600020548b1015620002df57620002d1620002d8916200027b8d8c620009e1565b9a620009d1565b99620002a6565b620002eb908a620008ce565b60085480620002fa84620009aa565b10620004d0575b505050600254600854806200031562000979565b10620003ed575b50506000805160206200545b83398151915260208262000341600094600254620008ce565b6002558484528382528884208181540190558851908152a38115620003aa575060805260a0525161473c908162000d1f8239608051818181610a8e015281816115930152612363015260a051818181610b0401528181611617015281816125f801526128860152f35b606490602085519162461bcd60e51b8352820152601760248201527f4d696e2074696d656c6f636b20616d6f756e74203e20300000000000000000006044820152fd5b60065490680100000000000000009182811015620004bb57906200041c826001620004359401600655620008f2565b90919082549060031b91821b91600019901b1916179055565b60075490811015620004a6576001810180600755811015620004915760076000527fa66cc928b5edb82af9bd49922954155ab7b0942694bea4ce44661d9a8736c68801556000805160206200545b83398151915260206200031c565b603285634e487b7160e01b6000525260246000fd5b604185634e487b7160e01b6000525260246000fd5b604187634e487b7160e01b6000525260246000fd5b82620004e3600192620004ea956200093d565b016200093d565b86808062000301565b865162461bcd60e51b81526020818e0152602960248201527f546f6b656e20726573657276652061646d696e20616464726573732063616e6e60448201526806f74206265203078360bc1b6064820152608490fd5b865162461bcd60e51b81526020818e0152602160248201527f546f6b656e206f776e657220616464726573732063616e6e6f742062652030786044820152600360fc1b6064820152608490fd5b865162461bcd60e51b81526020818e01526024808201527f5472616e736665722072756c657320616464726573732063616e6e6f742062656044820152630203078360e41b6064820152608490fd5b01519050388062000188565b60008e8152602081209350601f198516905b81811062000642575090846001959493921062000628575b505050811b018a556200019d565b015160001960f88460031b161c191690553880806200061a565b9293602060018192878601518155019501930162000602565b909192508d60005260206000208380860160051c82019260208710620006aa575b94869594939291940160051c01905b8181106200069a575062000171565b600081558594506001016200068b565b925081926200067c565b60228e634e487b7160e01b6000525260246000fd5b90607f16906200015a565b634e487b7160e01b600052604160045260246000fd5b0151905038806200011e565b6003600090815293507fc2575a0e9e593c00f959f8c92f12db2869c3395a3b0502d05e2516446f71f85b91905b601f198416851062000769576001945083601f198116106200074f575b505050811b0160035562000134565b015160001960f88460031b161c1916905538808062000740565b8181015183556020948501946001909301929091019062000723565b909150600360005260206000208480850160051c82019260208610620007d2575b9085949392910160051c01905b818110620007c2575062000106565b60008155849350600101620007b3565b92508192620007a6565b634e487b7160e01b600052602260045260246000fd5b92607f1692620000ee565b600080fd5b60a081019081106001600160401b03821117620006d457604052565b601f909101601f19168101906001600160401b03821190821017620006d457604052565b51906001600160a01b0382168203620007fd57565b919080601f84011215620007fd578251906001600160401b038211620006d4576040519160209162000893601f8301601f19168401856200081e565b818452828287010111620007fd5760005b818110620008ba57508260009394955001015290565b8581018301518482018401528201620008a4565b91908201809211620008dc57565b634e487b7160e01b600052601160045260246000fd5b6006548110156200090e57600660005260206000200190600090565b634e487b7160e01b600052603260045260246000fd5b80548210156200090e5760005260206000200190600090565b9081549168010000000000000000831015620006d457826200041c916001620009699501815562000924565b565b91908203918211620008dc57565b60065480620009885750600090565b6000198101908111620008dc57620009a090620008f2565b90549060031b1c90565b805480620009b9575050600090565b6000198101908111620008dc57620009a09162000924565b6000198114620008dc5760010190565b620009ed828262000b0f565b906040606083015192015182111560001462000a0b57505050600090565b62000a229262000a1b9162000a25565b906200096b565b90565b9062000a319162000b0f565b602081015160608201519151600c548110156200090e57600c600052604051608081019260029290921b7fdf6966c971051c3d54ec59162606531493a51404a002842f56009d7e5cf4a8c701916001600160401b03841182851017620006d45762000a2294606094604052835491828452600185015493846020820152600360028701549687604084015201549687910152429062000c35565b62000ad7828262000b0f565b90604060608301519201918251101560001462000af657505050600090565b62000a229262000b069162000a25565b9051906200096b565b6040805162000b1e8162000802565b60009384825260606080602093878582015287868201528783820152015260018060a01b038094168552600d8252828520805482101562000bec57855281852083519593916005020162000b728662000802565b80548652600460019182810154858901526002810154848901526003810154606089015201915180958487958554938481520194875280872096915b83831062000bd157505050505062000bc9925003826200081e565b608082015290565b87548116865296840196889650948101949184019162000bae565b634e487b7160e01b86526032600452602486fd5b81810292918115918404141715620008dc57565b811562000c1f570490565b634e487b7160e01b600052601260045260246000fd5b959192939060009681811162000d115762000c50916200096b565b946000198501948511620008dc5762000c7562000c6e868562000c00565b83620008ce565b86101562000d07578186101562000c90575b50505050505090565b839495965062000ca69061271092939462000c00565b04948262000cb583836200096b565b101562000cc4575b8062000c87565b9262000cf68662000cef62000cfc98979562000ce962000ce9966200027b996200096b565b62000c14565b926200096b565b62000c00565b388080808062000cbd565b5050509250505090565b505050505050505060009056fe608080604052600436101561001357600080fd5b60003560e01c90816306fdde0314612d9557508063077d3c0314612c19578063095ea7b314612bf35780630c81510314612bcc5780630f8ad1b4146128a957806314cf86eb1461286e57806318160ddd146128505780631d36f08b1461280857806321bb56d7146125e457806323b872dd146124165780632ab4d052146123f85780632beafc89146123e1578063313ce567146123c057806332424aa3146123c0578063350724a914612386578063370de0431461234b57806339509351146122fa5780633c637d74146122c05780633e840236146121c75780633f4ba83a1461218057806340c10f191461203f57806340dc95c514611fd257806345d1129914611f005780634e2b303514611ee35780634ee2cd7e14611e865780635247ab0514611d6a5780635439ad8614611d4c57806357656cfe14611c92578063593b643914611c6b5780635f7c537714611c1357806364ca0ac314611bb05780636968f8b314611b805780636aea0d2e14611b595780636ec9d56f14611b4057806370a0823114611b1d5780637d7b368b14611af65780637f4ab1dd14611acc578063809c187514611a8157806382074ac2146119e15780638456cb591461199757806384955c88146119525780638b9d68991461192f5780638d56cc9c146118c75780638e4f11ff146115375780638e64eac51461151657806390fc7e91146114e657806395a8c58d146114ba57806395d89b41146113d457806396305c89146113b85780639711715a14611359578063981b24d0146113215780639dc29fac1461118d578063a2e2661614611174578063a457c2d7146110cd578063a742c88e146110aa578063a9059cbb1461105a578063a9b1f05114610ff7578063ad061e2514610fd0578063b187bd2614610fad578063b30bfa3d14610f73578063b7ed47851461093a578063b7ef81e11461091c578063bf120ae514610812578063c63aa521146107d8578063ceca46c2146107ab578063d4ce141514610787578063db74fa361461074d578063dd62ed3e146106fc578063dfb7300e1461065b578063e98a0c64146105e6578063ea612ae814610562578063ecd158cf1461048b578063f06581981461045c578063fbc6d1cb1461039c5763fc96f7d81461035857600080fd5b34610397576020366003190112610397576001600160a01b03610379612e84565b166000526014602052602060ff604060002054166040519015158152f35b600080fd5b34610397576040366003190112610397576103b5612e84565b60243580158015610432575b156103d2576103d091336130a5565b005b60405162461bcd60e51b815260206004820152603260248201527f43616e6e6f7420617070726f76652066726f6d206e6f6e2d7a65726f20746f206044820152716e6f6e2d7a65726f20616c6c6f77616e636560701b6064820152608490fd5b50336000526001602052604060002060018060a01b038316600052602052604060002054156103c1565b3461039757604036600319011261039757602061048361047a612e84565b60243590613be6565b604051908152f35b346103975761049936613022565b916001600160a01b0316906104af821515613491565b7f73884fbf40e5433ea6f75b9343f3208649c9b8430641c927f0ed89d4eac6945b60405161050a6020916323b872dd60e01b838201523360248201523060448201528460648201526064815261050481612f2e565b856135b1565b84600052601781526040600020846000528152604060002061052d848254613098565b9055846000526017815260406000208460005281526001604060002001610555848254613098565b90556040519283523392a4005b346103975760403660031901126103975761057b612e84565b6001600160a01b03166000908152600d60205260409020805460243590811015610397576105a89161307c565b5080546105e26001830154926003600282015491015490604051948594859094939260609260808301968352602083015260408201520152565b0390f35b346103975760603660031901126103975760243560043560443561061161060c33613a59565b6145ce565b816000526013602052604060002083600052602052806040600020556040519081527f5845e315015ee03f0d4ab1d198172b4f733609dc3de8b957ae1d86c87403018960203392a4005b34610397576020366003190112610397576004356001600160a01b0381811691828103610397577f8c78349fc44add47ae711ddc6e926b7845597c57473e587420693d8d0547845a926060926106b361060c33613a59565b6106be821515613948565b600f8054610100600160a81b03198116600895861b610100600160a81b031617909155604080513381529190941c91909116602082015291820152a1005b3461039757604036600319011261039757610715612e84565b61071d612e9a565b9060018060a01b038091166000526001602052604060002091166000526020526020604060002054604051908152f35b34610397576020366003190112610397576001600160a01b0361076e612e84565b1660005260126020526020604060002054604051908152f35b346103975760206107a061079a36612ede565b9161446a565b60ff60405191168152f35b3461039757600036600319011261039757600f5460405160089190911c6001600160a01b03168152602090f35b34610397576020366003190112610397576001600160a01b036107f9612e84565b1660005260116020526020604060002054604051908152f35b346103975760403660031901126103975761082b612e84565b60243580151591828203610397576001600160a01b03169061084e821515613948565b61085733613a2f565b801561090d575b156108ae576108869082600052601460205260406000209060ff801983541691151516179055565b337f17ec2643977f0865dd45350e9efdcdfead258c9220974e67d1a37ca144772293600080a4005b60405162461bcd60e51b815260206004820152603160248201527f444f4553204e4f5420484156452057414c4c4554532041444d494e204f5220526044820152704553455256452041444d494e20524f4c4560781b6064820152608490fd5b5061091733613a05565b61085e565b34610397576000366003190112610397576020600c54604051908152f35b346103975760a0366003190112610397576004356001600160401b0381116103975761096a90369060040161304c565b906024356001600160401b0381116103975761098a90369060040161304c565b92906044356001600160401b038111610397576109ab90369060040161304c565b90949092906064356001600160401b038111610397576109cf90369060040161304c565b90939092906001600160401b0360843511610397576109f33660843560040161304c565b969092610a01858214613b56565b610a0c828214613b56565b610a17868214613b56565b60005b818110610a2c57602060405160018152f35b610a3781838c613b9c565b356001600160a01b0381168103610397578b610a608386610a59828c8b613b9c565b3593613b9c565b3590610a6d848b8d613b9c565b3592610a7a368e8b612fbc565b91610a836134d1565b600a835111610f2e577f00000000000000000000000000000000000000000000000000000000000000008110610ef2576001600160a01b03821615610ebe57600c54851015610e8857610ad585612f87565b50548110610e4b57610ae78130613cb2565b50610aff6001610af687612f87565b50015485613098565b610b297f000000000000000000000000000000000000000000000000000000000000000042613098565b10610e0757610b36613ace565b85815284602082015281606082015260018060a01b038316600052600d60205260406000208054600160401b811015610d7b57610b789160018201815561307c565b919091610df1578051825560208101516001830155604081015160028301556060810151600383015560800151805191906001600160401b038311610d7b57600160401b8311610d7b576004820154836004840155808410610dc4575b506020600491019101600052602060002060005b838110610da757505050506001600160a01b0382166000908152600d602052604090205460001981018110610d91578351610cb6575b60405194608086019286526020860152600019016040850152608060608501528251809152602060a085019301906000905b808210610c945750610c8f9695946001600160a01b039093169333936000805160206146b08339815191529350908190039150a46001600b55613afc565b610a1a565b82516001600160a01b0316855260209485019490920191600190910190610c51565b6001600160a01b0383166000908152600d60205260409020610cdd9060001983019061307c565b508451906001600160401b038211610d7b57600160401b8211610d7b576004810154826004830155808310610d4e575b506004602087019101600052602060002060005b838110610d315750505050610c1f565b82516001600160a01b031681830155602090920191600101610d21565b600482016000526020600020908382015b8183018110610d6f575050610d0d565b60008155600101610d5f565b634e487b7160e01b600052604160045260246000fd5b634e487b7160e01b600052601160045260246000fd5b82516001600160a01b031681830155602090920191600101610be9565b600483016000526020600020908482015b8183018110610de5575050610bd5565b60008155600101610dd5565b634e487b7160e01b600052600060045260246000fd5b60405162461bcd60e51b815260206004820152601c60248201527b696e697469616c2072656c65617365206f7574206f662072616e676560201b6044820152606490fd5b60405162461bcd60e51b81526020600482015260156024820152743c203120746f6b656e207065722072656c6561736560581b6044820152606490fd5b60405162461bcd60e51b815260206004820152600e60248201526d189859081cd8da19591d5b19525960921b6044820152606490fd5b60405162461bcd60e51b815260206004820152600c60248201526b746f2030206164647265737360a01b6044820152606490fd5b60405162461bcd60e51b8152602060048201526014602482015273616d6f756e74203c206d696e2066756e64696e6760601b6044820152606490fd5b60405162461bcd60e51b815260206004820152601e60248201527f6d61782031302063616e63656c61626c654279206164647265737365657300006044820152606490fd5b34610397576020366003190112610397576001600160a01b03610f94612e84565b16600052600d6020526020604060002054604051908152f35b3461039757600036600319011261039757602060ff601554166040519015158152f35b34610397576040366003190112610397576020610483610fee612e84565b60243590613c23565b346103975761104f600261103a61100d36613022565b6110278261102083979596949733613be6565b101561406a565b33600052600d602052604060002061307c565b5001611047838254613098565b905530613542565b602060405160018152f35b346103975760403660031901126103975760206110a0611078612e84565b602435906110906001600160a01b0382161515613948565b61109b8282336143cb565b613cb2565b6040519015158152f35b346103975760203660031901126103975760206104836110c8612e84565b614029565b34610397576040366003190112610397576110e6612e84565b60243590336000526001602052604060002060018060a01b038216600052602052604060002054918083106111215761104f920390336130a5565b60405162461bcd60e51b815260206004820152602560248201527f45524332303a2064656372656173656420616c6c6f77616e63652062656c6f77604482015264207a65726f60d81b6064820152608490fd5b3461039757602061048361118736612ede565b91613793565b34610397576040366003190112610397576111a6612e84565b602435906001600160a01b0381169081156111c18115613948565b6111d26111cd33613a05565b614624565b6111db82613fb1565b84116112df57611290576111ee90613e7b565b6111f6613eca565b80600052600060205260406000205491808310611240576020816000805160206146d0833981519152926000958587528684520360408620558060025403600255604051908152a3005b60405162461bcd60e51b815260206004820152602260248201527f45524332303a206275726e20616d6f756e7420657863656564732062616c616e604482015261636560f01b6064820152608490fd5b60405162461bcd60e51b815260206004820152602160248201527f45524332303a206275726e2066726f6d20746865207a65726f206164647265736044820152607360f81b6064820152608490fd5b60405162461bcd60e51b815260206004820152601a60248201527924b739bab33334b1b2b73a103a37b5b2b739903a3790313ab93760311b6044820152606490fd5b346103975760203660031901126103975761133d6004356131f5565b901561134e57602090604051908152f35b506020600254610483565b346103975760003660031901126103975761137b6113763361398c565b61343b565b6020600160085401806008557f8030e83b04d87bef53480e26263266d6ca66863aa8506aca6f2559d18aa1cb6782604051838152a1604051908152f35b346103975760206104836113cb36612ec0565b929190916141e8565b3461039757600036600319011261039757604051600090600454600181811c908083169283156114b0575b602093848410811461149a5783865290811561147a575060011461143a575b6105e28461142e81880382612f64565b60405191829182612e58565b919350600460005283600020916000925b82841061146757505050816105e29361142e928201019361141e565b805485850187015292850192810161144b565b60ff1916858501525050151560051b820101915061142e816105e261141e565b634e487b7160e01b600052602260045260246000fd5b91607f16916113ff565b346103975760403660031901126103975760206110a06114d8612e84565b6114e0612eb0565b906139b6565b346103975760e036600319011261039757602061048360c43560a4356084356064356044356024356004356142fd565b3461039757600036600319011261039757602060ff600a5416604051908152f35b346103975760a036600319011261039757611550612e84565b6084356001600160401b038111610397573660238201121561039757611580903690602481600401359101612fbc565b6115886134d1565b600a815111610f2e577f000000000000000000000000000000000000000000000000000000000000000060243510610ef2576001600160a01b03821615610ebe57600c546064351015610e88576115e0606435612f87565b505460243510610e4b576115f660243530613cb2565b506116126001611607606435612f87565b500154604435613098565b61163c7f000000000000000000000000000000000000000000000000000000000000000042613098565b10610e0757611649613ace565b60643581526044356020820152602435606082015260018060a01b038316600052600d60205260406000208054600160401b811015610d7b576116919160018201815561307c565b919091610df1578051825560208101516001830155604081015160028301556060810151600383015560800151805191906001600160401b038311610d7b57600160401b8311610d7b57600482015483600484015580841061189a575b506020600491019101600052602060002060005b83811061187d576001600160a01b0386166000908152600d6020526040902054869060001981019087908211610d915780516117ca575b604051916080830190602435845260443560208501526040840152608060608401528151809152602060a0840192019060005b8181106117ab575050606435936001600160a01b03169233926000805160206146b0833981519152925081900390a46001600b55602060405160018152f35b82516001600160a01b031684526020938401939092019160010161176c565b60018060a01b038316600052600d60205260046117eb83604060002061307c565b50825191016001600160401b038211610d7b57600160401b8211610d7b578054828255808310611854575b506020830190600052602060002060005b8381106118375750505050611739565b82516001600160a01b031681830155602090920191600101611827565b8160005282602060002091820191015b8181106118715750611816565b60008155600101611864565b82516001600160a01b031681830155602090920191600101611702565b600483016000526020600020908482015b81830181106118bb5750506116ee565b600081556001016118ab565b34610397576040366003190112610397576118e0612e84565b602435906001600160a01b03166118f8811515613948565b61190961190433613a2f565b613a83565b8060005260116020528160406000205533600080516020614690833981519152600080a4005b3461039757602036600319011261039757602061048361194d612e84565b613fdb565b34610397576020366003190112610397576020610483611970612e84565b6001600160a01b038116600090815280845260409020549061199190614029565b90613098565b34610397576000366003190112610397576119b46113763361398c565b600160ff1960155416176015556000805160206146708339815191526040805133815260016020820152a1005b3461039757604036600319011261039757611a066119fd612e84565b6024359061422b565b60405180916020808352608060c08401928051838601528281015160408601526040810151606086015260608101518286015201519160a08085015282518091528160e0850193019160005b828110611a6157505050500390f35b83516001600160a01b031685528695509381019392810192600101611a52565b3461039757611a8f36612ede565b6000929192526016602052604060002060018060a01b03809216600052602052604060002091166000526020526020604060002054604051908152f35b346103975760203660031901126103975760043560ff811681036103975761142e6105e291614500565b34610397576040366003190112610397576020610483611b14612e84565b60243590613bac565b34610397576020366003190112610397576020610483611b3b612e84565b613fb1565b34610397576020610483611b5336612ede565b916138bd565b3461039757602036600319011261039757600435600c54811015610397576105a890612f87565b34610397576020366003190112610397576020610483611b9e612e84565b611991611baa82614029565b91613fdb565b3461039757604036600319011261039757611bc9612e84565b602435906001600160a01b0316611be1811515613948565b611bed61190433613a2f565b80600052601260205281604060002055336000805160206146f0833981519152600080a4005b346103975760e0366003190112610397576080366063190112610397576020610483604051611c4181612f13565b60643581526084358382015260a435604082015260c43560608201526044356024356004356142e1565b34610397576040366003190112610397576020610483611c89612e84565b6024359061374f565b3461039757604036600319011261039757611cab612e84565b60243590611cbb6113763361398c565b611cc36134d1565b6001600160a01b03811690611ce4908390611cdf841515613491565b61374f565b611cef813384613542565b8260005260176020526040600020826000526020526001604060002001611d178282546132f0565b90556040519081527f91fb9d98b786c57d74c099ccd2beca1739e9f6a81fb49001ca465c4b7591bbe260203392a46001600b55005b34610397576000366003190112610397576020600854604051908152f35b3461039757604036600319011261039757611d83612e84565b60243590611d8f6134d1565b611d9a8233836138bd565b908115611e41576001600160a01b031690611db6813384613542565b826000527f2f6639d24651730c7bf57c95ddbf96d66d11477e4ec626876f92c22e5f365e68602060168152604060002084600052815260406000203360005281526040600020611e07848254613098565b9055846000526017815260406000208460005281526001604060002001611e2f8482546132f0565b90556040519283523392a46001600b55005b60405162461bcd60e51b815260206004820152601d60248201527f594f552043414e60542052454345495645204d4f524520544f4b454e530000006044820152606490fd5b34610397576040366003190112610397576020611ea1612e84565b6001600160a01b03811660009081526005835260409020611ec4906024356132b9565b919015611ed45750604051908152f35b611ede9150613fb1565b610483565b346103975760003660031901126103975760206040516127108152f35b346103975760a036600319011261039757611f19612e84565b608435801515916064359190602435848303610397576001600160a01b039091169261084e918415159190611f4d83613948565b611f5961190433613a2f565b611f6283613948565b611f6e61190433613a2f565b8560005260126020528060406000205585336000805160206146f0833981519152600080a4611f9c82613948565b611fa861190433613a2f565b846000526011602052806040600020558433600080516020614690833981519152600080a4613948565b3461039757604036600319011261039757611feb612e84565b611ff3612e9a565b9060018060a01b03809116600052601260205260406000205460005260136020526040600020911660005260126020526040600020546000526020526020604060002054604051908152f35b3461039757604036600319011261039757612058612e84565b6001600160a01b0381169060243582156120728115613948565b61207e6111cd33613a05565b61208a82600254613098565b60105410612128576120e35760206000805160206146d0833981519152916120b3600094613e7b565b6120bb613eca565b6120c781600254613098565b60025584845283825260408420818154019055604051908152a3005b60405162461bcd60e51b815260206004820152601f60248201527f45524332303a206d696e7420746f20746865207a65726f2061646472657373006044820152606490fd5b60405162461bcd60e51b815260206004820152602a60248201527f43616e6e6f74206d696e74206d6f7265207468616e20746865206d617820746f60448201526974616c20737570706c7960b01b6064820152608490fd5b346103975760003660031901126103975761219d6113763361398c565b60ff19601554166015556000805160206146708339815191526040805133815260006020820152a1005b34610397576040366003190112610397576121e0612e84565b6121e8612eb0565b60ff9182821690811515806122b2575b61220190613901565b6001600160a01b031691612216831515613948565b6122226113763361398c565b8260005260096020526001604060002054161590816122a5575b5061227f575b600192826000526009602052604060002090828254918216179060ff191617905560405190815260008051602061471083398151915260203392a4005b600a549280841693818514610d9157816001809601169060ff191617600a559250612242565b600191501615158461223c565b50600f8381178516146121f8565b3461039757604036600319011261039757600435600052601360205260406000206024356000526020526020604060002054604051908152f35b346103975760403660031901126103975761104f612316612e84565b336000526001602052604060002060018060a01b038216600052602052612344602435604060002054613098565b90336130a5565b346103975760003660031901126103975760206040517f00000000000000000000000000000000000000000000000000000000000000008152f35b34610397576020366003190112610397576001600160a01b036123a7612e84565b1660005260006020526020604060002054604051908152f35b3461039757600036600319011261039757602060ff600f5416604051908152f35b34610397576103d06123f236612ede565b916143cb565b34610397576000366003190112610397576020601054604051908152f35b346103975761242436612ede565b906001600160a01b038082161515806125d9575b61244190613948565b83169081600052602092600184526040600020336000528452604060002054808211612573576124728284886143cb565b61247c82876140aa565b9061249982519361249288850195865190613098565b1015613c71565b81519182612553575b5050505191826124b7575b8360405160018152f35b6000526001835260406000203360005283526040600020549360001985036124ee575b6124e5939450613d0a565b808280806124ad565b82851061250e57612506836124e595960333836130a5565b8493506124da565b60405162461bcd60e51b815260048101859052601d60248201527f45524332303a20696e73756666696369656e7420616c6c6f77616e63650000006044820152606490fd5b61256161256b938630613d0a565b51900333876130a5565b8580806124a2565b60405162461bcd60e51b815260048101869052603860248201527f54686520617070726f76656420616c6c6f77616e6365206973206c6f776572206044820152771d1a185b881d1a19481d1c985b9cd9995c88185b5bdd5b9d60421b6064820152608490fd5b508381161515612438565b34610397576125f236612ec0565b909291927f000000000000000000000000000000000000000000000000000000000000000084116127cd576001831061279a57612710808211612764576001841115612712575081156126e0575b6040519261264d84612f13565b8352602083019384526040830190815260608301918252600c54600160401b811015610d7b578060016126839201600c55612f87565b949094610df15760039351855551600185015551600284015551910155600c546000198101908111610d915760405160209180337f9c52cb9bbb9b7fa6ddb26d1e82afc4e62c9ec50c0f3488c10bb8ad22d4edc4c3600080a38152f35b60405162461bcd60e51b815260206004820152600a6024820152690706572696f64203d20360b41b6044820152606490fd5b60018414612721575b50612640565b810361272d578461271b565b60405162461bcd60e51b815260206004820152600f60248201526e72656c6561736564203c203130302560881b6044820152606490fd5b60405162461bcd60e51b815260206004820152600e60248201526d72656c65617365203e203130302560901b6044820152606490fd5b60405162461bcd60e51b815260206004820152600b60248201526a3c20312072656c6561736560a81b6044820152606490fd5b60405162461bcd60e51b81526020600482015260136024820152720ccd2e4e6e840e4cad8cac2e6ca407c40dac2f606b1b6044820152606490fd5b3461039757604036600319011261039757612821612e84565b602435600052601760205260406000209060018060a01b03166000526020526020604060002054604051908152f35b34610397576000366003190112610397576020600254604051908152f35b346103975760003660031901126103975760206040517f00000000000000000000000000000000000000000000000000000000000000008152f35b346103975760c0366003190112610397576128c2612e84565b6024906001600160a01b0360a435818116929184359084830361039757831680600052602094600d8652826040600020541115612b95578015612b585781600052600d865261291583604060002061307c565b509461292086613b0b565b15612b0057604435865403612ab157606435600187015403612a57576003860194608435865403612a07576129558583613bac565b9182156129c65760029798995082918161297e6129758961298495613be6565b95869330613542565b30613542565b6040519283528883015260408201527f6945f4788d8a6b16089d616d1f7bb52372bfdbc43addd3386a7842db4199986a60603392a45491015560405160018152f35b60405162461bcd60e51b8152600481018a9052601a818c015279151a5b595b1bd8dac81a185cc81b9bc81d985b1d59481b19599d60321b6044820152606490fd5b60405162461bcd60e51b8152600481018990526023818b01527f457870656374656420746f74616c416d6f756e7420646f6573206e6f74206d616044820152620e8c6d60eb1b6064820152608490fd5b60405162461bcd60e51b815260048101889052602d818a01527f457870656374656420636f6d6d656e63656d656e7454696d657374616d70206460448201526c0decae640dcdee840dac2e8c6d609b1b6064820152608490fd5b60405162461bcd60e51b8152600481018890526022818a01527f4578706563746564207363686564756c65496420646f6573206e6f74206d61746044820152610c6d60f31b6064820152608490fd5b60405162461bcd60e51b815260048101889052602b818a01527f596f7520617265206e6f7420616c6c6f77656420746f2063616e63656c20746860448201526a69732074696d656c6f636b60a81b6064820152608490fd5b60405162461bcd60e51b81526004810187905260168189015275496e76616c6964207265636c61696d546f6b656e546f60501b6044820152606490fd5b60405162461bcd60e51b8152600481018790526010818901526f696e76616c69642074696d656c6f636b60801b6044820152606490fd5b34610397576040366003190112610397576020610483612bea612e84565b60243590613c4f565b346103975760403660031901126103975761104f612c0f612e84565b60243590336130a5565b3461039757604036600319011261039757612c32612e84565b612c3a612eb0565b9060ff8083169081151580612d87575b612c5390613901565b6001600160a01b03831692612c80908590612c6f861515613948565b612c7b6113763361398c565b6139b6565b15612d4c5760018416612cca575b6000938385526009602052604085209182549181831618169060ff191617905560405190815260008051602061471083398151915260203392a4005b600a5493818516946001861115612cf9578515610d915760ff1916600019909501821694909417600a55612c8e565b60405162461bcd60e51b815260206004820152602560248201527f4d7573742068617665206174206c65617374206f6e6520636f6e74726163742060448201526430b236b4b760d91b6064820152608490fd5b60405162461bcd60e51b815260206004820152601360248201527243414e204e4f54205245564f4b4520524f4c4560681b6044820152606490fd5b50600f848117821614612c4a565b3461039757600036600319011261039757600090600354600181811c90808316928315612e2b575b602093848410811461149a5783865290811561147a5750600114612deb576105e28461142e81880382612f64565b919350600360005283600020916000925b828410612e1857505050816105e29361142e928201019361141e565b8054858501870152928501928101612dfc565b91607f1691612dbd565b60005b838110612e485750506000910152565b8181015183820152602001612e38565b60409160208252612e788151809281602086015260208686019101612e35565b601f01601f1916010190565b600435906001600160a01b038216820361039757565b602435906001600160a01b038216820361039757565b6024359060ff8216820361039757565b60809060031901126103975760043590602435906044359060643590565b6060906003190112610397576001600160a01b0390600435828116810361039757916024359081168103610397579060443590565b608081019081106001600160401b03821117610d7b57604052565b60a081019081106001600160401b03821117610d7b57604052565b604081019081106001600160401b03821117610d7b57604052565b601f909101601f19168101906001600160401b03821190821017610d7b57604052565b600c54811015612fa657600c60005260206000209060021b0190600090565b634e487b7160e01b600052603260045260246000fd5b9092916001600160401b038411610d7b578360051b6040519260208094612fe582850182612f64565b809781520191810192831161039757905b8282106130035750505050565b81356001600160a01b0381168103610397578152908301908301612ff6565b6060906003190112610397576004356001600160a01b038116810361039757906024359060443590565b9181601f84011215610397578235916001600160401b038311610397576020808501948460051b01011161039757565b8054821015612fa6576000526005602060002091020190600090565b91908201809211610d9157565b6001600160a01b0390811691821561315657169182156131065760207f8c5be1e5ebec7d5bd14f71427d1e84f3dd0314c0f7b2291e5b200ac8c7c3b925918360005260018252604060002085600052825280604060002055604051908152a3565b60405162461bcd60e51b815260206004820152602260248201527f45524332303a20617070726f766520746f20746865207a65726f206164647265604482015261737360f01b6064820152608490fd5b60405162461bcd60e51b8152602060048201526024808201527f45524332303a20617070726f76652066726f6d20746865207a65726f206164646044820152637265737360e01b6064820152608490fd5b600754811015612fa657600760005260206000200190600090565b600654811015612fa657600660005260206000200190600090565b8054821015612fa65760005260206000200190600090565b801561327b5760085481116132365761320d906132fd565b600654810361321f5750600090600090565b613228906131a7565b90549060031b1c9060019190565b60405162461bcd60e51b815260206004820152601d60248201527f4552433230536e617073686f743a206e6f6e6578697374656e742069640000006044820152606490fd5b60405162461bcd60e51b815260206004820152601660248201527504552433230536e617073686f743a20696420697320360541b6044820152606490fd5b801561327b576008548111613236576132d290826133a5565b815481036132e4575050600090600090565b600161322892016131dd565b91908203918211610d9157565b6006805491821561339d576000925b80841061335b57508215159182613337575b505015613334576000198101908111610d915790565b90565b909150600019908382810111610d915760005282602060002001015414388061331e565b60019061336e818618831c828716613098565b91846000528383602060002001541160001461338b57505061330c565b9094508101809111610d91579261330c565b505050600090565b805491821561339d576000925b8084106133d95750821515918261333757505015613334576000198101908111610d915790565b6001906133ec818618831c828716613098565b9184600052838360206000200154116000146134095750506133b2565b9094508101809111610d9157926133b2565b8115613425570490565b634e487b7160e01b600052601260045260246000fd5b1561344257565b60405162461bcd60e51b815260206004820152602160248201527f444f4553204e4f54204841564520434f4e54524143542041444d494e20524f4c6044820152604560f81b6064820152608490fd5b1561349857565b60405162461bcd60e51b815260206004820152601160248201527042414420544f4b454e204144445245535360781b6044820152606490fd5b6002600b54146134e2576002600b55565b60405162461bcd60e51b815260206004820152601f60248201527f5265656e7472616e637947756172643a207265656e7472616e742063616c6c006044820152606490fd5b6001600160a01b039091168152602081019190915260400190565b61357761357c939261356960405194859263a9059cbb60e01b602085015260248401613527565b03601f198101845283612f64565b6135b1565b565b6001600160401b038111610d7b57601f01601f191660200190565b90816020910312610397575180151581036103975790565b60405161362e916001600160a01b03166135ca82612f49565b6000806020958685527f5361666545524332303a206c6f772d6c6576656c2063616c6c206661696c656487860152868151910182855af13d156136b6573d916136128361357e565b926136206040519485612f64565b83523d60008785013e6136ba565b80519082821592831561369e575b505050156136475750565b6084906040519062461bcd60e51b82526004820152602a60248201527f5361666545524332303a204552433230206f7065726174696f6e20646964206e6044820152691bdd081cdd58d8d9595960b21b6064820152fd5b6136ae9350820181019101613599565b38828161363c565b6060915b9192901561371c57508151156136ce575090565b3b156136d75790565b60405162461bcd60e51b815260206004820152601d60248201527f416464726573733a2063616c6c20746f206e6f6e2d636f6e74726163740000006044820152606490fd5b82519091501561372f5750805190602001fd5b60405162461bcd60e51b815290819061374b9060048301612e58565b0390fd5b90600052601760205260406000209060018060a01b0316600052602052600160406000200154806133345750600090565b81810292918115918404141715610d9157565b6040805163277166bf60e11b815293849390929084906137b890859060048401613527565b03602094859181305afa9485156138b257600095613883575b508151630981b24d60e41b815260048101849052938085602481305afa94851561387857600095613846575b506127109586810290808204881490151715610d9157613842956138209161341b565b9360005260178152826000209160018060a01b03166000525260002054613780565b0490565b90948582813d8311613871575b61385d8183612f64565b8101031261386e57505193386137fd565b80fd5b503d613853565b83513d6000823e3d90fd5b90948482813d83116138ab575b61389a8183612f64565b8101031261386e57505193386137d1565b503d613890565b82513d6000823e3d90fd5b90613334926040916138d0828286613793565b6000928352601660209081528484206001600160a01b039687168552815284842092909516835293522054906132f0565b1561390857565b60405162461bcd60e51b8152602060048201526018602482015277444f4553204e4f5420484156452056414c494420524f4c4560401b6044820152606490fd5b1561394f57565b60405162461bcd60e51b81526020600482015260156024820152740416464726573732063616e6e6f742062652030783605c1b6044820152606490fd5b6001600160a01b03166139a0811515613948565b6000526009602052600160406000205416151590565b9060ff918282161515806139f7575b6139ce90613901565b6001600160a01b03166139e2811515613948565b60005260096020526040600020541616151590565b50600f8281178416146139c5565b6001600160a01b0316613a19811515613948565b6000526009602052600260406000205416151590565b6001600160a01b0316613a43811515613948565b6000526009602052600460406000205416151590565b6001600160a01b0316613a6d811515613948565b6000526009602052600860406000205416151590565b15613a8a57565b606460405162461bcd60e51b815260206004820152602060248201527f444f4553204e4f5420484156452057414c4c4554532041444d494e20524f4c456044820152fd5b60405190613adb82612f2e565b60606080836000815260006020820152600060408201526000838201520152565b6000198114610d915760010190565b60005b60048201805482101561339d5781613b25916131dd565b90543360039290921b1c6001600160a01b031614613b4f57613b48600491613afc565b9050613b0e565b5050600190565b15613b5d57565b60405162461bcd60e51b81526020600482015260176024820152760dad2e6dac2e8c6d0cac840c2e4e4c2f240d8cadccee8d604b1b6044820152606490fd5b9190811015612fa65760051b0190565b613bb6828261422b565b9060406060830151920151821115600014613bd357505050600090565b61333492613be091613c4f565b906132f0565b613bf0828261422b565b906040606083015192019182511015600014613c0e57505050600090565b61333492613c1b91613c4f565b9051906132f0565b90613c2d9161422b565b6060810151604090910151808211613c46575050600090565b613334916132f0565b61333491613c5c9161422b565b602081015190606081015190519142906141e8565b15613c7857565b60405162461bcd60e51b8152602060048201526012602482015271496e737566666963656e7420746f6b656e7360701b6044820152606490fd5b90613cbd81336140aa565b613cd38151926124926020840194855190613098565b5180613cf9575b505180613ce8575050600190565b613cf29133613d0a565b3880613b4f565b613d04908330613d0a565b38613cda565b90916001600160a01b0380831692908315613e28578416938415613dd757613d34613d3992613e7b565b613e7b565b600082815280602052604081205491808310613d8357604082826000805160206146d0833981519152958760209652828652038282205586815220818154019055604051908152a3565b60405162461bcd60e51b815260206004820152602660248201527f45524332303a207472616e7366657220616d6f756e7420657863656564732062604482015265616c616e636560d01b6064820152608490fd5b60405162461bcd60e51b815260206004820152602360248201527f45524332303a207472616e7366657220746f20746865207a65726f206164647260448201526265737360e81b6064820152608490fd5b60405162461bcd60e51b815260206004820152602560248201527f45524332303a207472616e736665722066726f6d20746865207a65726f206164604482015264647265737360d81b6064820152608490fd5b6001600160a01b038116600090815260056020526040902090613e9d90613fb1565b60085480613eaa84613f8e565b10613eb457505050565b82613ec460019261357c95613f3e565b01613f3e565b6002546008549081613eda613f61565b10613ee3575050565b600654600160401b9283821015610d7b57613f07826001613f2094016006556131c2565b90919082549060031b91821b91600019901b1916179055565b60075491821015610d7b57613f0782600161357c94016007556131a7565b80549190600160401b831015610d7b5782613f0791600161357c950181556131dd565b60065480613f6f5750600090565b6000198101908111610d9157613f84906131c2565b90549060031b1c90565b805480613f9c575050600090565b6000198101908111610d9157613f84916131dd565b6133349060018060a01b0381166000526000602052611991611baa60406000205461199184614029565b60009060009283925b6001600160a01b0383168552600d60205260408520548410156140225761401a6140146040926119918787613bac565b94613afc565b939050613fe4565b9350915050565b60009060009283925b6001600160a01b0383168552600d6020526040852054841015614022576140626140146040926119918787613be6565b939050614032565b1561407157565b60405162461bcd60e51b8152602060048201526011602482015270185b5bdd5b9d080f881d5b9b1bd8dad959607a1b6044820152606490fd5b91906040928351906140bb82612f49565b84368337819260018060a01b038216936000928584526020918483526140eb846110208b88205461199186614029565b8390855b888752600d8086528b882080548310156141d3579088600361412d8f86908f96826141199161307c565b50966002809801549552858c528d2061307c565b5001540361414557505061414090613afc565b6140ef565b909192936141538487613be6565b8111156141a45761419d614140936141938f968998978f9682978f9784614182614188928f83613be091613be6565b9d613be6565b97528c528d2061307c565b5001918254613098565b9055613afc565b9450916141c4939b61419392936141cd989b8a989b9a528a52862061307c565b905580946132f0565b81520152565b5050509850955050929150836141cd916132f0565b91906141f661333494612f87565b509260036040519461420786612f13565b805486526001810154602087015260028101546040870152015460608501526142e1565b90614234613ace565b5060018060a01b03809216600052614256602091600d8352604060002061307c565b50906040519261426584612f2e565b82548452600460019384810154848701526002810154604087015260038101546060870152016040519384859385845492838152019360005285600020956000915b8383106142c75750505050506142bf92500382612f64565b608082015290565b8754811686529684019688965094810194918401916142a7565b9190613334939182519060208401519260606040860151950151955b95919293906000968181116143be57614315916132f0565b946000198501948511610d915761433561432f8685613780565b83613098565b8610156143b4578186101561434e575b50505050505090565b839495965061436290612710929394613780565b04948261436f83836132f0565b101561437c575b80614345565b926143a58661439f6143aa98979561439a61439a96611991996132f0565b61341b565b926132f0565b613780565b3880808080614376565b5050509250505090565b5050505050505050600090565b916143d89160249361446a565b600f54604051637d8e7d1b60e01b815260ff8316600482015292602091849190829060081c6001600160a01b03165afa91821561445e5760009261442a575b5061442190614500565b901561372f5750565b6144219192506144509060203d8111614457575b6144488183612f64565b810190613599565b9190614417565b503d61443e565b6040513d6000823e3d90fd5b600f5460405163cfdb31a960e01b81523060048201526001600160a01b0392831660248201529282166044840152606483019390935290916020918391608491839160081c165afa90811561445e576000916144c4575090565b6020813d82116144f8575b816144dc60209383612f64565b810103126144f457519060ff8216820361386e575090565b5080fd5b3d91506144cf565b600f54604051637f4ab1dd60e01b815260ff9290921660048301526000919082908290602490829060081c6001600160a01b03165afa9182156145c257809261454857505090565b9091503d8082843e61455a8184612f64565b8201916020818403126144f4578051906001600160401b0382116145be570182601f820112156144f4578051916145908361357e565b9361459e6040519586612f64565b8385526020848401011161386e5750906133349160208085019101612e35565b8280fd5b604051903d90823e3d90fd5b156145d557565b60405162461bcd60e51b815260206004820152602160248201527f444f4553204e4f542048415645205452414e534645522041444d494e20524f4c6044820152604560f81b6064820152608490fd5b1561462b57565b606460405162461bcd60e51b815260206004820152602060248201527f444f4553204e4f54204841564520524553455256452041444d494e20524f4c456044820152fdfe0d7fd1e314b29407db3d79c46ecf1fa3d2108961fab8d20584277358cac41e890765aaf231b09368f07b83425559b145d7d386b1ff8f16c157a2ff2c7b9896fe8d92942330bb9e8e714a4f66aa3eefe27f66d05b8ae4b6f6889e5a64a16155beddf252ad1be2c89b69c2b068fc378daa952ba7f163c4a11628f55a4df523b3eff213aa445739b8d5bb514c5e3142fe13baacfa991314172ceaf756996259b8b37e9e87d17fbf2950f3379a6331b75b6e997a147bbd3eaedc68c30c62186c68cba164736f6c6343000814000addf252ad1be2c89b69c2b068fc378daa952ba7f163c4a11628f55a4df523b3ef","opcodes":"PUSH1 0xC0 PUSH1 0x40 SWAP1 DUP1 DUP3 MSTORE CALLVALUE PUSH3 0x7FD JUMPI PUSH3 0x547B DUP1 CODESIZE SUB DUP1 SWAP2 PUSH3 0x22 DUP3 DUP6 PUSH3 0x81E JUMP JUMPDEST DUP4 CODECOPY DUP2 ADD SWAP2 PUSH2 0x140 DUP3 DUP5 SUB SLT PUSH3 0x7FD JUMPI PUSH3 0x3E DUP3 PUSH3 0x842 JUMP JUMPDEST SWAP2 PUSH3 0x4D PUSH1 0x20 DUP3 ADD PUSH3 0x842 JUMP JUMPDEST PUSH3 0x5A DUP4 DUP4 ADD PUSH3 0x842 JUMP JUMPDEST PUSH1 0x60 DUP4 ADD MLOAD SWAP1 SWAP4 SWAP1 PUSH1 0x1 PUSH1 0x1 PUSH1 0x40 SHL SUB DUP2 GT PUSH3 0x7FD JUMPI DUP7 PUSH3 0x7F SWAP2 DUP6 ADD PUSH3 0x857 JUMP JUMPDEST PUSH1 0x80 DUP5 ADD MLOAD SWAP1 SWAP7 PUSH1 0x1 PUSH1 0x1 PUSH1 0x40 SHL SUB DUP3 GT PUSH3 0x7FD JUMPI PUSH3 0xA2 SWAP2 DUP6 ADD PUSH3 0x857 JUMP JUMPDEST PUSH1 0xA0 DUP5 ADD MLOAD SWAP6 PUSH1 0xFF DUP8 AND DUP8 SUB PUSH3 0x7FD JUMPI PUSH1 0xC0 DUP6 ADD MLOAD SWAP4 PUSH1 0xE0 DUP7 ADD MLOAD PUSH2 0x120 PUSH2 0x100 DUP9 ADD MLOAD SWAP8 ADD MLOAD SWAP4 DUP1 MLOAD PUSH1 0x1 DUP1 PUSH1 0x40 SHL SUB DUP2 GT PUSH3 0x6D4 JUMPI PUSH1 0x3 SLOAD SWAP2 PUSH1 0x1 DUP4 DUP2 SHR SWAP4 AND DUP1 ISZERO PUSH3 0x7F2 JUMPI JUMPDEST PUSH1 0x20 DUP5 LT EQ PUSH3 0x7DC JUMPI DUP2 SWAP1 PUSH1 0x1F SWAP4 DUP5 DUP2 GT PUSH3 0x785 JUMPI JUMPDEST POP PUSH1 0x20 SWAP1 DUP5 DUP4 GT PUSH1 0x1 EQ PUSH3 0x6F6 JUMPI PUSH1 0x0 SWAP3 PUSH3 0x6EA JUMPI JUMPDEST POP POP DUP2 PUSH1 0x1 SHL SWAP2 PUSH1 0x0 NOT SWAP1 PUSH1 0x3 SHL SHR NOT AND OR PUSH1 0x3 SSTORE JUMPDEST DUP11 MLOAD SWAP1 PUSH1 0x1 PUSH1 0x1 PUSH1 0x40 SHL SUB DUP3 GT PUSH3 0x6D4 JUMPI PUSH1 0x4 SWAP12 DUP13 SLOAD PUSH1 0x1 DUP2 DUP2 SHR SWAP2 AND DUP1 ISZERO PUSH3 0x6C9 JUMPI JUMPDEST PUSH1 0x20 DUP3 LT EQ PUSH3 0x6B4 JUMPI SWAP1 DUP2 DUP4 DUP6 SWAP5 SWAP4 GT PUSH3 0x65B JUMPI JUMPDEST POP PUSH1 0x20 SWAP2 DUP4 GT PUSH1 0x1 EQ PUSH3 0x5F0 JUMPI PUSH1 0x0 SWAP3 PUSH3 0x5E4 JUMPI JUMPDEST POP POP DUP2 PUSH1 0x1 SHL SWAP2 PUSH1 0x0 NOT SWAP1 PUSH1 0x3 SHL SHR NOT AND OR DUP11 SSTORE JUMPDEST PUSH1 0x1 PUSH1 0xB SSTORE PUSH1 0x15 DUP1 SLOAD PUSH1 0xFF NOT SWAP1 DUP2 AND SWAP1 SWAP2 SSTORE SWAP3 PUSH1 0x1 PUSH1 0x1 PUSH1 0xA0 SHL SUB SWAP3 DUP4 DUP3 AND ISZERO PUSH3 0x595 JUMPI DUP4 AND SWAP3 DUP4 ISZERO PUSH3 0x548 JUMPI DUP10 AND SWAP10 DUP11 ISZERO PUSH3 0x4F3 JUMPI PUSH1 0xFF PUSH1 0xF SLOAD SWAP2 AND SWAP2 PUSH2 0x100 PUSH1 0x1 PUSH1 0xA8 SHL SUB SWAP1 PUSH1 0x8 SHL AND SWAP1 PUSH1 0x1 DUP1 PUSH1 0xA8 SHL SUB NOT AND OR OR PUSH1 0xF SSTORE PUSH1 0x10 SSTORE PUSH1 0x0 MSTORE PUSH1 0x9 PUSH1 0x20 MSTORE DUP3 PUSH1 0x0 KECCAK256 PUSH1 0x1 DUP3 DUP3 SLOAD AND OR SWAP1 SSTORE PUSH1 0x1 DUP2 PUSH1 0xA SLOAD AND OR PUSH1 0xA SSTORE DUP7 PUSH1 0x0 MSTORE PUSH1 0x2 DUP4 PUSH1 0x0 KECCAK256 SWAP2 DUP3 SLOAD SWAP1 PUSH1 0xFF DUP3 AND SWAP2 AND OR OR SWAP1 SSTORE PUSH1 0x5 PUSH1 0x20 MSTORE DUP2 PUSH1 0x0 KECCAK256 SWAP4 PUSH1 0x0 PUSH1 0x20 MSTORE DUP3 PUSH1 0x0 KECCAK256 SLOAD SWAP8 PUSH1 0x0 SWAP8 DUP9 JUMPDEST DUP2 PUSH1 0x0 MSTORE PUSH1 0xD PUSH1 0x20 MSTORE DUP6 PUSH1 0x0 KECCAK256 SLOAD DUP11 LT ISZERO PUSH3 0x290 JUMPI PUSH3 0x282 PUSH3 0x289 SWAP2 PUSH3 0x27B DUP13 DUP13 PUSH3 0xACB JUMP JUMPDEST SWAP1 PUSH3 0x8CE JUMP JUMPDEST SWAP10 PUSH3 0x9D1 JUMP JUMPDEST SWAP9 PUSH3 0x250 JUMP JUMPDEST PUSH3 0x2A0 SWAP1 DUP12 SWAP10 SWAP8 SWAP9 SWAP10 PUSH3 0x8CE JUMP JUMPDEST SWAP7 PUSH1 0x0 SWAP9 DUP10 JUMPDEST DUP4 PUSH1 0x0 MSTORE PUSH1 0xD PUSH1 0x20 MSTORE DUP8 PUSH1 0x0 KECCAK256 SLOAD DUP12 LT ISZERO PUSH3 0x2DF JUMPI PUSH3 0x2D1 PUSH3 0x2D8 SWAP2 PUSH3 0x27B DUP14 DUP13 PUSH3 0x9E1 JUMP JUMPDEST SWAP11 PUSH3 0x9D1 JUMP JUMPDEST SWAP10 PUSH3 0x2A6 JUMP JUMPDEST PUSH3 0x2EB SWAP1 DUP11 PUSH3 0x8CE JUMP JUMPDEST PUSH1 0x8 SLOAD DUP1 PUSH3 0x2FA DUP5 PUSH3 0x9AA JUMP JUMPDEST LT PUSH3 0x4D0 JUMPI JUMPDEST POP POP POP PUSH1 0x2 SLOAD PUSH1 0x8 SLOAD DUP1 PUSH3 0x315 PUSH3 0x979 JUMP JUMPDEST LT PUSH3 0x3ED JUMPI JUMPDEST POP POP PUSH1 0x0 DUP1 MLOAD PUSH1 0x20 PUSH3 0x545B DUP4 CODECOPY DUP2 MLOAD SWAP2 MSTORE PUSH1 0x20 DUP3 PUSH3 0x341 PUSH1 0x0 SWAP5 PUSH1 0x2 SLOAD PUSH3 0x8CE JUMP JUMPDEST PUSH1 0x2 SSTORE DUP5 DUP5 MSTORE DUP4 DUP3 MSTORE DUP9 DUP5 KECCAK256 DUP2 DUP2 SLOAD ADD SWAP1 SSTORE DUP9 MLOAD SWAP1 DUP2 MSTORE LOG3 DUP2 ISZERO PUSH3 0x3AA JUMPI POP PUSH1 0x80 MSTORE PUSH1 0xA0 MSTORE MLOAD PUSH2 0x473C SWAP1 DUP2 PUSH3 0xD1F DUP3 CODECOPY PUSH1 0x80 MLOAD DUP2 DUP2 DUP2 PUSH2 0xA8E ADD MSTORE DUP2 DUP2 PUSH2 0x1593 ADD MSTORE PUSH2 0x2363 ADD MSTORE PUSH1 0xA0 MLOAD DUP2 DUP2 DUP2 PUSH2 0xB04 ADD MSTORE DUP2 DUP2 PUSH2 0x1617 ADD MSTORE DUP2 DUP2 PUSH2 0x25F8 ADD MSTORE PUSH2 0x2886 ADD MSTORE RETURN JUMPDEST PUSH1 0x64 SWAP1 PUSH1 0x20 DUP6 MLOAD SWAP2 PUSH3 0x461BCD PUSH1 0xE5 SHL DUP4 MSTORE DUP3 ADD MSTORE PUSH1 0x17 PUSH1 0x24 DUP3 ADD MSTORE PUSH32 0x4D696E2074696D656C6F636B20616D6F756E74203E2030000000000000000000 PUSH1 0x44 DUP3 ADD MSTORE REVERT JUMPDEST PUSH1 0x6 SLOAD SWAP1 PUSH9 0x10000000000000000 SWAP2 DUP3 DUP2 LT ISZERO PUSH3 0x4BB JUMPI SWAP1 PUSH3 0x41C DUP3 PUSH1 0x1 PUSH3 0x435 SWAP5 ADD PUSH1 0x6 SSTORE PUSH3 0x8F2 JUMP JUMPDEST SWAP1 SWAP2 SWAP1 DUP3 SLOAD SWAP1 PUSH1 0x3 SHL SWAP2 DUP3 SHL SWAP2 PUSH1 0x0 NOT SWAP1 SHL NOT AND OR SWAP1 SSTORE JUMP JUMPDEST PUSH1 0x7 SLOAD SWAP1 DUP2 LT ISZERO PUSH3 0x4A6 JUMPI PUSH1 0x1 DUP2 ADD DUP1 PUSH1 0x7 SSTORE DUP2 LT ISZERO PUSH3 0x491 JUMPI PUSH1 0x7 PUSH1 0x0 MSTORE PUSH32 0xA66CC928B5EDB82AF9BD49922954155AB7B0942694BEA4CE44661D9A8736C688 ADD SSTORE PUSH1 0x0 DUP1 MLOAD PUSH1 0x20 PUSH3 0x545B DUP4 CODECOPY DUP2 MLOAD SWAP2 MSTORE PUSH1 0x20 PUSH3 0x31C JUMP JUMPDEST PUSH1 0x32 DUP6 PUSH4 0x4E487B71 PUSH1 0xE0 SHL PUSH1 0x0 MSTORE MSTORE PUSH1 0x24 PUSH1 0x0 REVERT JUMPDEST PUSH1 0x41 DUP6 PUSH4 0x4E487B71 PUSH1 0xE0 SHL PUSH1 0x0 MSTORE MSTORE PUSH1 0x24 PUSH1 0x0 REVERT JUMPDEST PUSH1 0x41 DUP8 PUSH4 0x4E487B71 PUSH1 0xE0 SHL PUSH1 0x0 MSTORE MSTORE PUSH1 0x24 PUSH1 0x0 REVERT JUMPDEST DUP3 PUSH3 0x4E3 PUSH1 0x1 SWAP3 PUSH3 0x4EA SWAP6 PUSH3 0x93D JUMP JUMPDEST ADD PUSH3 0x93D JUMP JUMPDEST DUP7 DUP1 DUP1 PUSH3 0x301 JUMP JUMPDEST DUP7 MLOAD PUSH3 0x461BCD PUSH1 0xE5 SHL DUP2 MSTORE PUSH1 0x20 DUP2 DUP15 ADD MSTORE PUSH1 0x29 PUSH1 0x24 DUP3 ADD MSTORE PUSH32 0x546F6B656E20726573657276652061646D696E20616464726573732063616E6E PUSH1 0x44 DUP3 ADD MSTORE PUSH9 0x6F742062652030783 PUSH1 0xBC SHL PUSH1 0x64 DUP3 ADD MSTORE PUSH1 0x84 SWAP1 REVERT JUMPDEST DUP7 MLOAD PUSH3 0x461BCD PUSH1 0xE5 SHL DUP2 MSTORE PUSH1 0x20 DUP2 DUP15 ADD MSTORE PUSH1 0x21 PUSH1 0x24 DUP3 ADD MSTORE PUSH32 0x546F6B656E206F776E657220616464726573732063616E6E6F74206265203078 PUSH1 0x44 DUP3 ADD MSTORE PUSH1 0x3 PUSH1 0xFC SHL PUSH1 0x64 DUP3 ADD MSTORE PUSH1 0x84 SWAP1 REVERT JUMPDEST DUP7 MLOAD PUSH3 0x461BCD PUSH1 0xE5 SHL DUP2 MSTORE PUSH1 0x20 DUP2 DUP15 ADD MSTORE PUSH1 0x24 DUP1 DUP3 ADD MSTORE PUSH32 0x5472616E736665722072756C657320616464726573732063616E6E6F74206265 PUSH1 0x44 DUP3 ADD MSTORE PUSH4 0x2030783 PUSH1 0xE4 SHL PUSH1 0x64 DUP3 ADD MSTORE PUSH1 0x84 SWAP1 REVERT JUMPDEST ADD MLOAD SWAP1 POP CODESIZE DUP1 PUSH3 0x188 JUMP JUMPDEST PUSH1 0x0 DUP15 DUP2 MSTORE PUSH1 0x20 DUP2 KECCAK256 SWAP4 POP PUSH1 0x1F NOT DUP6 AND SWAP1 JUMPDEST DUP2 DUP2 LT PUSH3 0x642 JUMPI POP SWAP1 DUP5 PUSH1 0x1 SWAP6 SWAP5 SWAP4 SWAP3 LT PUSH3 0x628 JUMPI JUMPDEST POP POP POP DUP2 SHL ADD DUP11 SSTORE PUSH3 0x19D JUMP JUMPDEST ADD MLOAD PUSH1 0x0 NOT PUSH1 0xF8 DUP5 PUSH1 0x3 SHL AND SHR NOT AND SWAP1 SSTORE CODESIZE DUP1 DUP1 PUSH3 0x61A JUMP JUMPDEST SWAP3 SWAP4 PUSH1 0x20 PUSH1 0x1 DUP2 SWAP3 DUP8 DUP7 ADD MLOAD DUP2 SSTORE ADD SWAP6 ADD SWAP4 ADD PUSH3 0x602 JUMP JUMPDEST SWAP1 SWAP2 SWAP3 POP DUP14 PUSH1 0x0 MSTORE PUSH1 0x20 PUSH1 0x0 KECCAK256 DUP4 DUP1 DUP7 ADD PUSH1 0x5 SHR DUP3 ADD SWAP3 PUSH1 0x20 DUP8 LT PUSH3 0x6AA JUMPI JUMPDEST SWAP5 DUP7 SWAP6 SWAP5 SWAP4 SWAP3 SWAP2 SWAP5 ADD PUSH1 0x5 SHR ADD SWAP1 JUMPDEST DUP2 DUP2 LT PUSH3 0x69A JUMPI POP PUSH3 0x171 JUMP JUMPDEST PUSH1 0x0 DUP2 SSTORE DUP6 SWAP5 POP PUSH1 0x1 ADD PUSH3 0x68B JUMP JUMPDEST SWAP3 POP DUP2 SWAP3 PUSH3 0x67C JUMP JUMPDEST PUSH1 0x22 DUP15 PUSH4 0x4E487B71 PUSH1 0xE0 SHL PUSH1 0x0 MSTORE MSTORE PUSH1 0x24 PUSH1 0x0 REVERT JUMPDEST SWAP1 PUSH1 0x7F AND SWAP1 PUSH3 0x15A JUMP JUMPDEST PUSH4 0x4E487B71 PUSH1 0xE0 SHL PUSH1 0x0 MSTORE PUSH1 0x41 PUSH1 0x4 MSTORE PUSH1 0x24 PUSH1 0x0 REVERT JUMPDEST ADD MLOAD SWAP1 POP CODESIZE DUP1 PUSH3 0x11E JUMP JUMPDEST PUSH1 0x3 PUSH1 0x0 SWAP1 DUP2 MSTORE SWAP4 POP PUSH32 0xC2575A0E9E593C00F959F8C92F12DB2869C3395A3B0502D05E2516446F71F85B SWAP2 SWAP1 JUMPDEST PUSH1 0x1F NOT DUP5 AND DUP6 LT PUSH3 0x769 JUMPI PUSH1 0x1 SWAP5 POP DUP4 PUSH1 0x1F NOT DUP2 AND LT PUSH3 0x74F JUMPI JUMPDEST POP POP POP DUP2 SHL ADD PUSH1 0x3 SSTORE PUSH3 0x134 JUMP JUMPDEST ADD MLOAD PUSH1 0x0 NOT PUSH1 0xF8 DUP5 PUSH1 0x3 SHL AND SHR NOT AND SWAP1 SSTORE CODESIZE DUP1 DUP1 PUSH3 0x740 JUMP JUMPDEST DUP2 DUP2 ADD MLOAD DUP4 SSTORE PUSH1 0x20 SWAP5 DUP6 ADD SWAP5 PUSH1 0x1 SWAP1 SWAP4 ADD SWAP3 SWAP1 SWAP2 ADD SWAP1 PUSH3 0x723 JUMP JUMPDEST SWAP1 SWAP2 POP PUSH1 0x3 PUSH1 0x0 MSTORE PUSH1 0x20 PUSH1 0x0 KECCAK256 DUP5 DUP1 DUP6 ADD PUSH1 0x5 SHR DUP3 ADD SWAP3 PUSH1 0x20 DUP7 LT PUSH3 0x7D2 JUMPI JUMPDEST SWAP1 DUP6 SWAP5 SWAP4 SWAP3 SWAP2 ADD PUSH1 0x5 SHR ADD SWAP1 JUMPDEST DUP2 DUP2 LT PUSH3 0x7C2 JUMPI POP PUSH3 0x106 JUMP JUMPDEST PUSH1 0x0 DUP2 SSTORE DUP5 SWAP4 POP PUSH1 0x1 ADD PUSH3 0x7B3 JUMP JUMPDEST SWAP3 POP DUP2 SWAP3 PUSH3 0x7A6 JUMP JUMPDEST PUSH4 0x4E487B71 PUSH1 0xE0 SHL PUSH1 0x0 MSTORE PUSH1 0x22 PUSH1 0x4 MSTORE PUSH1 0x24 PUSH1 0x0 REVERT JUMPDEST SWAP3 PUSH1 0x7F AND SWAP3 PUSH3 0xEE JUMP JUMPDEST PUSH1 0x0 DUP1 REVERT JUMPDEST PUSH1 0xA0 DUP2 ADD SWAP1 DUP2 LT PUSH1 0x1 PUSH1 0x1 PUSH1 0x40 SHL SUB DUP3 GT OR PUSH3 0x6D4 JUMPI PUSH1 0x40 MSTORE JUMP JUMPDEST PUSH1 0x1F SWAP1 SWAP2 ADD PUSH1 0x1F NOT AND DUP2 ADD SWAP1 PUSH1 0x1 PUSH1 0x1 PUSH1 0x40 SHL SUB DUP3 GT SWAP1 DUP3 LT OR PUSH3 0x6D4 JUMPI PUSH1 0x40 MSTORE JUMP JUMPDEST MLOAD SWAP1 PUSH1 0x1 PUSH1 0x1 PUSH1 0xA0 SHL SUB DUP3 AND DUP3 SUB PUSH3 0x7FD JUMPI JUMP JUMPDEST SWAP2 SWAP1 DUP1 PUSH1 0x1F DUP5 ADD SLT ISZERO PUSH3 0x7FD JUMPI DUP3 MLOAD SWAP1 PUSH1 0x1 PUSH1 0x1 PUSH1 0x40 SHL SUB DUP3 GT PUSH3 0x6D4 JUMPI PUSH1 0x40 MLOAD SWAP2 PUSH1 0x20 SWAP2 PUSH3 0x893 PUSH1 0x1F DUP4 ADD PUSH1 0x1F NOT AND DUP5 ADD DUP6 PUSH3 0x81E JUMP JUMPDEST DUP2 DUP5 MSTORE DUP3 DUP3 DUP8 ADD ADD GT PUSH3 0x7FD JUMPI PUSH1 0x0 JUMPDEST DUP2 DUP2 LT PUSH3 0x8BA JUMPI POP DUP3 PUSH1 0x0 SWAP4 SWAP5 SWAP6 POP ADD ADD MSTORE SWAP1 JUMP JUMPDEST DUP6 DUP2 ADD DUP4 ADD MLOAD DUP5 DUP3 ADD DUP5 ADD MSTORE DUP3 ADD PUSH3 0x8A4 JUMP JUMPDEST SWAP2 SWAP1 DUP3 ADD DUP1 SWAP3 GT PUSH3 0x8DC JUMPI JUMP JUMPDEST PUSH4 0x4E487B71 PUSH1 0xE0 SHL PUSH1 0x0 MSTORE PUSH1 0x11 PUSH1 0x4 MSTORE PUSH1 0x24 PUSH1 0x0 REVERT JUMPDEST PUSH1 0x6 SLOAD DUP2 LT ISZERO PUSH3 0x90E JUMPI PUSH1 0x6 PUSH1 0x0 MSTORE PUSH1 0x20 PUSH1 0x0 KECCAK256 ADD SWAP1 PUSH1 0x0 SWAP1 JUMP JUMPDEST PUSH4 0x4E487B71 PUSH1 0xE0 SHL PUSH1 0x0 MSTORE PUSH1 0x32 PUSH1 0x4 MSTORE PUSH1 0x24 PUSH1 0x0 REVERT JUMPDEST DUP1 SLOAD DUP3 LT ISZERO PUSH3 0x90E JUMPI PUSH1 0x0 MSTORE PUSH1 0x20 PUSH1 0x0 KECCAK256 ADD SWAP1 PUSH1 0x0 SWAP1 JUMP JUMPDEST SWAP1 DUP2 SLOAD SWAP2 PUSH9 0x10000000000000000 DUP4 LT ISZERO PUSH3 0x6D4 JUMPI DUP3 PUSH3 0x41C SWAP2 PUSH1 0x1 PUSH3 0x969 SWAP6 ADD DUP2 SSTORE PUSH3 0x924 JUMP JUMPDEST JUMP JUMPDEST SWAP2 SWAP1 DUP3 SUB SWAP2 DUP3 GT PUSH3 0x8DC JUMPI JUMP JUMPDEST PUSH1 0x6 SLOAD DUP1 PUSH3 0x988 JUMPI POP PUSH1 0x0 SWAP1 JUMP JUMPDEST PUSH1 0x0 NOT DUP2 ADD SWAP1 DUP2 GT PUSH3 0x8DC JUMPI PUSH3 0x9A0 SWAP1 PUSH3 0x8F2 JUMP JUMPDEST SWAP1 SLOAD SWAP1 PUSH1 0x3 SHL SHR SWAP1 JUMP JUMPDEST DUP1 SLOAD DUP1 PUSH3 0x9B9 JUMPI POP POP PUSH1 0x0 SWAP1 JUMP JUMPDEST PUSH1 0x0 NOT DUP2 ADD SWAP1 DUP2 GT PUSH3 0x8DC JUMPI PUSH3 0x9A0 SWAP2 PUSH3 0x924 JUMP JUMPDEST PUSH1 0x0 NOT DUP2 EQ PUSH3 0x8DC JUMPI PUSH1 0x1 ADD SWAP1 JUMP JUMPDEST PUSH3 0x9ED DUP3 DUP3 PUSH3 0xB0F JUMP JUMPDEST SWAP1 PUSH1 0x40 PUSH1 0x60 DUP4 ADD MLOAD SWAP3 ADD MLOAD DUP3 GT ISZERO PUSH1 0x0 EQ PUSH3 0xA0B JUMPI POP POP POP PUSH1 0x0 SWAP1 JUMP JUMPDEST PUSH3 0xA22 SWAP3 PUSH3 0xA1B SWAP2 PUSH3 0xA25 JUMP JUMPDEST SWAP1 PUSH3 0x96B JUMP JUMPDEST SWAP1 JUMP JUMPDEST SWAP1 PUSH3 0xA31 SWAP2 PUSH3 0xB0F JUMP JUMPDEST PUSH1 0x20 DUP2 ADD MLOAD PUSH1 0x60 DUP3 ADD MLOAD SWAP2 MLOAD PUSH1 0xC SLOAD DUP2 LT ISZERO PUSH3 0x90E JUMPI PUSH1 0xC PUSH1 0x0 MSTORE PUSH1 0x40 MLOAD PUSH1 0x80 DUP2 ADD SWAP3 PUSH1 0x2 SWAP3 SWAP1 SWAP3 SHL PUSH32 0xDF6966C971051C3D54EC59162606531493A51404A002842F56009D7E5CF4A8C7 ADD SWAP2 PUSH1 0x1 PUSH1 0x1 PUSH1 0x40 SHL SUB DUP5 GT DUP3 DUP6 LT OR PUSH3 0x6D4 JUMPI PUSH3 0xA22 SWAP5 PUSH1 0x60 SWAP5 PUSH1 0x40 MSTORE DUP4 SLOAD SWAP2 DUP3 DUP5 MSTORE PUSH1 0x1 DUP6 ADD SLOAD SWAP4 DUP5 PUSH1 0x20 DUP3 ADD MSTORE PUSH1 0x3 PUSH1 0x2 DUP8 ADD SLOAD SWAP7 DUP8 PUSH1 0x40 DUP5 ADD MSTORE ADD SLOAD SWAP7 DUP8 SWAP2 ADD MSTORE TIMESTAMP SWAP1 PUSH3 0xC35 JUMP JUMPDEST PUSH3 0xAD7 DUP3 DUP3 PUSH3 0xB0F JUMP JUMPDEST SWAP1 PUSH1 0x40 PUSH1 0x60 DUP4 ADD MLOAD SWAP3 ADD SWAP2 DUP3 MLOAD LT ISZERO PUSH1 0x0 EQ PUSH3 0xAF6 JUMPI POP POP POP PUSH1 0x0 SWAP1 JUMP JUMPDEST PUSH3 0xA22 SWAP3 PUSH3 0xB06 SWAP2 PUSH3 0xA25 JUMP JUMPDEST SWAP1 MLOAD SWAP1 PUSH3 0x96B JUMP JUMPDEST PUSH1 0x40 DUP1 MLOAD PUSH3 0xB1E DUP2 PUSH3 0x802 JUMP JUMPDEST PUSH1 0x0 SWAP4 DUP5 DUP3 MSTORE PUSH1 0x60 PUSH1 0x80 PUSH1 0x20 SWAP4 DUP8 DUP6 DUP3 ADD MSTORE DUP8 DUP7 DUP3 ADD MSTORE DUP8 DUP4 DUP3 ADD MSTORE ADD MSTORE PUSH1 0x1 DUP1 PUSH1 0xA0 SHL SUB DUP1 SWAP5 AND DUP6 MSTORE PUSH1 0xD DUP3 MSTORE DUP3 DUP6 KECCAK256 DUP1 SLOAD DUP3 LT ISZERO PUSH3 0xBEC JUMPI DUP6 MSTORE DUP2 DUP6 KECCAK256 DUP4 MLOAD SWAP6 SWAP4 SWAP2 PUSH1 0x5 MUL ADD PUSH3 0xB72 DUP7 PUSH3 0x802 JUMP JUMPDEST DUP1 SLOAD DUP7 MSTORE PUSH1 0x4 PUSH1 0x1 SWAP2 DUP3 DUP2 ADD SLOAD DUP6 DUP10 ADD MSTORE PUSH1 0x2 DUP2 ADD SLOAD DUP5 DUP10 ADD MSTORE PUSH1 0x3 DUP2 ADD SLOAD PUSH1 0x60 DUP10 ADD MSTORE ADD SWAP2 MLOAD DUP1 SWAP6 DUP5 DUP8 SWAP6 DUP6 SLOAD SWAP4 DUP5 DUP2 MSTORE ADD SWAP5 DUP8 MSTORE DUP1 DUP8 KECCAK256 SWAP7 SWAP2 JUMPDEST DUP4 DUP4 LT PUSH3 0xBD1 JUMPI POP POP POP POP POP PUSH3 0xBC9 SWAP3 POP SUB DUP3 PUSH3 0x81E JUMP JUMPDEST PUSH1 0x80 DUP3 ADD MSTORE SWAP1 JUMP JUMPDEST DUP8 SLOAD DUP2 AND DUP7 MSTORE SWAP7 DUP5 ADD SWAP7 DUP9 SWAP7 POP SWAP5 DUP2 ADD SWAP5 SWAP2 DUP5 ADD SWAP2 PUSH3 0xBAE JUMP JUMPDEST PUSH4 0x4E487B71 PUSH1 0xE0 SHL DUP7 MSTORE PUSH1 0x32 PUSH1 0x4 MSTORE PUSH1 0x24 DUP7 REVERT JUMPDEST DUP2 DUP2 MUL SWAP3 SWAP2 DUP2 ISZERO SWAP2 DUP5 DIV EQ OR ISZERO PUSH3 0x8DC JUMPI JUMP JUMPDEST DUP2 ISZERO PUSH3 0xC1F JUMPI DIV SWAP1 JUMP JUMPDEST PUSH4 0x4E487B71 PUSH1 0xE0 SHL PUSH1 0x0 MSTORE PUSH1 0x12 PUSH1 0x4 MSTORE PUSH1 0x24 PUSH1 0x0 REVERT JUMPDEST SWAP6 SWAP2 SWAP3 SWAP4 SWAP1 PUSH1 0x0 SWAP7 DUP2 DUP2 GT PUSH3 0xD11 JUMPI PUSH3 0xC50 SWAP2 PUSH3 0x96B JUMP JUMPDEST SWAP5 PUSH1 0x0 NOT DUP6 ADD SWAP5 DUP6 GT PUSH3 0x8DC JUMPI PUSH3 0xC75 PUSH3 0xC6E DUP7 DUP6 PUSH3 0xC00 JUMP JUMPDEST DUP4 PUSH3 0x8CE JUMP JUMPDEST DUP7 LT ISZERO PUSH3 0xD07 JUMPI DUP2 DUP7 LT ISZERO PUSH3 0xC90 JUMPI JUMPDEST POP POP POP POP POP POP SWAP1 JUMP JUMPDEST DUP4 SWAP5 SWAP6 SWAP7 POP PUSH3 0xCA6 SWAP1 PUSH2 0x2710 SWAP3 SWAP4 SWAP5 PUSH3 0xC00 JUMP JUMPDEST DIV SWAP5 DUP3 PUSH3 0xCB5 DUP4 DUP4 PUSH3 0x96B JUMP JUMPDEST LT ISZERO PUSH3 0xCC4 JUMPI JUMPDEST DUP1 PUSH3 0xC87 JUMP JUMPDEST SWAP3 PUSH3 0xCF6 DUP7 PUSH3 0xCEF PUSH3 0xCFC SWAP9 SWAP8 SWAP6 PUSH3 0xCE9 PUSH3 0xCE9 SWAP7 PUSH3 0x27B SWAP10 PUSH3 0x96B JUMP JUMPDEST PUSH3 0xC14 JUMP JUMPDEST SWAP3 PUSH3 0x96B JUMP JUMPDEST PUSH3 0xC00 JUMP JUMPDEST CODESIZE DUP1 DUP1 DUP1 DUP1 PUSH3 0xCBD JUMP JUMPDEST POP POP POP SWAP3 POP POP POP SWAP1 JUMP JUMPDEST POP POP POP POP POP POP POP POP PUSH1 0x0 SWAP1 JUMP INVALID PUSH1 0x80 DUP1 PUSH1 0x40 MSTORE PUSH1 0x4 CALLDATASIZE LT ISZERO PUSH2 0x13 JUMPI PUSH1 0x0 DUP1 REVERT JUMPDEST PUSH1 0x0 CALLDATALOAD PUSH1 0xE0 SHR SWAP1 DUP2 PUSH4 0x6FDDE03 EQ PUSH2 0x2D95 JUMPI POP DUP1 PUSH4 0x77D3C03 EQ PUSH2 0x2C19 JUMPI DUP1 PUSH4 0x95EA7B3 EQ PUSH2 0x2BF3 JUMPI DUP1 PUSH4 0xC815103 EQ PUSH2 0x2BCC JUMPI DUP1 PUSH4 0xF8AD1B4 EQ PUSH2 0x28A9 JUMPI DUP1 PUSH4 0x14CF86EB EQ PUSH2 0x286E JUMPI DUP1 PUSH4 0x18160DDD EQ PUSH2 0x2850 JUMPI DUP1 PUSH4 0x1D36F08B EQ PUSH2 0x2808 JUMPI DUP1 PUSH4 0x21BB56D7 EQ PUSH2 0x25E4 JUMPI DUP1 PUSH4 0x23B872DD EQ PUSH2 0x2416 JUMPI DUP1 PUSH4 0x2AB4D052 EQ PUSH2 0x23F8 JUMPI DUP1 PUSH4 0x2BEAFC89 EQ PUSH2 0x23E1 JUMPI DUP1 PUSH4 0x313CE567 EQ PUSH2 0x23C0 JUMPI DUP1 PUSH4 0x32424AA3 EQ PUSH2 0x23C0 JUMPI DUP1 PUSH4 0x350724A9 EQ PUSH2 0x2386 JUMPI DUP1 PUSH4 0x370DE043 EQ PUSH2 0x234B JUMPI DUP1 PUSH4 0x39509351 EQ PUSH2 0x22FA JUMPI DUP1 PUSH4 0x3C637D74 EQ PUSH2 0x22C0 JUMPI DUP1 PUSH4 0x3E840236 EQ PUSH2 0x21C7 JUMPI DUP1 PUSH4 0x3F4BA83A EQ PUSH2 0x2180 JUMPI DUP1 PUSH4 0x40C10F19 EQ PUSH2 0x203F JUMPI DUP1 PUSH4 0x40DC95C5 EQ PUSH2 0x1FD2 JUMPI DUP1 PUSH4 0x45D11299 EQ PUSH2 0x1F00 JUMPI DUP1 PUSH4 0x4E2B3035 EQ PUSH2 0x1EE3 JUMPI DUP1 PUSH4 0x4EE2CD7E EQ PUSH2 0x1E86 JUMPI DUP1 PUSH4 0x5247AB05 EQ PUSH2 0x1D6A JUMPI DUP1 PUSH4 0x5439AD86 EQ PUSH2 0x1D4C JUMPI DUP1 PUSH4 0x57656CFE EQ PUSH2 0x1C92 JUMPI DUP1 PUSH4 0x593B6439 EQ PUSH2 0x1C6B JUMPI DUP1 PUSH4 0x5F7C5377 EQ PUSH2 0x1C13 JUMPI DUP1 PUSH4 0x64CA0AC3 EQ PUSH2 0x1BB0 JUMPI DUP1 PUSH4 0x6968F8B3 EQ PUSH2 0x1B80 JUMPI DUP1 PUSH4 0x6AEA0D2E EQ PUSH2 0x1B59 JUMPI DUP1 PUSH4 0x6EC9D56F EQ PUSH2 0x1B40 JUMPI DUP1 PUSH4 0x70A08231 EQ PUSH2 0x1B1D JUMPI DUP1 PUSH4 0x7D7B368B EQ PUSH2 0x1AF6 JUMPI DUP1 PUSH4 0x7F4AB1DD EQ PUSH2 0x1ACC JUMPI DUP1 PUSH4 0x809C1875 EQ PUSH2 0x1A81 JUMPI DUP1 PUSH4 0x82074AC2 EQ PUSH2 0x19E1 JUMPI DUP1 PUSH4 0x8456CB59 EQ PUSH2 0x1997 JUMPI DUP1 PUSH4 0x84955C88 EQ PUSH2 0x1952 JUMPI DUP1 PUSH4 0x8B9D6899 EQ PUSH2 0x192F JUMPI DUP1 PUSH4 0x8D56CC9C EQ PUSH2 0x18C7 JUMPI DUP1 PUSH4 0x8E4F11FF EQ PUSH2 0x1537 JUMPI DUP1 PUSH4 0x8E64EAC5 EQ PUSH2 0x1516 JUMPI DUP1 PUSH4 0x90FC7E91 EQ PUSH2 0x14E6 JUMPI DUP1 PUSH4 0x95A8C58D EQ PUSH2 0x14BA JUMPI DUP1 PUSH4 0x95D89B41 EQ PUSH2 0x13D4 JUMPI DUP1 PUSH4 0x96305C89 EQ PUSH2 0x13B8 JUMPI DUP1 PUSH4 0x9711715A EQ PUSH2 0x1359 JUMPI DUP1 PUSH4 0x981B24D0 EQ PUSH2 0x1321 JUMPI DUP1 PUSH4 0x9DC29FAC EQ PUSH2 0x118D JUMPI DUP1 PUSH4 0xA2E26616 EQ PUSH2 0x1174 JUMPI DUP1 PUSH4 0xA457C2D7 EQ PUSH2 0x10CD JUMPI DUP1 PUSH4 0xA742C88E EQ PUSH2 0x10AA JUMPI DUP1 PUSH4 0xA9059CBB EQ PUSH2 0x105A JUMPI DUP1 PUSH4 0xA9B1F051 EQ PUSH2 0xFF7 JUMPI DUP1 PUSH4 0xAD061E25 EQ PUSH2 0xFD0 JUMPI DUP1 PUSH4 0xB187BD26 EQ PUSH2 0xFAD JUMPI DUP1 PUSH4 0xB30BFA3D EQ PUSH2 0xF73 JUMPI DUP1 PUSH4 0xB7ED4785 EQ PUSH2 0x93A JUMPI DUP1 PUSH4 0xB7EF81E1 EQ PUSH2 0x91C JUMPI DUP1 PUSH4 0xBF120AE5 EQ PUSH2 0x812 JUMPI DUP1 PUSH4 0xC63AA521 EQ PUSH2 0x7D8 JUMPI DUP1 PUSH4 0xCECA46C2 EQ PUSH2 0x7AB JUMPI DUP1 PUSH4 0xD4CE1415 EQ PUSH2 0x787 JUMPI DUP1 PUSH4 0xDB74FA36 EQ PUSH2 0x74D JUMPI DUP1 PUSH4 0xDD62ED3E EQ PUSH2 0x6FC JUMPI DUP1 PUSH4 0xDFB7300E EQ PUSH2 0x65B JUMPI DUP1 PUSH4 0xE98A0C64 EQ PUSH2 0x5E6 JUMPI DUP1 PUSH4 0xEA612AE8 EQ PUSH2 0x562 JUMPI DUP1 PUSH4 0xECD158CF EQ PUSH2 0x48B JUMPI DUP1 PUSH4 0xF0658198 EQ PUSH2 0x45C JUMPI DUP1 PUSH4 0xFBC6D1CB EQ PUSH2 0x39C JUMPI PUSH4 0xFC96F7D8 EQ PUSH2 0x358 JUMPI PUSH1 0x0 DUP1 REVERT JUMPDEST CALLVALUE PUSH2 0x397 JUMPI PUSH1 0x20 CALLDATASIZE PUSH1 0x3 NOT ADD SLT PUSH2 0x397 JUMPI PUSH1 0x1 PUSH1 0x1 PUSH1 0xA0 SHL SUB PUSH2 0x379 PUSH2 0x2E84 JUMP JUMPDEST AND PUSH1 0x0 MSTORE PUSH1 0x14 PUSH1 0x20 MSTORE PUSH1 0x20 PUSH1 0xFF PUSH1 0x40 PUSH1 0x0 KECCAK256 SLOAD AND PUSH1 0x40 MLOAD SWAP1 ISZERO ISZERO DUP2 MSTORE RETURN JUMPDEST PUSH1 0x0 DUP1 REVERT JUMPDEST CALLVALUE PUSH2 0x397 JUMPI PUSH1 0x40 CALLDATASIZE PUSH1 0x3 NOT ADD SLT PUSH2 0x397 JUMPI PUSH2 0x3B5 PUSH2 0x2E84 JUMP JUMPDEST PUSH1 0x24 CALLDATALOAD DUP1 ISZERO DUP1 ISZERO PUSH2 0x432 JUMPI JUMPDEST ISZERO PUSH2 0x3D2 JUMPI PUSH2 0x3D0 SWAP2 CALLER PUSH2 0x30A5 JUMP JUMPDEST STOP JUMPDEST PUSH1 0x40 MLOAD PUSH3 0x461BCD PUSH1 0xE5 SHL DUP2 MSTORE PUSH1 0x20 PUSH1 0x4 DUP3 ADD MSTORE PUSH1 0x32 PUSH1 0x24 DUP3 ADD MSTORE PUSH32 0x43616E6E6F7420617070726F76652066726F6D206E6F6E2D7A65726F20746F20 PUSH1 0x44 DUP3 ADD MSTORE PUSH18 0x6E6F6E2D7A65726F20616C6C6F77616E6365 PUSH1 0x70 SHL PUSH1 0x64 DUP3 ADD MSTORE PUSH1 0x84 SWAP1 REVERT JUMPDEST POP CALLER PUSH1 0x0 MSTORE PUSH1 0x1 PUSH1 0x20 MSTORE PUSH1 0x40 PUSH1 0x0 KECCAK256 PUSH1 0x1 DUP1 PUSH1 0xA0 SHL SUB DUP4 AND PUSH1 0x0 MSTORE PUSH1 0x20 MSTORE PUSH1 0x40 PUSH1 0x0 KECCAK256 SLOAD ISZERO PUSH2 0x3C1 JUMP JUMPDEST CALLVALUE PUSH2 0x397 JUMPI PUSH1 0x40 CALLDATASIZE PUSH1 0x3 NOT ADD SLT PUSH2 0x397 JUMPI PUSH1 0x20 PUSH2 0x483 PUSH2 0x47A PUSH2 0x2E84 JUMP JUMPDEST PUSH1 0x24 CALLDATALOAD SWAP1 PUSH2 0x3BE6 JUMP JUMPDEST PUSH1 0x40 MLOAD SWAP1 DUP2 MSTORE RETURN JUMPDEST CALLVALUE PUSH2 0x397 JUMPI PUSH2 0x499 CALLDATASIZE PUSH2 0x3022 JUMP JUMPDEST SWAP2 PUSH1 0x1 PUSH1 0x1 PUSH1 0xA0 SHL SUB AND SWAP1 PUSH2 0x4AF DUP3 ISZERO ISZERO PUSH2 0x3491 JUMP JUMPDEST PUSH32 0x73884FBF40E5433EA6F75B9343F3208649C9B8430641C927F0ED89D4EAC6945B PUSH1 0x40 MLOAD PUSH2 0x50A PUSH1 0x20 SWAP2 PUSH4 0x23B872DD PUSH1 0xE0 SHL DUP4 DUP3 ADD MSTORE CALLER PUSH1 0x24 DUP3 ADD MSTORE ADDRESS PUSH1 0x44 DUP3 ADD MSTORE DUP5 PUSH1 0x64 DUP3 ADD MSTORE PUSH1 0x64 DUP2 MSTORE PUSH2 0x504 DUP2 PUSH2 0x2F2E JUMP JUMPDEST DUP6 PUSH2 0x35B1 JUMP JUMPDEST DUP5 PUSH1 0x0 MSTORE PUSH1 0x17 DUP2 MSTORE PUSH1 0x40 PUSH1 0x0 KECCAK256 DUP5 PUSH1 0x0 MSTORE DUP2 MSTORE PUSH1 0x40 PUSH1 0x0 KECCAK256 PUSH2 0x52D DUP5 DUP3 SLOAD PUSH2 0x3098 JUMP JUMPDEST SWAP1 SSTORE DUP5 PUSH1 0x0 MSTORE PUSH1 0x17 DUP2 MSTORE PUSH1 0x40 PUSH1 0x0 KECCAK256 DUP5 PUSH1 0x0 MSTORE DUP2 MSTORE PUSH1 0x1 PUSH1 0x40 PUSH1 0x0 KECCAK256 ADD PUSH2 0x555 DUP5 DUP3 SLOAD PUSH2 0x3098 JUMP JUMPDEST SWAP1 SSTORE PUSH1 0x40 MLOAD SWAP3 DUP4 MSTORE CALLER SWAP3 LOG4 STOP JUMPDEST CALLVALUE PUSH2 0x397 JUMPI PUSH1 0x40 CALLDATASIZE PUSH1 0x3 NOT ADD SLT PUSH2 0x397 JUMPI PUSH2 0x57B PUSH2 0x2E84 JUMP JUMPDEST PUSH1 0x1 PUSH1 0x1 PUSH1 0xA0 SHL SUB AND PUSH1 0x0 SWAP1 DUP2 MSTORE PUSH1 0xD PUSH1 0x20 MSTORE PUSH1 0x40 SWAP1 KECCAK256 DUP1 SLOAD PUSH1 0x24 CALLDATALOAD SWAP1 DUP2 LT ISZERO PUSH2 0x397 JUMPI PUSH2 0x5A8 SWAP2 PUSH2 0x307C JUMP JUMPDEST POP DUP1 SLOAD PUSH2 0x5E2 PUSH1 0x1 DUP4 ADD SLOAD SWAP3 PUSH1 0x3 PUSH1 0x2 DUP3 ADD SLOAD SWAP2 ADD SLOAD SWAP1 PUSH1 0x40 MLOAD SWAP5 DUP6 SWAP5 DUP6 SWAP1 SWAP5 SWAP4 SWAP3 PUSH1 0x60 SWAP3 PUSH1 0x80 DUP4 ADD SWAP7 DUP4 MSTORE PUSH1 0x20 DUP4 ADD MSTORE PUSH1 0x40 DUP3 ADD MSTORE ADD MSTORE JUMP JUMPDEST SUB SWAP1 RETURN JUMPDEST CALLVALUE PUSH2 0x397 JUMPI PUSH1 0x60 CALLDATASIZE PUSH1 0x3 NOT ADD SLT PUSH2 0x397 JUMPI PUSH1 0x24 CALLDATALOAD PUSH1 0x4 CALLDATALOAD PUSH1 0x44 CALLDATALOAD PUSH2 0x611 PUSH2 0x60C CALLER PUSH2 0x3A59 JUMP JUMPDEST PUSH2 0x45CE JUMP JUMPDEST DUP2 PUSH1 0x0 MSTORE PUSH1 0x13 PUSH1 0x20 MSTORE PUSH1 0x40 PUSH1 0x0 KECCAK256 DUP4 PUSH1 0x0 MSTORE PUSH1 0x20 MSTORE DUP1 PUSH1 0x40 PUSH1 0x0 KECCAK256 SSTORE PUSH1 0x40 MLOAD SWAP1 DUP2 MSTORE PUSH32 0x5845E315015EE03F0D4AB1D198172B4F733609DC3DE8B957AE1D86C874030189 PUSH1 0x20 CALLER SWAP3 LOG4 STOP JUMPDEST CALLVALUE PUSH2 0x397 JUMPI PUSH1 0x20 CALLDATASIZE PUSH1 0x3 NOT ADD SLT PUSH2 0x397 JUMPI PUSH1 0x4 CALLDATALOAD PUSH1 0x1 PUSH1 0x1 PUSH1 0xA0 SHL SUB DUP2 DUP2 AND SWAP2 DUP3 DUP2 SUB PUSH2 0x397 JUMPI PUSH32 0x8C78349FC44ADD47AE711DDC6E926B7845597C57473E587420693D8D0547845A SWAP3 PUSH1 0x60 SWAP3 PUSH2 0x6B3 PUSH2 0x60C CALLER PUSH2 0x3A59 JUMP JUMPDEST PUSH2 0x6BE DUP3 ISZERO ISZERO PUSH2 0x3948 JUMP JUMPDEST PUSH1 0xF DUP1 SLOAD PUSH2 0x100 PUSH1 0x1 PUSH1 0xA8 SHL SUB NOT DUP2 AND PUSH1 0x8 SWAP6 DUP7 SHL PUSH2 0x100 PUSH1 0x1 PUSH1 0xA8 SHL SUB AND OR SWAP1 SWAP2 SSTORE PUSH1 0x40 DUP1 MLOAD CALLER DUP2 MSTORE SWAP2 SWAP1 SWAP5 SHR SWAP2 SWAP1 SWAP2 AND PUSH1 0x20 DUP3 ADD MSTORE SWAP2 DUP3 ADD MSTORE LOG1 STOP JUMPDEST CALLVALUE PUSH2 0x397 JUMPI PUSH1 0x40 CALLDATASIZE PUSH1 0x3 NOT ADD SLT PUSH2 0x397 JUMPI PUSH2 0x715 PUSH2 0x2E84 JUMP JUMPDEST PUSH2 0x71D PUSH2 0x2E9A JUMP JUMPDEST SWAP1 PUSH1 0x1 DUP1 PUSH1 0xA0 SHL SUB DUP1 SWAP2 AND PUSH1 0x0 MSTORE PUSH1 0x1 PUSH1 0x20 MSTORE PUSH1 0x40 PUSH1 0x0 KECCAK256 SWAP2 AND PUSH1 0x0 MSTORE PUSH1 0x20 MSTORE PUSH1 0x20 PUSH1 0x40 PUSH1 0x0 KECCAK256 SLOAD PUSH1 0x40 MLOAD SWAP1 DUP2 MSTORE RETURN JUMPDEST CALLVALUE PUSH2 0x397 JUMPI PUSH1 0x20 CALLDATASIZE PUSH1 0x3 NOT ADD SLT PUSH2 0x397 JUMPI PUSH1 0x1 PUSH1 0x1 PUSH1 0xA0 SHL SUB PUSH2 0x76E PUSH2 0x2E84 JUMP JUMPDEST AND PUSH1 0x0 MSTORE PUSH1 0x12 PUSH1 0x20 MSTORE PUSH1 0x20 PUSH1 0x40 PUSH1 0x0 KECCAK256 SLOAD PUSH1 0x40 MLOAD SWAP1 DUP2 MSTORE RETURN JUMPDEST CALLVALUE PUSH2 0x397 JUMPI PUSH1 0x20 PUSH2 0x7A0 PUSH2 0x79A CALLDATASIZE PUSH2 0x2EDE JUMP JUMPDEST SWAP2 PUSH2 0x446A JUMP JUMPDEST PUSH1 0xFF PUSH1 0x40 MLOAD SWAP2 AND DUP2 MSTORE RETURN JUMPDEST CALLVALUE PUSH2 0x397 JUMPI PUSH1 0x0 CALLDATASIZE PUSH1 0x3 NOT ADD SLT PUSH2 0x397 JUMPI PUSH1 0xF SLOAD PUSH1 0x40 MLOAD PUSH1 0x8 SWAP2 SWAP1 SWAP2 SHR PUSH1 0x1 PUSH1 0x1 PUSH1 0xA0 SHL SUB AND DUP2 MSTORE PUSH1 0x20 SWAP1 RETURN JUMPDEST CALLVALUE PUSH2 0x397 JUMPI PUSH1 0x20 CALLDATASIZE PUSH1 0x3 NOT ADD SLT PUSH2 0x397 JUMPI PUSH1 0x1 PUSH1 0x1 PUSH1 0xA0 SHL SUB PUSH2 0x7F9 PUSH2 0x2E84 JUMP JUMPDEST AND PUSH1 0x0 MSTORE PUSH1 0x11 PUSH1 0x20 MSTORE PUSH1 0x20 PUSH1 0x40 PUSH1 0x0 KECCAK256 SLOAD PUSH1 0x40 MLOAD SWAP1 DUP2 MSTORE RETURN JUMPDEST CALLVALUE PUSH2 0x397 JUMPI PUSH1 0x40 CALLDATASIZE PUSH1 0x3 NOT ADD SLT PUSH2 0x397 JUMPI PUSH2 0x82B PUSH2 0x2E84 JUMP JUMPDEST PUSH1 0x24 CALLDATALOAD DUP1 ISZERO ISZERO SWAP2 DUP3 DUP3 SUB PUSH2 0x397 JUMPI PUSH1 0x1 PUSH1 0x1 PUSH1 0xA0 SHL SUB AND SWAP1 PUSH2 0x84E DUP3 ISZERO ISZERO PUSH2 0x3948 JUMP JUMPDEST PUSH2 0x857 CALLER PUSH2 0x3A2F JUMP JUMPDEST DUP1 ISZERO PUSH2 0x90D JUMPI JUMPDEST ISZERO PUSH2 0x8AE JUMPI PUSH2 0x886 SWAP1 DUP3 PUSH1 0x0 MSTORE PUSH1 0x14 PUSH1 0x20 MSTORE PUSH1 0x40 PUSH1 0x0 KECCAK256 SWAP1 PUSH1 0xFF DUP1 NOT DUP4 SLOAD AND SWAP2 ISZERO ISZERO AND OR SWAP1 SSTORE JUMP JUMPDEST CALLER PUSH32 0x17EC2643977F0865DD45350E9EFDCDFEAD258C9220974E67D1A37CA144772293 PUSH1 0x0 DUP1 LOG4 STOP JUMPDEST PUSH1 0x40 MLOAD PUSH3 0x461BCD PUSH1 0xE5 SHL DUP2 MSTORE PUSH1 0x20 PUSH1 0x4 DUP3 ADD MSTORE PUSH1 0x31 PUSH1 0x24 DUP3 ADD MSTORE PUSH32 0x444F4553204E4F5420484156452057414C4C4554532041444D494E204F522052 PUSH1 0x44 DUP3 ADD MSTORE PUSH17 0x4553455256452041444D494E20524F4C45 PUSH1 0x78 SHL PUSH1 0x64 DUP3 ADD MSTORE PUSH1 0x84 SWAP1 REVERT JUMPDEST POP PUSH2 0x917 CALLER PUSH2 0x3A05 JUMP JUMPDEST PUSH2 0x85E JUMP JUMPDEST CALLVALUE PUSH2 0x397 JUMPI PUSH1 0x0 CALLDATASIZE PUSH1 0x3 NOT ADD SLT PUSH2 0x397 JUMPI PUSH1 0x20 PUSH1 0xC SLOAD PUSH1 0x40 MLOAD SWAP1 DUP2 MSTORE RETURN JUMPDEST CALLVALUE PUSH2 0x397 JUMPI PUSH1 0xA0 CALLDATASIZE PUSH1 0x3 NOT ADD SLT PUSH2 0x397 JUMPI PUSH1 0x4 CALLDATALOAD PUSH1 0x1 PUSH1 0x1 PUSH1 0x40 SHL SUB DUP2 GT PUSH2 0x397 JUMPI PUSH2 0x96A SWAP1 CALLDATASIZE SWAP1 PUSH1 0x4 ADD PUSH2 0x304C JUMP JUMPDEST SWAP1 PUSH1 0x24 CALLDATALOAD PUSH1 0x1 PUSH1 0x1 PUSH1 0x40 SHL SUB DUP2 GT PUSH2 0x397 JUMPI PUSH2 0x98A SWAP1 CALLDATASIZE SWAP1 PUSH1 0x4 ADD PUSH2 0x304C JUMP JUMPDEST SWAP3 SWAP1 PUSH1 0x44 CALLDATALOAD PUSH1 0x1 PUSH1 0x1 PUSH1 0x40 SHL SUB DUP2 GT PUSH2 0x397 JUMPI PUSH2 0x9AB SWAP1 CALLDATASIZE SWAP1 PUSH1 0x4 ADD PUSH2 0x304C JUMP JUMPDEST SWAP1 SWAP5 SWAP1 SWAP3 SWAP1 PUSH1 0x64 CALLDATALOAD PUSH1 0x1 PUSH1 0x1 PUSH1 0x40 SHL SUB DUP2 GT PUSH2 0x397 JUMPI PUSH2 0x9CF SWAP1 CALLDATASIZE SWAP1 PUSH1 0x4 ADD PUSH2 0x304C JUMP JUMPDEST SWAP1 SWAP4 SWAP1 SWAP3 SWAP1 PUSH1 0x1 PUSH1 0x1 PUSH1 0x40 SHL SUB PUSH1 0x84 CALLDATALOAD GT PUSH2 0x397 JUMPI PUSH2 0x9F3 CALLDATASIZE PUSH1 0x84 CALLDATALOAD PUSH1 0x4 ADD PUSH2 0x304C JUMP JUMPDEST SWAP7 SWAP1 SWAP3 PUSH2 0xA01 DUP6 DUP3 EQ PUSH2 0x3B56 JUMP JUMPDEST PUSH2 0xA0C DUP3 DUP3 EQ PUSH2 0x3B56 JUMP JUMPDEST PUSH2 0xA17 DUP7 DUP3 EQ PUSH2 0x3B56 JUMP JUMPDEST PUSH1 0x0 JUMPDEST DUP2 DUP2 LT PUSH2 0xA2C JUMPI PUSH1 0x20 PUSH1 0x40 MLOAD PUSH1 0x1 DUP2 MSTORE RETURN JUMPDEST PUSH2 0xA37 DUP2 DUP4 DUP13 PUSH2 0x3B9C JUMP JUMPDEST CALLDATALOAD PUSH1 0x1 PUSH1 0x1 PUSH1 0xA0 SHL SUB DUP2 AND DUP2 SUB PUSH2 0x397 JUMPI DUP12 PUSH2 0xA60 DUP4 DUP7 PUSH2 0xA59 DUP3 DUP13 DUP12 PUSH2 0x3B9C JUMP JUMPDEST CALLDATALOAD SWAP4 PUSH2 0x3B9C JUMP JUMPDEST CALLDATALOAD SWAP1 PUSH2 0xA6D DUP5 DUP12 DUP14 PUSH2 0x3B9C JUMP JUMPDEST CALLDATALOAD SWAP3 PUSH2 0xA7A CALLDATASIZE DUP15 DUP12 PUSH2 0x2FBC JUMP JUMPDEST SWAP2 PUSH2 0xA83 PUSH2 0x34D1 JUMP JUMPDEST PUSH1 0xA DUP4 MLOAD GT PUSH2 0xF2E JUMPI PUSH32 0x0 DUP2 LT PUSH2 0xEF2 JUMPI PUSH1 0x1 PUSH1 0x1 PUSH1 0xA0 SHL SUB DUP3 AND ISZERO PUSH2 0xEBE JUMPI PUSH1 0xC SLOAD DUP6 LT ISZERO PUSH2 0xE88 JUMPI PUSH2 0xAD5 DUP6 PUSH2 0x2F87 JUMP JUMPDEST POP SLOAD DUP2 LT PUSH2 0xE4B JUMPI PUSH2 0xAE7 DUP2 ADDRESS PUSH2 0x3CB2 JUMP JUMPDEST POP PUSH2 0xAFF PUSH1 0x1 PUSH2 0xAF6 DUP8 PUSH2 0x2F87 JUMP JUMPDEST POP ADD SLOAD DUP6 PUSH2 0x3098 JUMP JUMPDEST PUSH2 0xB29 PUSH32 0x0 TIMESTAMP PUSH2 0x3098 JUMP JUMPDEST LT PUSH2 0xE07 JUMPI PUSH2 0xB36 PUSH2 0x3ACE JUMP JUMPDEST DUP6 DUP2 MSTORE DUP5 PUSH1 0x20 DUP3 ADD MSTORE DUP2 PUSH1 0x60 DUP3 ADD MSTORE PUSH1 0x1 DUP1 PUSH1 0xA0 SHL SUB DUP4 AND PUSH1 0x0 MSTORE PUSH1 0xD PUSH1 0x20 MSTORE PUSH1 0x40 PUSH1 0x0 KECCAK256 DUP1 SLOAD PUSH1 0x1 PUSH1 0x40 SHL DUP2 LT ISZERO PUSH2 0xD7B JUMPI PUSH2 0xB78 SWAP2 PUSH1 0x1 DUP3 ADD DUP2 SSTORE PUSH2 0x307C JUMP JUMPDEST SWAP2 SWAP1 SWAP2 PUSH2 0xDF1 JUMPI DUP1 MLOAD DUP3 SSTORE PUSH1 0x20 DUP2 ADD MLOAD PUSH1 0x1 DUP4 ADD SSTORE PUSH1 0x40 DUP2 ADD MLOAD PUSH1 0x2 DUP4 ADD SSTORE PUSH1 0x60 DUP2 ADD MLOAD PUSH1 0x3 DUP4 ADD SSTORE PUSH1 0x80 ADD MLOAD DUP1 MLOAD SWAP2 SWAP1 PUSH1 0x1 PUSH1 0x1 PUSH1 0x40 SHL SUB DUP4 GT PUSH2 0xD7B JUMPI PUSH1 0x1 PUSH1 0x40 SHL DUP4 GT PUSH2 0xD7B JUMPI PUSH1 0x4 DUP3 ADD SLOAD DUP4 PUSH1 0x4 DUP5 ADD SSTORE DUP1 DUP5 LT PUSH2 0xDC4 JUMPI JUMPDEST POP PUSH1 0x20 PUSH1 0x4 SWAP2 ADD SWAP2 ADD PUSH1 0x0 MSTORE PUSH1 0x20 PUSH1 0x0 KECCAK256 PUSH1 0x0 JUMPDEST DUP4 DUP2 LT PUSH2 0xDA7 JUMPI POP POP POP POP PUSH1 0x1 PUSH1 0x1 PUSH1 0xA0 SHL SUB DUP3 AND PUSH1 0x0 SWAP1 DUP2 MSTORE PUSH1 0xD PUSH1 0x20 MSTORE PUSH1 0x40 SWAP1 KECCAK256 SLOAD PUSH1 0x0 NOT DUP2 ADD DUP2 LT PUSH2 0xD91 JUMPI DUP4 MLOAD PUSH2 0xCB6 JUMPI JUMPDEST PUSH1 0x40 MLOAD SWAP5 PUSH1 0x80 DUP7 ADD SWAP3 DUP7 MSTORE PUSH1 0x20 DUP7 ADD MSTORE PUSH1 0x0 NOT ADD PUSH1 0x40 DUP6 ADD MSTORE PUSH1 0x80 PUSH1 0x60 DUP6 ADD MSTORE DUP3 MLOAD DUP1 SWAP2 MSTORE PUSH1 0x20 PUSH1 0xA0 DUP6 ADD SWAP4 ADD SWAP1 PUSH1 0x0 SWAP1 JUMPDEST DUP1 DUP3 LT PUSH2 0xC94 JUMPI POP PUSH2 0xC8F SWAP7 SWAP6 SWAP5 PUSH1 0x1 PUSH1 0x1 PUSH1 0xA0 SHL SUB SWAP1 SWAP4 AND SWAP4 CALLER SWAP4 PUSH1 0x0 DUP1 MLOAD PUSH1 0x20 PUSH2 0x46B0 DUP4 CODECOPY DUP2 MLOAD SWAP2 MSTORE SWAP4 POP SWAP1 DUP2 SWAP1 SUB SWAP2 POP LOG4 PUSH1 0x1 PUSH1 0xB SSTORE PUSH2 0x3AFC JUMP JUMPDEST PUSH2 0xA1A JUMP JUMPDEST DUP3 MLOAD PUSH1 0x1 PUSH1 0x1 PUSH1 0xA0 SHL SUB AND DUP6 MSTORE PUSH1 0x20 SWAP5 DUP6 ADD SWAP5 SWAP1 SWAP3 ADD SWAP2 PUSH1 0x1 SWAP1 SWAP2 ADD SWAP1 PUSH2 0xC51 JUMP JUMPDEST PUSH1 0x1 PUSH1 0x1 PUSH1 0xA0 SHL SUB DUP4 AND PUSH1 0x0 SWAP1 DUP2 MSTORE PUSH1 0xD PUSH1 0x20 MSTORE PUSH1 0x40 SWAP1 KECCAK256 PUSH2 0xCDD SWAP1 PUSH1 0x0 NOT DUP4 ADD SWAP1 PUSH2 0x307C JUMP JUMPDEST POP DUP5 MLOAD SWAP1 PUSH1 0x1 PUSH1 0x1 PUSH1 0x40 SHL SUB DUP3 GT PUSH2 0xD7B JUMPI PUSH1 0x1 PUSH1 0x40 SHL DUP3 GT PUSH2 0xD7B JUMPI PUSH1 0x4 DUP2 ADD SLOAD DUP3 PUSH1 0x4 DUP4 ADD SSTORE DUP1 DUP4 LT PUSH2 0xD4E JUMPI JUMPDEST POP PUSH1 0x4 PUSH1 0x20 DUP8 ADD SWAP2 ADD PUSH1 0x0 MSTORE PUSH1 0x20 PUSH1 0x0 KECCAK256 PUSH1 0x0 JUMPDEST DUP4 DUP2 LT PUSH2 0xD31 JUMPI POP POP POP POP PUSH2 0xC1F JUMP JUMPDEST DUP3 MLOAD PUSH1 0x1 PUSH1 0x1 PUSH1 0xA0 SHL SUB AND DUP2 DUP4 ADD SSTORE PUSH1 0x20 SWAP1 SWAP3 ADD SWAP2 PUSH1 0x1 ADD PUSH2 0xD21 JUMP JUMPDEST PUSH1 0x4 DUP3 ADD PUSH1 0x0 MSTORE PUSH1 0x20 PUSH1 0x0 KECCAK256 SWAP1 DUP4 DUP3 ADD JUMPDEST DUP2 DUP4 ADD DUP2 LT PUSH2 0xD6F JUMPI POP POP PUSH2 0xD0D JUMP JUMPDEST PUSH1 0x0 DUP2 SSTORE PUSH1 0x1 ADD PUSH2 0xD5F JUMP JUMPDEST PUSH4 0x4E487B71 PUSH1 0xE0 SHL PUSH1 0x0 MSTORE PUSH1 0x41 PUSH1 0x4 MSTORE PUSH1 0x24 PUSH1 0x0 REVERT JUMPDEST PUSH4 0x4E487B71 PUSH1 0xE0 SHL PUSH1 0x0 MSTORE PUSH1 0x11 PUSH1 0x4 MSTORE PUSH1 0x24 PUSH1 0x0 REVERT JUMPDEST DUP3 MLOAD PUSH1 0x1 PUSH1 0x1 PUSH1 0xA0 SHL SUB AND DUP2 DUP4 ADD SSTORE PUSH1 0x20 SWAP1 SWAP3 ADD SWAP2 PUSH1 0x1 ADD PUSH2 0xBE9 JUMP JUMPDEST PUSH1 0x4 DUP4 ADD PUSH1 0x0 MSTORE PUSH1 0x20 PUSH1 0x0 KECCAK256 SWAP1 DUP5 DUP3 ADD JUMPDEST DUP2 DUP4 ADD DUP2 LT PUSH2 0xDE5 JUMPI POP POP PUSH2 0xBD5 JUMP JUMPDEST PUSH1 0x0 DUP2 SSTORE PUSH1 0x1 ADD PUSH2 0xDD5 JUMP JUMPDEST PUSH4 0x4E487B71 PUSH1 0xE0 SHL PUSH1 0x0 MSTORE PUSH1 0x0 PUSH1 0x4 MSTORE PUSH1 0x24 PUSH1 0x0 REVERT JUMPDEST PUSH1 0x40 MLOAD PUSH3 0x461BCD PUSH1 0xE5 SHL DUP2 MSTORE PUSH1 0x20 PUSH1 0x4 DUP3 ADD MSTORE PUSH1 0x1C PUSH1 0x24 DUP3 ADD MSTORE PUSH28 0x696E697469616C2072656C65617365206F7574206F662072616E6765 PUSH1 0x20 SHL PUSH1 0x44 DUP3 ADD MSTORE PUSH1 0x64 SWAP1 REVERT JUMPDEST PUSH1 0x40 MLOAD PUSH3 0x461BCD PUSH1 0xE5 SHL DUP2 MSTORE PUSH1 0x20 PUSH1 0x4 DUP3 ADD MSTORE PUSH1 0x15 PUSH1 0x24 DUP3 ADD MSTORE PUSH21 0x3C203120746F6B656E207065722072656C65617365 PUSH1 0x58 SHL PUSH1 0x44 DUP3 ADD MSTORE PUSH1 0x64 SWAP1 REVERT JUMPDEST PUSH1 0x40 MLOAD PUSH3 0x461BCD PUSH1 0xE5 SHL DUP2 MSTORE PUSH1 0x20 PUSH1 0x4 DUP3 ADD MSTORE PUSH1 0xE PUSH1 0x24 DUP3 ADD MSTORE PUSH14 0x189859081CD8DA19591D5B195259 PUSH1 0x92 SHL PUSH1 0x44 DUP3 ADD MSTORE PUSH1 0x64 SWAP1 REVERT JUMPDEST PUSH1 0x40 MLOAD PUSH3 0x461BCD PUSH1 0xE5 SHL DUP2 MSTORE PUSH1 0x20 PUSH1 0x4 DUP3 ADD MSTORE PUSH1 0xC PUSH1 0x24 DUP3 ADD MSTORE PUSH12 0x746F20302061646472657373 PUSH1 0xA0 SHL PUSH1 0x44 DUP3 ADD MSTORE PUSH1 0x64 SWAP1 REVERT JUMPDEST PUSH1 0x40 MLOAD PUSH3 0x461BCD PUSH1 0xE5 SHL DUP2 MSTORE PUSH1 0x20 PUSH1 0x4 DUP3 ADD MSTORE PUSH1 0x14 PUSH1 0x24 DUP3 ADD MSTORE PUSH20 0x616D6F756E74203C206D696E2066756E64696E67 PUSH1 0x60 SHL PUSH1 0x44 DUP3 ADD MSTORE PUSH1 0x64 SWAP1 REVERT JUMPDEST PUSH1 0x40 MLOAD PUSH3 0x461BCD PUSH1 0xE5 SHL DUP2 MSTORE PUSH1 0x20 PUSH1 0x4 DUP3 ADD MSTORE PUSH1 0x1E PUSH1 0x24 DUP3 ADD MSTORE PUSH32 0x6D61782031302063616E63656C61626C65427920616464726573736565730000 PUSH1 0x44 DUP3 ADD MSTORE PUSH1 0x64 SWAP1 REVERT JUMPDEST CALLVALUE PUSH2 0x397 JUMPI PUSH1 0x20 CALLDATASIZE PUSH1 0x3 NOT ADD SLT PUSH2 0x397 JUMPI PUSH1 0x1 PUSH1 0x1 PUSH1 0xA0 SHL SUB PUSH2 0xF94 PUSH2 0x2E84 JUMP JUMPDEST AND PUSH1 0x0 MSTORE PUSH1 0xD PUSH1 0x20 MSTORE PUSH1 0x20 PUSH1 0x40 PUSH1 0x0 KECCAK256 SLOAD PUSH1 0x40 MLOAD SWAP1 DUP2 MSTORE RETURN JUMPDEST CALLVALUE PUSH2 0x397 JUMPI PUSH1 0x0 CALLDATASIZE PUSH1 0x3 NOT ADD SLT PUSH2 0x397 JUMPI PUSH1 0x20 PUSH1 0xFF PUSH1 0x15 SLOAD AND PUSH1 0x40 MLOAD SWAP1 ISZERO ISZERO DUP2 MSTORE RETURN JUMPDEST CALLVALUE PUSH2 0x397 JUMPI PUSH1 0x40 CALLDATASIZE PUSH1 0x3 NOT ADD SLT PUSH2 0x397 JUMPI PUSH1 0x20 PUSH2 0x483 PUSH2 0xFEE PUSH2 0x2E84 JUMP JUMPDEST PUSH1 0x24 CALLDATALOAD SWAP1 PUSH2 0x3C23 JUMP JUMPDEST CALLVALUE PUSH2 0x397 JUMPI PUSH2 0x104F PUSH1 0x2 PUSH2 0x103A PUSH2 0x100D CALLDATASIZE PUSH2 0x3022 JUMP JUMPDEST PUSH2 0x1027 DUP3 PUSH2 0x1020 DUP4 SWAP8 SWAP6 SWAP7 SWAP5 SWAP8 CALLER PUSH2 0x3BE6 JUMP JUMPDEST LT ISZERO PUSH2 0x406A JUMP JUMPDEST CALLER PUSH1 0x0 MSTORE PUSH1 0xD PUSH1 0x20 MSTORE PUSH1 0x40 PUSH1 0x0 KECCAK256 PUSH2 0x307C JUMP JUMPDEST POP ADD PUSH2 0x1047 DUP4 DUP3 SLOAD PUSH2 0x3098 JUMP JUMPDEST SWAP1 SSTORE ADDRESS PUSH2 0x3542 JUMP JUMPDEST PUSH1 0x20 PUSH1 0x40 MLOAD PUSH1 0x1 DUP2 MSTORE RETURN JUMPDEST CALLVALUE PUSH2 0x397 JUMPI PUSH1 0x40 CALLDATASIZE PUSH1 0x3 NOT ADD SLT PUSH2 0x397 JUMPI PUSH1 0x20 PUSH2 0x10A0 PUSH2 0x1078 PUSH2 0x2E84 JUMP JUMPDEST PUSH1 0x24 CALLDATALOAD SWAP1 PUSH2 0x1090 PUSH1 0x1 PUSH1 0x1 PUSH1 0xA0 SHL SUB DUP3 AND ISZERO ISZERO PUSH2 0x3948 JUMP JUMPDEST PUSH2 0x109B DUP3 DUP3 CALLER PUSH2 0x43CB JUMP JUMPDEST PUSH2 0x3CB2 JUMP JUMPDEST PUSH1 0x40 MLOAD SWAP1 ISZERO ISZERO DUP2 MSTORE RETURN JUMPDEST CALLVALUE PUSH2 0x397 JUMPI PUSH1 0x20 CALLDATASIZE PUSH1 0x3 NOT ADD SLT PUSH2 0x397 JUMPI PUSH1 0x20 PUSH2 0x483 PUSH2 0x10C8 PUSH2 0x2E84 JUMP JUMPDEST PUSH2 0x4029 JUMP JUMPDEST CALLVALUE PUSH2 0x397 JUMPI PUSH1 0x40 CALLDATASIZE PUSH1 0x3 NOT ADD SLT PUSH2 0x397 JUMPI PUSH2 0x10E6 PUSH2 0x2E84 JUMP JUMPDEST PUSH1 0x24 CALLDATALOAD SWAP1 CALLER PUSH1 0x0 MSTORE PUSH1 0x1 PUSH1 0x20 MSTORE PUSH1 0x40 PUSH1 0x0 KECCAK256 PUSH1 0x1 DUP1 PUSH1 0xA0 SHL SUB DUP3 AND PUSH1 0x0 MSTORE PUSH1 0x20 MSTORE PUSH1 0x40 PUSH1 0x0 KECCAK256 SLOAD SWAP2 DUP1 DUP4 LT PUSH2 0x1121 JUMPI PUSH2 0x104F SWAP3 SUB SWAP1 CALLER PUSH2 0x30A5 JUMP JUMPDEST PUSH1 0x40 MLOAD PUSH3 0x461BCD PUSH1 0xE5 SHL DUP2 MSTORE PUSH1 0x20 PUSH1 0x4 DUP3 ADD MSTORE PUSH1 0x25 PUSH1 0x24 DUP3 ADD MSTORE PUSH32 0x45524332303A2064656372656173656420616C6C6F77616E63652062656C6F77 PUSH1 0x44 DUP3 ADD MSTORE PUSH5 0x207A65726F PUSH1 0xD8 SHL PUSH1 0x64 DUP3 ADD MSTORE PUSH1 0x84 SWAP1 REVERT JUMPDEST CALLVALUE PUSH2 0x397 JUMPI PUSH1 0x20 PUSH2 0x483 PUSH2 0x1187 CALLDATASIZE PUSH2 0x2EDE JUMP JUMPDEST SWAP2 PUSH2 0x3793 JUMP JUMPDEST CALLVALUE PUSH2 0x397 JUMPI PUSH1 0x40 CALLDATASIZE PUSH1 0x3 NOT ADD SLT PUSH2 0x397 JUMPI PUSH2 0x11A6 PUSH2 0x2E84 JUMP JUMPDEST PUSH1 0x24 CALLDATALOAD SWAP1 PUSH1 0x1 PUSH1 0x1 PUSH1 0xA0 SHL SUB DUP2 AND SWAP1 DUP2 ISZERO PUSH2 0x11C1 DUP2 ISZERO PUSH2 0x3948 JUMP JUMPDEST PUSH2 0x11D2 PUSH2 0x11CD CALLER PUSH2 0x3A05 JUMP JUMPDEST PUSH2 0x4624 JUMP JUMPDEST PUSH2 0x11DB DUP3 PUSH2 0x3FB1 JUMP JUMPDEST DUP5 GT PUSH2 0x12DF JUMPI PUSH2 0x1290 JUMPI PUSH2 0x11EE SWAP1 PUSH2 0x3E7B JUMP JUMPDEST PUSH2 0x11F6 PUSH2 0x3ECA JUMP JUMPDEST DUP1 PUSH1 0x0 MSTORE PUSH1 0x0 PUSH1 0x20 MSTORE PUSH1 0x40 PUSH1 0x0 KECCAK256 SLOAD SWAP2 DUP1 DUP4 LT PUSH2 0x1240 JUMPI PUSH1 0x20 DUP2 PUSH1 0x0 DUP1 MLOAD PUSH1 0x20 PUSH2 0x46D0 DUP4 CODECOPY DUP2 MLOAD SWAP2 MSTORE SWAP3 PUSH1 0x0 SWAP6 DUP6 DUP8 MSTORE DUP7 DUP5 MSTORE SUB PUSH1 0x40 DUP7 KECCAK256 SSTORE DUP1 PUSH1 0x2 SLOAD SUB PUSH1 0x2 SSTORE PUSH1 0x40 MLOAD SWAP1 DUP2 MSTORE LOG3 STOP JUMPDEST PUSH1 0x40 MLOAD PUSH3 0x461BCD PUSH1 0xE5 SHL DUP2 MSTORE PUSH1 0x20 PUSH1 0x4 DUP3 ADD MSTORE PUSH1 0x22 PUSH1 0x24 DUP3 ADD MSTORE PUSH32 0x45524332303A206275726E20616D6F756E7420657863656564732062616C616E PUSH1 0x44 DUP3 ADD MSTORE PUSH2 0x6365 PUSH1 0xF0 SHL PUSH1 0x64 DUP3 ADD MSTORE PUSH1 0x84 SWAP1 REVERT JUMPDEST PUSH1 0x40 MLOAD PUSH3 0x461BCD PUSH1 0xE5 SHL DUP2 MSTORE PUSH1 0x20 PUSH1 0x4 DUP3 ADD MSTORE PUSH1 0x21 PUSH1 0x24 DUP3 ADD MSTORE PUSH32 0x45524332303A206275726E2066726F6D20746865207A65726F20616464726573 PUSH1 0x44 DUP3 ADD MSTORE PUSH1 0x73 PUSH1 0xF8 SHL PUSH1 0x64 DUP3 ADD MSTORE PUSH1 0x84 SWAP1 REVERT JUMPDEST PUSH1 0x40 MLOAD PUSH3 0x461BCD PUSH1 0xE5 SHL DUP2 MSTORE PUSH1 0x20 PUSH1 0x4 DUP3 ADD MSTORE PUSH1 0x1A PUSH1 0x24 DUP3 ADD MSTORE PUSH26 0x24B739BAB33334B1B2B73A103A37B5B2B739903A3790313AB937 PUSH1 0x31 SHL PUSH1 0x44 DUP3 ADD MSTORE PUSH1 0x64 SWAP1 REVERT JUMPDEST CALLVALUE PUSH2 0x397 JUMPI PUSH1 0x20 CALLDATASIZE PUSH1 0x3 NOT ADD SLT PUSH2 0x397 JUMPI PUSH2 0x133D PUSH1 0x4 CALLDATALOAD PUSH2 0x31F5 JUMP JUMPDEST SWAP1 ISZERO PUSH2 0x134E JUMPI PUSH1 0x20 SWAP1 PUSH1 0x40 MLOAD SWAP1 DUP2 MSTORE RETURN JUMPDEST POP PUSH1 0x20 PUSH1 0x2 SLOAD PUSH2 0x483 JUMP JUMPDEST CALLVALUE PUSH2 0x397 JUMPI PUSH1 0x0 CALLDATASIZE PUSH1 0x3 NOT ADD SLT PUSH2 0x397 JUMPI PUSH2 0x137B PUSH2 0x1376 CALLER PUSH2 0x398C JUMP JUMPDEST PUSH2 0x343B JUMP JUMPDEST PUSH1 0x20 PUSH1 0x1 PUSH1 0x8 SLOAD ADD DUP1 PUSH1 0x8 SSTORE PUSH32 0x8030E83B04D87BEF53480E26263266D6CA66863AA8506ACA6F2559D18AA1CB67 DUP3 PUSH1 0x40 MLOAD DUP4 DUP2 MSTORE LOG1 PUSH1 0x40 MLOAD SWAP1 DUP2 MSTORE RETURN JUMPDEST CALLVALUE PUSH2 0x397 JUMPI PUSH1 0x20 PUSH2 0x483 PUSH2 0x13CB CALLDATASIZE PUSH2 0x2EC0 JUMP JUMPDEST SWAP3 SWAP2 SWAP1 SWAP2 PUSH2 0x41E8 JUMP JUMPDEST CALLVALUE PUSH2 0x397 JUMPI PUSH1 0x0 CALLDATASIZE PUSH1 0x3 NOT ADD SLT PUSH2 0x397 JUMPI PUSH1 0x40 MLOAD PUSH1 0x0 SWAP1 PUSH1 0x4 SLOAD PUSH1 0x1 DUP2 DUP2 SHR SWAP1 DUP1 DUP4 AND SWAP3 DUP4 ISZERO PUSH2 0x14B0 JUMPI JUMPDEST PUSH1 0x20 SWAP4 DUP5 DUP5 LT DUP2 EQ PUSH2 0x149A JUMPI DUP4 DUP7 MSTORE SWAP1 DUP2 ISZERO PUSH2 0x147A JUMPI POP PUSH1 0x1 EQ PUSH2 0x143A JUMPI JUMPDEST PUSH2 0x5E2 DUP5 PUSH2 0x142E DUP2 DUP9 SUB DUP3 PUSH2 0x2F64 JUMP JUMPDEST PUSH1 0x40 MLOAD SWAP2 DUP3 SWAP2 DUP3 PUSH2 0x2E58 JUMP JUMPDEST SWAP2 SWAP4 POP PUSH1 0x4 PUSH1 0x0 MSTORE DUP4 PUSH1 0x0 KECCAK256 SWAP2 PUSH1 0x0 SWAP3 JUMPDEST DUP3 DUP5 LT PUSH2 0x1467 JUMPI POP POP POP DUP2 PUSH2 0x5E2 SWAP4 PUSH2 0x142E SWAP3 DUP3 ADD ADD SWAP4 PUSH2 0x141E JUMP JUMPDEST DUP1 SLOAD DUP6 DUP6 ADD DUP8 ADD MSTORE SWAP3 DUP6 ADD SWAP3 DUP2 ADD PUSH2 0x144B JUMP JUMPDEST PUSH1 0xFF NOT AND DUP6 DUP6 ADD MSTORE POP POP ISZERO ISZERO PUSH1 0x5 SHL DUP3 ADD ADD SWAP2 POP PUSH2 0x142E DUP2 PUSH2 0x5E2 PUSH2 0x141E JUMP JUMPDEST PUSH4 0x4E487B71 PUSH1 0xE0 SHL PUSH1 0x0 MSTORE PUSH1 0x22 PUSH1 0x4 MSTORE PUSH1 0x24 PUSH1 0x0 REVERT JUMPDEST SWAP2 PUSH1 0x7F AND SWAP2 PUSH2 0x13FF JUMP JUMPDEST CALLVALUE PUSH2 0x397 JUMPI PUSH1 0x40 CALLDATASIZE PUSH1 0x3 NOT ADD SLT PUSH2 0x397 JUMPI PUSH1 0x20 PUSH2 0x10A0 PUSH2 0x14D8 PUSH2 0x2E84 JUMP JUMPDEST PUSH2 0x14E0 PUSH2 0x2EB0 JUMP JUMPDEST SWAP1 PUSH2 0x39B6 JUMP JUMPDEST CALLVALUE PUSH2 0x397 JUMPI PUSH1 0xE0 CALLDATASIZE PUSH1 0x3 NOT ADD SLT PUSH2 0x397 JUMPI PUSH1 0x20 PUSH2 0x483 PUSH1 0xC4 CALLDATALOAD PUSH1 0xA4 CALLDATALOAD PUSH1 0x84 CALLDATALOAD PUSH1 0x64 CALLDATALOAD PUSH1 0x44 CALLDATALOAD PUSH1 0x24 CALLDATALOAD PUSH1 0x4 CALLDATALOAD PUSH2 0x42FD JUMP JUMPDEST CALLVALUE PUSH2 0x397 JUMPI PUSH1 0x0 CALLDATASIZE PUSH1 0x3 NOT ADD SLT PUSH2 0x397 JUMPI PUSH1 0x20 PUSH1 0xFF PUSH1 0xA SLOAD AND PUSH1 0x40 MLOAD SWAP1 DUP2 MSTORE RETURN JUMPDEST CALLVALUE PUSH2 0x397 JUMPI PUSH1 0xA0 CALLDATASIZE PUSH1 0x3 NOT ADD SLT PUSH2 0x397 JUMPI PUSH2 0x1550 PUSH2 0x2E84 JUMP JUMPDEST PUSH1 0x84 CALLDATALOAD PUSH1 0x1 PUSH1 0x1 PUSH1 0x40 SHL SUB DUP2 GT PUSH2 0x397 JUMPI CALLDATASIZE PUSH1 0x23 DUP3 ADD SLT ISZERO PUSH2 0x397 JUMPI PUSH2 0x1580 SWAP1 CALLDATASIZE SWAP1 PUSH1 0x24 DUP2 PUSH1 0x4 ADD CALLDATALOAD SWAP2 ADD PUSH2 0x2FBC JUMP JUMPDEST PUSH2 0x1588 PUSH2 0x34D1 JUMP JUMPDEST PUSH1 0xA DUP2 MLOAD GT PUSH2 0xF2E JUMPI PUSH32 0x0 PUSH1 0x24 CALLDATALOAD LT PUSH2 0xEF2 JUMPI PUSH1 0x1 PUSH1 0x1 PUSH1 0xA0 SHL SUB DUP3 AND ISZERO PUSH2 0xEBE JUMPI PUSH1 0xC SLOAD PUSH1 0x64 CALLDATALOAD LT ISZERO PUSH2 0xE88 JUMPI PUSH2 0x15E0 PUSH1 0x64 CALLDATALOAD PUSH2 0x2F87 JUMP JUMPDEST POP SLOAD PUSH1 0x24 CALLDATALOAD LT PUSH2 0xE4B JUMPI PUSH2 0x15F6 PUSH1 0x24 CALLDATALOAD ADDRESS PUSH2 0x3CB2 JUMP JUMPDEST POP PUSH2 0x1612 PUSH1 0x1 PUSH2 0x1607 PUSH1 0x64 CALLDATALOAD PUSH2 0x2F87 JUMP JUMPDEST POP ADD SLOAD PUSH1 0x44 CALLDATALOAD PUSH2 0x3098 JUMP JUMPDEST PUSH2 0x163C PUSH32 0x0 TIMESTAMP PUSH2 0x3098 JUMP JUMPDEST LT PUSH2 0xE07 JUMPI PUSH2 0x1649 PUSH2 0x3ACE JUMP JUMPDEST PUSH1 0x64 CALLDATALOAD DUP2 MSTORE PUSH1 0x44 CALLDATALOAD PUSH1 0x20 DUP3 ADD MSTORE PUSH1 0x24 CALLDATALOAD PUSH1 0x60 DUP3 ADD MSTORE PUSH1 0x1 DUP1 PUSH1 0xA0 SHL SUB DUP4 AND PUSH1 0x0 MSTORE PUSH1 0xD PUSH1 0x20 MSTORE PUSH1 0x40 PUSH1 0x0 KECCAK256 DUP1 SLOAD PUSH1 0x1 PUSH1 0x40 SHL DUP2 LT ISZERO PUSH2 0xD7B JUMPI PUSH2 0x1691 SWAP2 PUSH1 0x1 DUP3 ADD DUP2 SSTORE PUSH2 0x307C JUMP JUMPDEST SWAP2 SWAP1 SWAP2 PUSH2 0xDF1 JUMPI DUP1 MLOAD DUP3 SSTORE PUSH1 0x20 DUP2 ADD MLOAD PUSH1 0x1 DUP4 ADD SSTORE PUSH1 0x40 DUP2 ADD MLOAD PUSH1 0x2 DUP4 ADD SSTORE PUSH1 0x60 DUP2 ADD MLOAD PUSH1 0x3 DUP4 ADD SSTORE PUSH1 0x80 ADD MLOAD DUP1 MLOAD SWAP2 SWAP1 PUSH1 0x1 PUSH1 0x1 PUSH1 0x40 SHL SUB DUP4 GT PUSH2 0xD7B JUMPI PUSH1 0x1 PUSH1 0x40 SHL DUP4 GT PUSH2 0xD7B JUMPI PUSH1 0x4 DUP3 ADD SLOAD DUP4 PUSH1 0x4 DUP5 ADD SSTORE DUP1 DUP5 LT PUSH2 0x189A JUMPI JUMPDEST POP PUSH1 0x20 PUSH1 0x4 SWAP2 ADD SWAP2 ADD PUSH1 0x0 MSTORE PUSH1 0x20 PUSH1 0x0 KECCAK256 PUSH1 0x0 JUMPDEST DUP4 DUP2 LT PUSH2 0x187D JUMPI PUSH1 0x1 PUSH1 0x1 PUSH1 0xA0 SHL SUB DUP7 AND PUSH1 0x0 SWAP1 DUP2 MSTORE PUSH1 0xD PUSH1 0x20 MSTORE PUSH1 0x40 SWAP1 KECCAK256 SLOAD DUP7 SWAP1 PUSH1 0x0 NOT DUP2 ADD SWAP1 DUP8 SWAP1 DUP3 GT PUSH2 0xD91 JUMPI DUP1 MLOAD PUSH2 0x17CA JUMPI JUMPDEST PUSH1 0x40 MLOAD SWAP2 PUSH1 0x80 DUP4 ADD SWAP1 PUSH1 0x24 CALLDATALOAD DUP5 MSTORE PUSH1 0x44 CALLDATALOAD PUSH1 0x20 DUP6 ADD MSTORE PUSH1 0x40 DUP5 ADD MSTORE PUSH1 0x80 PUSH1 0x60 DUP5 ADD MSTORE DUP2 MLOAD DUP1 SWAP2 MSTORE PUSH1 0x20 PUSH1 0xA0 DUP5 ADD SWAP3 ADD SWAP1 PUSH1 0x0 JUMPDEST DUP2 DUP2 LT PUSH2 0x17AB JUMPI POP POP PUSH1 0x64 CALLDATALOAD SWAP4 PUSH1 0x1 PUSH1 0x1 PUSH1 0xA0 SHL SUB AND SWAP3 CALLER SWAP3 PUSH1 0x0 DUP1 MLOAD PUSH1 0x20 PUSH2 0x46B0 DUP4 CODECOPY DUP2 MLOAD SWAP2 MSTORE SWAP3 POP DUP2 SWAP1 SUB SWAP1 LOG4 PUSH1 0x1 PUSH1 0xB SSTORE PUSH1 0x20 PUSH1 0x40 MLOAD PUSH1 0x1 DUP2 MSTORE RETURN JUMPDEST DUP3 MLOAD PUSH1 0x1 PUSH1 0x1 PUSH1 0xA0 SHL SUB AND DUP5 MSTORE PUSH1 0x20 SWAP4 DUP5 ADD SWAP4 SWAP1 SWAP3 ADD SWAP2 PUSH1 0x1 ADD PUSH2 0x176C JUMP JUMPDEST PUSH1 0x1 DUP1 PUSH1 0xA0 SHL SUB DUP4 AND PUSH1 0x0 MSTORE PUSH1 0xD PUSH1 0x20 MSTORE PUSH1 0x4 PUSH2 0x17EB DUP4 PUSH1 0x40 PUSH1 0x0 KECCAK256 PUSH2 0x307C JUMP JUMPDEST POP DUP3 MLOAD SWAP2 ADD PUSH1 0x1 PUSH1 0x1 PUSH1 0x40 SHL SUB DUP3 GT PUSH2 0xD7B JUMPI PUSH1 0x1 PUSH1 0x40 SHL DUP3 GT PUSH2 0xD7B JUMPI DUP1 SLOAD DUP3 DUP3 SSTORE DUP1 DUP4 LT PUSH2 0x1854 JUMPI JUMPDEST POP PUSH1 0x20 DUP4 ADD SWAP1 PUSH1 0x0 MSTORE PUSH1 0x20 PUSH1 0x0 KECCAK256 PUSH1 0x0 JUMPDEST DUP4 DUP2 LT PUSH2 0x1837 JUMPI POP POP POP POP PUSH2 0x1739 JUMP JUMPDEST DUP3 MLOAD PUSH1 0x1 PUSH1 0x1 PUSH1 0xA0 SHL SUB AND DUP2 DUP4 ADD SSTORE PUSH1 0x20 SWAP1 SWAP3 ADD SWAP2 PUSH1 0x1 ADD PUSH2 0x1827 JUMP JUMPDEST DUP2 PUSH1 0x0 MSTORE DUP3 PUSH1 0x20 PUSH1 0x0 KECCAK256 SWAP2 DUP3 ADD SWAP2 ADD JUMPDEST DUP2 DUP2 LT PUSH2 0x1871 JUMPI POP PUSH2 0x1816 JUMP JUMPDEST PUSH1 0x0 DUP2 SSTORE PUSH1 0x1 ADD PUSH2 0x1864 JUMP JUMPDEST DUP3 MLOAD PUSH1 0x1 PUSH1 0x1 PUSH1 0xA0 SHL SUB AND DUP2 DUP4 ADD SSTORE PUSH1 0x20 SWAP1 SWAP3 ADD SWAP2 PUSH1 0x1 ADD PUSH2 0x1702 JUMP JUMPDEST PUSH1 0x4 DUP4 ADD PUSH1 0x0 MSTORE PUSH1 0x20 PUSH1 0x0 KECCAK256 SWAP1 DUP5 DUP3 ADD JUMPDEST DUP2 DUP4 ADD DUP2 LT PUSH2 0x18BB JUMPI POP POP PUSH2 0x16EE JUMP JUMPDEST PUSH1 0x0 DUP2 SSTORE PUSH1 0x1 ADD PUSH2 0x18AB JUMP JUMPDEST CALLVALUE PUSH2 0x397 JUMPI PUSH1 0x40 CALLDATASIZE PUSH1 0x3 NOT ADD SLT PUSH2 0x397 JUMPI PUSH2 0x18E0 PUSH2 0x2E84 JUMP JUMPDEST PUSH1 0x24 CALLDATALOAD SWAP1 PUSH1 0x1 PUSH1 0x1 PUSH1 0xA0 SHL SUB AND PUSH2 0x18F8 DUP2 ISZERO ISZERO PUSH2 0x3948 JUMP JUMPDEST PUSH2 0x1909 PUSH2 0x1904 CALLER PUSH2 0x3A2F JUMP JUMPDEST PUSH2 0x3A83 JUMP JUMPDEST DUP1 PUSH1 0x0 MSTORE PUSH1 0x11 PUSH1 0x20 MSTORE DUP2 PUSH1 0x40 PUSH1 0x0 KECCAK256 SSTORE CALLER PUSH1 0x0 DUP1 MLOAD PUSH1 0x20 PUSH2 0x4690 DUP4 CODECOPY DUP2 MLOAD SWAP2 MSTORE PUSH1 0x0 DUP1 LOG4 STOP JUMPDEST CALLVALUE PUSH2 0x397 JUMPI PUSH1 0x20 CALLDATASIZE PUSH1 0x3 NOT ADD SLT PUSH2 0x397 JUMPI PUSH1 0x20 PUSH2 0x483 PUSH2 0x194D PUSH2 0x2E84 JUMP JUMPDEST PUSH2 0x3FDB JUMP JUMPDEST CALLVALUE PUSH2 0x397 JUMPI PUSH1 0x20 CALLDATASIZE PUSH1 0x3 NOT ADD SLT PUSH2 0x397 JUMPI PUSH1 0x20 PUSH2 0x483 PUSH2 0x1970 PUSH2 0x2E84 JUMP JUMPDEST PUSH1 0x1 PUSH1 0x1 PUSH1 0xA0 SHL SUB DUP2 AND PUSH1 0x0 SWAP1 DUP2 MSTORE DUP1 DUP5 MSTORE PUSH1 0x40 SWAP1 KECCAK256 SLOAD SWAP1 PUSH2 0x1991 SWAP1 PUSH2 0x4029 JUMP JUMPDEST SWAP1 PUSH2 0x3098 JUMP JUMPDEST CALLVALUE PUSH2 0x397 JUMPI PUSH1 0x0 CALLDATASIZE PUSH1 0x3 NOT ADD SLT PUSH2 0x397 JUMPI PUSH2 0x19B4 PUSH2 0x1376 CALLER PUSH2 0x398C JUMP JUMPDEST PUSH1 0x1 PUSH1 0xFF NOT PUSH1 0x15 SLOAD AND OR PUSH1 0x15 SSTORE PUSH1 0x0 DUP1 MLOAD PUSH1 0x20 PUSH2 0x4670 DUP4 CODECOPY DUP2 MLOAD SWAP2 MSTORE PUSH1 0x40 DUP1 MLOAD CALLER DUP2 MSTORE PUSH1 0x1 PUSH1 0x20 DUP3 ADD MSTORE LOG1 STOP JUMPDEST CALLVALUE PUSH2 0x397 JUMPI PUSH1 0x40 CALLDATASIZE PUSH1 0x3 NOT ADD SLT PUSH2 0x397 JUMPI PUSH2 0x1A06 PUSH2 0x19FD PUSH2 0x2E84 JUMP JUMPDEST PUSH1 0x24 CALLDATALOAD SWAP1 PUSH2 0x422B JUMP JUMPDEST PUSH1 0x40 MLOAD DUP1 SWAP2 PUSH1 0x20 DUP1 DUP4 MSTORE PUSH1 0x80 PUSH1 0xC0 DUP5 ADD SWAP3 DUP1 MLOAD DUP4 DUP7 ADD MSTORE DUP3 DUP2 ADD MLOAD PUSH1 0x40 DUP7 ADD MSTORE PUSH1 0x40 DUP2 ADD MLOAD PUSH1 0x60 DUP7 ADD MSTORE PUSH1 0x60 DUP2 ADD MLOAD DUP3 DUP7 ADD MSTORE ADD MLOAD SWAP2 PUSH1 0xA0 DUP1 DUP6 ADD MSTORE DUP3 MLOAD DUP1 SWAP2 MSTORE DUP2 PUSH1 0xE0 DUP6 ADD SWAP4 ADD SWAP2 PUSH1 0x0 JUMPDEST DUP3 DUP2 LT PUSH2 0x1A61 JUMPI POP POP POP POP SUB SWAP1 RETURN JUMPDEST DUP4 MLOAD PUSH1 0x1 PUSH1 0x1 PUSH1 0xA0 SHL SUB AND DUP6 MSTORE DUP7 SWAP6 POP SWAP4 DUP2 ADD SWAP4 SWAP3 DUP2 ADD SWAP3 PUSH1 0x1 ADD PUSH2 0x1A52 JUMP JUMPDEST CALLVALUE PUSH2 0x397 JUMPI PUSH2 0x1A8F CALLDATASIZE PUSH2 0x2EDE JUMP JUMPDEST PUSH1 0x0 SWAP3 SWAP2 SWAP3 MSTORE PUSH1 0x16 PUSH1 0x20 MSTORE PUSH1 0x40 PUSH1 0x0 KECCAK256 PUSH1 0x1 DUP1 PUSH1 0xA0 SHL SUB DUP1 SWAP3 AND PUSH1 0x0 MSTORE PUSH1 0x20 MSTORE PUSH1 0x40 PUSH1 0x0 KECCAK256 SWAP2 AND PUSH1 0x0 MSTORE PUSH1 0x20 MSTORE PUSH1 0x20 PUSH1 0x40 PUSH1 0x0 KECCAK256 SLOAD PUSH1 0x40 MLOAD SWAP1 DUP2 MSTORE RETURN JUMPDEST CALLVALUE PUSH2 0x397 JUMPI PUSH1 0x20 CALLDATASIZE PUSH1 0x3 NOT ADD SLT PUSH2 0x397 JUMPI PUSH1 0x4 CALLDATALOAD PUSH1 0xFF DUP2 AND DUP2 SUB PUSH2 0x397 JUMPI PUSH2 0x142E PUSH2 0x5E2 SWAP2 PUSH2 0x4500 JUMP JUMPDEST CALLVALUE PUSH2 0x397 JUMPI PUSH1 0x40 CALLDATASIZE PUSH1 0x3 NOT ADD SLT PUSH2 0x397 JUMPI PUSH1 0x20 PUSH2 0x483 PUSH2 0x1B14 PUSH2 0x2E84 JUMP JUMPDEST PUSH1 0x24 CALLDATALOAD SWAP1 PUSH2 0x3BAC JUMP JUMPDEST CALLVALUE PUSH2 0x397 JUMPI PUSH1 0x20 CALLDATASIZE PUSH1 0x3 NOT ADD SLT PUSH2 0x397 JUMPI PUSH1 0x20 PUSH2 0x483 PUSH2 0x1B3B PUSH2 0x2E84 JUMP JUMPDEST PUSH2 0x3FB1 JUMP JUMPDEST CALLVALUE PUSH2 0x397 JUMPI PUSH1 0x20 PUSH2 0x483 PUSH2 0x1B53 CALLDATASIZE PUSH2 0x2EDE JUMP JUMPDEST SWAP2 PUSH2 0x38BD JUMP JUMPDEST CALLVALUE PUSH2 0x397 JUMPI PUSH1 0x20 CALLDATASIZE PUSH1 0x3 NOT ADD SLT PUSH2 0x397 JUMPI PUSH1 0x4 CALLDATALOAD PUSH1 0xC SLOAD DUP2 LT ISZERO PUSH2 0x397 JUMPI PUSH2 0x5A8 SWAP1 PUSH2 0x2F87 JUMP JUMPDEST CALLVALUE PUSH2 0x397 JUMPI PUSH1 0x20 CALLDATASIZE PUSH1 0x3 NOT ADD SLT PUSH2 0x397 JUMPI PUSH1 0x20 PUSH2 0x483 PUSH2 0x1B9E PUSH2 0x2E84 JUMP JUMPDEST PUSH2 0x1991 PUSH2 0x1BAA DUP3 PUSH2 0x4029 JUMP JUMPDEST SWAP2 PUSH2 0x3FDB JUMP JUMPDEST CALLVALUE PUSH2 0x397 JUMPI PUSH1 0x40 CALLDATASIZE PUSH1 0x3 NOT ADD SLT PUSH2 0x397 JUMPI PUSH2 0x1BC9 PUSH2 0x2E84 JUMP JUMPDEST PUSH1 0x24 CALLDATALOAD SWAP1 PUSH1 0x1 PUSH1 0x1 PUSH1 0xA0 SHL SUB AND PUSH2 0x1BE1 DUP2 ISZERO ISZERO PUSH2 0x3948 JUMP JUMPDEST PUSH2 0x1BED PUSH2 0x1904 CALLER PUSH2 0x3A2F JUMP JUMPDEST DUP1 PUSH1 0x0 MSTORE PUSH1 0x12 PUSH1 0x20 MSTORE DUP2 PUSH1 0x40 PUSH1 0x0 KECCAK256 SSTORE CALLER PUSH1 0x0 DUP1 MLOAD PUSH1 0x20 PUSH2 0x46F0 DUP4 CODECOPY DUP2 MLOAD SWAP2 MSTORE PUSH1 0x0 DUP1 LOG4 STOP JUMPDEST CALLVALUE PUSH2 0x397 JUMPI PUSH1 0xE0 CALLDATASIZE PUSH1 0x3 NOT ADD SLT PUSH2 0x397 JUMPI PUSH1 0x80 CALLDATASIZE PUSH1 0x63 NOT ADD SLT PUSH2 0x397 JUMPI PUSH1 0x20 PUSH2 0x483 PUSH1 0x40 MLOAD PUSH2 0x1C41 DUP2 PUSH2 0x2F13 JUMP JUMPDEST PUSH1 0x64 CALLDATALOAD DUP2 MSTORE PUSH1 0x84 CALLDATALOAD DUP4 DUP3 ADD MSTORE PUSH1 0xA4 CALLDATALOAD PUSH1 0x40 DUP3 ADD MSTORE PUSH1 0xC4 CALLDATALOAD PUSH1 0x60 DUP3 ADD MSTORE PUSH1 0x44 CALLDATALOAD PUSH1 0x24 CALLDATALOAD PUSH1 0x4 CALLDATALOAD PUSH2 0x42E1 JUMP JUMPDEST CALLVALUE PUSH2 0x397 JUMPI PUSH1 0x40 CALLDATASIZE PUSH1 0x3 NOT ADD SLT PUSH2 0x397 JUMPI PUSH1 0x20 PUSH2 0x483 PUSH2 0x1C89 PUSH2 0x2E84 JUMP JUMPDEST PUSH1 0x24 CALLDATALOAD SWAP1 PUSH2 0x374F JUMP JUMPDEST CALLVALUE PUSH2 0x397 JUMPI PUSH1 0x40 CALLDATASIZE PUSH1 0x3 NOT ADD SLT PUSH2 0x397 JUMPI PUSH2 0x1CAB PUSH2 0x2E84 JUMP JUMPDEST PUSH1 0x24 CALLDATALOAD SWAP1 PUSH2 0x1CBB PUSH2 0x1376 CALLER PUSH2 0x398C JUMP JUMPDEST PUSH2 0x1CC3 PUSH2 0x34D1 JUMP JUMPDEST PUSH1 0x1 PUSH1 0x1 PUSH1 0xA0 SHL SUB DUP2 AND SWAP1 PUSH2 0x1CE4 SWAP1 DUP4 SWAP1 PUSH2 0x1CDF DUP5 ISZERO ISZERO PUSH2 0x3491 JUMP JUMPDEST PUSH2 0x374F JUMP JUMPDEST PUSH2 0x1CEF DUP2 CALLER DUP5 PUSH2 0x3542 JUMP JUMPDEST DUP3 PUSH1 0x0 MSTORE PUSH1 0x17 PUSH1 0x20 MSTORE PUSH1 0x40 PUSH1 0x0 KECCAK256 DUP3 PUSH1 0x0 MSTORE PUSH1 0x20 MSTORE PUSH1 0x1 PUSH1 0x40 PUSH1 0x0 KECCAK256 ADD PUSH2 0x1D17 DUP3 DUP3 SLOAD PUSH2 0x32F0 JUMP JUMPDEST SWAP1 SSTORE PUSH1 0x40 MLOAD SWAP1 DUP2 MSTORE PUSH32 0x91FB9D98B786C57D74C099CCD2BECA1739E9F6A81FB49001CA465C4B7591BBE2 PUSH1 0x20 CALLER SWAP3 LOG4 PUSH1 0x1 PUSH1 0xB SSTORE STOP JUMPDEST CALLVALUE PUSH2 0x397 JUMPI PUSH1 0x0 CALLDATASIZE PUSH1 0x3 NOT ADD SLT PUSH2 0x397 JUMPI PUSH1 0x20 PUSH1 0x8 SLOAD PUSH1 0x40 MLOAD SWAP1 DUP2 MSTORE RETURN JUMPDEST CALLVALUE PUSH2 0x397 JUMPI PUSH1 0x40 CALLDATASIZE PUSH1 0x3 NOT ADD SLT PUSH2 0x397 JUMPI PUSH2 0x1D83 PUSH2 0x2E84 JUMP JUMPDEST PUSH1 0x24 CALLDATALOAD SWAP1 PUSH2 0x1D8F PUSH2 0x34D1 JUMP JUMPDEST PUSH2 0x1D9A DUP3 CALLER DUP4 PUSH2 0x38BD JUMP JUMPDEST SWAP1 DUP2 ISZERO PUSH2 0x1E41 JUMPI PUSH1 0x1 PUSH1 0x1 PUSH1 0xA0 SHL SUB AND SWAP1 PUSH2 0x1DB6 DUP2 CALLER DUP5 PUSH2 0x3542 JUMP JUMPDEST DUP3 PUSH1 0x0 MSTORE PUSH32 0x2F6639D24651730C7BF57C95DDBF96D66D11477E4EC626876F92C22E5F365E68 PUSH1 0x20 PUSH1 0x16 DUP2 MSTORE PUSH1 0x40 PUSH1 0x0 KECCAK256 DUP5 PUSH1 0x0 MSTORE DUP2 MSTORE PUSH1 0x40 PUSH1 0x0 KECCAK256 CALLER PUSH1 0x0 MSTORE DUP2 MSTORE PUSH1 0x40 PUSH1 0x0 KECCAK256 PUSH2 0x1E07 DUP5 DUP3 SLOAD PUSH2 0x3098 JUMP JUMPDEST SWAP1 SSTORE DUP5 PUSH1 0x0 MSTORE PUSH1 0x17 DUP2 MSTORE PUSH1 0x40 PUSH1 0x0 KECCAK256 DUP5 PUSH1 0x0 MSTORE DUP2 MSTORE PUSH1 0x1 PUSH1 0x40 PUSH1 0x0 KECCAK256 ADD PUSH2 0x1E2F DUP5 DUP3 SLOAD PUSH2 0x32F0 JUMP JUMPDEST SWAP1 SSTORE PUSH1 0x40 MLOAD SWAP3 DUP4 MSTORE CALLER SWAP3 LOG4 PUSH1 0x1 PUSH1 0xB SSTORE STOP JUMPDEST PUSH1 0x40 MLOAD PUSH3 0x461BCD PUSH1 0xE5 SHL DUP2 MSTORE PUSH1 0x20 PUSH1 0x4 DUP3 ADD MSTORE PUSH1 0x1D PUSH1 0x24 DUP3 ADD MSTORE PUSH32 0x594F552043414E60542052454345495645204D4F524520544F4B454E53000000 PUSH1 0x44 DUP3 ADD MSTORE PUSH1 0x64 SWAP1 REVERT JUMPDEST CALLVALUE PUSH2 0x397 JUMPI PUSH1 0x40 CALLDATASIZE PUSH1 0x3 NOT ADD SLT PUSH2 0x397 JUMPI PUSH1 0x20 PUSH2 0x1EA1 PUSH2 0x2E84 JUMP JUMPDEST PUSH1 0x1 PUSH1 0x1 PUSH1 0xA0 SHL SUB DUP2 AND PUSH1 0x0 SWAP1 DUP2 MSTORE PUSH1 0x5 DUP4 MSTORE PUSH1 0x40 SWAP1 KECCAK256 PUSH2 0x1EC4 SWAP1 PUSH1 0x24 CALLDATALOAD PUSH2 0x32B9 JUMP JUMPDEST SWAP2 SWAP1 ISZERO PUSH2 0x1ED4 JUMPI POP PUSH1 0x40 MLOAD SWAP1 DUP2 MSTORE RETURN JUMPDEST PUSH2 0x1EDE SWAP2 POP PUSH2 0x3FB1 JUMP JUMPDEST PUSH2 0x483 JUMP JUMPDEST CALLVALUE PUSH2 0x397 JUMPI PUSH1 0x0 CALLDATASIZE PUSH1 0x3 NOT ADD SLT PUSH2 0x397 JUMPI PUSH1 0x20 PUSH1 0x40 MLOAD PUSH2 0x2710 DUP2 MSTORE RETURN JUMPDEST CALLVALUE PUSH2 0x397 JUMPI PUSH1 0xA0 CALLDATASIZE PUSH1 0x3 NOT ADD SLT PUSH2 0x397 JUMPI PUSH2 0x1F19 PUSH2 0x2E84 JUMP JUMPDEST PUSH1 0x84 CALLDATALOAD DUP1 ISZERO ISZERO SWAP2 PUSH1 0x64 CALLDATALOAD SWAP2 SWAP1 PUSH1 0x24 CALLDATALOAD DUP5 DUP4 SUB PUSH2 0x397 JUMPI PUSH1 0x1 PUSH1 0x1 PUSH1 0xA0 SHL SUB SWAP1 SWAP2 AND SWAP3 PUSH2 0x84E SWAP2 DUP5 ISZERO ISZERO SWAP2 SWAP1 PUSH2 0x1F4D DUP4 PUSH2 0x3948 JUMP JUMPDEST PUSH2 0x1F59 PUSH2 0x1904 CALLER PUSH2 0x3A2F JUMP JUMPDEST PUSH2 0x1F62 DUP4 PUSH2 0x3948 JUMP JUMPDEST PUSH2 0x1F6E PUSH2 0x1904 CALLER PUSH2 0x3A2F JUMP JUMPDEST DUP6 PUSH1 0x0 MSTORE PUSH1 0x12 PUSH1 0x20 MSTORE DUP1 PUSH1 0x40 PUSH1 0x0 KECCAK256 SSTORE DUP6 CALLER PUSH1 0x0 DUP1 MLOAD PUSH1 0x20 PUSH2 0x46F0 DUP4 CODECOPY DUP2 MLOAD SWAP2 MSTORE PUSH1 0x0 DUP1 LOG4 PUSH2 0x1F9C DUP3 PUSH2 0x3948 JUMP JUMPDEST PUSH2 0x1FA8 PUSH2 0x1904 CALLER PUSH2 0x3A2F JUMP JUMPDEST DUP5 PUSH1 0x0 MSTORE PUSH1 0x11 PUSH1 0x20 MSTORE DUP1 PUSH1 0x40 PUSH1 0x0 KECCAK256 SSTORE DUP5 CALLER PUSH1 0x0 DUP1 MLOAD PUSH1 0x20 PUSH2 0x4690 DUP4 CODECOPY DUP2 MLOAD SWAP2 MSTORE PUSH1 0x0 DUP1 LOG4 PUSH2 0x3948 JUMP JUMPDEST CALLVALUE PUSH2 0x397 JUMPI PUSH1 0x40 CALLDATASIZE PUSH1 0x3 NOT ADD SLT PUSH2 0x397 JUMPI PUSH2 0x1FEB PUSH2 0x2E84 JUMP JUMPDEST PUSH2 0x1FF3 PUSH2 0x2E9A JUMP JUMPDEST SWAP1 PUSH1 0x1 DUP1 PUSH1 0xA0 SHL SUB DUP1 SWAP2 AND PUSH1 0x0 MSTORE PUSH1 0x12 PUSH1 0x20 MSTORE PUSH1 0x40 PUSH1 0x0 KECCAK256 SLOAD PUSH1 0x0 MSTORE PUSH1 0x13 PUSH1 0x20 MSTORE PUSH1 0x40 PUSH1 0x0 KECCAK256 SWAP2 AND PUSH1 0x0 MSTORE PUSH1 0x12 PUSH1 0x20 MSTORE PUSH1 0x40 PUSH1 0x0 KECCAK256 SLOAD PUSH1 0x0 MSTORE PUSH1 0x20 MSTORE PUSH1 0x20 PUSH1 0x40 PUSH1 0x0 KECCAK256 SLOAD PUSH1 0x40 MLOAD SWAP1 DUP2 MSTORE RETURN JUMPDEST CALLVALUE PUSH2 0x397 JUMPI PUSH1 0x40 CALLDATASIZE PUSH1 0x3 NOT ADD SLT PUSH2 0x397 JUMPI PUSH2 0x2058 PUSH2 0x2E84 JUMP JUMPDEST PUSH1 0x1 PUSH1 0x1 PUSH1 0xA0 SHL SUB DUP2 AND SWAP1 PUSH1 0x24 CALLDATALOAD DUP3 ISZERO PUSH2 0x2072 DUP2 ISZERO PUSH2 0x3948 JUMP JUMPDEST PUSH2 0x207E PUSH2 0x11CD CALLER PUSH2 0x3A05 JUMP JUMPDEST PUSH2 0x208A DUP3 PUSH1 0x2 SLOAD PUSH2 0x3098 JUMP JUMPDEST PUSH1 0x10 SLOAD LT PUSH2 0x2128 JUMPI PUSH2 0x20E3 JUMPI PUSH1 0x20 PUSH1 0x0 DUP1 MLOAD PUSH1 0x20 PUSH2 0x46D0 DUP4 CODECOPY DUP2 MLOAD SWAP2 MSTORE SWAP2 PUSH2 0x20B3 PUSH1 0x0 SWAP5 PUSH2 0x3E7B JUMP JUMPDEST PUSH2 0x20BB PUSH2 0x3ECA JUMP JUMPDEST PUSH2 0x20C7 DUP2 PUSH1 0x2 SLOAD PUSH2 0x3098 JUMP JUMPDEST PUSH1 0x2 SSTORE DUP5 DUP5 MSTORE DUP4 DUP3 MSTORE PUSH1 0x40 DUP5 KECCAK256 DUP2 DUP2 SLOAD ADD SWAP1 SSTORE PUSH1 0x40 MLOAD SWAP1 DUP2 MSTORE LOG3 STOP JUMPDEST PUSH1 0x40 MLOAD PUSH3 0x461BCD PUSH1 0xE5 SHL DUP2 MSTORE PUSH1 0x20 PUSH1 0x4 DUP3 ADD MSTORE PUSH1 0x1F PUSH1 0x24 DUP3 ADD MSTORE PUSH32 0x45524332303A206D696E7420746F20746865207A65726F206164647265737300 PUSH1 0x44 DUP3 ADD MSTORE PUSH1 0x64 SWAP1 REVERT JUMPDEST PUSH1 0x40 MLOAD PUSH3 0x461BCD PUSH1 0xE5 SHL DUP2 MSTORE PUSH1 0x20 PUSH1 0x4 DUP3 ADD MSTORE PUSH1 0x2A PUSH1 0x24 DUP3 ADD MSTORE PUSH32 0x43616E6E6F74206D696E74206D6F7265207468616E20746865206D617820746F PUSH1 0x44 DUP3 ADD MSTORE PUSH10 0x74616C20737570706C79 PUSH1 0xB0 SHL PUSH1 0x64 DUP3 ADD MSTORE PUSH1 0x84 SWAP1 REVERT JUMPDEST CALLVALUE PUSH2 0x397 JUMPI PUSH1 0x0 CALLDATASIZE PUSH1 0x3 NOT ADD SLT PUSH2 0x397 JUMPI PUSH2 0x219D PUSH2 0x1376 CALLER PUSH2 0x398C JUMP JUMPDEST PUSH1 0xFF NOT PUSH1 0x15 SLOAD AND PUSH1 0x15 SSTORE PUSH1 0x0 DUP1 MLOAD PUSH1 0x20 PUSH2 0x4670 DUP4 CODECOPY DUP2 MLOAD SWAP2 MSTORE PUSH1 0x40 DUP1 MLOAD CALLER DUP2 MSTORE PUSH1 0x0 PUSH1 0x20 DUP3 ADD MSTORE LOG1 STOP JUMPDEST CALLVALUE PUSH2 0x397 JUMPI PUSH1 0x40 CALLDATASIZE PUSH1 0x3 NOT ADD SLT PUSH2 0x397 JUMPI PUSH2 0x21E0 PUSH2 0x2E84 JUMP JUMPDEST PUSH2 0x21E8 PUSH2 0x2EB0 JUMP JUMPDEST PUSH1 0xFF SWAP2 DUP3 DUP3 AND SWAP1 DUP2 ISZERO ISZERO DUP1 PUSH2 0x22B2 JUMPI JUMPDEST PUSH2 0x2201 SWAP1 PUSH2 0x3901 JUMP JUMPDEST PUSH1 0x1 PUSH1 0x1 PUSH1 0xA0 SHL SUB AND SWAP2 PUSH2 0x2216 DUP4 ISZERO ISZERO PUSH2 0x3948 JUMP JUMPDEST PUSH2 0x2222 PUSH2 0x1376 CALLER PUSH2 0x398C JUMP JUMPDEST DUP3 PUSH1 0x0 MSTORE PUSH1 0x9 PUSH1 0x20 MSTORE PUSH1 0x1 PUSH1 0x40 PUSH1 0x0 KECCAK256 SLOAD AND ISZERO SWAP1 DUP2 PUSH2 0x22A5 JUMPI JUMPDEST POP PUSH2 0x227F JUMPI JUMPDEST PUSH1 0x1 SWAP3 DUP3 PUSH1 0x0 MSTORE PUSH1 0x9 PUSH1 0x20 MSTORE PUSH1 0x40 PUSH1 0x0 KECCAK256 SWAP1 DUP3 DUP3 SLOAD SWAP2 DUP3 AND OR SWAP1 PUSH1 0xFF NOT AND OR SWAP1 SSTORE PUSH1 0x40 MLOAD SWAP1 DUP2 MSTORE PUSH1 0x0 DUP1 MLOAD PUSH1 0x20 PUSH2 0x4710 DUP4 CODECOPY DUP2 MLOAD SWAP2 MSTORE PUSH1 0x20 CALLER SWAP3 LOG4 STOP JUMPDEST PUSH1 0xA SLOAD SWAP3 DUP1 DUP5 AND SWAP4 DUP2 DUP6 EQ PUSH2 0xD91 JUMPI DUP2 PUSH1 0x1 DUP1 SWAP7 ADD AND SWAP1 PUSH1 0xFF NOT AND OR PUSH1 0xA SSTORE SWAP3 POP PUSH2 0x2242 JUMP JUMPDEST PUSH1 0x1 SWAP2 POP AND ISZERO ISZERO DUP5 PUSH2 0x223C JUMP JUMPDEST POP PUSH1 0xF DUP4 DUP2 OR DUP6 AND EQ PUSH2 0x21F8 JUMP JUMPDEST CALLVALUE PUSH2 0x397 JUMPI PUSH1 0x40 CALLDATASIZE PUSH1 0x3 NOT ADD SLT PUSH2 0x397 JUMPI PUSH1 0x4 CALLDATALOAD PUSH1 0x0 MSTORE PUSH1 0x13 PUSH1 0x20 MSTORE PUSH1 0x40 PUSH1 0x0 KECCAK256 PUSH1 0x24 CALLDATALOAD PUSH1 0x0 MSTORE PUSH1 0x20 MSTORE PUSH1 0x20 PUSH1 0x40 PUSH1 0x0 KECCAK256 SLOAD PUSH1 0x40 MLOAD SWAP1 DUP2 MSTORE RETURN JUMPDEST CALLVALUE PUSH2 0x397 JUMPI PUSH1 0x40 CALLDATASIZE PUSH1 0x3 NOT ADD SLT PUSH2 0x397 JUMPI PUSH2 0x104F PUSH2 0x2316 PUSH2 0x2E84 JUMP JUMPDEST CALLER PUSH1 0x0 MSTORE PUSH1 0x1 PUSH1 0x20 MSTORE PUSH1 0x40 PUSH1 0x0 KECCAK256 PUSH1 0x1 DUP1 PUSH1 0xA0 SHL SUB DUP3 AND PUSH1 0x0 MSTORE PUSH1 0x20 MSTORE PUSH2 0x2344 PUSH1 0x24 CALLDATALOAD PUSH1 0x40 PUSH1 0x0 KECCAK256 SLOAD PUSH2 0x3098 JUMP JUMPDEST SWAP1 CALLER PUSH2 0x30A5 JUMP JUMPDEST CALLVALUE PUSH2 0x397 JUMPI PUSH1 0x0 CALLDATASIZE PUSH1 0x3 NOT ADD SLT PUSH2 0x397 JUMPI PUSH1 0x20 PUSH1 0x40 MLOAD PUSH32 0x0 DUP2 MSTORE RETURN JUMPDEST CALLVALUE PUSH2 0x397 JUMPI PUSH1 0x20 CALLDATASIZE PUSH1 0x3 NOT ADD SLT PUSH2 0x397 JUMPI PUSH1 0x1 PUSH1 0x1 PUSH1 0xA0 SHL SUB PUSH2 0x23A7 PUSH2 0x2E84 JUMP JUMPDEST AND PUSH1 0x0 MSTORE PUSH1 0x0 PUSH1 0x20 MSTORE PUSH1 0x20 PUSH1 0x40 PUSH1 0x0 KECCAK256 SLOAD PUSH1 0x40 MLOAD SWAP1 DUP2 MSTORE RETURN JUMPDEST CALLVALUE PUSH2 0x397 JUMPI PUSH1 0x0 CALLDATASIZE PUSH1 0x3 NOT ADD SLT PUSH2 0x397 JUMPI PUSH1 0x20 PUSH1 0xFF PUSH1 0xF SLOAD AND PUSH1 0x40 MLOAD SWAP1 DUP2 MSTORE RETURN JUMPDEST CALLVALUE PUSH2 0x397 JUMPI PUSH2 0x3D0 PUSH2 0x23F2 CALLDATASIZE PUSH2 0x2EDE JUMP JUMPDEST SWAP2 PUSH2 0x43CB JUMP JUMPDEST CALLVALUE PUSH2 0x397 JUMPI PUSH1 0x0 CALLDATASIZE PUSH1 0x3 NOT ADD SLT PUSH2 0x397 JUMPI PUSH1 0x20 PUSH1 0x10 SLOAD PUSH1 0x40 MLOAD SWAP1 DUP2 MSTORE RETURN JUMPDEST CALLVALUE PUSH2 0x397 JUMPI PUSH2 0x2424 CALLDATASIZE PUSH2 0x2EDE JUMP JUMPDEST SWAP1 PUSH1 0x1 PUSH1 0x1 PUSH1 0xA0 SHL SUB DUP1 DUP3 AND ISZERO ISZERO DUP1 PUSH2 0x25D9 JUMPI JUMPDEST PUSH2 0x2441 SWAP1 PUSH2 0x3948 JUMP JUMPDEST DUP4 AND SWAP1 DUP2 PUSH1 0x0 MSTORE PUSH1 0x20 SWAP3 PUSH1 0x1 DUP5 MSTORE PUSH1 0x40 PUSH1 0x0 KECCAK256 CALLER PUSH1 0x0 MSTORE DUP5 MSTORE PUSH1 0x40 PUSH1 0x0 KECCAK256 SLOAD DUP1 DUP3 GT PUSH2 0x2573 JUMPI PUSH2 0x2472 DUP3 DUP5 DUP9 PUSH2 0x43CB JUMP JUMPDEST PUSH2 0x247C DUP3 DUP8 PUSH2 0x40AA JUMP JUMPDEST SWAP1 PUSH2 0x2499 DUP3 MLOAD SWAP4 PUSH2 0x2492 DUP9 DUP6 ADD SWAP6 DUP7 MLOAD SWAP1 PUSH2 0x3098 JUMP JUMPDEST LT ISZERO PUSH2 0x3C71 JUMP JUMPDEST DUP2 MLOAD SWAP2 DUP3 PUSH2 0x2553 JUMPI JUMPDEST POP POP POP MLOAD SWAP2 DUP3 PUSH2 0x24B7 JUMPI JUMPDEST DUP4 PUSH1 0x40 MLOAD PUSH1 0x1 DUP2 MSTORE RETURN JUMPDEST PUSH1 0x0 MSTORE PUSH1 0x1 DUP4 MSTORE PUSH1 0x40 PUSH1 0x0 KECCAK256 CALLER PUSH1 0x0 MSTORE DUP4 MSTORE PUSH1 0x40 PUSH1 0x0 KECCAK256 SLOAD SWAP4 PUSH1 0x0 NOT DUP6 SUB PUSH2 0x24EE JUMPI JUMPDEST PUSH2 0x24E5 SWAP4 SWAP5 POP PUSH2 0x3D0A JUMP JUMPDEST DUP1 DUP3 DUP1 DUP1 PUSH2 0x24AD JUMP JUMPDEST DUP3 DUP6 LT PUSH2 0x250E JUMPI PUSH2 0x2506 DUP4 PUSH2 0x24E5 SWAP6 SWAP7 SUB CALLER DUP4 PUSH2 0x30A5 JUMP JUMPDEST DUP5 SWAP4 POP PUSH2 0x24DA JUMP JUMPDEST PUSH1 0x40 MLOAD PUSH3 0x461BCD PUSH1 0xE5 SHL DUP2 MSTORE PUSH1 0x4 DUP2 ADD DUP6 SWAP1 MSTORE PUSH1 0x1D PUSH1 0x24 DUP3 ADD MSTORE PUSH32 0x45524332303A20696E73756666696369656E7420616C6C6F77616E6365000000 PUSH1 0x44 DUP3 ADD MSTORE PUSH1 0x64 SWAP1 REVERT JUMPDEST PUSH2 0x2561 PUSH2 0x256B SWAP4 DUP7 ADDRESS PUSH2 0x3D0A JUMP JUMPDEST MLOAD SWAP1 SUB CALLER DUP8 PUSH2 0x30A5 JUMP JUMPDEST DUP6 DUP1 DUP1 PUSH2 0x24A2 JUMP JUMPDEST PUSH1 0x40 MLOAD PUSH3 0x461BCD PUSH1 0xE5 SHL DUP2 MSTORE PUSH1 0x4 DUP2 ADD DUP7 SWAP1 MSTORE PUSH1 0x38 PUSH1 0x24 DUP3 ADD MSTORE PUSH32 0x54686520617070726F76656420616C6C6F77616E6365206973206C6F77657220 PUSH1 0x44 DUP3 ADD MSTORE PUSH24 0x1D1A185B881D1A19481D1C985B9CD9995C88185B5BDD5B9D PUSH1 0x42 SHL PUSH1 0x64 DUP3 ADD MSTORE PUSH1 0x84 SWAP1 REVERT JUMPDEST POP DUP4 DUP2 AND ISZERO ISZERO PUSH2 0x2438 JUMP JUMPDEST CALLVALUE PUSH2 0x397 JUMPI PUSH2 0x25F2 CALLDATASIZE PUSH2 0x2EC0 JUMP JUMPDEST SWAP1 SWAP3 SWAP2 SWAP3 PUSH32 0x0 DUP5 GT PUSH2 0x27CD JUMPI PUSH1 0x1 DUP4 LT PUSH2 0x279A JUMPI PUSH2 0x2710 DUP1 DUP3 GT PUSH2 0x2764 JUMPI PUSH1 0x1 DUP5 GT ISZERO PUSH2 0x2712 JUMPI POP DUP2 ISZERO PUSH2 0x26E0 JUMPI JUMPDEST PUSH1 0x40 MLOAD SWAP3 PUSH2 0x264D DUP5 PUSH2 0x2F13 JUMP JUMPDEST DUP4 MSTORE PUSH1 0x20 DUP4 ADD SWAP4 DUP5 MSTORE PUSH1 0x40 DUP4 ADD SWAP1 DUP2 MSTORE PUSH1 0x60 DUP4 ADD SWAP2 DUP3 MSTORE PUSH1 0xC SLOAD PUSH1 0x1 PUSH1 0x40 SHL DUP2 LT ISZERO PUSH2 0xD7B JUMPI DUP1 PUSH1 0x1 PUSH2 0x2683 SWAP3 ADD PUSH1 0xC SSTORE PUSH2 0x2F87 JUMP JUMPDEST SWAP5 SWAP1 SWAP5 PUSH2 0xDF1 JUMPI PUSH1 0x3 SWAP4 MLOAD DUP6 SSTORE MLOAD PUSH1 0x1 DUP6 ADD SSTORE MLOAD PUSH1 0x2 DUP5 ADD SSTORE MLOAD SWAP2 ADD SSTORE PUSH1 0xC SLOAD PUSH1 0x0 NOT DUP2 ADD SWAP1 DUP2 GT PUSH2 0xD91 JUMPI PUSH1 0x40 MLOAD PUSH1 0x20 SWAP2 DUP1 CALLER PUSH32 0x9C52CB9BBB9B7FA6DDB26D1E82AFC4E62C9EC50C0F3488C10BB8AD22D4EDC4C3 PUSH1 0x0 DUP1 LOG3 DUP2 MSTORE RETURN JUMPDEST PUSH1 0x40 MLOAD PUSH3 0x461BCD PUSH1 0xE5 SHL DUP2 MSTORE PUSH1 0x20 PUSH1 0x4 DUP3 ADD MSTORE PUSH1 0xA PUSH1 0x24 DUP3 ADD MSTORE PUSH10 0x706572696F64203D203 PUSH1 0xB4 SHL PUSH1 0x44 DUP3 ADD MSTORE PUSH1 0x64 SWAP1 REVERT JUMPDEST PUSH1 0x1 DUP5 EQ PUSH2 0x2721 JUMPI JUMPDEST POP PUSH2 0x2640 JUMP JUMPDEST DUP2 SUB PUSH2 0x272D JUMPI DUP5 PUSH2 0x271B JUMP JUMPDEST PUSH1 0x40 MLOAD PUSH3 0x461BCD PUSH1 0xE5 SHL DUP2 MSTORE PUSH1 0x20 PUSH1 0x4 DUP3 ADD MSTORE PUSH1 0xF PUSH1 0x24 DUP3 ADD MSTORE PUSH15 0x72656C6561736564203C2031303025 PUSH1 0x88 SHL PUSH1 0x44 DUP3 ADD MSTORE PUSH1 0x64 SWAP1 REVERT JUMPDEST PUSH1 0x40 MLOAD PUSH3 0x461BCD PUSH1 0xE5 SHL DUP2 MSTORE PUSH1 0x20 PUSH1 0x4 DUP3 ADD MSTORE PUSH1 0xE PUSH1 0x24 DUP3 ADD MSTORE PUSH14 0x72656C65617365203E2031303025 PUSH1 0x90 SHL PUSH1 0x44 DUP3 ADD MSTORE PUSH1 0x64 SWAP1 REVERT JUMPDEST PUSH1 0x40 MLOAD PUSH3 0x461BCD PUSH1 0xE5 SHL DUP2 MSTORE PUSH1 0x20 PUSH1 0x4 DUP3 ADD MSTORE PUSH1 0xB PUSH1 0x24 DUP3 ADD MSTORE PUSH11 0x3C20312072656C65617365 PUSH1 0xA8 SHL PUSH1 0x44 DUP3 ADD MSTORE PUSH1 0x64 SWAP1 REVERT JUMPDEST PUSH1 0x40 MLOAD PUSH3 0x461BCD PUSH1 0xE5 SHL DUP2 MSTORE PUSH1 0x20 PUSH1 0x4 DUP3 ADD MSTORE PUSH1 0x13 PUSH1 0x24 DUP3 ADD MSTORE PUSH19 0xCCD2E4E6E840E4CAD8CAC2E6CA407C40DAC2F PUSH1 0x6B SHL PUSH1 0x44 DUP3 ADD MSTORE PUSH1 0x64 SWAP1 REVERT JUMPDEST CALLVALUE PUSH2 0x397 JUMPI PUSH1 0x40 CALLDATASIZE PUSH1 0x3 NOT ADD SLT PUSH2 0x397 JUMPI PUSH2 0x2821 PUSH2 0x2E84 JUMP JUMPDEST PUSH1 0x24 CALLDATALOAD PUSH1 0x0 MSTORE PUSH1 0x17 PUSH1 0x20 MSTORE PUSH1 0x40 PUSH1 0x0 KECCAK256 SWAP1 PUSH1 0x1 DUP1 PUSH1 0xA0 SHL SUB AND PUSH1 0x0 MSTORE PUSH1 0x20 MSTORE PUSH1 0x20 PUSH1 0x40 PUSH1 0x0 KECCAK256 SLOAD PUSH1 0x40 MLOAD SWAP1 DUP2 MSTORE RETURN JUMPDEST CALLVALUE PUSH2 0x397 JUMPI PUSH1 0x0 CALLDATASIZE PUSH1 0x3 NOT ADD SLT PUSH2 0x397 JUMPI PUSH1 0x20 PUSH1 0x2 SLOAD PUSH1 0x40 MLOAD SWAP1 DUP2 MSTORE RETURN JUMPDEST CALLVALUE PUSH2 0x397 JUMPI PUSH1 0x0 CALLDATASIZE PUSH1 0x3 NOT ADD SLT PUSH2 0x397 JUMPI PUSH1 0x20 PUSH1 0x40 MLOAD PUSH32 0x0 DUP2 MSTORE RETURN JUMPDEST CALLVALUE PUSH2 0x397 JUMPI PUSH1 0xC0 CALLDATASIZE PUSH1 0x3 NOT ADD SLT PUSH2 0x397 JUMPI PUSH2 0x28C2 PUSH2 0x2E84 JUMP JUMPDEST PUSH1 0x24 SWAP1 PUSH1 0x1 PUSH1 0x1 PUSH1 0xA0 SHL SUB PUSH1 0xA4 CALLDATALOAD DUP2 DUP2 AND SWAP3 SWAP2 DUP5 CALLDATALOAD SWAP1 DUP5 DUP4 SUB PUSH2 0x397 JUMPI DUP4 AND DUP1 PUSH1 0x0 MSTORE PUSH1 0x20 SWAP5 PUSH1 0xD DUP7 MSTORE DUP3 PUSH1 0x40 PUSH1 0x0 KECCAK256 SLOAD GT ISZERO PUSH2 0x2B95 JUMPI DUP1 ISZERO PUSH2 0x2B58 JUMPI DUP2 PUSH1 0x0 MSTORE PUSH1 0xD DUP7 MSTORE PUSH2 0x2915 DUP4 PUSH1 0x40 PUSH1 0x0 KECCAK256 PUSH2 0x307C JUMP JUMPDEST POP SWAP5 PUSH2 0x2920 DUP7 PUSH2 0x3B0B JUMP JUMPDEST ISZERO PUSH2 0x2B00 JUMPI PUSH1 0x44 CALLDATALOAD DUP7 SLOAD SUB PUSH2 0x2AB1 JUMPI PUSH1 0x64 CALLDATALOAD PUSH1 0x1 DUP8 ADD SLOAD SUB PUSH2 0x2A57 JUMPI PUSH1 0x3 DUP7 ADD SWAP5 PUSH1 0x84 CALLDATALOAD DUP7 SLOAD SUB PUSH2 0x2A07 JUMPI PUSH2 0x2955 DUP6 DUP4 PUSH2 0x3BAC JUMP JUMPDEST SWAP2 DUP3 ISZERO PUSH2 0x29C6 JUMPI PUSH1 0x2 SWAP8 SWAP9 SWAP10 POP DUP3 SWAP2 DUP2 PUSH2 0x297E PUSH2 0x2975 DUP10 PUSH2 0x2984 SWAP6 PUSH2 0x3BE6 JUMP JUMPDEST SWAP6 DUP7 SWAP4 ADDRESS PUSH2 0x3542 JUMP JUMPDEST ADDRESS PUSH2 0x3542 JUMP JUMPDEST PUSH1 0x40 MLOAD SWAP3 DUP4 MSTORE DUP9 DUP4 ADD MSTORE PUSH1 0x40 DUP3 ADD MSTORE PUSH32 0x6945F4788D8A6B16089D616D1F7BB52372BFDBC43ADDD3386A7842DB4199986A PUSH1 0x60 CALLER SWAP3 LOG4 SLOAD SWAP2 ADD SSTORE PUSH1 0x40 MLOAD PUSH1 0x1 DUP2 MSTORE RETURN JUMPDEST PUSH1 0x40 MLOAD PUSH3 0x461BCD PUSH1 0xE5 SHL DUP2 MSTORE PUSH1 0x4 DUP2 ADD DUP11 SWAP1 MSTORE PUSH1 0x1A DUP2 DUP13 ADD MSTORE PUSH26 0x151A5B595B1BD8DAC81A185CC81B9BC81D985B1D59481B19599D PUSH1 0x32 SHL PUSH1 0x44 DUP3 ADD MSTORE PUSH1 0x64 SWAP1 REVERT JUMPDEST PUSH1 0x40 MLOAD PUSH3 0x461BCD PUSH1 0xE5 SHL DUP2 MSTORE PUSH1 0x4 DUP2 ADD DUP10 SWAP1 MSTORE PUSH1 0x23 DUP2 DUP12 ADD MSTORE PUSH32 0x457870656374656420746F74616C416D6F756E7420646F6573206E6F74206D61 PUSH1 0x44 DUP3 ADD MSTORE PUSH3 0xE8C6D PUSH1 0xEB SHL PUSH1 0x64 DUP3 ADD MSTORE PUSH1 0x84 SWAP1 REVERT JUMPDEST PUSH1 0x40 MLOAD PUSH3 0x461BCD PUSH1 0xE5 SHL DUP2 MSTORE PUSH1 0x4 DUP2 ADD DUP9 SWAP1 MSTORE PUSH1 0x2D DUP2 DUP11 ADD MSTORE PUSH32 0x457870656374656420636F6D6D656E63656D656E7454696D657374616D702064 PUSH1 0x44 DUP3 ADD MSTORE PUSH13 0xDECAE640DCDEE840DAC2E8C6D PUSH1 0x9B SHL PUSH1 0x64 DUP3 ADD MSTORE PUSH1 0x84 SWAP1 REVERT JUMPDEST PUSH1 0x40 MLOAD PUSH3 0x461BCD PUSH1 0xE5 SHL DUP2 MSTORE PUSH1 0x4 DUP2 ADD DUP9 SWAP1 MSTORE PUSH1 0x22 DUP2 DUP11 ADD MSTORE PUSH32 0x4578706563746564207363686564756C65496420646F6573206E6F74206D6174 PUSH1 0x44 DUP3 ADD MSTORE PUSH2 0xC6D PUSH1 0xF3 SHL PUSH1 0x64 DUP3 ADD MSTORE PUSH1 0x84 SWAP1 REVERT JUMPDEST PUSH1 0x40 MLOAD PUSH3 0x461BCD PUSH1 0xE5 SHL DUP2 MSTORE PUSH1 0x4 DUP2 ADD DUP9 SWAP1 MSTORE PUSH1 0x2B DUP2 DUP11 ADD MSTORE PUSH32 0x596F7520617265206E6F7420616C6C6F77656420746F2063616E63656C207468 PUSH1 0x44 DUP3 ADD MSTORE PUSH11 0x69732074696D656C6F636B PUSH1 0xA8 SHL PUSH1 0x64 DUP3 ADD MSTORE PUSH1 0x84 SWAP1 REVERT JUMPDEST PUSH1 0x40 MLOAD PUSH3 0x461BCD PUSH1 0xE5 SHL DUP2 MSTORE PUSH1 0x4 DUP2 ADD DUP8 SWAP1 MSTORE PUSH1 0x16 DUP2 DUP10 ADD MSTORE PUSH22 0x496E76616C6964207265636C61696D546F6B656E546F PUSH1 0x50 SHL PUSH1 0x44 DUP3 ADD MSTORE PUSH1 0x64 SWAP1 REVERT JUMPDEST PUSH1 0x40 MLOAD PUSH3 0x461BCD PUSH1 0xE5 SHL DUP2 MSTORE PUSH1 0x4 DUP2 ADD DUP8 SWAP1 MSTORE PUSH1 0x10 DUP2 DUP10 ADD MSTORE PUSH16 0x696E76616C69642074696D656C6F636B PUSH1 0x80 SHL PUSH1 0x44 DUP3 ADD MSTORE PUSH1 0x64 SWAP1 REVERT JUMPDEST CALLVALUE PUSH2 0x397 JUMPI PUSH1 0x40 CALLDATASIZE PUSH1 0x3 NOT ADD SLT PUSH2 0x397 JUMPI PUSH1 0x20 PUSH2 0x483 PUSH2 0x2BEA PUSH2 0x2E84 JUMP JUMPDEST PUSH1 0x24 CALLDATALOAD SWAP1 PUSH2 0x3C4F JUMP JUMPDEST CALLVALUE PUSH2 0x397 JUMPI PUSH1 0x40 CALLDATASIZE PUSH1 0x3 NOT ADD SLT PUSH2 0x397 JUMPI PUSH2 0x104F PUSH2 0x2C0F PUSH2 0x2E84 JUMP JUMPDEST PUSH1 0x24 CALLDATALOAD SWAP1 CALLER PUSH2 0x30A5 JUMP JUMPDEST CALLVALUE PUSH2 0x397 JUMPI PUSH1 0x40 CALLDATASIZE PUSH1 0x3 NOT ADD SLT PUSH2 0x397 JUMPI PUSH2 0x2C32 PUSH2 0x2E84 JUMP JUMPDEST PUSH2 0x2C3A PUSH2 0x2EB0 JUMP JUMPDEST SWAP1 PUSH1 0xFF DUP1 DUP4 AND SWAP1 DUP2 ISZERO ISZERO DUP1 PUSH2 0x2D87 JUMPI JUMPDEST PUSH2 0x2C53 SWAP1 PUSH2 0x3901 JUMP JUMPDEST PUSH1 0x1 PUSH1 0x1 PUSH1 0xA0 SHL SUB DUP4 AND SWAP3 PUSH2 0x2C80 SWAP1 DUP6 SWAP1 PUSH2 0x2C6F DUP7 ISZERO ISZERO PUSH2 0x3948 JUMP JUMPDEST PUSH2 0x2C7B PUSH2 0x1376 CALLER PUSH2 0x398C JUMP JUMPDEST PUSH2 0x39B6 JUMP JUMPDEST ISZERO PUSH2 0x2D4C JUMPI PUSH1 0x1 DUP5 AND PUSH2 0x2CCA JUMPI JUMPDEST PUSH1 0x0 SWAP4 DUP4 DUP6 MSTORE PUSH1 0x9 PUSH1 0x20 MSTORE PUSH1 0x40 DUP6 KECCAK256 SWAP2 DUP3 SLOAD SWAP2 DUP2 DUP4 AND XOR AND SWAP1 PUSH1 0xFF NOT AND OR SWAP1 SSTORE PUSH1 0x40 MLOAD SWAP1 DUP2 MSTORE PUSH1 0x0 DUP1 MLOAD PUSH1 0x20 PUSH2 0x4710 DUP4 CODECOPY DUP2 MLOAD SWAP2 MSTORE PUSH1 0x20 CALLER SWAP3 LOG4 STOP JUMPDEST PUSH1 0xA SLOAD SWAP4 DUP2 DUP6 AND SWAP5 PUSH1 0x1 DUP7 GT ISZERO PUSH2 0x2CF9 JUMPI DUP6 ISZERO PUSH2 0xD91 JUMPI PUSH1 0xFF NOT AND PUSH1 0x0 NOT SWAP1 SWAP6 ADD DUP3 AND SWAP5 SWAP1 SWAP5 OR PUSH1 0xA SSTORE PUSH2 0x2C8E JUMP JUMPDEST PUSH1 0x40 MLOAD PUSH3 0x461BCD PUSH1 0xE5 SHL DUP2 MSTORE PUSH1 0x20 PUSH1 0x4 DUP3 ADD MSTORE PUSH1 0x25 PUSH1 0x24 DUP3 ADD MSTORE PUSH32 0x4D7573742068617665206174206C65617374206F6E6520636F6E747261637420 PUSH1 0x44 DUP3 ADD MSTORE PUSH5 0x30B236B4B7 PUSH1 0xD9 SHL PUSH1 0x64 DUP3 ADD MSTORE PUSH1 0x84 SWAP1 REVERT JUMPDEST PUSH1 0x40 MLOAD PUSH3 0x461BCD PUSH1 0xE5 SHL DUP2 MSTORE PUSH1 0x20 PUSH1 0x4 DUP3 ADD MSTORE PUSH1 0x13 PUSH1 0x24 DUP3 ADD MSTORE PUSH19 0x43414E204E4F54205245564F4B4520524F4C45 PUSH1 0x68 SHL PUSH1 0x44 DUP3 ADD MSTORE PUSH1 0x64 SWAP1 REVERT JUMPDEST POP PUSH1 0xF DUP5 DUP2 OR DUP3 AND EQ PUSH2 0x2C4A JUMP JUMPDEST CALLVALUE PUSH2 0x397 JUMPI PUSH1 0x0 CALLDATASIZE PUSH1 0x3 NOT ADD SLT PUSH2 0x397 JUMPI PUSH1 0x0 SWAP1 PUSH1 0x3 SLOAD PUSH1 0x1 DUP2 DUP2 SHR SWAP1 DUP1 DUP4 AND SWAP3 DUP4 ISZERO PUSH2 0x2E2B JUMPI JUMPDEST PUSH1 0x20 SWAP4 DUP5 DUP5 LT DUP2 EQ PUSH2 0x149A JUMPI DUP4 DUP7 MSTORE SWAP1 DUP2 ISZERO PUSH2 0x147A JUMPI POP PUSH1 0x1 EQ PUSH2 0x2DEB JUMPI PUSH2 0x5E2 DUP5 PUSH2 0x142E DUP2 DUP9 SUB DUP3 PUSH2 0x2F64 JUMP JUMPDEST SWAP2 SWAP4 POP PUSH1 0x3 PUSH1 0x0 MSTORE DUP4 PUSH1 0x0 KECCAK256 SWAP2 PUSH1 0x0 SWAP3 JUMPDEST DUP3 DUP5 LT PUSH2 0x2E18 JUMPI POP POP POP DUP2 PUSH2 0x5E2 SWAP4 PUSH2 0x142E SWAP3 DUP3 ADD ADD SWAP4 PUSH2 0x141E JUMP JUMPDEST DUP1 SLOAD DUP6 DUP6 ADD DUP8 ADD MSTORE SWAP3 DUP6 ADD SWAP3 DUP2 ADD PUSH2 0x2DFC JUMP JUMPDEST SWAP2 PUSH1 0x7F AND SWAP2 PUSH2 0x2DBD JUMP JUMPDEST PUSH1 0x0 JUMPDEST DUP4 DUP2 LT PUSH2 0x2E48 JUMPI POP POP PUSH1 0x0 SWAP2 ADD MSTORE JUMP JUMPDEST DUP2 DUP2 ADD MLOAD DUP4 DUP3 ADD MSTORE PUSH1 0x20 ADD PUSH2 0x2E38 JUMP JUMPDEST PUSH1 0x40 SWAP2 PUSH1 0x20 DUP3 MSTORE PUSH2 0x2E78 DUP2 MLOAD DUP1 SWAP3 DUP2 PUSH1 0x20 DUP7 ADD MSTORE PUSH1 0x20 DUP7 DUP7 ADD SWAP2 ADD PUSH2 0x2E35 JUMP JUMPDEST PUSH1 0x1F ADD PUSH1 0x1F NOT AND ADD ADD SWAP1 JUMP JUMPDEST PUSH1 0x4 CALLDATALOAD SWAP1 PUSH1 0x1 PUSH1 0x1 PUSH1 0xA0 SHL SUB DUP3 AND DUP3 SUB PUSH2 0x397 JUMPI JUMP JUMPDEST PUSH1 0x24 CALLDATALOAD SWAP1 PUSH1 0x1 PUSH1 0x1 PUSH1 0xA0 SHL SUB DUP3 AND DUP3 SUB PUSH2 0x397 JUMPI JUMP JUMPDEST PUSH1 0x24 CALLDATALOAD SWAP1 PUSH1 0xFF DUP3 AND DUP3 SUB PUSH2 0x397 JUMPI JUMP JUMPDEST PUSH1 0x80 SWAP1 PUSH1 0x3 NOT ADD SLT PUSH2 0x397 JUMPI PUSH1 0x4 CALLDATALOAD SWAP1 PUSH1 0x24 CALLDATALOAD SWAP1 PUSH1 0x44 CALLDATALOAD SWAP1 PUSH1 0x64 CALLDATALOAD SWAP1 JUMP JUMPDEST PUSH1 0x60 SWAP1 PUSH1 0x3 NOT ADD SLT PUSH2 0x397 JUMPI PUSH1 0x1 PUSH1 0x1 PUSH1 0xA0 SHL SUB SWAP1 PUSH1 0x4 CALLDATALOAD DUP3 DUP2 AND DUP2 SUB PUSH2 0x397 JUMPI SWAP2 PUSH1 0x24 CALLDATALOAD SWAP1 DUP2 AND DUP2 SUB PUSH2 0x397 JUMPI SWAP1 PUSH1 0x44 CALLDATALOAD SWAP1 JUMP JUMPDEST PUSH1 0x80 DUP2 ADD SWAP1 DUP2 LT PUSH1 0x1 PUSH1 0x1 PUSH1 0x40 SHL SUB DUP3 GT OR PUSH2 0xD7B JUMPI PUSH1 0x40 MSTORE JUMP JUMPDEST PUSH1 0xA0 DUP2 ADD SWAP1 DUP2 LT PUSH1 0x1 PUSH1 0x1 PUSH1 0x40 SHL SUB DUP3 GT OR PUSH2 0xD7B JUMPI PUSH1 0x40 MSTORE JUMP JUMPDEST PUSH1 0x40 DUP2 ADD SWAP1 DUP2 LT PUSH1 0x1 PUSH1 0x1 PUSH1 0x40 SHL SUB DUP3 GT OR PUSH2 0xD7B JUMPI PUSH1 0x40 MSTORE JUMP JUMPDEST PUSH1 0x1F SWAP1 SWAP2 ADD PUSH1 0x1F NOT AND DUP2 ADD SWAP1 PUSH1 0x1 PUSH1 0x1 PUSH1 0x40 SHL SUB DUP3 GT SWAP1 DUP3 LT OR PUSH2 0xD7B JUMPI PUSH1 0x40 MSTORE JUMP JUMPDEST PUSH1 0xC SLOAD DUP2 LT ISZERO PUSH2 0x2FA6 JUMPI PUSH1 0xC PUSH1 0x0 MSTORE PUSH1 0x20 PUSH1 0x0 KECCAK256 SWAP1 PUSH1 0x2 SHL ADD SWAP1 PUSH1 0x0 SWAP1 JUMP JUMPDEST PUSH4 0x4E487B71 PUSH1 0xE0 SHL PUSH1 0x0 MSTORE PUSH1 0x32 PUSH1 0x4 MSTORE PUSH1 0x24 PUSH1 0x0 REVERT JUMPDEST SWAP1 SWAP3 SWAP2 PUSH1 0x1 PUSH1 0x1 PUSH1 0x40 SHL SUB DUP5 GT PUSH2 0xD7B JUMPI DUP4 PUSH1 0x5 SHL PUSH1 0x40 MLOAD SWAP3 PUSH1 0x20 DUP1 SWAP5 PUSH2 0x2FE5 DUP3 DUP6 ADD DUP3 PUSH2 0x2F64 JUMP JUMPDEST DUP1 SWAP8 DUP2 MSTORE ADD SWAP2 DUP2 ADD SWAP3 DUP4 GT PUSH2 0x397 JUMPI SWAP1 JUMPDEST DUP3 DUP3 LT PUSH2 0x3003 JUMPI POP POP POP POP JUMP JUMPDEST DUP2 CALLDATALOAD PUSH1 0x1 PUSH1 0x1 PUSH1 0xA0 SHL SUB DUP2 AND DUP2 SUB PUSH2 0x397 JUMPI DUP2 MSTORE SWAP1 DUP4 ADD SWAP1 DUP4 ADD PUSH2 0x2FF6 JUMP JUMPDEST PUSH1 0x60 SWAP1 PUSH1 0x3 NOT ADD SLT PUSH2 0x397 JUMPI PUSH1 0x4 CALLDATALOAD PUSH1 0x1 PUSH1 0x1 PUSH1 0xA0 SHL SUB DUP2 AND DUP2 SUB PUSH2 0x397 JUMPI SWAP1 PUSH1 0x24 CALLDATALOAD SWAP1 PUSH1 0x44 CALLDATALOAD SWAP1 JUMP JUMPDEST SWAP2 DUP2 PUSH1 0x1F DUP5 ADD SLT ISZERO PUSH2 0x397 JUMPI DUP3 CALLDATALOAD SWAP2 PUSH1 0x1 PUSH1 0x1 PUSH1 0x40 SHL SUB DUP4 GT PUSH2 0x397 JUMPI PUSH1 0x20 DUP1 DUP6 ADD SWAP5 DUP5 PUSH1 0x5 SHL ADD ADD GT PUSH2 0x397 JUMPI JUMP JUMPDEST DUP1 SLOAD DUP3 LT ISZERO PUSH2 0x2FA6 JUMPI PUSH1 0x0 MSTORE PUSH1 0x5 PUSH1 0x20 PUSH1 0x0 KECCAK256 SWAP2 MUL ADD SWAP1 PUSH1 0x0 SWAP1 JUMP JUMPDEST SWAP2 SWAP1 DUP3 ADD DUP1 SWAP3 GT PUSH2 0xD91 JUMPI JUMP JUMPDEST PUSH1 0x1 PUSH1 0x1 PUSH1 0xA0 SHL SUB SWAP1 DUP2 AND SWAP2 DUP3 ISZERO PUSH2 0x3156 JUMPI AND SWAP2 DUP3 ISZERO PUSH2 0x3106 JUMPI PUSH1 0x20 PUSH32 0x8C5BE1E5EBEC7D5BD14F71427D1E84F3DD0314C0F7B2291E5B200AC8C7C3B925 SWAP2 DUP4 PUSH1 0x0 MSTORE PUSH1 0x1 DUP3 MSTORE PUSH1 0x40 PUSH1 0x0 KECCAK256 DUP6 PUSH1 0x0 MSTORE DUP3 MSTORE DUP1 PUSH1 0x40 PUSH1 0x0 KECCAK256 SSTORE PUSH1 0x40 MLOAD SWAP1 DUP2 MSTORE LOG3 JUMP JUMPDEST PUSH1 0x40 MLOAD PUSH3 0x461BCD PUSH1 0xE5 SHL DUP2 MSTORE PUSH1 0x20 PUSH1 0x4 DUP3 ADD MSTORE PUSH1 0x22 PUSH1 0x24 DUP3 ADD MSTORE PUSH32 0x45524332303A20617070726F766520746F20746865207A65726F206164647265 PUSH1 0x44 DUP3 ADD MSTORE PUSH2 0x7373 PUSH1 0xF0 SHL PUSH1 0x64 DUP3 ADD MSTORE PUSH1 0x84 SWAP1 REVERT JUMPDEST PUSH1 0x40 MLOAD PUSH3 0x461BCD PUSH1 0xE5 SHL DUP2 MSTORE PUSH1 0x20 PUSH1 0x4 DUP3 ADD MSTORE PUSH1 0x24 DUP1 DUP3 ADD MSTORE PUSH32 0x45524332303A20617070726F76652066726F6D20746865207A65726F20616464 PUSH1 0x44 DUP3 ADD MSTORE PUSH4 0x72657373 PUSH1 0xE0 SHL PUSH1 0x64 DUP3 ADD MSTORE PUSH1 0x84 SWAP1 REVERT JUMPDEST PUSH1 0x7 SLOAD DUP2 LT ISZERO PUSH2 0x2FA6 JUMPI PUSH1 0x7 PUSH1 0x0 MSTORE PUSH1 0x20 PUSH1 0x0 KECCAK256 ADD SWAP1 PUSH1 0x0 SWAP1 JUMP JUMPDEST PUSH1 0x6 SLOAD DUP2 LT ISZERO PUSH2 0x2FA6 JUMPI PUSH1 0x6 PUSH1 0x0 MSTORE PUSH1 0x20 PUSH1 0x0 KECCAK256 ADD SWAP1 PUSH1 0x0 SWAP1 JUMP JUMPDEST DUP1 SLOAD DUP3 LT ISZERO PUSH2 0x2FA6 JUMPI PUSH1 0x0 MSTORE PUSH1 0x20 PUSH1 0x0 KECCAK256 ADD SWAP1 PUSH1 0x0 SWAP1 JUMP JUMPDEST DUP1 ISZERO PUSH2 0x327B JUMPI PUSH1 0x8 SLOAD DUP2 GT PUSH2 0x3236 JUMPI PUSH2 0x320D SWAP1 PUSH2 0x32FD JUMP JUMPDEST PUSH1 0x6 SLOAD DUP2 SUB PUSH2 0x321F JUMPI POP PUSH1 0x0 SWAP1 PUSH1 0x0 SWAP1 JUMP JUMPDEST PUSH2 0x3228 SWAP1 PUSH2 0x31A7 JUMP JUMPDEST SWAP1 SLOAD SWAP1 PUSH1 0x3 SHL SHR SWAP1 PUSH1 0x1 SWAP2 SWAP1 JUMP JUMPDEST PUSH1 0x40 MLOAD PUSH3 0x461BCD PUSH1 0xE5 SHL DUP2 MSTORE PUSH1 0x20 PUSH1 0x4 DUP3 ADD MSTORE PUSH1 0x1D PUSH1 0x24 DUP3 ADD MSTORE PUSH32 0x4552433230536E617073686F743A206E6F6E6578697374656E74206964000000 PUSH1 0x44 DUP3 ADD MSTORE PUSH1 0x64 SWAP1 REVERT JUMPDEST PUSH1 0x40 MLOAD PUSH3 0x461BCD PUSH1 0xE5 SHL DUP2 MSTORE PUSH1 0x20 PUSH1 0x4 DUP3 ADD MSTORE PUSH1 0x16 PUSH1 0x24 DUP3 ADD MSTORE PUSH22 0x4552433230536E617073686F743A206964206973203 PUSH1 0x54 SHL PUSH1 0x44 DUP3 ADD MSTORE PUSH1 0x64 SWAP1 REVERT JUMPDEST DUP1 ISZERO PUSH2 0x327B JUMPI PUSH1 0x8 SLOAD DUP2 GT PUSH2 0x3236 JUMPI PUSH2 0x32D2 SWAP1 DUP3 PUSH2 0x33A5 JUMP JUMPDEST DUP2 SLOAD DUP2 SUB PUSH2 0x32E4 JUMPI POP POP PUSH1 0x0 SWAP1 PUSH1 0x0 SWAP1 JUMP JUMPDEST PUSH1 0x1 PUSH2 0x3228 SWAP3 ADD PUSH2 0x31DD JUMP JUMPDEST SWAP2 SWAP1 DUP3 SUB SWAP2 DUP3 GT PUSH2 0xD91 JUMPI JUMP JUMPDEST PUSH1 0x6 DUP1 SLOAD SWAP2 DUP3 ISZERO PUSH2 0x339D JUMPI PUSH1 0x0 SWAP3 JUMPDEST DUP1 DUP5 LT PUSH2 0x335B JUMPI POP DUP3 ISZERO ISZERO SWAP2 DUP3 PUSH2 0x3337 JUMPI JUMPDEST POP POP ISZERO PUSH2 0x3334 JUMPI PUSH1 0x0 NOT DUP2 ADD SWAP1 DUP2 GT PUSH2 0xD91 JUMPI SWAP1 JUMP JUMPDEST SWAP1 JUMP JUMPDEST SWAP1 SWAP2 POP PUSH1 0x0 NOT SWAP1 DUP4 DUP3 DUP2 ADD GT PUSH2 0xD91 JUMPI PUSH1 0x0 MSTORE DUP3 PUSH1 0x20 PUSH1 0x0 KECCAK256 ADD ADD SLOAD EQ CODESIZE DUP1 PUSH2 0x331E JUMP JUMPDEST PUSH1 0x1 SWAP1 PUSH2 0x336E DUP2 DUP7 XOR DUP4 SHR DUP3 DUP8 AND PUSH2 0x3098 JUMP JUMPDEST SWAP2 DUP5 PUSH1 0x0 MSTORE DUP4 DUP4 PUSH1 0x20 PUSH1 0x0 KECCAK256 ADD SLOAD GT PUSH1 0x0 EQ PUSH2 0x338B JUMPI POP POP PUSH2 0x330C JUMP JUMPDEST SWAP1 SWAP5 POP DUP2 ADD DUP1 SWAP2 GT PUSH2 0xD91 JUMPI SWAP3 PUSH2 0x330C JUMP JUMPDEST POP POP POP PUSH1 0x0 SWAP1 JUMP JUMPDEST DUP1 SLOAD SWAP2 DUP3 ISZERO PUSH2 0x339D JUMPI PUSH1 0x0 SWAP3 JUMPDEST DUP1 DUP5 LT PUSH2 0x33D9 JUMPI POP DUP3 ISZERO ISZERO SWAP2 DUP3 PUSH2 0x3337 JUMPI POP POP ISZERO PUSH2 0x3334 JUMPI PUSH1 0x0 NOT DUP2 ADD SWAP1 DUP2 GT PUSH2 0xD91 JUMPI SWAP1 JUMP JUMPDEST PUSH1 0x1 SWAP1 PUSH2 0x33EC DUP2 DUP7 XOR DUP4 SHR DUP3 DUP8 AND PUSH2 0x3098 JUMP JUMPDEST SWAP2 DUP5 PUSH1 0x0 MSTORE DUP4 DUP4 PUSH1 0x20 PUSH1 0x0 KECCAK256 ADD SLOAD GT PUSH1 0x0 EQ PUSH2 0x3409 JUMPI POP POP PUSH2 0x33B2 JUMP JUMPDEST SWAP1 SWAP5 POP DUP2 ADD DUP1 SWAP2 GT PUSH2 0xD91 JUMPI SWAP3 PUSH2 0x33B2 JUMP JUMPDEST DUP2 ISZERO PUSH2 0x3425 JUMPI DIV SWAP1 JUMP JUMPDEST PUSH4 0x4E487B71 PUSH1 0xE0 SHL PUSH1 0x0 MSTORE PUSH1 0x12 PUSH1 0x4 MSTORE PUSH1 0x24 PUSH1 0x0 REVERT JUMPDEST ISZERO PUSH2 0x3442 JUMPI JUMP JUMPDEST PUSH1 0x40 MLOAD PUSH3 0x461BCD PUSH1 0xE5 SHL DUP2 MSTORE PUSH1 0x20 PUSH1 0x4 DUP3 ADD MSTORE PUSH1 0x21 PUSH1 0x24 DUP3 ADD MSTORE PUSH32 0x444F4553204E4F54204841564520434F4E54524143542041444D494E20524F4C PUSH1 0x44 DUP3 ADD MSTORE PUSH1 0x45 PUSH1 0xF8 SHL PUSH1 0x64 DUP3 ADD MSTORE PUSH1 0x84 SWAP1 REVERT JUMPDEST ISZERO PUSH2 0x3498 JUMPI JUMP JUMPDEST PUSH1 0x40 MLOAD PUSH3 0x461BCD PUSH1 0xE5 SHL DUP2 MSTORE PUSH1 0x20 PUSH1 0x4 DUP3 ADD MSTORE PUSH1 0x11 PUSH1 0x24 DUP3 ADD MSTORE PUSH17 0x42414420544F4B454E2041444452455353 PUSH1 0x78 SHL PUSH1 0x44 DUP3 ADD MSTORE PUSH1 0x64 SWAP1 REVERT JUMPDEST PUSH1 0x2 PUSH1 0xB SLOAD EQ PUSH2 0x34E2 JUMPI PUSH1 0x2 PUSH1 0xB SSTORE JUMP JUMPDEST PUSH1 0x40 MLOAD PUSH3 0x461BCD PUSH1 0xE5 SHL DUP2 MSTORE PUSH1 0x20 PUSH1 0x4 DUP3 ADD MSTORE PUSH1 0x1F PUSH1 0x24 DUP3 ADD MSTORE PUSH32 0x5265656E7472616E637947756172643A207265656E7472616E742063616C6C00 PUSH1 0x44 DUP3 ADD MSTORE PUSH1 0x64 SWAP1 REVERT JUMPDEST PUSH1 0x1 PUSH1 0x1 PUSH1 0xA0 SHL SUB SWAP1 SWAP2 AND DUP2 MSTORE PUSH1 0x20 DUP2 ADD SWAP2 SWAP1 SWAP2 MSTORE PUSH1 0x40 ADD SWAP1 JUMP JUMPDEST PUSH2 0x3577 PUSH2 0x357C SWAP4 SWAP3 PUSH2 0x3569 PUSH1 0x40 MLOAD SWAP5 DUP6 SWAP3 PUSH4 0xA9059CBB PUSH1 0xE0 SHL PUSH1 0x20 DUP6 ADD MSTORE PUSH1 0x24 DUP5 ADD PUSH2 0x3527 JUMP JUMPDEST SUB PUSH1 0x1F NOT DUP2 ADD DUP5 MSTORE DUP4 PUSH2 0x2F64 JUMP JUMPDEST PUSH2 0x35B1 JUMP JUMPDEST JUMP JUMPDEST PUSH1 0x1 PUSH1 0x1 PUSH1 0x40 SHL SUB DUP2 GT PUSH2 0xD7B JUMPI PUSH1 0x1F ADD PUSH1 0x1F NOT AND PUSH1 0x20 ADD SWAP1 JUMP JUMPDEST SWAP1 DUP2 PUSH1 0x20 SWAP2 SUB SLT PUSH2 0x397 JUMPI MLOAD DUP1 ISZERO ISZERO DUP2 SUB PUSH2 0x397 JUMPI SWAP1 JUMP JUMPDEST PUSH1 0x40 MLOAD PUSH2 0x362E SWAP2 PUSH1 0x1 PUSH1 0x1 PUSH1 0xA0 SHL SUB AND PUSH2 0x35CA DUP3 PUSH2 0x2F49 JUMP JUMPDEST PUSH1 0x0 DUP1 PUSH1 0x20 SWAP6 DUP7 DUP6 MSTORE PUSH32 0x5361666545524332303A206C6F772D6C6576656C2063616C6C206661696C6564 DUP8 DUP7 ADD MSTORE DUP7 DUP2 MLOAD SWAP2 ADD DUP3 DUP6 GAS CALL RETURNDATASIZE ISZERO PUSH2 0x36B6 JUMPI RETURNDATASIZE SWAP2 PUSH2 0x3612 DUP4 PUSH2 0x357E JUMP JUMPDEST SWAP3 PUSH2 0x3620 PUSH1 0x40 MLOAD SWAP5 DUP6 PUSH2 0x2F64 JUMP JUMPDEST DUP4 MSTORE RETURNDATASIZE PUSH1 0x0 DUP8 DUP6 ADD RETURNDATACOPY PUSH2 0x36BA JUMP JUMPDEST DUP1 MLOAD SWAP1 DUP3 DUP3 ISZERO SWAP3 DUP4 ISZERO PUSH2 0x369E JUMPI JUMPDEST POP POP POP ISZERO PUSH2 0x3647 JUMPI POP JUMP JUMPDEST PUSH1 0x84 SWAP1 PUSH1 0x40 MLOAD SWAP1 PUSH3 0x461BCD PUSH1 0xE5 SHL DUP3 MSTORE PUSH1 0x4 DUP3 ADD MSTORE PUSH1 0x2A PUSH1 0x24 DUP3 ADD MSTORE PUSH32 0x5361666545524332303A204552433230206F7065726174696F6E20646964206E PUSH1 0x44 DUP3 ADD MSTORE PUSH10 0x1BDD081CDD58D8D95959 PUSH1 0xB2 SHL PUSH1 0x64 DUP3 ADD MSTORE REVERT JUMPDEST PUSH2 0x36AE SWAP4 POP DUP3 ADD DUP2 ADD SWAP2 ADD PUSH2 0x3599 JUMP JUMPDEST CODESIZE DUP3 DUP2 PUSH2 0x363C JUMP JUMPDEST PUSH1 0x60 SWAP2 JUMPDEST SWAP2 SWAP3 SWAP1 ISZERO PUSH2 0x371C JUMPI POP DUP2 MLOAD ISZERO PUSH2 0x36CE JUMPI POP SWAP1 JUMP JUMPDEST EXTCODESIZE ISZERO PUSH2 0x36D7 JUMPI SWAP1 JUMP JUMPDEST PUSH1 0x40 MLOAD PUSH3 0x461BCD PUSH1 0xE5 SHL DUP2 MSTORE PUSH1 0x20 PUSH1 0x4 DUP3 ADD MSTORE PUSH1 0x1D PUSH1 0x24 DUP3 ADD MSTORE PUSH32 0x416464726573733A2063616C6C20746F206E6F6E2D636F6E7472616374000000 PUSH1 0x44 DUP3 ADD MSTORE PUSH1 0x64 SWAP1 REVERT JUMPDEST DUP3 MLOAD SWAP1 SWAP2 POP ISZERO PUSH2 0x372F JUMPI POP DUP1 MLOAD SWAP1 PUSH1 0x20 ADD REVERT JUMPDEST PUSH1 0x40 MLOAD PUSH3 0x461BCD PUSH1 0xE5 SHL DUP2 MSTORE SWAP1 DUP2 SWAP1 PUSH2 0x374B SWAP1 PUSH1 0x4 DUP4 ADD PUSH2 0x2E58 JUMP JUMPDEST SUB SWAP1 REVERT JUMPDEST SWAP1 PUSH1 0x0 MSTORE PUSH1 0x17 PUSH1 0x20 MSTORE PUSH1 0x40 PUSH1 0x0 KECCAK256 SWAP1 PUSH1 0x1 DUP1 PUSH1 0xA0 SHL SUB AND PUSH1 0x0 MSTORE PUSH1 0x20 MSTORE PUSH1 0x1 PUSH1 0x40 PUSH1 0x0 KECCAK256 ADD SLOAD DUP1 PUSH2 0x3334 JUMPI POP PUSH1 0x0 SWAP1 JUMP JUMPDEST DUP2 DUP2 MUL SWAP3 SWAP2 DUP2 ISZERO SWAP2 DUP5 DIV EQ OR ISZERO PUSH2 0xD91 JUMPI JUMP JUMPDEST PUSH1 0x40 DUP1 MLOAD PUSH4 0x277166BF PUSH1 0xE1 SHL DUP2 MSTORE SWAP4 DUP5 SWAP4 SWAP1 SWAP3 SWAP1 DUP5 SWAP1 PUSH2 0x37B8 SWAP1 DUP6 SWAP1 PUSH1 0x4 DUP5 ADD PUSH2 0x3527 JUMP JUMPDEST SUB PUSH1 0x20 SWAP5 DUP6 SWAP2 DUP2 ADDRESS GAS STATICCALL SWAP5 DUP6 ISZERO PUSH2 0x38B2 JUMPI PUSH1 0x0 SWAP6 PUSH2 0x3883 JUMPI JUMPDEST POP DUP2 MLOAD PUSH4 0x981B24D PUSH1 0xE4 SHL DUP2 MSTORE PUSH1 0x4 DUP2 ADD DUP5 SWAP1 MSTORE SWAP4 DUP1 DUP6 PUSH1 0x24 DUP2 ADDRESS GAS STATICCALL SWAP5 DUP6 ISZERO PUSH2 0x3878 JUMPI PUSH1 0x0 SWAP6 PUSH2 0x3846 JUMPI JUMPDEST POP PUSH2 0x2710 SWAP6 DUP7 DUP2 MUL SWAP1 DUP1 DUP3 DIV DUP9 EQ SWAP1 ISZERO OR ISZERO PUSH2 0xD91 JUMPI PUSH2 0x3842 SWAP6 PUSH2 0x3820 SWAP2 PUSH2 0x341B JUMP JUMPDEST SWAP4 PUSH1 0x0 MSTORE PUSH1 0x17 DUP2 MSTORE DUP3 PUSH1 0x0 KECCAK256 SWAP2 PUSH1 0x1 DUP1 PUSH1 0xA0 SHL SUB AND PUSH1 0x0 MSTORE MSTORE PUSH1 0x0 KECCAK256 SLOAD PUSH2 0x3780 JUMP JUMPDEST DIV SWAP1 JUMP JUMPDEST SWAP1 SWAP5 DUP6 DUP3 DUP2 RETURNDATASIZE DUP4 GT PUSH2 0x3871 JUMPI JUMPDEST PUSH2 0x385D DUP2 DUP4 PUSH2 0x2F64 JUMP JUMPDEST DUP2 ADD SUB SLT PUSH2 0x386E JUMPI POP MLOAD SWAP4 CODESIZE PUSH2 0x37FD JUMP JUMPDEST DUP1 REVERT JUMPDEST POP RETURNDATASIZE PUSH2 0x3853 JUMP JUMPDEST DUP4 MLOAD RETURNDATASIZE PUSH1 0x0 DUP3 RETURNDATACOPY RETURNDATASIZE SWAP1 REVERT JUMPDEST SWAP1 SWAP5 DUP5 DUP3 DUP2 RETURNDATASIZE DUP4 GT PUSH2 0x38AB JUMPI JUMPDEST PUSH2 0x389A DUP2 DUP4 PUSH2 0x2F64 JUMP JUMPDEST DUP2 ADD SUB SLT PUSH2 0x386E JUMPI POP MLOAD SWAP4 CODESIZE PUSH2 0x37D1 JUMP JUMPDEST POP RETURNDATASIZE PUSH2 0x3890 JUMP JUMPDEST DUP3 MLOAD RETURNDATASIZE PUSH1 0x0 DUP3 RETURNDATACOPY RETURNDATASIZE SWAP1 REVERT JUMPDEST SWAP1 PUSH2 0x3334 SWAP3 PUSH1 0x40 SWAP2 PUSH2 0x38D0 DUP3 DUP3 DUP7 PUSH2 0x3793 JUMP JUMPDEST PUSH1 0x0 SWAP3 DUP4 MSTORE PUSH1 0x16 PUSH1 0x20 SWAP1 DUP2 MSTORE DUP5 DUP5 KECCAK256 PUSH1 0x1 PUSH1 0x1 PUSH1 0xA0 SHL SUB SWAP7 DUP8 AND DUP6 MSTORE DUP2 MSTORE DUP5 DUP5 KECCAK256 SWAP3 SWAP1 SWAP6 AND DUP4 MSTORE SWAP4 MSTORE KECCAK256 SLOAD SWAP1 PUSH2 0x32F0 JUMP JUMPDEST ISZERO PUSH2 0x3908 JUMPI JUMP JUMPDEST PUSH1 0x40 MLOAD PUSH3 0x461BCD PUSH1 0xE5 SHL DUP2 MSTORE PUSH1 0x20 PUSH1 0x4 DUP3 ADD MSTORE PUSH1 0x18 PUSH1 0x24 DUP3 ADD MSTORE PUSH24 0x444F4553204E4F5420484156452056414C494420524F4C45 PUSH1 0x40 SHL PUSH1 0x44 DUP3 ADD MSTORE PUSH1 0x64 SWAP1 REVERT JUMPDEST ISZERO PUSH2 0x394F JUMPI JUMP JUMPDEST PUSH1 0x40 MLOAD PUSH3 0x461BCD PUSH1 0xE5 SHL DUP2 MSTORE PUSH1 0x20 PUSH1 0x4 DUP3 ADD MSTORE PUSH1 0x15 PUSH1 0x24 DUP3 ADD MSTORE PUSH21 0x416464726573732063616E6E6F742062652030783 PUSH1 0x5C SHL PUSH1 0x44 DUP3 ADD MSTORE PUSH1 0x64 SWAP1 REVERT JUMPDEST PUSH1 0x1 PUSH1 0x1 PUSH1 0xA0 SHL SUB AND PUSH2 0x39A0 DUP2 ISZERO ISZERO PUSH2 0x3948 JUMP JUMPDEST PUSH1 0x0 MSTORE PUSH1 0x9 PUSH1 0x20 MSTORE PUSH1 0x1 PUSH1 0x40 PUSH1 0x0 KECCAK256 SLOAD AND ISZERO ISZERO SWAP1 JUMP JUMPDEST SWAP1 PUSH1 0xFF SWAP2 DUP3 DUP3 AND ISZERO ISZERO DUP1 PUSH2 0x39F7 JUMPI JUMPDEST PUSH2 0x39CE SWAP1 PUSH2 0x3901 JUMP JUMPDEST PUSH1 0x1 PUSH1 0x1 PUSH1 0xA0 SHL SUB AND PUSH2 0x39E2 DUP2 ISZERO ISZERO PUSH2 0x3948 JUMP JUMPDEST PUSH1 0x0 MSTORE PUSH1 0x9 PUSH1 0x20 MSTORE PUSH1 0x40 PUSH1 0x0 KECCAK256 SLOAD AND AND ISZERO ISZERO SWAP1 JUMP JUMPDEST POP PUSH1 0xF DUP3 DUP2 OR DUP5 AND EQ PUSH2 0x39C5 JUMP JUMPDEST PUSH1 0x1 PUSH1 0x1 PUSH1 0xA0 SHL SUB AND PUSH2 0x3A19 DUP2 ISZERO ISZERO PUSH2 0x3948 JUMP JUMPDEST PUSH1 0x0 MSTORE PUSH1 0x9 PUSH1 0x20 MSTORE PUSH1 0x2 PUSH1 0x40 PUSH1 0x0 KECCAK256 SLOAD AND ISZERO ISZERO SWAP1 JUMP JUMPDEST PUSH1 0x1 PUSH1 0x1 PUSH1 0xA0 SHL SUB AND PUSH2 0x3A43 DUP2 ISZERO ISZERO PUSH2 0x3948 JUMP JUMPDEST PUSH1 0x0 MSTORE PUSH1 0x9 PUSH1 0x20 MSTORE PUSH1 0x4 PUSH1 0x40 PUSH1 0x0 KECCAK256 SLOAD AND ISZERO ISZERO SWAP1 JUMP JUMPDEST PUSH1 0x1 PUSH1 0x1 PUSH1 0xA0 SHL SUB AND PUSH2 0x3A6D DUP2 ISZERO ISZERO PUSH2 0x3948 JUMP JUMPDEST PUSH1 0x0 MSTORE PUSH1 0x9 PUSH1 0x20 MSTORE PUSH1 0x8 PUSH1 0x40 PUSH1 0x0 KECCAK256 SLOAD AND ISZERO ISZERO SWAP1 JUMP JUMPDEST ISZERO PUSH2 0x3A8A JUMPI JUMP JUMPDEST PUSH1 0x64 PUSH1 0x40 MLOAD PUSH3 0x461BCD PUSH1 0xE5 SHL DUP2 MSTORE PUSH1 0x20 PUSH1 0x4 DUP3 ADD MSTORE PUSH1 0x20 PUSH1 0x24 DUP3 ADD MSTORE PUSH32 0x444F4553204E4F5420484156452057414C4C4554532041444D494E20524F4C45 PUSH1 0x44 DUP3 ADD MSTORE REVERT JUMPDEST PUSH1 0x40 MLOAD SWAP1 PUSH2 0x3ADB DUP3 PUSH2 0x2F2E JUMP JUMPDEST PUSH1 0x60 PUSH1 0x80 DUP4 PUSH1 0x0 DUP2 MSTORE PUSH1 0x0 PUSH1 0x20 DUP3 ADD MSTORE PUSH1 0x0 PUSH1 0x40 DUP3 ADD MSTORE PUSH1 0x0 DUP4 DUP3 ADD MSTORE ADD MSTORE JUMP JUMPDEST PUSH1 0x0 NOT DUP2 EQ PUSH2 0xD91 JUMPI PUSH1 0x1 ADD SWAP1 JUMP JUMPDEST PUSH1 0x0 JUMPDEST PUSH1 0x4 DUP3 ADD DUP1 SLOAD DUP3 LT ISZERO PUSH2 0x339D JUMPI DUP2 PUSH2 0x3B25 SWAP2 PUSH2 0x31DD JUMP JUMPDEST SWAP1 SLOAD CALLER PUSH1 0x3 SWAP3 SWAP1 SWAP3 SHL SHR PUSH1 0x1 PUSH1 0x1 PUSH1 0xA0 SHL SUB AND EQ PUSH2 0x3B4F JUMPI PUSH2 0x3B48 PUSH1 0x4 SWAP2 PUSH2 0x3AFC JUMP JUMPDEST SWAP1 POP PUSH2 0x3B0E JUMP JUMPDEST POP POP PUSH1 0x1 SWAP1 JUMP JUMPDEST ISZERO PUSH2 0x3B5D JUMPI JUMP JUMPDEST PUSH1 0x40 MLOAD PUSH3 0x461BCD PUSH1 0xE5 SHL DUP2 MSTORE PUSH1 0x20 PUSH1 0x4 DUP3 ADD MSTORE PUSH1 0x17 PUSH1 0x24 DUP3 ADD MSTORE PUSH23 0xDAD2E6DAC2E8C6D0CAC840C2E4E4C2F240D8CADCCEE8D PUSH1 0x4B SHL PUSH1 0x44 DUP3 ADD MSTORE PUSH1 0x64 SWAP1 REVERT JUMPDEST SWAP2 SWAP1 DUP2 LT ISZERO PUSH2 0x2FA6 JUMPI PUSH1 0x5 SHL ADD SWAP1 JUMP JUMPDEST PUSH2 0x3BB6 DUP3 DUP3 PUSH2 0x422B JUMP JUMPDEST SWAP1 PUSH1 0x40 PUSH1 0x60 DUP4 ADD MLOAD SWAP3 ADD MLOAD DUP3 GT ISZERO PUSH1 0x0 EQ PUSH2 0x3BD3 JUMPI POP POP POP PUSH1 0x0 SWAP1 JUMP JUMPDEST PUSH2 0x3334 SWAP3 PUSH2 0x3BE0 SWAP2 PUSH2 0x3C4F JUMP JUMPDEST SWAP1 PUSH2 0x32F0 JUMP JUMPDEST PUSH2 0x3BF0 DUP3 DUP3 PUSH2 0x422B JUMP JUMPDEST SWAP1 PUSH1 0x40 PUSH1 0x60 DUP4 ADD MLOAD SWAP3 ADD SWAP2 DUP3 MLOAD LT ISZERO PUSH1 0x0 EQ PUSH2 0x3C0E JUMPI POP POP POP PUSH1 0x0 SWAP1 JUMP JUMPDEST PUSH2 0x3334 SWAP3 PUSH2 0x3C1B SWAP2 PUSH2 0x3C4F JUMP JUMPDEST SWAP1 MLOAD SWAP1 PUSH2 0x32F0 JUMP JUMPDEST SWAP1 PUSH2 0x3C2D SWAP2 PUSH2 0x422B JUMP JUMPDEST PUSH1 0x60 DUP2 ADD MLOAD PUSH1 0x40 SWAP1 SWAP2 ADD MLOAD DUP1 DUP3 GT PUSH2 0x3C46 JUMPI POP POP PUSH1 0x0 SWAP1 JUMP JUMPDEST PUSH2 0x3334 SWAP2 PUSH2 0x32F0 JUMP JUMPDEST PUSH2 0x3334 SWAP2 PUSH2 0x3C5C SWAP2 PUSH2 0x422B JUMP JUMPDEST PUSH1 0x20 DUP2 ADD MLOAD SWAP1 PUSH1 0x60 DUP2 ADD MLOAD SWAP1 MLOAD SWAP2 TIMESTAMP SWAP1 PUSH2 0x41E8 JUMP JUMPDEST ISZERO PUSH2 0x3C78 JUMPI JUMP JUMPDEST PUSH1 0x40 MLOAD PUSH3 0x461BCD PUSH1 0xE5 SHL DUP2 MSTORE PUSH1 0x20 PUSH1 0x4 DUP3 ADD MSTORE PUSH1 0x12 PUSH1 0x24 DUP3 ADD MSTORE PUSH18 0x496E737566666963656E7420746F6B656E73 PUSH1 0x70 SHL PUSH1 0x44 DUP3 ADD MSTORE PUSH1 0x64 SWAP1 REVERT JUMPDEST SWAP1 PUSH2 0x3CBD DUP2 CALLER PUSH2 0x40AA JUMP JUMPDEST PUSH2 0x3CD3 DUP2 MLOAD SWAP3 PUSH2 0x2492 PUSH1 0x20 DUP5 ADD SWAP5 DUP6 MLOAD SWAP1 PUSH2 0x3098 JUMP JUMPDEST MLOAD DUP1 PUSH2 0x3CF9 JUMPI JUMPDEST POP MLOAD DUP1 PUSH2 0x3CE8 JUMPI POP POP PUSH1 0x1 SWAP1 JUMP JUMPDEST PUSH2 0x3CF2 SWAP2 CALLER PUSH2 0x3D0A JUMP JUMPDEST CODESIZE DUP1 PUSH2 0x3B4F JUMP JUMPDEST PUSH2 0x3D04 SWAP1 DUP4 ADDRESS PUSH2 0x3D0A JUMP JUMPDEST CODESIZE PUSH2 0x3CDA JUMP JUMPDEST SWAP1 SWAP2 PUSH1 0x1 PUSH1 0x1 PUSH1 0xA0 SHL SUB DUP1 DUP4 AND SWAP3 SWAP1 DUP4 ISZERO PUSH2 0x3E28 JUMPI DUP5 AND SWAP4 DUP5 ISZERO PUSH2 0x3DD7 JUMPI PUSH2 0x3D34 PUSH2 0x3D39 SWAP3 PUSH2 0x3E7B JUMP JUMPDEST PUSH2 0x3E7B JUMP JUMPDEST PUSH1 0x0 DUP3 DUP2 MSTORE DUP1 PUSH1 0x20 MSTORE PUSH1 0x40 DUP2 KECCAK256 SLOAD SWAP2 DUP1 DUP4 LT PUSH2 0x3D83 JUMPI PUSH1 0x40 DUP3 DUP3 PUSH1 0x0 DUP1 MLOAD PUSH1 0x20 PUSH2 0x46D0 DUP4 CODECOPY DUP2 MLOAD SWAP2 MSTORE SWAP6 DUP8 PUSH1 0x20 SWAP7 MSTORE DUP3 DUP7 MSTORE SUB DUP3 DUP3 KECCAK256 SSTORE DUP7 DUP2 MSTORE KECCAK256 DUP2 DUP2 SLOAD ADD SWAP1 SSTORE PUSH1 0x40 MLOAD SWAP1 DUP2 MSTORE LOG3 JUMP JUMPDEST PUSH1 0x40 MLOAD PUSH3 0x461BCD PUSH1 0xE5 SHL DUP2 MSTORE PUSH1 0x20 PUSH1 0x4 DUP3 ADD MSTORE PUSH1 0x26 PUSH1 0x24 DUP3 ADD MSTORE PUSH32 0x45524332303A207472616E7366657220616D6F756E7420657863656564732062 PUSH1 0x44 DUP3 ADD MSTORE PUSH6 0x616C616E6365 PUSH1 0xD0 SHL PUSH1 0x64 DUP3 ADD MSTORE PUSH1 0x84 SWAP1 REVERT JUMPDEST PUSH1 0x40 MLOAD PUSH3 0x461BCD PUSH1 0xE5 SHL DUP2 MSTORE PUSH1 0x20 PUSH1 0x4 DUP3 ADD MSTORE PUSH1 0x23 PUSH1 0x24 DUP3 ADD MSTORE PUSH32 0x45524332303A207472616E7366657220746F20746865207A65726F2061646472 PUSH1 0x44 DUP3 ADD MSTORE PUSH3 0x657373 PUSH1 0xE8 SHL PUSH1 0x64 DUP3 ADD MSTORE PUSH1 0x84 SWAP1 REVERT JUMPDEST PUSH1 0x40 MLOAD PUSH3 0x461BCD PUSH1 0xE5 SHL DUP2 MSTORE PUSH1 0x20 PUSH1 0x4 DUP3 ADD MSTORE PUSH1 0x25 PUSH1 0x24 DUP3 ADD MSTORE PUSH32 0x45524332303A207472616E736665722066726F6D20746865207A65726F206164 PUSH1 0x44 DUP3 ADD MSTORE PUSH5 0x6472657373 PUSH1 0xD8 SHL PUSH1 0x64 DUP3 ADD MSTORE PUSH1 0x84 SWAP1 REVERT JUMPDEST PUSH1 0x1 PUSH1 0x1 PUSH1 0xA0 SHL SUB DUP2 AND PUSH1 0x0 SWAP1 DUP2 MSTORE PUSH1 0x5 PUSH1 0x20 MSTORE PUSH1 0x40 SWAP1 KECCAK256 SWAP1 PUSH2 0x3E9D SWAP1 PUSH2 0x3FB1 JUMP JUMPDEST PUSH1 0x8 SLOAD DUP1 PUSH2 0x3EAA DUP5 PUSH2 0x3F8E JUMP JUMPDEST LT PUSH2 0x3EB4 JUMPI POP POP POP JUMP JUMPDEST DUP3 PUSH2 0x3EC4 PUSH1 0x1 SWAP3 PUSH2 0x357C SWAP6 PUSH2 0x3F3E JUMP JUMPDEST ADD PUSH2 0x3F3E JUMP JUMPDEST PUSH1 0x2 SLOAD PUSH1 0x8 SLOAD SWAP1 DUP2 PUSH2 0x3EDA PUSH2 0x3F61 JUMP JUMPDEST LT PUSH2 0x3EE3 JUMPI POP POP JUMP JUMPDEST PUSH1 0x6 SLOAD PUSH1 0x1 PUSH1 0x40 SHL SWAP3 DUP4 DUP3 LT ISZERO PUSH2 0xD7B JUMPI PUSH2 0x3F07 DUP3 PUSH1 0x1 PUSH2 0x3F20 SWAP5 ADD PUSH1 0x6 SSTORE PUSH2 0x31C2 JUMP JUMPDEST SWAP1 SWAP2 SWAP1 DUP3 SLOAD SWAP1 PUSH1 0x3 SHL SWAP2 DUP3 SHL SWAP2 PUSH1 0x0 NOT SWAP1 SHL NOT AND OR SWAP1 SSTORE JUMP JUMPDEST PUSH1 0x7 SLOAD SWAP2 DUP3 LT ISZERO PUSH2 0xD7B JUMPI PUSH2 0x3F07 DUP3 PUSH1 0x1 PUSH2 0x357C SWAP5 ADD PUSH1 0x7 SSTORE PUSH2 0x31A7 JUMP JUMPDEST DUP1 SLOAD SWAP2 SWAP1 PUSH1 0x1 PUSH1 0x40 SHL DUP4 LT ISZERO PUSH2 0xD7B JUMPI DUP3 PUSH2 0x3F07 SWAP2 PUSH1 0x1 PUSH2 0x357C SWAP6 ADD DUP2 SSTORE PUSH2 0x31DD JUMP JUMPDEST PUSH1 0x6 SLOAD DUP1 PUSH2 0x3F6F JUMPI POP PUSH1 0x0 SWAP1 JUMP JUMPDEST PUSH1 0x0 NOT DUP2 ADD SWAP1 DUP2 GT PUSH2 0xD91 JUMPI PUSH2 0x3F84 SWAP1 PUSH2 0x31C2 JUMP JUMPDEST SWAP1 SLOAD SWAP1 PUSH1 0x3 SHL SHR SWAP1 JUMP JUMPDEST DUP1 SLOAD DUP1 PUSH2 0x3F9C JUMPI POP POP PUSH1 0x0 SWAP1 JUMP JUMPDEST PUSH1 0x0 NOT DUP2 ADD SWAP1 DUP2 GT PUSH2 0xD91 JUMPI PUSH2 0x3F84 SWAP2 PUSH2 0x31DD JUMP JUMPDEST PUSH2 0x3334 SWAP1 PUSH1 0x1 DUP1 PUSH1 0xA0 SHL SUB DUP2 AND PUSH1 0x0 MSTORE PUSH1 0x0 PUSH1 0x20 MSTORE PUSH2 0x1991 PUSH2 0x1BAA PUSH1 0x40 PUSH1 0x0 KECCAK256 SLOAD PUSH2 0x1991 DUP5 PUSH2 0x4029 JUMP JUMPDEST PUSH1 0x0 SWAP1 PUSH1 0x0 SWAP3 DUP4 SWAP3 JUMPDEST PUSH1 0x1 PUSH1 0x1 PUSH1 0xA0 SHL SUB DUP4 AND DUP6 MSTORE PUSH1 0xD PUSH1 0x20 MSTORE PUSH1 0x40 DUP6 KECCAK256 SLOAD DUP5 LT ISZERO PUSH2 0x4022 JUMPI PUSH2 0x401A PUSH2 0x4014 PUSH1 0x40 SWAP3 PUSH2 0x1991 DUP8 DUP8 PUSH2 0x3BAC JUMP JUMPDEST SWAP5 PUSH2 0x3AFC JUMP JUMPDEST SWAP4 SWAP1 POP PUSH2 0x3FE4 JUMP JUMPDEST SWAP4 POP SWAP2 POP POP JUMP JUMPDEST PUSH1 0x0 SWAP1 PUSH1 0x0 SWAP3 DUP4 SWAP3 JUMPDEST PUSH1 0x1 PUSH1 0x1 PUSH1 0xA0 SHL SUB DUP4 AND DUP6 MSTORE PUSH1 0xD PUSH1 0x20 MSTORE PUSH1 0x40 DUP6 KECCAK256 SLOAD DUP5 LT ISZERO PUSH2 0x4022 JUMPI PUSH2 0x4062 PUSH2 0x4014 PUSH1 0x40 SWAP3 PUSH2 0x1991 DUP8 DUP8 PUSH2 0x3BE6 JUMP JUMPDEST SWAP4 SWAP1 POP PUSH2 0x4032 JUMP JUMPDEST ISZERO PUSH2 0x4071 JUMPI JUMP JUMPDEST PUSH1 0x40 MLOAD PUSH3 0x461BCD PUSH1 0xE5 SHL DUP2 MSTORE PUSH1 0x20 PUSH1 0x4 DUP3 ADD MSTORE PUSH1 0x11 PUSH1 0x24 DUP3 ADD MSTORE PUSH17 0x185B5BDD5B9D080F881D5B9B1BD8DAD959 PUSH1 0x7A SHL PUSH1 0x44 DUP3 ADD MSTORE PUSH1 0x64 SWAP1 REVERT JUMPDEST SWAP2 SWAP1 PUSH1 0x40 SWAP3 DUP4 MLOAD SWAP1 PUSH2 0x40BB DUP3 PUSH2 0x2F49 JUMP JUMPDEST DUP5 CALLDATASIZE DUP4 CALLDATACOPY DUP2 SWAP3 PUSH1 0x1 DUP1 PUSH1 0xA0 SHL SUB DUP3 AND SWAP4 PUSH1 0x0 SWAP3 DUP6 DUP5 MSTORE PUSH1 0x20 SWAP2 DUP5 DUP4 MSTORE PUSH2 0x40EB DUP5 PUSH2 0x1020 DUP12 DUP9 KECCAK256 SLOAD PUSH2 0x1991 DUP7 PUSH2 0x4029 JUMP JUMPDEST DUP4 SWAP1 DUP6 JUMPDEST DUP9 DUP8 MSTORE PUSH1 0xD DUP1 DUP7 MSTORE DUP12 DUP9 KECCAK256 DUP1 SLOAD DUP4 LT ISZERO PUSH2 0x41D3 JUMPI SWAP1 DUP9 PUSH1 0x3 PUSH2 0x412D DUP16 DUP7 SWAP1 DUP16 SWAP7 DUP3 PUSH2 0x4119 SWAP2 PUSH2 0x307C JUMP JUMPDEST POP SWAP7 PUSH1 0x2 DUP1 SWAP9 ADD SLOAD SWAP6 MSTORE DUP6 DUP13 MSTORE DUP14 KECCAK256 PUSH2 0x307C JUMP JUMPDEST POP ADD SLOAD SUB PUSH2 0x4145 JUMPI POP POP PUSH2 0x4140 SWAP1 PUSH2 0x3AFC JUMP JUMPDEST PUSH2 0x40EF JUMP JUMPDEST SWAP1 SWAP2 SWAP3 SWAP4 PUSH2 0x4153 DUP5 DUP8 PUSH2 0x3BE6 JUMP JUMPDEST DUP2 GT ISZERO PUSH2 0x41A4 JUMPI PUSH2 0x419D PUSH2 0x4140 SWAP4 PUSH2 0x4193 DUP16 SWAP7 DUP10 SWAP9 SWAP8 DUP16 SWAP7 DUP3 SWAP8 DUP16 SWAP8 DUP5 PUSH2 0x4182 PUSH2 0x4188 SWAP3 DUP16 DUP4 PUSH2 0x3BE0 SWAP2 PUSH2 0x3BE6 JUMP JUMPDEST SWAP14 PUSH2 0x3BE6 JUMP JUMPDEST SWAP8 MSTORE DUP13 MSTORE DUP14 KECCAK256 PUSH2 0x307C JUMP JUMPDEST POP ADD SWAP2 DUP3 SLOAD PUSH2 0x3098 JUMP JUMPDEST SWAP1 SSTORE PUSH2 0x3AFC JUMP JUMPDEST SWAP5 POP SWAP2 PUSH2 0x41C4 SWAP4 SWAP12 PUSH2 0x4193 SWAP3 SWAP4 PUSH2 0x41CD SWAP9 SWAP12 DUP11 SWAP9 SWAP12 SWAP11 MSTORE DUP11 MSTORE DUP7 KECCAK256 PUSH2 0x307C JUMP JUMPDEST SWAP1 SSTORE DUP1 SWAP5 PUSH2 0x32F0 JUMP JUMPDEST DUP2 MSTORE ADD MSTORE JUMP JUMPDEST POP POP POP SWAP9 POP SWAP6 POP POP SWAP3 SWAP2 POP DUP4 PUSH2 0x41CD SWAP2 PUSH2 0x32F0 JUMP JUMPDEST SWAP2 SWAP1 PUSH2 0x41F6 PUSH2 0x3334 SWAP5 PUSH2 0x2F87 JUMP JUMPDEST POP SWAP3 PUSH1 0x3 PUSH1 0x40 MLOAD SWAP5 PUSH2 0x4207 DUP7 PUSH2 0x2F13 JUMP JUMPDEST DUP1 SLOAD DUP7 MSTORE PUSH1 0x1 DUP2 ADD SLOAD PUSH1 0x20 DUP8 ADD MSTORE PUSH1 0x2 DUP2 ADD SLOAD PUSH1 0x40 DUP8 ADD MSTORE ADD SLOAD PUSH1 0x60 DUP6 ADD MSTORE PUSH2 0x42E1 JUMP JUMPDEST SWAP1 PUSH2 0x4234 PUSH2 0x3ACE JUMP JUMPDEST POP PUSH1 0x1 DUP1 PUSH1 0xA0 SHL SUB DUP1 SWAP3 AND PUSH1 0x0 MSTORE PUSH2 0x4256 PUSH1 0x20 SWAP2 PUSH1 0xD DUP4 MSTORE PUSH1 0x40 PUSH1 0x0 KECCAK256 PUSH2 0x307C JUMP JUMPDEST POP SWAP1 PUSH1 0x40 MLOAD SWAP3 PUSH2 0x4265 DUP5 PUSH2 0x2F2E JUMP JUMPDEST DUP3 SLOAD DUP5 MSTORE PUSH1 0x4 PUSH1 0x1 SWAP4 DUP5 DUP2 ADD SLOAD DUP5 DUP8 ADD MSTORE PUSH1 0x2 DUP2 ADD SLOAD PUSH1 0x40 DUP8 ADD MSTORE PUSH1 0x3 DUP2 ADD SLOAD PUSH1 0x60 DUP8 ADD MSTORE ADD PUSH1 0x40 MLOAD SWAP4 DUP5 DUP6 SWAP4 DUP6 DUP5 SLOAD SWAP3 DUP4 DUP2 MSTORE ADD SWAP4 PUSH1 0x0 MSTORE DUP6 PUSH1 0x0 KECCAK256 SWAP6 PUSH1 0x0 SWAP2 JUMPDEST DUP4 DUP4 LT PUSH2 0x42C7 JUMPI POP POP POP POP POP PUSH2 0x42BF SWAP3 POP SUB DUP3 PUSH2 0x2F64 JUMP JUMPDEST PUSH1 0x80 DUP3 ADD MSTORE SWAP1 JUMP JUMPDEST DUP8 SLOAD DUP2 AND DUP7 MSTORE SWAP7 DUP5 ADD SWAP7 DUP9 SWAP7 POP SWAP5 DUP2 ADD SWAP5 SWAP2 DUP5 ADD SWAP2 PUSH2 0x42A7 JUMP JUMPDEST SWAP2 SWAP1 PUSH2 0x3334 SWAP4 SWAP2 DUP3 MLOAD SWAP1 PUSH1 0x20 DUP5 ADD MLOAD SWAP3 PUSH1 0x60 PUSH1 0x40 DUP7 ADD MLOAD SWAP6 ADD MLOAD SWAP6 JUMPDEST SWAP6 SWAP2 SWAP3 SWAP4 SWAP1 PUSH1 0x0 SWAP7 DUP2 DUP2 GT PUSH2 0x43BE JUMPI PUSH2 0x4315 SWAP2 PUSH2 0x32F0 JUMP JUMPDEST SWAP5 PUSH1 0x0 NOT DUP6 ADD SWAP5 DUP6 GT PUSH2 0xD91 JUMPI PUSH2 0x4335 PUSH2 0x432F DUP7 DUP6 PUSH2 0x3780 JUMP JUMPDEST DUP4 PUSH2 0x3098 JUMP JUMPDEST DUP7 LT ISZERO PUSH2 0x43B4 JUMPI DUP2 DUP7 LT ISZERO PUSH2 0x434E JUMPI JUMPDEST POP POP POP POP POP POP SWAP1 JUMP JUMPDEST DUP4 SWAP5 SWAP6 SWAP7 POP PUSH2 0x4362 SWAP1 PUSH2 0x2710 SWAP3 SWAP4 SWAP5 PUSH2 0x3780 JUMP JUMPDEST DIV SWAP5 DUP3 PUSH2 0x436F DUP4 DUP4 PUSH2 0x32F0 JUMP JUMPDEST LT ISZERO PUSH2 0x437C JUMPI JUMPDEST DUP1 PUSH2 0x4345 JUMP JUMPDEST SWAP3 PUSH2 0x43A5 DUP7 PUSH2 0x439F PUSH2 0x43AA SWAP9 SWAP8 SWAP6 PUSH2 0x439A PUSH2 0x439A SWAP7 PUSH2 0x1991 SWAP10 PUSH2 0x32F0 JUMP JUMPDEST PUSH2 0x341B JUMP JUMPDEST SWAP3 PUSH2 0x32F0 JUMP JUMPDEST PUSH2 0x3780 JUMP JUMPDEST CODESIZE DUP1 DUP1 DUP1 DUP1 PUSH2 0x4376 JUMP JUMPDEST POP POP POP SWAP3 POP POP POP SWAP1 JUMP JUMPDEST POP POP POP POP POP POP POP POP PUSH1 0x0 SWAP1 JUMP JUMPDEST SWAP2 PUSH2 0x43D8 SWAP2 PUSH1 0x24 SWAP4 PUSH2 0x446A JUMP JUMPDEST PUSH1 0xF SLOAD PUSH1 0x40 MLOAD PUSH4 0x7D8E7D1B PUSH1 0xE0 SHL DUP2 MSTORE PUSH1 0xFF DUP4 AND PUSH1 0x4 DUP3 ADD MSTORE SWAP3 PUSH1 0x20 SWAP2 DUP5 SWAP2 SWAP1 DUP3 SWAP1 PUSH1 0x8 SHR PUSH1 0x1 PUSH1 0x1 PUSH1 0xA0 SHL SUB AND GAS STATICCALL SWAP2 DUP3 ISZERO PUSH2 0x445E JUMPI PUSH1 0x0 SWAP3 PUSH2 0x442A JUMPI JUMPDEST POP PUSH2 0x4421 SWAP1 PUSH2 0x4500 JUMP JUMPDEST SWAP1 ISZERO PUSH2 0x372F JUMPI POP JUMP JUMPDEST PUSH2 0x4421 SWAP2 SWAP3 POP PUSH2 0x4450 SWAP1 PUSH1 0x20 RETURNDATASIZE DUP2 GT PUSH2 0x4457 JUMPI JUMPDEST PUSH2 0x4448 DUP2 DUP4 PUSH2 0x2F64 JUMP JUMPDEST DUP2 ADD SWAP1 PUSH2 0x3599 JUMP JUMPDEST SWAP2 SWAP1 PUSH2 0x4417 JUMP JUMPDEST POP RETURNDATASIZE PUSH2 0x443E JUMP JUMPDEST PUSH1 0x40 MLOAD RETURNDATASIZE PUSH1 0x0 DUP3 RETURNDATACOPY RETURNDATASIZE SWAP1 REVERT JUMPDEST PUSH1 0xF SLOAD PUSH1 0x40 MLOAD PUSH4 0xCFDB31A9 PUSH1 0xE0 SHL DUP2 MSTORE ADDRESS PUSH1 0x4 DUP3 ADD MSTORE PUSH1 0x1 PUSH1 0x1 PUSH1 0xA0 SHL SUB SWAP3 DUP4 AND PUSH1 0x24 DUP3 ADD MSTORE SWAP3 DUP3 AND PUSH1 0x44 DUP5 ADD MSTORE PUSH1 0x64 DUP4 ADD SWAP4 SWAP1 SWAP4 MSTORE SWAP1 SWAP2 PUSH1 0x20 SWAP2 DUP4 SWAP2 PUSH1 0x84 SWAP2 DUP4 SWAP2 PUSH1 0x8 SHR AND GAS STATICCALL SWAP1 DUP2 ISZERO PUSH2 0x445E JUMPI PUSH1 0x0 SWAP2 PUSH2 0x44C4 JUMPI POP SWAP1 JUMP JUMPDEST PUSH1 0x20 DUP2 RETURNDATASIZE DUP3 GT PUSH2 0x44F8 JUMPI JUMPDEST DUP2 PUSH2 0x44DC PUSH1 0x20 SWAP4 DUP4 PUSH2 0x2F64 JUMP JUMPDEST DUP2 ADD SUB SLT PUSH2 0x44F4 JUMPI MLOAD SWAP1 PUSH1 0xFF DUP3 AND DUP3 SUB PUSH2 0x386E JUMPI POP SWAP1 JUMP JUMPDEST POP DUP1 REVERT JUMPDEST RETURNDATASIZE SWAP2 POP PUSH2 0x44CF JUMP JUMPDEST PUSH1 0xF SLOAD PUSH1 0x40 MLOAD PUSH4 0x7F4AB1DD PUSH1 0xE0 SHL DUP2 MSTORE PUSH1 0xFF SWAP3 SWAP1 SWAP3 AND PUSH1 0x4 DUP4 ADD MSTORE PUSH1 0x0 SWAP2 SWAP1 DUP3 SWAP1 DUP3 SWAP1 PUSH1 0x24 SWAP1 DUP3 SWAP1 PUSH1 0x8 SHR PUSH1 0x1 PUSH1 0x1 PUSH1 0xA0 SHL SUB AND GAS STATICCALL SWAP2 DUP3 ISZERO PUSH2 0x45C2 JUMPI DUP1 SWAP3 PUSH2 0x4548 JUMPI POP POP SWAP1 JUMP JUMPDEST SWAP1 SWAP2 POP RETURNDATASIZE DUP1 DUP3 DUP5 RETURNDATACOPY PUSH2 0x455A DUP2 DUP5 PUSH2 0x2F64 JUMP JUMPDEST DUP3 ADD SWAP2 PUSH1 0x20 DUP2 DUP5 SUB SLT PUSH2 0x44F4 JUMPI DUP1 MLOAD SWAP1 PUSH1 0x1 PUSH1 0x1 PUSH1 0x40 SHL SUB DUP3 GT PUSH2 0x45BE JUMPI ADD DUP3 PUSH1 0x1F DUP3 ADD SLT ISZERO PUSH2 0x44F4 JUMPI DUP1 MLOAD SWAP2 PUSH2 0x4590 DUP4 PUSH2 0x357E JUMP JUMPDEST SWAP4 PUSH2 0x459E PUSH1 0x40 MLOAD SWAP6 DUP7 PUSH2 0x2F64 JUMP JUMPDEST DUP4 DUP6 MSTORE PUSH1 0x20 DUP5 DUP5 ADD ADD GT PUSH2 0x386E JUMPI POP SWAP1 PUSH2 0x3334 SWAP2 PUSH1 0x20 DUP1 DUP6 ADD SWAP2 ADD PUSH2 0x2E35 JUMP JUMPDEST DUP3 DUP1 REVERT JUMPDEST PUSH1 0x40 MLOAD SWAP1 RETURNDATASIZE SWAP1 DUP3 RETURNDATACOPY RETURNDATASIZE SWAP1 REVERT JUMPDEST ISZERO PUSH2 0x45D5 JUMPI JUMP JUMPDEST PUSH1 0x40 MLOAD PUSH3 0x461BCD PUSH1 0xE5 SHL DUP2 MSTORE PUSH1 0x20 PUSH1 0x4 DUP3 ADD MSTORE PUSH1 0x21 PUSH1 0x24 DUP3 ADD MSTORE PUSH32 0x444F4553204E4F542048415645205452414E534645522041444D494E20524F4C PUSH1 0x44 DUP3 ADD MSTORE PUSH1 0x45 PUSH1 0xF8 SHL PUSH1 0x64 DUP3 ADD MSTORE PUSH1 0x84 SWAP1 REVERT JUMPDEST ISZERO PUSH2 0x462B JUMPI JUMP JUMPDEST PUSH1 0x64 PUSH1 0x40 MLOAD PUSH3 0x461BCD PUSH1 0xE5 SHL DUP2 MSTORE PUSH1 0x20 PUSH1 0x4 DUP3 ADD MSTORE PUSH1 0x20 PUSH1 0x24 DUP3 ADD MSTORE PUSH32 0x444F4553204E4F54204841564520524553455256452041444D494E20524F4C45 PUSH1 0x44 DUP3 ADD MSTORE REVERT INVALID 0xD PUSH32 0xD1E314B29407DB3D79C46ECF1FA3D2108961FAB8D20584277358CAC41E890765 0xAA CALLCODE BALANCE 0xB0 SWAP4 PUSH9 0xF07B83425559B145D7 0xD3 DUP7 0xB1 SELFDESTRUCT DUP16 AND 0xC1 JUMPI LOG2 SELFDESTRUCT 0x2C PUSH28 0x9896FE8D92942330BB9E8E714A4F66AA3EEFE27F66D05B8AE4B6F688 SWAP15 GAS PUSH5 0xA16155BEDD CALLCODE MSTORE 0xAD SHL 0xE2 0xC8 SWAP12 PUSH10 0xC2B068FC378DAA952BA7 CALL PUSH4 0xC4A11628 CREATE2 GAS 0x4D CREATE2 0x23 0xB3 0xEF CALLCODE SGT 0xAA PREVRANDAO JUMPI CODECOPY 0xB8 0xD5 0xBB MLOAD 0x4C 0x5E BALANCE TIMESTAMP INVALID SGT 0xBA 0xAC STATICCALL SWAP10 SGT EQ OR 0x2C 0xEA 0xF7 JUMP SWAP10 PUSH3 0x59B8B3 PUSH31 0x9E87D17FBF2950F3379A6331B75B6E997A147BBD3EAEDC68C30C62186C68CB LOG1 PUSH5 0x736F6C6343 STOP ADDMOD EQ STOP EXP 0xDD CALLCODE MSTORE 0xAD SHL 0xE2 0xC8 SWAP12 PUSH10 0xC2B068FC378DAA952BA7 CALL PUSH4 0xC4A11628 CREATE2 GAS 0x4D CREATE2 0x23 0xB3 0xEF "},"methodIdentifiers":{"_decimals()":"32424aa3","allowance(address,address)":"dd62ed3e","approve(address,uint256)":"095ea7b3","balanceOf(address)":"70a08231","balanceOfAt(address,uint256)":"4ee2cd7e","balanceOfTimelock(address,uint256)":"ad061e25","batchFundReleaseSchedule(address[],uint256[],uint256[],uint256[],address[])":"b7ed4785","burn(address,uint256)":"9dc29fac","calculateUnlocked(uint256,uint256,uint256,(uint256,uint256,uint256,uint256))":"5f7c5377","calculateUnlocked(uint256,uint256,uint256,uint256)":"96305c89","calculateUnlocked(uint256,uint256,uint256,uint256,uint256,uint256,uint256)":"90fc7e91","cancelTimelock(address,uint256,uint256,uint256,uint256,address)":"0f8ad1b4","claimDividend(address,uint256)":"5247ab05","claimedBalanceAt(address,address,uint256)":"809c1875","contractAdminCount()":"8e64eac5","createReleaseSchedule(uint256,uint256,uint256,uint256)":"21bb56d7","decimals()":"313ce567","decreaseAllowance(address,uint256)":"a457c2d7","detectTransferRestriction(address,address,uint256)":"d4ce1415","enforceTransferRestrictions(address,address,uint256)":"2beafc89","freeze(address,bool)":"bf120ae5","fundDividend(address,uint256,uint256)":"ecd158cf","fundReleaseSchedule(address,uint256,uint256,uint256,address[])":"8e4f11ff","fundsAt(address,uint256)":"1d36f08b","getAllowGroupTransferTime(uint256,uint256)":"3c637d74","getAllowTransferTime(address,address)":"40dc95c5","getCurrentSnapshotId()":"5439ad86","getFrozenStatus(address)":"fc96f7d8","getMaxBalance(address)":"c63aa521","getTransferGroup(address)":"db74fa36","grantRole(address,uint8)":"3e840236","hasRole(address,uint8)":"95a8c58d","increaseAllowance(address,uint256)":"39509351","isPaused()":"b187bd26","lockedAmountOf(address)":"8b9d6899","lockedAmountOfTimelock(address,uint256)":"7d7b368b","maxReleaseDelay()":"14cf86eb","maxTotalSupply()":"2ab4d052","messageForTransferRestriction(uint8)":"7f4ab1dd","minTimelockAmount()":"370de043","mint(address,uint256)":"40c10f19","name()":"06fdde03","pause()":"8456cb59","releaseSchedules(uint256)":"6aea0d2e","revokeRole(address,uint8)":"077d3c03","safeApprove(address,uint256)":"fbc6d1cb","scheduleCount()":"b7ef81e1","setAddressPermissions(address,uint256,uint256,uint256,bool)":"45d11299","setAllowGroupTransfer(uint256,uint256,uint256)":"e98a0c64","setMaxBalance(address,uint256)":"8d56cc9c","setTransferGroup(address,uint256)":"64ca0ac3","snapshot()":"9711715a","symbol()":"95d89b41","timelockBalanceOf(address)":"6968f8b3","timelockCountOf(address)":"b30bfa3d","timelockOf(address,uint256)":"82074ac2","timelocks(address,uint256)":"ea612ae8","tokenPrecisionDivider()":"4e2b3035","tokensAt(address,uint256)":"593b6439","tokensBalanceOf(address)":"350724a9","totalAwardedBalanceAt(address,address,uint256)":"a2e26616","totalSupply()":"18160ddd","totalSupplyAt(uint256)":"981b24d0","totalUnlockedToDateOfTimelock(address,uint256)":"0c815103","transfer(address,uint256)":"a9059cbb","transferFrom(address,address,uint256)":"23b872dd","transferRules()":"ceca46c2","transferTimelock(address,uint256,uint256)":"a9b1f051","unclaimedBalanceAt(address,address,uint256)":"6ec9d56f","unlockedAmountOf(address)":"a742c88e","unlockedAmountOfTimelock(address,uint256)":"f0658198","unlockedBalanceOf(address)":"84955c88","unpause()":"3f4ba83a","upgradeTransferRules(address)":"dfb7300e","withdrawalRemains(address,uint256)":"57656cfe"}}}}}