{"contracts/security-token/EasyAccessControl.sol":{"EasyAccessControl":{"abi":[{"anonymous":false,"inputs":[{"indexed":true,"internalType":"address","name":"grantor","type":"address"},{"indexed":true,"internalType":"address","name":"grantee","type":"address"},{"indexed":false,"internalType":"uint8","name":"role","type":"uint8"},{"indexed":true,"internalType":"bool","name":"status","type":"bool"}],"name":"RoleChange","type":"event"},{"inputs":[],"name":"contractAdminCount","outputs":[{"internalType":"uint8","name":"","type":"uint8"}],"stateMutability":"view","type":"function"},{"inputs":[{"internalType":"address","name":"addr","type":"address"},{"internalType":"uint8","name":"role","type":"uint8"}],"name":"grantRole","outputs":[],"stateMutability":"nonpayable","type":"function"},{"inputs":[{"internalType":"address","name":"addr","type":"address"},{"internalType":"uint8","name":"role","type":"uint8"}],"name":"hasRole","outputs":[{"internalType":"bool","name":"","type":"bool"}],"stateMutability":"view","type":"function"},{"inputs":[{"internalType":"address","name":"addr","type":"address"},{"internalType":"uint8","name":"role","type":"uint8"}],"name":"revokeRole","outputs":[],"stateMutability":"nonpayable","type":"function"}],"evm":{"bytecode":{"linkReferences":{},"object":"60808060405234610016576104bd908161001c8239f35b600080fdfe604060808152600436101561001357600080fd5b600090813560e01c8063077d3c03146101845780633e840236146100935780638e64eac514610072576395a8c58d1461004b57600080fd5b3461006e5760209061006561005f36610301565b90610441565b90519015158152f35b5080fd5b503461006e578160031936011261006e5760209060ff600154169051908152f35b503461006e576100a236610301565b919060ff918284169182151580610176575b6100bd90610336565b6001600160a01b0316926100d284151561037d565b6100e36100de33610417565b6103c1565b838652856020526001948580848920541615918261016a575b5050610138575b8386528560205281862090838254918216179060ff19161790555190815260008051602061049183398151915260203392a480f35b84548181168281146101565786839101169060ff1916178555610103565b634e487b7160e01b88526011600452602488fd5b161515905085386100fc565b50600f8581178516146100b4565b5090346102fe5761019436610301565b9260ff9081851691821515806102f0575b6101ae90610336565b6001600160a01b038416936101db9087906101ca87151561037d565b6101d66100de33610417565b610441565b156102b65760018616610221575b8495848652856020528286209182549181831618169060ff19161790555190815260008051602061049183398151915260203392a480f35b600154958187169660018811156102645787156102505760ff19166000199097018216969096176001556101e9565b634e487b7160e01b87526011600452602487fd5b835162461bcd60e51b815260206004820152602560248201527f4d7573742068617665206174206c65617374206f6e6520636f6e74726163742060448201526430b236b4b760d91b6064820152608490fd5b815162461bcd60e51b815260206004820152601360248201527243414e204e4f54205245564f4b4520524f4c4560681b6044820152606490fd5b50600f8681178216146101a5565b80fd5b6040906003190112610331576004356001600160a01b0381168103610331579060243560ff811681036103315790565b600080fd5b1561033d57565b60405162461bcd60e51b8152602060048201526018602482015277444f4553204e4f5420484156452056414c494420524f4c4560401b6044820152606490fd5b1561038457565b60405162461bcd60e51b81526020600482015260156024820152740416464726573732063616e6e6f742062652030783605c1b6044820152606490fd5b156103c857565b60405162461bcd60e51b815260206004820152602160248201527f444f4553204e4f54204841564520434f4e54524143542041444d494e20524f4c6044820152604560f81b6064820152608490fd5b6001600160a01b031661042b81151561037d565b6000526000602052600160406000205416151590565b9060ff91828216151580610482575b61045990610336565b6001600160a01b031661046d81151561037d565b60005260006020526040600020541616151590565b50600f82811784161461045056fe7e9e87d17fbf2950f3379a6331b75b6e997a147bbd3eaedc68c30c62186c68cba164736f6c6343000814000a","opcodes":"PUSH1 0x80 DUP1 PUSH1 0x40 MSTORE CALLVALUE PUSH2 0x16 JUMPI PUSH2 0x4BD SWAP1 DUP2 PUSH2 0x1C DUP3 CODECOPY RETURN JUMPDEST PUSH1 0x0 DUP1 REVERT INVALID PUSH1 0x40 PUSH1 0x80 DUP2 MSTORE PUSH1 0x4 CALLDATASIZE LT ISZERO PUSH2 0x13 JUMPI PUSH1 0x0 DUP1 REVERT JUMPDEST PUSH1 0x0 SWAP1 DUP2 CALLDATALOAD PUSH1 0xE0 SHR DUP1 PUSH4 0x77D3C03 EQ PUSH2 0x184 JUMPI DUP1 PUSH4 0x3E840236 EQ PUSH2 0x93 JUMPI DUP1 PUSH4 0x8E64EAC5 EQ PUSH2 0x72 JUMPI PUSH4 0x95A8C58D EQ PUSH2 0x4B JUMPI PUSH1 0x0 DUP1 REVERT JUMPDEST CALLVALUE PUSH2 0x6E JUMPI PUSH1 0x20 SWAP1 PUSH2 0x65 PUSH2 0x5F CALLDATASIZE PUSH2 0x301 JUMP JUMPDEST SWAP1 PUSH2 0x441 JUMP JUMPDEST SWAP1 MLOAD SWAP1 ISZERO ISZERO DUP2 MSTORE RETURN JUMPDEST POP DUP1 REVERT JUMPDEST POP CALLVALUE PUSH2 0x6E JUMPI DUP2 PUSH1 0x3 NOT CALLDATASIZE ADD SLT PUSH2 0x6E JUMPI PUSH1 0x20 SWAP1 PUSH1 0xFF PUSH1 0x1 SLOAD AND SWAP1 MLOAD SWAP1 DUP2 MSTORE RETURN JUMPDEST POP CALLVALUE PUSH2 0x6E JUMPI PUSH2 0xA2 CALLDATASIZE PUSH2 0x301 JUMP JUMPDEST SWAP2 SWAP1 PUSH1 0xFF SWAP2 DUP3 DUP5 AND SWAP2 DUP3 ISZERO ISZERO DUP1 PUSH2 0x176 JUMPI JUMPDEST PUSH2 0xBD SWAP1 PUSH2 0x336 JUMP JUMPDEST PUSH1 0x1 PUSH1 0x1 PUSH1 0xA0 SHL SUB AND SWAP3 PUSH2 0xD2 DUP5 ISZERO ISZERO PUSH2 0x37D JUMP JUMPDEST PUSH2 0xE3 PUSH2 0xDE CALLER PUSH2 0x417 JUMP JUMPDEST PUSH2 0x3C1 JUMP JUMPDEST DUP4 DUP7 MSTORE DUP6 PUSH1 0x20 MSTORE PUSH1 0x1 SWAP5 DUP6 DUP1 DUP5 DUP10 KECCAK256 SLOAD AND ISZERO SWAP2 DUP3 PUSH2 0x16A JUMPI JUMPDEST POP POP PUSH2 0x138 JUMPI JUMPDEST DUP4 DUP7 MSTORE DUP6 PUSH1 0x20 MSTORE DUP2 DUP7 KECCAK256 SWAP1 DUP4 DUP3 SLOAD SWAP2 DUP3 AND OR SWAP1 PUSH1 0xFF NOT AND OR SWAP1 SSTORE MLOAD SWAP1 DUP2 MSTORE PUSH1 0x0 DUP1 MLOAD PUSH1 0x20 PUSH2 0x491 DUP4 CODECOPY DUP2 MLOAD SWAP2 MSTORE PUSH1 0x20 CALLER SWAP3 LOG4 DUP1 RETURN JUMPDEST DUP5 SLOAD DUP2 DUP2 AND DUP3 DUP2 EQ PUSH2 0x156 JUMPI DUP7 DUP4 SWAP2 ADD AND SWAP1 PUSH1 0xFF NOT AND OR DUP6 SSTORE PUSH2 0x103 JUMP JUMPDEST PUSH4 0x4E487B71 PUSH1 0xE0 SHL DUP9 MSTORE PUSH1 0x11 PUSH1 0x4 MSTORE PUSH1 0x24 DUP9 REVERT JUMPDEST AND ISZERO ISZERO SWAP1 POP DUP6 CODESIZE PUSH2 0xFC JUMP JUMPDEST POP PUSH1 0xF DUP6 DUP2 OR DUP6 AND EQ PUSH2 0xB4 JUMP JUMPDEST POP SWAP1 CALLVALUE PUSH2 0x2FE JUMPI PUSH2 0x194 CALLDATASIZE PUSH2 0x301 JUMP JUMPDEST SWAP3 PUSH1 0xFF SWAP1 DUP2 DUP6 AND SWAP2 DUP3 ISZERO ISZERO DUP1 PUSH2 0x2F0 JUMPI JUMPDEST PUSH2 0x1AE SWAP1 PUSH2 0x336 JUMP JUMPDEST PUSH1 0x1 PUSH1 0x1 PUSH1 0xA0 SHL SUB DUP5 AND SWAP4 PUSH2 0x1DB SWAP1 DUP8 SWAP1 PUSH2 0x1CA DUP8 ISZERO ISZERO PUSH2 0x37D JUMP JUMPDEST PUSH2 0x1D6 PUSH2 0xDE CALLER PUSH2 0x417 JUMP JUMPDEST PUSH2 0x441 JUMP JUMPDEST ISZERO PUSH2 0x2B6 JUMPI PUSH1 0x1 DUP7 AND PUSH2 0x221 JUMPI JUMPDEST DUP5 SWAP6 DUP5 DUP7 MSTORE DUP6 PUSH1 0x20 MSTORE DUP3 DUP7 KECCAK256 SWAP2 DUP3 SLOAD SWAP2 DUP2 DUP4 AND XOR AND SWAP1 PUSH1 0xFF NOT AND OR SWAP1 SSTORE MLOAD SWAP1 DUP2 MSTORE PUSH1 0x0 DUP1 MLOAD PUSH1 0x20 PUSH2 0x491 DUP4 CODECOPY DUP2 MLOAD SWAP2 MSTORE PUSH1 0x20 CALLER SWAP3 LOG4 DUP1 RETURN JUMPDEST PUSH1 0x1 SLOAD SWAP6 DUP2 DUP8 AND SWAP7 PUSH1 0x1 DUP9 GT ISZERO PUSH2 0x264 JUMPI DUP8 ISZERO PUSH2 0x250 JUMPI PUSH1 0xFF NOT AND PUSH1 0x0 NOT SWAP1 SWAP8 ADD DUP3 AND SWAP7 SWAP1 SWAP7 OR PUSH1 0x1 SSTORE PUSH2 0x1E9 JUMP JUMPDEST PUSH4 0x4E487B71 PUSH1 0xE0 SHL DUP8 MSTORE PUSH1 0x11 PUSH1 0x4 MSTORE PUSH1 0x24 DUP8 REVERT JUMPDEST DUP4 MLOAD PUSH3 0x461BCD PUSH1 0xE5 SHL DUP2 MSTORE PUSH1 0x20 PUSH1 0x4 DUP3 ADD MSTORE PUSH1 0x25 PUSH1 0x24 DUP3 ADD MSTORE PUSH32 0x4D7573742068617665206174206C65617374206F6E6520636F6E747261637420 PUSH1 0x44 DUP3 ADD MSTORE PUSH5 0x30B236B4B7 PUSH1 0xD9 SHL PUSH1 0x64 DUP3 ADD MSTORE PUSH1 0x84 SWAP1 REVERT JUMPDEST DUP2 MLOAD PUSH3 0x461BCD PUSH1 0xE5 SHL DUP2 MSTORE PUSH1 0x20 PUSH1 0x4 DUP3 ADD MSTORE PUSH1 0x13 PUSH1 0x24 DUP3 ADD MSTORE PUSH19 0x43414E204E4F54205245564F4B4520524F4C45 PUSH1 0x68 SHL PUSH1 0x44 DUP3 ADD MSTORE PUSH1 0x64 SWAP1 REVERT JUMPDEST POP PUSH1 0xF DUP7 DUP2 OR DUP3 AND EQ PUSH2 0x1A5 JUMP JUMPDEST DUP1 REVERT JUMPDEST PUSH1 0x40 SWAP1 PUSH1 0x3 NOT ADD SLT PUSH2 0x331 JUMPI PUSH1 0x4 CALLDATALOAD PUSH1 0x1 PUSH1 0x1 PUSH1 0xA0 SHL SUB DUP2 AND DUP2 SUB PUSH2 0x331 JUMPI SWAP1 PUSH1 0x24 CALLDATALOAD PUSH1 0xFF DUP2 AND DUP2 SUB PUSH2 0x331 JUMPI SWAP1 JUMP JUMPDEST PUSH1 0x0 DUP1 REVERT JUMPDEST ISZERO PUSH2 0x33D JUMPI JUMP JUMPDEST PUSH1 0x40 MLOAD PUSH3 0x461BCD PUSH1 0xE5 SHL DUP2 MSTORE PUSH1 0x20 PUSH1 0x4 DUP3 ADD MSTORE PUSH1 0x18 PUSH1 0x24 DUP3 ADD MSTORE PUSH24 0x444F4553204E4F5420484156452056414C494420524F4C45 PUSH1 0x40 SHL PUSH1 0x44 DUP3 ADD MSTORE PUSH1 0x64 SWAP1 REVERT JUMPDEST ISZERO PUSH2 0x384 JUMPI JUMP JUMPDEST PUSH1 0x40 MLOAD PUSH3 0x461BCD PUSH1 0xE5 SHL DUP2 MSTORE PUSH1 0x20 PUSH1 0x4 DUP3 ADD MSTORE PUSH1 0x15 PUSH1 0x24 DUP3 ADD MSTORE PUSH21 0x416464726573732063616E6E6F742062652030783 PUSH1 0x5C SHL PUSH1 0x44 DUP3 ADD MSTORE PUSH1 0x64 SWAP1 REVERT JUMPDEST ISZERO PUSH2 0x3C8 JUMPI JUMP JUMPDEST PUSH1 0x40 MLOAD PUSH3 0x461BCD PUSH1 0xE5 SHL DUP2 MSTORE PUSH1 0x20 PUSH1 0x4 DUP3 ADD MSTORE PUSH1 0x21 PUSH1 0x24 DUP3 ADD MSTORE PUSH32 0x444F4553204E4F54204841564520434F4E54524143542041444D494E20524F4C PUSH1 0x44 DUP3 ADD MSTORE PUSH1 0x45 PUSH1 0xF8 SHL PUSH1 0x64 DUP3 ADD MSTORE PUSH1 0x84 SWAP1 REVERT JUMPDEST PUSH1 0x1 PUSH1 0x1 PUSH1 0xA0 SHL SUB AND PUSH2 0x42B DUP2 ISZERO ISZERO PUSH2 0x37D JUMP JUMPDEST PUSH1 0x0 MSTORE PUSH1 0x0 PUSH1 0x20 MSTORE PUSH1 0x1 PUSH1 0x40 PUSH1 0x0 KECCAK256 SLOAD AND ISZERO ISZERO SWAP1 JUMP JUMPDEST SWAP1 PUSH1 0xFF SWAP2 DUP3 DUP3 AND ISZERO ISZERO DUP1 PUSH2 0x482 JUMPI JUMPDEST PUSH2 0x459 SWAP1 PUSH2 0x336 JUMP JUMPDEST PUSH1 0x1 PUSH1 0x1 PUSH1 0xA0 SHL SUB AND PUSH2 0x46D DUP2 ISZERO ISZERO PUSH2 0x37D JUMP JUMPDEST PUSH1 0x0 MSTORE PUSH1 0x0 PUSH1 0x20 MSTORE PUSH1 0x40 PUSH1 0x0 KECCAK256 SLOAD AND AND ISZERO ISZERO SWAP1 JUMP JUMPDEST POP PUSH1 0xF DUP3 DUP2 OR DUP5 AND EQ PUSH2 0x450 JUMP INVALID PUSH31 0x9E87D17FBF2950F3379A6331B75B6E997A147BBD3EAEDC68C30C62186C68CB LOG1 PUSH5 0x736F6C6343 STOP ADDMOD EQ STOP EXP "},"methodIdentifiers":{"contractAdminCount()":"8e64eac5","grantRole(address,uint8)":"3e840236","hasRole(address,uint8)":"95a8c58d","revokeRole(address,uint8)":"077d3c03"}}}}}