{"contracts/WrappedAsset.sol":{"WrappedAsset":{"abi":[{"inputs":[{"internalType":"string","name":"_name","type":"string"},{"internalType":"string","name":"_symbol","type":"string"},{"internalType":"bytes32","name":"_documentHash","type":"bytes32"},{"internalType":"string","name":"_documentType","type":"string"},{"internalType":"uint256","name":"_originalValue","type":"uint256"}],"stateMutability":"nonpayable","type":"constructor"},{"inputs":[],"name":"InsufficientAllowance","type":"error"},{"inputs":[],"name":"InsufficientBalance","type":"error"},{"inputs":[],"name":"OnlyFactory","type":"error"},{"inputs":[],"name":"ZeroAddress","type":"error"},{"anonymous":false,"inputs":[{"indexed":true,"internalType":"address","name":"owner","type":"address"},{"indexed":true,"internalType":"address","name":"spender","type":"address"},{"indexed":false,"internalType":"uint256","name":"value","type":"uint256"}],"name":"Approval","type":"event"},{"anonymous":false,"inputs":[{"indexed":true,"internalType":"address","name":"from","type":"address"},{"indexed":true,"internalType":"address","name":"to","type":"address"},{"indexed":false,"internalType":"uint256","name":"value","type":"uint256"}],"name":"Transfer","type":"event"},{"inputs":[{"internalType":"address","name":"","type":"address"},{"internalType":"address","name":"","type":"address"}],"name":"allowance","outputs":[{"internalType":"uint256","name":"","type":"uint256"}],"stateMutability":"view","type":"function"},{"inputs":[{"internalType":"address","name":"spender","type":"address"},{"internalType":"uint256","name":"amount","type":"uint256"}],"name":"approve","outputs":[{"internalType":"bool","name":"success","type":"bool"}],"stateMutability":"nonpayable","type":"function"},{"inputs":[{"internalType":"address","name":"","type":"address"}],"name":"balanceOf","outputs":[{"internalType":"uint256","name":"","type":"uint256"}],"stateMutability":"view","type":"function"},{"inputs":[{"internalType":"uint256","name":"amount","type":"uint256"}],"name":"burn","outputs":[],"stateMutability":"nonpayable","type":"function"},{"inputs":[],"name":"decimals","outputs":[{"internalType":"uint8","name":"","type":"uint8"}],"stateMutability":"view","type":"function"},{"inputs":[],"name":"documentHash","outputs":[{"internalType":"bytes32","name":"","type":"bytes32"}],"stateMutability":"view","type":"function"},{"inputs":[],"name":"documentType","outputs":[{"internalType":"string","name":"","type":"string"}],"stateMutability":"view","type":"function"},{"inputs":[],"name":"factory","outputs":[{"internalType":"address","name":"","type":"address"}],"stateMutability":"view","type":"function"},{"inputs":[{"internalType":"address","name":"to","type":"address"},{"internalType":"uint256","name":"amount","type":"uint256"}],"name":"mint","outputs":[],"stateMutability":"nonpayable","type":"function"},{"inputs":[],"name":"name","outputs":[{"internalType":"string","name":"","type":"string"}],"stateMutability":"view","type":"function"},{"inputs":[],"name":"originalValue","outputs":[{"internalType":"uint256","name":"","type":"uint256"}],"stateMutability":"view","type":"function"},{"inputs":[],"name":"symbol","outputs":[{"internalType":"string","name":"","type":"string"}],"stateMutability":"view","type":"function"},{"inputs":[],"name":"totalSupply","outputs":[{"internalType":"uint256","name":"","type":"uint256"}],"stateMutability":"view","type":"function"},{"inputs":[{"internalType":"address","name":"to","type":"address"},{"internalType":"uint256","name":"amount","type":"uint256"}],"name":"transfer","outputs":[{"internalType":"bool","name":"success","type":"bool"}],"stateMutability":"nonpayable","type":"function"},{"inputs":[{"internalType":"address","name":"from","type":"address"},{"internalType":"address","name":"to","type":"address"},{"internalType":"uint256","name":"amount","type":"uint256"}],"name":"transferFrom","outputs":[{"internalType":"bool","name":"success","type":"bool"}],"stateMutability":"nonpayable","type":"function"}],"evm":{"bytecode":{"linkReferences":{},"object":"60a060405234620004a15762000e96803803806200001d81620004a6565b928339810160a082820312620004a15781516001600160401b0390818111620004a157826200004e918501620004cc565b60209283850151838111620004a157816200006b918701620004cc565b946040810151916060820151858111620004a1576080916200008f918401620004cc565b910151958351928584116200048b576000918254946001968787811c9716801562000480575b8a88101462000389578190601f978881116200042d575b508a90888311600114620003c8578692620003bc575b5050600019600383901b1c191690871b1783555b805190878211620003a85786548781811c911680156200039d575b8a821014620003895790818784931162000336575b508990878311600114620002d2578592620002c6575b5050600019600383901b1c191690861b1785555b6005558151948511620002b2576006548481811c91168015620002a7575b8782101462000293578381116200024a575b5085928511600114620001e1579394508492919083620001d5575b50501b916000199060031b1c1916176006555b6007553360805260405161095790816200053f823960805181818161012801526105020152f35b0151925038806200019b565b6006815285812093958591601f198316915b888383106200022f575050501062000215575b505050811b01600655620001ae565b015160001960f88460031b161c1916905538808062000206565b858701518855909601959485019487935090810190620001f3565b600682528682208480880160051c82019289891062000289575b0160051c019085905b8281106200027d57505062000180565b8381550185906200026d565b9250819262000264565b634e487b7160e01b82526022600452602482fd5b90607f16906200016e565b634e487b7160e01b81526041600452602490fd5b0151905038806200013c565b8886528a86208994509190601f198416875b8d8282106200031f575050841162000305575b505050811b01855562000150565b015160001960f88460031b161c19169055388080620002f7565b8385015186558c97909501949384019301620002e4565b9091508785528985208780850160051c8201928c86106200037f575b918a91869594930160051c01915b8281106200037057505062000126565b8781558594508a910162000360565b9250819262000352565b634e487b7160e01b85526022600452602485fd5b90607f169062000111565b634e487b7160e01b84526041600452602484fd5b015190503880620000e2565b8680528b87208a94509190601f198416888e5b828210620004155750508411620003fb575b505050811b018355620000f6565b015160001960f88460031b161c19169055388080620003ed565b8385015186558d979095019493840193018e620003db565b9091508580528a86208880850160051c8201928d861062000476575b918b91869594930160051c01915b82811062000467575050620000cc565b8881558594508b910162000457565b9250819262000449565b96607f1696620000b5565b634e487b7160e01b600052604160045260246000fd5b600080fd5b6040519190601f01601f191682016001600160401b038111838210176200048b57604052565b919080601f84011215620004a15782516001600160401b0381116200048b5760209062000502601f8201601f19168301620004a6565b92818452828287010111620004a15760005b8181106200052a57508260009394955001015290565b85810183015184820184015282016200051456fe6080604081815260048036101561001557600080fd5b600092833560e01c908163052aa7e1146108485750806306fdde031461076f578063095ea7b3146106eb57806318160ddd146106cc57806323b872dd146105ae578063313ce5671461059257806340c10f19146104d857806342966c681461044e57806370a0823114610416578063797bec77146103f757806395d89b411461031d578063a9059cbb1461027d578063b7fbc8b41461015b578063c45a0155146101135763dd62ed3e146100c857600080fd5b3461010f578160031936011261010f5760209282916100e56108ad565b6100ed6108c8565b6001600160a01b03918216845291865283832091168252845220549051908152f35b8280fd5b505034610157578160031936011261015757517f00000000000000000000000000000000000000000000000000000000000000006001600160a01b03168152602090f35b5080fd5b5091903461015757816003193601126101575780519082600654600181811c90808316928315610273575b60209384841081146102605783885290811561024457506001146101ee575b505050829003601f01601f191682019267ffffffffffffffff8411838510176101db57508291826101d7925282610864565b0390f35b634e487b7160e01b815260418552602490fd5b600687529192508591837ff652222313e28459528d920b65115c16c04f3efc82aaedc97be59f3f377c0d3f5b83851061023057505050508301013880806101a5565b80548886018301529301928490820161021a565b60ff1916878501525050151560051b84010190503880806101a5565b634e487b7160e01b895260228a52602489fd5b91607f1691610186565b503461010f578160031936011261010f576102966108ad565b6001600160a01b03169060243590821561030f57338552600360205281848620541061030157508260209433815260038652818120838154039055838152206102e08282546108de565b90558251908152600080516020610902833981519152843392a35160018152f35b8351631e9acf1760e31b8152fd5b835163d92e233d60e01b8152fd5b5091903461015757816003193601126101575780519082600180549081811c908083169283156103ed575b602093848410811461026057838852908115610244575060011461039857505050829003601f01601f191682019267ffffffffffffffff8411838510176101db57508291826101d7925282610864565b8087529192508591837fb10e2d527612073b26eecdfd717e6a320cf44b4afac2b0732d9fcbe2b7fa0cf65b8385106103d957505050508301013880806101a5565b8054888601830152930192849082016103c3565b91607f1691610348565b5050346101575781600319360112610157576020906005549051908152f35b5050346101575760203660031901126101575760209181906001600160a01b0361043e6108ad565b1681526003845220549051908152f35b509190346101575760203660031901126101575782359033835260036020528181842054106104c95733835260036020528083208281540390556002548281039081116104b6578394506002555190815260008051602061090283398151915260203392a380f35b634e487b7160e01b845260118552602484fd5b51631e9acf1760e31b81528390fd5b50903461010f578060031936011261010f576104f26108ad565b60243591906001600160a01b03907f000000000000000000000000000000000000000000000000000000000000000082163303610582571692831561057457506020826000805160206109028339815191529261055287956002546108de565b6002558585526003835280852061056a8382546108de565b905551908152a380f35b905163d92e233d60e01b8152fd5b8251630636a15760e11b81528590fd5b5050346101575781600319360112610157576020905160128152f35b5091346106c95760603660031901126106c9576105c96108ad565b906105d26108c8565b6001600160a01b039081169260443592919084156106b9571691828252602095600387528186842054106106ab5790858792858552808452818520338652845281852054906000198203610661575b50508385600080516020610902833981519152955260038452818120838154039055868152206106528282546108de565b90558551908152a35160018152f35b91509180949350821061069d57828460008051602061090283398151915295938993888c97528652838320338452865203828220559338610621565b86516313be252b60e01b8152fd5b8551631e9acf1760e31b8152fd5b855163d92e233d60e01b81528790fd5b80fd5b5050346101575781600319360112610157576020906002549051908152f35b5091346106c957816003193601126106c9576107056108ad565b6001600160a01b03169060243590821561075f5783829160209633825287528181208582528752205582519081527f8c5be1e5ebec7d5bd14f71427d1e84f3dd0314c0f7b2291e5b200ac8c7c3b925843392a35160018152f35b5050505163d92e233d60e01b8152fd5b50919034610157578160031936011261015757805190828354600181811c9080831692831561083e575b60209384841081146102605783885290811561024457506001146107e957505050829003601f01601f191682019267ffffffffffffffff8411838510176101db57508291826101d7925282610864565b8680529192508591837f290decd9548b62a8d60345a988386fc84ba6bc95484008f6362f93160ef3e5635b83851061082a57505050508301013880806101a5565b805488860183015293019284908201610814565b91607f1691610799565b8490346101575781600319360112610157576020906007548152f35b6020808252825181830181905290939260005b82811061089957505060409293506000838284010152601f8019910116010190565b818101860151848201604001528501610877565b600435906001600160a01b03821682036108c357565b600080fd5b602435906001600160a01b03821682036108c357565b919082018092116108eb57565b634e487b7160e01b600052601160045260246000fdfeddf252ad1be2c89b69c2b068fc378daa952ba7f163c4a11628f55a4df523b3efa2646970667358221220efd55ec57860876ee32b2b7479bb08029d5e00ecbcb46c4d57602886ef66764a64736f6c63430008140033","opcodes":"PUSH1 0xA0 PUSH1 0x40 MSTORE CALLVALUE PUSH3 0x4A1 JUMPI PUSH3 0xE96 DUP1 CODESIZE SUB DUP1 PUSH3 0x1D DUP2 PUSH3 0x4A6 JUMP JUMPDEST SWAP3 DUP4 CODECOPY DUP2 ADD PUSH1 0xA0 DUP3 DUP3 SUB SLT PUSH3 0x4A1 JUMPI DUP2 MLOAD PUSH1 0x1 PUSH1 0x1 PUSH1 0x40 SHL SUB SWAP1 DUP2 DUP2 GT PUSH3 0x4A1 JUMPI DUP3 PUSH3 0x4E SWAP2 DUP6 ADD PUSH3 0x4CC JUMP JUMPDEST PUSH1 0x20 SWAP3 DUP4 DUP6 ADD MLOAD DUP4 DUP2 GT PUSH3 0x4A1 JUMPI DUP2 PUSH3 0x6B SWAP2 DUP8 ADD PUSH3 0x4CC JUMP JUMPDEST SWAP5 PUSH1 0x40 DUP2 ADD MLOAD SWAP2 PUSH1 0x60 DUP3 ADD MLOAD DUP6 DUP2 GT PUSH3 0x4A1 JUMPI PUSH1 0x80 SWAP2 PUSH3 0x8F SWAP2 DUP5 ADD PUSH3 0x4CC JUMP JUMPDEST SWAP2 ADD MLOAD SWAP6 DUP4 MLOAD SWAP3 DUP6 DUP5 GT PUSH3 0x48B JUMPI PUSH1 0x0 SWAP2 DUP3 SLOAD SWAP5 PUSH1 0x1 SWAP7 DUP8 DUP8 DUP2 SHR SWAP8 AND DUP1 ISZERO PUSH3 0x480 JUMPI JUMPDEST DUP11 DUP9 LT EQ PUSH3 0x389 JUMPI DUP2 SWAP1 PUSH1 0x1F SWAP8 DUP9 DUP2 GT PUSH3 0x42D JUMPI JUMPDEST POP DUP11 SWAP1 DUP9 DUP4 GT PUSH1 0x1 EQ PUSH3 0x3C8 JUMPI DUP7 SWAP3 PUSH3 0x3BC JUMPI JUMPDEST POP POP PUSH1 0x0 NOT PUSH1 0x3 DUP4 SWAP1 SHL SHR NOT AND SWAP1 DUP8 SHL OR DUP4 SSTORE JUMPDEST DUP1 MLOAD SWAP1 DUP8 DUP3 GT PUSH3 0x3A8 JUMPI DUP7 SLOAD DUP8 DUP2 DUP2 SHR SWAP2 AND DUP1 ISZERO PUSH3 0x39D JUMPI JUMPDEST DUP11 DUP3 LT EQ PUSH3 0x389 JUMPI SWAP1 DUP2 DUP8 DUP5 SWAP4 GT PUSH3 0x336 JUMPI JUMPDEST POP DUP10 SWAP1 DUP8 DUP4 GT PUSH1 0x1 EQ PUSH3 0x2D2 JUMPI DUP6 SWAP3 PUSH3 0x2C6 JUMPI JUMPDEST POP POP PUSH1 0x0 NOT PUSH1 0x3 DUP4 SWAP1 SHL SHR NOT AND SWAP1 DUP7 SHL OR DUP6 SSTORE JUMPDEST PUSH1 0x5 SSTORE DUP2 MLOAD SWAP5 DUP6 GT PUSH3 0x2B2 JUMPI PUSH1 0x6 SLOAD DUP5 DUP2 DUP2 SHR SWAP2 AND DUP1 ISZERO PUSH3 0x2A7 JUMPI JUMPDEST DUP8 DUP3 LT EQ PUSH3 0x293 JUMPI DUP4 DUP2 GT PUSH3 0x24A JUMPI JUMPDEST POP DUP6 SWAP3 DUP6 GT PUSH1 0x1 EQ PUSH3 0x1E1 JUMPI SWAP4 SWAP5 POP DUP5 SWAP3 SWAP2 SWAP1 DUP4 PUSH3 0x1D5 JUMPI JUMPDEST POP POP SHL SWAP2 PUSH1 0x0 NOT SWAP1 PUSH1 0x3 SHL SHR NOT AND OR PUSH1 0x6 SSTORE JUMPDEST PUSH1 0x7 SSTORE CALLER PUSH1 0x80 MSTORE PUSH1 0x40 MLOAD PUSH2 0x957 SWAP1 DUP2 PUSH3 0x53F DUP3 CODECOPY PUSH1 0x80 MLOAD DUP2 DUP2 DUP2 PUSH2 0x128 ADD MSTORE PUSH2 0x502 ADD MSTORE RETURN JUMPDEST ADD MLOAD SWAP3 POP CODESIZE DUP1 PUSH3 0x19B JUMP JUMPDEST PUSH1 0x6 DUP2 MSTORE DUP6 DUP2 KECCAK256 SWAP4 SWAP6 DUP6 SWAP2 PUSH1 0x1F NOT DUP4 AND SWAP2 JUMPDEST DUP9 DUP4 DUP4 LT PUSH3 0x22F JUMPI POP POP POP LT PUSH3 0x215 JUMPI JUMPDEST POP POP POP DUP2 SHL ADD PUSH1 0x6 SSTORE PUSH3 0x1AE JUMP JUMPDEST ADD MLOAD PUSH1 0x0 NOT PUSH1 0xF8 DUP5 PUSH1 0x3 SHL AND SHR NOT AND SWAP1 SSTORE CODESIZE DUP1 DUP1 PUSH3 0x206 JUMP JUMPDEST DUP6 DUP8 ADD MLOAD DUP9 SSTORE SWAP1 SWAP7 ADD SWAP6 SWAP5 DUP6 ADD SWAP5 DUP8 SWAP4 POP SWAP1 DUP2 ADD SWAP1 PUSH3 0x1F3 JUMP JUMPDEST PUSH1 0x6 DUP3 MSTORE DUP7 DUP3 KECCAK256 DUP5 DUP1 DUP9 ADD PUSH1 0x5 SHR DUP3 ADD SWAP3 DUP10 DUP10 LT PUSH3 0x289 JUMPI JUMPDEST ADD PUSH1 0x5 SHR ADD SWAP1 DUP6 SWAP1 JUMPDEST DUP3 DUP2 LT PUSH3 0x27D JUMPI POP POP PUSH3 0x180 JUMP JUMPDEST DUP4 DUP2 SSTORE ADD DUP6 SWAP1 PUSH3 0x26D JUMP JUMPDEST SWAP3 POP DUP2 SWAP3 PUSH3 0x264 JUMP JUMPDEST PUSH4 0x4E487B71 PUSH1 0xE0 SHL DUP3 MSTORE PUSH1 0x22 PUSH1 0x4 MSTORE PUSH1 0x24 DUP3 REVERT JUMPDEST SWAP1 PUSH1 0x7F AND SWAP1 PUSH3 0x16E JUMP JUMPDEST PUSH4 0x4E487B71 PUSH1 0xE0 SHL DUP2 MSTORE PUSH1 0x41 PUSH1 0x4 MSTORE PUSH1 0x24 SWAP1 REVERT JUMPDEST ADD MLOAD SWAP1 POP CODESIZE DUP1 PUSH3 0x13C JUMP JUMPDEST DUP9 DUP7 MSTORE DUP11 DUP7 KECCAK256 DUP10 SWAP5 POP SWAP2 SWAP1 PUSH1 0x1F NOT DUP5 AND DUP8 JUMPDEST DUP14 DUP3 DUP3 LT PUSH3 0x31F JUMPI POP POP DUP5 GT PUSH3 0x305 JUMPI JUMPDEST POP POP POP DUP2 SHL ADD DUP6 SSTORE PUSH3 0x150 JUMP JUMPDEST ADD MLOAD PUSH1 0x0 NOT PUSH1 0xF8 DUP5 PUSH1 0x3 SHL AND SHR NOT AND SWAP1 SSTORE CODESIZE DUP1 DUP1 PUSH3 0x2F7 JUMP JUMPDEST DUP4 DUP6 ADD MLOAD DUP7 SSTORE DUP13 SWAP8 SWAP1 SWAP6 ADD SWAP5 SWAP4 DUP5 ADD SWAP4 ADD PUSH3 0x2E4 JUMP JUMPDEST SWAP1 SWAP2 POP DUP8 DUP6 MSTORE DUP10 DUP6 KECCAK256 DUP8 DUP1 DUP6 ADD PUSH1 0x5 SHR DUP3 ADD SWAP3 DUP13 DUP7 LT PUSH3 0x37F JUMPI JUMPDEST SWAP2 DUP11 SWAP2 DUP7 SWAP6 SWAP5 SWAP4 ADD PUSH1 0x5 SHR ADD SWAP2 JUMPDEST DUP3 DUP2 LT PUSH3 0x370 JUMPI POP POP PUSH3 0x126 JUMP JUMPDEST DUP8 DUP2 SSTORE DUP6 SWAP5 POP DUP11 SWAP2 ADD PUSH3 0x360 JUMP JUMPDEST SWAP3 POP DUP2 SWAP3 PUSH3 0x352 JUMP JUMPDEST PUSH4 0x4E487B71 PUSH1 0xE0 SHL DUP6 MSTORE PUSH1 0x22 PUSH1 0x4 MSTORE PUSH1 0x24 DUP6 REVERT JUMPDEST SWAP1 PUSH1 0x7F AND SWAP1 PUSH3 0x111 JUMP JUMPDEST PUSH4 0x4E487B71 PUSH1 0xE0 SHL DUP5 MSTORE PUSH1 0x41 PUSH1 0x4 MSTORE PUSH1 0x24 DUP5 REVERT JUMPDEST ADD MLOAD SWAP1 POP CODESIZE DUP1 PUSH3 0xE2 JUMP JUMPDEST DUP7 DUP1 MSTORE DUP12 DUP8 KECCAK256 DUP11 SWAP5 POP SWAP2 SWAP1 PUSH1 0x1F NOT DUP5 AND DUP9 DUP15 JUMPDEST DUP3 DUP3 LT PUSH3 0x415 JUMPI POP POP DUP5 GT PUSH3 0x3FB JUMPI JUMPDEST POP POP POP DUP2 SHL ADD DUP4 SSTORE PUSH3 0xF6 JUMP JUMPDEST ADD MLOAD PUSH1 0x0 NOT PUSH1 0xF8 DUP5 PUSH1 0x3 SHL AND SHR NOT AND SWAP1 SSTORE CODESIZE DUP1 DUP1 PUSH3 0x3ED JUMP JUMPDEST DUP4 DUP6 ADD MLOAD DUP7 SSTORE DUP14 SWAP8 SWAP1 SWAP6 ADD SWAP5 SWAP4 DUP5 ADD SWAP4 ADD DUP15 PUSH3 0x3DB JUMP JUMPDEST SWAP1 SWAP2 POP DUP6 DUP1 MSTORE DUP11 DUP7 KECCAK256 DUP9 DUP1 DUP6 ADD PUSH1 0x5 SHR DUP3 ADD SWAP3 DUP14 DUP7 LT PUSH3 0x476 JUMPI JUMPDEST SWAP2 DUP12 SWAP2 DUP7 SWAP6 SWAP5 SWAP4 ADD PUSH1 0x5 SHR ADD SWAP2 JUMPDEST DUP3 DUP2 LT PUSH3 0x467 JUMPI POP POP PUSH3 0xCC JUMP JUMPDEST DUP9 DUP2 SSTORE DUP6 SWAP5 POP DUP12 SWAP2 ADD PUSH3 0x457 JUMP JUMPDEST SWAP3 POP DUP2 SWAP3 PUSH3 0x449 JUMP JUMPDEST SWAP7 PUSH1 0x7F AND SWAP7 PUSH3 0xB5 JUMP JUMPDEST PUSH4 0x4E487B71 PUSH1 0xE0 SHL PUSH1 0x0 MSTORE PUSH1 0x41 PUSH1 0x4 MSTORE PUSH1 0x24 PUSH1 0x0 REVERT JUMPDEST PUSH1 0x0 DUP1 REVERT JUMPDEST PUSH1 0x40 MLOAD SWAP2 SWAP1 PUSH1 0x1F ADD PUSH1 0x1F NOT AND DUP3 ADD PUSH1 0x1 PUSH1 0x1 PUSH1 0x40 SHL SUB DUP2 GT DUP4 DUP3 LT OR PUSH3 0x48B JUMPI PUSH1 0x40 MSTORE JUMP JUMPDEST SWAP2 SWAP1 DUP1 PUSH1 0x1F DUP5 ADD SLT ISZERO PUSH3 0x4A1 JUMPI DUP3 MLOAD PUSH1 0x1 PUSH1 0x1 PUSH1 0x40 SHL SUB DUP2 GT PUSH3 0x48B JUMPI PUSH1 0x20 SWAP1 PUSH3 0x502 PUSH1 0x1F DUP3 ADD PUSH1 0x1F NOT AND DUP4 ADD PUSH3 0x4A6 JUMP JUMPDEST SWAP3 DUP2 DUP5 MSTORE DUP3 DUP3 DUP8 ADD ADD GT PUSH3 0x4A1 JUMPI PUSH1 0x0 JUMPDEST DUP2 DUP2 LT PUSH3 0x52A JUMPI POP DUP3 PUSH1 0x0 SWAP4 SWAP5 SWAP6 POP ADD ADD MSTORE SWAP1 JUMP JUMPDEST DUP6 DUP2 ADD DUP4 ADD MLOAD DUP5 DUP3 ADD DUP5 ADD MSTORE DUP3 ADD PUSH3 0x514 JUMP INVALID PUSH1 0x80 PUSH1 0x40 DUP2 DUP2 MSTORE PUSH1 0x4 DUP1 CALLDATASIZE LT ISZERO PUSH2 0x15 JUMPI PUSH1 0x0 DUP1 REVERT JUMPDEST PUSH1 0x0 SWAP3 DUP4 CALLDATALOAD PUSH1 0xE0 SHR SWAP1 DUP2 PUSH4 0x52AA7E1 EQ PUSH2 0x848 JUMPI POP DUP1 PUSH4 0x6FDDE03 EQ PUSH2 0x76F JUMPI DUP1 PUSH4 0x95EA7B3 EQ PUSH2 0x6EB JUMPI DUP1 PUSH4 0x18160DDD EQ PUSH2 0x6CC JUMPI DUP1 PUSH4 0x23B872DD EQ PUSH2 0x5AE JUMPI DUP1 PUSH4 0x313CE567 EQ PUSH2 0x592 JUMPI DUP1 PUSH4 0x40C10F19 EQ PUSH2 0x4D8 JUMPI DUP1 PUSH4 0x42966C68 EQ PUSH2 0x44E JUMPI DUP1 PUSH4 0x70A08231 EQ PUSH2 0x416 JUMPI DUP1 PUSH4 0x797BEC77 EQ PUSH2 0x3F7 JUMPI DUP1 PUSH4 0x95D89B41 EQ PUSH2 0x31D JUMPI DUP1 PUSH4 0xA9059CBB EQ PUSH2 0x27D JUMPI DUP1 PUSH4 0xB7FBC8B4 EQ PUSH2 0x15B JUMPI DUP1 PUSH4 0xC45A0155 EQ PUSH2 0x113 JUMPI PUSH4 0xDD62ED3E EQ PUSH2 0xC8 JUMPI PUSH1 0x0 DUP1 REVERT JUMPDEST CALLVALUE PUSH2 0x10F JUMPI DUP2 PUSH1 0x3 NOT CALLDATASIZE ADD SLT PUSH2 0x10F JUMPI PUSH1 0x20 SWAP3 DUP3 SWAP2 PUSH2 0xE5 PUSH2 0x8AD JUMP JUMPDEST PUSH2 0xED PUSH2 0x8C8 JUMP JUMPDEST PUSH1 0x1 PUSH1 0x1 PUSH1 0xA0 SHL SUB SWAP2 DUP3 AND DUP5 MSTORE SWAP2 DUP7 MSTORE DUP4 DUP4 KECCAK256 SWAP2 AND DUP3 MSTORE DUP5 MSTORE KECCAK256 SLOAD SWAP1 MLOAD SWAP1 DUP2 MSTORE RETURN JUMPDEST DUP3 DUP1 REVERT JUMPDEST POP POP CALLVALUE PUSH2 0x157 JUMPI DUP2 PUSH1 0x3 NOT CALLDATASIZE ADD SLT PUSH2 0x157 JUMPI MLOAD PUSH32 0x0 PUSH1 0x1 PUSH1 0x1 PUSH1 0xA0 SHL SUB AND DUP2 MSTORE PUSH1 0x20 SWAP1 RETURN JUMPDEST POP DUP1 REVERT JUMPDEST POP SWAP2 SWAP1 CALLVALUE PUSH2 0x157 JUMPI DUP2 PUSH1 0x3 NOT CALLDATASIZE ADD SLT PUSH2 0x157 JUMPI DUP1 MLOAD SWAP1 DUP3 PUSH1 0x6 SLOAD PUSH1 0x1 DUP2 DUP2 SHR SWAP1 DUP1 DUP4 AND SWAP3 DUP4 ISZERO PUSH2 0x273 JUMPI JUMPDEST PUSH1 0x20 SWAP4 DUP5 DUP5 LT DUP2 EQ PUSH2 0x260 JUMPI DUP4 DUP9 MSTORE SWAP1 DUP2 ISZERO PUSH2 0x244 JUMPI POP PUSH1 0x1 EQ PUSH2 0x1EE JUMPI JUMPDEST POP POP POP DUP3 SWAP1 SUB PUSH1 0x1F ADD PUSH1 0x1F NOT AND DUP3 ADD SWAP3 PUSH8 0xFFFFFFFFFFFFFFFF DUP5 GT DUP4 DUP6 LT OR PUSH2 0x1DB JUMPI POP DUP3 SWAP2 DUP3 PUSH2 0x1D7 SWAP3 MSTORE DUP3 PUSH2 0x864 JUMP JUMPDEST SUB SWAP1 RETURN JUMPDEST PUSH4 0x4E487B71 PUSH1 0xE0 SHL DUP2 MSTORE PUSH1 0x41 DUP6 MSTORE PUSH1 0x24 SWAP1 REVERT JUMPDEST PUSH1 0x6 DUP8 MSTORE SWAP2 SWAP3 POP DUP6 SWAP2 DUP4 PUSH32 0xF652222313E28459528D920B65115C16C04F3EFC82AAEDC97BE59F3F377C0D3F JUMPDEST DUP4 DUP6 LT PUSH2 0x230 JUMPI POP POP POP POP DUP4 ADD ADD CODESIZE DUP1 DUP1 PUSH2 0x1A5 JUMP JUMPDEST DUP1 SLOAD DUP9 DUP7 ADD DUP4 ADD MSTORE SWAP4 ADD SWAP3 DUP5 SWAP1 DUP3 ADD PUSH2 0x21A JUMP JUMPDEST PUSH1 0xFF NOT AND DUP8 DUP6 ADD MSTORE POP POP ISZERO ISZERO PUSH1 0x5 SHL DUP5 ADD ADD SWAP1 POP CODESIZE DUP1 DUP1 PUSH2 0x1A5 JUMP JUMPDEST PUSH4 0x4E487B71 PUSH1 0xE0 SHL DUP10 MSTORE PUSH1 0x22 DUP11 MSTORE PUSH1 0x24 DUP10 REVERT JUMPDEST SWAP2 PUSH1 0x7F AND SWAP2 PUSH2 0x186 JUMP JUMPDEST POP CALLVALUE PUSH2 0x10F JUMPI DUP2 PUSH1 0x3 NOT CALLDATASIZE ADD SLT PUSH2 0x10F JUMPI PUSH2 0x296 PUSH2 0x8AD JUMP JUMPDEST PUSH1 0x1 PUSH1 0x1 PUSH1 0xA0 SHL SUB AND SWAP1 PUSH1 0x24 CALLDATALOAD SWAP1 DUP3 ISZERO PUSH2 0x30F JUMPI CALLER DUP6 MSTORE PUSH1 0x3 PUSH1 0x20 MSTORE DUP2 DUP5 DUP7 KECCAK256 SLOAD LT PUSH2 0x301 JUMPI POP DUP3 PUSH1 0x20 SWAP5 CALLER DUP2 MSTORE PUSH1 0x3 DUP7 MSTORE DUP2 DUP2 KECCAK256 DUP4 DUP2 SLOAD SUB SWAP1 SSTORE DUP4 DUP2 MSTORE KECCAK256 PUSH2 0x2E0 DUP3 DUP3 SLOAD PUSH2 0x8DE JUMP JUMPDEST SWAP1 SSTORE DUP3 MLOAD SWAP1 DUP2 MSTORE PUSH1 0x0 DUP1 MLOAD PUSH1 0x20 PUSH2 0x902 DUP4 CODECOPY DUP2 MLOAD SWAP2 MSTORE DUP5 CALLER SWAP3 LOG3 MLOAD PUSH1 0x1 DUP2 MSTORE RETURN JUMPDEST DUP4 MLOAD PUSH4 0x1E9ACF17 PUSH1 0xE3 SHL DUP2 MSTORE REVERT JUMPDEST DUP4 MLOAD PUSH4 0xD92E233D PUSH1 0xE0 SHL DUP2 MSTORE REVERT JUMPDEST POP SWAP2 SWAP1 CALLVALUE PUSH2 0x157 JUMPI DUP2 PUSH1 0x3 NOT CALLDATASIZE ADD SLT PUSH2 0x157 JUMPI DUP1 MLOAD SWAP1 DUP3 PUSH1 0x1 DUP1 SLOAD SWAP1 DUP2 DUP2 SHR SWAP1 DUP1 DUP4 AND SWAP3 DUP4 ISZERO PUSH2 0x3ED JUMPI JUMPDEST PUSH1 0x20 SWAP4 DUP5 DUP5 LT DUP2 EQ PUSH2 0x260 JUMPI DUP4 DUP9 MSTORE SWAP1 DUP2 ISZERO PUSH2 0x244 JUMPI POP PUSH1 0x1 EQ PUSH2 0x398 JUMPI POP POP POP DUP3 SWAP1 SUB PUSH1 0x1F ADD PUSH1 0x1F NOT AND DUP3 ADD SWAP3 PUSH8 0xFFFFFFFFFFFFFFFF DUP5 GT DUP4 DUP6 LT OR PUSH2 0x1DB JUMPI POP DUP3 SWAP2 DUP3 PUSH2 0x1D7 SWAP3 MSTORE DUP3 PUSH2 0x864 JUMP JUMPDEST DUP1 DUP8 MSTORE SWAP2 SWAP3 POP DUP6 SWAP2 DUP4 PUSH32 0xB10E2D527612073B26EECDFD717E6A320CF44B4AFAC2B0732D9FCBE2B7FA0CF6 JUMPDEST DUP4 DUP6 LT PUSH2 0x3D9 JUMPI POP POP POP POP DUP4 ADD ADD CODESIZE DUP1 DUP1 PUSH2 0x1A5 JUMP JUMPDEST DUP1 SLOAD DUP9 DUP7 ADD DUP4 ADD MSTORE SWAP4 ADD SWAP3 DUP5 SWAP1 DUP3 ADD PUSH2 0x3C3 JUMP JUMPDEST SWAP2 PUSH1 0x7F AND SWAP2 PUSH2 0x348 JUMP JUMPDEST POP POP CALLVALUE PUSH2 0x157 JUMPI DUP2 PUSH1 0x3 NOT CALLDATASIZE ADD SLT PUSH2 0x157 JUMPI PUSH1 0x20 SWAP1 PUSH1 0x5 SLOAD SWAP1 MLOAD SWAP1 DUP2 MSTORE RETURN JUMPDEST POP POP CALLVALUE PUSH2 0x157 JUMPI PUSH1 0x20 CALLDATASIZE PUSH1 0x3 NOT ADD SLT PUSH2 0x157 JUMPI PUSH1 0x20 SWAP2 DUP2 SWAP1 PUSH1 0x1 PUSH1 0x1 PUSH1 0xA0 SHL SUB PUSH2 0x43E PUSH2 0x8AD JUMP JUMPDEST AND DUP2 MSTORE PUSH1 0x3 DUP5 MSTORE KECCAK256 SLOAD SWAP1 MLOAD SWAP1 DUP2 MSTORE RETURN JUMPDEST POP SWAP2 SWAP1 CALLVALUE PUSH2 0x157 JUMPI PUSH1 0x20 CALLDATASIZE PUSH1 0x3 NOT ADD SLT PUSH2 0x157 JUMPI DUP3 CALLDATALOAD SWAP1 CALLER DUP4 MSTORE PUSH1 0x3 PUSH1 0x20 MSTORE DUP2 DUP2 DUP5 KECCAK256 SLOAD LT PUSH2 0x4C9 JUMPI CALLER DUP4 MSTORE PUSH1 0x3 PUSH1 0x20 MSTORE DUP1 DUP4 KECCAK256 DUP3 DUP2 SLOAD SUB SWAP1 SSTORE PUSH1 0x2 SLOAD DUP3 DUP2 SUB SWAP1 DUP2 GT PUSH2 0x4B6 JUMPI DUP4 SWAP5 POP PUSH1 0x2 SSTORE MLOAD SWAP1 DUP2 MSTORE PUSH1 0x0 DUP1 MLOAD PUSH1 0x20 PUSH2 0x902 DUP4 CODECOPY DUP2 MLOAD SWAP2 MSTORE PUSH1 0x20 CALLER SWAP3 LOG3 DUP1 RETURN JUMPDEST PUSH4 0x4E487B71 PUSH1 0xE0 SHL DUP5 MSTORE PUSH1 0x11 DUP6 MSTORE PUSH1 0x24 DUP5 REVERT JUMPDEST MLOAD PUSH4 0x1E9ACF17 PUSH1 0xE3 SHL DUP2 MSTORE DUP4 SWAP1 REVERT JUMPDEST POP SWAP1 CALLVALUE PUSH2 0x10F JUMPI DUP1 PUSH1 0x3 NOT CALLDATASIZE ADD SLT PUSH2 0x10F JUMPI PUSH2 0x4F2 PUSH2 0x8AD JUMP JUMPDEST PUSH1 0x24 CALLDATALOAD SWAP2 SWAP1 PUSH1 0x1 PUSH1 0x1 PUSH1 0xA0 SHL SUB SWAP1 PUSH32 0x0 DUP3 AND CALLER SUB PUSH2 0x582 JUMPI AND SWAP3 DUP4 ISZERO PUSH2 0x574 JUMPI POP PUSH1 0x20 DUP3 PUSH1 0x0 DUP1 MLOAD PUSH1 0x20 PUSH2 0x902 DUP4 CODECOPY DUP2 MLOAD SWAP2 MSTORE SWAP3 PUSH2 0x552 DUP8 SWAP6 PUSH1 0x2 SLOAD PUSH2 0x8DE JUMP JUMPDEST PUSH1 0x2 SSTORE DUP6 DUP6 MSTORE PUSH1 0x3 DUP4 MSTORE DUP1 DUP6 KECCAK256 PUSH2 0x56A DUP4 DUP3 SLOAD PUSH2 0x8DE JUMP JUMPDEST SWAP1 SSTORE MLOAD SWAP1 DUP2 MSTORE LOG3 DUP1 RETURN JUMPDEST SWAP1 MLOAD PUSH4 0xD92E233D PUSH1 0xE0 SHL DUP2 MSTORE REVERT JUMPDEST DUP3 MLOAD PUSH4 0x636A157 PUSH1 0xE1 SHL DUP2 MSTORE DUP6 SWAP1 REVERT JUMPDEST POP POP CALLVALUE PUSH2 0x157 JUMPI DUP2 PUSH1 0x3 NOT CALLDATASIZE ADD SLT PUSH2 0x157 JUMPI PUSH1 0x20 SWAP1 MLOAD PUSH1 0x12 DUP2 MSTORE RETURN JUMPDEST POP SWAP2 CALLVALUE PUSH2 0x6C9 JUMPI PUSH1 0x60 CALLDATASIZE PUSH1 0x3 NOT ADD SLT PUSH2 0x6C9 JUMPI PUSH2 0x5C9 PUSH2 0x8AD JUMP JUMPDEST SWAP1 PUSH2 0x5D2 PUSH2 0x8C8 JUMP JUMPDEST PUSH1 0x1 PUSH1 0x1 PUSH1 0xA0 SHL SUB SWAP1 DUP2 AND SWAP3 PUSH1 0x44 CALLDATALOAD SWAP3 SWAP2 SWAP1 DUP5 ISZERO PUSH2 0x6B9 JUMPI AND SWAP2 DUP3 DUP3 MSTORE PUSH1 0x20 SWAP6 PUSH1 0x3 DUP8 MSTORE DUP2 DUP7 DUP5 KECCAK256 SLOAD LT PUSH2 0x6AB JUMPI SWAP1 DUP6 DUP8 SWAP3 DUP6 DUP6 MSTORE DUP1 DUP5 MSTORE DUP2 DUP6 KECCAK256 CALLER DUP7 MSTORE DUP5 MSTORE DUP2 DUP6 KECCAK256 SLOAD SWAP1 PUSH1 0x0 NOT DUP3 SUB PUSH2 0x661 JUMPI JUMPDEST POP POP DUP4 DUP6 PUSH1 0x0 DUP1 MLOAD PUSH1 0x20 PUSH2 0x902 DUP4 CODECOPY DUP2 MLOAD SWAP2 MSTORE SWAP6 MSTORE PUSH1 0x3 DUP5 MSTORE DUP2 DUP2 KECCAK256 DUP4 DUP2 SLOAD SUB SWAP1 SSTORE DUP7 DUP2 MSTORE KECCAK256 PUSH2 0x652 DUP3 DUP3 SLOAD PUSH2 0x8DE JUMP JUMPDEST SWAP1 SSTORE DUP6 MLOAD SWAP1 DUP2 MSTORE LOG3 MLOAD PUSH1 0x1 DUP2 MSTORE RETURN JUMPDEST SWAP2 POP SWAP2 DUP1 SWAP5 SWAP4 POP DUP3 LT PUSH2 0x69D JUMPI DUP3 DUP5 PUSH1 0x0 DUP1 MLOAD PUSH1 0x20 PUSH2 0x902 DUP4 CODECOPY DUP2 MLOAD SWAP2 MSTORE SWAP6 SWAP4 DUP10 SWAP4 DUP9 DUP13 SWAP8 MSTORE DUP7 MSTORE DUP4 DUP4 KECCAK256 CALLER DUP5 MSTORE DUP7 MSTORE SUB DUP3 DUP3 KECCAK256 SSTORE SWAP4 CODESIZE PUSH2 0x621 JUMP JUMPDEST DUP7 MLOAD PUSH4 0x13BE252B PUSH1 0xE0 SHL DUP2 MSTORE REVERT JUMPDEST DUP6 MLOAD PUSH4 0x1E9ACF17 PUSH1 0xE3 SHL DUP2 MSTORE REVERT JUMPDEST DUP6 MLOAD PUSH4 0xD92E233D PUSH1 0xE0 SHL DUP2 MSTORE DUP8 SWAP1 REVERT JUMPDEST DUP1 REVERT JUMPDEST POP POP CALLVALUE PUSH2 0x157 JUMPI DUP2 PUSH1 0x3 NOT CALLDATASIZE ADD SLT PUSH2 0x157 JUMPI PUSH1 0x20 SWAP1 PUSH1 0x2 SLOAD SWAP1 MLOAD SWAP1 DUP2 MSTORE RETURN JUMPDEST POP SWAP2 CALLVALUE PUSH2 0x6C9 JUMPI DUP2 PUSH1 0x3 NOT CALLDATASIZE ADD SLT PUSH2 0x6C9 JUMPI PUSH2 0x705 PUSH2 0x8AD JUMP JUMPDEST PUSH1 0x1 PUSH1 0x1 PUSH1 0xA0 SHL SUB AND SWAP1 PUSH1 0x24 CALLDATALOAD SWAP1 DUP3 ISZERO PUSH2 0x75F JUMPI DUP4 DUP3 SWAP2 PUSH1 0x20 SWAP7 CALLER DUP3 MSTORE DUP8 MSTORE DUP2 DUP2 KECCAK256 DUP6 DUP3 MSTORE DUP8 MSTORE KECCAK256 SSTORE DUP3 MLOAD SWAP1 DUP2 MSTORE PUSH32 0x8C5BE1E5EBEC7D5BD14F71427D1E84F3DD0314C0F7B2291E5B200AC8C7C3B925 DUP5 CALLER SWAP3 LOG3 MLOAD PUSH1 0x1 DUP2 MSTORE RETURN JUMPDEST POP POP POP MLOAD PUSH4 0xD92E233D PUSH1 0xE0 SHL DUP2 MSTORE REVERT JUMPDEST POP SWAP2 SWAP1 CALLVALUE PUSH2 0x157 JUMPI DUP2 PUSH1 0x3 NOT CALLDATASIZE ADD SLT PUSH2 0x157 JUMPI DUP1 MLOAD SWAP1 DUP3 DUP4 SLOAD PUSH1 0x1 DUP2 DUP2 SHR SWAP1 DUP1 DUP4 AND SWAP3 DUP4 ISZERO PUSH2 0x83E JUMPI JUMPDEST PUSH1 0x20 SWAP4 DUP5 DUP5 LT DUP2 EQ PUSH2 0x260 JUMPI DUP4 DUP9 MSTORE SWAP1 DUP2 ISZERO PUSH2 0x244 JUMPI POP PUSH1 0x1 EQ PUSH2 0x7E9 JUMPI POP POP POP DUP3 SWAP1 SUB PUSH1 0x1F ADD PUSH1 0x1F NOT AND DUP3 ADD SWAP3 PUSH8 0xFFFFFFFFFFFFFFFF DUP5 GT DUP4 DUP6 LT OR PUSH2 0x1DB JUMPI POP DUP3 SWAP2 DUP3 PUSH2 0x1D7 SWAP3 MSTORE DUP3 PUSH2 0x864 JUMP JUMPDEST DUP7 DUP1 MSTORE SWAP2 SWAP3 POP DUP6 SWAP2 DUP4 PUSH32 0x290DECD9548B62A8D60345A988386FC84BA6BC95484008F6362F93160EF3E563 JUMPDEST DUP4 DUP6 LT PUSH2 0x82A JUMPI POP POP POP POP DUP4 ADD ADD CODESIZE DUP1 DUP1 PUSH2 0x1A5 JUMP JUMPDEST DUP1 SLOAD DUP9 DUP7 ADD DUP4 ADD MSTORE SWAP4 ADD SWAP3 DUP5 SWAP1 DUP3 ADD PUSH2 0x814 JUMP JUMPDEST SWAP2 PUSH1 0x7F AND SWAP2 PUSH2 0x799 JUMP JUMPDEST DUP5 SWAP1 CALLVALUE PUSH2 0x157 JUMPI DUP2 PUSH1 0x3 NOT CALLDATASIZE ADD SLT PUSH2 0x157 JUMPI PUSH1 0x20 SWAP1 PUSH1 0x7 SLOAD DUP2 MSTORE RETURN JUMPDEST PUSH1 0x20 DUP1 DUP3 MSTORE DUP3 MLOAD DUP2 DUP4 ADD DUP2 SWAP1 MSTORE SWAP1 SWAP4 SWAP3 PUSH1 0x0 JUMPDEST DUP3 DUP2 LT PUSH2 0x899 JUMPI POP POP PUSH1 0x40 SWAP3 SWAP4 POP PUSH1 0x0 DUP4 DUP3 DUP5 ADD ADD MSTORE PUSH1 0x1F DUP1 NOT SWAP2 ADD AND ADD ADD SWAP1 JUMP JUMPDEST DUP2 DUP2 ADD DUP7 ADD MLOAD DUP5 DUP3 ADD PUSH1 0x40 ADD MSTORE DUP6 ADD PUSH2 0x877 JUMP JUMPDEST PUSH1 0x4 CALLDATALOAD SWAP1 PUSH1 0x1 PUSH1 0x1 PUSH1 0xA0 SHL SUB DUP3 AND DUP3 SUB PUSH2 0x8C3 JUMPI JUMP JUMPDEST PUSH1 0x0 DUP1 REVERT JUMPDEST PUSH1 0x24 CALLDATALOAD SWAP1 PUSH1 0x1 PUSH1 0x1 PUSH1 0xA0 SHL SUB DUP3 AND DUP3 SUB PUSH2 0x8C3 JUMPI JUMP JUMPDEST SWAP2 SWAP1 DUP3 ADD DUP1 SWAP3 GT PUSH2 0x8EB JUMPI JUMP JUMPDEST PUSH4 0x4E487B71 PUSH1 0xE0 SHL PUSH1 0x0 MSTORE PUSH1 0x11 PUSH1 0x4 MSTORE PUSH1 0x24 PUSH1 0x0 REVERT INVALID 0xDD CALLCODE MSTORE 0xAD SHL 0xE2 0xC8 SWAP12 PUSH10 0xC2B068FC378DAA952BA7 CALL PUSH4 0xC4A11628 CREATE2 GAS 0x4D CREATE2 0x23 0xB3 0xEF LOG2 PUSH5 0x6970667358 0x22 SLT KECCAK256 0xEF 0xD5 0x5E 0xC5 PUSH25 0x60876EE32B2B7479BB08029D5E00ECBCB46C4D57602886EF66 PUSH23 0x4A64736F6C634300081400330000000000000000000000 "},"methodIdentifiers":{"allowance(address,address)":"dd62ed3e","approve(address,uint256)":"095ea7b3","balanceOf(address)":"70a08231","burn(uint256)":"42966c68","decimals()":"313ce567","documentHash()":"797bec77","documentType()":"b7fbc8b4","factory()":"c45a0155","mint(address,uint256)":"40c10f19","name()":"06fdde03","originalValue()":"052aa7e1","symbol()":"95d89b41","totalSupply()":"18160ddd","transfer(address,uint256)":"a9059cbb","transferFrom(address,address,uint256)":"23b872dd"}}}}}