{"contracts/AssetExchange.sol":{"AssetExchange":{"abi":[{"inputs":[],"name":"FillAmountTooLarge","type":"error"},{"inputs":[],"name":"NotOrderMaker","type":"error"},{"inputs":[],"name":"OrderAlreadyCancelled","type":"error"},{"inputs":[],"name":"OrderDoesNotExist","type":"error"},{"inputs":[],"name":"OrderFullyFilled","type":"error"},{"inputs":[],"name":"ReentrancyDetected","type":"error"},{"inputs":[],"name":"SameToken","type":"error"},{"inputs":[],"name":"TransferFailed","type":"error"},{"inputs":[],"name":"ZeroAddress","type":"error"},{"inputs":[],"name":"ZeroAmount","type":"error"},{"anonymous":false,"inputs":[{"indexed":true,"internalType":"uint256","name":"orderId","type":"uint256"},{"indexed":true,"internalType":"address","name":"maker","type":"address"}],"name":"OrderCancelled","type":"event"},{"anonymous":false,"inputs":[{"indexed":true,"internalType":"uint256","name":"orderId","type":"uint256"},{"indexed":true,"internalType":"address","name":"maker","type":"address"},{"indexed":false,"internalType":"address","name":"tokenSell","type":"address"},{"indexed":false,"internalType":"address","name":"tokenBuy","type":"address"},{"indexed":false,"internalType":"uint256","name":"amountSell","type":"uint256"},{"indexed":false,"internalType":"uint256","name":"amountBuy","type":"uint256"}],"name":"OrderCreated","type":"event"},{"anonymous":false,"inputs":[{"indexed":true,"internalType":"uint256","name":"orderId","type":"uint256"},{"indexed":true,"internalType":"address","name":"taker","type":"address"},{"indexed":false,"internalType":"uint256","name":"fillAmountSell","type":"uint256"},{"indexed":false,"internalType":"uint256","name":"fillAmountBuy","type":"uint256"}],"name":"OrderFilled","type":"event"},{"inputs":[{"internalType":"uint256","name":"orderId","type":"uint256"}],"name":"cancelOrder","outputs":[],"stateMutability":"nonpayable","type":"function"},{"inputs":[{"internalType":"address","name":"tokenSell","type":"address"},{"internalType":"address","name":"tokenBuy","type":"address"},{"internalType":"uint256","name":"amountSell","type":"uint256"},{"internalType":"uint256","name":"amountBuy","type":"uint256"}],"name":"createOrder","outputs":[{"internalType":"uint256","name":"orderId","type":"uint256"}],"stateMutability":"nonpayable","type":"function"},{"inputs":[{"internalType":"uint256","name":"orderId","type":"uint256"},{"internalType":"uint256","name":"fillAmountBuy","type":"uint256"}],"name":"fillOrder","outputs":[],"stateMutability":"nonpayable","type":"function"},{"inputs":[{"internalType":"uint256","name":"orderId","type":"uint256"}],"name":"getOrder","outputs":[{"components":[{"internalType":"uint256","name":"id","type":"uint256"},{"internalType":"address","name":"maker","type":"address"},{"internalType":"address","name":"tokenSell","type":"address"},{"internalType":"address","name":"tokenBuy","type":"address"},{"internalType":"uint256","name":"amountSell","type":"uint256"},{"internalType":"uint256","name":"amountBuy","type":"uint256"},{"internalType":"uint256","name":"filledSell","type":"uint256"},{"internalType":"uint256","name":"filledBuy","type":"uint256"},{"internalType":"bool","name":"cancelled","type":"bool"}],"internalType":"struct AssetExchange.Order","name":"","type":"tuple"}],"stateMutability":"view","type":"function"},{"inputs":[{"internalType":"address","name":"tokenSell","type":"address"},{"internalType":"address","name":"tokenBuy","type":"address"}],"name":"getOrders","outputs":[{"components":[{"internalType":"uint256","name":"id","type":"uint256"},{"internalType":"address","name":"maker","type":"address"},{"internalType":"address","name":"tokenSell","type":"address"},{"internalType":"address","name":"tokenBuy","type":"address"},{"internalType":"uint256","name":"amountSell","type":"uint256"},{"internalType":"uint256","name":"amountBuy","type":"uint256"},{"internalType":"uint256","name":"filledSell","type":"uint256"},{"internalType":"uint256","name":"filledBuy","type":"uint256"},{"internalType":"bool","name":"cancelled","type":"bool"}],"internalType":"struct AssetExchange.Order[]","name":"activeOrders","type":"tuple[]"}],"stateMutability":"view","type":"function"},{"inputs":[],"name":"nextOrderId","outputs":[{"internalType":"uint256","name":"","type":"uint256"}],"stateMutability":"view","type":"function"},{"inputs":[{"internalType":"uint256","name":"","type":"uint256"}],"name":"orders","outputs":[{"internalType":"uint256","name":"id","type":"uint256"},{"internalType":"address","name":"maker","type":"address"},{"internalType":"address","name":"tokenSell","type":"address"},{"internalType":"address","name":"tokenBuy","type":"address"},{"internalType":"uint256","name":"amountSell","type":"uint256"},{"internalType":"uint256","name":"amountBuy","type":"uint256"},{"internalType":"uint256","name":"filledSell","type":"uint256"},{"internalType":"uint256","name":"filledBuy","type":"uint256"},{"internalType":"bool","name":"cancelled","type":"bool"}],"stateMutability":"view","type":"function"}],"evm":{"bytecode":{"linkReferences":{},"object":"6080806040523461001f57600160005560018055610cb490816100258239f35b600080fdfe60806040908082526004918236101561001757600080fd5b600091823560e01c9081632a58b3301461086857508063514fcac714610765578063a85c38ef146106d4578063c37dfc5b1461052c578063d09ef241146104b9578063d9280df0146102c85763fe8799181461007257600080fd5b346102c45760803660031901126102c45761008b6108e8565b91610094610903565b6044356064359460028454146102b457600284556001600160a01b0381811693909190841580156102aa575b61029a578281169283861461028a5784158015610282575b61027257908689959493928b8a6001549c8d926100f484610919565b600155898c8451966101058861093e565b868852602088019033825286890192835260608901928d845260808a0194855260a08a0196875260c08a01978b89528b60e08c019a818c526101008d019d8e52815260026020522099518a558160018b01935116926bffffffffffffffffffffffff60a01b93848254161790558160028b0191511683825416179055600389019251169082541617905551908501555160058401555160068301555160078201556008019051151560ff198254169060ff161790556101c49082610ac4565b865260036020528686208054906801000000000000000082101561025f5760209a50938093926102018360019a9998978b61021f96018155610993565b81549060031b908d821b91600019901b191617905530903390610b68565b865193845288840152858301526060820152847fa4be1e061958d160de04db54668a64922c36d2765b16644ae91acf127708970e60803393a35551908152f35b634e487b7160e01b885260418b52602488fd5b8751631f2a200560e01b81528a90fd5b5088156100d8565b875163100dac0560e11b81528a90fd5b865163d92e233d60e01b81528990fd5b50828116156100c0565b845163c5f2be5160e01b81528790fd5b5080fd5b5090346104b657816003193601126104b657906102f46102e66108e8565b6102ee610903565b90610ac4565b825260036020918183528084208054908593865b8381106104475750610319856109db565b9461032685519687610971565b808652610335601f19916109db565b01875b8181106104285750508691875b8481106103985750505050508051928080850192818652845180945285019301945b8281106103745784840385f35b90919282610120826103896001948a51610884565b01960191019492919094610367565b6103a781839a9997989a610993565b905490841b1c8852600286528688208960ff6008830154161580610417575b6103e0575b50506103d690610919565b9795949697610345565b6103fc61040f91610408886104026103d697969a948592610919565b9a610a4c565b92610a38565b528b610a38565b5090896103cb565b5060078201546005830154116103c6565b9680959698976104366109f3565b82828c010152019795949697610338565b61045681849998969799610993565b905490831b1c87526002855285872060ff6008820154161590816104a3575b5061048e575b61048490610919565b9694939596610308565b9661049b61048491610919565b97905061047b565b9050600560078201549101541189610475565b80fd5b508234610528576020366003190112610528578035906104d76109f3565b508184526002602052828420600101546001600160a01b03161561051a575061050f8284610518936101209652600260205220610a4c565b91518092610884565bf35b8251635dcaf2d760e01b8152fd5b8280fd5b5082903461052857806003193601126105285781359060243560028554146106c457600280865583865260205281852060018101546001600160a01b0390811680156106b45760ff6008840154166106a4578315610694576005830154600784019081549061059b82826109c1565b80156106845787116106745789860154808802908882040361066157811561064e5704988915610640575092610620868a948197946105ff7f36a54e61f475a84cd4a5c3b403be29e6101b05ec843b61fb97c3e123ff59b3f49b9a61062c996109ce565b9055600685016106108782546109ce565b9055836003860154163390610b68565b60023392015416610c21565b815194855260208501523393a36001815580f35b8751631f2a200560e01b8152fd5b634e487b7160e01b8c5260128b5260248cfd5b634e487b7160e01b8c5260118b5260248cfd5b8751634543a74b60e01b81528a90fd5b885163317aa48f60e21b81528b90fd5b8451631f2a200560e01b81528790fd5b8451633e43d23960e11b81528790fd5b8451635dcaf2d760e01b81528790fd5b815163c5f2be5160e01b81528490fd5b5082346105285760203660031901126105285781610120938235815260026020522080549260018060a01b0380600184015416938160028501541691600385015416908401549060058501549260068601549460ff6008600789015498015416978151998a5260208a01528801526060870152608086015260a085015260c084015260e08301521515610100820152f35b5082903461052857602036600319011261052857813591600284541461085a57600280855583855260205281842060018101546001600160a01b0393919291908416801561084c57600884019182549160ff831661083c57330361082d575060ff1916600117905581015460068201546107de916109c1565b9081610815575b50505033907fc0362da6f2ff36b382b34aec0814f6b3cdf89f5ef282a1d1f114d0c0b036d5968380a36001815580f35b6108259260023392015416610c21565b8280806107e5565b516380f806d960e01b81528390fd5b8151633e43d23960e11b81528590fd5b5051635dcaf2d760e01b8152fd5b905163c5f2be5160e01b8152fd5b8390346102c457816003193601126102c4576020906001548152f35b8051825260018060a01b0380602083015116602084015280604083015116604084015260608201511660608301526080810151608083015260a081015160a083015260c081015160c083015260e081015160e0830152610100809101511515910152565b600435906001600160a01b03821682036108fe57565b600080fd5b602435906001600160a01b03821682036108fe57565b60001981146109285760010190565b634e487b7160e01b600052601160045260246000fd5b610120810190811067ffffffffffffffff82111761095b57604052565b634e487b7160e01b600052604160045260246000fd5b90601f8019910116810190811067ffffffffffffffff82111761095b57604052565b80548210156109ab5760005260206000200190600090565b634e487b7160e01b600052603260045260246000fd5b9190820391821161092857565b9190820180921161092857565b67ffffffffffffffff811161095b5760051b60200190565b60405190610a008261093e565b816101006000918281528260208201528260408201528260608201528260808201528260a08201528260c08201528260e08201520152565b80518210156109ab5760209160051b010190565b90604051610a598161093e565b8254815260018301546001600160a01b039081166020830152600284015481166040830152600384015416606082015260048301546080820152600583015460a0820152600683015460c0820152600783015460e082015260089092015460ff161515610100830152565b6040519060208201926bffffffffffffffffffffffff19809260601b16845260601b166034820152602881526060810181811067ffffffffffffffff82111761095b5760405251902090565b3d15610b4b573d9067ffffffffffffffff821161095b5760405191610b3f601f8201601f191660200184610971565b82523d6000602084013e565b606090565b908160209103126108fe575180151581036108fe5790565b6040516323b872dd60e01b602082019081526001600160a01b03938416602483015292909316604484015260648084019490945292825260a08201929067ffffffffffffffff84118385101761095b576000809493819460405251925af1610bce610b10565b9015908115610bf1575b50610bdf57565b6040516312171d8360e31b8152600490fd5b8051801515925082610c06575b505038610bd8565b610c199250602080918301019101610b50565b153880610bfe565b60405163a9059cbb60e01b602082019081526001600160a01b03909316602482015260448082019490945292835260808301929167ffffffffffffffff84118385101761095b576000809493819460405251925af1610bce610b1056fea264697066735822122052fe5920ca417e8842b0969771b5088aae217eb4e1a64b4bfaf30484ad51b06a64736f6c63430008140033","opcodes":"PUSH1 0x80 DUP1 PUSH1 0x40 MSTORE CALLVALUE PUSH2 0x1F JUMPI PUSH1 0x1 PUSH1 0x0 SSTORE PUSH1 0x1 DUP1 SSTORE PUSH2 0xCB4 SWAP1 DUP2 PUSH2 0x25 DUP3 CODECOPY RETURN JUMPDEST PUSH1 0x0 DUP1 REVERT INVALID PUSH1 0x80 PUSH1 0x40 SWAP1 DUP1 DUP3 MSTORE PUSH1 0x4 SWAP2 DUP3 CALLDATASIZE LT ISZERO PUSH2 0x17 JUMPI PUSH1 0x0 DUP1 REVERT JUMPDEST PUSH1 0x0 SWAP2 DUP3 CALLDATALOAD PUSH1 0xE0 SHR SWAP1 DUP2 PUSH4 0x2A58B330 EQ PUSH2 0x868 JUMPI POP DUP1 PUSH4 0x514FCAC7 EQ PUSH2 0x765 JUMPI DUP1 PUSH4 0xA85C38EF EQ PUSH2 0x6D4 JUMPI DUP1 PUSH4 0xC37DFC5B EQ PUSH2 0x52C JUMPI DUP1 PUSH4 0xD09EF241 EQ PUSH2 0x4B9 JUMPI DUP1 PUSH4 0xD9280DF0 EQ PUSH2 0x2C8 JUMPI PUSH4 0xFE879918 EQ PUSH2 0x72 JUMPI PUSH1 0x0 DUP1 REVERT JUMPDEST CALLVALUE PUSH2 0x2C4 JUMPI PUSH1 0x80 CALLDATASIZE PUSH1 0x3 NOT ADD SLT PUSH2 0x2C4 JUMPI PUSH2 0x8B PUSH2 0x8E8 JUMP JUMPDEST SWAP2 PUSH2 0x94 PUSH2 0x903 JUMP JUMPDEST PUSH1 0x44 CALLDATALOAD PUSH1 0x64 CALLDATALOAD SWAP5 PUSH1 0x2 DUP5 SLOAD EQ PUSH2 0x2B4 JUMPI PUSH1 0x2 DUP5 SSTORE PUSH1 0x1 PUSH1 0x1 PUSH1 0xA0 SHL SUB DUP2 DUP2 AND SWAP4 SWAP1 SWAP2 SWAP1 DUP5 ISZERO DUP1 ISZERO PUSH2 0x2AA JUMPI JUMPDEST PUSH2 0x29A JUMPI DUP3 DUP2 AND SWAP3 DUP4 DUP7 EQ PUSH2 0x28A JUMPI DUP5 ISZERO DUP1 ISZERO PUSH2 0x282 JUMPI JUMPDEST PUSH2 0x272 JUMPI SWAP1 DUP7 DUP10 SWAP6 SWAP5 SWAP4 SWAP3 DUP12 DUP11 PUSH1 0x1 SLOAD SWAP13 DUP14 SWAP3 PUSH2 0xF4 DUP5 PUSH2 0x919 JUMP JUMPDEST PUSH1 0x1 SSTORE DUP10 DUP13 DUP5 MLOAD SWAP7 PUSH2 0x105 DUP9 PUSH2 0x93E JUMP JUMPDEST DUP7 DUP9 MSTORE PUSH1 0x20 DUP9 ADD SWAP1 CALLER DUP3 MSTORE DUP7 DUP10 ADD SWAP3 DUP4 MSTORE PUSH1 0x60 DUP10 ADD SWAP3 DUP14 DUP5 MSTORE PUSH1 0x80 DUP11 ADD SWAP5 DUP6 MSTORE PUSH1 0xA0 DUP11 ADD SWAP7 DUP8 MSTORE PUSH1 0xC0 DUP11 ADD SWAP8 DUP12 DUP10 MSTORE DUP12 PUSH1 0xE0 DUP13 ADD SWAP11 DUP2 DUP13 MSTORE PUSH2 0x100 DUP14 ADD SWAP14 DUP15 MSTORE DUP2 MSTORE PUSH1 0x2 PUSH1 0x20 MSTORE KECCAK256 SWAP10 MLOAD DUP11 SSTORE DUP2 PUSH1 0x1 DUP12 ADD SWAP4 MLOAD AND SWAP3 PUSH12 0xFFFFFFFFFFFFFFFFFFFFFFFF PUSH1 0xA0 SHL SWAP4 DUP5 DUP3 SLOAD AND OR SWAP1 SSTORE DUP2 PUSH1 0x2 DUP12 ADD SWAP2 MLOAD AND DUP4 DUP3 SLOAD AND OR SWAP1 SSTORE PUSH1 0x3 DUP10 ADD SWAP3 MLOAD AND SWAP1 DUP3 SLOAD AND OR SWAP1 SSTORE MLOAD SWAP1 DUP6 ADD SSTORE MLOAD PUSH1 0x5 DUP5 ADD SSTORE MLOAD PUSH1 0x6 DUP4 ADD SSTORE MLOAD PUSH1 0x7 DUP3 ADD SSTORE PUSH1 0x8 ADD SWAP1 MLOAD ISZERO ISZERO PUSH1 0xFF NOT DUP3 SLOAD AND SWAP1 PUSH1 0xFF AND OR SWAP1 SSTORE PUSH2 0x1C4 SWAP1 DUP3 PUSH2 0xAC4 JUMP JUMPDEST DUP7 MSTORE PUSH1 0x3 PUSH1 0x20 MSTORE DUP7 DUP7 KECCAK256 DUP1 SLOAD SWAP1 PUSH9 0x10000000000000000 DUP3 LT ISZERO PUSH2 0x25F JUMPI PUSH1 0x20 SWAP11 POP SWAP4 DUP1 SWAP4 SWAP3 PUSH2 0x201 DUP4 PUSH1 0x1 SWAP11 SWAP10 SWAP9 SWAP8 DUP12 PUSH2 0x21F SWAP7 ADD DUP2 SSTORE PUSH2 0x993 JUMP JUMPDEST DUP2 SLOAD SWAP1 PUSH1 0x3 SHL SWAP1 DUP14 DUP3 SHL SWAP2 PUSH1 0x0 NOT SWAP1 SHL NOT AND OR SWAP1 SSTORE ADDRESS SWAP1 CALLER SWAP1 PUSH2 0xB68 JUMP JUMPDEST DUP7 MLOAD SWAP4 DUP5 MSTORE DUP9 DUP5 ADD MSTORE DUP6 DUP4 ADD MSTORE PUSH1 0x60 DUP3 ADD MSTORE DUP5 PUSH32 0xA4BE1E061958D160DE04DB54668A64922C36D2765B16644AE91ACF127708970E PUSH1 0x80 CALLER SWAP4 LOG3 SSTORE MLOAD SWAP1 DUP2 MSTORE RETURN JUMPDEST PUSH4 0x4E487B71 PUSH1 0xE0 SHL DUP9 MSTORE PUSH1 0x41 DUP12 MSTORE PUSH1 0x24 DUP9 REVERT JUMPDEST DUP8 MLOAD PUSH4 0x1F2A2005 PUSH1 0xE0 SHL DUP2 MSTORE DUP11 SWAP1 REVERT JUMPDEST POP DUP9 ISZERO PUSH2 0xD8 JUMP JUMPDEST DUP8 MLOAD PUSH4 0x100DAC05 PUSH1 0xE1 SHL DUP2 MSTORE DUP11 SWAP1 REVERT JUMPDEST DUP7 MLOAD PUSH4 0xD92E233D PUSH1 0xE0 SHL DUP2 MSTORE DUP10 SWAP1 REVERT JUMPDEST POP DUP3 DUP2 AND ISZERO PUSH2 0xC0 JUMP JUMPDEST DUP5 MLOAD PUSH4 0xC5F2BE51 PUSH1 0xE0 SHL DUP2 MSTORE DUP8 SWAP1 REVERT JUMPDEST POP DUP1 REVERT JUMPDEST POP SWAP1 CALLVALUE PUSH2 0x4B6 JUMPI DUP2 PUSH1 0x3 NOT CALLDATASIZE ADD SLT PUSH2 0x4B6 JUMPI SWAP1 PUSH2 0x2F4 PUSH2 0x2E6 PUSH2 0x8E8 JUMP JUMPDEST PUSH2 0x2EE PUSH2 0x903 JUMP JUMPDEST SWAP1 PUSH2 0xAC4 JUMP JUMPDEST DUP3 MSTORE PUSH1 0x3 PUSH1 0x20 SWAP2 DUP2 DUP4 MSTORE DUP1 DUP5 KECCAK256 DUP1 SLOAD SWAP1 DUP6 SWAP4 DUP7 JUMPDEST DUP4 DUP2 LT PUSH2 0x447 JUMPI POP PUSH2 0x319 DUP6 PUSH2 0x9DB JUMP JUMPDEST SWAP5 PUSH2 0x326 DUP6 MLOAD SWAP7 DUP8 PUSH2 0x971 JUMP JUMPDEST DUP1 DUP7 MSTORE PUSH2 0x335 PUSH1 0x1F NOT SWAP2 PUSH2 0x9DB JUMP JUMPDEST ADD DUP8 JUMPDEST DUP2 DUP2 LT PUSH2 0x428 JUMPI POP POP DUP7 SWAP2 DUP8 JUMPDEST DUP5 DUP2 LT PUSH2 0x398 JUMPI POP POP POP POP POP DUP1 MLOAD SWAP3 DUP1 DUP1 DUP6 ADD SWAP3 DUP2 DUP7 MSTORE DUP5 MLOAD DUP1 SWAP5 MSTORE DUP6 ADD SWAP4 ADD SWAP5 JUMPDEST DUP3 DUP2 LT PUSH2 0x374 JUMPI DUP5 DUP5 SUB DUP6 RETURN JUMPDEST SWAP1 SWAP2 SWAP3 DUP3 PUSH2 0x120 DUP3 PUSH2 0x389 PUSH1 0x1 SWAP5 DUP11 MLOAD PUSH2 0x884 JUMP JUMPDEST ADD SWAP7 ADD SWAP2 ADD SWAP5 SWAP3 SWAP2 SWAP1 SWAP5 PUSH2 0x367 JUMP JUMPDEST PUSH2 0x3A7 DUP2 DUP4 SWAP11 SWAP10 SWAP8 SWAP9 SWAP11 PUSH2 0x993 JUMP JUMPDEST SWAP1 SLOAD SWAP1 DUP5 SHL SHR DUP9 MSTORE PUSH1 0x2 DUP7 MSTORE DUP7 DUP9 KECCAK256 DUP10 PUSH1 0xFF PUSH1 0x8 DUP4 ADD SLOAD AND ISZERO DUP1 PUSH2 0x417 JUMPI JUMPDEST PUSH2 0x3E0 JUMPI JUMPDEST POP POP PUSH2 0x3D6 SWAP1 PUSH2 0x919 JUMP JUMPDEST SWAP8 SWAP6 SWAP5 SWAP7 SWAP8 PUSH2 0x345 JUMP JUMPDEST PUSH2 0x3FC PUSH2 0x40F SWAP2 PUSH2 0x408 DUP9 PUSH2 0x402 PUSH2 0x3D6 SWAP8 SWAP7 SWAP11 SWAP5 DUP6 SWAP3 PUSH2 0x919 JUMP JUMPDEST SWAP11 PUSH2 0xA4C JUMP JUMPDEST SWAP3 PUSH2 0xA38 JUMP JUMPDEST MSTORE DUP12 PUSH2 0xA38 JUMP JUMPDEST POP SWAP1 DUP10 PUSH2 0x3CB JUMP JUMPDEST POP PUSH1 0x7 DUP3 ADD SLOAD PUSH1 0x5 DUP4 ADD SLOAD GT PUSH2 0x3C6 JUMP JUMPDEST SWAP7 DUP1 SWAP6 SWAP7 SWAP9 SWAP8 PUSH2 0x436 PUSH2 0x9F3 JUMP JUMPDEST DUP3 DUP3 DUP13 ADD ADD MSTORE ADD SWAP8 SWAP6 SWAP5 SWAP7 SWAP8 PUSH2 0x338 JUMP JUMPDEST PUSH2 0x456 DUP2 DUP5 SWAP10 SWAP9 SWAP7 SWAP8 SWAP10 PUSH2 0x993 JUMP JUMPDEST SWAP1 SLOAD SWAP1 DUP4 SHL SHR DUP8 MSTORE PUSH1 0x2 DUP6 MSTORE DUP6 DUP8 KECCAK256 PUSH1 0xFF PUSH1 0x8 DUP3 ADD SLOAD AND ISZERO SWAP1 DUP2 PUSH2 0x4A3 JUMPI JUMPDEST POP PUSH2 0x48E JUMPI JUMPDEST PUSH2 0x484 SWAP1 PUSH2 0x919 JUMP JUMPDEST SWAP7 SWAP5 SWAP4 SWAP6 SWAP7 PUSH2 0x308 JUMP JUMPDEST SWAP7 PUSH2 0x49B PUSH2 0x484 SWAP2 PUSH2 0x919 JUMP JUMPDEST SWAP8 SWAP1 POP PUSH2 0x47B JUMP JUMPDEST SWAP1 POP PUSH1 0x5 PUSH1 0x7 DUP3 ADD SLOAD SWAP2 ADD SLOAD GT DUP10 PUSH2 0x475 JUMP JUMPDEST DUP1 REVERT JUMPDEST POP DUP3 CALLVALUE PUSH2 0x528 JUMPI PUSH1 0x20 CALLDATASIZE PUSH1 0x3 NOT ADD SLT PUSH2 0x528 JUMPI DUP1 CALLDATALOAD SWAP1 PUSH2 0x4D7 PUSH2 0x9F3 JUMP JUMPDEST POP DUP2 DUP5 MSTORE PUSH1 0x2 PUSH1 0x20 MSTORE DUP3 DUP5 KECCAK256 PUSH1 0x1 ADD SLOAD PUSH1 0x1 PUSH1 0x1 PUSH1 0xA0 SHL SUB AND ISZERO PUSH2 0x51A JUMPI POP PUSH2 0x50F DUP3 DUP5 PUSH2 0x518 SWAP4 PUSH2 0x120 SWAP7 MSTORE PUSH1 0x2 PUSH1 0x20 MSTORE KECCAK256 PUSH2 0xA4C JUMP JUMPDEST SWAP2 MLOAD DUP1 SWAP3 PUSH2 0x884 JUMP JUMPDEST RETURN JUMPDEST DUP3 MLOAD PUSH4 0x5DCAF2D7 PUSH1 0xE0 SHL DUP2 MSTORE REVERT JUMPDEST DUP3 DUP1 REVERT JUMPDEST POP DUP3 SWAP1 CALLVALUE PUSH2 0x528 JUMPI DUP1 PUSH1 0x3 NOT CALLDATASIZE ADD SLT PUSH2 0x528 JUMPI DUP2 CALLDATALOAD SWAP1 PUSH1 0x24 CALLDATALOAD PUSH1 0x2 DUP6 SLOAD EQ PUSH2 0x6C4 JUMPI PUSH1 0x2 DUP1 DUP7 SSTORE DUP4 DUP7 MSTORE PUSH1 0x20 MSTORE DUP2 DUP6 KECCAK256 PUSH1 0x1 DUP2 ADD SLOAD PUSH1 0x1 PUSH1 0x1 PUSH1 0xA0 SHL SUB SWAP1 DUP2 AND DUP1 ISZERO PUSH2 0x6B4 JUMPI PUSH1 0xFF PUSH1 0x8 DUP5 ADD SLOAD AND PUSH2 0x6A4 JUMPI DUP4 ISZERO PUSH2 0x694 JUMPI PUSH1 0x5 DUP4 ADD SLOAD PUSH1 0x7 DUP5 ADD SWAP1 DUP2 SLOAD SWAP1 PUSH2 0x59B DUP3 DUP3 PUSH2 0x9C1 JUMP JUMPDEST DUP1 ISZERO PUSH2 0x684 JUMPI DUP8 GT PUSH2 0x674 JUMPI DUP10 DUP7 ADD SLOAD DUP1 DUP9 MUL SWAP1 DUP9 DUP3 DIV SUB PUSH2 0x661 JUMPI DUP2 ISZERO PUSH2 0x64E JUMPI DIV SWAP9 DUP10 ISZERO PUSH2 0x640 JUMPI POP SWAP3 PUSH2 0x620 DUP7 DUP11 SWAP5 DUP2 SWAP8 SWAP5 PUSH2 0x5FF PUSH32 0x36A54E61F475A84CD4A5C3B403BE29E6101B05EC843B61FB97C3E123FF59B3F4 SWAP12 SWAP11 PUSH2 0x62C SWAP10 PUSH2 0x9CE JUMP JUMPDEST SWAP1 SSTORE PUSH1 0x6 DUP6 ADD PUSH2 0x610 DUP8 DUP3 SLOAD PUSH2 0x9CE JUMP JUMPDEST SWAP1 SSTORE DUP4 PUSH1 0x3 DUP7 ADD SLOAD AND CALLER SWAP1 PUSH2 0xB68 JUMP JUMPDEST PUSH1 0x2 CALLER SWAP3 ADD SLOAD AND PUSH2 0xC21 JUMP JUMPDEST DUP2 MLOAD SWAP5 DUP6 MSTORE PUSH1 0x20 DUP6 ADD MSTORE CALLER SWAP4 LOG3 PUSH1 0x1 DUP2 SSTORE DUP1 RETURN JUMPDEST DUP8 MLOAD PUSH4 0x1F2A2005 PUSH1 0xE0 SHL DUP2 MSTORE REVERT JUMPDEST PUSH4 0x4E487B71 PUSH1 0xE0 SHL DUP13 MSTORE PUSH1 0x12 DUP12 MSTORE PUSH1 0x24 DUP13 REVERT JUMPDEST PUSH4 0x4E487B71 PUSH1 0xE0 SHL DUP13 MSTORE PUSH1 0x11 DUP12 MSTORE PUSH1 0x24 DUP13 REVERT JUMPDEST DUP8 MLOAD PUSH4 0x4543A74B PUSH1 0xE0 SHL DUP2 MSTORE DUP11 SWAP1 REVERT JUMPDEST DUP9 MLOAD PUSH4 0x317AA48F PUSH1 0xE2 SHL DUP2 MSTORE DUP12 SWAP1 REVERT JUMPDEST DUP5 MLOAD PUSH4 0x1F2A2005 PUSH1 0xE0 SHL DUP2 MSTORE DUP8 SWAP1 REVERT JUMPDEST DUP5 MLOAD PUSH4 0x3E43D239 PUSH1 0xE1 SHL DUP2 MSTORE DUP8 SWAP1 REVERT JUMPDEST DUP5 MLOAD PUSH4 0x5DCAF2D7 PUSH1 0xE0 SHL DUP2 MSTORE DUP8 SWAP1 REVERT JUMPDEST DUP2 MLOAD PUSH4 0xC5F2BE51 PUSH1 0xE0 SHL DUP2 MSTORE DUP5 SWAP1 REVERT JUMPDEST POP DUP3 CALLVALUE PUSH2 0x528 JUMPI PUSH1 0x20 CALLDATASIZE PUSH1 0x3 NOT ADD SLT PUSH2 0x528 JUMPI DUP2 PUSH2 0x120 SWAP4 DUP3 CALLDATALOAD DUP2 MSTORE PUSH1 0x2 PUSH1 0x20 MSTORE KECCAK256 DUP1 SLOAD SWAP3 PUSH1 0x1 DUP1 PUSH1 0xA0 SHL SUB DUP1 PUSH1 0x1 DUP5 ADD SLOAD AND SWAP4 DUP2 PUSH1 0x2 DUP6 ADD SLOAD AND SWAP2 PUSH1 0x3 DUP6 ADD SLOAD AND SWAP1 DUP5 ADD SLOAD SWAP1 PUSH1 0x5 DUP6 ADD SLOAD SWAP3 PUSH1 0x6 DUP7 ADD SLOAD SWAP5 PUSH1 0xFF PUSH1 0x8 PUSH1 0x7 DUP10 ADD SLOAD SWAP9 ADD SLOAD AND SWAP8 DUP2 MLOAD SWAP10 DUP11 MSTORE PUSH1 0x20 DUP11 ADD MSTORE DUP9 ADD MSTORE PUSH1 0x60 DUP8 ADD MSTORE PUSH1 0x80 DUP7 ADD MSTORE PUSH1 0xA0 DUP6 ADD MSTORE PUSH1 0xC0 DUP5 ADD MSTORE PUSH1 0xE0 DUP4 ADD MSTORE ISZERO ISZERO PUSH2 0x100 DUP3 ADD MSTORE RETURN JUMPDEST POP DUP3 SWAP1 CALLVALUE PUSH2 0x528 JUMPI PUSH1 0x20 CALLDATASIZE PUSH1 0x3 NOT ADD SLT PUSH2 0x528 JUMPI DUP2 CALLDATALOAD SWAP2 PUSH1 0x2 DUP5 SLOAD EQ PUSH2 0x85A JUMPI PUSH1 0x2 DUP1 DUP6 SSTORE DUP4 DUP6 MSTORE PUSH1 0x20 MSTORE DUP2 DUP5 KECCAK256 PUSH1 0x1 DUP2 ADD SLOAD PUSH1 0x1 PUSH1 0x1 PUSH1 0xA0 SHL SUB SWAP4 SWAP2 SWAP3 SWAP2 SWAP1 DUP5 AND DUP1 ISZERO PUSH2 0x84C JUMPI PUSH1 0x8 DUP5 ADD SWAP2 DUP3 SLOAD SWAP2 PUSH1 0xFF DUP4 AND PUSH2 0x83C JUMPI CALLER SUB PUSH2 0x82D JUMPI POP PUSH1 0xFF NOT AND PUSH1 0x1 OR SWAP1 SSTORE DUP2 ADD SLOAD PUSH1 0x6 DUP3 ADD SLOAD PUSH2 0x7DE SWAP2 PUSH2 0x9C1 JUMP JUMPDEST SWAP1 DUP2 PUSH2 0x815 JUMPI JUMPDEST POP POP POP CALLER SWAP1 PUSH32 0xC0362DA6F2FF36B382B34AEC0814F6B3CDF89F5EF282A1D1F114D0C0B036D596 DUP4 DUP1 LOG3 PUSH1 0x1 DUP2 SSTORE DUP1 RETURN JUMPDEST PUSH2 0x825 SWAP3 PUSH1 0x2 CALLER SWAP3 ADD SLOAD AND PUSH2 0xC21 JUMP JUMPDEST DUP3 DUP1 DUP1 PUSH2 0x7E5 JUMP JUMPDEST MLOAD PUSH4 0x80F806D9 PUSH1 0xE0 SHL DUP2 MSTORE DUP4 SWAP1 REVERT JUMPDEST DUP2 MLOAD PUSH4 0x3E43D239 PUSH1 0xE1 SHL DUP2 MSTORE DUP6 SWAP1 REVERT JUMPDEST POP MLOAD PUSH4 0x5DCAF2D7 PUSH1 0xE0 SHL DUP2 MSTORE REVERT JUMPDEST SWAP1 MLOAD PUSH4 0xC5F2BE51 PUSH1 0xE0 SHL DUP2 MSTORE REVERT JUMPDEST DUP4 SWAP1 CALLVALUE PUSH2 0x2C4 JUMPI DUP2 PUSH1 0x3 NOT CALLDATASIZE ADD SLT PUSH2 0x2C4 JUMPI PUSH1 0x20 SWAP1 PUSH1 0x1 SLOAD DUP2 MSTORE RETURN JUMPDEST DUP1 MLOAD DUP3 MSTORE PUSH1 0x1 DUP1 PUSH1 0xA0 SHL SUB DUP1 PUSH1 0x20 DUP4 ADD MLOAD AND PUSH1 0x20 DUP5 ADD MSTORE DUP1 PUSH1 0x40 DUP4 ADD MLOAD AND PUSH1 0x40 DUP5 ADD MSTORE PUSH1 0x60 DUP3 ADD MLOAD AND PUSH1 0x60 DUP4 ADD MSTORE PUSH1 0x80 DUP2 ADD MLOAD PUSH1 0x80 DUP4 ADD MSTORE PUSH1 0xA0 DUP2 ADD MLOAD PUSH1 0xA0 DUP4 ADD MSTORE PUSH1 0xC0 DUP2 ADD MLOAD PUSH1 0xC0 DUP4 ADD MSTORE PUSH1 0xE0 DUP2 ADD MLOAD PUSH1 0xE0 DUP4 ADD MSTORE PUSH2 0x100 DUP1 SWAP2 ADD MLOAD ISZERO ISZERO SWAP2 ADD MSTORE JUMP JUMPDEST PUSH1 0x4 CALLDATALOAD SWAP1 PUSH1 0x1 PUSH1 0x1 PUSH1 0xA0 SHL SUB DUP3 AND DUP3 SUB PUSH2 0x8FE JUMPI JUMP JUMPDEST PUSH1 0x0 DUP1 REVERT JUMPDEST PUSH1 0x24 CALLDATALOAD SWAP1 PUSH1 0x1 PUSH1 0x1 PUSH1 0xA0 SHL SUB DUP3 AND DUP3 SUB PUSH2 0x8FE JUMPI JUMP JUMPDEST PUSH1 0x0 NOT DUP2 EQ PUSH2 0x928 JUMPI PUSH1 0x1 ADD SWAP1 JUMP JUMPDEST PUSH4 0x4E487B71 PUSH1 0xE0 SHL PUSH1 0x0 MSTORE PUSH1 0x11 PUSH1 0x4 MSTORE PUSH1 0x24 PUSH1 0x0 REVERT JUMPDEST PUSH2 0x120 DUP2 ADD SWAP1 DUP2 LT PUSH8 0xFFFFFFFFFFFFFFFF DUP3 GT OR PUSH2 0x95B JUMPI PUSH1 0x40 MSTORE JUMP JUMPDEST PUSH4 0x4E487B71 PUSH1 0xE0 SHL PUSH1 0x0 MSTORE PUSH1 0x41 PUSH1 0x4 MSTORE PUSH1 0x24 PUSH1 0x0 REVERT JUMPDEST SWAP1 PUSH1 0x1F DUP1 NOT SWAP2 ADD AND DUP2 ADD SWAP1 DUP2 LT PUSH8 0xFFFFFFFFFFFFFFFF DUP3 GT OR PUSH2 0x95B JUMPI PUSH1 0x40 MSTORE JUMP JUMPDEST DUP1 SLOAD DUP3 LT ISZERO PUSH2 0x9AB JUMPI PUSH1 0x0 MSTORE PUSH1 0x20 PUSH1 0x0 KECCAK256 ADD SWAP1 PUSH1 0x0 SWAP1 JUMP JUMPDEST PUSH4 0x4E487B71 PUSH1 0xE0 SHL PUSH1 0x0 MSTORE PUSH1 0x32 PUSH1 0x4 MSTORE PUSH1 0x24 PUSH1 0x0 REVERT JUMPDEST SWAP2 SWAP1 DUP3 SUB SWAP2 DUP3 GT PUSH2 0x928 JUMPI JUMP JUMPDEST SWAP2 SWAP1 DUP3 ADD DUP1 SWAP3 GT PUSH2 0x928 JUMPI JUMP JUMPDEST PUSH8 0xFFFFFFFFFFFFFFFF DUP2 GT PUSH2 0x95B JUMPI PUSH1 0x5 SHL PUSH1 0x20 ADD SWAP1 JUMP JUMPDEST PUSH1 0x40 MLOAD SWAP1 PUSH2 0xA00 DUP3 PUSH2 0x93E JUMP JUMPDEST DUP2 PUSH2 0x100 PUSH1 0x0 SWAP2 DUP3 DUP2 MSTORE DUP3 PUSH1 0x20 DUP3 ADD MSTORE DUP3 PUSH1 0x40 DUP3 ADD MSTORE DUP3 PUSH1 0x60 DUP3 ADD MSTORE DUP3 PUSH1 0x80 DUP3 ADD MSTORE DUP3 PUSH1 0xA0 DUP3 ADD MSTORE DUP3 PUSH1 0xC0 DUP3 ADD MSTORE DUP3 PUSH1 0xE0 DUP3 ADD MSTORE ADD MSTORE JUMP JUMPDEST DUP1 MLOAD DUP3 LT ISZERO PUSH2 0x9AB JUMPI PUSH1 0x20 SWAP2 PUSH1 0x5 SHL ADD ADD SWAP1 JUMP JUMPDEST SWAP1 PUSH1 0x40 MLOAD PUSH2 0xA59 DUP2 PUSH2 0x93E JUMP JUMPDEST DUP3 SLOAD DUP2 MSTORE PUSH1 0x1 DUP4 ADD SLOAD PUSH1 0x1 PUSH1 0x1 PUSH1 0xA0 SHL SUB SWAP1 DUP2 AND PUSH1 0x20 DUP4 ADD MSTORE PUSH1 0x2 DUP5 ADD SLOAD DUP2 AND PUSH1 0x40 DUP4 ADD MSTORE PUSH1 0x3 DUP5 ADD SLOAD AND PUSH1 0x60 DUP3 ADD MSTORE PUSH1 0x4 DUP4 ADD SLOAD PUSH1 0x80 DUP3 ADD MSTORE PUSH1 0x5 DUP4 ADD SLOAD PUSH1 0xA0 DUP3 ADD MSTORE PUSH1 0x6 DUP4 ADD SLOAD PUSH1 0xC0 DUP3 ADD MSTORE PUSH1 0x7 DUP4 ADD SLOAD PUSH1 0xE0 DUP3 ADD MSTORE PUSH1 0x8 SWAP1 SWAP3 ADD SLOAD PUSH1 0xFF AND ISZERO ISZERO PUSH2 0x100 DUP4 ADD MSTORE JUMP JUMPDEST PUSH1 0x40 MLOAD SWAP1 PUSH1 0x20 DUP3 ADD SWAP3 PUSH12 0xFFFFFFFFFFFFFFFFFFFFFFFF NOT DUP1 SWAP3 PUSH1 0x60 SHL AND DUP5 MSTORE PUSH1 0x60 SHL AND PUSH1 0x34 DUP3 ADD MSTORE PUSH1 0x28 DUP2 MSTORE PUSH1 0x60 DUP2 ADD DUP2 DUP2 LT PUSH8 0xFFFFFFFFFFFFFFFF DUP3 GT OR PUSH2 0x95B JUMPI PUSH1 0x40 MSTORE MLOAD SWAP1 KECCAK256 SWAP1 JUMP JUMPDEST RETURNDATASIZE ISZERO PUSH2 0xB4B JUMPI RETURNDATASIZE SWAP1 PUSH8 0xFFFFFFFFFFFFFFFF DUP3 GT PUSH2 0x95B JUMPI PUSH1 0x40 MLOAD SWAP2 PUSH2 0xB3F PUSH1 0x1F DUP3 ADD PUSH1 0x1F NOT AND PUSH1 0x20 ADD DUP5 PUSH2 0x971 JUMP JUMPDEST DUP3 MSTORE RETURNDATASIZE PUSH1 0x0 PUSH1 0x20 DUP5 ADD RETURNDATACOPY JUMP JUMPDEST PUSH1 0x60 SWAP1 JUMP JUMPDEST SWAP1 DUP2 PUSH1 0x20 SWAP2 SUB SLT PUSH2 0x8FE JUMPI MLOAD DUP1 ISZERO ISZERO DUP2 SUB PUSH2 0x8FE JUMPI SWAP1 JUMP JUMPDEST PUSH1 0x40 MLOAD PUSH4 0x23B872DD PUSH1 0xE0 SHL PUSH1 0x20 DUP3 ADD SWAP1 DUP2 MSTORE PUSH1 0x1 PUSH1 0x1 PUSH1 0xA0 SHL SUB SWAP4 DUP5 AND PUSH1 0x24 DUP4 ADD MSTORE SWAP3 SWAP1 SWAP4 AND PUSH1 0x44 DUP5 ADD MSTORE PUSH1 0x64 DUP1 DUP5 ADD SWAP5 SWAP1 SWAP5 MSTORE SWAP3 DUP3 MSTORE PUSH1 0xA0 DUP3 ADD SWAP3 SWAP1 PUSH8 0xFFFFFFFFFFFFFFFF DUP5 GT DUP4 DUP6 LT OR PUSH2 0x95B JUMPI PUSH1 0x0 DUP1 SWAP5 SWAP4 DUP2 SWAP5 PUSH1 0x40 MSTORE MLOAD SWAP3 GAS CALL PUSH2 0xBCE PUSH2 0xB10 JUMP JUMPDEST SWAP1 ISZERO SWAP1 DUP2 ISZERO PUSH2 0xBF1 JUMPI JUMPDEST POP PUSH2 0xBDF JUMPI JUMP JUMPDEST PUSH1 0x40 MLOAD PUSH4 0x12171D83 PUSH1 0xE3 SHL DUP2 MSTORE PUSH1 0x4 SWAP1 REVERT JUMPDEST DUP1 MLOAD DUP1 ISZERO ISZERO SWAP3 POP DUP3 PUSH2 0xC06 JUMPI JUMPDEST POP POP CODESIZE PUSH2 0xBD8 JUMP JUMPDEST PUSH2 0xC19 SWAP3 POP PUSH1 0x20 DUP1 SWAP2 DUP4 ADD ADD SWAP2 ADD PUSH2 0xB50 JUMP JUMPDEST ISZERO CODESIZE DUP1 PUSH2 0xBFE JUMP JUMPDEST PUSH1 0x40 MLOAD PUSH4 0xA9059CBB PUSH1 0xE0 SHL PUSH1 0x20 DUP3 ADD SWAP1 DUP2 MSTORE PUSH1 0x1 PUSH1 0x1 PUSH1 0xA0 SHL SUB SWAP1 SWAP4 AND PUSH1 0x24 DUP3 ADD MSTORE PUSH1 0x44 DUP1 DUP3 ADD SWAP5 SWAP1 SWAP5 MSTORE SWAP3 DUP4 MSTORE PUSH1 0x80 DUP4 ADD SWAP3 SWAP2 PUSH8 0xFFFFFFFFFFFFFFFF DUP5 GT DUP4 DUP6 LT OR PUSH2 0x95B JUMPI PUSH1 0x0 DUP1 SWAP5 SWAP4 DUP2 SWAP5 PUSH1 0x40 MSTORE MLOAD SWAP3 GAS CALL PUSH2 0xBCE PUSH2 0xB10 JUMP INVALID LOG2 PUSH5 0x6970667358 0x22 SLT KECCAK256 MSTORE INVALID MSIZE KECCAK256 0xCA COINBASE PUSH31 0x8842B0969771B5088AAE217EB4E1A64B4BFAF30484AD51B06A64736F6C6343 STOP ADDMOD EQ STOP CALLER "},"methodIdentifiers":{"cancelOrder(uint256)":"514fcac7","createOrder(address,address,uint256,uint256)":"fe879918","fillOrder(uint256,uint256)":"c37dfc5b","getOrder(uint256)":"d09ef241","getOrders(address,address)":"d9280df0","nextOrderId()":"2a58b330","orders(uint256)":"a85c38ef"}}}}}