{"contracts/LiquidityPoolAMM.sol":{"LiquidityPoolAMM":{"abi":[{"inputs":[],"stateMutability":"nonpayable","type":"constructor"},{"inputs":[],"name":"InsufficientAAmount","type":"error"},{"inputs":[],"name":"InsufficientBAmount","type":"error"},{"inputs":[],"name":"InsufficientEth","type":"error"},{"inputs":[],"name":"InsufficientLiquidity","type":"error"},{"inputs":[],"name":"InsufficientOutput","type":"error"},{"inputs":[],"name":"InvalidK","type":"error"},{"inputs":[],"name":"NothingToWithdraw","type":"error"},{"inputs":[],"name":"PoolExists","type":"error"},{"inputs":[],"name":"PoolNotFound","type":"error"},{"inputs":[],"name":"ReentrantCall","type":"error"},{"inputs":[],"name":"SameToken","type":"error"},{"inputs":[],"name":"TransferFailed","type":"error"},{"inputs":[],"name":"ZeroAddress","type":"error"},{"inputs":[],"name":"ZeroAmount","type":"error"},{"anonymous":false,"inputs":[{"indexed":true,"internalType":"address","name":"to","type":"address"},{"indexed":false,"internalType":"uint256","name":"amount","type":"uint256"}],"name":"EthWithdrawn","type":"event"},{"anonymous":false,"inputs":[{"indexed":true,"internalType":"bytes32","name":"poolId","type":"bytes32"},{"indexed":true,"internalType":"address","name":"provider","type":"address"},{"indexed":false,"internalType":"uint256","name":"amount0","type":"uint256"},{"indexed":false,"internalType":"uint256","name":"amount1","type":"uint256"},{"indexed":false,"internalType":"uint256","name":"liquidity","type":"uint256"}],"name":"LiquidityAdded","type":"event"},{"anonymous":false,"inputs":[{"indexed":true,"internalType":"bytes32","name":"poolId","type":"bytes32"},{"indexed":true,"internalType":"address","name":"provider","type":"address"},{"indexed":false,"internalType":"uint256","name":"amount0","type":"uint256"},{"indexed":false,"internalType":"uint256","name":"amount1","type":"uint256"},{"indexed":false,"internalType":"uint256","name":"liquidity","type":"uint256"}],"name":"LiquidityRemoved","type":"event"},{"anonymous":false,"inputs":[{"indexed":true,"internalType":"bytes32","name":"poolId","type":"bytes32"},{"indexed":true,"internalType":"address","name":"token0","type":"address"},{"indexed":true,"internalType":"address","name":"token1","type":"address"}],"name":"PoolCreated","type":"event"},{"anonymous":false,"inputs":[{"indexed":true,"internalType":"bytes32","name":"poolId","type":"bytes32"},{"indexed":true,"internalType":"address","name":"sender","type":"address"},{"indexed":false,"internalType":"address","name":"tokenIn","type":"address"},{"indexed":false,"internalType":"address","name":"tokenOut","type":"address"},{"indexed":false,"internalType":"uint256","name":"amountIn","type":"uint256"},{"indexed":false,"internalType":"uint256","name":"amountOut","type":"uint256"}],"name":"Swap","type":"event"},{"inputs":[],"name":"ETH_ADDRESS","outputs":[{"internalType":"address","name":"","type":"address"}],"stateMutability":"view","type":"function"},{"inputs":[],"name":"FEE_DENOMINATOR","outputs":[{"internalType":"uint256","name":"","type":"uint256"}],"stateMutability":"view","type":"function"},{"inputs":[],"name":"FEE_NUMERATOR","outputs":[{"internalType":"uint256","name":"","type":"uint256"}],"stateMutability":"view","type":"function"},{"inputs":[],"name":"MINIMUM_LIQUIDITY","outputs":[{"internalType":"uint256","name":"","type":"uint256"}],"stateMutability":"view","type":"function"},{"inputs":[{"internalType":"address","name":"tokenA","type":"address"},{"internalType":"address","name":"tokenB","type":"address"},{"internalType":"uint256","name":"amountA","type":"uint256"},{"internalType":"uint256","name":"amountB","type":"uint256"},{"internalType":"uint256","name":"minLiquidity","type":"uint256"}],"name":"addLiquidity","outputs":[{"internalType":"uint256","name":"liquidity","type":"uint256"}],"stateMutability":"nonpayable","type":"function"},{"inputs":[{"internalType":"address","name":"token","type":"address"},{"internalType":"uint256","name":"amountToken","type":"uint256"},{"internalType":"uint256","name":"minLiquidity","type":"uint256"}],"name":"addLiquidityETH","outputs":[{"internalType":"uint256","name":"liquidity","type":"uint256"}],"stateMutability":"payable","type":"function"},{"inputs":[{"internalType":"address","name":"tokenA","type":"address"},{"internalType":"address","name":"tokenB","type":"address"}],"name":"createPool","outputs":[{"internalType":"bytes32","name":"poolId","type":"bytes32"}],"stateMutability":"nonpayable","type":"function"},{"inputs":[{"internalType":"address","name":"","type":"address"}],"name":"ethBalances","outputs":[{"internalType":"uint256","name":"","type":"uint256"}],"stateMutability":"view","type":"function"},{"inputs":[{"internalType":"uint256","name":"amountIn","type":"uint256"},{"internalType":"uint256","name":"reserveIn","type":"uint256"},{"internalType":"uint256","name":"reserveOut","type":"uint256"}],"name":"getAmountOut","outputs":[{"internalType":"uint256","name":"amountOut","type":"uint256"}],"stateMutability":"pure","type":"function"},{"inputs":[{"internalType":"address","name":"tokenA","type":"address"},{"internalType":"address","name":"tokenB","type":"address"},{"internalType":"address","name":"provider","type":"address"}],"name":"getLiquidityBalance","outputs":[{"internalType":"uint256","name":"","type":"uint256"}],"stateMutability":"view","type":"function"},{"inputs":[{"internalType":"address","name":"tokenA","type":"address"},{"internalType":"address","name":"tokenB","type":"address"}],"name":"getPool","outputs":[{"components":[{"internalType":"address","name":"token0","type":"address"},{"internalType":"address","name":"token1","type":"address"},{"internalType":"uint256","name":"reserve0","type":"uint256"},{"internalType":"uint256","name":"reserve1","type":"uint256"},{"internalType":"uint256","name":"totalLiquidity","type":"uint256"},{"internalType":"uint256","name":"kLast","type":"uint256"}],"internalType":"struct LiquidityPoolAMM.Pool","name":"","type":"tuple"}],"stateMutability":"view","type":"function"},{"inputs":[{"internalType":"address","name":"tokenA","type":"address"},{"internalType":"address","name":"tokenB","type":"address"}],"name":"getPoolId","outputs":[{"internalType":"bytes32","name":"","type":"bytes32"}],"stateMutability":"pure","type":"function"},{"inputs":[{"internalType":"bytes32","name":"","type":"bytes32"},{"internalType":"address","name":"","type":"address"}],"name":"liquidityBalances","outputs":[{"internalType":"uint256","name":"","type":"uint256"}],"stateMutability":"view","type":"function"},{"inputs":[{"internalType":"bytes32","name":"","type":"bytes32"}],"name":"pools","outputs":[{"internalType":"address","name":"token0","type":"address"},{"internalType":"address","name":"token1","type":"address"},{"internalType":"uint256","name":"reserve0","type":"uint256"},{"internalType":"uint256","name":"reserve1","type":"uint256"},{"internalType":"uint256","name":"totalLiquidity","type":"uint256"},{"internalType":"uint256","name":"kLast","type":"uint256"}],"stateMutability":"view","type":"function"},{"inputs":[{"internalType":"address","name":"tokenIn","type":"address"},{"internalType":"address","name":"tokenOut","type":"address"},{"internalType":"uint256","name":"amountIn","type":"uint256"}],"name":"quote","outputs":[{"internalType":"uint256","name":"amountOut","type":"uint256"}],"stateMutability":"view","type":"function"},{"inputs":[{"internalType":"address","name":"tokenA","type":"address"},{"internalType":"address","name":"tokenB","type":"address"},{"internalType":"uint256","name":"liquidity","type":"uint256"},{"internalType":"uint256","name":"minA","type":"uint256"},{"internalType":"uint256","name":"minB","type":"uint256"}],"name":"removeLiquidity","outputs":[{"internalType":"uint256","name":"amountA","type":"uint256"},{"internalType":"uint256","name":"amountB","type":"uint256"}],"stateMutability":"nonpayable","type":"function"},{"inputs":[{"internalType":"address","name":"token","type":"address"},{"internalType":"uint256","name":"liquidity","type":"uint256"},{"internalType":"uint256","name":"minToken","type":"uint256"},{"internalType":"uint256","name":"minETH","type":"uint256"}],"name":"removeLiquidityETH","outputs":[{"internalType":"uint256","name":"amountToken","type":"uint256"},{"internalType":"uint256","name":"amountETH","type":"uint256"}],"stateMutability":"nonpayable","type":"function"},{"inputs":[{"internalType":"address","name":"tokenIn","type":"address"},{"internalType":"address","name":"tokenOut","type":"address"},{"internalType":"uint256","name":"amountIn","type":"uint256"},{"internalType":"uint256","name":"minAmountOut","type":"uint256"}],"name":"swap","outputs":[{"internalType":"uint256","name":"amountOut","type":"uint256"}],"stateMutability":"nonpayable","type":"function"},{"inputs":[{"internalType":"address","name":"token","type":"address"},{"internalType":"uint256","name":"minAmountOut","type":"uint256"}],"name":"swapETHForToken","outputs":[{"internalType":"uint256","name":"amountOut","type":"uint256"}],"stateMutability":"payable","type":"function"},{"inputs":[{"internalType":"address","name":"token","type":"address"},{"internalType":"uint256","name":"amountIn","type":"uint256"},{"internalType":"uint256","name":"minETH","type":"uint256"}],"name":"swapTokenForETH","outputs":[{"internalType":"uint256","name":"amountOut","type":"uint256"}],"stateMutability":"nonpayable","type":"function"},{"inputs":[],"name":"withdrawEth","outputs":[],"stateMutability":"nonpayable","type":"function"},{"stateMutability":"payable","type":"receive"}],"evm":{"bytecode":{"linkReferences":{},"object":"6080806040523461001b57600160035561185f90816100218239f35b600080fdfe6080604081815260049081361015610022575b505050361561002057600080fd5b005b600092833560e01c9081630145ff6814610fb557508063054d50d414610f8d578063094ab4ac14610e5d5780632ef61c2114610e2c5780633cfba0e314610df457806341cd47bf14610dd85780634fb5bf7f14610d96578063531aa03e14610cb457806391c98a2a14610b2f578063a0ef91df14610a7d578063a1cfacde146108e9578063a734f06e146108c0578063b5217bb41461085a578063b6466384146107b4578063ba9a7a56146105cf578063d196e9c6146105d4578063d73792a9146105cf578063e2dc85dc14610451578063e3433615146102f3578063f0a00468146102895763fe0291560361001257346102855760803660031901126102855761012b6110cd565b6101336110e8565b936044356002600354146102755760026003556001600160a01b038381169360008051602061180a833981519152808614908115610269575b50610259578215610249578188169182861461023957866101966101908b856117a2565b906117bd565b9586815280602052209081541615610229576101be9184916101b9833384611679565b6115a1565b95606435871061021b57506101d786602098339061172f565b845193845286840152838301528360608301527f0c8d1c4d9e04dd566f62cc25a237c76ae445c7d40c5f2a485e51c9177bc7558b60803393a3600160035551908152f35b855163bb2875c360e01b8152fd5b86516301dbb3ff60e61b81528890fd5b865163100dac0560e11b81528890fd5b8551631f2a200560e01b81528790fd5b855163d92e233d60e01b81528790fd5b9050828916143861016c565b505050516306fda65d60e31b8152fd5b8280fd5b8382346102ef5760603660031901126102ef576102a46110cd565b6102ac6110e8565b6044356001600160a01b03811692908390036102eb57916102d46101906020969386956117a2565b825260018552828220908252845220549051908152f35b8480fd5b5080fd5b508290346102ef57806003193601126102ef5761030e6110cd565b6103166110e8565b6001600160a01b039180831680158015610447575b61043757838316146104275790610341916117a2565b91909261034e83856117bd565b938486528560205282828720541661041757817fc0c143d18100b0ec0b6c08cc52247dd860ffd3fc2af30733326e5f980c19635a9160058760209a8a888398519561039887611182565b1698898652808e87019b169a8b8152878701908382526060880192848452808a60808b019680885260a08c0199818b528152602081905220995116906bffffffffffffffffffffffff60a01b91828b5416178a5560018a0192511690825416179055516002870155516003860155519084015551910155519580a48152f35b8151637a471e1360e11b81528790fd5b835163100dac0560e11b81528690fd5b845163d92e233d60e01b81528790fd5b508383161561032b565b509190346102ef5761046236611128565b95929390946002600354146105c15760026003556001600160a01b03948286169260008051602061180a8339815191528085149081156105b5575b506105a557841561059557906104b2916117a2565b91896104be84846117bd565b968781528060205220878154161561058657856104db91886114bd565b94909783161460001461057d57869884985b8a1061056e5788106105605750827f1644e236c5520c62ce0dee793b42f87f940781d55b02c890fbbcdfff1ee5e25194939261052e8861053594339061172f565b339061172f565b875194855260208501526040840152339280606081015b0390a3600160035582519182526020820152f35b895163ef71d09160e01b8152fd5b508951638dc525d160e01b8152fd5b839887986104ed565b5089516301dbb3ff60e61b8152fd5b8951631f2a200560e01b81528390fd5b895163d92e233d60e01b81528390fd5b9050878316143861049d565b87516306fda65d60e31b8152fd5b611165565b508083916003193601126102ef576105ea6110cd565b600292600394848654146107a6578486556001600160a01b0392808416918215801561078f575b6107815734156107735760008051602061180a83398151915294838610156107695761063d83876117bd565b9485815280602052878120918254169081156107595750861497881561074857610670818301548b840154905b34611279565b988915610738576005916106b19115610713578084016106913482546111d6565b90558b84016106a18c8254611239565b90555b8301548b84015490611246565b910155602435871061021b575091600193916106d28760209995339061172f565b85519283528783015234858301528560608301527f0c8d1c4d9e04dd566f62cc25a237c76ae445c7d40c5f2a485e51c9177bc7558b60803393a35551908152f35b8b84016107213482546111d6565b90558084016107318c8254611239565b90556106a4565b885163bb2875c360e01b81528490fd5b6106708a830154828401549061066a565b88516301dbb3ff60e61b81528490fd5b61063d86846117bd565b8551631f2a200560e01b8152fd5b855163d92e233d60e01b8152fd5b5060008051602061180a8339815191528314610611565b83516306fda65d60e31b8152fd5b509034610285576060366003190112610285576107cf6110cd565b906107ec6107e46107de6110e8565b846117a2565b8192916117bd565b8552846020528385209460018060a01b0392838754161561084c575091806108359492846020989550501691161460001461083c5760036002820154910154905b604435611279565b9051908152f35b600260038201549101549061082d565b85516301dbb3ff60e61b8152fd5b5034610285576020366003190112610285578060c09383358152806020522060018060a01b0392838254169360018301541692600283015490600560038501549385015494015494815196875260208701528501526060840152608083015260a0820152f35b8382346102ef57816003193601126102ef576020905160008051602061180a8339815191528152f35b509134610a7a576080366003190112610a7a576109046110cd565b90602435600260035414610a6a5760026003556001600160a01b03838116919082158015610a53575b610a43578115610a335760008051602061180a83398151915292831015610a2857829361095b865b866117bd565b93848252816020528882208381541615610a18578461097a91876114bd565b9390961614600014610a0e57849582975b6044358910610a0057606435881061056057507f1644e236c5520c62ce0dee793b42f87f940781d55b02c890fbbcdfff1ee5e2519392916109cf898b93339061172f565b3381526002602052206109e38782546111d6565b90558751948552602085015260408401523392806060810161054c565b8951638dc525d160e01b8152fd5b849695829661098b565b89516301dbb3ff60e61b81528990fd5b849361095b84610955565b8651631f2a200560e01b81528690fd5b865163d92e233d60e01b81528690fd5b5060008051602061180a833981519152831461092d565b84516306fda65d60e31b81528490fd5b80fd5b5034610285578260031936011261028557600260035414610b22576002600355338352600260205280832054918215610b1457338452600260205283828120558380808086335af1610acd6111f9565b5015610b065750519081527f8455ae6be5d92f1df1c3c1484388e247a36c7e60d72055ae216dbc258f257d4b60203392a2600160035580f35b90516312171d8360e31b8152fd5b9051630686827b60e51b8152fd5b516306fda65d60e31b8152fd5b508290346102ef57610b4036611128565b95600260035414610ca45760026003556001600160a01b038581169590949060008051602061180a833981519152808814908115610c98575b50610c885784158015610c80575b610c705790610b95916117a2565b939095610ba285886117bd565b9586845283602052888420938185541615610c605791610bee95939183610be19d9896945050891614600014610c4c57610be89097889485949c8d9687935b3390611679565b856112fb565b948510610c3e575082519182526020808301959095526040820184905233917f9c8e2178a53b464e8c6d21c6d0d1f5189e5d2f6f6a79237ba611cf996a6e6b3290606090a3600160035551908152f35b835163bb55fd2760e01b8152fd5b91610be89097889485949c8d968793610be1565b89516301dbb3ff60e61b81528c90fd5b8751631f2a200560e01b81528a90fd5b508315610b87565b875163d92e233d60e01b81528a90fd5b9050868316148b610b79565b85516306fda65d60e31b81528890fd5b5090346102855781600319360112610285578160c093610d10610190610cd86110cd565b610ce06110e8565b908460a08751610cef81611182565b828152826020820152828982015282606082015282608082015201526117a2565b81528060205220825191610d2383611182565b60018060a01b0393848354169485855280600185015416906020860191825260028501549183870192835260a0600560038801549660608a019788528801549760808a019889520154970196875283519788525116602087015251908501525160608401525160808301525160a0820152f35b5090346102855781600319360112610285576020928291610db56110e8565b90358252600185528282206001600160a01b039091168252845220549051908152f35b8382346102ef57816003193601126102ef576020905160038152f35b8382346102ef5760203660031901126102ef5760209181906001600160a01b03610e1c6110cd565b1681526002845220549051908152f35b8382346102ef57806003193601126102ef57602090610835610190610e4f6110cd565b610e576110e8565b906117a2565b503461028557610e6c366110fe565b939190600260035414610f7d5760026003556001600160a01b038281169390929084158015610f66575b6107815782156107735760008051602061180a8339815191529185831015610f5c57610ec281846117bd565b94858a5289602052878a209081541615610f4c57610ee79185916101b9833384611679565b96871061021b5750846020973381526002895220610f068782546111d6565b9055845193845286840152838301528360608301527f0c8d1c4d9e04dd566f62cc25a237c76ae445c7d40c5f2a485e51c9177bc7558b60803393a3600160035551908152f35b87516301dbb3ff60e61b81528390fd5b610ec283826117bd565b5060008051602061180a8339815191528514610e96565b83516306fda65d60e31b81528390fd5b508234610a7a576060366003190112610a7a5750610835602092604435906024359035611279565b939050610fc1366110fe565b9490956002600354146110c1575060026003556001600160a01b039180831690811580156110aa575b61109a5734158015611092575b6110825760008051602061180a8339815191529182101561107c5790805b61101f83836117bd565b948587528660205287872096818854161561106c5750610bee939291908216036110545750348095610be88a8b943390611679565b9050878095611067349a8b943390611679565b610be8565b88516301dbb3ff60e61b81528690fd5b81611015565b8551631f2a200560e01b81528390fd5b508715610ff7565b855163d92e233d60e01b81528390fd5b5060008051602061180a8339815191528214610fea565b6306fda65d60e31b8152fd5b600435906001600160a01b03821682036110e357565b600080fd5b602435906001600160a01b03821682036110e357565b60609060031901126110e3576004356001600160a01b03811681036110e357906024359060443590565b60a09060031901126110e3576001600160a01b039060043582811681036110e3579160243590811681036110e35790604435906064359060843590565b346110e35760003660031901126110e35760206040516103e88152f35b60c0810190811067ffffffffffffffff82111761119e57604052565b634e487b7160e01b600052604160045260246000fd5b90601f8019910116810190811067ffffffffffffffff82111761119e57604052565b919082018092116111e357565b634e487b7160e01b600052601160045260246000fd5b3d15611234573d9067ffffffffffffffff821161119e5760405191611228601f8201601f1916602001846111b4565b82523d6000602084013e565b606090565b919082039182116111e357565b818102929181159184041417156111e357565b8115611263570490565b634e487b7160e01b600052601260045260246000fd5b919082156112e9578015918280156112e1575b6112cf576103e5808502948504036111e3576112a89084611246565b916103e88083029283041417156111e3576112cc926112c6916111d6565b90611259565b90565b60405163bb55fd2760e01b8152600490fd5b50801561128c565b604051631f2a200560e01b8152600490fd5b939290916004948584019081548015600014611476575061131c8484611246565b966000600389111561146757508760019080821c82810180911161140d5791905b8a8310611447575050505b6103e89788811115611437576103e71981019081116114225797826000526001602052604060002060008052602052604060002080549082820180921161140d575583555b87156113fe575091600593916113f993600052600160205260406000203360005260205260406000206113c18982546111d6565b90556113ce8882546111d6565b90556113df600286019182546111d6565b8091556113f1600386019283546111d6565b809255611246565b910155565b60405163bb55fd2760e01b8152fd5b601184634e487b7160e01b6000525260246000fd5b601182634e487b7160e01b6000525260246000fd5b5060405163bb55fd2760e01b8152fd5b9091995061145e8a6114598184611259565b6111d6565b821c919061133d565b97156113485760019750611348565b6114a661149b6114946114898488611246565b60028a015490611259565b9287611246565b600388015490611259565b808210156114b657505b9661138d565b90506114b0565b919290600093838552600160205260408086203387526020528181872054106115915760028301906114f0825484611246565b92600485019161150283548096611259565b9861151b6003880196611516885486611246565b611259565b988a158015611589575b61157857926005969492826113f9979561155d9452600160205281812033825260205220611554828254611239565b90558254611239565b905561156a888254611239565b8091556113f1878354611239565b825163bb55fd2760e01b8152600490fd5b508915611525565b5163bb55fd2760e01b8152600490fd5b80546001600160a01b039283169216919091149291831561164e576115d160028301546003840154905b83611279565b93841561163c5715611615576115ec600283019182546111d6565b9055600381016115fd848254611239565b90555b60056113f96002830154600384015490611246565b611624600383019182546111d6565b905560028101611635848254611239565b9055611600565b60405163bb2875c360e01b8152600490fd5b6115d160038301546002840154906115cb565b908160209103126110e3575180151581036110e35790565b6001600160a01b0390811660008051602061180a833981519152811461172957602092600060649260405196879586946323b872dd60e01b865216600485015230602485015260448401525af190811561171d576000916116ef575b50156116dd57565b6040516312171d8360e31b8152600490fd5b611710915060203d8111611716575b61170881836111b4565b810190611661565b386116d5565b503d6116fe565b6040513d6000823e3d90fd5b50505050565b6001600160a01b039190821660008051602061180a833981519152811461178e57602092916000604492604051968795869463a9059cbb60e01b865216600485015260248401525af190811561171d576000916116ef5750156116dd57565b506000809381938293165af16116d56111f9565b9091906001600160a01b0380841690821610156112cc579190565b6040519060208201926bffffffffffffffffffffffff19809260601b16845260601b166034820152602881526060810181811067ffffffffffffffff82111761119e576040525190209056fe000000000000000000000000eeeeeeeeeeeeeeeeeeeeeeeeeeeeeeeeeeeeeeeea26469706673582212206293310f194a7b2db1b51b92a1590298314b84692e40137b4577ac8f63f3e91064736f6c63430008140033","opcodes":"PUSH1 0x80 DUP1 PUSH1 0x40 MSTORE CALLVALUE PUSH2 0x1B JUMPI PUSH1 0x1 PUSH1 0x3 SSTORE PUSH2 0x185F SWAP1 DUP2 PUSH2 0x21 DUP3 CODECOPY RETURN JUMPDEST PUSH1 0x0 DUP1 REVERT INVALID PUSH1 0x80 PUSH1 0x40 DUP2 DUP2 MSTORE PUSH1 0x4 SWAP1 DUP2 CALLDATASIZE LT ISZERO PUSH2 0x22 JUMPI JUMPDEST POP POP POP CALLDATASIZE ISZERO PUSH2 0x20 JUMPI PUSH1 0x0 DUP1 REVERT JUMPDEST STOP JUMPDEST PUSH1 0x0 SWAP3 DUP4 CALLDATALOAD PUSH1 0xE0 SHR SWAP1 DUP2 PUSH4 0x145FF68 EQ PUSH2 0xFB5 JUMPI POP DUP1 PUSH4 0x54D50D4 EQ PUSH2 0xF8D JUMPI DUP1 PUSH4 0x94AB4AC EQ PUSH2 0xE5D JUMPI DUP1 PUSH4 0x2EF61C21 EQ PUSH2 0xE2C JUMPI DUP1 PUSH4 0x3CFBA0E3 EQ PUSH2 0xDF4 JUMPI DUP1 PUSH4 0x41CD47BF EQ PUSH2 0xDD8 JUMPI DUP1 PUSH4 0x4FB5BF7F EQ PUSH2 0xD96 JUMPI DUP1 PUSH4 0x531AA03E EQ PUSH2 0xCB4 JUMPI DUP1 PUSH4 0x91C98A2A EQ PUSH2 0xB2F JUMPI DUP1 PUSH4 0xA0EF91DF EQ PUSH2 0xA7D JUMPI DUP1 PUSH4 0xA1CFACDE EQ PUSH2 0x8E9 JUMPI DUP1 PUSH4 0xA734F06E EQ PUSH2 0x8C0 JUMPI DUP1 PUSH4 0xB5217BB4 EQ PUSH2 0x85A JUMPI DUP1 PUSH4 0xB6466384 EQ PUSH2 0x7B4 JUMPI DUP1 PUSH4 0xBA9A7A56 EQ PUSH2 0x5CF JUMPI DUP1 PUSH4 0xD196E9C6 EQ PUSH2 0x5D4 JUMPI DUP1 PUSH4 0xD73792A9 EQ PUSH2 0x5CF JUMPI DUP1 PUSH4 0xE2DC85DC EQ PUSH2 0x451 JUMPI DUP1 PUSH4 0xE3433615 EQ PUSH2 0x2F3 JUMPI DUP1 PUSH4 0xF0A00468 EQ PUSH2 0x289 JUMPI PUSH4 0xFE029156 SUB PUSH2 0x12 JUMPI CALLVALUE PUSH2 0x285 JUMPI PUSH1 0x80 CALLDATASIZE PUSH1 0x3 NOT ADD SLT PUSH2 0x285 JUMPI PUSH2 0x12B PUSH2 0x10CD JUMP JUMPDEST PUSH2 0x133 PUSH2 0x10E8 JUMP JUMPDEST SWAP4 PUSH1 0x44 CALLDATALOAD PUSH1 0x2 PUSH1 0x3 SLOAD EQ PUSH2 0x275 JUMPI PUSH1 0x2 PUSH1 0x3 SSTORE PUSH1 0x1 PUSH1 0x1 PUSH1 0xA0 SHL SUB DUP4 DUP2 AND SWAP4 PUSH1 0x0 DUP1 MLOAD PUSH1 0x20 PUSH2 0x180A DUP4 CODECOPY DUP2 MLOAD SWAP2 MSTORE DUP1 DUP7 EQ SWAP1 DUP2 ISZERO PUSH2 0x269 JUMPI JUMPDEST POP PUSH2 0x259 JUMPI DUP3 ISZERO PUSH2 0x249 JUMPI DUP2 DUP9 AND SWAP2 DUP3 DUP7 EQ PUSH2 0x239 JUMPI DUP7 PUSH2 0x196 PUSH2 0x190 DUP12 DUP6 PUSH2 0x17A2 JUMP JUMPDEST SWAP1 PUSH2 0x17BD JUMP JUMPDEST SWAP6 DUP7 DUP2 MSTORE DUP1 PUSH1 0x20 MSTORE KECCAK256 SWAP1 DUP2 SLOAD AND ISZERO PUSH2 0x229 JUMPI PUSH2 0x1BE SWAP2 DUP5 SWAP2 PUSH2 0x1B9 DUP4 CALLER DUP5 PUSH2 0x1679 JUMP JUMPDEST PUSH2 0x15A1 JUMP JUMPDEST SWAP6 PUSH1 0x64 CALLDATALOAD DUP8 LT PUSH2 0x21B JUMPI POP PUSH2 0x1D7 DUP7 PUSH1 0x20 SWAP9 CALLER SWAP1 PUSH2 0x172F JUMP JUMPDEST DUP5 MLOAD SWAP4 DUP5 MSTORE DUP7 DUP5 ADD MSTORE DUP4 DUP4 ADD MSTORE DUP4 PUSH1 0x60 DUP4 ADD MSTORE PUSH32 0xC8D1C4D9E04DD566F62CC25A237C76AE445C7D40C5F2A485E51C9177BC7558B PUSH1 0x80 CALLER SWAP4 LOG3 PUSH1 0x1 PUSH1 0x3 SSTORE MLOAD SWAP1 DUP2 MSTORE RETURN JUMPDEST DUP6 MLOAD PUSH4 0xBB2875C3 PUSH1 0xE0 SHL DUP2 MSTORE REVERT JUMPDEST DUP7 MLOAD PUSH4 0x1DBB3FF PUSH1 0xE6 SHL DUP2 MSTORE DUP9 SWAP1 REVERT JUMPDEST DUP7 MLOAD PUSH4 0x100DAC05 PUSH1 0xE1 SHL DUP2 MSTORE DUP9 SWAP1 REVERT JUMPDEST DUP6 MLOAD PUSH4 0x1F2A2005 PUSH1 0xE0 SHL DUP2 MSTORE DUP8 SWAP1 REVERT JUMPDEST DUP6 MLOAD PUSH4 0xD92E233D PUSH1 0xE0 SHL DUP2 MSTORE DUP8 SWAP1 REVERT JUMPDEST SWAP1 POP DUP3 DUP10 AND EQ CODESIZE PUSH2 0x16C JUMP JUMPDEST POP POP POP MLOAD PUSH4 0x6FDA65D PUSH1 0xE3 SHL DUP2 MSTORE REVERT JUMPDEST DUP3 DUP1 REVERT JUMPDEST DUP4 DUP3 CALLVALUE PUSH2 0x2EF JUMPI PUSH1 0x60 CALLDATASIZE PUSH1 0x3 NOT ADD SLT PUSH2 0x2EF JUMPI PUSH2 0x2A4 PUSH2 0x10CD JUMP JUMPDEST PUSH2 0x2AC PUSH2 0x10E8 JUMP JUMPDEST PUSH1 0x44 CALLDATALOAD PUSH1 0x1 PUSH1 0x1 PUSH1 0xA0 SHL SUB DUP2 AND SWAP3 SWAP1 DUP4 SWAP1 SUB PUSH2 0x2EB JUMPI SWAP2 PUSH2 0x2D4 PUSH2 0x190 PUSH1 0x20 SWAP7 SWAP4 DUP7 SWAP6 PUSH2 0x17A2 JUMP JUMPDEST DUP3 MSTORE PUSH1 0x1 DUP6 MSTORE DUP3 DUP3 KECCAK256 SWAP1 DUP3 MSTORE DUP5 MSTORE KECCAK256 SLOAD SWAP1 MLOAD SWAP1 DUP2 MSTORE RETURN JUMPDEST DUP5 DUP1 REVERT JUMPDEST POP DUP1 REVERT JUMPDEST POP DUP3 SWAP1 CALLVALUE PUSH2 0x2EF JUMPI DUP1 PUSH1 0x3 NOT CALLDATASIZE ADD SLT PUSH2 0x2EF JUMPI PUSH2 0x30E PUSH2 0x10CD JUMP JUMPDEST PUSH2 0x316 PUSH2 0x10E8 JUMP JUMPDEST PUSH1 0x1 PUSH1 0x1 PUSH1 0xA0 SHL SUB SWAP2 DUP1 DUP4 AND DUP1 ISZERO DUP1 ISZERO PUSH2 0x447 JUMPI JUMPDEST PUSH2 0x437 JUMPI DUP4 DUP4 AND EQ PUSH2 0x427 JUMPI SWAP1 PUSH2 0x341 SWAP2 PUSH2 0x17A2 JUMP JUMPDEST SWAP2 SWAP1 SWAP3 PUSH2 0x34E DUP4 DUP6 PUSH2 0x17BD JUMP JUMPDEST SWAP4 DUP5 DUP7 MSTORE DUP6 PUSH1 0x20 MSTORE DUP3 DUP3 DUP8 KECCAK256 SLOAD AND PUSH2 0x417 JUMPI DUP2 PUSH32 0xC0C143D18100B0EC0B6C08CC52247DD860FFD3FC2AF30733326E5F980C19635A SWAP2 PUSH1 0x5 DUP8 PUSH1 0x20 SWAP11 DUP11 DUP9 DUP4 SWAP9 MLOAD SWAP6 PUSH2 0x398 DUP8 PUSH2 0x1182 JUMP JUMPDEST AND SWAP9 DUP10 DUP7 MSTORE DUP1 DUP15 DUP8 ADD SWAP12 AND SWAP11 DUP12 DUP2 MSTORE DUP8 DUP8 ADD SWAP1 DUP4 DUP3 MSTORE PUSH1 0x60 DUP9 ADD SWAP3 DUP5 DUP5 MSTORE DUP1 DUP11 PUSH1 0x80 DUP12 ADD SWAP7 DUP1 DUP9 MSTORE PUSH1 0xA0 DUP13 ADD SWAP10 DUP2 DUP12 MSTORE DUP2 MSTORE PUSH1 0x20 DUP2 SWAP1 MSTORE KECCAK256 SWAP10 MLOAD AND SWAP1 PUSH12 0xFFFFFFFFFFFFFFFFFFFFFFFF PUSH1 0xA0 SHL SWAP2 DUP3 DUP12 SLOAD AND OR DUP11 SSTORE PUSH1 0x1 DUP11 ADD SWAP3 MLOAD AND SWAP1 DUP3 SLOAD AND OR SWAP1 SSTORE MLOAD PUSH1 0x2 DUP8 ADD SSTORE MLOAD PUSH1 0x3 DUP7 ADD SSTORE MLOAD SWAP1 DUP5 ADD SSTORE MLOAD SWAP2 ADD SSTORE MLOAD SWAP6 DUP1 LOG4 DUP2 MSTORE RETURN JUMPDEST DUP2 MLOAD PUSH4 0x7A471E13 PUSH1 0xE1 SHL DUP2 MSTORE DUP8 SWAP1 REVERT JUMPDEST DUP4 MLOAD PUSH4 0x100DAC05 PUSH1 0xE1 SHL DUP2 MSTORE DUP7 SWAP1 REVERT JUMPDEST DUP5 MLOAD PUSH4 0xD92E233D PUSH1 0xE0 SHL DUP2 MSTORE DUP8 SWAP1 REVERT JUMPDEST POP DUP4 DUP4 AND ISZERO PUSH2 0x32B JUMP JUMPDEST POP SWAP2 SWAP1 CALLVALUE PUSH2 0x2EF JUMPI PUSH2 0x462 CALLDATASIZE PUSH2 0x1128 JUMP JUMPDEST SWAP6 SWAP3 SWAP4 SWAP1 SWAP5 PUSH1 0x2 PUSH1 0x3 SLOAD EQ PUSH2 0x5C1 JUMPI PUSH1 0x2 PUSH1 0x3 SSTORE PUSH1 0x1 PUSH1 0x1 PUSH1 0xA0 SHL SUB SWAP5 DUP3 DUP7 AND SWAP3 PUSH1 0x0 DUP1 MLOAD PUSH1 0x20 PUSH2 0x180A DUP4 CODECOPY DUP2 MLOAD SWAP2 MSTORE DUP1 DUP6 EQ SWAP1 DUP2 ISZERO PUSH2 0x5B5 JUMPI JUMPDEST POP PUSH2 0x5A5 JUMPI DUP5 ISZERO PUSH2 0x595 JUMPI SWAP1 PUSH2 0x4B2 SWAP2 PUSH2 0x17A2 JUMP JUMPDEST SWAP2 DUP10 PUSH2 0x4BE DUP5 DUP5 PUSH2 0x17BD JUMP JUMPDEST SWAP7 DUP8 DUP2 MSTORE DUP1 PUSH1 0x20 MSTORE KECCAK256 DUP8 DUP2 SLOAD AND ISZERO PUSH2 0x586 JUMPI DUP6 PUSH2 0x4DB SWAP2 DUP9 PUSH2 0x14BD JUMP JUMPDEST SWAP5 SWAP1 SWAP8 DUP4 AND EQ PUSH1 0x0 EQ PUSH2 0x57D JUMPI DUP7 SWAP9 DUP5 SWAP9 JUMPDEST DUP11 LT PUSH2 0x56E JUMPI DUP9 LT PUSH2 0x560 JUMPI POP DUP3 PUSH32 0x1644E236C5520C62CE0DEE793B42F87F940781D55B02C890FBBCDFFF1EE5E251 SWAP5 SWAP4 SWAP3 PUSH2 0x52E DUP9 PUSH2 0x535 SWAP5 CALLER SWAP1 PUSH2 0x172F JUMP JUMPDEST CALLER SWAP1 PUSH2 0x172F JUMP JUMPDEST DUP8 MLOAD SWAP5 DUP6 MSTORE PUSH1 0x20 DUP6 ADD MSTORE PUSH1 0x40 DUP5 ADD MSTORE CALLER SWAP3 DUP1 PUSH1 0x60 DUP2 ADD JUMPDEST SUB SWAP1 LOG3 PUSH1 0x1 PUSH1 0x3 SSTORE DUP3 MLOAD SWAP2 DUP3 MSTORE PUSH1 0x20 DUP3 ADD MSTORE RETURN JUMPDEST DUP10 MLOAD PUSH4 0xEF71D091 PUSH1 0xE0 SHL DUP2 MSTORE REVERT JUMPDEST POP DUP10 MLOAD PUSH4 0x8DC525D1 PUSH1 0xE0 SHL DUP2 MSTORE REVERT JUMPDEST DUP4 SWAP9 DUP8 SWAP9 PUSH2 0x4ED JUMP JUMPDEST POP DUP10 MLOAD PUSH4 0x1DBB3FF PUSH1 0xE6 SHL DUP2 MSTORE REVERT JUMPDEST DUP10 MLOAD PUSH4 0x1F2A2005 PUSH1 0xE0 SHL DUP2 MSTORE DUP4 SWAP1 REVERT JUMPDEST DUP10 MLOAD PUSH4 0xD92E233D PUSH1 0xE0 SHL DUP2 MSTORE DUP4 SWAP1 REVERT JUMPDEST SWAP1 POP DUP8 DUP4 AND EQ CODESIZE PUSH2 0x49D JUMP JUMPDEST DUP8 MLOAD PUSH4 0x6FDA65D PUSH1 0xE3 SHL DUP2 MSTORE REVERT JUMPDEST PUSH2 0x1165 JUMP JUMPDEST POP DUP1 DUP4 SWAP2 PUSH1 0x3 NOT CALLDATASIZE ADD SLT PUSH2 0x2EF JUMPI PUSH2 0x5EA PUSH2 0x10CD JUMP JUMPDEST PUSH1 0x2 SWAP3 PUSH1 0x3 SWAP5 DUP5 DUP7 SLOAD EQ PUSH2 0x7A6 JUMPI DUP5 DUP7 SSTORE PUSH1 0x1 PUSH1 0x1 PUSH1 0xA0 SHL SUB SWAP3 DUP1 DUP5 AND SWAP2 DUP3 ISZERO DUP1 ISZERO PUSH2 0x78F JUMPI JUMPDEST PUSH2 0x781 JUMPI CALLVALUE ISZERO PUSH2 0x773 JUMPI PUSH1 0x0 DUP1 MLOAD PUSH1 0x20 PUSH2 0x180A DUP4 CODECOPY DUP2 MLOAD SWAP2 MSTORE SWAP5 DUP4 DUP7 LT ISZERO PUSH2 0x769 JUMPI PUSH2 0x63D DUP4 DUP8 PUSH2 0x17BD JUMP JUMPDEST SWAP5 DUP6 DUP2 MSTORE DUP1 PUSH1 0x20 MSTORE DUP8 DUP2 KECCAK256 SWAP2 DUP3 SLOAD AND SWAP1 DUP2 ISZERO PUSH2 0x759 JUMPI POP DUP7 EQ SWAP8 DUP9 ISZERO PUSH2 0x748 JUMPI PUSH2 0x670 DUP2 DUP4 ADD SLOAD DUP12 DUP5 ADD SLOAD SWAP1 JUMPDEST CALLVALUE PUSH2 0x1279 JUMP JUMPDEST SWAP9 DUP10 ISZERO PUSH2 0x738 JUMPI PUSH1 0x5 SWAP2 PUSH2 0x6B1 SWAP2 ISZERO PUSH2 0x713 JUMPI DUP1 DUP5 ADD PUSH2 0x691 CALLVALUE DUP3 SLOAD PUSH2 0x11D6 JUMP JUMPDEST SWAP1 SSTORE DUP12 DUP5 ADD PUSH2 0x6A1 DUP13 DUP3 SLOAD PUSH2 0x1239 JUMP JUMPDEST SWAP1 SSTORE JUMPDEST DUP4 ADD SLOAD DUP12 DUP5 ADD SLOAD SWAP1 PUSH2 0x1246 JUMP JUMPDEST SWAP2 ADD SSTORE PUSH1 0x24 CALLDATALOAD DUP8 LT PUSH2 0x21B JUMPI POP SWAP2 PUSH1 0x1 SWAP4 SWAP2 PUSH2 0x6D2 DUP8 PUSH1 0x20 SWAP10 SWAP6 CALLER SWAP1 PUSH2 0x172F JUMP JUMPDEST DUP6 MLOAD SWAP3 DUP4 MSTORE DUP8 DUP4 ADD MSTORE CALLVALUE DUP6 DUP4 ADD MSTORE DUP6 PUSH1 0x60 DUP4 ADD MSTORE PUSH32 0xC8D1C4D9E04DD566F62CC25A237C76AE445C7D40C5F2A485E51C9177BC7558B PUSH1 0x80 CALLER SWAP4 LOG3 SSTORE MLOAD SWAP1 DUP2 MSTORE RETURN JUMPDEST DUP12 DUP5 ADD PUSH2 0x721 CALLVALUE DUP3 SLOAD PUSH2 0x11D6 JUMP JUMPDEST SWAP1 SSTORE DUP1 DUP5 ADD PUSH2 0x731 DUP13 DUP3 SLOAD PUSH2 0x1239 JUMP JUMPDEST SWAP1 SSTORE PUSH2 0x6A4 JUMP JUMPDEST DUP9 MLOAD PUSH4 0xBB2875C3 PUSH1 0xE0 SHL DUP2 MSTORE DUP5 SWAP1 REVERT JUMPDEST PUSH2 0x670 DUP11 DUP4 ADD SLOAD DUP3 DUP5 ADD SLOAD SWAP1 PUSH2 0x66A JUMP JUMPDEST DUP9 MLOAD PUSH4 0x1DBB3FF PUSH1 0xE6 SHL DUP2 MSTORE DUP5 SWAP1 REVERT JUMPDEST PUSH2 0x63D DUP7 DUP5 PUSH2 0x17BD JUMP JUMPDEST DUP6 MLOAD PUSH4 0x1F2A2005 PUSH1 0xE0 SHL DUP2 MSTORE REVERT JUMPDEST DUP6 MLOAD PUSH4 0xD92E233D PUSH1 0xE0 SHL DUP2 MSTORE REVERT JUMPDEST POP PUSH1 0x0 DUP1 MLOAD PUSH1 0x20 PUSH2 0x180A DUP4 CODECOPY DUP2 MLOAD SWAP2 MSTORE DUP4 EQ PUSH2 0x611 JUMP JUMPDEST DUP4 MLOAD PUSH4 0x6FDA65D PUSH1 0xE3 SHL DUP2 MSTORE REVERT JUMPDEST POP SWAP1 CALLVALUE PUSH2 0x285 JUMPI PUSH1 0x60 CALLDATASIZE PUSH1 0x3 NOT ADD SLT PUSH2 0x285 JUMPI PUSH2 0x7CF PUSH2 0x10CD JUMP JUMPDEST SWAP1 PUSH2 0x7EC PUSH2 0x7E4 PUSH2 0x7DE PUSH2 0x10E8 JUMP JUMPDEST DUP5 PUSH2 0x17A2 JUMP JUMPDEST DUP2 SWAP3 SWAP2 PUSH2 0x17BD JUMP JUMPDEST DUP6 MSTORE DUP5 PUSH1 0x20 MSTORE DUP4 DUP6 KECCAK256 SWAP5 PUSH1 0x1 DUP1 PUSH1 0xA0 SHL SUB SWAP3 DUP4 DUP8 SLOAD AND ISZERO PUSH2 0x84C JUMPI POP SWAP2 DUP1 PUSH2 0x835 SWAP5 SWAP3 DUP5 PUSH1 0x20 SWAP9 SWAP6 POP POP AND SWAP2 AND EQ PUSH1 0x0 EQ PUSH2 0x83C JUMPI PUSH1 0x3 PUSH1 0x2 DUP3 ADD SLOAD SWAP2 ADD SLOAD SWAP1 JUMPDEST PUSH1 0x44 CALLDATALOAD PUSH2 0x1279 JUMP JUMPDEST SWAP1 MLOAD SWAP1 DUP2 MSTORE RETURN JUMPDEST PUSH1 0x2 PUSH1 0x3 DUP3 ADD SLOAD SWAP2 ADD SLOAD SWAP1 PUSH2 0x82D JUMP JUMPDEST DUP6 MLOAD PUSH4 0x1DBB3FF PUSH1 0xE6 SHL DUP2 MSTORE REVERT JUMPDEST POP CALLVALUE PUSH2 0x285 JUMPI PUSH1 0x20 CALLDATASIZE PUSH1 0x3 NOT ADD SLT PUSH2 0x285 JUMPI DUP1 PUSH1 0xC0 SWAP4 DUP4 CALLDATALOAD DUP2 MSTORE DUP1 PUSH1 0x20 MSTORE KECCAK256 PUSH1 0x1 DUP1 PUSH1 0xA0 SHL SUB SWAP3 DUP4 DUP3 SLOAD AND SWAP4 PUSH1 0x1 DUP4 ADD SLOAD AND SWAP3 PUSH1 0x2 DUP4 ADD SLOAD SWAP1 PUSH1 0x5 PUSH1 0x3 DUP6 ADD SLOAD SWAP4 DUP6 ADD SLOAD SWAP5 ADD SLOAD SWAP5 DUP2 MLOAD SWAP7 DUP8 MSTORE PUSH1 0x20 DUP8 ADD MSTORE DUP6 ADD MSTORE PUSH1 0x60 DUP5 ADD MSTORE PUSH1 0x80 DUP4 ADD MSTORE PUSH1 0xA0 DUP3 ADD MSTORE RETURN JUMPDEST DUP4 DUP3 CALLVALUE PUSH2 0x2EF JUMPI DUP2 PUSH1 0x3 NOT CALLDATASIZE ADD SLT PUSH2 0x2EF JUMPI PUSH1 0x20 SWAP1 MLOAD PUSH1 0x0 DUP1 MLOAD PUSH1 0x20 PUSH2 0x180A DUP4 CODECOPY DUP2 MLOAD SWAP2 MSTORE DUP2 MSTORE RETURN JUMPDEST POP SWAP2 CALLVALUE PUSH2 0xA7A JUMPI PUSH1 0x80 CALLDATASIZE PUSH1 0x3 NOT ADD SLT PUSH2 0xA7A JUMPI PUSH2 0x904 PUSH2 0x10CD JUMP JUMPDEST SWAP1 PUSH1 0x24 CALLDATALOAD PUSH1 0x2 PUSH1 0x3 SLOAD EQ PUSH2 0xA6A JUMPI PUSH1 0x2 PUSH1 0x3 SSTORE PUSH1 0x1 PUSH1 0x1 PUSH1 0xA0 SHL SUB DUP4 DUP2 AND SWAP2 SWAP1 DUP3 ISZERO DUP1 ISZERO PUSH2 0xA53 JUMPI JUMPDEST PUSH2 0xA43 JUMPI DUP2 ISZERO PUSH2 0xA33 JUMPI PUSH1 0x0 DUP1 MLOAD PUSH1 0x20 PUSH2 0x180A DUP4 CODECOPY DUP2 MLOAD SWAP2 MSTORE SWAP3 DUP4 LT ISZERO PUSH2 0xA28 JUMPI DUP3 SWAP4 PUSH2 0x95B DUP7 JUMPDEST DUP7 PUSH2 0x17BD JUMP JUMPDEST SWAP4 DUP5 DUP3 MSTORE DUP2 PUSH1 0x20 MSTORE DUP9 DUP3 KECCAK256 DUP4 DUP2 SLOAD AND ISZERO PUSH2 0xA18 JUMPI DUP5 PUSH2 0x97A SWAP2 DUP8 PUSH2 0x14BD JUMP JUMPDEST SWAP4 SWAP1 SWAP7 AND EQ PUSH1 0x0 EQ PUSH2 0xA0E JUMPI DUP5 SWAP6 DUP3 SWAP8 JUMPDEST PUSH1 0x44 CALLDATALOAD DUP10 LT PUSH2 0xA00 JUMPI PUSH1 0x64 CALLDATALOAD DUP9 LT PUSH2 0x560 JUMPI POP PUSH32 0x1644E236C5520C62CE0DEE793B42F87F940781D55B02C890FBBCDFFF1EE5E251 SWAP4 SWAP3 SWAP2 PUSH2 0x9CF DUP10 DUP12 SWAP4 CALLER SWAP1 PUSH2 0x172F JUMP JUMPDEST CALLER DUP2 MSTORE PUSH1 0x2 PUSH1 0x20 MSTORE KECCAK256 PUSH2 0x9E3 DUP8 DUP3 SLOAD PUSH2 0x11D6 JUMP JUMPDEST SWAP1 SSTORE DUP8 MLOAD SWAP5 DUP6 MSTORE PUSH1 0x20 DUP6 ADD MSTORE PUSH1 0x40 DUP5 ADD MSTORE CALLER SWAP3 DUP1 PUSH1 0x60 DUP2 ADD PUSH2 0x54C JUMP JUMPDEST DUP10 MLOAD PUSH4 0x8DC525D1 PUSH1 0xE0 SHL DUP2 MSTORE REVERT JUMPDEST DUP5 SWAP7 SWAP6 DUP3 SWAP7 PUSH2 0x98B JUMP JUMPDEST DUP10 MLOAD PUSH4 0x1DBB3FF PUSH1 0xE6 SHL DUP2 MSTORE DUP10 SWAP1 REVERT JUMPDEST DUP5 SWAP4 PUSH2 0x95B DUP5 PUSH2 0x955 JUMP JUMPDEST DUP7 MLOAD PUSH4 0x1F2A2005 PUSH1 0xE0 SHL DUP2 MSTORE DUP7 SWAP1 REVERT JUMPDEST DUP7 MLOAD PUSH4 0xD92E233D PUSH1 0xE0 SHL DUP2 MSTORE DUP7 SWAP1 REVERT JUMPDEST POP PUSH1 0x0 DUP1 MLOAD PUSH1 0x20 PUSH2 0x180A DUP4 CODECOPY DUP2 MLOAD SWAP2 MSTORE DUP4 EQ PUSH2 0x92D JUMP JUMPDEST DUP5 MLOAD PUSH4 0x6FDA65D PUSH1 0xE3 SHL DUP2 MSTORE DUP5 SWAP1 REVERT JUMPDEST DUP1 REVERT JUMPDEST POP CALLVALUE PUSH2 0x285 JUMPI DUP3 PUSH1 0x3 NOT CALLDATASIZE ADD SLT PUSH2 0x285 JUMPI PUSH1 0x2 PUSH1 0x3 SLOAD EQ PUSH2 0xB22 JUMPI PUSH1 0x2 PUSH1 0x3 SSTORE CALLER DUP4 MSTORE PUSH1 0x2 PUSH1 0x20 MSTORE DUP1 DUP4 KECCAK256 SLOAD SWAP2 DUP3 ISZERO PUSH2 0xB14 JUMPI CALLER DUP5 MSTORE PUSH1 0x2 PUSH1 0x20 MSTORE DUP4 DUP3 DUP2 KECCAK256 SSTORE DUP4 DUP1 DUP1 DUP1 DUP7 CALLER GAS CALL PUSH2 0xACD PUSH2 0x11F9 JUMP JUMPDEST POP ISZERO PUSH2 0xB06 JUMPI POP MLOAD SWAP1 DUP2 MSTORE PUSH32 0x8455AE6BE5D92F1DF1C3C1484388E247A36C7E60D72055AE216DBC258F257D4B PUSH1 0x20 CALLER SWAP3 LOG2 PUSH1 0x1 PUSH1 0x3 SSTORE DUP1 RETURN JUMPDEST SWAP1 MLOAD PUSH4 0x12171D83 PUSH1 0xE3 SHL DUP2 MSTORE REVERT JUMPDEST SWAP1 MLOAD PUSH4 0x686827B PUSH1 0xE5 SHL DUP2 MSTORE REVERT JUMPDEST MLOAD PUSH4 0x6FDA65D PUSH1 0xE3 SHL DUP2 MSTORE REVERT JUMPDEST POP DUP3 SWAP1 CALLVALUE PUSH2 0x2EF JUMPI PUSH2 0xB40 CALLDATASIZE PUSH2 0x1128 JUMP JUMPDEST SWAP6 PUSH1 0x2 PUSH1 0x3 SLOAD EQ PUSH2 0xCA4 JUMPI PUSH1 0x2 PUSH1 0x3 SSTORE PUSH1 0x1 PUSH1 0x1 PUSH1 0xA0 SHL SUB DUP6 DUP2 AND SWAP6 SWAP1 SWAP5 SWAP1 PUSH1 0x0 DUP1 MLOAD PUSH1 0x20 PUSH2 0x180A DUP4 CODECOPY DUP2 MLOAD SWAP2 MSTORE DUP1 DUP9 EQ SWAP1 DUP2 ISZERO PUSH2 0xC98 JUMPI JUMPDEST POP PUSH2 0xC88 JUMPI DUP5 ISZERO DUP1 ISZERO PUSH2 0xC80 JUMPI JUMPDEST PUSH2 0xC70 JUMPI SWAP1 PUSH2 0xB95 SWAP2 PUSH2 0x17A2 JUMP JUMPDEST SWAP4 SWAP1 SWAP6 PUSH2 0xBA2 DUP6 DUP9 PUSH2 0x17BD JUMP JUMPDEST SWAP6 DUP7 DUP5 MSTORE DUP4 PUSH1 0x20 MSTORE DUP9 DUP5 KECCAK256 SWAP4 DUP2 DUP6 SLOAD AND ISZERO PUSH2 0xC60 JUMPI SWAP2 PUSH2 0xBEE SWAP6 SWAP4 SWAP2 DUP4 PUSH2 0xBE1 SWAP14 SWAP9 SWAP7 SWAP5 POP POP DUP10 AND EQ PUSH1 0x0 EQ PUSH2 0xC4C JUMPI PUSH2 0xBE8 SWAP1 SWAP8 DUP9 SWAP5 DUP6 SWAP5 SWAP13 DUP14 SWAP7 DUP8 SWAP4 JUMPDEST CALLER SWAP1 PUSH2 0x1679 JUMP JUMPDEST DUP6 PUSH2 0x12FB JUMP JUMPDEST SWAP5 DUP6 LT PUSH2 0xC3E JUMPI POP DUP3 MLOAD SWAP2 DUP3 MSTORE PUSH1 0x20 DUP1 DUP4 ADD SWAP6 SWAP1 SWAP6 MSTORE PUSH1 0x40 DUP3 ADD DUP5 SWAP1 MSTORE CALLER SWAP2 PUSH32 0x9C8E2178A53B464E8C6D21C6D0D1F5189E5D2F6F6A79237BA611CF996A6E6B32 SWAP1 PUSH1 0x60 SWAP1 LOG3 PUSH1 0x1 PUSH1 0x3 SSTORE MLOAD SWAP1 DUP2 MSTORE RETURN JUMPDEST DUP4 MLOAD PUSH4 0xBB55FD27 PUSH1 0xE0 SHL DUP2 MSTORE REVERT JUMPDEST SWAP2 PUSH2 0xBE8 SWAP1 SWAP8 DUP9 SWAP5 DUP6 SWAP5 SWAP13 DUP14 SWAP7 DUP8 SWAP4 PUSH2 0xBE1 JUMP JUMPDEST DUP10 MLOAD PUSH4 0x1DBB3FF PUSH1 0xE6 SHL DUP2 MSTORE DUP13 SWAP1 REVERT JUMPDEST DUP8 MLOAD PUSH4 0x1F2A2005 PUSH1 0xE0 SHL DUP2 MSTORE DUP11 SWAP1 REVERT JUMPDEST POP DUP4 ISZERO PUSH2 0xB87 JUMP JUMPDEST DUP8 MLOAD PUSH4 0xD92E233D PUSH1 0xE0 SHL DUP2 MSTORE DUP11 SWAP1 REVERT JUMPDEST SWAP1 POP DUP7 DUP4 AND EQ DUP12 PUSH2 0xB79 JUMP JUMPDEST DUP6 MLOAD PUSH4 0x6FDA65D PUSH1 0xE3 SHL DUP2 MSTORE DUP9 SWAP1 REVERT JUMPDEST POP SWAP1 CALLVALUE PUSH2 0x285 JUMPI DUP2 PUSH1 0x3 NOT CALLDATASIZE ADD SLT PUSH2 0x285 JUMPI DUP2 PUSH1 0xC0 SWAP4 PUSH2 0xD10 PUSH2 0x190 PUSH2 0xCD8 PUSH2 0x10CD JUMP JUMPDEST PUSH2 0xCE0 PUSH2 0x10E8 JUMP JUMPDEST SWAP1 DUP5 PUSH1 0xA0 DUP8 MLOAD PUSH2 0xCEF DUP2 PUSH2 0x1182 JUMP JUMPDEST DUP3 DUP2 MSTORE DUP3 PUSH1 0x20 DUP3 ADD MSTORE DUP3 DUP10 DUP3 ADD MSTORE DUP3 PUSH1 0x60 DUP3 ADD MSTORE DUP3 PUSH1 0x80 DUP3 ADD MSTORE ADD MSTORE PUSH2 0x17A2 JUMP JUMPDEST DUP2 MSTORE DUP1 PUSH1 0x20 MSTORE KECCAK256 DUP3 MLOAD SWAP2 PUSH2 0xD23 DUP4 PUSH2 0x1182 JUMP JUMPDEST PUSH1 0x1 DUP1 PUSH1 0xA0 SHL SUB SWAP4 DUP5 DUP4 SLOAD AND SWAP5 DUP6 DUP6 MSTORE DUP1 PUSH1 0x1 DUP6 ADD SLOAD AND SWAP1 PUSH1 0x20 DUP7 ADD SWAP2 DUP3 MSTORE PUSH1 0x2 DUP6 ADD SLOAD SWAP2 DUP4 DUP8 ADD SWAP3 DUP4 MSTORE PUSH1 0xA0 PUSH1 0x5 PUSH1 0x3 DUP9 ADD SLOAD SWAP7 PUSH1 0x60 DUP11 ADD SWAP8 DUP9 MSTORE DUP9 ADD SLOAD SWAP8 PUSH1 0x80 DUP11 ADD SWAP9 DUP10 MSTORE ADD SLOAD SWAP8 ADD SWAP7 DUP8 MSTORE DUP4 MLOAD SWAP8 DUP9 MSTORE MLOAD AND PUSH1 0x20 DUP8 ADD MSTORE MLOAD SWAP1 DUP6 ADD MSTORE MLOAD PUSH1 0x60 DUP5 ADD MSTORE MLOAD PUSH1 0x80 DUP4 ADD MSTORE MLOAD PUSH1 0xA0 DUP3 ADD MSTORE RETURN JUMPDEST POP SWAP1 CALLVALUE PUSH2 0x285 JUMPI DUP2 PUSH1 0x3 NOT CALLDATASIZE ADD SLT PUSH2 0x285 JUMPI PUSH1 0x20 SWAP3 DUP3 SWAP2 PUSH2 0xDB5 PUSH2 0x10E8 JUMP JUMPDEST SWAP1 CALLDATALOAD DUP3 MSTORE PUSH1 0x1 DUP6 MSTORE DUP3 DUP3 KECCAK256 PUSH1 0x1 PUSH1 0x1 PUSH1 0xA0 SHL SUB SWAP1 SWAP2 AND DUP3 MSTORE DUP5 MSTORE KECCAK256 SLOAD SWAP1 MLOAD SWAP1 DUP2 MSTORE RETURN JUMPDEST DUP4 DUP3 CALLVALUE PUSH2 0x2EF JUMPI DUP2 PUSH1 0x3 NOT CALLDATASIZE ADD SLT PUSH2 0x2EF JUMPI PUSH1 0x20 SWAP1 MLOAD PUSH1 0x3 DUP2 MSTORE RETURN JUMPDEST DUP4 DUP3 CALLVALUE PUSH2 0x2EF JUMPI PUSH1 0x20 CALLDATASIZE PUSH1 0x3 NOT ADD SLT PUSH2 0x2EF JUMPI PUSH1 0x20 SWAP2 DUP2 SWAP1 PUSH1 0x1 PUSH1 0x1 PUSH1 0xA0 SHL SUB PUSH2 0xE1C PUSH2 0x10CD JUMP JUMPDEST AND DUP2 MSTORE PUSH1 0x2 DUP5 MSTORE KECCAK256 SLOAD SWAP1 MLOAD SWAP1 DUP2 MSTORE RETURN JUMPDEST DUP4 DUP3 CALLVALUE PUSH2 0x2EF JUMPI DUP1 PUSH1 0x3 NOT CALLDATASIZE ADD SLT PUSH2 0x2EF JUMPI PUSH1 0x20 SWAP1 PUSH2 0x835 PUSH2 0x190 PUSH2 0xE4F PUSH2 0x10CD JUMP JUMPDEST PUSH2 0xE57 PUSH2 0x10E8 JUMP JUMPDEST SWAP1 PUSH2 0x17A2 JUMP JUMPDEST POP CALLVALUE PUSH2 0x285 JUMPI PUSH2 0xE6C CALLDATASIZE PUSH2 0x10FE JUMP JUMPDEST SWAP4 SWAP2 SWAP1 PUSH1 0x2 PUSH1 0x3 SLOAD EQ PUSH2 0xF7D JUMPI PUSH1 0x2 PUSH1 0x3 SSTORE PUSH1 0x1 PUSH1 0x1 PUSH1 0xA0 SHL SUB DUP3 DUP2 AND SWAP4 SWAP1 SWAP3 SWAP1 DUP5 ISZERO DUP1 ISZERO PUSH2 0xF66 JUMPI JUMPDEST PUSH2 0x781 JUMPI DUP3 ISZERO PUSH2 0x773 JUMPI PUSH1 0x0 DUP1 MLOAD PUSH1 0x20 PUSH2 0x180A DUP4 CODECOPY DUP2 MLOAD SWAP2 MSTORE SWAP2 DUP6 DUP4 LT ISZERO PUSH2 0xF5C JUMPI PUSH2 0xEC2 DUP2 DUP5 PUSH2 0x17BD JUMP JUMPDEST SWAP5 DUP6 DUP11 MSTORE DUP10 PUSH1 0x20 MSTORE DUP8 DUP11 KECCAK256 SWAP1 DUP2 SLOAD AND ISZERO PUSH2 0xF4C JUMPI PUSH2 0xEE7 SWAP2 DUP6 SWAP2 PUSH2 0x1B9 DUP4 CALLER DUP5 PUSH2 0x1679 JUMP JUMPDEST SWAP7 DUP8 LT PUSH2 0x21B JUMPI POP DUP5 PUSH1 0x20 SWAP8 CALLER DUP2 MSTORE PUSH1 0x2 DUP10 MSTORE KECCAK256 PUSH2 0xF06 DUP8 DUP3 SLOAD PUSH2 0x11D6 JUMP JUMPDEST SWAP1 SSTORE DUP5 MLOAD SWAP4 DUP5 MSTORE DUP7 DUP5 ADD MSTORE DUP4 DUP4 ADD MSTORE DUP4 PUSH1 0x60 DUP4 ADD MSTORE PUSH32 0xC8D1C4D9E04DD566F62CC25A237C76AE445C7D40C5F2A485E51C9177BC7558B PUSH1 0x80 CALLER SWAP4 LOG3 PUSH1 0x1 PUSH1 0x3 SSTORE MLOAD SWAP1 DUP2 MSTORE RETURN JUMPDEST DUP8 MLOAD PUSH4 0x1DBB3FF PUSH1 0xE6 SHL DUP2 MSTORE DUP4 SWAP1 REVERT JUMPDEST PUSH2 0xEC2 DUP4 DUP3 PUSH2 0x17BD JUMP JUMPDEST POP PUSH1 0x0 DUP1 MLOAD PUSH1 0x20 PUSH2 0x180A DUP4 CODECOPY DUP2 MLOAD SWAP2 MSTORE DUP6 EQ PUSH2 0xE96 JUMP JUMPDEST DUP4 MLOAD PUSH4 0x6FDA65D PUSH1 0xE3 SHL DUP2 MSTORE DUP4 SWAP1 REVERT JUMPDEST POP DUP3 CALLVALUE PUSH2 0xA7A JUMPI PUSH1 0x60 CALLDATASIZE PUSH1 0x3 NOT ADD SLT PUSH2 0xA7A JUMPI POP PUSH2 0x835 PUSH1 0x20 SWAP3 PUSH1 0x44 CALLDATALOAD SWAP1 PUSH1 0x24 CALLDATALOAD SWAP1 CALLDATALOAD PUSH2 0x1279 JUMP JUMPDEST SWAP4 SWAP1 POP PUSH2 0xFC1 CALLDATASIZE PUSH2 0x10FE JUMP JUMPDEST SWAP5 SWAP1 SWAP6 PUSH1 0x2 PUSH1 0x3 SLOAD EQ PUSH2 0x10C1 JUMPI POP PUSH1 0x2 PUSH1 0x3 SSTORE PUSH1 0x1 PUSH1 0x1 PUSH1 0xA0 SHL SUB SWAP2 DUP1 DUP4 AND SWAP1 DUP2 ISZERO DUP1 ISZERO PUSH2 0x10AA JUMPI JUMPDEST PUSH2 0x109A JUMPI CALLVALUE ISZERO DUP1 ISZERO PUSH2 0x1092 JUMPI JUMPDEST PUSH2 0x1082 JUMPI PUSH1 0x0 DUP1 MLOAD PUSH1 0x20 PUSH2 0x180A DUP4 CODECOPY DUP2 MLOAD SWAP2 MSTORE SWAP2 DUP3 LT ISZERO PUSH2 0x107C JUMPI SWAP1 DUP1 JUMPDEST PUSH2 0x101F DUP4 DUP4 PUSH2 0x17BD JUMP JUMPDEST SWAP5 DUP6 DUP8 MSTORE DUP7 PUSH1 0x20 MSTORE DUP8 DUP8 KECCAK256 SWAP7 DUP2 DUP9 SLOAD AND ISZERO PUSH2 0x106C JUMPI POP PUSH2 0xBEE SWAP4 SWAP3 SWAP2 SWAP1 DUP3 AND SUB PUSH2 0x1054 JUMPI POP CALLVALUE DUP1 SWAP6 PUSH2 0xBE8 DUP11 DUP12 SWAP5 CALLER SWAP1 PUSH2 0x1679 JUMP JUMPDEST SWAP1 POP DUP8 DUP1 SWAP6 PUSH2 0x1067 CALLVALUE SWAP11 DUP12 SWAP5 CALLER SWAP1 PUSH2 0x1679 JUMP JUMPDEST PUSH2 0xBE8 JUMP JUMPDEST DUP9 MLOAD PUSH4 0x1DBB3FF PUSH1 0xE6 SHL DUP2 MSTORE DUP7 SWAP1 REVERT JUMPDEST DUP2 PUSH2 0x1015 JUMP JUMPDEST DUP6 MLOAD PUSH4 0x1F2A2005 PUSH1 0xE0 SHL DUP2 MSTORE DUP4 SWAP1 REVERT JUMPDEST POP DUP8 ISZERO PUSH2 0xFF7 JUMP JUMPDEST DUP6 MLOAD PUSH4 0xD92E233D PUSH1 0xE0 SHL DUP2 MSTORE DUP4 SWAP1 REVERT JUMPDEST POP PUSH1 0x0 DUP1 MLOAD PUSH1 0x20 PUSH2 0x180A DUP4 CODECOPY DUP2 MLOAD SWAP2 MSTORE DUP3 EQ PUSH2 0xFEA JUMP JUMPDEST PUSH4 0x6FDA65D PUSH1 0xE3 SHL DUP2 MSTORE REVERT JUMPDEST PUSH1 0x4 CALLDATALOAD SWAP1 PUSH1 0x1 PUSH1 0x1 PUSH1 0xA0 SHL SUB DUP3 AND DUP3 SUB PUSH2 0x10E3 JUMPI JUMP JUMPDEST PUSH1 0x0 DUP1 REVERT JUMPDEST PUSH1 0x24 CALLDATALOAD SWAP1 PUSH1 0x1 PUSH1 0x1 PUSH1 0xA0 SHL SUB DUP3 AND DUP3 SUB PUSH2 0x10E3 JUMPI JUMP JUMPDEST PUSH1 0x60 SWAP1 PUSH1 0x3 NOT ADD SLT PUSH2 0x10E3 JUMPI PUSH1 0x4 CALLDATALOAD PUSH1 0x1 PUSH1 0x1 PUSH1 0xA0 SHL SUB DUP2 AND DUP2 SUB PUSH2 0x10E3 JUMPI SWAP1 PUSH1 0x24 CALLDATALOAD SWAP1 PUSH1 0x44 CALLDATALOAD SWAP1 JUMP JUMPDEST PUSH1 0xA0 SWAP1 PUSH1 0x3 NOT ADD SLT PUSH2 0x10E3 JUMPI PUSH1 0x1 PUSH1 0x1 PUSH1 0xA0 SHL SUB SWAP1 PUSH1 0x4 CALLDATALOAD DUP3 DUP2 AND DUP2 SUB PUSH2 0x10E3 JUMPI SWAP2 PUSH1 0x24 CALLDATALOAD SWAP1 DUP2 AND DUP2 SUB PUSH2 0x10E3 JUMPI SWAP1 PUSH1 0x44 CALLDATALOAD SWAP1 PUSH1 0x64 CALLDATALOAD SWAP1 PUSH1 0x84 CALLDATALOAD SWAP1 JUMP JUMPDEST CALLVALUE PUSH2 0x10E3 JUMPI PUSH1 0x0 CALLDATASIZE PUSH1 0x3 NOT ADD SLT PUSH2 0x10E3 JUMPI PUSH1 0x20 PUSH1 0x40 MLOAD PUSH2 0x3E8 DUP2 MSTORE RETURN JUMPDEST PUSH1 0xC0 DUP2 ADD SWAP1 DUP2 LT PUSH8 0xFFFFFFFFFFFFFFFF DUP3 GT OR PUSH2 0x119E JUMPI PUSH1 0x40 MSTORE JUMP JUMPDEST PUSH4 0x4E487B71 PUSH1 0xE0 SHL PUSH1 0x0 MSTORE PUSH1 0x41 PUSH1 0x4 MSTORE PUSH1 0x24 PUSH1 0x0 REVERT JUMPDEST SWAP1 PUSH1 0x1F DUP1 NOT SWAP2 ADD AND DUP2 ADD SWAP1 DUP2 LT PUSH8 0xFFFFFFFFFFFFFFFF DUP3 GT OR PUSH2 0x119E JUMPI PUSH1 0x40 MSTORE JUMP JUMPDEST SWAP2 SWAP1 DUP3 ADD DUP1 SWAP3 GT PUSH2 0x11E3 JUMPI JUMP JUMPDEST PUSH4 0x4E487B71 PUSH1 0xE0 SHL PUSH1 0x0 MSTORE PUSH1 0x11 PUSH1 0x4 MSTORE PUSH1 0x24 PUSH1 0x0 REVERT JUMPDEST RETURNDATASIZE ISZERO PUSH2 0x1234 JUMPI RETURNDATASIZE SWAP1 PUSH8 0xFFFFFFFFFFFFFFFF DUP3 GT PUSH2 0x119E JUMPI PUSH1 0x40 MLOAD SWAP2 PUSH2 0x1228 PUSH1 0x1F DUP3 ADD PUSH1 0x1F NOT AND PUSH1 0x20 ADD DUP5 PUSH2 0x11B4 JUMP JUMPDEST DUP3 MSTORE RETURNDATASIZE PUSH1 0x0 PUSH1 0x20 DUP5 ADD RETURNDATACOPY JUMP JUMPDEST PUSH1 0x60 SWAP1 JUMP JUMPDEST SWAP2 SWAP1 DUP3 SUB SWAP2 DUP3 GT PUSH2 0x11E3 JUMPI JUMP JUMPDEST DUP2 DUP2 MUL SWAP3 SWAP2 DUP2 ISZERO SWAP2 DUP5 DIV EQ OR ISZERO PUSH2 0x11E3 JUMPI JUMP JUMPDEST DUP2 ISZERO PUSH2 0x1263 JUMPI DIV SWAP1 JUMP JUMPDEST PUSH4 0x4E487B71 PUSH1 0xE0 SHL PUSH1 0x0 MSTORE PUSH1 0x12 PUSH1 0x4 MSTORE PUSH1 0x24 PUSH1 0x0 REVERT JUMPDEST SWAP2 SWAP1 DUP3 ISZERO PUSH2 0x12E9 JUMPI DUP1 ISZERO SWAP2 DUP3 DUP1 ISZERO PUSH2 0x12E1 JUMPI JUMPDEST PUSH2 0x12CF JUMPI PUSH2 0x3E5 DUP1 DUP6 MUL SWAP5 DUP6 DIV SUB PUSH2 0x11E3 JUMPI PUSH2 0x12A8 SWAP1 DUP5 PUSH2 0x1246 JUMP JUMPDEST SWAP2 PUSH2 0x3E8 DUP1 DUP4 MUL SWAP3 DUP4 DIV EQ OR ISZERO PUSH2 0x11E3 JUMPI PUSH2 0x12CC SWAP3 PUSH2 0x12C6 SWAP2 PUSH2 0x11D6 JUMP JUMPDEST SWAP1 PUSH2 0x1259 JUMP JUMPDEST SWAP1 JUMP JUMPDEST PUSH1 0x40 MLOAD PUSH4 0xBB55FD27 PUSH1 0xE0 SHL DUP2 MSTORE PUSH1 0x4 SWAP1 REVERT JUMPDEST POP DUP1 ISZERO PUSH2 0x128C JUMP JUMPDEST PUSH1 0x40 MLOAD PUSH4 0x1F2A2005 PUSH1 0xE0 SHL DUP2 MSTORE PUSH1 0x4 SWAP1 REVERT JUMPDEST SWAP4 SWAP3 SWAP1 SWAP2 PUSH1 0x4 SWAP5 DUP6 DUP5 ADD SWAP1 DUP2 SLOAD DUP1 ISZERO PUSH1 0x0 EQ PUSH2 0x1476 JUMPI POP PUSH2 0x131C DUP5 DUP5 PUSH2 0x1246 JUMP JUMPDEST SWAP7 PUSH1 0x0 PUSH1 0x3 DUP10 GT ISZERO PUSH2 0x1467 JUMPI POP DUP8 PUSH1 0x1 SWAP1 DUP1 DUP3 SHR DUP3 DUP2 ADD DUP1 SWAP2 GT PUSH2 0x140D JUMPI SWAP2 SWAP1 JUMPDEST DUP11 DUP4 LT PUSH2 0x1447 JUMPI POP POP POP JUMPDEST PUSH2 0x3E8 SWAP8 DUP9 DUP2 GT ISZERO PUSH2 0x1437 JUMPI PUSH2 0x3E7 NOT DUP2 ADD SWAP1 DUP2 GT PUSH2 0x1422 JUMPI SWAP8 DUP3 PUSH1 0x0 MSTORE PUSH1 0x1 PUSH1 0x20 MSTORE PUSH1 0x40 PUSH1 0x0 KECCAK256 PUSH1 0x0 DUP1 MSTORE PUSH1 0x20 MSTORE PUSH1 0x40 PUSH1 0x0 KECCAK256 DUP1 SLOAD SWAP1 DUP3 DUP3 ADD DUP1 SWAP3 GT PUSH2 0x140D JUMPI SSTORE DUP4 SSTORE JUMPDEST DUP8 ISZERO PUSH2 0x13FE JUMPI POP SWAP2 PUSH1 0x5 SWAP4 SWAP2 PUSH2 0x13F9 SWAP4 PUSH1 0x0 MSTORE PUSH1 0x1 PUSH1 0x20 MSTORE PUSH1 0x40 PUSH1 0x0 KECCAK256 CALLER PUSH1 0x0 MSTORE PUSH1 0x20 MSTORE PUSH1 0x40 PUSH1 0x0 KECCAK256 PUSH2 0x13C1 DUP10 DUP3 SLOAD PUSH2 0x11D6 JUMP JUMPDEST SWAP1 SSTORE PUSH2 0x13CE DUP9 DUP3 SLOAD PUSH2 0x11D6 JUMP JUMPDEST SWAP1 SSTORE PUSH2 0x13DF PUSH1 0x2 DUP7 ADD SWAP2 DUP3 SLOAD PUSH2 0x11D6 JUMP JUMPDEST DUP1 SWAP2 SSTORE PUSH2 0x13F1 PUSH1 0x3 DUP7 ADD SWAP3 DUP4 SLOAD PUSH2 0x11D6 JUMP JUMPDEST DUP1 SWAP3 SSTORE PUSH2 0x1246 JUMP JUMPDEST SWAP2 ADD SSTORE JUMP JUMPDEST PUSH1 0x40 MLOAD PUSH4 0xBB55FD27 PUSH1 0xE0 SHL DUP2 MSTORE REVERT JUMPDEST PUSH1 0x11 DUP5 PUSH4 0x4E487B71 PUSH1 0xE0 SHL PUSH1 0x0 MSTORE MSTORE PUSH1 0x24 PUSH1 0x0 REVERT JUMPDEST PUSH1 0x11 DUP3 PUSH4 0x4E487B71 PUSH1 0xE0 SHL PUSH1 0x0 MSTORE MSTORE PUSH1 0x24 PUSH1 0x0 REVERT JUMPDEST POP PUSH1 0x40 MLOAD PUSH4 0xBB55FD27 PUSH1 0xE0 SHL DUP2 MSTORE REVERT JUMPDEST SWAP1 SWAP2 SWAP10 POP PUSH2 0x145E DUP11 PUSH2 0x1459 DUP2 DUP5 PUSH2 0x1259 JUMP JUMPDEST PUSH2 0x11D6 JUMP JUMPDEST DUP3 SHR SWAP2 SWAP1 PUSH2 0x133D JUMP JUMPDEST SWAP8 ISZERO PUSH2 0x1348 JUMPI PUSH1 0x1 SWAP8 POP PUSH2 0x1348 JUMP JUMPDEST PUSH2 0x14A6 PUSH2 0x149B PUSH2 0x1494 PUSH2 0x1489 DUP5 DUP9 PUSH2 0x1246 JUMP JUMPDEST PUSH1 0x2 DUP11 ADD SLOAD SWAP1 PUSH2 0x1259 JUMP JUMPDEST SWAP3 DUP8 PUSH2 0x1246 JUMP JUMPDEST PUSH1 0x3 DUP9 ADD SLOAD SWAP1 PUSH2 0x1259 JUMP JUMPDEST DUP1 DUP3 LT ISZERO PUSH2 0x14B6 JUMPI POP JUMPDEST SWAP7 PUSH2 0x138D JUMP JUMPDEST SWAP1 POP PUSH2 0x14B0 JUMP JUMPDEST SWAP2 SWAP3 SWAP1 PUSH1 0x0 SWAP4 DUP4 DUP6 MSTORE PUSH1 0x1 PUSH1 0x20 MSTORE PUSH1 0x40 DUP1 DUP7 KECCAK256 CALLER DUP8 MSTORE PUSH1 0x20 MSTORE DUP2 DUP2 DUP8 KECCAK256 SLOAD LT PUSH2 0x1591 JUMPI PUSH1 0x2 DUP4 ADD SWAP1 PUSH2 0x14F0 DUP3 SLOAD DUP5 PUSH2 0x1246 JUMP JUMPDEST SWAP3 PUSH1 0x4 DUP6 ADD SWAP2 PUSH2 0x1502 DUP4 SLOAD DUP1 SWAP7 PUSH2 0x1259 JUMP JUMPDEST SWAP9 PUSH2 0x151B PUSH1 0x3 DUP9 ADD SWAP7 PUSH2 0x1516 DUP9 SLOAD DUP7 PUSH2 0x1246 JUMP JUMPDEST PUSH2 0x1259 JUMP JUMPDEST SWAP9 DUP11 ISZERO DUP1 ISZERO PUSH2 0x1589 JUMPI JUMPDEST PUSH2 0x1578 JUMPI SWAP3 PUSH1 0x5 SWAP7 SWAP5 SWAP3 DUP3 PUSH2 0x13F9 SWAP8 SWAP6 PUSH2 0x155D SWAP5 MSTORE PUSH1 0x1 PUSH1 0x20 MSTORE DUP2 DUP2 KECCAK256 CALLER DUP3 MSTORE PUSH1 0x20 MSTORE KECCAK256 PUSH2 0x1554 DUP3 DUP3 SLOAD PUSH2 0x1239 JUMP JUMPDEST SWAP1 SSTORE DUP3 SLOAD PUSH2 0x1239 JUMP JUMPDEST SWAP1 SSTORE PUSH2 0x156A DUP9 DUP3 SLOAD PUSH2 0x1239 JUMP JUMPDEST DUP1 SWAP2 SSTORE PUSH2 0x13F1 DUP8 DUP4 SLOAD PUSH2 0x1239 JUMP JUMPDEST DUP3 MLOAD PUSH4 0xBB55FD27 PUSH1 0xE0 SHL DUP2 MSTORE PUSH1 0x4 SWAP1 REVERT JUMPDEST POP DUP10 ISZERO PUSH2 0x1525 JUMP JUMPDEST MLOAD PUSH4 0xBB55FD27 PUSH1 0xE0 SHL DUP2 MSTORE PUSH1 0x4 SWAP1 REVERT JUMPDEST DUP1 SLOAD PUSH1 0x1 PUSH1 0x1 PUSH1 0xA0 SHL SUB SWAP3 DUP4 AND SWAP3 AND SWAP2 SWAP1 SWAP2 EQ SWAP3 SWAP2 DUP4 ISZERO PUSH2 0x164E JUMPI PUSH2 0x15D1 PUSH1 0x2 DUP4 ADD SLOAD PUSH1 0x3 DUP5 ADD SLOAD SWAP1 JUMPDEST DUP4 PUSH2 0x1279 JUMP JUMPDEST SWAP4 DUP5 ISZERO PUSH2 0x163C JUMPI ISZERO PUSH2 0x1615 JUMPI PUSH2 0x15EC PUSH1 0x2 DUP4 ADD SWAP2 DUP3 SLOAD PUSH2 0x11D6 JUMP JUMPDEST SWAP1 SSTORE PUSH1 0x3 DUP2 ADD PUSH2 0x15FD DUP5 DUP3 SLOAD PUSH2 0x1239 JUMP JUMPDEST SWAP1 SSTORE JUMPDEST PUSH1 0x5 PUSH2 0x13F9 PUSH1 0x2 DUP4 ADD SLOAD PUSH1 0x3 DUP5 ADD SLOAD SWAP1 PUSH2 0x1246 JUMP JUMPDEST PUSH2 0x1624 PUSH1 0x3 DUP4 ADD SWAP2 DUP3 SLOAD PUSH2 0x11D6 JUMP JUMPDEST SWAP1 SSTORE PUSH1 0x2 DUP2 ADD PUSH2 0x1635 DUP5 DUP3 SLOAD PUSH2 0x1239 JUMP JUMPDEST SWAP1 SSTORE PUSH2 0x1600 JUMP JUMPDEST PUSH1 0x40 MLOAD PUSH4 0xBB2875C3 PUSH1 0xE0 SHL DUP2 MSTORE PUSH1 0x4 SWAP1 REVERT JUMPDEST PUSH2 0x15D1 PUSH1 0x3 DUP4 ADD SLOAD PUSH1 0x2 DUP5 ADD SLOAD SWAP1 PUSH2 0x15CB JUMP JUMPDEST SWAP1 DUP2 PUSH1 0x20 SWAP2 SUB SLT PUSH2 0x10E3 JUMPI MLOAD DUP1 ISZERO ISZERO DUP2 SUB PUSH2 0x10E3 JUMPI SWAP1 JUMP JUMPDEST PUSH1 0x1 PUSH1 0x1 PUSH1 0xA0 SHL SUB SWAP1 DUP2 AND PUSH1 0x0 DUP1 MLOAD PUSH1 0x20 PUSH2 0x180A DUP4 CODECOPY DUP2 MLOAD SWAP2 MSTORE DUP2 EQ PUSH2 0x1729 JUMPI PUSH1 0x20 SWAP3 PUSH1 0x0 PUSH1 0x64 SWAP3 PUSH1 0x40 MLOAD SWAP7 DUP8 SWAP6 DUP7 SWAP5 PUSH4 0x23B872DD PUSH1 0xE0 SHL DUP7 MSTORE AND PUSH1 0x4 DUP6 ADD MSTORE ADDRESS PUSH1 0x24 DUP6 ADD MSTORE PUSH1 0x44 DUP5 ADD MSTORE GAS CALL SWAP1 DUP2 ISZERO PUSH2 0x171D JUMPI PUSH1 0x0 SWAP2 PUSH2 0x16EF JUMPI JUMPDEST POP ISZERO PUSH2 0x16DD JUMPI JUMP JUMPDEST PUSH1 0x40 MLOAD PUSH4 0x12171D83 PUSH1 0xE3 SHL DUP2 MSTORE PUSH1 0x4 SWAP1 REVERT JUMPDEST PUSH2 0x1710 SWAP2 POP PUSH1 0x20 RETURNDATASIZE DUP2 GT PUSH2 0x1716 JUMPI JUMPDEST PUSH2 0x1708 DUP2 DUP4 PUSH2 0x11B4 JUMP JUMPDEST DUP2 ADD SWAP1 PUSH2 0x1661 JUMP JUMPDEST CODESIZE PUSH2 0x16D5 JUMP JUMPDEST POP RETURNDATASIZE PUSH2 0x16FE JUMP JUMPDEST PUSH1 0x40 MLOAD RETURNDATASIZE PUSH1 0x0 DUP3 RETURNDATACOPY RETURNDATASIZE SWAP1 REVERT JUMPDEST POP POP POP POP JUMP JUMPDEST PUSH1 0x1 PUSH1 0x1 PUSH1 0xA0 SHL SUB SWAP2 SWAP1 DUP3 AND PUSH1 0x0 DUP1 MLOAD PUSH1 0x20 PUSH2 0x180A DUP4 CODECOPY DUP2 MLOAD SWAP2 MSTORE DUP2 EQ PUSH2 0x178E JUMPI PUSH1 0x20 SWAP3 SWAP2 PUSH1 0x0 PUSH1 0x44 SWAP3 PUSH1 0x40 MLOAD SWAP7 DUP8 SWAP6 DUP7 SWAP5 PUSH4 0xA9059CBB PUSH1 0xE0 SHL DUP7 MSTORE AND PUSH1 0x4 DUP6 ADD MSTORE PUSH1 0x24 DUP5 ADD MSTORE GAS CALL SWAP1 DUP2 ISZERO PUSH2 0x171D JUMPI PUSH1 0x0 SWAP2 PUSH2 0x16EF JUMPI POP ISZERO PUSH2 0x16DD JUMPI JUMP JUMPDEST POP PUSH1 0x0 DUP1 SWAP4 DUP2 SWAP4 DUP3 SWAP4 AND GAS CALL PUSH2 0x16D5 PUSH2 0x11F9 JUMP JUMPDEST SWAP1 SWAP2 SWAP1 PUSH1 0x1 PUSH1 0x1 PUSH1 0xA0 SHL SUB DUP1 DUP5 AND SWAP1 DUP3 AND LT ISZERO PUSH2 0x12CC JUMPI SWAP2 SWAP1 JUMP JUMPDEST PUSH1 0x40 MLOAD SWAP1 PUSH1 0x20 DUP3 ADD SWAP3 PUSH12 0xFFFFFFFFFFFFFFFFFFFFFFFF NOT DUP1 SWAP3 PUSH1 0x60 SHL AND DUP5 MSTORE PUSH1 0x60 SHL AND PUSH1 0x34 DUP3 ADD MSTORE PUSH1 0x28 DUP2 MSTORE PUSH1 0x60 DUP2 ADD DUP2 DUP2 LT PUSH8 0xFFFFFFFFFFFFFFFF DUP3 GT OR PUSH2 0x119E JUMPI PUSH1 0x40 MSTORE MLOAD SWAP1 KECCAK256 SWAP1 JUMP INVALID STOP STOP STOP STOP STOP STOP STOP STOP STOP STOP STOP STOP 0xEE 0xEE 0xEE 0xEE 0xEE 0xEE 0xEE 0xEE 0xEE 0xEE 0xEE 0xEE 0xEE 0xEE 0xEE 0xEE 0xEE 0xEE 0xEE 0xEE LOG2 PUSH5 0x6970667358 0x22 SLT KECCAK256 PUSH3 0x93310F NOT 0x4A PUSH28 0x2DB1B51B92A1590298314B84692E40137B4577AC8F63F3E91064736F PUSH13 0x63430008140033000000000000 "},"methodIdentifiers":{"ETH_ADDRESS()":"a734f06e","FEE_DENOMINATOR()":"d73792a9","FEE_NUMERATOR()":"41cd47bf","MINIMUM_LIQUIDITY()":"ba9a7a56","addLiquidity(address,address,uint256,uint256,uint256)":"91c98a2a","addLiquidityETH(address,uint256,uint256)":"0145ff68","createPool(address,address)":"e3433615","ethBalances(address)":"3cfba0e3","getAmountOut(uint256,uint256,uint256)":"054d50d4","getLiquidityBalance(address,address,address)":"f0a00468","getPool(address,address)":"531aa03e","getPoolId(address,address)":"2ef61c21","liquidityBalances(bytes32,address)":"4fb5bf7f","pools(bytes32)":"b5217bb4","quote(address,address,uint256)":"b6466384","removeLiquidity(address,address,uint256,uint256,uint256)":"e2dc85dc","removeLiquidityETH(address,uint256,uint256,uint256)":"a1cfacde","swap(address,address,uint256,uint256)":"fe029156","swapETHForToken(address,uint256)":"d196e9c6","swapTokenForETH(address,uint256,uint256)":"094ab4ac","withdrawEth()":"a0ef91df"}}}}}