{"contracts/orbital/OrbitalFactory.sol":{"OrbitalFactory":{"abi":[{"inputs":[{"internalType":"address","name":"_admin","type":"address"},{"internalType":"address","name":"_feeCollector","type":"address"},{"internalType":"uint256","name":"_defaultSwapFeeBps","type":"uint256"}],"stateMutability":"nonpayable","type":"constructor"},{"inputs":[],"name":"InvalidFee","type":"error"},{"inputs":[],"name":"NotAdmin","type":"error"},{"inputs":[],"name":"PoolExists","type":"error"},{"inputs":[],"name":"ZeroAddress","type":"error"},{"anonymous":false,"inputs":[{"indexed":true,"internalType":"address","name":"oldAdmin","type":"address"},{"indexed":true,"internalType":"address","name":"newAdmin","type":"address"}],"name":"AdminUpdated","type":"event"},{"anonymous":false,"inputs":[{"indexed":true,"internalType":"address","name":"collector","type":"address"}],"name":"DefaultFeeCollectorUpdated","type":"event"},{"anonymous":false,"inputs":[{"indexed":false,"internalType":"uint256","name":"newFeeBps","type":"uint256"}],"name":"DefaultSwapFeeUpdated","type":"event"},{"anonymous":false,"inputs":[{"indexed":true,"internalType":"address","name":"pool","type":"address"},{"indexed":false,"internalType":"address[]","name":"tokens","type":"address[]"},{"indexed":false,"internalType":"uint8","name":"concentration","type":"uint8"},{"indexed":false,"internalType":"uint256","name":"swapFeeBps","type":"uint256"},{"indexed":false,"internalType":"address","name":"feeCollector","type":"address"}],"name":"PoolCreated","type":"event"},{"inputs":[],"name":"admin","outputs":[{"internalType":"address","name":"","type":"address"}],"stateMutability":"view","type":"function"},{"inputs":[{"internalType":"address[]","name":"_tokens","type":"address[]"},{"internalType":"uint8","name":"_concentration","type":"uint8"},{"internalType":"uint256","name":"_swapFeeBps","type":"uint256"},{"internalType":"string","name":"_name","type":"string"},{"internalType":"string","name":"_symbol","type":"string"}],"name":"createPool","outputs":[{"internalType":"address","name":"pool","type":"address"}],"stateMutability":"nonpayable","type":"function"},{"inputs":[],"name":"defaultFeeCollector","outputs":[{"internalType":"address","name":"","type":"address"}],"stateMutability":"view","type":"function"},{"inputs":[],"name":"defaultSwapFeeBps","outputs":[{"internalType":"uint256","name":"","type":"uint256"}],"stateMutability":"view","type":"function"},{"inputs":[],"name":"getAllPools","outputs":[{"internalType":"address[]","name":"","type":"address[]"}],"stateMutability":"view","type":"function"},{"inputs":[{"internalType":"address[]","name":"_tokens","type":"address[]"},{"internalType":"uint8","name":"_concentration","type":"uint8"}],"name":"getPool","outputs":[{"internalType":"address","name":"","type":"address"}],"stateMutability":"view","type":"function"},{"inputs":[{"internalType":"uint256","name":"index","type":"uint256"}],"name":"getPoolAtIndex","outputs":[{"internalType":"address","name":"","type":"address"}],"stateMutability":"view","type":"function"},{"inputs":[{"internalType":"address","name":"token","type":"address"}],"name":"getPoolsForToken","outputs":[{"internalType":"address[]","name":"","type":"address[]"}],"stateMutability":"view","type":"function"},{"inputs":[{"internalType":"bytes32","name":"","type":"bytes32"}],"name":"poolsByKey","outputs":[{"internalType":"address","name":"","type":"address"}],"stateMutability":"view","type":"function"},{"inputs":[{"internalType":"address","name":"_newAdmin","type":"address"}],"name":"setAdmin","outputs":[],"stateMutability":"nonpayable","type":"function"},{"inputs":[{"internalType":"address","name":"_collector","type":"address"}],"name":"setDefaultFeeCollector","outputs":[],"stateMutability":"nonpayable","type":"function"},{"inputs":[{"internalType":"uint256","name":"_feeBps","type":"uint256"}],"name":"setDefaultSwapFee","outputs":[],"stateMutability":"nonpayable","type":"function"},{"inputs":[],"name":"totalPools","outputs":[{"internalType":"uint256","name":"","type":"uint256"}],"stateMutability":"view","type":"function"}],"evm":{"bytecode":{"linkReferences":{},"object":"6080346100d757601f6132b938819003918201601f19168301916001600160401b038311848410176100dc578084926060946040528339810103126100d757610047816100f2565b906040610056602083016100f2565b910151916001600160a01b0390811691821580156100cd575b6100bb57606484116100a95760018060a01b031992836000541617600055169060015416176001556002556040516131b290816101078239f35b6040516358d620b360e01b8152600490fd5b60405163d92e233d60e01b8152600490fd5b508181161561006f565b600080fd5b634e487b7160e01b600052604160045260246000fd5b51906001600160a01b03821682036100d75756fe608080604052600436101561001357600080fd5b600090813560e01c9081631010b58c146107c25750806312fb31c4146107a4578063162f37fa1461072c578063334dc4f3146106b95780636385c30614610347578063704b6c02146102d957806375926137146102b057806397c0df231461024b578063a423ba8f14610218578063ab3c7e52146101fa578063ccceb7cd14610168578063d88ff1f4146100d95763f851a440146100b057600080fd5b346100d657806003193601126100d657546040516001600160a01b039091168152602090f35b80fd5b50346100d657806003193601126100d657604051600380548083529083526020808301937fc2575a0e9e593c00f959f8c92f12db2869c3395a3b0502d05e2516446f71f85b92915b8282106101485761014485610138818903826108fe565b6040519182918261084b565b0390f35b83546001600160a01b031686529485019460019384019390910190610121565b50346100d65760203660031901126100d657610182610830565b81546001600160a01b039190821633036101e8571680156101d657600180546001600160a01b031916821790557f6400838e1a1b95176d26aaad4540fcef6778703092b09aa09467c8ef1cf2d17a8280a280f35b60405163d92e233d60e01b8152600490fd5b604051637bfa4b9f60e01b8152600490fd5b50346100d657806003193601126100d6576020600354604051908152f35b50346100d65760203660031901126100d657602090600435815260048252604060018060a01b0391205416604051908152f35b50346100d65760403660031901126100d65760043567ffffffffffffffff81116102ac5790610291610283602093369060040161088f565b61028b6108c0565b91610a03565b815260048252604060018060a01b0391205416604051908152f35b5080fd5b50346100d657806003193601126100d6576001546040516001600160a01b039091168152602090f35b50346100d65760203660031901126100d6576102f3610830565b8154906001600160a01b0380831691338390036101e857169182156101d6576001600160a01b031916821783557f101b8081ff3b56bbf45deb824d86a3b0fd38b7e3dd42421105cf8abe9106db0b8380a380f35b50346100d65760a03660031901126100d65760043567ffffffffffffffff81116102ac5761037990369060040161088f565b6103849291926108c0565b60443560643567ffffffffffffffff81116106b5576103a79036906004016108d0565b909460843567ffffffffffffffff81116102ac576103c99036906004016108d0565b93806106af5750600254935b6103e086888b610a03565b808452600460205260408420549094906001600160a01b031661069d576040516125e28082019082821067ffffffffffffffff83111761068957908291610b9b8339039085f0801561067e576001546001600160a01b039182169a91168a3b1561067a578b94869461049e8b8d9660c4966104b0968e60ff61047c6040519e8f9d8e9d8e63fe485a1160e01b815260c060048201520191610920565b951660248b015260448a0152606489015287830360031901608489015261096d565b8481036003190160a48601529161096d565b0381838b5af1801561066f57610643575b5090815260046020526040812080546001600160a01b03191686179055600354600160401b81101561062d5760018101806003558110156106175760036000527fc2575a0e9e593c00f959f8c92f12db2869c3395a3b0502d05e2516446f71f85b0180546001600160a01b03191686179055805b8481106105a557602086807fa12124ed4c3c01dfdddb182a73c7069e110095d092d57f64192c92fc2d617cc38a89898960018060a01b03600154169060ff61058a604051968796608088526080880191610920565b931689850152604084015260608301520390a2604051908152f35b6001600160a01b036105c06105bb83888b6109b3565b6109c3565b168252600560205260408220908154600160401b81101561062d57600181018084558110156106175761061292600052602060002001876bffffffffffffffffffffffff60a01b82541617905561098e565b610535565b634e487b7160e01b600052603260045260246000fd5b634e487b7160e01b600052604160045260246000fd5b67ffffffffffffffff811161065b57604052386104c1565b634e487b7160e01b82526041600452602482fd5b6040513d84823e3d90fd5b8580fd5b6040513d86823e3d90fd5b634e487b7160e01b87526041600452602487fd5b604051637a471e1360e11b8152600490fd5b936103d5565b8480fd5b50346100d65760203660031901126100d6578054600435906001600160a01b031633036101e8576064811161071a576020817f8ad313470434947a09c21678da40f1b57a6797b971e01d8278070ae88bbc7b9c92600255604051908152a180f35b6040516358d620b360e01b8152600490fd5b50346100d6576020806003193601126102ac576001600160a01b039182610751610830565b168152600582526040812092604051908193808654938481520195845280842093915b83831061078b5761014486610138818a03826108fe565b8454811687529581019560019485019490920191610774565b50346100d657806003193601126100d6576020600254604051908152f35b9050346102ac5760203660031901126102ac5760043560035481101561081c5760039092527fc2575a0e9e593c00f959f8c92f12db2869c3395a3b0502d05e2516446f71f85b909101546001600160a01b03168152602090f35b634e487b7160e01b83526032600452602483fd5b600435906001600160a01b038216820361084657565b600080fd5b6020908160408183019282815285518094520193019160005b828110610872575050505090565b83516001600160a01b031685529381019392810192600101610864565b9181601f840112156108465782359167ffffffffffffffff8311610846576020808501948460051b01011161084657565b6024359060ff8216820361084657565b9181601f840112156108465782359167ffffffffffffffff8311610846576020838186019501011161084657565b90601f8019910116810190811067ffffffffffffffff82111761062d57604052565b9190808252602080920192916000805b83821061093f57505050505090565b9091929394853560018060a01b038116809103610969578152830194830193929160010190610930565b8280fd5b908060209392818452848401376000828201840152601f01601f1916010190565b600019811461099d5760010190565b634e487b7160e01b600052601160045260246000fd5b91908110156106175760051b0190565b356001600160a01b03811681036108465790565b67ffffffffffffffff811161062d5760051b60200190565b80518210156106175760209160051b010190565b91610a0d826109d7565b92610a1b60405194856108fe565b828452610a27836109d7565b6020938585019291601f190136843760005b818110610b67575050509091835190600191825b818110610abc57505060405193818592830180975190959160005b828110610a9d575050505060f81b6001600160f81b0319168352601e1992039182018352610a979101826108fe565b51902090565b83516001600160a01b0316885296810196889550928101928601610a68565b9194929392916001600160a01b038581610ad6848b6109ef565b51169183915b610b02575b5090610af1610af793928a6109ef565b5261098e565b949194939293610a4d565b8115801580610b46575b15610b405760001983019280841161099d57610b3583610b2c868f6109ef565b5116918d6109ef565b5261099d5787610adc565b50610ae1565b50600019830183811161099d5782610b5f86928e6109ef565b511611610b0c565b80610b796105bb610b959385876109b3565b610b83828a6109ef565b6001600160a01b03909116905261098e565b610a3956fe60a0806040523461002f576001600c55336080526125ad908161003582396080518181816102480152610c9f0152f35b600080fdfe608080604052600436101561001357600080fd5b60003560e01c908163054d50d414611a275750806306fdde03146119935780630902f1ac14611963578063095ea7b3146118e5578063158ef93e146118c257806318160ddd146118a45780631965e183146118885780631cc241c11461185f578063219ce0d41461183e57806323b872dd146117325780632ffdaf891461171457806331cd52b0146114e15780633f812882146114c05780634d49e87d1461113c5780634f64b2be146110fa5780635df45a371461106e57806366c0bd241461104b5780636a1460241461102857806370a0823114610fee5780638334278d14610fb7578063851ed85e14610f9b5780638e499bcf14610f7d57806395d89b4114610e9f578063a9059cbb14610dfe578063aa6ca80814610d37578063ba9a7a5614610d1a578063c0ff1a1514610cf7578063c415b95c14610cce578063c45a015514610c89578063c45c5c301461095d578063c879657214610844578063d55be8c614610828578063d73792a91461080b578063dd62ed3e146107ba578063f47c84c51461079e5763fe485a11146101ab57600080fd5b346107995760c0366003190112610799576004356001600160401b038111610799576101db903690600401611ce6565b6024359160ff8316809303610799576044356064356001600160a01b03811690819003610799576084356001600160401b03811161079957610221903690600401611d16565b9160a4356001600160401b03811161079957610241903690600401611d16565b90979094907f00000000000000000000000000000000000000000000000000000000000000006001600160a01b031633036107875760ff600654166107765760028810801561076c575b61075a5760028114158061074f575b80610744575b80610739575b8061072e575b61071c576064821161070a5782156106f85760005b88811061066b57508760015560ff1960025416176002556003556bffffffffffffffffffffffff60a01b60045416176004556001600160401b03821161046d57819061030e600754611b14565b601f81116105f7575b50600090601f831160011461058257600092610577575b50508160011b916000199060031b1c1916176007555b6001600160401b03811161046d5761035d600854611b14565b601f8111610512575b506000601f821160011461048e5781929394600092610483575b50508160011b916000199060031b1c1916176008555b60005b8281106103af576006805460ff19166001179055005b6103c26103bd828585611d52565b611d62565b906000549168010000000000000000928381101561046d578060016103ea9201600055611c9c565b81546001600160a01b0393841660039290921b91821b9390911b1916919091179055600580548381101561046d5761042791600182019055611c65565b908054600019809360031b1b19169055600d80549384101561046d578361045691600161046896019055611c18565b909182549160031b1b19169055611d43565b610399565b634e487b7160e01b600052604160045260246000fd5b013590503880610380565b601f1982169460086000527ff3f7a9fe364faab93b216da50a3214154f22a0a2b415b23a84c8169e8b636ee39160005b8781106104fa5750836001959697106104e0575b505050811b01600855610396565b0135600019600384901b60f8161c191690553880806104d2565b909260206001819286860135815501940191016104be565b60086000527ff3f7a9fe364faab93b216da50a3214154f22a0a2b415b23a84c8169e8b636ee3601f830160051c8101916020841061056d575b601f0160051c01905b8181106105615750610366565b60008155600101610554565b909150819061054b565b01359050388061032e565b600760009081529350600080516020612538833981519152915b601f19841685106105df576001945083601f198116106105c5575b505050811b01600755610344565b0135600019600384901b60f8161c191690553880806105b7565b8181013583556020948501946001909301920161059c565b9091506007600052601f830160051c6000805160206125388339815191520160208410610656575b908392915b601f820160051c6000805160206125388339815191520181106106475750610317565b60008155849350600101610624565b5060008051602061253883398151915261061f565b6001600160a01b036106816103bd838c8c611d52565b16156106f85760005b8181106106a0575061069b90611d43565b6102c1565b89896106c66103bd846106b76103bd888787611d52565b946001600160a01b0394611d52565b6001600160a01b039092169116146106e6576106e190611d43565b61068a565b6040516323271fb560e11b8152600490fd5b60405163d92e233d60e01b8152600490fd5b6040516358d620b360e01b8152600490fd5b604051631676992b60e11b8152600490fd5b5060208114156102ac565b5060108114156102a6565b5060088114156102a0565b50600481141561029a565b60405163e778681d60e01b8152600490fd5b506008881161028b565b60405162dc149f60e41b8152600490fd5b604051631966391b60e11b8152600490fd5b600080fd5b3461079957600036600319011261079957602060405160088152f35b34610799576040366003190112610799576107d3611bec565b6107db611c02565b9060018060a01b03809116600052600b602052604060002091166000526020526020604060002054604051908152f35b346107995760003660031901126107995760206040516127108152f35b3461079957600036600319011261079957602060405160648152f35b34610799576000366003190112610799576002600c541461094b576002600c556004546001600160a01b039081163303610787576001549061088582612144565b9160005b8181106108d957837f9bc3ed6aed6a780294c85faeafe7c4bc19617c745bdf61b8d1fc8159c3d1aab16108cf856004541692604051918291602083526020830190611bb8565b0390a26001600c55005b806108e66108fd92611c18565b9054600391821b1c8581610902575b505050611d43565b610889565b6109439261090f85611c18565b81549060001990841b1b1916905582610928868b611e32565b5261093285611c9c565b9054911b1c168660045416906124db565b8580856108f5565b6040516306fda65d60e31b8152600490fd5b346107995760a0366003190112610799576002600c541461094b576002600c5560ff6006541615610c77576084354211610c6557600154806004351015610c5357806024351015610c535760243560043514610c415760443515610c2f576127106109cc600354604435611d76565b046109d981604435611da9565b916040518181602060055491828152019060056000527f036b6384b5eca791c62761152d0c79bb0604c104a5fb6f4eb0703f3154bb3db09060005b818110610c165750505091610a2e81610a33940382611b4e565b612176565b90610a3e8584611d76565b91670de0b6b3a76400009283810290808204851490151715610c0057610a8492610a6b83610a7f93611d89565b60ff60025416916024359060043590611e46565b611d76565b91818102918183041490151715610c0057610a9e91611d89565b906064358210610bee57610ab3602435611c65565b90549060031b1c8211610bdc57610b8682610afa610b2e602096610ad8600435611c9c565b90546001600160a01b039491604435913091339160039190911b1c8716612423565b610b17610b08600435611c65565b91909283548360031b1c611e25565b825460001960039390931b92831b1916911b179055565b610b4c610b3c602435611c65565b610b178583548360031b1c611da9565b610b6a610b5a600435611c18565b610b178783548360031b1c611e25565b610b75602435611c9c565b9190913392549060031b1c166124db565b60405190600435825260243584830152604435604083015282606083015260808201527f6d2535bccee43630e01014525de773080b47e1a82c56ef6a30802933a48c9e3460a03392a26001600c55604051908152f35b60405163bb55fd2760e01b8152600490fd5b604051638199f5f360e01b8152600490fd5b634e487b7160e01b600052601160045260246000fd5b8254845286945060209093019260019283019201610a14565b604051631f2a200560e01b8152600490fd5b60405163100dac0560e11b8152600490fd5b60405163609f982f60e01b8152600490fd5b604051631ab7da6b60e01b8152600490fd5b6040516321c4e35760e21b8152600490fd5b34610799576000366003190112610799576040517f00000000000000000000000000000000000000000000000000000000000000006001600160a01b03168152602090f35b34610799576000366003190112610799576004546040516001600160a01b039091168152602090f35b34610799576000366003190112610799576020610d12612281565b604051908152f35b346107995760003660031901126107995760206040516103e88152f35b34610799576000366003190112610799576040518060005480835260208093018091600080527f290decd9548b62a8d60345a988386fc84ba6bc95484008f6362f93160ef3e5639060005b86828210610de1578686610d9882880383611b4e565b604051928392818401908285525180915260408401929160005b828110610dc157505050500390f35b83516001600160a01b031685528695509381019392810192600101610db2565b83546001600160a01b031685529093019260019283019201610d82565b3461079957604036600319011261079957610e17611bec565b6001600160a01b031660243581156106f85733600052600a6020528060406000205410610e8d5733600052600a6020526040600020818154039055816000526040600020610e66828254611e25565b905560405190815260008051602061255883398151915260203392a3602060405160018152f35b604051631e9acf1760e31b8152600490fd5b34610799576000366003190112610799576040516000600854610ec181611b14565b80845290600190818116908115610f565750600114610efb575b610ef784610eeb81860382611b4e565b60405191829182611b6f565b0390f35b6008600090815292507ff3f7a9fe364faab93b216da50a3214154f22a0a2b415b23a84c8169e8b636ee35b828410610f3e575050508101602001610eeb82610edb565b80546020858701810191909152909301928101610f26565b60ff191660208087019190915292151560051b85019092019250610eeb9150839050610edb565b34610799576000366003190112610799576020600154604051908152f35b3461079957600036600319011261079957602060405160128152f35b346107995760203660031901126107995760043560055481101561079957610fe0602091611c65565b90546040519160031b1c8152f35b34610799576020366003190112610799576001600160a01b0361100f611bec565b16600052600a6020526020604060002054604051908152f35b34610799576000366003190112610799576020604051670de0b6b3a76400008152f35b34610799576020366003190112610799576020610d12611069611bec565b612235565b346107995760003660031901126107995760405180600d54808252826020809301600d6000527fd7b6990105719101dabeb77144f2a3385c8033acd3af97e9423a695e81ad1eb59260005b858282106110e4575050506110d092500383611b4e565b610ef7604051928284938452830190611bb8565b85548452600195860195889550930192016110b9565b346107995760203660031901126107995760043560005481101561079957611123602091611c9c565b905460405160039290921b1c6001600160a01b03168152f35b34610799576060366003190112610799576004356001600160401b0381116107995761116c903690600401611ce6565b6002600c541461094b576002600c5560ff6006541615610c77576044354211610c65576001549182820361075a5760005b8381106114a157506009918254156000146113945760005b84811061132057506111e26111cc85610a2e611db6565b506111dd60ff6002541680926120f0565b611fe8565b926103e89384811115610bdc576103e7198101908111610c0057938154818101809111610c0057825560008052600a6020526040600020908154818101809111610c005760206000939260008051602061255883398151915292859455604051908152a35b6024358410610bdc5761125b848254611e25565b905533600052600a6020526040600020611276848254611e25565b9055604051838152600060008051602061255883398151915260203393a361129d84612144565b9160005b8581106112fb57602085857fb60e972ce1258a7280a8e34204b1df88fcabbe8aea805e46bc1566cdc6e6e1486112e260405192604084526040840190611bb8565b9183858201528033930390a26001600c55604051908152f35b8061130a61131b928585611d52565b356113158287611e32565b52611d43565b6112a1565b8061135961133061138f93611c9c565b90549061133e848789611d52565b35913091339160039190911b1c6001600160a01b0316612423565b61138a611367828587611d52565b3561137183611c65565b90919082549060031b91821b91600019901b1916179055565b611d43565b6111b5565b60001960005b858110611440575060005b8581106113c857506113c1670de0b6b3a7640000918554611d76565b0492611247565b80670de0b6b3a76400006113ed6113df8594611c65565b949054600395861b1c611d76565b048015610c2f5761143b928161142161138a9361140986611c9c565b90543091339190871b1c6001600160a01b0316612423565b610b1761142d85611c65565b929093838554911b1c611e25565b6113a5565b61144b818486611d52565b35670de0b6b3a764000090818102918183041490151715610c00576114809061147383611c65565b90549060031b1c90611d89565b828110611497575b5061149290611d43565b61139a565b9150611492611488565b6114ac818484611d52565b3515610c2f576114bb90611d43565b61119d565b34610799576040366003190112610799576020610d126024356004356122c0565b34610799576060366003190112610799576004356024356001600160401b03811161079957611514903690600401611ce6565b90916002600c541461094b576002600c5560ff6006541615610c77576044354211610c655760015480830361075a578115610c2f5733600052602092600a84528260406000205410610e8d576009549461156c611db6565b9586519061157982612144565b9760005b8381106116e4575050505060005b8381106116aa5750505033600052600a83528160406000205410610e8d5733600052600a835260406000208281540390556115c882600954611da9565b6009556000604051838152600080516020612558833981519152853392a360005b81811061164b5750507f0f74fe264fb7d04b4800409b8a3562eb271296e19c3ec8835639635b3e858c45604051604081526116276040820186611bb8565b92848201528033930390a26001600c55610ef7604051928284938452830190611bb8565b8061138a61165c6116a59388611e32565b5161167b61166984611c65565b610b1782549460039583871b1c611da9565b61168483611c9c565b9054911b1c6001600160a01b031661169c8389611e32565b519033906124db565b6115e9565b6116b48188611e32565b516116c0828585611d52565b3511610bee576116d08188611e32565b5115610c2f576116df90611d43565b61158b565b80611705846117008b6116fa61170f9688611e32565b51611d76565b611d89565b611315828d611e32565b61157d565b34610799576000366003190112610799576020600354604051908152f35b346107995760603660031901126107995761174b611bec565b611753611c02565b604435916001600160a01b03918216919082156106f8571680600052602092600a84528060406000205410610e8d5781600052600b845260406000203360005284528360406000205460001981036117f0575b506000805160206125588339815191529183600052600a825260406000208181540390558460005260406000206117de828254611e25565b9055604051908152a360405160018152f35b905081811061182c578160008051602061255883398151915292869285600052600b8452604060002033600052845203604060002055916117a6565b6040516313be252b60e01b8152600490fd5b3461079957600036600319011261079957602060ff60025416604051908152f35b3461079957602036600319011261079957600435600d5481101561079957610fe0602091611c18565b3461079957600036600319011261079957602060405160028152f35b34610799576000366003190112610799576020600954604051908152f35b3461079957600036600319011261079957602060ff600654166040519015158152f35b34610799576040366003190112610799576118fe611bec565b6001600160a01b031660243581156106f85733600052600b602052604060002082600052602052806040600020556040519081527f8c5be1e5ebec7d5bd14f71427d1e84f3dd0314c0f7b2291e5b200ac8c7c3b92560203392a3602060405160018152f35b3461079957600036600319011261079957610ef761197f611db6565b604051918291602083526020830190611bb8565b346107995760003660031901126107995760405160006007546119b581611b14565b80845290600190818116908115610f5657506001146119de57610ef784610eeb81860382611b4e565b6007600090815292506000805160206125388339815191525b828410611a0f575050508101602001610eeb82610edb565b805460208587018101919091529093019281016119f7565b346107995760603660031901126107995760043590602435906044359160015491828510801590611b0a575b611afb5750808414610c41578215610c2f57611a97611a82612710611a7a60035487611d76565b048095611da9565b611a8e84610a2e611db6565b92909185611d76565b90670de0b6b3a76400009687830292808404891490151715610c0057611ad194611ac485610a7f95611d89565b9160ff6002541693611e46565b90838102938185041490151715610c0057604092611aee91611d89565b9082519182526020820152f35b63609f982f60e01b8152600490fd5b5082821015611a53565b90600182811c92168015611b44575b6020831014611b2e57565b634e487b7160e01b600052602260045260246000fd5b91607f1691611b23565b90601f801991011681019081106001600160401b0382111761046d57604052565b6020808252825181830181905290939260005b828110611ba457505060409293506000838284010152601f8019910116010190565b818101860151848201604001528501611b82565b90815180825260208080930193019160005b828110611bd8575050505090565b835185529381019392810192600101611bca565b600435906001600160a01b038216820361079957565b602435906001600160a01b038216820361079957565b600d54811015611c4f57600d6000527fd7b6990105719101dabeb77144f2a3385c8033acd3af97e9423a695e81ad1eb50190600090565b634e487b7160e01b600052603260045260246000fd5b600554811015611c4f5760056000527f036b6384b5eca791c62761152d0c79bb0604c104a5fb6f4eb0703f3154bb3db00190600090565b906000918254811015611cd2578280527f290decd9548b62a8d60345a988386fc84ba6bc95484008f6362f93160ef3e563019190565b634e487b7160e01b83526032600452602483fd5b9181601f84011215610799578235916001600160401b038311610799576020808501948460051b01011161079957565b9181601f84011215610799578235916001600160401b038311610799576020838186019501011161079957565b6000198114610c005760010190565b9190811015611c4f5760051b0190565b356001600160a01b03811681036107995790565b81810292918115918404141715610c0057565b8115611d93570490565b634e487b7160e01b600052601260045260246000fd5b91908203918211610c0057565b60405190600554808352826020918282019060056000527f036b6384b5eca791c62761152d0c79bb0604c104a5fb6f4eb0703f3154bb3db0936000905b828210611e0b57505050611e0992500383611b4e565b565b855484526001958601958895509381019390910190611df3565b91908201809211610c0057565b8051821015611c4f5760209160051b010190565b93845193611e5482876120f0565b9460009384925b828410611eac575050505083821015611e9a576111dd611e7e92611e8495611da9565b92611e32565b519081811015611e9a57611e9791611da9565b90565b60405163302e29cb60e01b8152600490fd5b9091929488878714611f0057611ee991611edd87611ecd8a611ee395611e32565b5186888c14611ef1575b50611f0b565b90611e25565b95611d43565b929190611e5b565b611efa91611e25565b86611ed7565b5094611ee990611d43565b9060ff1660028114611fd45760048114611fba5760088114611f9c5760108114611f7957602014611f4857604051634956aa2960e01b8152600490fd5b611f75611f6e611f6e611f6e93611f6e670de0b6b3a76400008096818096858296611d76565b0480611d76565b0490565b50611f75611f6e611f6e611f6e93670de0b6b3a764000094858094838294611d76565b50611f75611f6e91611f6e670de0b6b3a76400008094838294611d76565b50611f75611f6e91670de0b6b3a764000092818492611d76565b50611f7581670de0b6b3a764000092611d76565b9060ff166002811461206f57600481146120625760088114612052576010811461203f5760201461202557604051634956aa2960e01b8152600490fd5b61203a61203a61203a61203a611e9794612075565b612075565b5061203a61203a61203a611e9793612075565b5061203a61203a611e9792612075565b5061203a611e9791612075565b50611e97905b80156120ea57670de0b6b3a764000080820291820403610c0057600060038211156120dc57508060019080821c828101809111610c005791905b8383106120bc5750505090565b909192506120d3836120ce8184611d89565b611e25565b821c91906120af565b906120e45790565b50600190565b50600090565b80516000939284925b8284106121065750505050565b90919294611ee361212591611edd8561211f8a87611e32565b51611f0b565b9291906120f9565b6001600160401b03811161046d5760051b60200190565b9061214e8261212d565b61215b6040519182611b4e565b828152809261216c601f199161212d565b0190602036910137565b9091600091600061218685612144565b94815b8181106122175750841561220557815b8181106121a65750505050565b6121ba6121b38286611e32565b5183611d76565b670de0b6b3a7640000908181029181830414901517156121f157906121e2876121ec93611d89565b611315828a611e32565b612199565b634e487b7160e01b84526011600452602484fd5b60405163af458c0760e01b8152600490fd5b94611ee3612230916122298887611e32565b5190611e25565b612189565b6001549060005b82811061224857505090565b61225181611c9c565b905460039190911b1c6001600160a01b039081169083161461227b5761227690611d43565b61223c565b91505090565b60ff600654161580156122b6575b6122b157611e976122a4600154610a2e611db6565b5060ff60025416906120f0565b600090565b506009541561228f565b9060015490818310801590612398575b610c53576122dd83611c65565b90549060031b1c158015612381575b6123795761230a61230261231193610a2e611db6565b509384611e32565b5192611e32565b519060ff600254166002811460001461232e5750611e97916123a2565b9061234361233c8383611f0b565b9284611f0b565b91801561237057670de0b6b3a76400009361236461236a92611f75956123a2565b926123a2565b90611d76565b50505050600090565b505050600090565b5061238b81611c65565b90549060031b1c156122ec565b50818110156122d0565b90801561220557670de0b6b3a764000091828102928184041490151715610c0057611e9791611d89565b3d15612406573d906001600160401b03821161046d57604051916123fa601f8201601f191660200184611b4e565b82523d6000602084013e565b606090565b90816020910312610799575180151581036107995790565b6040516323b872dd60e01b602082019081526001600160a01b03938416602483015292909316604484015260648084019490945292825260a0820192906001600160401b0384118385101761046d576000809493819460405251925af16124886123cc565b90159081156124ab575b5061249957565b6040516312171d8360e31b8152600490fd5b80518015159250826124c0575b505038612492565b6124d3925060208091830101910161240b565b1538806124b8565b60405163a9059cbb60e01b602082019081526001600160a01b0390931660248201526044808201949094529283526080830192916001600160401b0384118385101761046d576000809493819460405251925af16124886123cc56fea66cc928b5edb82af9bd49922954155ab7b0942694bea4ce44661d9a8736c688ddf252ad1be2c89b69c2b068fc378daa952ba7f163c4a11628f55a4df523b3efa264697066735822122027e12658b70a11453ff4412b0823b7975c90f5a4286a7e137d5820ceac7e3c4364736f6c63430008140033a2646970667358221220cb32eca685721d2f2258347945704219b3b1cb77d165dac2b8055c10b8c218bf64736f6c63430008140033","opcodes":"PUSH1 0x80 CALLVALUE PUSH2 0xD7 JUMPI PUSH1 0x1F PUSH2 0x32B9 CODESIZE DUP2 SWAP1 SUB SWAP2 DUP3 ADD PUSH1 0x1F NOT AND DUP4 ADD SWAP2 PUSH1 0x1 PUSH1 0x1 PUSH1 0x40 SHL SUB DUP4 GT DUP5 DUP5 LT OR PUSH2 0xDC JUMPI DUP1 DUP5 SWAP3 PUSH1 0x60 SWAP5 PUSH1 0x40 MSTORE DUP4 CODECOPY DUP2 ADD SUB SLT PUSH2 0xD7 JUMPI PUSH2 0x47 DUP2 PUSH2 0xF2 JUMP JUMPDEST SWAP1 PUSH1 0x40 PUSH2 0x56 PUSH1 0x20 DUP4 ADD PUSH2 0xF2 JUMP JUMPDEST SWAP2 ADD MLOAD SWAP2 PUSH1 0x1 PUSH1 0x1 PUSH1 0xA0 SHL SUB SWAP1 DUP2 AND SWAP2 DUP3 ISZERO DUP1 ISZERO PUSH2 0xCD JUMPI JUMPDEST PUSH2 0xBB JUMPI PUSH1 0x64 DUP5 GT PUSH2 0xA9 JUMPI PUSH1 0x1 DUP1 PUSH1 0xA0 SHL SUB NOT SWAP3 DUP4 PUSH1 0x0 SLOAD AND OR PUSH1 0x0 SSTORE AND SWAP1 PUSH1 0x1 SLOAD AND OR PUSH1 0x1 SSTORE PUSH1 0x2 SSTORE PUSH1 0x40 MLOAD PUSH2 0x31B2 SWAP1 DUP2 PUSH2 0x107 DUP3 CODECOPY RETURN JUMPDEST PUSH1 0x40 MLOAD PUSH4 0x58D620B3 PUSH1 0xE0 SHL DUP2 MSTORE PUSH1 0x4 SWAP1 REVERT JUMPDEST PUSH1 0x40 MLOAD PUSH4 0xD92E233D PUSH1 0xE0 SHL DUP2 MSTORE PUSH1 0x4 SWAP1 REVERT JUMPDEST POP DUP2 DUP2 AND ISZERO PUSH2 0x6F JUMP JUMPDEST PUSH1 0x0 DUP1 REVERT JUMPDEST PUSH4 0x4E487B71 PUSH1 0xE0 SHL PUSH1 0x0 MSTORE PUSH1 0x41 PUSH1 0x4 MSTORE PUSH1 0x24 PUSH1 0x0 REVERT JUMPDEST MLOAD SWAP1 PUSH1 0x1 PUSH1 0x1 PUSH1 0xA0 SHL SUB DUP3 AND DUP3 SUB PUSH2 0xD7 JUMPI JUMP INVALID PUSH1 0x80 DUP1 PUSH1 0x40 MSTORE PUSH1 0x4 CALLDATASIZE LT ISZERO PUSH2 0x13 JUMPI PUSH1 0x0 DUP1 REVERT JUMPDEST PUSH1 0x0 SWAP1 DUP2 CALLDATALOAD PUSH1 0xE0 SHR SWAP1 DUP2 PUSH4 0x1010B58C EQ PUSH2 0x7C2 JUMPI POP DUP1 PUSH4 0x12FB31C4 EQ PUSH2 0x7A4 JUMPI DUP1 PUSH4 0x162F37FA EQ PUSH2 0x72C JUMPI DUP1 PUSH4 0x334DC4F3 EQ PUSH2 0x6B9 JUMPI DUP1 PUSH4 0x6385C306 EQ PUSH2 0x347 JUMPI DUP1 PUSH4 0x704B6C02 EQ PUSH2 0x2D9 JUMPI DUP1 PUSH4 0x75926137 EQ PUSH2 0x2B0 JUMPI DUP1 PUSH4 0x97C0DF23 EQ PUSH2 0x24B JUMPI DUP1 PUSH4 0xA423BA8F EQ PUSH2 0x218 JUMPI DUP1 PUSH4 0xAB3C7E52 EQ PUSH2 0x1FA JUMPI DUP1 PUSH4 0xCCCEB7CD EQ PUSH2 0x168 JUMPI DUP1 PUSH4 0xD88FF1F4 EQ PUSH2 0xD9 JUMPI PUSH4 0xF851A440 EQ PUSH2 0xB0 JUMPI PUSH1 0x0 DUP1 REVERT JUMPDEST CALLVALUE PUSH2 0xD6 JUMPI DUP1 PUSH1 0x3 NOT CALLDATASIZE ADD SLT PUSH2 0xD6 JUMPI SLOAD PUSH1 0x40 MLOAD PUSH1 0x1 PUSH1 0x1 PUSH1 0xA0 SHL SUB SWAP1 SWAP2 AND DUP2 MSTORE PUSH1 0x20 SWAP1 RETURN JUMPDEST DUP1 REVERT JUMPDEST POP CALLVALUE PUSH2 0xD6 JUMPI DUP1 PUSH1 0x3 NOT CALLDATASIZE ADD SLT PUSH2 0xD6 JUMPI PUSH1 0x40 MLOAD PUSH1 0x3 DUP1 SLOAD DUP1 DUP4 MSTORE SWAP1 DUP4 MSTORE PUSH1 0x20 DUP1 DUP4 ADD SWAP4 PUSH32 0xC2575A0E9E593C00F959F8C92F12DB2869C3395A3B0502D05E2516446F71F85B SWAP3 SWAP2 JUMPDEST DUP3 DUP3 LT PUSH2 0x148 JUMPI PUSH2 0x144 DUP6 PUSH2 0x138 DUP2 DUP10 SUB DUP3 PUSH2 0x8FE JUMP JUMPDEST PUSH1 0x40 MLOAD SWAP2 DUP3 SWAP2 DUP3 PUSH2 0x84B JUMP JUMPDEST SUB SWAP1 RETURN JUMPDEST DUP4 SLOAD PUSH1 0x1 PUSH1 0x1 PUSH1 0xA0 SHL SUB AND DUP7 MSTORE SWAP5 DUP6 ADD SWAP5 PUSH1 0x1 SWAP4 DUP5 ADD SWAP4 SWAP1 SWAP2 ADD SWAP1 PUSH2 0x121 JUMP JUMPDEST POP CALLVALUE PUSH2 0xD6 JUMPI PUSH1 0x20 CALLDATASIZE PUSH1 0x3 NOT ADD SLT PUSH2 0xD6 JUMPI PUSH2 0x182 PUSH2 0x830 JUMP JUMPDEST DUP2 SLOAD PUSH1 0x1 PUSH1 0x1 PUSH1 0xA0 SHL SUB SWAP2 SWAP1 DUP3 AND CALLER SUB PUSH2 0x1E8 JUMPI AND DUP1 ISZERO PUSH2 0x1D6 JUMPI PUSH1 0x1 DUP1 SLOAD PUSH1 0x1 PUSH1 0x1 PUSH1 0xA0 SHL SUB NOT AND DUP3 OR SWAP1 SSTORE PUSH32 0x6400838E1A1B95176D26AAAD4540FCEF6778703092B09AA09467C8EF1CF2D17A DUP3 DUP1 LOG2 DUP1 RETURN JUMPDEST PUSH1 0x40 MLOAD PUSH4 0xD92E233D PUSH1 0xE0 SHL DUP2 MSTORE PUSH1 0x4 SWAP1 REVERT JUMPDEST PUSH1 0x40 MLOAD PUSH4 0x7BFA4B9F PUSH1 0xE0 SHL DUP2 MSTORE PUSH1 0x4 SWAP1 REVERT JUMPDEST POP CALLVALUE PUSH2 0xD6 JUMPI DUP1 PUSH1 0x3 NOT CALLDATASIZE ADD SLT PUSH2 0xD6 JUMPI PUSH1 0x20 PUSH1 0x3 SLOAD PUSH1 0x40 MLOAD SWAP1 DUP2 MSTORE RETURN JUMPDEST POP CALLVALUE PUSH2 0xD6 JUMPI PUSH1 0x20 CALLDATASIZE PUSH1 0x3 NOT ADD SLT PUSH2 0xD6 JUMPI PUSH1 0x20 SWAP1 PUSH1 0x4 CALLDATALOAD DUP2 MSTORE PUSH1 0x4 DUP3 MSTORE PUSH1 0x40 PUSH1 0x1 DUP1 PUSH1 0xA0 SHL SUB SWAP2 KECCAK256 SLOAD AND PUSH1 0x40 MLOAD SWAP1 DUP2 MSTORE RETURN JUMPDEST POP CALLVALUE PUSH2 0xD6 JUMPI PUSH1 0x40 CALLDATASIZE PUSH1 0x3 NOT ADD SLT PUSH2 0xD6 JUMPI PUSH1 0x4 CALLDATALOAD PUSH8 0xFFFFFFFFFFFFFFFF DUP2 GT PUSH2 0x2AC JUMPI SWAP1 PUSH2 0x291 PUSH2 0x283 PUSH1 0x20 SWAP4 CALLDATASIZE SWAP1 PUSH1 0x4 ADD PUSH2 0x88F JUMP JUMPDEST PUSH2 0x28B PUSH2 0x8C0 JUMP JUMPDEST SWAP2 PUSH2 0xA03 JUMP JUMPDEST DUP2 MSTORE PUSH1 0x4 DUP3 MSTORE PUSH1 0x40 PUSH1 0x1 DUP1 PUSH1 0xA0 SHL SUB SWAP2 KECCAK256 SLOAD AND PUSH1 0x40 MLOAD SWAP1 DUP2 MSTORE RETURN JUMPDEST POP DUP1 REVERT JUMPDEST POP CALLVALUE PUSH2 0xD6 JUMPI DUP1 PUSH1 0x3 NOT CALLDATASIZE ADD SLT PUSH2 0xD6 JUMPI PUSH1 0x1 SLOAD PUSH1 0x40 MLOAD PUSH1 0x1 PUSH1 0x1 PUSH1 0xA0 SHL SUB SWAP1 SWAP2 AND DUP2 MSTORE PUSH1 0x20 SWAP1 RETURN JUMPDEST POP CALLVALUE PUSH2 0xD6 JUMPI PUSH1 0x20 CALLDATASIZE PUSH1 0x3 NOT ADD SLT PUSH2 0xD6 JUMPI PUSH2 0x2F3 PUSH2 0x830 JUMP JUMPDEST DUP2 SLOAD SWAP1 PUSH1 0x1 PUSH1 0x1 PUSH1 0xA0 SHL SUB DUP1 DUP4 AND SWAP2 CALLER DUP4 SWAP1 SUB PUSH2 0x1E8 JUMPI AND SWAP2 DUP3 ISZERO PUSH2 0x1D6 JUMPI PUSH1 0x1 PUSH1 0x1 PUSH1 0xA0 SHL SUB NOT AND DUP3 OR DUP4 SSTORE PUSH32 0x101B8081FF3B56BBF45DEB824D86A3B0FD38B7E3DD42421105CF8ABE9106DB0B DUP4 DUP1 LOG3 DUP1 RETURN JUMPDEST POP CALLVALUE PUSH2 0xD6 JUMPI PUSH1 0xA0 CALLDATASIZE PUSH1 0x3 NOT ADD SLT PUSH2 0xD6 JUMPI PUSH1 0x4 CALLDATALOAD PUSH8 0xFFFFFFFFFFFFFFFF DUP2 GT PUSH2 0x2AC JUMPI PUSH2 0x379 SWAP1 CALLDATASIZE SWAP1 PUSH1 0x4 ADD PUSH2 0x88F JUMP JUMPDEST PUSH2 0x384 SWAP3 SWAP2 SWAP3 PUSH2 0x8C0 JUMP JUMPDEST PUSH1 0x44 CALLDATALOAD PUSH1 0x64 CALLDATALOAD PUSH8 0xFFFFFFFFFFFFFFFF DUP2 GT PUSH2 0x6B5 JUMPI PUSH2 0x3A7 SWAP1 CALLDATASIZE SWAP1 PUSH1 0x4 ADD PUSH2 0x8D0 JUMP JUMPDEST SWAP1 SWAP5 PUSH1 0x84 CALLDATALOAD PUSH8 0xFFFFFFFFFFFFFFFF DUP2 GT PUSH2 0x2AC JUMPI PUSH2 0x3C9 SWAP1 CALLDATASIZE SWAP1 PUSH1 0x4 ADD PUSH2 0x8D0 JUMP JUMPDEST SWAP4 DUP1 PUSH2 0x6AF JUMPI POP PUSH1 0x2 SLOAD SWAP4 JUMPDEST PUSH2 0x3E0 DUP7 DUP9 DUP12 PUSH2 0xA03 JUMP JUMPDEST DUP1 DUP5 MSTORE PUSH1 0x4 PUSH1 0x20 MSTORE PUSH1 0x40 DUP5 KECCAK256 SLOAD SWAP1 SWAP5 SWAP1 PUSH1 0x1 PUSH1 0x1 PUSH1 0xA0 SHL SUB AND PUSH2 0x69D JUMPI PUSH1 0x40 MLOAD PUSH2 0x25E2 DUP1 DUP3 ADD SWAP1 DUP3 DUP3 LT PUSH8 0xFFFFFFFFFFFFFFFF DUP4 GT OR PUSH2 0x689 JUMPI SWAP1 DUP3 SWAP2 PUSH2 0xB9B DUP4 CODECOPY SUB SWAP1 DUP6 CREATE DUP1 ISZERO PUSH2 0x67E JUMPI PUSH1 0x1 SLOAD PUSH1 0x1 PUSH1 0x1 PUSH1 0xA0 SHL SUB SWAP2 DUP3 AND SWAP11 SWAP2 AND DUP11 EXTCODESIZE ISZERO PUSH2 0x67A JUMPI DUP12 SWAP5 DUP7 SWAP5 PUSH2 0x49E DUP12 DUP14 SWAP7 PUSH1 0xC4 SWAP7 PUSH2 0x4B0 SWAP7 DUP15 PUSH1 0xFF PUSH2 0x47C PUSH1 0x40 MLOAD SWAP15 DUP16 SWAP14 DUP15 SWAP14 DUP15 PUSH4 0xFE485A11 PUSH1 0xE0 SHL DUP2 MSTORE PUSH1 0xC0 PUSH1 0x4 DUP3 ADD MSTORE ADD SWAP2 PUSH2 0x920 JUMP JUMPDEST SWAP6 AND PUSH1 0x24 DUP12 ADD MSTORE PUSH1 0x44 DUP11 ADD MSTORE PUSH1 0x64 DUP10 ADD MSTORE DUP8 DUP4 SUB PUSH1 0x3 NOT ADD PUSH1 0x84 DUP10 ADD MSTORE PUSH2 0x96D JUMP JUMPDEST DUP5 DUP2 SUB PUSH1 0x3 NOT ADD PUSH1 0xA4 DUP7 ADD MSTORE SWAP2 PUSH2 0x96D JUMP JUMPDEST SUB DUP2 DUP4 DUP12 GAS CALL DUP1 ISZERO PUSH2 0x66F JUMPI PUSH2 0x643 JUMPI JUMPDEST POP SWAP1 DUP2 MSTORE PUSH1 0x4 PUSH1 0x20 MSTORE PUSH1 0x40 DUP2 KECCAK256 DUP1 SLOAD PUSH1 0x1 PUSH1 0x1 PUSH1 0xA0 SHL SUB NOT AND DUP7 OR SWAP1 SSTORE PUSH1 0x3 SLOAD PUSH1 0x1 PUSH1 0x40 SHL DUP2 LT ISZERO PUSH2 0x62D JUMPI PUSH1 0x1 DUP2 ADD DUP1 PUSH1 0x3 SSTORE DUP2 LT ISZERO PUSH2 0x617 JUMPI PUSH1 0x3 PUSH1 0x0 MSTORE PUSH32 0xC2575A0E9E593C00F959F8C92F12DB2869C3395A3B0502D05E2516446F71F85B ADD DUP1 SLOAD PUSH1 0x1 PUSH1 0x1 PUSH1 0xA0 SHL SUB NOT AND DUP7 OR SWAP1 SSTORE DUP1 JUMPDEST DUP5 DUP2 LT PUSH2 0x5A5 JUMPI PUSH1 0x20 DUP7 DUP1 PUSH32 0xA12124ED4C3C01DFDDDB182A73C7069E110095D092D57F64192C92FC2D617CC3 DUP11 DUP10 DUP10 DUP10 PUSH1 0x1 DUP1 PUSH1 0xA0 SHL SUB PUSH1 0x1 SLOAD AND SWAP1 PUSH1 0xFF PUSH2 0x58A PUSH1 0x40 MLOAD SWAP7 DUP8 SWAP7 PUSH1 0x80 DUP9 MSTORE PUSH1 0x80 DUP9 ADD SWAP2 PUSH2 0x920 JUMP JUMPDEST SWAP4 AND DUP10 DUP6 ADD MSTORE PUSH1 0x40 DUP5 ADD MSTORE PUSH1 0x60 DUP4 ADD MSTORE SUB SWAP1 LOG2 PUSH1 0x40 MLOAD SWAP1 DUP2 MSTORE RETURN JUMPDEST PUSH1 0x1 PUSH1 0x1 PUSH1 0xA0 SHL SUB PUSH2 0x5C0 PUSH2 0x5BB DUP4 DUP9 DUP12 PUSH2 0x9B3 JUMP JUMPDEST PUSH2 0x9C3 JUMP JUMPDEST AND DUP3 MSTORE PUSH1 0x5 PUSH1 0x20 MSTORE PUSH1 0x40 DUP3 KECCAK256 SWAP1 DUP2 SLOAD PUSH1 0x1 PUSH1 0x40 SHL DUP2 LT ISZERO PUSH2 0x62D JUMPI PUSH1 0x1 DUP2 ADD DUP1 DUP5 SSTORE DUP2 LT ISZERO PUSH2 0x617 JUMPI PUSH2 0x612 SWAP3 PUSH1 0x0 MSTORE PUSH1 0x20 PUSH1 0x0 KECCAK256 ADD DUP8 PUSH12 0xFFFFFFFFFFFFFFFFFFFFFFFF PUSH1 0xA0 SHL DUP3 SLOAD AND OR SWAP1 SSTORE PUSH2 0x98E JUMP JUMPDEST PUSH2 0x535 JUMP JUMPDEST PUSH4 0x4E487B71 PUSH1 0xE0 SHL PUSH1 0x0 MSTORE PUSH1 0x32 PUSH1 0x4 MSTORE PUSH1 0x24 PUSH1 0x0 REVERT JUMPDEST PUSH4 0x4E487B71 PUSH1 0xE0 SHL PUSH1 0x0 MSTORE PUSH1 0x41 PUSH1 0x4 MSTORE PUSH1 0x24 PUSH1 0x0 REVERT JUMPDEST PUSH8 0xFFFFFFFFFFFFFFFF DUP2 GT PUSH2 0x65B JUMPI PUSH1 0x40 MSTORE CODESIZE PUSH2 0x4C1 JUMP JUMPDEST PUSH4 0x4E487B71 PUSH1 0xE0 SHL DUP3 MSTORE PUSH1 0x41 PUSH1 0x4 MSTORE PUSH1 0x24 DUP3 REVERT JUMPDEST PUSH1 0x40 MLOAD RETURNDATASIZE DUP5 DUP3 RETURNDATACOPY RETURNDATASIZE SWAP1 REVERT JUMPDEST DUP6 DUP1 REVERT JUMPDEST PUSH1 0x40 MLOAD RETURNDATASIZE DUP7 DUP3 RETURNDATACOPY RETURNDATASIZE SWAP1 REVERT JUMPDEST PUSH4 0x4E487B71 PUSH1 0xE0 SHL DUP8 MSTORE PUSH1 0x41 PUSH1 0x4 MSTORE PUSH1 0x24 DUP8 REVERT JUMPDEST PUSH1 0x40 MLOAD PUSH4 0x7A471E13 PUSH1 0xE1 SHL DUP2 MSTORE PUSH1 0x4 SWAP1 REVERT JUMPDEST SWAP4 PUSH2 0x3D5 JUMP JUMPDEST DUP5 DUP1 REVERT JUMPDEST POP CALLVALUE PUSH2 0xD6 JUMPI PUSH1 0x20 CALLDATASIZE PUSH1 0x3 NOT ADD SLT PUSH2 0xD6 JUMPI DUP1 SLOAD PUSH1 0x4 CALLDATALOAD SWAP1 PUSH1 0x1 PUSH1 0x1 PUSH1 0xA0 SHL SUB AND CALLER SUB PUSH2 0x1E8 JUMPI PUSH1 0x64 DUP2 GT PUSH2 0x71A JUMPI PUSH1 0x20 DUP2 PUSH32 0x8AD313470434947A09C21678DA40F1B57A6797B971E01D8278070AE88BBC7B9C SWAP3 PUSH1 0x2 SSTORE PUSH1 0x40 MLOAD SWAP1 DUP2 MSTORE LOG1 DUP1 RETURN JUMPDEST PUSH1 0x40 MLOAD PUSH4 0x58D620B3 PUSH1 0xE0 SHL DUP2 MSTORE PUSH1 0x4 SWAP1 REVERT JUMPDEST POP CALLVALUE PUSH2 0xD6 JUMPI PUSH1 0x20 DUP1 PUSH1 0x3 NOT CALLDATASIZE ADD SLT PUSH2 0x2AC JUMPI PUSH1 0x1 PUSH1 0x1 PUSH1 0xA0 SHL SUB SWAP2 DUP3 PUSH2 0x751 PUSH2 0x830 JUMP JUMPDEST AND DUP2 MSTORE PUSH1 0x5 DUP3 MSTORE PUSH1 0x40 DUP2 KECCAK256 SWAP3 PUSH1 0x40 MLOAD SWAP1 DUP2 SWAP4 DUP1 DUP7 SLOAD SWAP4 DUP5 DUP2 MSTORE ADD SWAP6 DUP5 MSTORE DUP1 DUP5 KECCAK256 SWAP4 SWAP2 JUMPDEST DUP4 DUP4 LT PUSH2 0x78B JUMPI PUSH2 0x144 DUP7 PUSH2 0x138 DUP2 DUP11 SUB DUP3 PUSH2 0x8FE JUMP JUMPDEST DUP5 SLOAD DUP2 AND DUP8 MSTORE SWAP6 DUP2 ADD SWAP6 PUSH1 0x1 SWAP5 DUP6 ADD SWAP5 SWAP1 SWAP3 ADD SWAP2 PUSH2 0x774 JUMP JUMPDEST POP CALLVALUE PUSH2 0xD6 JUMPI DUP1 PUSH1 0x3 NOT CALLDATASIZE ADD SLT PUSH2 0xD6 JUMPI PUSH1 0x20 PUSH1 0x2 SLOAD PUSH1 0x40 MLOAD SWAP1 DUP2 MSTORE RETURN JUMPDEST SWAP1 POP CALLVALUE PUSH2 0x2AC JUMPI PUSH1 0x20 CALLDATASIZE PUSH1 0x3 NOT ADD SLT PUSH2 0x2AC JUMPI PUSH1 0x4 CALLDATALOAD PUSH1 0x3 SLOAD DUP2 LT ISZERO PUSH2 0x81C JUMPI PUSH1 0x3 SWAP1 SWAP3 MSTORE PUSH32 0xC2575A0E9E593C00F959F8C92F12DB2869C3395A3B0502D05E2516446F71F85B SWAP1 SWAP2 ADD SLOAD PUSH1 0x1 PUSH1 0x1 PUSH1 0xA0 SHL SUB AND DUP2 MSTORE PUSH1 0x20 SWAP1 RETURN JUMPDEST PUSH4 0x4E487B71 PUSH1 0xE0 SHL DUP4 MSTORE PUSH1 0x32 PUSH1 0x4 MSTORE PUSH1 0x24 DUP4 REVERT JUMPDEST PUSH1 0x4 CALLDATALOAD SWAP1 PUSH1 0x1 PUSH1 0x1 PUSH1 0xA0 SHL SUB DUP3 AND DUP3 SUB PUSH2 0x846 JUMPI JUMP JUMPDEST PUSH1 0x0 DUP1 REVERT JUMPDEST PUSH1 0x20 SWAP1 DUP2 PUSH1 0x40 DUP2 DUP4 ADD SWAP3 DUP3 DUP2 MSTORE DUP6 MLOAD DUP1 SWAP5 MSTORE ADD SWAP4 ADD SWAP2 PUSH1 0x0 JUMPDEST DUP3 DUP2 LT PUSH2 0x872 JUMPI POP POP POP POP SWAP1 JUMP JUMPDEST DUP4 MLOAD PUSH1 0x1 PUSH1 0x1 PUSH1 0xA0 SHL SUB AND DUP6 MSTORE SWAP4 DUP2 ADD SWAP4 SWAP3 DUP2 ADD SWAP3 PUSH1 0x1 ADD PUSH2 0x864 JUMP JUMPDEST SWAP2 DUP2 PUSH1 0x1F DUP5 ADD SLT ISZERO PUSH2 0x846 JUMPI DUP3 CALLDATALOAD SWAP2 PUSH8 0xFFFFFFFFFFFFFFFF DUP4 GT PUSH2 0x846 JUMPI PUSH1 0x20 DUP1 DUP6 ADD SWAP5 DUP5 PUSH1 0x5 SHL ADD ADD GT PUSH2 0x846 JUMPI JUMP JUMPDEST PUSH1 0x24 CALLDATALOAD SWAP1 PUSH1 0xFF DUP3 AND DUP3 SUB PUSH2 0x846 JUMPI JUMP JUMPDEST SWAP2 DUP2 PUSH1 0x1F DUP5 ADD SLT ISZERO PUSH2 0x846 JUMPI DUP3 CALLDATALOAD SWAP2 PUSH8 0xFFFFFFFFFFFFFFFF DUP4 GT PUSH2 0x846 JUMPI PUSH1 0x20 DUP4 DUP2 DUP7 ADD SWAP6 ADD ADD GT PUSH2 0x846 JUMPI JUMP JUMPDEST SWAP1 PUSH1 0x1F DUP1 NOT SWAP2 ADD AND DUP2 ADD SWAP1 DUP2 LT PUSH8 0xFFFFFFFFFFFFFFFF DUP3 GT OR PUSH2 0x62D JUMPI PUSH1 0x40 MSTORE JUMP JUMPDEST SWAP2 SWAP1 DUP1 DUP3 MSTORE PUSH1 0x20 DUP1 SWAP3 ADD SWAP3 SWAP2 PUSH1 0x0 DUP1 JUMPDEST DUP4 DUP3 LT PUSH2 0x93F JUMPI POP POP POP POP POP SWAP1 JUMP JUMPDEST SWAP1 SWAP2 SWAP3 SWAP4 SWAP5 DUP6 CALLDATALOAD PUSH1 0x1 DUP1 PUSH1 0xA0 SHL SUB DUP2 AND DUP1 SWAP2 SUB PUSH2 0x969 JUMPI DUP2 MSTORE DUP4 ADD SWAP5 DUP4 ADD SWAP4 SWAP3 SWAP2 PUSH1 0x1 ADD SWAP1 PUSH2 0x930 JUMP JUMPDEST DUP3 DUP1 REVERT JUMPDEST SWAP1 DUP1 PUSH1 0x20 SWAP4 SWAP3 DUP2 DUP5 MSTORE DUP5 DUP5 ADD CALLDATACOPY PUSH1 0x0 DUP3 DUP3 ADD DUP5 ADD MSTORE PUSH1 0x1F ADD PUSH1 0x1F NOT AND ADD ADD SWAP1 JUMP JUMPDEST PUSH1 0x0 NOT DUP2 EQ PUSH2 0x99D JUMPI PUSH1 0x1 ADD SWAP1 JUMP JUMPDEST PUSH4 0x4E487B71 PUSH1 0xE0 SHL PUSH1 0x0 MSTORE PUSH1 0x11 PUSH1 0x4 MSTORE PUSH1 0x24 PUSH1 0x0 REVERT JUMPDEST SWAP2 SWAP1 DUP2 LT ISZERO PUSH2 0x617 JUMPI PUSH1 0x5 SHL ADD SWAP1 JUMP JUMPDEST CALLDATALOAD PUSH1 0x1 PUSH1 0x1 PUSH1 0xA0 SHL SUB DUP2 AND DUP2 SUB PUSH2 0x846 JUMPI SWAP1 JUMP JUMPDEST PUSH8 0xFFFFFFFFFFFFFFFF DUP2 GT PUSH2 0x62D JUMPI PUSH1 0x5 SHL PUSH1 0x20 ADD SWAP1 JUMP JUMPDEST DUP1 MLOAD DUP3 LT ISZERO PUSH2 0x617 JUMPI PUSH1 0x20 SWAP2 PUSH1 0x5 SHL ADD ADD SWAP1 JUMP JUMPDEST SWAP2 PUSH2 0xA0D DUP3 PUSH2 0x9D7 JUMP JUMPDEST SWAP3 PUSH2 0xA1B PUSH1 0x40 MLOAD SWAP5 DUP6 PUSH2 0x8FE JUMP JUMPDEST DUP3 DUP5 MSTORE PUSH2 0xA27 DUP4 PUSH2 0x9D7 JUMP JUMPDEST PUSH1 0x20 SWAP4 DUP6 DUP6 ADD SWAP3 SWAP2 PUSH1 0x1F NOT ADD CALLDATASIZE DUP5 CALLDATACOPY PUSH1 0x0 JUMPDEST DUP2 DUP2 LT PUSH2 0xB67 JUMPI POP POP POP SWAP1 SWAP2 DUP4 MLOAD SWAP1 PUSH1 0x1 SWAP2 DUP3 JUMPDEST DUP2 DUP2 LT PUSH2 0xABC JUMPI POP POP PUSH1 0x40 MLOAD SWAP4 DUP2 DUP6 SWAP3 DUP4 ADD DUP1 SWAP8 MLOAD SWAP1 SWAP6 SWAP2 PUSH1 0x0 JUMPDEST DUP3 DUP2 LT PUSH2 0xA9D JUMPI POP POP POP POP PUSH1 0xF8 SHL PUSH1 0x1 PUSH1 0x1 PUSH1 0xF8 SHL SUB NOT AND DUP4 MSTORE PUSH1 0x1E NOT SWAP3 SUB SWAP2 DUP3 ADD DUP4 MSTORE PUSH2 0xA97 SWAP2 ADD DUP3 PUSH2 0x8FE JUMP JUMPDEST MLOAD SWAP1 KECCAK256 SWAP1 JUMP JUMPDEST DUP4 MLOAD PUSH1 0x1 PUSH1 0x1 PUSH1 0xA0 SHL SUB AND DUP9 MSTORE SWAP7 DUP2 ADD SWAP7 DUP9 SWAP6 POP SWAP3 DUP2 ADD SWAP3 DUP7 ADD PUSH2 0xA68 JUMP JUMPDEST SWAP2 SWAP5 SWAP3 SWAP4 SWAP3 SWAP2 PUSH1 0x1 PUSH1 0x1 PUSH1 0xA0 SHL SUB DUP6 DUP2 PUSH2 0xAD6 DUP5 DUP12 PUSH2 0x9EF JUMP JUMPDEST MLOAD AND SWAP2 DUP4 SWAP2 JUMPDEST PUSH2 0xB02 JUMPI JUMPDEST POP SWAP1 PUSH2 0xAF1 PUSH2 0xAF7 SWAP4 SWAP3 DUP11 PUSH2 0x9EF JUMP JUMPDEST MSTORE PUSH2 0x98E JUMP JUMPDEST SWAP5 SWAP2 SWAP5 SWAP4 SWAP3 SWAP4 PUSH2 0xA4D JUMP JUMPDEST DUP2 ISZERO DUP1 ISZERO DUP1 PUSH2 0xB46 JUMPI JUMPDEST ISZERO PUSH2 0xB40 JUMPI PUSH1 0x0 NOT DUP4 ADD SWAP3 DUP1 DUP5 GT PUSH2 0x99D JUMPI PUSH2 0xB35 DUP4 PUSH2 0xB2C DUP7 DUP16 PUSH2 0x9EF JUMP JUMPDEST MLOAD AND SWAP2 DUP14 PUSH2 0x9EF JUMP JUMPDEST MSTORE PUSH2 0x99D JUMPI DUP8 PUSH2 0xADC JUMP JUMPDEST POP PUSH2 0xAE1 JUMP JUMPDEST POP PUSH1 0x0 NOT DUP4 ADD DUP4 DUP2 GT PUSH2 0x99D JUMPI DUP3 PUSH2 0xB5F DUP7 SWAP3 DUP15 PUSH2 0x9EF JUMP JUMPDEST MLOAD AND GT PUSH2 0xB0C JUMP JUMPDEST DUP1 PUSH2 0xB79 PUSH2 0x5BB PUSH2 0xB95 SWAP4 DUP6 DUP8 PUSH2 0x9B3 JUMP JUMPDEST PUSH2 0xB83 DUP3 DUP11 PUSH2 0x9EF JUMP JUMPDEST PUSH1 0x1 PUSH1 0x1 PUSH1 0xA0 SHL SUB SWAP1 SWAP2 AND SWAP1 MSTORE PUSH2 0x98E JUMP JUMPDEST PUSH2 0xA39 JUMP INVALID PUSH1 0xA0 DUP1 PUSH1 0x40 MSTORE CALLVALUE PUSH2 0x2F JUMPI PUSH1 0x1 PUSH1 0xC SSTORE CALLER PUSH1 0x80 MSTORE PUSH2 0x25AD SWAP1 DUP2 PUSH2 0x35 DUP3 CODECOPY PUSH1 0x80 MLOAD DUP2 DUP2 DUP2 PUSH2 0x248 ADD MSTORE PUSH2 0xC9F ADD MSTORE RETURN JUMPDEST PUSH1 0x0 DUP1 REVERT INVALID PUSH1 0x80 DUP1 PUSH1 0x40 MSTORE PUSH1 0x4 CALLDATASIZE LT ISZERO PUSH2 0x13 JUMPI PUSH1 0x0 DUP1 REVERT JUMPDEST PUSH1 0x0 CALLDATALOAD PUSH1 0xE0 SHR SWAP1 DUP2 PUSH4 0x54D50D4 EQ PUSH2 0x1A27 JUMPI POP DUP1 PUSH4 0x6FDDE03 EQ PUSH2 0x1993 JUMPI DUP1 PUSH4 0x902F1AC EQ PUSH2 0x1963 JUMPI DUP1 PUSH4 0x95EA7B3 EQ PUSH2 0x18E5 JUMPI DUP1 PUSH4 0x158EF93E EQ PUSH2 0x18C2 JUMPI DUP1 PUSH4 0x18160DDD EQ PUSH2 0x18A4 JUMPI DUP1 PUSH4 0x1965E183 EQ PUSH2 0x1888 JUMPI DUP1 PUSH4 0x1CC241C1 EQ PUSH2 0x185F JUMPI DUP1 PUSH4 0x219CE0D4 EQ PUSH2 0x183E JUMPI DUP1 PUSH4 0x23B872DD EQ PUSH2 0x1732 JUMPI DUP1 PUSH4 0x2FFDAF89 EQ PUSH2 0x1714 JUMPI DUP1 PUSH4 0x31CD52B0 EQ PUSH2 0x14E1 JUMPI DUP1 PUSH4 0x3F812882 EQ PUSH2 0x14C0 JUMPI DUP1 PUSH4 0x4D49E87D EQ PUSH2 0x113C JUMPI DUP1 PUSH4 0x4F64B2BE EQ PUSH2 0x10FA JUMPI DUP1 PUSH4 0x5DF45A37 EQ PUSH2 0x106E JUMPI DUP1 PUSH4 0x66C0BD24 EQ PUSH2 0x104B JUMPI DUP1 PUSH4 0x6A146024 EQ PUSH2 0x1028 JUMPI DUP1 PUSH4 0x70A08231 EQ PUSH2 0xFEE JUMPI DUP1 PUSH4 0x8334278D EQ PUSH2 0xFB7 JUMPI DUP1 PUSH4 0x851ED85E EQ PUSH2 0xF9B JUMPI DUP1 PUSH4 0x8E499BCF EQ PUSH2 0xF7D JUMPI DUP1 PUSH4 0x95D89B41 EQ PUSH2 0xE9F JUMPI DUP1 PUSH4 0xA9059CBB EQ PUSH2 0xDFE JUMPI DUP1 PUSH4 0xAA6CA808 EQ PUSH2 0xD37 JUMPI DUP1 PUSH4 0xBA9A7A56 EQ PUSH2 0xD1A JUMPI DUP1 PUSH4 0xC0FF1A15 EQ PUSH2 0xCF7 JUMPI DUP1 PUSH4 0xC415B95C EQ PUSH2 0xCCE JUMPI DUP1 PUSH4 0xC45A0155 EQ PUSH2 0xC89 JUMPI DUP1 PUSH4 0xC45C5C30 EQ PUSH2 0x95D JUMPI DUP1 PUSH4 0xC8796572 EQ PUSH2 0x844 JUMPI DUP1 PUSH4 0xD55BE8C6 EQ PUSH2 0x828 JUMPI DUP1 PUSH4 0xD73792A9 EQ PUSH2 0x80B JUMPI DUP1 PUSH4 0xDD62ED3E EQ PUSH2 0x7BA JUMPI DUP1 PUSH4 0xF47C84C5 EQ PUSH2 0x79E JUMPI PUSH4 0xFE485A11 EQ PUSH2 0x1AB JUMPI PUSH1 0x0 DUP1 REVERT JUMPDEST CALLVALUE PUSH2 0x799 JUMPI PUSH1 0xC0 CALLDATASIZE PUSH1 0x3 NOT ADD SLT PUSH2 0x799 JUMPI PUSH1 0x4 CALLDATALOAD PUSH1 0x1 PUSH1 0x1 PUSH1 0x40 SHL SUB DUP2 GT PUSH2 0x799 JUMPI PUSH2 0x1DB SWAP1 CALLDATASIZE SWAP1 PUSH1 0x4 ADD PUSH2 0x1CE6 JUMP JUMPDEST PUSH1 0x24 CALLDATALOAD SWAP2 PUSH1 0xFF DUP4 AND DUP1 SWAP4 SUB PUSH2 0x799 JUMPI PUSH1 0x44 CALLDATALOAD PUSH1 0x64 CALLDATALOAD PUSH1 0x1 PUSH1 0x1 PUSH1 0xA0 SHL SUB DUP2 AND SWAP1 DUP2 SWAP1 SUB PUSH2 0x799 JUMPI PUSH1 0x84 CALLDATALOAD PUSH1 0x1 PUSH1 0x1 PUSH1 0x40 SHL SUB DUP2 GT PUSH2 0x799 JUMPI PUSH2 0x221 SWAP1 CALLDATASIZE SWAP1 PUSH1 0x4 ADD PUSH2 0x1D16 JUMP JUMPDEST SWAP2 PUSH1 0xA4 CALLDATALOAD PUSH1 0x1 PUSH1 0x1 PUSH1 0x40 SHL SUB DUP2 GT PUSH2 0x799 JUMPI PUSH2 0x241 SWAP1 CALLDATASIZE SWAP1 PUSH1 0x4 ADD PUSH2 0x1D16 JUMP JUMPDEST SWAP1 SWAP8 SWAP1 SWAP5 SWAP1 PUSH32 0x0 PUSH1 0x1 PUSH1 0x1 PUSH1 0xA0 SHL SUB AND CALLER SUB PUSH2 0x787 JUMPI PUSH1 0xFF PUSH1 0x6 SLOAD AND PUSH2 0x776 JUMPI PUSH1 0x2 DUP9 LT DUP1 ISZERO PUSH2 0x76C JUMPI JUMPDEST PUSH2 0x75A JUMPI PUSH1 0x2 DUP2 EQ ISZERO DUP1 PUSH2 0x74F JUMPI JUMPDEST DUP1 PUSH2 0x744 JUMPI JUMPDEST DUP1 PUSH2 0x739 JUMPI JUMPDEST DUP1 PUSH2 0x72E JUMPI JUMPDEST PUSH2 0x71C JUMPI PUSH1 0x64 DUP3 GT PUSH2 0x70A JUMPI DUP3 ISZERO PUSH2 0x6F8 JUMPI PUSH1 0x0 JUMPDEST DUP9 DUP2 LT PUSH2 0x66B JUMPI POP DUP8 PUSH1 0x1 SSTORE PUSH1 0xFF NOT PUSH1 0x2 SLOAD AND OR PUSH1 0x2 SSTORE PUSH1 0x3 SSTORE PUSH12 0xFFFFFFFFFFFFFFFFFFFFFFFF PUSH1 0xA0 SHL PUSH1 0x4 SLOAD AND OR PUSH1 0x4 SSTORE PUSH1 0x1 PUSH1 0x1 PUSH1 0x40 SHL SUB DUP3 GT PUSH2 0x46D JUMPI DUP2 SWAP1 PUSH2 0x30E PUSH1 0x7 SLOAD PUSH2 0x1B14 JUMP JUMPDEST PUSH1 0x1F DUP2 GT PUSH2 0x5F7 JUMPI JUMPDEST POP PUSH1 0x0 SWAP1 PUSH1 0x1F DUP4 GT PUSH1 0x1 EQ PUSH2 0x582 JUMPI PUSH1 0x0 SWAP3 PUSH2 0x577 JUMPI JUMPDEST POP POP DUP2 PUSH1 0x1 SHL SWAP2 PUSH1 0x0 NOT SWAP1 PUSH1 0x3 SHL SHR NOT AND OR PUSH1 0x7 SSTORE JUMPDEST PUSH1 0x1 PUSH1 0x1 PUSH1 0x40 SHL SUB DUP2 GT PUSH2 0x46D JUMPI PUSH2 0x35D PUSH1 0x8 SLOAD PUSH2 0x1B14 JUMP JUMPDEST PUSH1 0x1F DUP2 GT PUSH2 0x512 JUMPI JUMPDEST POP PUSH1 0x0 PUSH1 0x1F DUP3 GT PUSH1 0x1 EQ PUSH2 0x48E JUMPI DUP2 SWAP3 SWAP4 SWAP5 PUSH1 0x0 SWAP3 PUSH2 0x483 JUMPI JUMPDEST POP POP DUP2 PUSH1 0x1 SHL SWAP2 PUSH1 0x0 NOT SWAP1 PUSH1 0x3 SHL SHR NOT AND OR PUSH1 0x8 SSTORE JUMPDEST PUSH1 0x0 JUMPDEST DUP3 DUP2 LT PUSH2 0x3AF JUMPI PUSH1 0x6 DUP1 SLOAD PUSH1 0xFF NOT AND PUSH1 0x1 OR SWAP1 SSTORE STOP JUMPDEST PUSH2 0x3C2 PUSH2 0x3BD DUP3 DUP6 DUP6 PUSH2 0x1D52 JUMP JUMPDEST PUSH2 0x1D62 JUMP JUMPDEST SWAP1 PUSH1 0x0 SLOAD SWAP2 PUSH9 0x10000000000000000 SWAP3 DUP4 DUP2 LT ISZERO PUSH2 0x46D JUMPI DUP1 PUSH1 0x1 PUSH2 0x3EA SWAP3 ADD PUSH1 0x0 SSTORE PUSH2 0x1C9C JUMP JUMPDEST DUP2 SLOAD PUSH1 0x1 PUSH1 0x1 PUSH1 0xA0 SHL SUB SWAP4 DUP5 AND PUSH1 0x3 SWAP3 SWAP1 SWAP3 SHL SWAP2 DUP3 SHL SWAP4 SWAP1 SWAP2 SHL NOT AND SWAP2 SWAP1 SWAP2 OR SWAP1 SSTORE PUSH1 0x5 DUP1 SLOAD DUP4 DUP2 LT ISZERO PUSH2 0x46D JUMPI PUSH2 0x427 SWAP2 PUSH1 0x1 DUP3 ADD SWAP1 SSTORE PUSH2 0x1C65 JUMP JUMPDEST SWAP1 DUP1 SLOAD PUSH1 0x0 NOT DUP1 SWAP4 PUSH1 0x3 SHL SHL NOT AND SWAP1 SSTORE PUSH1 0xD DUP1 SLOAD SWAP4 DUP5 LT ISZERO PUSH2 0x46D JUMPI DUP4 PUSH2 0x456 SWAP2 PUSH1 0x1 PUSH2 0x468 SWAP7 ADD SWAP1 SSTORE PUSH2 0x1C18 JUMP JUMPDEST SWAP1 SWAP2 DUP3 SLOAD SWAP2 PUSH1 0x3 SHL SHL NOT AND SWAP1 SSTORE PUSH2 0x1D43 JUMP JUMPDEST PUSH2 0x399 JUMP JUMPDEST PUSH4 0x4E487B71 PUSH1 0xE0 SHL PUSH1 0x0 MSTORE PUSH1 0x41 PUSH1 0x4 MSTORE PUSH1 0x24 PUSH1 0x0 REVERT JUMPDEST ADD CALLDATALOAD SWAP1 POP CODESIZE DUP1 PUSH2 0x380 JUMP JUMPDEST PUSH1 0x1F NOT DUP3 AND SWAP5 PUSH1 0x8 PUSH1 0x0 MSTORE PUSH32 0xF3F7A9FE364FAAB93B216DA50A3214154F22A0A2B415B23A84C8169E8B636EE3 SWAP2 PUSH1 0x0 JUMPDEST DUP8 DUP2 LT PUSH2 0x4FA JUMPI POP DUP4 PUSH1 0x1 SWAP6 SWAP7 SWAP8 LT PUSH2 0x4E0 JUMPI JUMPDEST POP POP POP DUP2 SHL ADD PUSH1 0x8 SSTORE PUSH2 0x396 JUMP JUMPDEST ADD CALLDATALOAD PUSH1 0x0 NOT PUSH1 0x3 DUP5 SWAP1 SHL PUSH1 0xF8 AND SHR NOT AND SWAP1 SSTORE CODESIZE DUP1 DUP1 PUSH2 0x4D2 JUMP JUMPDEST SWAP1 SWAP3 PUSH1 0x20 PUSH1 0x1 DUP2 SWAP3 DUP7 DUP7 ADD CALLDATALOAD DUP2 SSTORE ADD SWAP5 ADD SWAP2 ADD PUSH2 0x4BE JUMP JUMPDEST PUSH1 0x8 PUSH1 0x0 MSTORE PUSH32 0xF3F7A9FE364FAAB93B216DA50A3214154F22A0A2B415B23A84C8169E8B636EE3 PUSH1 0x1F DUP4 ADD PUSH1 0x5 SHR DUP2 ADD SWAP2 PUSH1 0x20 DUP5 LT PUSH2 0x56D JUMPI JUMPDEST PUSH1 0x1F ADD PUSH1 0x5 SHR ADD SWAP1 JUMPDEST DUP2 DUP2 LT PUSH2 0x561 JUMPI POP PUSH2 0x366 JUMP JUMPDEST PUSH1 0x0 DUP2 SSTORE PUSH1 0x1 ADD PUSH2 0x554 JUMP JUMPDEST SWAP1 SWAP2 POP DUP2 SWAP1 PUSH2 0x54B JUMP JUMPDEST ADD CALLDATALOAD SWAP1 POP CODESIZE DUP1 PUSH2 0x32E JUMP JUMPDEST PUSH1 0x7 PUSH1 0x0 SWAP1 DUP2 MSTORE SWAP4 POP PUSH1 0x0 DUP1 MLOAD PUSH1 0x20 PUSH2 0x2538 DUP4 CODECOPY DUP2 MLOAD SWAP2 MSTORE SWAP2 JUMPDEST PUSH1 0x1F NOT DUP5 AND DUP6 LT PUSH2 0x5DF JUMPI PUSH1 0x1 SWAP5 POP DUP4 PUSH1 0x1F NOT DUP2 AND LT PUSH2 0x5C5 JUMPI JUMPDEST POP POP POP DUP2 SHL ADD PUSH1 0x7 SSTORE PUSH2 0x344 JUMP JUMPDEST ADD CALLDATALOAD PUSH1 0x0 NOT PUSH1 0x3 DUP5 SWAP1 SHL PUSH1 0xF8 AND SHR NOT AND SWAP1 SSTORE CODESIZE DUP1 DUP1 PUSH2 0x5B7 JUMP JUMPDEST DUP2 DUP2 ADD CALLDATALOAD DUP4 SSTORE PUSH1 0x20 SWAP5 DUP6 ADD SWAP5 PUSH1 0x1 SWAP1 SWAP4 ADD SWAP3 ADD PUSH2 0x59C JUMP JUMPDEST SWAP1 SWAP2 POP PUSH1 0x7 PUSH1 0x0 MSTORE PUSH1 0x1F DUP4 ADD PUSH1 0x5 SHR PUSH1 0x0 DUP1 MLOAD PUSH1 0x20 PUSH2 0x2538 DUP4 CODECOPY DUP2 MLOAD SWAP2 MSTORE ADD PUSH1 0x20 DUP5 LT PUSH2 0x656 JUMPI JUMPDEST SWAP1 DUP4 SWAP3 SWAP2 JUMPDEST PUSH1 0x1F DUP3 ADD PUSH1 0x5 SHR PUSH1 0x0 DUP1 MLOAD PUSH1 0x20 PUSH2 0x2538 DUP4 CODECOPY DUP2 MLOAD SWAP2 MSTORE ADD DUP2 LT PUSH2 0x647 JUMPI POP PUSH2 0x317 JUMP JUMPDEST PUSH1 0x0 DUP2 SSTORE DUP5 SWAP4 POP PUSH1 0x1 ADD PUSH2 0x624 JUMP JUMPDEST POP PUSH1 0x0 DUP1 MLOAD PUSH1 0x20 PUSH2 0x2538 DUP4 CODECOPY DUP2 MLOAD SWAP2 MSTORE PUSH2 0x61F JUMP JUMPDEST PUSH1 0x1 PUSH1 0x1 PUSH1 0xA0 SHL SUB PUSH2 0x681 PUSH2 0x3BD DUP4 DUP13 DUP13 PUSH2 0x1D52 JUMP JUMPDEST AND ISZERO PUSH2 0x6F8 JUMPI PUSH1 0x0 JUMPDEST DUP2 DUP2 LT PUSH2 0x6A0 JUMPI POP PUSH2 0x69B SWAP1 PUSH2 0x1D43 JUMP JUMPDEST PUSH2 0x2C1 JUMP JUMPDEST DUP10 DUP10 PUSH2 0x6C6 PUSH2 0x3BD DUP5 PUSH2 0x6B7 PUSH2 0x3BD DUP9 DUP8 DUP8 PUSH2 0x1D52 JUMP JUMPDEST SWAP5 PUSH1 0x1 PUSH1 0x1 PUSH1 0xA0 SHL SUB SWAP5 PUSH2 0x1D52 JUMP JUMPDEST PUSH1 0x1 PUSH1 0x1 PUSH1 0xA0 SHL SUB SWAP1 SWAP3 AND SWAP2 AND EQ PUSH2 0x6E6 JUMPI PUSH2 0x6E1 SWAP1 PUSH2 0x1D43 JUMP JUMPDEST PUSH2 0x68A JUMP JUMPDEST PUSH1 0x40 MLOAD PUSH4 0x23271FB5 PUSH1 0xE1 SHL DUP2 MSTORE PUSH1 0x4 SWAP1 REVERT JUMPDEST PUSH1 0x40 MLOAD PUSH4 0xD92E233D PUSH1 0xE0 SHL DUP2 MSTORE PUSH1 0x4 SWAP1 REVERT JUMPDEST PUSH1 0x40 MLOAD PUSH4 0x58D620B3 PUSH1 0xE0 SHL DUP2 MSTORE PUSH1 0x4 SWAP1 REVERT JUMPDEST PUSH1 0x40 MLOAD PUSH4 0x1676992B PUSH1 0xE1 SHL DUP2 MSTORE PUSH1 0x4 SWAP1 REVERT JUMPDEST POP PUSH1 0x20 DUP2 EQ ISZERO PUSH2 0x2AC JUMP JUMPDEST POP PUSH1 0x10 DUP2 EQ ISZERO PUSH2 0x2A6 JUMP JUMPDEST POP PUSH1 0x8 DUP2 EQ ISZERO PUSH2 0x2A0 JUMP JUMPDEST POP PUSH1 0x4 DUP2 EQ ISZERO PUSH2 0x29A JUMP JUMPDEST PUSH1 0x40 MLOAD PUSH4 0xE778681D PUSH1 0xE0 SHL DUP2 MSTORE PUSH1 0x4 SWAP1 REVERT JUMPDEST POP PUSH1 0x8 DUP9 GT PUSH2 0x28B JUMP JUMPDEST PUSH1 0x40 MLOAD PUSH3 0xDC149F PUSH1 0xE4 SHL DUP2 MSTORE PUSH1 0x4 SWAP1 REVERT JUMPDEST PUSH1 0x40 MLOAD PUSH4 0x1966391B PUSH1 0xE1 SHL DUP2 MSTORE PUSH1 0x4 SWAP1 REVERT JUMPDEST PUSH1 0x0 DUP1 REVERT JUMPDEST CALLVALUE PUSH2 0x799 JUMPI PUSH1 0x0 CALLDATASIZE PUSH1 0x3 NOT ADD SLT PUSH2 0x799 JUMPI PUSH1 0x20 PUSH1 0x40 MLOAD PUSH1 0x8 DUP2 MSTORE RETURN JUMPDEST CALLVALUE PUSH2 0x799 JUMPI PUSH1 0x40 CALLDATASIZE PUSH1 0x3 NOT ADD SLT PUSH2 0x799 JUMPI PUSH2 0x7D3 PUSH2 0x1BEC JUMP JUMPDEST PUSH2 0x7DB PUSH2 0x1C02 JUMP JUMPDEST SWAP1 PUSH1 0x1 DUP1 PUSH1 0xA0 SHL SUB DUP1 SWAP2 AND PUSH1 0x0 MSTORE PUSH1 0xB PUSH1 0x20 MSTORE PUSH1 0x40 PUSH1 0x0 KECCAK256 SWAP2 AND PUSH1 0x0 MSTORE PUSH1 0x20 MSTORE PUSH1 0x20 PUSH1 0x40 PUSH1 0x0 KECCAK256 SLOAD PUSH1 0x40 MLOAD SWAP1 DUP2 MSTORE RETURN JUMPDEST CALLVALUE PUSH2 0x799 JUMPI PUSH1 0x0 CALLDATASIZE PUSH1 0x3 NOT ADD SLT PUSH2 0x799 JUMPI PUSH1 0x20 PUSH1 0x40 MLOAD PUSH2 0x2710 DUP2 MSTORE RETURN JUMPDEST CALLVALUE PUSH2 0x799 JUMPI PUSH1 0x0 CALLDATASIZE PUSH1 0x3 NOT ADD SLT PUSH2 0x799 JUMPI PUSH1 0x20 PUSH1 0x40 MLOAD PUSH1 0x64 DUP2 MSTORE RETURN JUMPDEST CALLVALUE PUSH2 0x799 JUMPI PUSH1 0x0 CALLDATASIZE PUSH1 0x3 NOT ADD SLT PUSH2 0x799 JUMPI PUSH1 0x2 PUSH1 0xC SLOAD EQ PUSH2 0x94B JUMPI PUSH1 0x2 PUSH1 0xC SSTORE PUSH1 0x4 SLOAD PUSH1 0x1 PUSH1 0x1 PUSH1 0xA0 SHL SUB SWAP1 DUP2 AND CALLER SUB PUSH2 0x787 JUMPI PUSH1 0x1 SLOAD SWAP1 PUSH2 0x885 DUP3 PUSH2 0x2144 JUMP JUMPDEST SWAP2 PUSH1 0x0 JUMPDEST DUP2 DUP2 LT PUSH2 0x8D9 JUMPI DUP4 PUSH32 0x9BC3ED6AED6A780294C85FAEAFE7C4BC19617C745BDF61B8D1FC8159C3D1AAB1 PUSH2 0x8CF DUP6 PUSH1 0x4 SLOAD AND SWAP3 PUSH1 0x40 MLOAD SWAP2 DUP3 SWAP2 PUSH1 0x20 DUP4 MSTORE PUSH1 0x20 DUP4 ADD SWAP1 PUSH2 0x1BB8 JUMP JUMPDEST SUB SWAP1 LOG2 PUSH1 0x1 PUSH1 0xC SSTORE STOP JUMPDEST DUP1 PUSH2 0x8E6 PUSH2 0x8FD SWAP3 PUSH2 0x1C18 JUMP JUMPDEST SWAP1 SLOAD PUSH1 0x3 SWAP2 DUP3 SHL SHR DUP6 DUP2 PUSH2 0x902 JUMPI JUMPDEST POP POP POP PUSH2 0x1D43 JUMP JUMPDEST PUSH2 0x889 JUMP JUMPDEST PUSH2 0x943 SWAP3 PUSH2 0x90F DUP6 PUSH2 0x1C18 JUMP JUMPDEST DUP2 SLOAD SWAP1 PUSH1 0x0 NOT SWAP1 DUP5 SHL SHL NOT AND SWAP1 SSTORE DUP3 PUSH2 0x928 DUP7 DUP12 PUSH2 0x1E32 JUMP JUMPDEST MSTORE PUSH2 0x932 DUP6 PUSH2 0x1C9C JUMP JUMPDEST SWAP1 SLOAD SWAP2 SHL SHR AND DUP7 PUSH1 0x4 SLOAD AND SWAP1 PUSH2 0x24DB JUMP JUMPDEST DUP6 DUP1 DUP6 PUSH2 0x8F5 JUMP JUMPDEST PUSH1 0x40 MLOAD PUSH4 0x6FDA65D PUSH1 0xE3 SHL DUP2 MSTORE PUSH1 0x4 SWAP1 REVERT JUMPDEST CALLVALUE PUSH2 0x799 JUMPI PUSH1 0xA0 CALLDATASIZE PUSH1 0x3 NOT ADD SLT PUSH2 0x799 JUMPI PUSH1 0x2 PUSH1 0xC SLOAD EQ PUSH2 0x94B JUMPI PUSH1 0x2 PUSH1 0xC SSTORE PUSH1 0xFF PUSH1 0x6 SLOAD AND ISZERO PUSH2 0xC77 JUMPI PUSH1 0x84 CALLDATALOAD TIMESTAMP GT PUSH2 0xC65 JUMPI PUSH1 0x1 SLOAD DUP1 PUSH1 0x4 CALLDATALOAD LT ISZERO PUSH2 0xC53 JUMPI DUP1 PUSH1 0x24 CALLDATALOAD LT ISZERO PUSH2 0xC53 JUMPI PUSH1 0x24 CALLDATALOAD PUSH1 0x4 CALLDATALOAD EQ PUSH2 0xC41 JUMPI PUSH1 0x44 CALLDATALOAD ISZERO PUSH2 0xC2F JUMPI PUSH2 0x2710 PUSH2 0x9CC PUSH1 0x3 SLOAD PUSH1 0x44 CALLDATALOAD PUSH2 0x1D76 JUMP JUMPDEST DIV PUSH2 0x9D9 DUP2 PUSH1 0x44 CALLDATALOAD PUSH2 0x1DA9 JUMP JUMPDEST SWAP2 PUSH1 0x40 MLOAD DUP2 DUP2 PUSH1 0x20 PUSH1 0x5 SLOAD SWAP2 DUP3 DUP2 MSTORE ADD SWAP1 PUSH1 0x5 PUSH1 0x0 MSTORE PUSH32 0x36B6384B5ECA791C62761152D0C79BB0604C104A5FB6F4EB0703F3154BB3DB0 SWAP1 PUSH1 0x0 JUMPDEST DUP2 DUP2 LT PUSH2 0xC16 JUMPI POP POP POP SWAP2 PUSH2 0xA2E DUP2 PUSH2 0xA33 SWAP5 SUB DUP3 PUSH2 0x1B4E JUMP JUMPDEST PUSH2 0x2176 JUMP JUMPDEST SWAP1 PUSH2 0xA3E DUP6 DUP5 PUSH2 0x1D76 JUMP JUMPDEST SWAP2 PUSH8 0xDE0B6B3A7640000 SWAP3 DUP4 DUP2 MUL SWAP1 DUP1 DUP3 DIV DUP6 EQ SWAP1 ISZERO OR ISZERO PUSH2 0xC00 JUMPI PUSH2 0xA84 SWAP3 PUSH2 0xA6B DUP4 PUSH2 0xA7F SWAP4 PUSH2 0x1D89 JUMP JUMPDEST PUSH1 0xFF PUSH1 0x2 SLOAD AND SWAP2 PUSH1 0x24 CALLDATALOAD SWAP1 PUSH1 0x4 CALLDATALOAD SWAP1 PUSH2 0x1E46 JUMP JUMPDEST PUSH2 0x1D76 JUMP JUMPDEST SWAP2 DUP2 DUP2 MUL SWAP2 DUP2 DUP4 DIV EQ SWAP1 ISZERO OR ISZERO PUSH2 0xC00 JUMPI PUSH2 0xA9E SWAP2 PUSH2 0x1D89 JUMP JUMPDEST SWAP1 PUSH1 0x64 CALLDATALOAD DUP3 LT PUSH2 0xBEE JUMPI PUSH2 0xAB3 PUSH1 0x24 CALLDATALOAD PUSH2 0x1C65 JUMP JUMPDEST SWAP1 SLOAD SWAP1 PUSH1 0x3 SHL SHR DUP3 GT PUSH2 0xBDC JUMPI PUSH2 0xB86 DUP3 PUSH2 0xAFA PUSH2 0xB2E PUSH1 0x20 SWAP7 PUSH2 0xAD8 PUSH1 0x4 CALLDATALOAD PUSH2 0x1C9C JUMP JUMPDEST SWAP1 SLOAD PUSH1 0x1 PUSH1 0x1 PUSH1 0xA0 SHL SUB SWAP5 SWAP2 PUSH1 0x44 CALLDATALOAD SWAP2 ADDRESS SWAP2 CALLER SWAP2 PUSH1 0x3 SWAP2 SWAP1 SWAP2 SHL SHR DUP8 AND PUSH2 0x2423 JUMP JUMPDEST PUSH2 0xB17 PUSH2 0xB08 PUSH1 0x4 CALLDATALOAD PUSH2 0x1C65 JUMP JUMPDEST SWAP2 SWAP1 SWAP3 DUP4 SLOAD DUP4 PUSH1 0x3 SHL SHR PUSH2 0x1E25 JUMP JUMPDEST DUP3 SLOAD PUSH1 0x0 NOT PUSH1 0x3 SWAP4 SWAP1 SWAP4 SHL SWAP3 DUP4 SHL NOT AND SWAP2 SHL OR SWAP1 SSTORE JUMP JUMPDEST PUSH2 0xB4C PUSH2 0xB3C PUSH1 0x24 CALLDATALOAD PUSH2 0x1C65 JUMP JUMPDEST PUSH2 0xB17 DUP6 DUP4 SLOAD DUP4 PUSH1 0x3 SHL SHR PUSH2 0x1DA9 JUMP JUMPDEST PUSH2 0xB6A PUSH2 0xB5A PUSH1 0x4 CALLDATALOAD PUSH2 0x1C18 JUMP JUMPDEST PUSH2 0xB17 DUP8 DUP4 SLOAD DUP4 PUSH1 0x3 SHL SHR PUSH2 0x1E25 JUMP JUMPDEST PUSH2 0xB75 PUSH1 0x24 CALLDATALOAD PUSH2 0x1C9C JUMP JUMPDEST SWAP2 SWAP1 SWAP2 CALLER SWAP3 SLOAD SWAP1 PUSH1 0x3 SHL SHR AND PUSH2 0x24DB JUMP JUMPDEST PUSH1 0x40 MLOAD SWAP1 PUSH1 0x4 CALLDATALOAD DUP3 MSTORE PUSH1 0x24 CALLDATALOAD DUP5 DUP4 ADD MSTORE PUSH1 0x44 CALLDATALOAD PUSH1 0x40 DUP4 ADD MSTORE DUP3 PUSH1 0x60 DUP4 ADD MSTORE PUSH1 0x80 DUP3 ADD MSTORE PUSH32 0x6D2535BCCEE43630E01014525DE773080B47E1A82C56EF6A30802933A48C9E34 PUSH1 0xA0 CALLER SWAP3 LOG2 PUSH1 0x1 PUSH1 0xC SSTORE PUSH1 0x40 MLOAD SWAP1 DUP2 MSTORE RETURN JUMPDEST PUSH1 0x40 MLOAD PUSH4 0xBB55FD27 PUSH1 0xE0 SHL DUP2 MSTORE PUSH1 0x4 SWAP1 REVERT JUMPDEST PUSH1 0x40 MLOAD PUSH4 0x8199F5F3 PUSH1 0xE0 SHL DUP2 MSTORE PUSH1 0x4 SWAP1 REVERT JUMPDEST PUSH4 0x4E487B71 PUSH1 0xE0 SHL PUSH1 0x0 MSTORE PUSH1 0x11 PUSH1 0x4 MSTORE PUSH1 0x24 PUSH1 0x0 REVERT JUMPDEST DUP3 SLOAD DUP5 MSTORE DUP7 SWAP5 POP PUSH1 0x20 SWAP1 SWAP4 ADD SWAP3 PUSH1 0x1 SWAP3 DUP4 ADD SWAP3 ADD PUSH2 0xA14 JUMP JUMPDEST PUSH1 0x40 MLOAD PUSH4 0x1F2A2005 PUSH1 0xE0 SHL DUP2 MSTORE PUSH1 0x4 SWAP1 REVERT JUMPDEST PUSH1 0x40 MLOAD PUSH4 0x100DAC05 PUSH1 0xE1 SHL DUP2 MSTORE PUSH1 0x4 SWAP1 REVERT JUMPDEST PUSH1 0x40 MLOAD PUSH4 0x609F982F PUSH1 0xE0 SHL DUP2 MSTORE PUSH1 0x4 SWAP1 REVERT JUMPDEST PUSH1 0x40 MLOAD PUSH4 0x1AB7DA6B PUSH1 0xE0 SHL DUP2 MSTORE PUSH1 0x4 SWAP1 REVERT JUMPDEST PUSH1 0x40 MLOAD PUSH4 0x21C4E357 PUSH1 0xE2 SHL DUP2 MSTORE PUSH1 0x4 SWAP1 REVERT JUMPDEST CALLVALUE PUSH2 0x799 JUMPI PUSH1 0x0 CALLDATASIZE PUSH1 0x3 NOT ADD SLT PUSH2 0x799 JUMPI PUSH1 0x40 MLOAD PUSH32 0x0 PUSH1 0x1 PUSH1 0x1 PUSH1 0xA0 SHL SUB AND DUP2 MSTORE PUSH1 0x20 SWAP1 RETURN JUMPDEST CALLVALUE PUSH2 0x799 JUMPI PUSH1 0x0 CALLDATASIZE PUSH1 0x3 NOT ADD SLT PUSH2 0x799 JUMPI PUSH1 0x4 SLOAD PUSH1 0x40 MLOAD PUSH1 0x1 PUSH1 0x1 PUSH1 0xA0 SHL SUB SWAP1 SWAP2 AND DUP2 MSTORE PUSH1 0x20 SWAP1 RETURN JUMPDEST CALLVALUE PUSH2 0x799 JUMPI PUSH1 0x0 CALLDATASIZE PUSH1 0x3 NOT ADD SLT PUSH2 0x799 JUMPI PUSH1 0x20 PUSH2 0xD12 PUSH2 0x2281 JUMP JUMPDEST PUSH1 0x40 MLOAD SWAP1 DUP2 MSTORE RETURN JUMPDEST CALLVALUE PUSH2 0x799 JUMPI PUSH1 0x0 CALLDATASIZE PUSH1 0x3 NOT ADD SLT PUSH2 0x799 JUMPI PUSH1 0x20 PUSH1 0x40 MLOAD PUSH2 0x3E8 DUP2 MSTORE RETURN JUMPDEST CALLVALUE PUSH2 0x799 JUMPI PUSH1 0x0 CALLDATASIZE PUSH1 0x3 NOT ADD SLT PUSH2 0x799 JUMPI PUSH1 0x40 MLOAD DUP1 PUSH1 0x0 SLOAD DUP1 DUP4 MSTORE PUSH1 0x20 DUP1 SWAP4 ADD DUP1 SWAP2 PUSH1 0x0 DUP1 MSTORE PUSH32 0x290DECD9548B62A8D60345A988386FC84BA6BC95484008F6362F93160EF3E563 SWAP1 PUSH1 0x0 JUMPDEST DUP7 DUP3 DUP3 LT PUSH2 0xDE1 JUMPI DUP7 DUP7 PUSH2 0xD98 DUP3 DUP9 SUB DUP4 PUSH2 0x1B4E JUMP JUMPDEST PUSH1 0x40 MLOAD SWAP3 DUP4 SWAP3 DUP2 DUP5 ADD SWAP1 DUP3 DUP6 MSTORE MLOAD DUP1 SWAP2 MSTORE PUSH1 0x40 DUP5 ADD SWAP3 SWAP2 PUSH1 0x0 JUMPDEST DUP3 DUP2 LT PUSH2 0xDC1 JUMPI POP POP POP POP SUB SWAP1 RETURN JUMPDEST DUP4 MLOAD PUSH1 0x1 PUSH1 0x1 PUSH1 0xA0 SHL SUB AND DUP6 MSTORE DUP7 SWAP6 POP SWAP4 DUP2 ADD SWAP4 SWAP3 DUP2 ADD SWAP3 PUSH1 0x1 ADD PUSH2 0xDB2 JUMP JUMPDEST DUP4 SLOAD PUSH1 0x1 PUSH1 0x1 PUSH1 0xA0 SHL SUB AND DUP6 MSTORE SWAP1 SWAP4 ADD SWAP3 PUSH1 0x1 SWAP3 DUP4 ADD SWAP3 ADD PUSH2 0xD82 JUMP JUMPDEST CALLVALUE PUSH2 0x799 JUMPI PUSH1 0x40 CALLDATASIZE PUSH1 0x3 NOT ADD SLT PUSH2 0x799 JUMPI PUSH2 0xE17 PUSH2 0x1BEC JUMP JUMPDEST PUSH1 0x1 PUSH1 0x1 PUSH1 0xA0 SHL SUB AND PUSH1 0x24 CALLDATALOAD DUP2 ISZERO PUSH2 0x6F8 JUMPI CALLER PUSH1 0x0 MSTORE PUSH1 0xA PUSH1 0x20 MSTORE DUP1 PUSH1 0x40 PUSH1 0x0 KECCAK256 SLOAD LT PUSH2 0xE8D JUMPI CALLER PUSH1 0x0 MSTORE PUSH1 0xA PUSH1 0x20 MSTORE PUSH1 0x40 PUSH1 0x0 KECCAK256 DUP2 DUP2 SLOAD SUB SWAP1 SSTORE DUP2 PUSH1 0x0 MSTORE PUSH1 0x40 PUSH1 0x0 KECCAK256 PUSH2 0xE66 DUP3 DUP3 SLOAD PUSH2 0x1E25 JUMP JUMPDEST SWAP1 SSTORE PUSH1 0x40 MLOAD SWAP1 DUP2 MSTORE PUSH1 0x0 DUP1 MLOAD PUSH1 0x20 PUSH2 0x2558 DUP4 CODECOPY DUP2 MLOAD SWAP2 MSTORE PUSH1 0x20 CALLER SWAP3 LOG3 PUSH1 0x20 PUSH1 0x40 MLOAD PUSH1 0x1 DUP2 MSTORE RETURN JUMPDEST PUSH1 0x40 MLOAD PUSH4 0x1E9ACF17 PUSH1 0xE3 SHL DUP2 MSTORE PUSH1 0x4 SWAP1 REVERT JUMPDEST CALLVALUE PUSH2 0x799 JUMPI PUSH1 0x0 CALLDATASIZE PUSH1 0x3 NOT ADD SLT PUSH2 0x799 JUMPI PUSH1 0x40 MLOAD PUSH1 0x0 PUSH1 0x8 SLOAD PUSH2 0xEC1 DUP2 PUSH2 0x1B14 JUMP JUMPDEST DUP1 DUP5 MSTORE SWAP1 PUSH1 0x1 SWAP1 DUP2 DUP2 AND SWAP1 DUP2 ISZERO PUSH2 0xF56 JUMPI POP PUSH1 0x1 EQ PUSH2 0xEFB JUMPI JUMPDEST PUSH2 0xEF7 DUP5 PUSH2 0xEEB DUP2 DUP7 SUB DUP3 PUSH2 0x1B4E JUMP JUMPDEST PUSH1 0x40 MLOAD SWAP2 DUP3 SWAP2 DUP3 PUSH2 0x1B6F JUMP JUMPDEST SUB SWAP1 RETURN JUMPDEST PUSH1 0x8 PUSH1 0x0 SWAP1 DUP2 MSTORE SWAP3 POP PUSH32 0xF3F7A9FE364FAAB93B216DA50A3214154F22A0A2B415B23A84C8169E8B636EE3 JUMPDEST DUP3 DUP5 LT PUSH2 0xF3E JUMPI POP POP POP DUP2 ADD PUSH1 0x20 ADD PUSH2 0xEEB DUP3 PUSH2 0xEDB JUMP JUMPDEST DUP1 SLOAD PUSH1 0x20 DUP6 DUP8 ADD DUP2 ADD SWAP2 SWAP1 SWAP2 MSTORE SWAP1 SWAP4 ADD SWAP3 DUP2 ADD PUSH2 0xF26 JUMP JUMPDEST PUSH1 0xFF NOT AND PUSH1 0x20 DUP1 DUP8 ADD SWAP2 SWAP1 SWAP2 MSTORE SWAP3 ISZERO ISZERO PUSH1 0x5 SHL DUP6 ADD SWAP1 SWAP3 ADD SWAP3 POP PUSH2 0xEEB SWAP2 POP DUP4 SWAP1 POP PUSH2 0xEDB JUMP JUMPDEST CALLVALUE PUSH2 0x799 JUMPI PUSH1 0x0 CALLDATASIZE PUSH1 0x3 NOT ADD SLT PUSH2 0x799 JUMPI PUSH1 0x20 PUSH1 0x1 SLOAD PUSH1 0x40 MLOAD SWAP1 DUP2 MSTORE RETURN JUMPDEST CALLVALUE PUSH2 0x799 JUMPI PUSH1 0x0 CALLDATASIZE PUSH1 0x3 NOT ADD SLT PUSH2 0x799 JUMPI PUSH1 0x20 PUSH1 0x40 MLOAD PUSH1 0x12 DUP2 MSTORE RETURN JUMPDEST CALLVALUE PUSH2 0x799 JUMPI PUSH1 0x20 CALLDATASIZE PUSH1 0x3 NOT ADD SLT PUSH2 0x799 JUMPI PUSH1 0x4 CALLDATALOAD PUSH1 0x5 SLOAD DUP2 LT ISZERO PUSH2 0x799 JUMPI PUSH2 0xFE0 PUSH1 0x20 SWAP2 PUSH2 0x1C65 JUMP JUMPDEST SWAP1 SLOAD PUSH1 0x40 MLOAD SWAP2 PUSH1 0x3 SHL SHR DUP2 MSTORE RETURN JUMPDEST CALLVALUE PUSH2 0x799 JUMPI PUSH1 0x20 CALLDATASIZE PUSH1 0x3 NOT ADD SLT PUSH2 0x799 JUMPI PUSH1 0x1 PUSH1 0x1 PUSH1 0xA0 SHL SUB PUSH2 0x100F PUSH2 0x1BEC JUMP JUMPDEST AND PUSH1 0x0 MSTORE PUSH1 0xA PUSH1 0x20 MSTORE PUSH1 0x20 PUSH1 0x40 PUSH1 0x0 KECCAK256 SLOAD PUSH1 0x40 MLOAD SWAP1 DUP2 MSTORE RETURN JUMPDEST CALLVALUE PUSH2 0x799 JUMPI PUSH1 0x0 CALLDATASIZE PUSH1 0x3 NOT ADD SLT PUSH2 0x799 JUMPI PUSH1 0x20 PUSH1 0x40 MLOAD PUSH8 0xDE0B6B3A7640000 DUP2 MSTORE RETURN JUMPDEST CALLVALUE PUSH2 0x799 JUMPI PUSH1 0x20 CALLDATASIZE PUSH1 0x3 NOT ADD SLT PUSH2 0x799 JUMPI PUSH1 0x20 PUSH2 0xD12 PUSH2 0x1069 PUSH2 0x1BEC JUMP JUMPDEST PUSH2 0x2235 JUMP JUMPDEST CALLVALUE PUSH2 0x799 JUMPI PUSH1 0x0 CALLDATASIZE PUSH1 0x3 NOT ADD SLT PUSH2 0x799 JUMPI PUSH1 0x40 MLOAD DUP1 PUSH1 0xD SLOAD DUP1 DUP3 MSTORE DUP3 PUSH1 0x20 DUP1 SWAP4 ADD PUSH1 0xD PUSH1 0x0 MSTORE PUSH32 0xD7B6990105719101DABEB77144F2A3385C8033ACD3AF97E9423A695E81AD1EB5 SWAP3 PUSH1 0x0 JUMPDEST DUP6 DUP3 DUP3 LT PUSH2 0x10E4 JUMPI POP POP POP PUSH2 0x10D0 SWAP3 POP SUB DUP4 PUSH2 0x1B4E JUMP JUMPDEST PUSH2 0xEF7 PUSH1 0x40 MLOAD SWAP3 DUP3 DUP5 SWAP4 DUP5 MSTORE DUP4 ADD SWAP1 PUSH2 0x1BB8 JUMP JUMPDEST DUP6 SLOAD DUP5 MSTORE PUSH1 0x1 SWAP6 DUP7 ADD SWAP6 DUP9 SWAP6 POP SWAP4 ADD SWAP3 ADD PUSH2 0x10B9 JUMP JUMPDEST CALLVALUE PUSH2 0x799 JUMPI PUSH1 0x20 CALLDATASIZE PUSH1 0x3 NOT ADD SLT PUSH2 0x799 JUMPI PUSH1 0x4 CALLDATALOAD PUSH1 0x0 SLOAD DUP2 LT ISZERO PUSH2 0x799 JUMPI PUSH2 0x1123 PUSH1 0x20 SWAP2 PUSH2 0x1C9C JUMP JUMPDEST SWAP1 SLOAD PUSH1 0x40 MLOAD PUSH1 0x3 SWAP3 SWAP1 SWAP3 SHL SHR PUSH1 0x1 PUSH1 0x1 PUSH1 0xA0 SHL SUB AND DUP2 MSTORE RETURN JUMPDEST CALLVALUE PUSH2 0x799 JUMPI PUSH1 0x60 CALLDATASIZE PUSH1 0x3 NOT ADD SLT PUSH2 0x799 JUMPI PUSH1 0x4 CALLDATALOAD PUSH1 0x1 PUSH1 0x1 PUSH1 0x40 SHL SUB DUP2 GT PUSH2 0x799 JUMPI PUSH2 0x116C SWAP1 CALLDATASIZE SWAP1 PUSH1 0x4 ADD PUSH2 0x1CE6 JUMP JUMPDEST PUSH1 0x2 PUSH1 0xC SLOAD EQ PUSH2 0x94B JUMPI PUSH1 0x2 PUSH1 0xC SSTORE PUSH1 0xFF PUSH1 0x6 SLOAD AND ISZERO PUSH2 0xC77 JUMPI PUSH1 0x44 CALLDATALOAD TIMESTAMP GT PUSH2 0xC65 JUMPI PUSH1 0x1 SLOAD SWAP2 DUP3 DUP3 SUB PUSH2 0x75A JUMPI PUSH1 0x0 JUMPDEST DUP4 DUP2 LT PUSH2 0x14A1 JUMPI POP PUSH1 0x9 SWAP2 DUP3 SLOAD ISZERO PUSH1 0x0 EQ PUSH2 0x1394 JUMPI PUSH1 0x0 JUMPDEST DUP5 DUP2 LT PUSH2 0x1320 JUMPI POP PUSH2 0x11E2 PUSH2 0x11CC DUP6 PUSH2 0xA2E PUSH2 0x1DB6 JUMP JUMPDEST POP PUSH2 0x11DD PUSH1 0xFF PUSH1 0x2 SLOAD AND DUP1 SWAP3 PUSH2 0x20F0 JUMP JUMPDEST PUSH2 0x1FE8 JUMP JUMPDEST SWAP3 PUSH2 0x3E8 SWAP4 DUP5 DUP2 GT ISZERO PUSH2 0xBDC JUMPI PUSH2 0x3E7 NOT DUP2 ADD SWAP1 DUP2 GT PUSH2 0xC00 JUMPI SWAP4 DUP2 SLOAD DUP2 DUP2 ADD DUP1 SWAP2 GT PUSH2 0xC00 JUMPI DUP3 SSTORE PUSH1 0x0 DUP1 MSTORE PUSH1 0xA PUSH1 0x20 MSTORE PUSH1 0x40 PUSH1 0x0 KECCAK256 SWAP1 DUP2 SLOAD DUP2 DUP2 ADD DUP1 SWAP2 GT PUSH2 0xC00 JUMPI PUSH1 0x20 PUSH1 0x0 SWAP4 SWAP3 PUSH1 0x0 DUP1 MLOAD PUSH1 0x20 PUSH2 0x2558 DUP4 CODECOPY DUP2 MLOAD SWAP2 MSTORE SWAP3 DUP6 SWAP5 SSTORE PUSH1 0x40 MLOAD SWAP1 DUP2 MSTORE LOG3 JUMPDEST PUSH1 0x24 CALLDATALOAD DUP5 LT PUSH2 0xBDC JUMPI PUSH2 0x125B DUP5 DUP3 SLOAD PUSH2 0x1E25 JUMP JUMPDEST SWAP1 SSTORE CALLER PUSH1 0x0 MSTORE PUSH1 0xA PUSH1 0x20 MSTORE PUSH1 0x40 PUSH1 0x0 KECCAK256 PUSH2 0x1276 DUP5 DUP3 SLOAD PUSH2 0x1E25 JUMP JUMPDEST SWAP1 SSTORE PUSH1 0x40 MLOAD DUP4 DUP2 MSTORE PUSH1 0x0 PUSH1 0x0 DUP1 MLOAD PUSH1 0x20 PUSH2 0x2558 DUP4 CODECOPY DUP2 MLOAD SWAP2 MSTORE PUSH1 0x20 CALLER SWAP4 LOG3 PUSH2 0x129D DUP5 PUSH2 0x2144 JUMP JUMPDEST SWAP2 PUSH1 0x0 JUMPDEST DUP6 DUP2 LT PUSH2 0x12FB JUMPI PUSH1 0x20 DUP6 DUP6 PUSH32 0xB60E972CE1258A7280A8E34204B1DF88FCABBE8AEA805E46BC1566CDC6E6E148 PUSH2 0x12E2 PUSH1 0x40 MLOAD SWAP3 PUSH1 0x40 DUP5 MSTORE PUSH1 0x40 DUP5 ADD SWAP1 PUSH2 0x1BB8 JUMP JUMPDEST SWAP2 DUP4 DUP6 DUP3 ADD MSTORE DUP1 CALLER SWAP4 SUB SWAP1 LOG2 PUSH1 0x1 PUSH1 0xC SSTORE PUSH1 0x40 MLOAD SWAP1 DUP2 MSTORE RETURN JUMPDEST DUP1 PUSH2 0x130A PUSH2 0x131B SWAP3 DUP6 DUP6 PUSH2 0x1D52 JUMP JUMPDEST CALLDATALOAD PUSH2 0x1315 DUP3 DUP8 PUSH2 0x1E32 JUMP JUMPDEST MSTORE PUSH2 0x1D43 JUMP JUMPDEST PUSH2 0x12A1 JUMP JUMPDEST DUP1 PUSH2 0x1359 PUSH2 0x1330 PUSH2 0x138F SWAP4 PUSH2 0x1C9C JUMP JUMPDEST SWAP1 SLOAD SWAP1 PUSH2 0x133E DUP5 DUP8 DUP10 PUSH2 0x1D52 JUMP JUMPDEST CALLDATALOAD SWAP2 ADDRESS SWAP2 CALLER SWAP2 PUSH1 0x3 SWAP2 SWAP1 SWAP2 SHL SHR PUSH1 0x1 PUSH1 0x1 PUSH1 0xA0 SHL SUB AND PUSH2 0x2423 JUMP JUMPDEST PUSH2 0x138A PUSH2 0x1367 DUP3 DUP6 DUP8 PUSH2 0x1D52 JUMP JUMPDEST CALLDATALOAD PUSH2 0x1371 DUP4 PUSH2 0x1C65 JUMP JUMPDEST SWAP1 SWAP2 SWAP1 DUP3 SLOAD SWAP1 PUSH1 0x3 SHL SWAP2 DUP3 SHL SWAP2 PUSH1 0x0 NOT SWAP1 SHL NOT AND OR SWAP1 SSTORE JUMP JUMPDEST PUSH2 0x1D43 JUMP JUMPDEST PUSH2 0x11B5 JUMP JUMPDEST PUSH1 0x0 NOT PUSH1 0x0 JUMPDEST DUP6 DUP2 LT PUSH2 0x1440 JUMPI POP PUSH1 0x0 JUMPDEST DUP6 DUP2 LT PUSH2 0x13C8 JUMPI POP PUSH2 0x13C1 PUSH8 0xDE0B6B3A7640000 SWAP2 DUP6 SLOAD PUSH2 0x1D76 JUMP JUMPDEST DIV SWAP3 PUSH2 0x1247 JUMP JUMPDEST DUP1 PUSH8 0xDE0B6B3A7640000 PUSH2 0x13ED PUSH2 0x13DF DUP6 SWAP5 PUSH2 0x1C65 JUMP JUMPDEST SWAP5 SWAP1 SLOAD PUSH1 0x3 SWAP6 DUP7 SHL SHR PUSH2 0x1D76 JUMP JUMPDEST DIV DUP1 ISZERO PUSH2 0xC2F JUMPI PUSH2 0x143B SWAP3 DUP2 PUSH2 0x1421 PUSH2 0x138A SWAP4 PUSH2 0x1409 DUP7 PUSH2 0x1C9C JUMP JUMPDEST SWAP1 SLOAD ADDRESS SWAP2 CALLER SWAP2 SWAP1 DUP8 SHL SHR PUSH1 0x1 PUSH1 0x1 PUSH1 0xA0 SHL SUB AND PUSH2 0x2423 JUMP JUMPDEST PUSH2 0xB17 PUSH2 0x142D DUP6 PUSH2 0x1C65 JUMP JUMPDEST SWAP3 SWAP1 SWAP4 DUP4 DUP6 SLOAD SWAP2 SHL SHR PUSH2 0x1E25 JUMP JUMPDEST PUSH2 0x13A5 JUMP JUMPDEST PUSH2 0x144B DUP2 DUP5 DUP7 PUSH2 0x1D52 JUMP JUMPDEST CALLDATALOAD PUSH8 0xDE0B6B3A7640000 SWAP1 DUP2 DUP2 MUL SWAP2 DUP2 DUP4 DIV EQ SWAP1 ISZERO OR ISZERO PUSH2 0xC00 JUMPI PUSH2 0x1480 SWAP1 PUSH2 0x1473 DUP4 PUSH2 0x1C65 JUMP JUMPDEST SWAP1 SLOAD SWAP1 PUSH1 0x3 SHL SHR SWAP1 PUSH2 0x1D89 JUMP JUMPDEST DUP3 DUP2 LT PUSH2 0x1497 JUMPI JUMPDEST POP PUSH2 0x1492 SWAP1 PUSH2 0x1D43 JUMP JUMPDEST PUSH2 0x139A JUMP JUMPDEST SWAP2 POP PUSH2 0x1492 PUSH2 0x1488 JUMP JUMPDEST PUSH2 0x14AC DUP2 DUP5 DUP5 PUSH2 0x1D52 JUMP JUMPDEST CALLDATALOAD ISZERO PUSH2 0xC2F JUMPI PUSH2 0x14BB SWAP1 PUSH2 0x1D43 JUMP JUMPDEST PUSH2 0x119D JUMP JUMPDEST CALLVALUE PUSH2 0x799 JUMPI PUSH1 0x40 CALLDATASIZE PUSH1 0x3 NOT ADD SLT PUSH2 0x799 JUMPI PUSH1 0x20 PUSH2 0xD12 PUSH1 0x24 CALLDATALOAD PUSH1 0x4 CALLDATALOAD PUSH2 0x22C0 JUMP JUMPDEST CALLVALUE PUSH2 0x799 JUMPI PUSH1 0x60 CALLDATASIZE PUSH1 0x3 NOT ADD SLT PUSH2 0x799 JUMPI PUSH1 0x4 CALLDATALOAD PUSH1 0x24 CALLDATALOAD PUSH1 0x1 PUSH1 0x1 PUSH1 0x40 SHL SUB DUP2 GT PUSH2 0x799 JUMPI PUSH2 0x1514 SWAP1 CALLDATASIZE SWAP1 PUSH1 0x4 ADD PUSH2 0x1CE6 JUMP JUMPDEST SWAP1 SWAP2 PUSH1 0x2 PUSH1 0xC SLOAD EQ PUSH2 0x94B JUMPI PUSH1 0x2 PUSH1 0xC SSTORE PUSH1 0xFF PUSH1 0x6 SLOAD AND ISZERO PUSH2 0xC77 JUMPI PUSH1 0x44 CALLDATALOAD TIMESTAMP GT PUSH2 0xC65 JUMPI PUSH1 0x1 SLOAD DUP1 DUP4 SUB PUSH2 0x75A JUMPI DUP2 ISZERO PUSH2 0xC2F JUMPI CALLER PUSH1 0x0 MSTORE PUSH1 0x20 SWAP3 PUSH1 0xA DUP5 MSTORE DUP3 PUSH1 0x40 PUSH1 0x0 KECCAK256 SLOAD LT PUSH2 0xE8D JUMPI PUSH1 0x9 SLOAD SWAP5 PUSH2 0x156C PUSH2 0x1DB6 JUMP JUMPDEST SWAP6 DUP7 MLOAD SWAP1 PUSH2 0x1579 DUP3 PUSH2 0x2144 JUMP JUMPDEST SWAP8 PUSH1 0x0 JUMPDEST DUP4 DUP2 LT PUSH2 0x16E4 JUMPI POP POP POP POP PUSH1 0x0 JUMPDEST DUP4 DUP2 LT PUSH2 0x16AA JUMPI POP POP POP CALLER PUSH1 0x0 MSTORE PUSH1 0xA DUP4 MSTORE DUP2 PUSH1 0x40 PUSH1 0x0 KECCAK256 SLOAD LT PUSH2 0xE8D JUMPI CALLER PUSH1 0x0 MSTORE PUSH1 0xA DUP4 MSTORE PUSH1 0x40 PUSH1 0x0 KECCAK256 DUP3 DUP2 SLOAD SUB SWAP1 SSTORE PUSH2 0x15C8 DUP3 PUSH1 0x9 SLOAD PUSH2 0x1DA9 JUMP JUMPDEST PUSH1 0x9 SSTORE PUSH1 0x0 PUSH1 0x40 MLOAD DUP4 DUP2 MSTORE PUSH1 0x0 DUP1 MLOAD PUSH1 0x20 PUSH2 0x2558 DUP4 CODECOPY DUP2 MLOAD SWAP2 MSTORE DUP6 CALLER SWAP3 LOG3 PUSH1 0x0 JUMPDEST DUP2 DUP2 LT PUSH2 0x164B JUMPI POP POP PUSH32 0xF74FE264FB7D04B4800409B8A3562EB271296E19C3EC8835639635B3E858C45 PUSH1 0x40 MLOAD PUSH1 0x40 DUP2 MSTORE PUSH2 0x1627 PUSH1 0x40 DUP3 ADD DUP7 PUSH2 0x1BB8 JUMP JUMPDEST SWAP3 DUP5 DUP3 ADD MSTORE DUP1 CALLER SWAP4 SUB SWAP1 LOG2 PUSH1 0x1 PUSH1 0xC SSTORE PUSH2 0xEF7 PUSH1 0x40 MLOAD SWAP3 DUP3 DUP5 SWAP4 DUP5 MSTORE DUP4 ADD SWAP1 PUSH2 0x1BB8 JUMP JUMPDEST DUP1 PUSH2 0x138A PUSH2 0x165C PUSH2 0x16A5 SWAP4 DUP9 PUSH2 0x1E32 JUMP JUMPDEST MLOAD PUSH2 0x167B PUSH2 0x1669 DUP5 PUSH2 0x1C65 JUMP JUMPDEST PUSH2 0xB17 DUP3 SLOAD SWAP5 PUSH1 0x3 SWAP6 DUP4 DUP8 SHL SHR PUSH2 0x1DA9 JUMP JUMPDEST PUSH2 0x1684 DUP4 PUSH2 0x1C9C JUMP JUMPDEST SWAP1 SLOAD SWAP2 SHL SHR PUSH1 0x1 PUSH1 0x1 PUSH1 0xA0 SHL SUB AND PUSH2 0x169C DUP4 DUP10 PUSH2 0x1E32 JUMP JUMPDEST MLOAD SWAP1 CALLER SWAP1 PUSH2 0x24DB JUMP JUMPDEST PUSH2 0x15E9 JUMP JUMPDEST PUSH2 0x16B4 DUP2 DUP9 PUSH2 0x1E32 JUMP JUMPDEST MLOAD PUSH2 0x16C0 DUP3 DUP6 DUP6 PUSH2 0x1D52 JUMP JUMPDEST CALLDATALOAD GT PUSH2 0xBEE JUMPI PUSH2 0x16D0 DUP2 DUP9 PUSH2 0x1E32 JUMP JUMPDEST MLOAD ISZERO PUSH2 0xC2F JUMPI PUSH2 0x16DF SWAP1 PUSH2 0x1D43 JUMP JUMPDEST PUSH2 0x158B JUMP JUMPDEST DUP1 PUSH2 0x1705 DUP5 PUSH2 0x1700 DUP12 PUSH2 0x16FA PUSH2 0x170F SWAP7 DUP9 PUSH2 0x1E32 JUMP JUMPDEST MLOAD PUSH2 0x1D76 JUMP JUMPDEST PUSH2 0x1D89 JUMP JUMPDEST PUSH2 0x1315 DUP3 DUP14 PUSH2 0x1E32 JUMP JUMPDEST PUSH2 0x157D JUMP JUMPDEST CALLVALUE PUSH2 0x799 JUMPI PUSH1 0x0 CALLDATASIZE PUSH1 0x3 NOT ADD SLT PUSH2 0x799 JUMPI PUSH1 0x20 PUSH1 0x3 SLOAD PUSH1 0x40 MLOAD SWAP1 DUP2 MSTORE RETURN JUMPDEST CALLVALUE PUSH2 0x799 JUMPI PUSH1 0x60 CALLDATASIZE PUSH1 0x3 NOT ADD SLT PUSH2 0x799 JUMPI PUSH2 0x174B PUSH2 0x1BEC JUMP JUMPDEST PUSH2 0x1753 PUSH2 0x1C02 JUMP JUMPDEST PUSH1 0x44 CALLDATALOAD SWAP2 PUSH1 0x1 PUSH1 0x1 PUSH1 0xA0 SHL SUB SWAP2 DUP3 AND SWAP2 SWAP1 DUP3 ISZERO PUSH2 0x6F8 JUMPI AND DUP1 PUSH1 0x0 MSTORE PUSH1 0x20 SWAP3 PUSH1 0xA DUP5 MSTORE DUP1 PUSH1 0x40 PUSH1 0x0 KECCAK256 SLOAD LT PUSH2 0xE8D JUMPI DUP2 PUSH1 0x0 MSTORE PUSH1 0xB DUP5 MSTORE PUSH1 0x40 PUSH1 0x0 KECCAK256 CALLER PUSH1 0x0 MSTORE DUP5 MSTORE DUP4 PUSH1 0x40 PUSH1 0x0 KECCAK256 SLOAD PUSH1 0x0 NOT DUP2 SUB PUSH2 0x17F0 JUMPI JUMPDEST POP PUSH1 0x0 DUP1 MLOAD PUSH1 0x20 PUSH2 0x2558 DUP4 CODECOPY DUP2 MLOAD SWAP2 MSTORE SWAP2 DUP4 PUSH1 0x0 MSTORE PUSH1 0xA DUP3 MSTORE PUSH1 0x40 PUSH1 0x0 KECCAK256 DUP2 DUP2 SLOAD SUB SWAP1 SSTORE DUP5 PUSH1 0x0 MSTORE PUSH1 0x40 PUSH1 0x0 KECCAK256 PUSH2 0x17DE DUP3 DUP3 SLOAD PUSH2 0x1E25 JUMP JUMPDEST SWAP1 SSTORE PUSH1 0x40 MLOAD SWAP1 DUP2 MSTORE LOG3 PUSH1 0x40 MLOAD PUSH1 0x1 DUP2 MSTORE RETURN JUMPDEST SWAP1 POP DUP2 DUP2 LT PUSH2 0x182C JUMPI DUP2 PUSH1 0x0 DUP1 MLOAD PUSH1 0x20 PUSH2 0x2558 DUP4 CODECOPY DUP2 MLOAD SWAP2 MSTORE SWAP3 DUP7 SWAP3 DUP6 PUSH1 0x0 MSTORE PUSH1 0xB DUP5 MSTORE PUSH1 0x40 PUSH1 0x0 KECCAK256 CALLER PUSH1 0x0 MSTORE DUP5 MSTORE SUB PUSH1 0x40 PUSH1 0x0 KECCAK256 SSTORE SWAP2 PUSH2 0x17A6 JUMP JUMPDEST PUSH1 0x40 MLOAD PUSH4 0x13BE252B PUSH1 0xE0 SHL DUP2 MSTORE PUSH1 0x4 SWAP1 REVERT JUMPDEST CALLVALUE PUSH2 0x799 JUMPI PUSH1 0x0 CALLDATASIZE PUSH1 0x3 NOT ADD SLT PUSH2 0x799 JUMPI PUSH1 0x20 PUSH1 0xFF PUSH1 0x2 SLOAD AND PUSH1 0x40 MLOAD SWAP1 DUP2 MSTORE RETURN JUMPDEST CALLVALUE PUSH2 0x799 JUMPI PUSH1 0x20 CALLDATASIZE PUSH1 0x3 NOT ADD SLT PUSH2 0x799 JUMPI PUSH1 0x4 CALLDATALOAD PUSH1 0xD SLOAD DUP2 LT ISZERO PUSH2 0x799 JUMPI PUSH2 0xFE0 PUSH1 0x20 SWAP2 PUSH2 0x1C18 JUMP JUMPDEST CALLVALUE PUSH2 0x799 JUMPI PUSH1 0x0 CALLDATASIZE PUSH1 0x3 NOT ADD SLT PUSH2 0x799 JUMPI PUSH1 0x20 PUSH1 0x40 MLOAD PUSH1 0x2 DUP2 MSTORE RETURN JUMPDEST CALLVALUE PUSH2 0x799 JUMPI PUSH1 0x0 CALLDATASIZE PUSH1 0x3 NOT ADD SLT PUSH2 0x799 JUMPI PUSH1 0x20 PUSH1 0x9 SLOAD PUSH1 0x40 MLOAD SWAP1 DUP2 MSTORE RETURN JUMPDEST CALLVALUE PUSH2 0x799 JUMPI PUSH1 0x0 CALLDATASIZE PUSH1 0x3 NOT ADD SLT PUSH2 0x799 JUMPI PUSH1 0x20 PUSH1 0xFF PUSH1 0x6 SLOAD AND PUSH1 0x40 MLOAD SWAP1 ISZERO ISZERO DUP2 MSTORE RETURN JUMPDEST CALLVALUE PUSH2 0x799 JUMPI PUSH1 0x40 CALLDATASIZE PUSH1 0x3 NOT ADD SLT PUSH2 0x799 JUMPI PUSH2 0x18FE PUSH2 0x1BEC JUMP JUMPDEST PUSH1 0x1 PUSH1 0x1 PUSH1 0xA0 SHL SUB AND PUSH1 0x24 CALLDATALOAD DUP2 ISZERO PUSH2 0x6F8 JUMPI CALLER PUSH1 0x0 MSTORE PUSH1 0xB PUSH1 0x20 MSTORE PUSH1 0x40 PUSH1 0x0 KECCAK256 DUP3 PUSH1 0x0 MSTORE PUSH1 0x20 MSTORE DUP1 PUSH1 0x40 PUSH1 0x0 KECCAK256 SSTORE PUSH1 0x40 MLOAD SWAP1 DUP2 MSTORE PUSH32 0x8C5BE1E5EBEC7D5BD14F71427D1E84F3DD0314C0F7B2291E5B200AC8C7C3B925 PUSH1 0x20 CALLER SWAP3 LOG3 PUSH1 0x20 PUSH1 0x40 MLOAD PUSH1 0x1 DUP2 MSTORE RETURN JUMPDEST CALLVALUE PUSH2 0x799 JUMPI PUSH1 0x0 CALLDATASIZE PUSH1 0x3 NOT ADD SLT PUSH2 0x799 JUMPI PUSH2 0xEF7 PUSH2 0x197F PUSH2 0x1DB6 JUMP JUMPDEST PUSH1 0x40 MLOAD SWAP2 DUP3 SWAP2 PUSH1 0x20 DUP4 MSTORE PUSH1 0x20 DUP4 ADD SWAP1 PUSH2 0x1BB8 JUMP JUMPDEST CALLVALUE PUSH2 0x799 JUMPI PUSH1 0x0 CALLDATASIZE PUSH1 0x3 NOT ADD SLT PUSH2 0x799 JUMPI PUSH1 0x40 MLOAD PUSH1 0x0 PUSH1 0x7 SLOAD PUSH2 0x19B5 DUP2 PUSH2 0x1B14 JUMP JUMPDEST DUP1 DUP5 MSTORE SWAP1 PUSH1 0x1 SWAP1 DUP2 DUP2 AND SWAP1 DUP2 ISZERO PUSH2 0xF56 JUMPI POP PUSH1 0x1 EQ PUSH2 0x19DE JUMPI PUSH2 0xEF7 DUP5 PUSH2 0xEEB DUP2 DUP7 SUB DUP3 PUSH2 0x1B4E JUMP JUMPDEST PUSH1 0x7 PUSH1 0x0 SWAP1 DUP2 MSTORE SWAP3 POP PUSH1 0x0 DUP1 MLOAD PUSH1 0x20 PUSH2 0x2538 DUP4 CODECOPY DUP2 MLOAD SWAP2 MSTORE JUMPDEST DUP3 DUP5 LT PUSH2 0x1A0F JUMPI POP POP POP DUP2 ADD PUSH1 0x20 ADD PUSH2 0xEEB DUP3 PUSH2 0xEDB JUMP JUMPDEST DUP1 SLOAD PUSH1 0x20 DUP6 DUP8 ADD DUP2 ADD SWAP2 SWAP1 SWAP2 MSTORE SWAP1 SWAP4 ADD SWAP3 DUP2 ADD PUSH2 0x19F7 JUMP JUMPDEST CALLVALUE PUSH2 0x799 JUMPI PUSH1 0x60 CALLDATASIZE PUSH1 0x3 NOT ADD SLT PUSH2 0x799 JUMPI PUSH1 0x4 CALLDATALOAD SWAP1 PUSH1 0x24 CALLDATALOAD SWAP1 PUSH1 0x44 CALLDATALOAD SWAP2 PUSH1 0x1 SLOAD SWAP2 DUP3 DUP6 LT DUP1 ISZERO SWAP1 PUSH2 0x1B0A JUMPI JUMPDEST PUSH2 0x1AFB JUMPI POP DUP1 DUP5 EQ PUSH2 0xC41 JUMPI DUP3 ISZERO PUSH2 0xC2F JUMPI PUSH2 0x1A97 PUSH2 0x1A82 PUSH2 0x2710 PUSH2 0x1A7A PUSH1 0x3 SLOAD DUP8 PUSH2 0x1D76 JUMP JUMPDEST DIV DUP1 SWAP6 PUSH2 0x1DA9 JUMP JUMPDEST PUSH2 0x1A8E DUP5 PUSH2 0xA2E PUSH2 0x1DB6 JUMP JUMPDEST SWAP3 SWAP1 SWAP2 DUP6 PUSH2 0x1D76 JUMP JUMPDEST SWAP1 PUSH8 0xDE0B6B3A7640000 SWAP7 DUP8 DUP4 MUL SWAP3 DUP1 DUP5 DIV DUP10 EQ SWAP1 ISZERO OR ISZERO PUSH2 0xC00 JUMPI PUSH2 0x1AD1 SWAP5 PUSH2 0x1AC4 DUP6 PUSH2 0xA7F SWAP6 PUSH2 0x1D89 JUMP JUMPDEST SWAP2 PUSH1 0xFF PUSH1 0x2 SLOAD AND SWAP4 PUSH2 0x1E46 JUMP JUMPDEST SWAP1 DUP4 DUP2 MUL SWAP4 DUP2 DUP6 DIV EQ SWAP1 ISZERO OR ISZERO PUSH2 0xC00 JUMPI PUSH1 0x40 SWAP3 PUSH2 0x1AEE SWAP2 PUSH2 0x1D89 JUMP JUMPDEST SWAP1 DUP3 MLOAD SWAP2 DUP3 MSTORE PUSH1 0x20 DUP3 ADD MSTORE RETURN JUMPDEST PUSH4 0x609F982F PUSH1 0xE0 SHL DUP2 MSTORE PUSH1 0x4 SWAP1 REVERT JUMPDEST POP DUP3 DUP3 LT ISZERO PUSH2 0x1A53 JUMP JUMPDEST SWAP1 PUSH1 0x1 DUP3 DUP2 SHR SWAP3 AND DUP1 ISZERO PUSH2 0x1B44 JUMPI JUMPDEST PUSH1 0x20 DUP4 LT EQ PUSH2 0x1B2E JUMPI JUMP JUMPDEST PUSH4 0x4E487B71 PUSH1 0xE0 SHL PUSH1 0x0 MSTORE PUSH1 0x22 PUSH1 0x4 MSTORE PUSH1 0x24 PUSH1 0x0 REVERT JUMPDEST SWAP2 PUSH1 0x7F AND SWAP2 PUSH2 0x1B23 JUMP JUMPDEST SWAP1 PUSH1 0x1F DUP1 NOT SWAP2 ADD AND DUP2 ADD SWAP1 DUP2 LT PUSH1 0x1 PUSH1 0x1 PUSH1 0x40 SHL SUB DUP3 GT OR PUSH2 0x46D JUMPI PUSH1 0x40 MSTORE JUMP JUMPDEST PUSH1 0x20 DUP1 DUP3 MSTORE DUP3 MLOAD DUP2 DUP4 ADD DUP2 SWAP1 MSTORE SWAP1 SWAP4 SWAP3 PUSH1 0x0 JUMPDEST DUP3 DUP2 LT PUSH2 0x1BA4 JUMPI POP POP PUSH1 0x40 SWAP3 SWAP4 POP PUSH1 0x0 DUP4 DUP3 DUP5 ADD ADD MSTORE PUSH1 0x1F DUP1 NOT SWAP2 ADD AND ADD ADD SWAP1 JUMP JUMPDEST DUP2 DUP2 ADD DUP7 ADD MLOAD DUP5 DUP3 ADD PUSH1 0x40 ADD MSTORE DUP6 ADD PUSH2 0x1B82 JUMP JUMPDEST SWAP1 DUP2 MLOAD DUP1 DUP3 MSTORE PUSH1 0x20 DUP1 DUP1 SWAP4 ADD SWAP4 ADD SWAP2 PUSH1 0x0 JUMPDEST DUP3 DUP2 LT PUSH2 0x1BD8 JUMPI POP POP POP POP SWAP1 JUMP JUMPDEST DUP4 MLOAD DUP6 MSTORE SWAP4 DUP2 ADD SWAP4 SWAP3 DUP2 ADD SWAP3 PUSH1 0x1 ADD PUSH2 0x1BCA JUMP JUMPDEST PUSH1 0x4 CALLDATALOAD SWAP1 PUSH1 0x1 PUSH1 0x1 PUSH1 0xA0 SHL SUB DUP3 AND DUP3 SUB PUSH2 0x799 JUMPI JUMP JUMPDEST PUSH1 0x24 CALLDATALOAD SWAP1 PUSH1 0x1 PUSH1 0x1 PUSH1 0xA0 SHL SUB DUP3 AND DUP3 SUB PUSH2 0x799 JUMPI JUMP JUMPDEST PUSH1 0xD SLOAD DUP2 LT ISZERO PUSH2 0x1C4F JUMPI PUSH1 0xD PUSH1 0x0 MSTORE PUSH32 0xD7B6990105719101DABEB77144F2A3385C8033ACD3AF97E9423A695E81AD1EB5 ADD SWAP1 PUSH1 0x0 SWAP1 JUMP JUMPDEST PUSH4 0x4E487B71 PUSH1 0xE0 SHL PUSH1 0x0 MSTORE PUSH1 0x32 PUSH1 0x4 MSTORE PUSH1 0x24 PUSH1 0x0 REVERT JUMPDEST PUSH1 0x5 SLOAD DUP2 LT ISZERO PUSH2 0x1C4F JUMPI PUSH1 0x5 PUSH1 0x0 MSTORE PUSH32 0x36B6384B5ECA791C62761152D0C79BB0604C104A5FB6F4EB0703F3154BB3DB0 ADD SWAP1 PUSH1 0x0 SWAP1 JUMP JUMPDEST SWAP1 PUSH1 0x0 SWAP2 DUP3 SLOAD DUP2 LT ISZERO PUSH2 0x1CD2 JUMPI DUP3 DUP1 MSTORE PUSH32 0x290DECD9548B62A8D60345A988386FC84BA6BC95484008F6362F93160EF3E563 ADD SWAP2 SWAP1 JUMP JUMPDEST PUSH4 0x4E487B71 PUSH1 0xE0 SHL DUP4 MSTORE PUSH1 0x32 PUSH1 0x4 MSTORE PUSH1 0x24 DUP4 REVERT JUMPDEST SWAP2 DUP2 PUSH1 0x1F DUP5 ADD SLT ISZERO PUSH2 0x799 JUMPI DUP3 CALLDATALOAD SWAP2 PUSH1 0x1 PUSH1 0x1 PUSH1 0x40 SHL SUB DUP4 GT PUSH2 0x799 JUMPI PUSH1 0x20 DUP1 DUP6 ADD SWAP5 DUP5 PUSH1 0x5 SHL ADD ADD GT PUSH2 0x799 JUMPI JUMP JUMPDEST SWAP2 DUP2 PUSH1 0x1F DUP5 ADD SLT ISZERO PUSH2 0x799 JUMPI DUP3 CALLDATALOAD SWAP2 PUSH1 0x1 PUSH1 0x1 PUSH1 0x40 SHL SUB DUP4 GT PUSH2 0x799 JUMPI PUSH1 0x20 DUP4 DUP2 DUP7 ADD SWAP6 ADD ADD GT PUSH2 0x799 JUMPI JUMP JUMPDEST PUSH1 0x0 NOT DUP2 EQ PUSH2 0xC00 JUMPI PUSH1 0x1 ADD SWAP1 JUMP JUMPDEST SWAP2 SWAP1 DUP2 LT ISZERO PUSH2 0x1C4F JUMPI PUSH1 0x5 SHL ADD SWAP1 JUMP JUMPDEST CALLDATALOAD PUSH1 0x1 PUSH1 0x1 PUSH1 0xA0 SHL SUB DUP2 AND DUP2 SUB PUSH2 0x799 JUMPI SWAP1 JUMP JUMPDEST DUP2 DUP2 MUL SWAP3 SWAP2 DUP2 ISZERO SWAP2 DUP5 DIV EQ OR ISZERO PUSH2 0xC00 JUMPI JUMP JUMPDEST DUP2 ISZERO PUSH2 0x1D93 JUMPI DIV SWAP1 JUMP JUMPDEST PUSH4 0x4E487B71 PUSH1 0xE0 SHL PUSH1 0x0 MSTORE PUSH1 0x12 PUSH1 0x4 MSTORE PUSH1 0x24 PUSH1 0x0 REVERT JUMPDEST SWAP2 SWAP1 DUP3 SUB SWAP2 DUP3 GT PUSH2 0xC00 JUMPI JUMP JUMPDEST PUSH1 0x40 MLOAD SWAP1 PUSH1 0x5 SLOAD DUP1 DUP4 MSTORE DUP3 PUSH1 0x20 SWAP2 DUP3 DUP3 ADD SWAP1 PUSH1 0x5 PUSH1 0x0 MSTORE PUSH32 0x36B6384B5ECA791C62761152D0C79BB0604C104A5FB6F4EB0703F3154BB3DB0 SWAP4 PUSH1 0x0 SWAP1 JUMPDEST DUP3 DUP3 LT PUSH2 0x1E0B JUMPI POP POP POP PUSH2 0x1E09 SWAP3 POP SUB DUP4 PUSH2 0x1B4E JUMP JUMPDEST JUMP JUMPDEST DUP6 SLOAD DUP5 MSTORE PUSH1 0x1 SWAP6 DUP7 ADD SWAP6 DUP9 SWAP6 POP SWAP4 DUP2 ADD SWAP4 SWAP1 SWAP2 ADD SWAP1 PUSH2 0x1DF3 JUMP JUMPDEST SWAP2 SWAP1 DUP3 ADD DUP1 SWAP3 GT PUSH2 0xC00 JUMPI JUMP JUMPDEST DUP1 MLOAD DUP3 LT ISZERO PUSH2 0x1C4F JUMPI PUSH1 0x20 SWAP2 PUSH1 0x5 SHL ADD ADD SWAP1 JUMP JUMPDEST SWAP4 DUP5 MLOAD SWAP4 PUSH2 0x1E54 DUP3 DUP8 PUSH2 0x20F0 JUMP JUMPDEST SWAP5 PUSH1 0x0 SWAP4 DUP5 SWAP3 JUMPDEST DUP3 DUP5 LT PUSH2 0x1EAC JUMPI POP POP POP POP DUP4 DUP3 LT ISZERO PUSH2 0x1E9A JUMPI PUSH2 0x11DD PUSH2 0x1E7E SWAP3 PUSH2 0x1E84 SWAP6 PUSH2 0x1DA9 JUMP JUMPDEST SWAP3 PUSH2 0x1E32 JUMP JUMPDEST MLOAD SWAP1 DUP2 DUP2 LT ISZERO PUSH2 0x1E9A JUMPI PUSH2 0x1E97 SWAP2 PUSH2 0x1DA9 JUMP JUMPDEST SWAP1 JUMP JUMPDEST PUSH1 0x40 MLOAD PUSH4 0x302E29CB PUSH1 0xE0 SHL DUP2 MSTORE PUSH1 0x4 SWAP1 REVERT JUMPDEST SWAP1 SWAP2 SWAP3 SWAP5 DUP9 DUP8 DUP8 EQ PUSH2 0x1F00 JUMPI PUSH2 0x1EE9 SWAP2 PUSH2 0x1EDD DUP8 PUSH2 0x1ECD DUP11 PUSH2 0x1EE3 SWAP6 PUSH2 0x1E32 JUMP JUMPDEST MLOAD DUP7 DUP9 DUP13 EQ PUSH2 0x1EF1 JUMPI JUMPDEST POP PUSH2 0x1F0B JUMP JUMPDEST SWAP1 PUSH2 0x1E25 JUMP JUMPDEST SWAP6 PUSH2 0x1D43 JUMP JUMPDEST SWAP3 SWAP2 SWAP1 PUSH2 0x1E5B JUMP JUMPDEST PUSH2 0x1EFA SWAP2 PUSH2 0x1E25 JUMP JUMPDEST DUP7 PUSH2 0x1ED7 JUMP JUMPDEST POP SWAP5 PUSH2 0x1EE9 SWAP1 PUSH2 0x1D43 JUMP JUMPDEST SWAP1 PUSH1 0xFF AND PUSH1 0x2 DUP2 EQ PUSH2 0x1FD4 JUMPI PUSH1 0x4 DUP2 EQ PUSH2 0x1FBA JUMPI PUSH1 0x8 DUP2 EQ PUSH2 0x1F9C JUMPI PUSH1 0x10 DUP2 EQ PUSH2 0x1F79 JUMPI PUSH1 0x20 EQ PUSH2 0x1F48 JUMPI PUSH1 0x40 MLOAD PUSH4 0x4956AA29 PUSH1 0xE0 SHL DUP2 MSTORE PUSH1 0x4 SWAP1 REVERT JUMPDEST PUSH2 0x1F75 PUSH2 0x1F6E PUSH2 0x1F6E PUSH2 0x1F6E SWAP4 PUSH2 0x1F6E PUSH8 0xDE0B6B3A7640000 DUP1 SWAP7 DUP2 DUP1 SWAP7 DUP6 DUP3 SWAP7 PUSH2 0x1D76 JUMP JUMPDEST DIV DUP1 PUSH2 0x1D76 JUMP JUMPDEST DIV SWAP1 JUMP JUMPDEST POP PUSH2 0x1F75 PUSH2 0x1F6E PUSH2 0x1F6E PUSH2 0x1F6E SWAP4 PUSH8 0xDE0B6B3A7640000 SWAP5 DUP6 DUP1 SWAP5 DUP4 DUP3 SWAP5 PUSH2 0x1D76 JUMP JUMPDEST POP PUSH2 0x1F75 PUSH2 0x1F6E SWAP2 PUSH2 0x1F6E PUSH8 0xDE0B6B3A7640000 DUP1 SWAP5 DUP4 DUP3 SWAP5 PUSH2 0x1D76 JUMP JUMPDEST POP PUSH2 0x1F75 PUSH2 0x1F6E SWAP2 PUSH8 0xDE0B6B3A7640000 SWAP3 DUP2 DUP5 SWAP3 PUSH2 0x1D76 JUMP JUMPDEST POP PUSH2 0x1F75 DUP2 PUSH8 0xDE0B6B3A7640000 SWAP3 PUSH2 0x1D76 JUMP JUMPDEST SWAP1 PUSH1 0xFF AND PUSH1 0x2 DUP2 EQ PUSH2 0x206F JUMPI PUSH1 0x4 DUP2 EQ PUSH2 0x2062 JUMPI PUSH1 0x8 DUP2 EQ PUSH2 0x2052 JUMPI PUSH1 0x10 DUP2 EQ PUSH2 0x203F JUMPI PUSH1 0x20 EQ PUSH2 0x2025 JUMPI PUSH1 0x40 MLOAD PUSH4 0x4956AA29 PUSH1 0xE0 SHL DUP2 MSTORE PUSH1 0x4 SWAP1 REVERT JUMPDEST PUSH2 0x203A PUSH2 0x203A PUSH2 0x203A PUSH2 0x203A PUSH2 0x1E97 SWAP5 PUSH2 0x2075 JUMP JUMPDEST PUSH2 0x2075 JUMP JUMPDEST POP PUSH2 0x203A PUSH2 0x203A PUSH2 0x203A PUSH2 0x1E97 SWAP4 PUSH2 0x2075 JUMP JUMPDEST POP PUSH2 0x203A PUSH2 0x203A PUSH2 0x1E97 SWAP3 PUSH2 0x2075 JUMP JUMPDEST POP PUSH2 0x203A PUSH2 0x1E97 SWAP2 PUSH2 0x2075 JUMP JUMPDEST POP PUSH2 0x1E97 SWAP1 JUMPDEST DUP1 ISZERO PUSH2 0x20EA JUMPI PUSH8 0xDE0B6B3A7640000 DUP1 DUP3 MUL SWAP2 DUP3 DIV SUB PUSH2 0xC00 JUMPI PUSH1 0x0 PUSH1 0x3 DUP3 GT ISZERO PUSH2 0x20DC JUMPI POP DUP1 PUSH1 0x1 SWAP1 DUP1 DUP3 SHR DUP3 DUP2 ADD DUP1 SWAP2 GT PUSH2 0xC00 JUMPI SWAP2 SWAP1 JUMPDEST DUP4 DUP4 LT PUSH2 0x20BC JUMPI POP POP POP SWAP1 JUMP JUMPDEST SWAP1 SWAP2 SWAP3 POP PUSH2 0x20D3 DUP4 PUSH2 0x20CE DUP2 DUP5 PUSH2 0x1D89 JUMP JUMPDEST PUSH2 0x1E25 JUMP JUMPDEST DUP3 SHR SWAP2 SWAP1 PUSH2 0x20AF JUMP JUMPDEST SWAP1 PUSH2 0x20E4 JUMPI SWAP1 JUMP JUMPDEST POP PUSH1 0x1 SWAP1 JUMP JUMPDEST POP PUSH1 0x0 SWAP1 JUMP JUMPDEST DUP1 MLOAD PUSH1 0x0 SWAP4 SWAP3 DUP5 SWAP3 JUMPDEST DUP3 DUP5 LT PUSH2 0x2106 JUMPI POP POP POP POP JUMP JUMPDEST SWAP1 SWAP2 SWAP3 SWAP5 PUSH2 0x1EE3 PUSH2 0x2125 SWAP2 PUSH2 0x1EDD DUP6 PUSH2 0x211F DUP11 DUP8 PUSH2 0x1E32 JUMP JUMPDEST MLOAD PUSH2 0x1F0B JUMP JUMPDEST SWAP3 SWAP2 SWAP1 PUSH2 0x20F9 JUMP JUMPDEST PUSH1 0x1 PUSH1 0x1 PUSH1 0x40 SHL SUB DUP2 GT PUSH2 0x46D JUMPI PUSH1 0x5 SHL PUSH1 0x20 ADD SWAP1 JUMP JUMPDEST SWAP1 PUSH2 0x214E DUP3 PUSH2 0x212D JUMP JUMPDEST PUSH2 0x215B PUSH1 0x40 MLOAD SWAP2 DUP3 PUSH2 0x1B4E JUMP JUMPDEST DUP3 DUP2 MSTORE DUP1 SWAP3 PUSH2 0x216C PUSH1 0x1F NOT SWAP2 PUSH2 0x212D JUMP JUMPDEST ADD SWAP1 PUSH1 0x20 CALLDATASIZE SWAP2 ADD CALLDATACOPY JUMP JUMPDEST SWAP1 SWAP2 PUSH1 0x0 SWAP2 PUSH1 0x0 PUSH2 0x2186 DUP6 PUSH2 0x2144 JUMP JUMPDEST SWAP5 DUP2 JUMPDEST DUP2 DUP2 LT PUSH2 0x2217 JUMPI POP DUP5 ISZERO PUSH2 0x2205 JUMPI DUP2 JUMPDEST DUP2 DUP2 LT PUSH2 0x21A6 JUMPI POP POP POP POP JUMP JUMPDEST PUSH2 0x21BA PUSH2 0x21B3 DUP3 DUP7 PUSH2 0x1E32 JUMP JUMPDEST MLOAD DUP4 PUSH2 0x1D76 JUMP JUMPDEST PUSH8 0xDE0B6B3A7640000 SWAP1 DUP2 DUP2 MUL SWAP2 DUP2 DUP4 DIV EQ SWAP1 ISZERO OR ISZERO PUSH2 0x21F1 JUMPI SWAP1 PUSH2 0x21E2 DUP8 PUSH2 0x21EC SWAP4 PUSH2 0x1D89 JUMP JUMPDEST PUSH2 0x1315 DUP3 DUP11 PUSH2 0x1E32 JUMP JUMPDEST PUSH2 0x2199 JUMP JUMPDEST PUSH4 0x4E487B71 PUSH1 0xE0 SHL DUP5 MSTORE PUSH1 0x11 PUSH1 0x4 MSTORE PUSH1 0x24 DUP5 REVERT JUMPDEST PUSH1 0x40 MLOAD PUSH4 0xAF458C07 PUSH1 0xE0 SHL DUP2 MSTORE PUSH1 0x4 SWAP1 REVERT JUMPDEST SWAP5 PUSH2 0x1EE3 PUSH2 0x2230 SWAP2 PUSH2 0x2229 DUP9 DUP8 PUSH2 0x1E32 JUMP JUMPDEST MLOAD SWAP1 PUSH2 0x1E25 JUMP JUMPDEST PUSH2 0x2189 JUMP JUMPDEST PUSH1 0x1 SLOAD SWAP1 PUSH1 0x0 JUMPDEST DUP3 DUP2 LT PUSH2 0x2248 JUMPI POP POP SWAP1 JUMP JUMPDEST PUSH2 0x2251 DUP2 PUSH2 0x1C9C JUMP JUMPDEST SWAP1 SLOAD PUSH1 0x3 SWAP2 SWAP1 SWAP2 SHL SHR PUSH1 0x1 PUSH1 0x1 PUSH1 0xA0 SHL SUB SWAP1 DUP2 AND SWAP1 DUP4 AND EQ PUSH2 0x227B JUMPI PUSH2 0x2276 SWAP1 PUSH2 0x1D43 JUMP JUMPDEST PUSH2 0x223C JUMP JUMPDEST SWAP2 POP POP SWAP1 JUMP JUMPDEST PUSH1 0xFF PUSH1 0x6 SLOAD AND ISZERO DUP1 ISZERO PUSH2 0x22B6 JUMPI JUMPDEST PUSH2 0x22B1 JUMPI PUSH2 0x1E97 PUSH2 0x22A4 PUSH1 0x1 SLOAD PUSH2 0xA2E PUSH2 0x1DB6 JUMP JUMPDEST POP PUSH1 0xFF PUSH1 0x2 SLOAD AND SWAP1 PUSH2 0x20F0 JUMP JUMPDEST PUSH1 0x0 SWAP1 JUMP JUMPDEST POP PUSH1 0x9 SLOAD ISZERO PUSH2 0x228F JUMP JUMPDEST SWAP1 PUSH1 0x1 SLOAD SWAP1 DUP2 DUP4 LT DUP1 ISZERO SWAP1 PUSH2 0x2398 JUMPI JUMPDEST PUSH2 0xC53 JUMPI PUSH2 0x22DD DUP4 PUSH2 0x1C65 JUMP JUMPDEST SWAP1 SLOAD SWAP1 PUSH1 0x3 SHL SHR ISZERO DUP1 ISZERO PUSH2 0x2381 JUMPI JUMPDEST PUSH2 0x2379 JUMPI PUSH2 0x230A PUSH2 0x2302 PUSH2 0x2311 SWAP4 PUSH2 0xA2E PUSH2 0x1DB6 JUMP JUMPDEST POP SWAP4 DUP5 PUSH2 0x1E32 JUMP JUMPDEST MLOAD SWAP3 PUSH2 0x1E32 JUMP JUMPDEST MLOAD SWAP1 PUSH1 0xFF PUSH1 0x2 SLOAD AND PUSH1 0x2 DUP2 EQ PUSH1 0x0 EQ PUSH2 0x232E JUMPI POP PUSH2 0x1E97 SWAP2 PUSH2 0x23A2 JUMP JUMPDEST SWAP1 PUSH2 0x2343 PUSH2 0x233C DUP4 DUP4 PUSH2 0x1F0B JUMP JUMPDEST SWAP3 DUP5 PUSH2 0x1F0B JUMP JUMPDEST SWAP2 DUP1 ISZERO PUSH2 0x2370 JUMPI PUSH8 0xDE0B6B3A7640000 SWAP4 PUSH2 0x2364 PUSH2 0x236A SWAP3 PUSH2 0x1F75 SWAP6 PUSH2 0x23A2 JUMP JUMPDEST SWAP3 PUSH2 0x23A2 JUMP JUMPDEST SWAP1 PUSH2 0x1D76 JUMP JUMPDEST POP POP POP POP PUSH1 0x0 SWAP1 JUMP JUMPDEST POP POP POP PUSH1 0x0 SWAP1 JUMP JUMPDEST POP PUSH2 0x238B DUP2 PUSH2 0x1C65 JUMP JUMPDEST SWAP1 SLOAD SWAP1 PUSH1 0x3 SHL SHR ISZERO PUSH2 0x22EC JUMP JUMPDEST POP DUP2 DUP2 LT ISZERO PUSH2 0x22D0 JUMP JUMPDEST SWAP1 DUP1 ISZERO PUSH2 0x2205 JUMPI PUSH8 0xDE0B6B3A7640000 SWAP2 DUP3 DUP2 MUL SWAP3 DUP2 DUP5 DIV EQ SWAP1 ISZERO OR ISZERO PUSH2 0xC00 JUMPI PUSH2 0x1E97 SWAP2 PUSH2 0x1D89 JUMP JUMPDEST RETURNDATASIZE ISZERO PUSH2 0x2406 JUMPI RETURNDATASIZE SWAP1 PUSH1 0x1 PUSH1 0x1 PUSH1 0x40 SHL SUB DUP3 GT PUSH2 0x46D JUMPI PUSH1 0x40 MLOAD SWAP2 PUSH2 0x23FA PUSH1 0x1F DUP3 ADD PUSH1 0x1F NOT AND PUSH1 0x20 ADD DUP5 PUSH2 0x1B4E JUMP JUMPDEST DUP3 MSTORE RETURNDATASIZE PUSH1 0x0 PUSH1 0x20 DUP5 ADD RETURNDATACOPY JUMP JUMPDEST PUSH1 0x60 SWAP1 JUMP JUMPDEST SWAP1 DUP2 PUSH1 0x20 SWAP2 SUB SLT PUSH2 0x799 JUMPI MLOAD DUP1 ISZERO ISZERO DUP2 SUB PUSH2 0x799 JUMPI SWAP1 JUMP JUMPDEST PUSH1 0x40 MLOAD PUSH4 0x23B872DD PUSH1 0xE0 SHL PUSH1 0x20 DUP3 ADD SWAP1 DUP2 MSTORE PUSH1 0x1 PUSH1 0x1 PUSH1 0xA0 SHL SUB SWAP4 DUP5 AND PUSH1 0x24 DUP4 ADD MSTORE SWAP3 SWAP1 SWAP4 AND PUSH1 0x44 DUP5 ADD MSTORE PUSH1 0x64 DUP1 DUP5 ADD SWAP5 SWAP1 SWAP5 MSTORE SWAP3 DUP3 MSTORE PUSH1 0xA0 DUP3 ADD SWAP3 SWAP1 PUSH1 0x1 PUSH1 0x1 PUSH1 0x40 SHL SUB DUP5 GT DUP4 DUP6 LT OR PUSH2 0x46D JUMPI PUSH1 0x0 DUP1 SWAP5 SWAP4 DUP2 SWAP5 PUSH1 0x40 MSTORE MLOAD SWAP3 GAS CALL PUSH2 0x2488 PUSH2 0x23CC JUMP JUMPDEST SWAP1 ISZERO SWAP1 DUP2 ISZERO PUSH2 0x24AB JUMPI JUMPDEST POP PUSH2 0x2499 JUMPI JUMP JUMPDEST PUSH1 0x40 MLOAD PUSH4 0x12171D83 PUSH1 0xE3 SHL DUP2 MSTORE PUSH1 0x4 SWAP1 REVERT JUMPDEST DUP1 MLOAD DUP1 ISZERO ISZERO SWAP3 POP DUP3 PUSH2 0x24C0 JUMPI JUMPDEST POP POP CODESIZE PUSH2 0x2492 JUMP JUMPDEST PUSH2 0x24D3 SWAP3 POP PUSH1 0x20 DUP1 SWAP2 DUP4 ADD ADD SWAP2 ADD PUSH2 0x240B JUMP JUMPDEST ISZERO CODESIZE DUP1 PUSH2 0x24B8 JUMP JUMPDEST PUSH1 0x40 MLOAD PUSH4 0xA9059CBB PUSH1 0xE0 SHL PUSH1 0x20 DUP3 ADD SWAP1 DUP2 MSTORE PUSH1 0x1 PUSH1 0x1 PUSH1 0xA0 SHL SUB SWAP1 SWAP4 AND PUSH1 0x24 DUP3 ADD MSTORE PUSH1 0x44 DUP1 DUP3 ADD SWAP5 SWAP1 SWAP5 MSTORE SWAP3 DUP4 MSTORE PUSH1 0x80 DUP4 ADD SWAP3 SWAP2 PUSH1 0x1 PUSH1 0x1 PUSH1 0x40 SHL SUB DUP5 GT DUP4 DUP6 LT OR PUSH2 0x46D JUMPI PUSH1 0x0 DUP1 SWAP5 SWAP4 DUP2 SWAP5 PUSH1 0x40 MSTORE MLOAD SWAP3 GAS CALL PUSH2 0x2488 PUSH2 0x23CC JUMP INVALID 0xA6 PUSH13 0xC928B5EDB82AF9BD4992295415 GAS 0xB7 0xB0 SWAP5 0x26 SWAP5 0xBE LOG4 0xCE PREVRANDAO PUSH7 0x1D9A8736C688DD CALLCODE MSTORE 0xAD SHL 0xE2 0xC8 SWAP12 PUSH10 0xC2B068FC378DAA952BA7 CALL PUSH4 0xC4A11628 CREATE2 GAS 0x4D CREATE2 0x23 0xB3 0xEF LOG2 PUSH5 0x6970667358 0x22 SLT KECCAK256 0x27 0xE1 0x26 PC 0xB7 EXP GT GASLIMIT EXTCODEHASH DELEGATECALL COINBASE 0x2B ADDMOD 0x23 0xB7 SWAP8 0x5C SWAP1 CREATE2 LOG4 0x28 PUSH11 0x7E137D5820CEAC7E3C4364 PUSH20 0x6F6C63430008140033A2646970667358221220CB ORIGIN 0xEC 0xA6 DUP6 PUSH19 0x1D2F2258347945704219B3B1CB77D165DAC2B8 SDIV 0x5C LT 0xB8 0xC2 XOR 0xBF PUSH5 0x736F6C6343 STOP ADDMOD EQ STOP CALLER "},"methodIdentifiers":{"admin()":"f851a440","createPool(address[],uint8,uint256,string,string)":"6385c306","defaultFeeCollector()":"75926137","defaultSwapFeeBps()":"12fb31c4","getAllPools()":"d88ff1f4","getPool(address[],uint8)":"97c0df23","getPoolAtIndex(uint256)":"1010b58c","getPoolsForToken(address)":"162f37fa","poolsByKey(bytes32)":"a423ba8f","setAdmin(address)":"704b6c02","setDefaultFeeCollector(address)":"ccceb7cd","setDefaultSwapFee(uint256)":"334dc4f3","totalPools()":"ab3c7e52"}}}}}