{"contracts/AssetBackedExchange.sol":{"AssetBackedExchange":{"abi":[{"inputs":[],"name":"InsufficientEth","type":"error"},{"inputs":[],"name":"InsufficientFill","type":"error"},{"inputs":[],"name":"NotMaker","type":"error"},{"inputs":[],"name":"NothingToWithdraw","type":"error"},{"inputs":[],"name":"OrderNotActive","type":"error"},{"inputs":[],"name":"SameToken","type":"error"},{"inputs":[],"name":"TransferFailed","type":"error"},{"inputs":[],"name":"ZeroAddress","type":"error"},{"inputs":[],"name":"ZeroAmount","type":"error"},{"anonymous":false,"inputs":[{"indexed":true,"internalType":"address","name":"to","type":"address"},{"indexed":false,"internalType":"uint256","name":"amount","type":"uint256"}],"name":"EthWithdrawn","type":"event"},{"anonymous":false,"inputs":[{"indexed":true,"internalType":"uint256","name":"orderId","type":"uint256"},{"indexed":true,"internalType":"address","name":"maker","type":"address"}],"name":"OrderCancelled","type":"event"},{"anonymous":false,"inputs":[{"indexed":true,"internalType":"uint256","name":"orderId","type":"uint256"},{"indexed":true,"internalType":"address","name":"maker","type":"address"},{"indexed":false,"internalType":"address","name":"tokenSell","type":"address"},{"indexed":false,"internalType":"address","name":"tokenBuy","type":"address"},{"indexed":false,"internalType":"uint256","name":"amountSell","type":"uint256"},{"indexed":false,"internalType":"uint256","name":"amountBuy","type":"uint256"}],"name":"OrderCreated","type":"event"},{"anonymous":false,"inputs":[{"indexed":true,"internalType":"uint256","name":"orderId","type":"uint256"},{"indexed":true,"internalType":"address","name":"taker","type":"address"},{"indexed":false,"internalType":"uint256","name":"fillAmountSell","type":"uint256"},{"indexed":false,"internalType":"uint256","name":"fillAmountBuy","type":"uint256"}],"name":"OrderFilled","type":"event"},{"inputs":[],"name":"ETH_ADDRESS","outputs":[{"internalType":"address","name":"","type":"address"}],"stateMutability":"view","type":"function"},{"inputs":[{"internalType":"uint256","name":"orderId","type":"uint256"}],"name":"cancelOrder","outputs":[],"stateMutability":"nonpayable","type":"function"},{"inputs":[{"internalType":"address","name":"tokenSell","type":"address"},{"internalType":"address","name":"tokenBuy","type":"address"},{"internalType":"uint256","name":"amountSell","type":"uint256"},{"internalType":"uint256","name":"amountBuy","type":"uint256"}],"name":"createOrder","outputs":[{"internalType":"uint256","name":"orderId","type":"uint256"}],"stateMutability":"nonpayable","type":"function"},{"inputs":[{"internalType":"address","name":"tokenBuy","type":"address"},{"internalType":"uint256","name":"amountBuy","type":"uint256"}],"name":"createOrderSellETH","outputs":[{"internalType":"uint256","name":"orderId","type":"uint256"}],"stateMutability":"payable","type":"function"},{"inputs":[{"internalType":"address","name":"","type":"address"}],"name":"ethBalances","outputs":[{"internalType":"uint256","name":"","type":"uint256"}],"stateMutability":"view","type":"function"},{"inputs":[{"internalType":"uint256","name":"orderId","type":"uint256"},{"internalType":"uint256","name":"fillAmountBuy","type":"uint256"}],"name":"fillOrder","outputs":[],"stateMutability":"nonpayable","type":"function"},{"inputs":[{"internalType":"uint256","name":"orderId","type":"uint256"}],"name":"fillOrderWithETH","outputs":[],"stateMutability":"payable","type":"function"},{"inputs":[{"internalType":"address","name":"tokenSell","type":"address"},{"internalType":"address","name":"tokenBuy","type":"address"}],"name":"getActiveOrders","outputs":[{"components":[{"internalType":"uint256","name":"id","type":"uint256"},{"internalType":"address","name":"maker","type":"address"},{"internalType":"address","name":"tokenSell","type":"address"},{"internalType":"address","name":"tokenBuy","type":"address"},{"internalType":"uint256","name":"amountSell","type":"uint256"},{"internalType":"uint256","name":"amountBuy","type":"uint256"},{"internalType":"uint256","name":"filledSell","type":"uint256"},{"internalType":"uint256","name":"filledBuy","type":"uint256"},{"internalType":"bool","name":"cancelled","type":"bool"}],"internalType":"struct AssetBackedExchange.Order[]","name":"","type":"tuple[]"}],"stateMutability":"view","type":"function"},{"inputs":[{"internalType":"uint256","name":"orderId","type":"uint256"}],"name":"getOrder","outputs":[{"components":[{"internalType":"uint256","name":"id","type":"uint256"},{"internalType":"address","name":"maker","type":"address"},{"internalType":"address","name":"tokenSell","type":"address"},{"internalType":"address","name":"tokenBuy","type":"address"},{"internalType":"uint256","name":"amountSell","type":"uint256"},{"internalType":"uint256","name":"amountBuy","type":"uint256"},{"internalType":"uint256","name":"filledSell","type":"uint256"},{"internalType":"uint256","name":"filledBuy","type":"uint256"},{"internalType":"bool","name":"cancelled","type":"bool"}],"internalType":"struct AssetBackedExchange.Order","name":"","type":"tuple"}],"stateMutability":"view","type":"function"},{"inputs":[],"name":"getOrderCount","outputs":[{"internalType":"uint256","name":"","type":"uint256"}],"stateMutability":"view","type":"function"},{"inputs":[{"internalType":"address","name":"user","type":"address"}],"name":"getUserOrders","outputs":[{"internalType":"uint256[]","name":"","type":"uint256[]"}],"stateMutability":"view","type":"function"},{"inputs":[],"name":"nextOrderId","outputs":[{"internalType":"uint256","name":"","type":"uint256"}],"stateMutability":"view","type":"function"},{"inputs":[],"name":"withdrawEth","outputs":[],"stateMutability":"nonpayable","type":"function"},{"stateMutability":"payable","type":"receive"}],"evm":{"bytecode":{"linkReferences":{},"object":"6080806040523461001657611299908161001c8239f35b600080fdfe6080604081815260049081361015610022575b505050361561002057600080fd5b005b600092833560e01c9081632a58b33014610f66575080633cfba0e314610f2e578063514fcac714610dae57806363c69f0814610cfe5780637c14021814610af457806384d8f823146109115780638d0a5fbb146108f45780639aa76c941461070c578063a0ef91df1461067b578063a734f06e14610648578063c37dfc5b146103c3578063d09ef241146103825763fe87991803610012573461037e57608036600319011261037e576100d3610f80565b916100dc610f9b565b906044356064359181158015610376575b610368576001600160a01b03958616938415801561035e575b61034f578616908185146103415773eeeeeeeeeeeeeeeeeeeeeeeeeeeeeeeeeeeeeeee85146103335785516323b872dd60e01b81523382820190815230602082810191909152604082018690529991908a90829081906060010381858b5af19081156103295782916102fc575b50156102ed5780549761018589611082565b8255888a898881519461019786611015565b84865283860190338252838701918d835260608801918b835260808901938d855260a08a0195865260c08a01968b885260e08b01988c8a526101008c019a8d8c528d52600190528b2099518a558160018b01935116926bffffffffffffffffffffffff60a01b93848254161790558160028b0191511683825416179055600389019251169082541617905551878601555160058501555160068401555160078301555115159060080190610256919060ff801983541691151516179055565b33815260028952868120805492600160401b8410156102da57600184018083558410156102c75750818a918a949352200155845193845286840152838301526060820152827fa4be1e061958d160de04db54668a64922c36d2765b16644ae91acf127708970e60803393a351908152f35b634e487b7160e01b835260329052602482fd5b634e487b7160e01b835260419052602482fd5b5085516312171d8360e31b8152fd5b61031c91508a3d8c11610322575b6103148183611048565b81019061106a565b38610173565b503d61030a565b88513d84823e3d90fd5b855163d92e233d60e01b8152fd5b855163100dac0560e11b8152fd5b50845163d92e233d60e01b8152fd5b5086811615610106565b8451631f2a200560e01b8152fd5b5082156100ed565b8280fd5b50903461037e57602036600319011261037e576103b882610120946103c1936103a9611134565b50358152600160205220611179565b91518092610fb1565bf35b503461037e578060031936011261037e57813590602435828552602060018152828620946103f086611233565b821561063a5760038601546001600160a01b039081169673eeeeeeeeeeeeeeeeeeeeeeeeeeeeeeeeeeeeeeee919082891461062a576005810154986007820180549a61043c8c826110a7565b808a11610620575b5061045b90610456888601548b6110b4565b6110c7565b9a8b15610610576104c99288926104738b80946110e7565b90558c610485600687019182546110e7565b90558d86600187015416908c518096819582946323b872dd60e01b84528d3390850160409194939294606082019560018060a01b0380921683521660208201520152565b03925af1908115610606578b916105e9575b50156105d957600201541690810361054657508680808089335af16104fe6110f4565b50156105385750907f36a54e61f475a84cd4a5c3b403be29e6101b05ec843b61fb97c3e123ff59b3f492915b82519586528501523393a380f35b83516312171d8360e31b8152fd5b845163a9059cbb60e01b815233838201908152602081018990529091849183919082908c90829060400103925af19081156105cf5788916105b2575b50156105385750907f36a54e61f475a84cd4a5c3b403be29e6101b05ec843b61fb97c3e123ff59b3f4929161052a565b6105c99150833d8511610322576103148183611048565b38610582565b85513d8a823e3d90fd5b86516312171d8360e31b81528490fd5b6106009150863d8811610322576103148183611048565b386104db565b88513d8d823e3d90fd5b8951633e0526e560e01b81528790fd5b985061045b610444565b865163d92e233d60e01b81528490fd5b8351631f2a200560e01b8152fd5b8382346106775781600319360112610677576020905173eeeeeeeeeeeeeeeeeeeeeeeeeeeeeeeeeeeeeeee8152f35b5080fd5b503461037e578260031936011261037e573383526003602052808320549182156106fe57338452600360205283828120558380808086335af16106bc6110f4565b50156106f05750519081527f8455ae6be5d92f1df1c3c1484388e247a36c7e60d72055ae216dbc258f257d4b60203392a280f35b90516312171d8360e31b8152fd5b9051630686827b60e51b8152fd5b508060031936011261037e57610720610f80565b602435341580156108ec575b6108dd576001600160a01b03918216801580156108c0575b6108b05785549461075486611082565b875584519661076288611015565b86885260209787898881840198338a528185019073eeeeeeeeeeeeeeeeeeeeeeeeeeeeeeeeeeeeeeee9a8b835260608701908a8252608088019234845260a08901948d865260c08a01968b885260e08b01988c8a526101008c019a8d8c528d52600190528b2099518a558160018b01935116926bffffffffffffffffffffffff60a01b93848254161790558160028b019151168382541617905560038901925116908254161790555187860155516005850155516006840155516007830155511515906008019061083e919060ff801983541691151516179055565b33815260028852858120805492600160401b8410156102da57600184018083558410156102c757508189918994935220015583519283528583015234838301526060820152827fa4be1e061958d160de04db54668a64922c36d2765b16644ae91acf127708970e60803393a351908152f35b5050505163d92e233d60e01b8152fd5b5073eeeeeeeeeeeeeeeeeeeeeeeeeeeeeeeeeeeeeeee8114610744565b505051631f2a200560e01b8152fd5b50801561072c565b838234610677578160031936011261067757602091549051908152f35b509060209182600319360112610af057813591828552600184528185209361093885611233565b3415610ae15760038501546001600160a01b039290831673eeeeeeeeeeeeeeeeeeeeeeeeeeeeeeeeeeeeeeed1901610ad357600586015492600787019687549761098289876110a7565b803411600014610ac85761099f90965b61045686850154896110b4565b988915610ab857866109b0916110e7565b9055600681016109c18982546110e7565b90558880808088866001870154165af16109d96110f4565b5015610aa85760020154855163a9059cbb60e01b815233848201908152602081018a90529092859284928390036040019183918d91165af19081156105cf578891610a8b575b501561053857823411610a5f575b50825194855284015233927f36a54e61f475a84cd4a5c3b403be29e6101b05ec843b61fb97c3e123ff59b3f49190a380f35b86808080610a6d87346110a7565b335af1610a786110f4565b50610a2d5783516312171d8360e31b8152fd5b610aa29150833d8511610322576103148183611048565b38610a1f565b85516312171d8360e31b81528390fd5b8751633e0526e560e01b81528590fd5b5061099f3496610992565b835163d92e233d60e01b8152fd5b509051631f2a200560e01b8152fd5b8380fd5b50829034610677578060031936011261067757610b0f610f80565b92610b18610f9b565b835493948594926001600160a01b03918216929190865b858110610c795750610b40886111f1565b97610b4d8751998a611048565b808952610b5c601f19916111f1565b01875b818110610c625750508692875b868110610bbf5788888b81519160208080850192818652845180945285019301945b828110610b9b5784840385f35b9091928261012082610bb06001948a51610fb1565b01960191019492919094610b8e565b80895260016020528789208a87866002840154161480610c51575b80610c42575b80610c32575b610bfb575b5050610bf690611082565b610b6c565b610c17610c2a91610c2389610c1d610bf697969b948592611082565b9b611179565b92611209565b528c611209565b50908a610beb565b5060068201548583015411610be6565b5060ff60088301541615610be0565b508560038301541686851614610bda565b602090610c6d611134565b82828d01015201610b5f565b80885260016020528688208584600283015416149081610ceb575b81610cdb575b81610cc9575b50610cb4575b610caf90611082565b610b2f565b97610cc1610caf91611082565b989050610ca6565b9050826006820154910154118a610ca0565b600881015460ff16159150610c9a565b9050836003820154168486161490610c94565b508234610dab5760209081600319360112610dab5782906001600160a01b03610d25610f80565b16815260028352818120908251808584549182815201908194845286842090845b818110610d975750505081610d5c910382611048565b83519485948186019282875251809352850193925b828110610d8057505050500390f35b835185528695509381019392810192600101610d71565b825484529288019260019283019201610d46565b80fd5b50903461037e5760209182600319360112610af0578135928385526001815281852092610dda84611233565b6001840180546001600160a01b039290831633819003610f1f5760088701805460ff19166001179055818701546006880154610e15916110a7565b9687610e46575b89338a7fc0362da6f2ff36b382b34aec0814f6b3cdf89f5ef282a1d1f114d0c0b036d5968380a380f35b6002015484169073eeeeeeeeeeeeeeeeeeeeeeeeeeeeeeeeeeeeeeee8203610e935750505091600391610e839493541687525284209182546110e7565b90555b3880808080808080610e1c565b865163a9059cbb60e01b81526001600160a01b0390911681840190815260208101989098529196919350849250839182908a90829060400103925af1918215610f15578692610ef8575b505015610eeb575050610e86565b516312171d8360e31b8152fd5b610f0e9250803d10610322576103148183611048565b3880610edd565b83513d88823e3d90fd5b50845163b331e42160e01b8152fd5b8382346106775760203660031901126106775760209181906001600160a01b03610f56610f80565b1681526003845220549051908152f35b849034610677578160031936011261067757602091548152f35b600435906001600160a01b0382168203610f9657565b600080fd5b602435906001600160a01b0382168203610f9657565b8051825260018060a01b0380602083015116602084015280604083015116604084015260608201511660608301526080810151608083015260a081015160a083015260c081015160c083015260e081015160e0830152610100809101511515910152565b610120810190811067ffffffffffffffff82111761103257604052565b634e487b7160e01b600052604160045260246000fd5b90601f8019910116810190811067ffffffffffffffff82111761103257604052565b90816020910312610f9657518015158103610f965790565b60001981146110915760010190565b634e487b7160e01b600052601160045260246000fd5b9190820391821161109157565b8181029291811591840414171561109157565b81156110d1570490565b634e487b7160e01b600052601260045260246000fd5b9190820180921161109157565b3d1561112f573d9067ffffffffffffffff82116110325760405191611123601f8201601f191660200184611048565b82523d6000602084013e565b606090565b6040519061114182611015565b816101006000918281528260208201528260408201528260608201528260808201528260a08201528260c08201528260e08201520152565b9060405161118681611015565b8254815260018301546001600160a01b039081166020830152600284015481166040830152600384015416606082015260048301546080820152600583015460a0820152600683015460c0820152600783015460e082015260089092015460ff161515610100830152565b67ffffffffffffffff81116110325760051b60200190565b805182101561121d5760209160051b010190565b634e487b7160e01b600052603260045260246000fd5b60ff6008820154166112515760046006820154910154111561125157565b604051631d4ecc5b60e01b8152600490fdfea2646970667358221220fa3028ee3d0fcd38273dbc585d11ae60a76b8375f65a7b8b3dd1a6f06fa33f2b64736f6c63430008140033","opcodes":"PUSH1 0x80 DUP1 PUSH1 0x40 MSTORE CALLVALUE PUSH2 0x16 JUMPI PUSH2 0x1299 SWAP1 DUP2 PUSH2 0x1C DUP3 CODECOPY RETURN JUMPDEST PUSH1 0x0 DUP1 REVERT INVALID PUSH1 0x80 PUSH1 0x40 DUP2 DUP2 MSTORE PUSH1 0x4 SWAP1 DUP2 CALLDATASIZE LT ISZERO PUSH2 0x22 JUMPI JUMPDEST POP POP POP CALLDATASIZE ISZERO PUSH2 0x20 JUMPI PUSH1 0x0 DUP1 REVERT JUMPDEST STOP JUMPDEST PUSH1 0x0 SWAP3 DUP4 CALLDATALOAD PUSH1 0xE0 SHR SWAP1 DUP2 PUSH4 0x2A58B330 EQ PUSH2 0xF66 JUMPI POP DUP1 PUSH4 0x3CFBA0E3 EQ PUSH2 0xF2E JUMPI DUP1 PUSH4 0x514FCAC7 EQ PUSH2 0xDAE JUMPI DUP1 PUSH4 0x63C69F08 EQ PUSH2 0xCFE JUMPI DUP1 PUSH4 0x7C140218 EQ PUSH2 0xAF4 JUMPI DUP1 PUSH4 0x84D8F823 EQ PUSH2 0x911 JUMPI DUP1 PUSH4 0x8D0A5FBB EQ PUSH2 0x8F4 JUMPI DUP1 PUSH4 0x9AA76C94 EQ PUSH2 0x70C JUMPI DUP1 PUSH4 0xA0EF91DF EQ PUSH2 0x67B JUMPI DUP1 PUSH4 0xA734F06E EQ PUSH2 0x648 JUMPI DUP1 PUSH4 0xC37DFC5B EQ PUSH2 0x3C3 JUMPI DUP1 PUSH4 0xD09EF241 EQ PUSH2 0x382 JUMPI PUSH4 0xFE879918 SUB PUSH2 0x12 JUMPI CALLVALUE PUSH2 0x37E JUMPI PUSH1 0x80 CALLDATASIZE PUSH1 0x3 NOT ADD SLT PUSH2 0x37E JUMPI PUSH2 0xD3 PUSH2 0xF80 JUMP JUMPDEST SWAP2 PUSH2 0xDC PUSH2 0xF9B JUMP JUMPDEST SWAP1 PUSH1 0x44 CALLDATALOAD PUSH1 0x64 CALLDATALOAD SWAP2 DUP2 ISZERO DUP1 ISZERO PUSH2 0x376 JUMPI JUMPDEST PUSH2 0x368 JUMPI PUSH1 0x1 PUSH1 0x1 PUSH1 0xA0 SHL SUB SWAP6 DUP7 AND SWAP4 DUP5 ISZERO DUP1 ISZERO PUSH2 0x35E JUMPI JUMPDEST PUSH2 0x34F JUMPI DUP7 AND SWAP1 DUP2 DUP6 EQ PUSH2 0x341 JUMPI PUSH20 0xEEEEEEEEEEEEEEEEEEEEEEEEEEEEEEEEEEEEEEEE DUP6 EQ PUSH2 0x333 JUMPI DUP6 MLOAD PUSH4 0x23B872DD PUSH1 0xE0 SHL DUP2 MSTORE CALLER DUP3 DUP3 ADD SWAP1 DUP2 MSTORE ADDRESS PUSH1 0x20 DUP3 DUP2 ADD SWAP2 SWAP1 SWAP2 MSTORE PUSH1 0x40 DUP3 ADD DUP7 SWAP1 MSTORE SWAP10 SWAP2 SWAP1 DUP11 SWAP1 DUP3 SWAP1 DUP2 SWAP1 PUSH1 0x60 ADD SUB DUP2 DUP6 DUP12 GAS CALL SWAP1 DUP2 ISZERO PUSH2 0x329 JUMPI DUP3 SWAP2 PUSH2 0x2FC JUMPI JUMPDEST POP ISZERO PUSH2 0x2ED JUMPI DUP1 SLOAD SWAP8 PUSH2 0x185 DUP10 PUSH2 0x1082 JUMP JUMPDEST DUP3 SSTORE DUP9 DUP11 DUP10 DUP9 DUP2 MLOAD SWAP5 PUSH2 0x197 DUP7 PUSH2 0x1015 JUMP JUMPDEST DUP5 DUP7 MSTORE DUP4 DUP7 ADD SWAP1 CALLER DUP3 MSTORE DUP4 DUP8 ADD SWAP2 DUP14 DUP4 MSTORE PUSH1 0x60 DUP9 ADD SWAP2 DUP12 DUP4 MSTORE PUSH1 0x80 DUP10 ADD SWAP4 DUP14 DUP6 MSTORE PUSH1 0xA0 DUP11 ADD SWAP6 DUP7 MSTORE PUSH1 0xC0 DUP11 ADD SWAP7 DUP12 DUP9 MSTORE PUSH1 0xE0 DUP12 ADD SWAP9 DUP13 DUP11 MSTORE PUSH2 0x100 DUP13 ADD SWAP11 DUP14 DUP13 MSTORE DUP14 MSTORE PUSH1 0x1 SWAP1 MSTORE DUP12 KECCAK256 SWAP10 MLOAD DUP11 SSTORE DUP2 PUSH1 0x1 DUP12 ADD SWAP4 MLOAD AND SWAP3 PUSH12 0xFFFFFFFFFFFFFFFFFFFFFFFF PUSH1 0xA0 SHL SWAP4 DUP5 DUP3 SLOAD AND OR SWAP1 SSTORE DUP2 PUSH1 0x2 DUP12 ADD SWAP2 MLOAD AND DUP4 DUP3 SLOAD AND OR SWAP1 SSTORE PUSH1 0x3 DUP10 ADD SWAP3 MLOAD AND SWAP1 DUP3 SLOAD AND OR SWAP1 SSTORE MLOAD DUP8 DUP7 ADD SSTORE MLOAD PUSH1 0x5 DUP6 ADD SSTORE MLOAD PUSH1 0x6 DUP5 ADD SSTORE MLOAD PUSH1 0x7 DUP4 ADD SSTORE MLOAD ISZERO ISZERO SWAP1 PUSH1 0x8 ADD SWAP1 PUSH2 0x256 SWAP2 SWAP1 PUSH1 0xFF DUP1 NOT DUP4 SLOAD AND SWAP2 ISZERO ISZERO AND OR SWAP1 SSTORE JUMP JUMPDEST CALLER DUP2 MSTORE PUSH1 0x2 DUP10 MSTORE DUP7 DUP2 KECCAK256 DUP1 SLOAD SWAP3 PUSH1 0x1 PUSH1 0x40 SHL DUP5 LT ISZERO PUSH2 0x2DA JUMPI PUSH1 0x1 DUP5 ADD DUP1 DUP4 SSTORE DUP5 LT ISZERO PUSH2 0x2C7 JUMPI POP DUP2 DUP11 SWAP2 DUP11 SWAP5 SWAP4 MSTORE KECCAK256 ADD SSTORE DUP5 MLOAD SWAP4 DUP5 MSTORE DUP7 DUP5 ADD MSTORE DUP4 DUP4 ADD MSTORE PUSH1 0x60 DUP3 ADD MSTORE DUP3 PUSH32 0xA4BE1E061958D160DE04DB54668A64922C36D2765B16644AE91ACF127708970E PUSH1 0x80 CALLER SWAP4 LOG3 MLOAD SWAP1 DUP2 MSTORE RETURN JUMPDEST PUSH4 0x4E487B71 PUSH1 0xE0 SHL DUP4 MSTORE PUSH1 0x32 SWAP1 MSTORE PUSH1 0x24 DUP3 REVERT JUMPDEST PUSH4 0x4E487B71 PUSH1 0xE0 SHL DUP4 MSTORE PUSH1 0x41 SWAP1 MSTORE PUSH1 0x24 DUP3 REVERT JUMPDEST POP DUP6 MLOAD PUSH4 0x12171D83 PUSH1 0xE3 SHL DUP2 MSTORE REVERT JUMPDEST PUSH2 0x31C SWAP2 POP DUP11 RETURNDATASIZE DUP13 GT PUSH2 0x322 JUMPI JUMPDEST PUSH2 0x314 DUP2 DUP4 PUSH2 0x1048 JUMP JUMPDEST DUP2 ADD SWAP1 PUSH2 0x106A JUMP JUMPDEST CODESIZE PUSH2 0x173 JUMP JUMPDEST POP RETURNDATASIZE PUSH2 0x30A JUMP JUMPDEST DUP9 MLOAD RETURNDATASIZE DUP5 DUP3 RETURNDATACOPY RETURNDATASIZE SWAP1 REVERT JUMPDEST DUP6 MLOAD PUSH4 0xD92E233D PUSH1 0xE0 SHL DUP2 MSTORE REVERT JUMPDEST DUP6 MLOAD PUSH4 0x100DAC05 PUSH1 0xE1 SHL DUP2 MSTORE REVERT JUMPDEST POP DUP5 MLOAD PUSH4 0xD92E233D PUSH1 0xE0 SHL DUP2 MSTORE REVERT JUMPDEST POP DUP7 DUP2 AND ISZERO PUSH2 0x106 JUMP JUMPDEST DUP5 MLOAD PUSH4 0x1F2A2005 PUSH1 0xE0 SHL DUP2 MSTORE REVERT JUMPDEST POP DUP3 ISZERO PUSH2 0xED JUMP JUMPDEST DUP3 DUP1 REVERT JUMPDEST POP SWAP1 CALLVALUE PUSH2 0x37E JUMPI PUSH1 0x20 CALLDATASIZE PUSH1 0x3 NOT ADD SLT PUSH2 0x37E JUMPI PUSH2 0x3B8 DUP3 PUSH2 0x120 SWAP5 PUSH2 0x3C1 SWAP4 PUSH2 0x3A9 PUSH2 0x1134 JUMP JUMPDEST POP CALLDATALOAD DUP2 MSTORE PUSH1 0x1 PUSH1 0x20 MSTORE KECCAK256 PUSH2 0x1179 JUMP JUMPDEST SWAP2 MLOAD DUP1 SWAP3 PUSH2 0xFB1 JUMP JUMPDEST RETURN JUMPDEST POP CALLVALUE PUSH2 0x37E JUMPI DUP1 PUSH1 0x3 NOT CALLDATASIZE ADD SLT PUSH2 0x37E JUMPI DUP2 CALLDATALOAD SWAP1 PUSH1 0x24 CALLDATALOAD DUP3 DUP6 MSTORE PUSH1 0x20 PUSH1 0x1 DUP2 MSTORE DUP3 DUP7 KECCAK256 SWAP5 PUSH2 0x3F0 DUP7 PUSH2 0x1233 JUMP JUMPDEST DUP3 ISZERO PUSH2 0x63A JUMPI PUSH1 0x3 DUP7 ADD SLOAD PUSH1 0x1 PUSH1 0x1 PUSH1 0xA0 SHL SUB SWAP1 DUP2 AND SWAP7 PUSH20 0xEEEEEEEEEEEEEEEEEEEEEEEEEEEEEEEEEEEEEEEE SWAP2 SWAP1 DUP3 DUP10 EQ PUSH2 0x62A JUMPI PUSH1 0x5 DUP2 ADD SLOAD SWAP9 PUSH1 0x7 DUP3 ADD DUP1 SLOAD SWAP11 PUSH2 0x43C DUP13 DUP3 PUSH2 0x10A7 JUMP JUMPDEST DUP1 DUP11 GT PUSH2 0x620 JUMPI JUMPDEST POP PUSH2 0x45B SWAP1 PUSH2 0x456 DUP9 DUP7 ADD SLOAD DUP12 PUSH2 0x10B4 JUMP JUMPDEST PUSH2 0x10C7 JUMP JUMPDEST SWAP11 DUP12 ISZERO PUSH2 0x610 JUMPI PUSH2 0x4C9 SWAP3 DUP9 SWAP3 PUSH2 0x473 DUP12 DUP1 SWAP5 PUSH2 0x10E7 JUMP JUMPDEST SWAP1 SSTORE DUP13 PUSH2 0x485 PUSH1 0x6 DUP8 ADD SWAP2 DUP3 SLOAD PUSH2 0x10E7 JUMP JUMPDEST SWAP1 SSTORE DUP14 DUP7 PUSH1 0x1 DUP8 ADD SLOAD AND SWAP1 DUP13 MLOAD DUP1 SWAP7 DUP2 SWAP6 DUP3 SWAP5 PUSH4 0x23B872DD PUSH1 0xE0 SHL DUP5 MSTORE DUP14 CALLER SWAP1 DUP6 ADD PUSH1 0x40 SWAP2 SWAP5 SWAP4 SWAP3 SWAP5 PUSH1 0x60 DUP3 ADD SWAP6 PUSH1 0x1 DUP1 PUSH1 0xA0 SHL SUB DUP1 SWAP3 AND DUP4 MSTORE AND PUSH1 0x20 DUP3 ADD MSTORE ADD MSTORE JUMP JUMPDEST SUB SWAP3 GAS CALL SWAP1 DUP2 ISZERO PUSH2 0x606 JUMPI DUP12 SWAP2 PUSH2 0x5E9 JUMPI JUMPDEST POP ISZERO PUSH2 0x5D9 JUMPI PUSH1 0x2 ADD SLOAD AND SWAP1 DUP2 SUB PUSH2 0x546 JUMPI POP DUP7 DUP1 DUP1 DUP1 DUP10 CALLER GAS CALL PUSH2 0x4FE PUSH2 0x10F4 JUMP JUMPDEST POP ISZERO PUSH2 0x538 JUMPI POP SWAP1 PUSH32 0x36A54E61F475A84CD4A5C3B403BE29E6101B05EC843B61FB97C3E123FF59B3F4 SWAP3 SWAP2 JUMPDEST DUP3 MLOAD SWAP6 DUP7 MSTORE DUP6 ADD MSTORE CALLER SWAP4 LOG3 DUP1 RETURN JUMPDEST DUP4 MLOAD PUSH4 0x12171D83 PUSH1 0xE3 SHL DUP2 MSTORE REVERT JUMPDEST DUP5 MLOAD PUSH4 0xA9059CBB PUSH1 0xE0 SHL DUP2 MSTORE CALLER DUP4 DUP3 ADD SWAP1 DUP2 MSTORE PUSH1 0x20 DUP2 ADD DUP10 SWAP1 MSTORE SWAP1 SWAP2 DUP5 SWAP2 DUP4 SWAP2 SWAP1 DUP3 SWAP1 DUP13 SWAP1 DUP3 SWAP1 PUSH1 0x40 ADD SUB SWAP3 GAS CALL SWAP1 DUP2 ISZERO PUSH2 0x5CF JUMPI DUP9 SWAP2 PUSH2 0x5B2 JUMPI JUMPDEST POP ISZERO PUSH2 0x538 JUMPI POP SWAP1 PUSH32 0x36A54E61F475A84CD4A5C3B403BE29E6101B05EC843B61FB97C3E123FF59B3F4 SWAP3 SWAP2 PUSH2 0x52A JUMP JUMPDEST PUSH2 0x5C9 SWAP2 POP DUP4 RETURNDATASIZE DUP6 GT PUSH2 0x322 JUMPI PUSH2 0x314 DUP2 DUP4 PUSH2 0x1048 JUMP JUMPDEST CODESIZE PUSH2 0x582 JUMP JUMPDEST DUP6 MLOAD RETURNDATASIZE DUP11 DUP3 RETURNDATACOPY RETURNDATASIZE SWAP1 REVERT JUMPDEST DUP7 MLOAD PUSH4 0x12171D83 PUSH1 0xE3 SHL DUP2 MSTORE DUP5 SWAP1 REVERT JUMPDEST PUSH2 0x600 SWAP2 POP DUP7 RETURNDATASIZE DUP9 GT PUSH2 0x322 JUMPI PUSH2 0x314 DUP2 DUP4 PUSH2 0x1048 JUMP JUMPDEST CODESIZE PUSH2 0x4DB JUMP JUMPDEST DUP9 MLOAD RETURNDATASIZE DUP14 DUP3 RETURNDATACOPY RETURNDATASIZE SWAP1 REVERT JUMPDEST DUP10 MLOAD PUSH4 0x3E0526E5 PUSH1 0xE0 SHL DUP2 MSTORE DUP8 SWAP1 REVERT JUMPDEST SWAP9 POP PUSH2 0x45B PUSH2 0x444 JUMP JUMPDEST DUP7 MLOAD PUSH4 0xD92E233D PUSH1 0xE0 SHL DUP2 MSTORE DUP5 SWAP1 REVERT JUMPDEST DUP4 MLOAD PUSH4 0x1F2A2005 PUSH1 0xE0 SHL DUP2 MSTORE REVERT JUMPDEST DUP4 DUP3 CALLVALUE PUSH2 0x677 JUMPI DUP2 PUSH1 0x3 NOT CALLDATASIZE ADD SLT PUSH2 0x677 JUMPI PUSH1 0x20 SWAP1 MLOAD PUSH20 0xEEEEEEEEEEEEEEEEEEEEEEEEEEEEEEEEEEEEEEEE DUP2 MSTORE RETURN JUMPDEST POP DUP1 REVERT JUMPDEST POP CALLVALUE PUSH2 0x37E JUMPI DUP3 PUSH1 0x3 NOT CALLDATASIZE ADD SLT PUSH2 0x37E JUMPI CALLER DUP4 MSTORE PUSH1 0x3 PUSH1 0x20 MSTORE DUP1 DUP4 KECCAK256 SLOAD SWAP2 DUP3 ISZERO PUSH2 0x6FE JUMPI CALLER DUP5 MSTORE PUSH1 0x3 PUSH1 0x20 MSTORE DUP4 DUP3 DUP2 KECCAK256 SSTORE DUP4 DUP1 DUP1 DUP1 DUP7 CALLER GAS CALL PUSH2 0x6BC PUSH2 0x10F4 JUMP JUMPDEST POP ISZERO PUSH2 0x6F0 JUMPI POP MLOAD SWAP1 DUP2 MSTORE PUSH32 0x8455AE6BE5D92F1DF1C3C1484388E247A36C7E60D72055AE216DBC258F257D4B PUSH1 0x20 CALLER SWAP3 LOG2 DUP1 RETURN JUMPDEST SWAP1 MLOAD PUSH4 0x12171D83 PUSH1 0xE3 SHL DUP2 MSTORE REVERT JUMPDEST SWAP1 MLOAD PUSH4 0x686827B PUSH1 0xE5 SHL DUP2 MSTORE REVERT JUMPDEST POP DUP1 PUSH1 0x3 NOT CALLDATASIZE ADD SLT PUSH2 0x37E JUMPI PUSH2 0x720 PUSH2 0xF80 JUMP JUMPDEST PUSH1 0x24 CALLDATALOAD CALLVALUE ISZERO DUP1 ISZERO PUSH2 0x8EC JUMPI JUMPDEST PUSH2 0x8DD JUMPI PUSH1 0x1 PUSH1 0x1 PUSH1 0xA0 SHL SUB SWAP2 DUP3 AND DUP1 ISZERO DUP1 ISZERO PUSH2 0x8C0 JUMPI JUMPDEST PUSH2 0x8B0 JUMPI DUP6 SLOAD SWAP5 PUSH2 0x754 DUP7 PUSH2 0x1082 JUMP JUMPDEST DUP8 SSTORE DUP5 MLOAD SWAP7 PUSH2 0x762 DUP9 PUSH2 0x1015 JUMP JUMPDEST DUP7 DUP9 MSTORE PUSH1 0x20 SWAP8 DUP8 DUP10 DUP9 DUP2 DUP5 ADD SWAP9 CALLER DUP11 MSTORE DUP2 DUP6 ADD SWAP1 PUSH20 0xEEEEEEEEEEEEEEEEEEEEEEEEEEEEEEEEEEEEEEEE SWAP11 DUP12 DUP4 MSTORE PUSH1 0x60 DUP8 ADD SWAP1 DUP11 DUP3 MSTORE PUSH1 0x80 DUP9 ADD SWAP3 CALLVALUE DUP5 MSTORE PUSH1 0xA0 DUP10 ADD SWAP5 DUP14 DUP7 MSTORE PUSH1 0xC0 DUP11 ADD SWAP7 DUP12 DUP9 MSTORE PUSH1 0xE0 DUP12 ADD SWAP9 DUP13 DUP11 MSTORE PUSH2 0x100 DUP13 ADD SWAP11 DUP14 DUP13 MSTORE DUP14 MSTORE PUSH1 0x1 SWAP1 MSTORE DUP12 KECCAK256 SWAP10 MLOAD DUP11 SSTORE DUP2 PUSH1 0x1 DUP12 ADD SWAP4 MLOAD AND SWAP3 PUSH12 0xFFFFFFFFFFFFFFFFFFFFFFFF PUSH1 0xA0 SHL SWAP4 DUP5 DUP3 SLOAD AND OR SWAP1 SSTORE DUP2 PUSH1 0x2 DUP12 ADD SWAP2 MLOAD AND DUP4 DUP3 SLOAD AND OR SWAP1 SSTORE PUSH1 0x3 DUP10 ADD SWAP3 MLOAD AND SWAP1 DUP3 SLOAD AND OR SWAP1 SSTORE MLOAD DUP8 DUP7 ADD SSTORE MLOAD PUSH1 0x5 DUP6 ADD SSTORE MLOAD PUSH1 0x6 DUP5 ADD SSTORE MLOAD PUSH1 0x7 DUP4 ADD SSTORE MLOAD ISZERO ISZERO SWAP1 PUSH1 0x8 ADD SWAP1 PUSH2 0x83E SWAP2 SWAP1 PUSH1 0xFF DUP1 NOT DUP4 SLOAD AND SWAP2 ISZERO ISZERO AND OR SWAP1 SSTORE JUMP JUMPDEST CALLER DUP2 MSTORE PUSH1 0x2 DUP9 MSTORE DUP6 DUP2 KECCAK256 DUP1 SLOAD SWAP3 PUSH1 0x1 PUSH1 0x40 SHL DUP5 LT ISZERO PUSH2 0x2DA JUMPI PUSH1 0x1 DUP5 ADD DUP1 DUP4 SSTORE DUP5 LT ISZERO PUSH2 0x2C7 JUMPI POP DUP2 DUP10 SWAP2 DUP10 SWAP5 SWAP4 MSTORE KECCAK256 ADD SSTORE DUP4 MLOAD SWAP3 DUP4 MSTORE DUP6 DUP4 ADD MSTORE CALLVALUE DUP4 DUP4 ADD MSTORE PUSH1 0x60 DUP3 ADD MSTORE DUP3 PUSH32 0xA4BE1E061958D160DE04DB54668A64922C36D2765B16644AE91ACF127708970E PUSH1 0x80 CALLER SWAP4 LOG3 MLOAD SWAP1 DUP2 MSTORE RETURN JUMPDEST POP POP POP MLOAD PUSH4 0xD92E233D PUSH1 0xE0 SHL DUP2 MSTORE REVERT JUMPDEST POP PUSH20 0xEEEEEEEEEEEEEEEEEEEEEEEEEEEEEEEEEEEEEEEE DUP2 EQ PUSH2 0x744 JUMP JUMPDEST POP POP MLOAD PUSH4 0x1F2A2005 PUSH1 0xE0 SHL DUP2 MSTORE REVERT JUMPDEST POP DUP1 ISZERO PUSH2 0x72C JUMP JUMPDEST DUP4 DUP3 CALLVALUE PUSH2 0x677 JUMPI DUP2 PUSH1 0x3 NOT CALLDATASIZE ADD SLT PUSH2 0x677 JUMPI PUSH1 0x20 SWAP2 SLOAD SWAP1 MLOAD SWAP1 DUP2 MSTORE RETURN JUMPDEST POP SWAP1 PUSH1 0x20 SWAP2 DUP3 PUSH1 0x3 NOT CALLDATASIZE ADD SLT PUSH2 0xAF0 JUMPI DUP2 CALLDATALOAD SWAP2 DUP3 DUP6 MSTORE PUSH1 0x1 DUP5 MSTORE DUP2 DUP6 KECCAK256 SWAP4 PUSH2 0x938 DUP6 PUSH2 0x1233 JUMP JUMPDEST CALLVALUE ISZERO PUSH2 0xAE1 JUMPI PUSH1 0x3 DUP6 ADD SLOAD PUSH1 0x1 PUSH1 0x1 PUSH1 0xA0 SHL SUB SWAP3 SWAP1 DUP4 AND PUSH20 0xEEEEEEEEEEEEEEEEEEEEEEEEEEEEEEEEEEEEEEED NOT ADD PUSH2 0xAD3 JUMPI PUSH1 0x5 DUP7 ADD SLOAD SWAP3 PUSH1 0x7 DUP8 ADD SWAP7 DUP8 SLOAD SWAP8 PUSH2 0x982 DUP10 DUP8 PUSH2 0x10A7 JUMP JUMPDEST DUP1 CALLVALUE GT PUSH1 0x0 EQ PUSH2 0xAC8 JUMPI PUSH2 0x99F SWAP1 SWAP7 JUMPDEST PUSH2 0x456 DUP7 DUP6 ADD SLOAD DUP10 PUSH2 0x10B4 JUMP JUMPDEST SWAP9 DUP10 ISZERO PUSH2 0xAB8 JUMPI DUP7 PUSH2 0x9B0 SWAP2 PUSH2 0x10E7 JUMP JUMPDEST SWAP1 SSTORE PUSH1 0x6 DUP2 ADD PUSH2 0x9C1 DUP10 DUP3 SLOAD PUSH2 0x10E7 JUMP JUMPDEST SWAP1 SSTORE DUP9 DUP1 DUP1 DUP1 DUP9 DUP7 PUSH1 0x1 DUP8 ADD SLOAD AND GAS CALL PUSH2 0x9D9 PUSH2 0x10F4 JUMP JUMPDEST POP ISZERO PUSH2 0xAA8 JUMPI PUSH1 0x2 ADD SLOAD DUP6 MLOAD PUSH4 0xA9059CBB PUSH1 0xE0 SHL DUP2 MSTORE CALLER DUP5 DUP3 ADD SWAP1 DUP2 MSTORE PUSH1 0x20 DUP2 ADD DUP11 SWAP1 MSTORE SWAP1 SWAP3 DUP6 SWAP3 DUP5 SWAP3 DUP4 SWAP1 SUB PUSH1 0x40 ADD SWAP2 DUP4 SWAP2 DUP14 SWAP2 AND GAS CALL SWAP1 DUP2 ISZERO PUSH2 0x5CF JUMPI DUP9 SWAP2 PUSH2 0xA8B JUMPI JUMPDEST POP ISZERO PUSH2 0x538 JUMPI DUP3 CALLVALUE GT PUSH2 0xA5F JUMPI JUMPDEST POP DUP3 MLOAD SWAP5 DUP6 MSTORE DUP5 ADD MSTORE CALLER SWAP3 PUSH32 0x36A54E61F475A84CD4A5C3B403BE29E6101B05EC843B61FB97C3E123FF59B3F4 SWAP2 SWAP1 LOG3 DUP1 RETURN JUMPDEST DUP7 DUP1 DUP1 DUP1 PUSH2 0xA6D DUP8 CALLVALUE PUSH2 0x10A7 JUMP JUMPDEST CALLER GAS CALL PUSH2 0xA78 PUSH2 0x10F4 JUMP JUMPDEST POP PUSH2 0xA2D JUMPI DUP4 MLOAD PUSH4 0x12171D83 PUSH1 0xE3 SHL DUP2 MSTORE REVERT JUMPDEST PUSH2 0xAA2 SWAP2 POP DUP4 RETURNDATASIZE DUP6 GT PUSH2 0x322 JUMPI PUSH2 0x314 DUP2 DUP4 PUSH2 0x1048 JUMP JUMPDEST CODESIZE PUSH2 0xA1F JUMP JUMPDEST DUP6 MLOAD PUSH4 0x12171D83 PUSH1 0xE3 SHL DUP2 MSTORE DUP4 SWAP1 REVERT JUMPDEST DUP8 MLOAD PUSH4 0x3E0526E5 PUSH1 0xE0 SHL DUP2 MSTORE DUP6 SWAP1 REVERT JUMPDEST POP PUSH2 0x99F CALLVALUE SWAP7 PUSH2 0x992 JUMP JUMPDEST DUP4 MLOAD PUSH4 0xD92E233D PUSH1 0xE0 SHL DUP2 MSTORE REVERT JUMPDEST POP SWAP1 MLOAD PUSH4 0x1F2A2005 PUSH1 0xE0 SHL DUP2 MSTORE REVERT JUMPDEST DUP4 DUP1 REVERT JUMPDEST POP DUP3 SWAP1 CALLVALUE PUSH2 0x677 JUMPI DUP1 PUSH1 0x3 NOT CALLDATASIZE ADD SLT PUSH2 0x677 JUMPI PUSH2 0xB0F PUSH2 0xF80 JUMP JUMPDEST SWAP3 PUSH2 0xB18 PUSH2 0xF9B JUMP JUMPDEST DUP4 SLOAD SWAP4 SWAP5 DUP6 SWAP5 SWAP3 PUSH1 0x1 PUSH1 0x1 PUSH1 0xA0 SHL SUB SWAP2 DUP3 AND SWAP3 SWAP2 SWAP1 DUP7 JUMPDEST DUP6 DUP2 LT PUSH2 0xC79 JUMPI POP PUSH2 0xB40 DUP9 PUSH2 0x11F1 JUMP JUMPDEST SWAP8 PUSH2 0xB4D DUP8 MLOAD SWAP10 DUP11 PUSH2 0x1048 JUMP JUMPDEST DUP1 DUP10 MSTORE PUSH2 0xB5C PUSH1 0x1F NOT SWAP2 PUSH2 0x11F1 JUMP JUMPDEST ADD DUP8 JUMPDEST DUP2 DUP2 LT PUSH2 0xC62 JUMPI POP POP DUP7 SWAP3 DUP8 JUMPDEST DUP7 DUP2 LT PUSH2 0xBBF JUMPI DUP9 DUP9 DUP12 DUP2 MLOAD SWAP2 PUSH1 0x20 DUP1 DUP1 DUP6 ADD SWAP3 DUP2 DUP7 MSTORE DUP5 MLOAD DUP1 SWAP5 MSTORE DUP6 ADD SWAP4 ADD SWAP5 JUMPDEST DUP3 DUP2 LT PUSH2 0xB9B JUMPI DUP5 DUP5 SUB DUP6 RETURN JUMPDEST SWAP1 SWAP2 SWAP3 DUP3 PUSH2 0x120 DUP3 PUSH2 0xBB0 PUSH1 0x1 SWAP5 DUP11 MLOAD PUSH2 0xFB1 JUMP JUMPDEST ADD SWAP7 ADD SWAP2 ADD SWAP5 SWAP3 SWAP2 SWAP1 SWAP5 PUSH2 0xB8E JUMP JUMPDEST DUP1 DUP10 MSTORE PUSH1 0x1 PUSH1 0x20 MSTORE DUP8 DUP10 KECCAK256 DUP11 DUP8 DUP7 PUSH1 0x2 DUP5 ADD SLOAD AND EQ DUP1 PUSH2 0xC51 JUMPI JUMPDEST DUP1 PUSH2 0xC42 JUMPI JUMPDEST DUP1 PUSH2 0xC32 JUMPI JUMPDEST PUSH2 0xBFB JUMPI JUMPDEST POP POP PUSH2 0xBF6 SWAP1 PUSH2 0x1082 JUMP JUMPDEST PUSH2 0xB6C JUMP JUMPDEST PUSH2 0xC17 PUSH2 0xC2A SWAP2 PUSH2 0xC23 DUP10 PUSH2 0xC1D PUSH2 0xBF6 SWAP8 SWAP7 SWAP12 SWAP5 DUP6 SWAP3 PUSH2 0x1082 JUMP JUMPDEST SWAP12 PUSH2 0x1179 JUMP JUMPDEST SWAP3 PUSH2 0x1209 JUMP JUMPDEST MSTORE DUP13 PUSH2 0x1209 JUMP JUMPDEST POP SWAP1 DUP11 PUSH2 0xBEB JUMP JUMPDEST POP PUSH1 0x6 DUP3 ADD SLOAD DUP6 DUP4 ADD SLOAD GT PUSH2 0xBE6 JUMP JUMPDEST POP PUSH1 0xFF PUSH1 0x8 DUP4 ADD SLOAD AND ISZERO PUSH2 0xBE0 JUMP JUMPDEST POP DUP6 PUSH1 0x3 DUP4 ADD SLOAD AND DUP7 DUP6 AND EQ PUSH2 0xBDA JUMP JUMPDEST PUSH1 0x20 SWAP1 PUSH2 0xC6D PUSH2 0x1134 JUMP JUMPDEST DUP3 DUP3 DUP14 ADD ADD MSTORE ADD PUSH2 0xB5F JUMP JUMPDEST DUP1 DUP9 MSTORE PUSH1 0x1 PUSH1 0x20 MSTORE DUP7 DUP9 KECCAK256 DUP6 DUP5 PUSH1 0x2 DUP4 ADD SLOAD AND EQ SWAP1 DUP2 PUSH2 0xCEB JUMPI JUMPDEST DUP2 PUSH2 0xCDB JUMPI JUMPDEST DUP2 PUSH2 0xCC9 JUMPI JUMPDEST POP PUSH2 0xCB4 JUMPI JUMPDEST PUSH2 0xCAF SWAP1 PUSH2 0x1082 JUMP JUMPDEST PUSH2 0xB2F JUMP JUMPDEST SWAP8 PUSH2 0xCC1 PUSH2 0xCAF SWAP2 PUSH2 0x1082 JUMP JUMPDEST SWAP9 SWAP1 POP PUSH2 0xCA6 JUMP JUMPDEST SWAP1 POP DUP3 PUSH1 0x6 DUP3 ADD SLOAD SWAP2 ADD SLOAD GT DUP11 PUSH2 0xCA0 JUMP JUMPDEST PUSH1 0x8 DUP2 ADD SLOAD PUSH1 0xFF AND ISZERO SWAP2 POP PUSH2 0xC9A JUMP JUMPDEST SWAP1 POP DUP4 PUSH1 0x3 DUP3 ADD SLOAD AND DUP5 DUP7 AND EQ SWAP1 PUSH2 0xC94 JUMP JUMPDEST POP DUP3 CALLVALUE PUSH2 0xDAB JUMPI PUSH1 0x20 SWAP1 DUP2 PUSH1 0x3 NOT CALLDATASIZE ADD SLT PUSH2 0xDAB JUMPI DUP3 SWAP1 PUSH1 0x1 PUSH1 0x1 PUSH1 0xA0 SHL SUB PUSH2 0xD25 PUSH2 0xF80 JUMP JUMPDEST AND DUP2 MSTORE PUSH1 0x2 DUP4 MSTORE DUP2 DUP2 KECCAK256 SWAP1 DUP3 MLOAD DUP1 DUP6 DUP5 SLOAD SWAP2 DUP3 DUP2 MSTORE ADD SWAP1 DUP2 SWAP5 DUP5 MSTORE DUP7 DUP5 KECCAK256 SWAP1 DUP5 JUMPDEST DUP2 DUP2 LT PUSH2 0xD97 JUMPI POP POP POP DUP2 PUSH2 0xD5C SWAP2 SUB DUP3 PUSH2 0x1048 JUMP JUMPDEST DUP4 MLOAD SWAP5 DUP6 SWAP5 DUP2 DUP7 ADD SWAP3 DUP3 DUP8 MSTORE MLOAD DUP1 SWAP4 MSTORE DUP6 ADD SWAP4 SWAP3 JUMPDEST DUP3 DUP2 LT PUSH2 0xD80 JUMPI POP POP POP POP SUB SWAP1 RETURN JUMPDEST DUP4 MLOAD DUP6 MSTORE DUP7 SWAP6 POP SWAP4 DUP2 ADD SWAP4 SWAP3 DUP2 ADD SWAP3 PUSH1 0x1 ADD PUSH2 0xD71 JUMP JUMPDEST DUP3 SLOAD DUP5 MSTORE SWAP3 DUP9 ADD SWAP3 PUSH1 0x1 SWAP3 DUP4 ADD SWAP3 ADD PUSH2 0xD46 JUMP JUMPDEST DUP1 REVERT JUMPDEST POP SWAP1 CALLVALUE PUSH2 0x37E JUMPI PUSH1 0x20 SWAP2 DUP3 PUSH1 0x3 NOT CALLDATASIZE ADD SLT PUSH2 0xAF0 JUMPI DUP2 CALLDATALOAD SWAP3 DUP4 DUP6 MSTORE PUSH1 0x1 DUP2 MSTORE DUP2 DUP6 KECCAK256 SWAP3 PUSH2 0xDDA DUP5 PUSH2 0x1233 JUMP JUMPDEST PUSH1 0x1 DUP5 ADD DUP1 SLOAD PUSH1 0x1 PUSH1 0x1 PUSH1 0xA0 SHL SUB SWAP3 SWAP1 DUP4 AND CALLER DUP2 SWAP1 SUB PUSH2 0xF1F JUMPI PUSH1 0x8 DUP8 ADD DUP1 SLOAD PUSH1 0xFF NOT AND PUSH1 0x1 OR SWAP1 SSTORE DUP2 DUP8 ADD SLOAD PUSH1 0x6 DUP9 ADD SLOAD PUSH2 0xE15 SWAP2 PUSH2 0x10A7 JUMP JUMPDEST SWAP7 DUP8 PUSH2 0xE46 JUMPI JUMPDEST DUP10 CALLER DUP11 PUSH32 0xC0362DA6F2FF36B382B34AEC0814F6B3CDF89F5EF282A1D1F114D0C0B036D596 DUP4 DUP1 LOG3 DUP1 RETURN JUMPDEST PUSH1 0x2 ADD SLOAD DUP5 AND SWAP1 PUSH20 0xEEEEEEEEEEEEEEEEEEEEEEEEEEEEEEEEEEEEEEEE DUP3 SUB PUSH2 0xE93 JUMPI POP POP POP SWAP2 PUSH1 0x3 SWAP2 PUSH2 0xE83 SWAP5 SWAP4 SLOAD AND DUP8 MSTORE MSTORE DUP5 KECCAK256 SWAP2 DUP3 SLOAD PUSH2 0x10E7 JUMP JUMPDEST SWAP1 SSTORE JUMPDEST CODESIZE DUP1 DUP1 DUP1 DUP1 DUP1 DUP1 DUP1 PUSH2 0xE1C JUMP JUMPDEST DUP7 MLOAD PUSH4 0xA9059CBB PUSH1 0xE0 SHL DUP2 MSTORE PUSH1 0x1 PUSH1 0x1 PUSH1 0xA0 SHL SUB SWAP1 SWAP2 AND DUP2 DUP5 ADD SWAP1 DUP2 MSTORE PUSH1 0x20 DUP2 ADD SWAP9 SWAP1 SWAP9 MSTORE SWAP2 SWAP7 SWAP2 SWAP4 POP DUP5 SWAP3 POP DUP4 SWAP2 DUP3 SWAP1 DUP11 SWAP1 DUP3 SWAP1 PUSH1 0x40 ADD SUB SWAP3 GAS CALL SWAP2 DUP3 ISZERO PUSH2 0xF15 JUMPI DUP7 SWAP3 PUSH2 0xEF8 JUMPI JUMPDEST POP POP ISZERO PUSH2 0xEEB JUMPI POP POP PUSH2 0xE86 JUMP JUMPDEST MLOAD PUSH4 0x12171D83 PUSH1 0xE3 SHL DUP2 MSTORE REVERT JUMPDEST PUSH2 0xF0E SWAP3 POP DUP1 RETURNDATASIZE LT PUSH2 0x322 JUMPI PUSH2 0x314 DUP2 DUP4 PUSH2 0x1048 JUMP JUMPDEST CODESIZE DUP1 PUSH2 0xEDD JUMP JUMPDEST DUP4 MLOAD RETURNDATASIZE DUP9 DUP3 RETURNDATACOPY RETURNDATASIZE SWAP1 REVERT JUMPDEST POP DUP5 MLOAD PUSH4 0xB331E421 PUSH1 0xE0 SHL DUP2 MSTORE REVERT JUMPDEST DUP4 DUP3 CALLVALUE PUSH2 0x677 JUMPI PUSH1 0x20 CALLDATASIZE PUSH1 0x3 NOT ADD SLT PUSH2 0x677 JUMPI PUSH1 0x20 SWAP2 DUP2 SWAP1 PUSH1 0x1 PUSH1 0x1 PUSH1 0xA0 SHL SUB PUSH2 0xF56 PUSH2 0xF80 JUMP JUMPDEST AND DUP2 MSTORE PUSH1 0x3 DUP5 MSTORE KECCAK256 SLOAD SWAP1 MLOAD SWAP1 DUP2 MSTORE RETURN JUMPDEST DUP5 SWAP1 CALLVALUE PUSH2 0x677 JUMPI DUP2 PUSH1 0x3 NOT CALLDATASIZE ADD SLT PUSH2 0x677 JUMPI PUSH1 0x20 SWAP2 SLOAD DUP2 MSTORE RETURN JUMPDEST PUSH1 0x4 CALLDATALOAD SWAP1 PUSH1 0x1 PUSH1 0x1 PUSH1 0xA0 SHL SUB DUP3 AND DUP3 SUB PUSH2 0xF96 JUMPI JUMP JUMPDEST PUSH1 0x0 DUP1 REVERT JUMPDEST PUSH1 0x24 CALLDATALOAD SWAP1 PUSH1 0x1 PUSH1 0x1 PUSH1 0xA0 SHL SUB DUP3 AND DUP3 SUB PUSH2 0xF96 JUMPI JUMP JUMPDEST DUP1 MLOAD DUP3 MSTORE PUSH1 0x1 DUP1 PUSH1 0xA0 SHL SUB DUP1 PUSH1 0x20 DUP4 ADD MLOAD AND PUSH1 0x20 DUP5 ADD MSTORE DUP1 PUSH1 0x40 DUP4 ADD MLOAD AND PUSH1 0x40 DUP5 ADD MSTORE PUSH1 0x60 DUP3 ADD MLOAD AND PUSH1 0x60 DUP4 ADD MSTORE PUSH1 0x80 DUP2 ADD MLOAD PUSH1 0x80 DUP4 ADD MSTORE PUSH1 0xA0 DUP2 ADD MLOAD PUSH1 0xA0 DUP4 ADD MSTORE PUSH1 0xC0 DUP2 ADD MLOAD PUSH1 0xC0 DUP4 ADD MSTORE PUSH1 0xE0 DUP2 ADD MLOAD PUSH1 0xE0 DUP4 ADD MSTORE PUSH2 0x100 DUP1 SWAP2 ADD MLOAD ISZERO ISZERO SWAP2 ADD MSTORE JUMP JUMPDEST PUSH2 0x120 DUP2 ADD SWAP1 DUP2 LT PUSH8 0xFFFFFFFFFFFFFFFF DUP3 GT OR PUSH2 0x1032 JUMPI PUSH1 0x40 MSTORE JUMP JUMPDEST PUSH4 0x4E487B71 PUSH1 0xE0 SHL PUSH1 0x0 MSTORE PUSH1 0x41 PUSH1 0x4 MSTORE PUSH1 0x24 PUSH1 0x0 REVERT JUMPDEST SWAP1 PUSH1 0x1F DUP1 NOT SWAP2 ADD AND DUP2 ADD SWAP1 DUP2 LT PUSH8 0xFFFFFFFFFFFFFFFF DUP3 GT OR PUSH2 0x1032 JUMPI PUSH1 0x40 MSTORE JUMP JUMPDEST SWAP1 DUP2 PUSH1 0x20 SWAP2 SUB SLT PUSH2 0xF96 JUMPI MLOAD DUP1 ISZERO ISZERO DUP2 SUB PUSH2 0xF96 JUMPI SWAP1 JUMP JUMPDEST PUSH1 0x0 NOT DUP2 EQ PUSH2 0x1091 JUMPI PUSH1 0x1 ADD SWAP1 JUMP JUMPDEST PUSH4 0x4E487B71 PUSH1 0xE0 SHL PUSH1 0x0 MSTORE PUSH1 0x11 PUSH1 0x4 MSTORE PUSH1 0x24 PUSH1 0x0 REVERT JUMPDEST SWAP2 SWAP1 DUP3 SUB SWAP2 DUP3 GT PUSH2 0x1091 JUMPI JUMP JUMPDEST DUP2 DUP2 MUL SWAP3 SWAP2 DUP2 ISZERO SWAP2 DUP5 DIV EQ OR ISZERO PUSH2 0x1091 JUMPI JUMP JUMPDEST DUP2 ISZERO PUSH2 0x10D1 JUMPI DIV SWAP1 JUMP JUMPDEST PUSH4 0x4E487B71 PUSH1 0xE0 SHL PUSH1 0x0 MSTORE PUSH1 0x12 PUSH1 0x4 MSTORE PUSH1 0x24 PUSH1 0x0 REVERT JUMPDEST SWAP2 SWAP1 DUP3 ADD DUP1 SWAP3 GT PUSH2 0x1091 JUMPI JUMP JUMPDEST RETURNDATASIZE ISZERO PUSH2 0x112F JUMPI RETURNDATASIZE SWAP1 PUSH8 0xFFFFFFFFFFFFFFFF DUP3 GT PUSH2 0x1032 JUMPI PUSH1 0x40 MLOAD SWAP2 PUSH2 0x1123 PUSH1 0x1F DUP3 ADD PUSH1 0x1F NOT AND PUSH1 0x20 ADD DUP5 PUSH2 0x1048 JUMP JUMPDEST DUP3 MSTORE RETURNDATASIZE PUSH1 0x0 PUSH1 0x20 DUP5 ADD RETURNDATACOPY JUMP JUMPDEST PUSH1 0x60 SWAP1 JUMP JUMPDEST PUSH1 0x40 MLOAD SWAP1 PUSH2 0x1141 DUP3 PUSH2 0x1015 JUMP JUMPDEST DUP2 PUSH2 0x100 PUSH1 0x0 SWAP2 DUP3 DUP2 MSTORE DUP3 PUSH1 0x20 DUP3 ADD MSTORE DUP3 PUSH1 0x40 DUP3 ADD MSTORE DUP3 PUSH1 0x60 DUP3 ADD MSTORE DUP3 PUSH1 0x80 DUP3 ADD MSTORE DUP3 PUSH1 0xA0 DUP3 ADD MSTORE DUP3 PUSH1 0xC0 DUP3 ADD MSTORE DUP3 PUSH1 0xE0 DUP3 ADD MSTORE ADD MSTORE JUMP JUMPDEST SWAP1 PUSH1 0x40 MLOAD PUSH2 0x1186 DUP2 PUSH2 0x1015 JUMP JUMPDEST DUP3 SLOAD DUP2 MSTORE PUSH1 0x1 DUP4 ADD SLOAD PUSH1 0x1 PUSH1 0x1 PUSH1 0xA0 SHL SUB SWAP1 DUP2 AND PUSH1 0x20 DUP4 ADD MSTORE PUSH1 0x2 DUP5 ADD SLOAD DUP2 AND PUSH1 0x40 DUP4 ADD MSTORE PUSH1 0x3 DUP5 ADD SLOAD AND PUSH1 0x60 DUP3 ADD MSTORE PUSH1 0x4 DUP4 ADD SLOAD PUSH1 0x80 DUP3 ADD MSTORE PUSH1 0x5 DUP4 ADD SLOAD PUSH1 0xA0 DUP3 ADD MSTORE PUSH1 0x6 DUP4 ADD SLOAD PUSH1 0xC0 DUP3 ADD MSTORE PUSH1 0x7 DUP4 ADD SLOAD PUSH1 0xE0 DUP3 ADD MSTORE PUSH1 0x8 SWAP1 SWAP3 ADD SLOAD PUSH1 0xFF AND ISZERO ISZERO PUSH2 0x100 DUP4 ADD MSTORE JUMP JUMPDEST PUSH8 0xFFFFFFFFFFFFFFFF DUP2 GT PUSH2 0x1032 JUMPI PUSH1 0x5 SHL PUSH1 0x20 ADD SWAP1 JUMP JUMPDEST DUP1 MLOAD DUP3 LT ISZERO PUSH2 0x121D JUMPI PUSH1 0x20 SWAP2 PUSH1 0x5 SHL ADD ADD SWAP1 JUMP JUMPDEST PUSH4 0x4E487B71 PUSH1 0xE0 SHL PUSH1 0x0 MSTORE PUSH1 0x32 PUSH1 0x4 MSTORE PUSH1 0x24 PUSH1 0x0 REVERT JUMPDEST PUSH1 0xFF PUSH1 0x8 DUP3 ADD SLOAD AND PUSH2 0x1251 JUMPI PUSH1 0x4 PUSH1 0x6 DUP3 ADD SLOAD SWAP2 ADD SLOAD GT ISZERO PUSH2 0x1251 JUMPI JUMP JUMPDEST PUSH1 0x40 MLOAD PUSH4 0x1D4ECC5B PUSH1 0xE0 SHL DUP2 MSTORE PUSH1 0x4 SWAP1 REVERT INVALID LOG2 PUSH5 0x6970667358 0x22 SLT KECCAK256 STATICCALL ADDRESS 0x28 0xEE RETURNDATASIZE 0xF 0xCD CODESIZE 0x27 RETURNDATASIZE 0xBC PC 0x5D GT 0xAE PUSH1 0xA7 PUSH12 0x8375F65A7B8B3DD1A6F06FA3 EXTCODEHASH 0x2B PUSH5 0x736F6C6343 STOP ADDMOD EQ STOP CALLER "},"methodIdentifiers":{"ETH_ADDRESS()":"a734f06e","cancelOrder(uint256)":"514fcac7","createOrder(address,address,uint256,uint256)":"fe879918","createOrderSellETH(address,uint256)":"9aa76c94","ethBalances(address)":"3cfba0e3","fillOrder(uint256,uint256)":"c37dfc5b","fillOrderWithETH(uint256)":"84d8f823","getActiveOrders(address,address)":"7c140218","getOrder(uint256)":"d09ef241","getOrderCount()":"8d0a5fbb","getUserOrders(address)":"63c69f08","nextOrderId()":"2a58b330","withdrawEth()":"a0ef91df"}}}}}