{"contracts/orbital/OrbitalRouter.sol":{"OrbitalRouter":{"abi":[{"inputs":[{"internalType":"address","name":"_factory","type":"address"}],"stateMutability":"nonpayable","type":"constructor"},{"inputs":[],"name":"DeadlineExpired","type":"error"},{"inputs":[],"name":"InsufficientAllowance","type":"error"},{"inputs":[],"name":"InvalidPath","type":"error"},{"inputs":[],"name":"PoolNotFound","type":"error"},{"inputs":[],"name":"SlippageExceeded","type":"error"},{"inputs":[],"name":"TokenNotInPool","type":"error"},{"inputs":[],"name":"TransferFailed","type":"error"},{"inputs":[],"name":"ZeroAmount","type":"error"},{"anonymous":false,"inputs":[{"indexed":true,"internalType":"address","name":"sender","type":"address"},{"indexed":true,"internalType":"address","name":"pool","type":"address"},{"indexed":false,"internalType":"uint256","name":"lpMinted","type":"uint256"}],"name":"LiquidityAdded","type":"event"},{"anonymous":false,"inputs":[{"indexed":true,"internalType":"address","name":"sender","type":"address"},{"indexed":true,"internalType":"address","name":"pool","type":"address"},{"indexed":false,"internalType":"uint256","name":"lpBurned","type":"uint256"}],"name":"LiquidityRemoved","type":"event"},{"anonymous":false,"inputs":[{"indexed":true,"internalType":"address","name":"sender","type":"address"},{"indexed":true,"internalType":"address","name":"pool","type":"address"},{"indexed":false,"internalType":"address","name":"tokenIn","type":"address"},{"indexed":false,"internalType":"address","name":"tokenOut","type":"address"},{"indexed":false,"internalType":"uint256","name":"amountIn","type":"uint256"},{"indexed":false,"internalType":"uint256","name":"amountOut","type":"uint256"}],"name":"SwapExecuted","type":"event"},{"inputs":[{"internalType":"address","name":"pool","type":"address"},{"internalType":"uint256[]","name":"amounts","type":"uint256[]"},{"internalType":"uint256","name":"minLiquidity","type":"uint256"},{"internalType":"uint256","name":"deadline","type":"uint256"}],"name":"addLiquidity","outputs":[{"internalType":"uint256","name":"liquidity","type":"uint256"}],"stateMutability":"nonpayable","type":"function"},{"inputs":[{"internalType":"address","name":"pool","type":"address"},{"internalType":"address","name":"tokenIn","type":"address"},{"internalType":"address","name":"tokenOut","type":"address"},{"internalType":"uint256","name":"amountIn","type":"uint256"}],"name":"getAmountOut","outputs":[{"internalType":"uint256","name":"amountOut","type":"uint256"},{"internalType":"uint256","name":"feeAmount","type":"uint256"}],"stateMutability":"view","type":"function"},{"inputs":[{"internalType":"address[]","name":"pools","type":"address[]"},{"internalType":"address[]","name":"tokenPath","type":"address[]"},{"internalType":"uint256","name":"amountIn","type":"uint256"}],"name":"getAmountOutMultiHop","outputs":[{"internalType":"uint256","name":"amountOut","type":"uint256"}],"stateMutability":"view","type":"function"},{"inputs":[],"name":"orbitalFactory","outputs":[{"internalType":"contract OrbitalFactory","name":"","type":"address"}],"stateMutability":"view","type":"function"},{"inputs":[{"internalType":"address","name":"pool","type":"address"},{"internalType":"uint256","name":"liquidity","type":"uint256"},{"internalType":"uint256[]","name":"minAmounts","type":"uint256[]"},{"internalType":"uint256","name":"deadline","type":"uint256"}],"name":"removeLiquidity","outputs":[{"internalType":"uint256[]","name":"amounts","type":"uint256[]"}],"stateMutability":"nonpayable","type":"function"},{"inputs":[{"internalType":"address","name":"pool","type":"address"},{"internalType":"address","name":"tokenIn","type":"address"},{"internalType":"address","name":"tokenOut","type":"address"},{"internalType":"uint256","name":"amountIn","type":"uint256"},{"internalType":"uint256","name":"minAmountOut","type":"uint256"},{"internalType":"uint256","name":"deadline","type":"uint256"}],"name":"swap","outputs":[{"internalType":"uint256","name":"amountOut","type":"uint256"}],"stateMutability":"nonpayable","type":"function"},{"inputs":[{"internalType":"address[]","name":"pools","type":"address[]"},{"internalType":"address[]","name":"tokenPath","type":"address[]"},{"internalType":"uint256","name":"amountIn","type":"uint256"},{"internalType":"uint256","name":"minAmountOut","type":"uint256"},{"internalType":"uint256","name":"deadline","type":"uint256"}],"name":"swapMultiHop","outputs":[{"internalType":"uint256","name":"amountOut","type":"uint256"}],"stateMutability":"nonpayable","type":"function"}],"evm":{"bytecode":{"linkReferences":{},"object":"60a03461006c57601f6115e538819003918201601f19168301916001600160401b038311848410176100715780849260209460405283398101031261006c57516001600160a01b0381169081900361006c5760805260405161155d9081610088823960805181610bd30152f35b600080fd5b634e487b7160e01b600052604160045260246000fdfe608080604052600436101561001357600080fd5b60003560e01c9081632d94e2fa14610ecc5750806375ce8b8314610c02578063afdc876514610bbd578063bd0cfd1c1461083b578063d3b7634f146104ed578063d7176ca9146102d25763faea590a1461006c57600080fd5b3461026b57606036600319011261026b5767ffffffffffffffff60043581811161026b5761009e903690600401611178565b9160243590811161026b576100b7903690600401611178565b839193156102c057600182018083116102785781036102c0579190604435926000925b8284106100ec57602085604051908152f35b9293919290916001600160a01b0361010d6101088787866111fd565b61120d565b169061011d61010887868a6111fd565b6040516319b02f4960e21b81526001600160a01b039091166004820152602081602481865afa90811561022b5760009161028e575b506001870187116102785761016e61010860018901878b6111fd565b6040516319b02f4960e21b81526001600160a01b03909116600482015290602082602481875afa91821561022b57600092610237575b5060408051630153543560e21b8152600481019290925260248201929092526044810192909252909182908180606481015b03915afa801561022b576101f3916000916101fb575b5094611221565b9291906100da565b61021d915060403d604011610224575b61021581836111db565b81019061129f565b50386101ec565b503d61020b565b6040513d6000823e3d90fd5b929150926020833d602011610270575b81610254602093836111db565b8101031261026b57915191929091906101d66101a4565b600080fd5b3d9150610247565b634e487b7160e01b600052601160045260246000fd5b90506020813d6020116102b8575b816102a9602093836111db565b8101031261026b575138610152565b3d915061029c565b6040516320db826760e01b8152600490fd5b3461026b57608036600319011261026b576102eb611136565b6102f361114c565b906102fc611162565b6040516319b02f4960e21b8082526001600160a01b0394851660048301526020949384169390928583602481885afa92831561022b576000936104be575b506040519384521660048301528382602481865afa91821561022b5760009261048f575b50604051638e499bcf60e01b808252908581600481885afa90811561022b57600091610462575b50821015610423576040519081528481600481875afa90811561022b57600091610435575b508210156104235760408051630153543560e21b815260048101929092526024820192909252606480356044830152909283919082905afa801561022b57604092600092600092610401575b508351928352820152f35b90925061041b9150833d85116102245761021581836111db565b9091846103f6565b604051630732619560e01b8152600490fd5b90508481813d831161045b575b61044c81836111db565b8101031261026b5751856103aa565b503d610442565b90508581813d8311610488575b61047981836111db565b8101031261026b575186610385565b503d61046f565b9091508381813d83116104b7575b6104a781836111db565b8101031261026b5751908461035e565b503d61049d565b9092508581813d83116104e6575b6104d681836111db565b8101031261026b5751918661033a565b503d6104cc565b3461026b57608036600319011261026b57610506611136565b60249067ffffffffffffffff90823560443583811161026b5761052d903690600401611178565b94909360643593844211610829578315610817576040516323b872dd60e01b81523360048201523060248201526044810185905260209790966001600160a01b0392909216959190888860648160008b5af192831561022b576105bc986000946107ea575b5060405163031cd52b60e41b8152600481018890526060878201529889938493606485019161124f565b906044830152038183885af194851561022b57600095610749575b5050604051638e499bcf60e01b8152908582600481875afa91821561022b5760009261071a575b5060009594955b82811061067c575050506040519081527f983e86fda8e7b1e2eae380201830eaf1cac55772e8e39583da349865e8178863833392a36040519181839283018184528251809152816040850193019160005b82811061066557505050500390f35b835185528695509381019392810192600101610656565b6106888188979861128b565b5161069f575b61069790611221565b959495610605565b6040516327b2595f60e11b8152600481018290529087828481895afa91821561022b57610697926106e6916000916106ed575b506106dd838a61128b565b519033906114e8565b905061068e565b61070d91508a3d8c11610713575b61070581836111db565b810190611230565b8a6106d2565b503d6106fb565b9091508581813d8311610742575b61073281836111db565b8101031261026b575190866105fe565b503d610728565b909194503d806000833e61075d81836111db565b810190868183031261026b5780519083821161026b570181601f8201121561026b5780519283116107d5578260051b6040519361079c898301866111db565b8452878085019183010192831161026b5787809201905b8382106107c657505050509285806105d7565b815181529082019082016107b3565b85634e487b7160e01b60005260416004526000fd5b610809908b3d8d11610810575b61080181836111db565b810190611273565b508a610592565b503d6107f7565b604051631f2a200560e01b8152600490fd5b604051631ab7da6b60e01b8152600490fd5b3461026b5760a036600319011261026b5767ffffffffffffffff60043581811161026b5761086d903690600401611178565b9160243590811161026b57610886903690600401611178565b909260443560843542116108295781156102c057600182018083116102785783036102c0578015610817578215610ba7576108d0816108c78796949661120d565b30903390611436565b926000915b81831061092a575050506064358210610918576000198101908082116102785760209361090b61010861091094869433946111fd565b6114e8565b604051908152f35b604051638199f5f360e01b8152600490fd5b91939091906001600160a01b036109456101088786866111fd565b1661095461010887878a6111fd565b906001870187116102785761097061010860018901888b6111fd565b6040516319b02f4960e21b81526001600160a01b0384166004820152909190602081602481855afa90811561022b57600091610b75575b506040516319b02f4960e21b81526001600160a01b039093166004840152602083602481855afa92831561022b57600093610b41575b50604051638e499bcf60e01b8152602081600481865afa90811561022b57600091610b0f575b5081101561042357604051638e499bcf60e01b8152602081600481865afa90811561022b57600091610add575b5083101561042357600060a492610a5887602097610a526101088f8e8e6111fd565b906112f5565b6040519687958694630c45c5c360e41b865260048601526024850152604484015281606484015260843560848401525af1801561022b57600090610aa9575b610aa2915094611221565b91906108d5565b506020813d602011610ad5575b81610ac3602093836111db565b8101031261026b57610aa29051610a97565b3d9150610ab6565b90506020813d602011610b07575b81610af8602093836111db565b8101031261026b57518b610a30565b3d9150610aeb565b90506020813d602011610b39575b81610b2a602093836111db565b8101031261026b57518b610a03565b3d9150610b1d565b9092506020813d602011610b6d575b81610b5d602093836111db565b8101031261026b5751918a6109dd565b3d9150610b50565b90506020813d602011610b9f575b81610b90602093836111db565b8101031261026b57518a6109a7565b3d9150610b83565b634e487b7160e01b600052603260045260246000fd5b3461026b57600036600319011261026b576040517f00000000000000000000000000000000000000000000000000000000000000006001600160a01b03168152602090f35b3461026b5760c036600319011261026b57610c1b611136565b610c2361114c565b610c2b611162565b9160a43542116108295760643515610817576040516319b02f4960e21b8082526001600160a01b038085166004840181905292949293909290916020866024818787165afa95861561022b57600096610e98575b50604051908152838716918260048301526020826024818888165afa91821561022b57600092610e64575b50604051638e499bcf60e01b8152602081600481888a165afa90811561022b57600091610e32575b5087101561042357604051638e499bcf60e01b8152602081600481888a165afa90811561022b57600091610e00575b5082101561042357610d2590610d1b606435303384611436565b84606435916112f5565b60405195630c45c5c360e41b8752600487015260248601526064356044860152608435606486015260a435608486015260208560a48160008787165af194851561022b57600095610dc8575b50610d808560209733906114e8565b60405193845285840152606435604084015283606084015216907f28d00b9419287441aad457025bbaa9aaead77e93e2739080543e5261012b0eee60803392a3604051908152f35b9594506020863d602011610df8575b81610de4602093836111db565b8101031261026b5794519394610d80610d71565b3d9150610dd7565b90506020813d602011610e2a575b81610e1b602093836111db565b8101031261026b575189610d01565b3d9150610e0e565b90506020813d602011610e5c575b81610e4d602093836111db565b8101031261026b575189610cd2565b3d9150610e40565b9091506020813d602011610e90575b81610e80602093836111db565b8101031261026b57519088610caa565b3d9150610e73565b9095506020813d602011610ec4575b81610eb4602093836111db565b8101031261026b57519487610c7f565b3d9150610ea7565b3461026b57608036600319011261026b57610ee5611136565b6024803567ffffffffffffffff811161026b57610f06903690600401611178565b9190606435948542116111275750604051638e499bcf60e01b81526020956001600160a01b038616949193908785600481895afa96871561022b5788956000986110f6575b506000905b888210611055575050604051634d49e87d60e01b815260606004820152965086938493610f829160648601919061124f565b9160443590840152604483015203816000855af191821561022b57600092611026575b5060405163a9059cbb60e01b81523360048201526024810183905283816044816000865af1801561022b57611009575b506040518281527f9d278c56ba6dc86a12eefe6b43112bd6e06648eb4ec0b950ee2d783d40e2acb4843392a3604051908152f35b61101f90843d86116108105761080181836111db565b5083610fd5565b9091508281813d831161104e575b61103e81836111db565b8101031261026b57519083610fa5565b503d611034565b9095506040516327b2595f60e11b8152866004820152898185818b5afa96871561022b578a9761109f926000916110d9575b5061109382888a6111fd565b356110a5575b50611221565b90610f50565b6110d3906110c06110b7848a8c6111fd565b35303384611436565b846110cc848a8c6111fd565b35916112f5565b8b611099565b6110f09150893d8b116107135761070581836111db565b8c611087565b8681979299503d8311611120575b61110e81836111db565b8101031261026b578794519689610f4b565b503d611104565b631ab7da6b60e01b8152600490fd5b600435906001600160a01b038216820361026b57565b602435906001600160a01b038216820361026b57565b604435906001600160a01b038216820361026b57565b9181601f8401121561026b5782359167ffffffffffffffff831161026b576020808501948460051b01011161026b57565b6080810190811067ffffffffffffffff8211176111c557604052565b634e487b7160e01b600052604160045260246000fd5b90601f8019910116810190811067ffffffffffffffff8211176111c557604052565b9190811015610ba75760051b0190565b356001600160a01b038116810361026b5790565b60001981146102785760010190565b9081602091031261026b57516001600160a01b038116810361026b5790565b81835290916001600160fb1b03831161026b5760209260051b809284830137010190565b9081602091031261026b5751801515810361026b5790565b8051821015610ba75760209160051b010190565b919082604091031261026b576020825192015190565b3d156112f0573d9067ffffffffffffffff82116111c557604051916112e4601f8201601f1916602001846111db565b82523d6000602084013e565b606090565b9060409283518091636eb1769f60e11b825230600483015260018060a01b0380941693846024840152826044602095869389165afa91821561142b576000926113f9575b508110611348575b5050505050565b6113a9575b916000929183809386519081019263095ea7b360e01b84526024820152811960448201526044815261137e816111a9565b51925af161138a6112b5565b50156113995780808080611341565b516312171d8360e31b8152600490fd5b60008085518381019063095ea7b360e01b8252856024820152826044820152604481526113d5816111a9565b519082875af16113e36112b5565b5061134d5783516312171d8360e31b8152600490fd5b90918382813d8311611424575b61141081836111db565b810103126114215750519038611339565b80fd5b503d611406565b86513d6000823e3d90fd5b6040516323b872dd60e01b602082019081526001600160a01b039384166024830152939092166044830152606482019390935260009283929091839061148981608481015b03601f1981018352826111db565b51925af16114956112b5565b90159081156114b8575b506114a657565b6040516312171d8360e31b8152600490fd5b80518015159250826114cd575b50503861149f565b6114e09250602080918301019101611273565b1538806114c5565b60405163a9059cbb60e01b602082019081526001600160a01b03909316602482015260448101939093526000928392908390611489816064810161147b56fea26469706673582212209bc90da3ab50705e156817faa2281ce369a3c532c84fea6d945dd89be16f970064736f6c63430008140033","opcodes":"PUSH1 0xA0 CALLVALUE PUSH2 0x6C JUMPI PUSH1 0x1F PUSH2 0x15E5 CODESIZE DUP2 SWAP1 SUB SWAP2 DUP3 ADD PUSH1 0x1F NOT AND DUP4 ADD SWAP2 PUSH1 0x1 PUSH1 0x1 PUSH1 0x40 SHL SUB DUP4 GT DUP5 DUP5 LT OR PUSH2 0x71 JUMPI DUP1 DUP5 SWAP3 PUSH1 0x20 SWAP5 PUSH1 0x40 MSTORE DUP4 CODECOPY DUP2 ADD SUB SLT PUSH2 0x6C JUMPI MLOAD PUSH1 0x1 PUSH1 0x1 PUSH1 0xA0 SHL SUB DUP2 AND SWAP1 DUP2 SWAP1 SUB PUSH2 0x6C JUMPI PUSH1 0x80 MSTORE PUSH1 0x40 MLOAD PUSH2 0x155D SWAP1 DUP2 PUSH2 0x88 DUP3 CODECOPY PUSH1 0x80 MLOAD DUP2 PUSH2 0xBD3 ADD MSTORE RETURN JUMPDEST PUSH1 0x0 DUP1 REVERT JUMPDEST PUSH4 0x4E487B71 PUSH1 0xE0 SHL PUSH1 0x0 MSTORE PUSH1 0x41 PUSH1 0x4 MSTORE PUSH1 0x24 PUSH1 0x0 REVERT INVALID PUSH1 0x80 DUP1 PUSH1 0x40 MSTORE PUSH1 0x4 CALLDATASIZE LT ISZERO PUSH2 0x13 JUMPI PUSH1 0x0 DUP1 REVERT JUMPDEST PUSH1 0x0 CALLDATALOAD PUSH1 0xE0 SHR SWAP1 DUP2 PUSH4 0x2D94E2FA EQ PUSH2 0xECC JUMPI POP DUP1 PUSH4 0x75CE8B83 EQ PUSH2 0xC02 JUMPI DUP1 PUSH4 0xAFDC8765 EQ PUSH2 0xBBD JUMPI DUP1 PUSH4 0xBD0CFD1C EQ PUSH2 0x83B JUMPI DUP1 PUSH4 0xD3B7634F EQ PUSH2 0x4ED JUMPI DUP1 PUSH4 0xD7176CA9 EQ PUSH2 0x2D2 JUMPI PUSH4 0xFAEA590A EQ PUSH2 0x6C JUMPI PUSH1 0x0 DUP1 REVERT JUMPDEST CALLVALUE PUSH2 0x26B JUMPI PUSH1 0x60 CALLDATASIZE PUSH1 0x3 NOT ADD SLT PUSH2 0x26B JUMPI PUSH8 0xFFFFFFFFFFFFFFFF PUSH1 0x4 CALLDATALOAD DUP2 DUP2 GT PUSH2 0x26B JUMPI PUSH2 0x9E SWAP1 CALLDATASIZE SWAP1 PUSH1 0x4 ADD PUSH2 0x1178 JUMP JUMPDEST SWAP2 PUSH1 0x24 CALLDATALOAD SWAP1 DUP2 GT PUSH2 0x26B JUMPI PUSH2 0xB7 SWAP1 CALLDATASIZE SWAP1 PUSH1 0x4 ADD PUSH2 0x1178 JUMP JUMPDEST DUP4 SWAP2 SWAP4 ISZERO PUSH2 0x2C0 JUMPI PUSH1 0x1 DUP3 ADD DUP1 DUP4 GT PUSH2 0x278 JUMPI DUP2 SUB PUSH2 0x2C0 JUMPI SWAP2 SWAP1 PUSH1 0x44 CALLDATALOAD SWAP3 PUSH1 0x0 SWAP3 JUMPDEST DUP3 DUP5 LT PUSH2 0xEC JUMPI PUSH1 0x20 DUP6 PUSH1 0x40 MLOAD SWAP1 DUP2 MSTORE RETURN JUMPDEST SWAP3 SWAP4 SWAP2 SWAP3 SWAP1 SWAP2 PUSH1 0x1 PUSH1 0x1 PUSH1 0xA0 SHL SUB PUSH2 0x10D PUSH2 0x108 DUP8 DUP8 DUP7 PUSH2 0x11FD JUMP JUMPDEST PUSH2 0x120D JUMP JUMPDEST AND SWAP1 PUSH2 0x11D PUSH2 0x108 DUP8 DUP7 DUP11 PUSH2 0x11FD JUMP JUMPDEST PUSH1 0x40 MLOAD PUSH4 0x19B02F49 PUSH1 0xE2 SHL DUP2 MSTORE PUSH1 0x1 PUSH1 0x1 PUSH1 0xA0 SHL SUB SWAP1 SWAP2 AND PUSH1 0x4 DUP3 ADD MSTORE PUSH1 0x20 DUP2 PUSH1 0x24 DUP2 DUP7 GAS STATICCALL SWAP1 DUP2 ISZERO PUSH2 0x22B JUMPI PUSH1 0x0 SWAP2 PUSH2 0x28E JUMPI JUMPDEST POP PUSH1 0x1 DUP8 ADD DUP8 GT PUSH2 0x278 JUMPI PUSH2 0x16E PUSH2 0x108 PUSH1 0x1 DUP10 ADD DUP8 DUP12 PUSH2 0x11FD JUMP JUMPDEST PUSH1 0x40 MLOAD PUSH4 0x19B02F49 PUSH1 0xE2 SHL DUP2 MSTORE PUSH1 0x1 PUSH1 0x1 PUSH1 0xA0 SHL SUB SWAP1 SWAP2 AND PUSH1 0x4 DUP3 ADD MSTORE SWAP1 PUSH1 0x20 DUP3 PUSH1 0x24 DUP2 DUP8 GAS STATICCALL SWAP2 DUP3 ISZERO PUSH2 0x22B JUMPI PUSH1 0x0 SWAP3 PUSH2 0x237 JUMPI JUMPDEST POP PUSH1 0x40 DUP1 MLOAD PUSH4 0x1535435 PUSH1 0xE2 SHL DUP2 MSTORE PUSH1 0x4 DUP2 ADD SWAP3 SWAP1 SWAP3 MSTORE PUSH1 0x24 DUP3 ADD SWAP3 SWAP1 SWAP3 MSTORE PUSH1 0x44 DUP2 ADD SWAP3 SWAP1 SWAP3 MSTORE SWAP1 SWAP2 DUP3 SWAP1 DUP2 DUP1 PUSH1 0x64 DUP2 ADD JUMPDEST SUB SWAP2 GAS STATICCALL DUP1 ISZERO PUSH2 0x22B JUMPI PUSH2 0x1F3 SWAP2 PUSH1 0x0 SWAP2 PUSH2 0x1FB JUMPI JUMPDEST POP SWAP5 PUSH2 0x1221 JUMP JUMPDEST SWAP3 SWAP2 SWAP1 PUSH2 0xDA JUMP JUMPDEST PUSH2 0x21D SWAP2 POP PUSH1 0x40 RETURNDATASIZE PUSH1 0x40 GT PUSH2 0x224 JUMPI JUMPDEST PUSH2 0x215 DUP2 DUP4 PUSH2 0x11DB JUMP JUMPDEST DUP2 ADD SWAP1 PUSH2 0x129F JUMP JUMPDEST POP CODESIZE PUSH2 0x1EC JUMP JUMPDEST POP RETURNDATASIZE PUSH2 0x20B JUMP JUMPDEST PUSH1 0x40 MLOAD RETURNDATASIZE PUSH1 0x0 DUP3 RETURNDATACOPY RETURNDATASIZE SWAP1 REVERT JUMPDEST SWAP3 SWAP2 POP SWAP3 PUSH1 0x20 DUP4 RETURNDATASIZE PUSH1 0x20 GT PUSH2 0x270 JUMPI JUMPDEST DUP2 PUSH2 0x254 PUSH1 0x20 SWAP4 DUP4 PUSH2 0x11DB JUMP JUMPDEST DUP2 ADD SUB SLT PUSH2 0x26B JUMPI SWAP2 MLOAD SWAP2 SWAP3 SWAP1 SWAP2 SWAP1 PUSH2 0x1D6 PUSH2 0x1A4 JUMP JUMPDEST PUSH1 0x0 DUP1 REVERT JUMPDEST RETURNDATASIZE SWAP2 POP PUSH2 0x247 JUMP JUMPDEST PUSH4 0x4E487B71 PUSH1 0xE0 SHL PUSH1 0x0 MSTORE PUSH1 0x11 PUSH1 0x4 MSTORE PUSH1 0x24 PUSH1 0x0 REVERT JUMPDEST SWAP1 POP PUSH1 0x20 DUP2 RETURNDATASIZE PUSH1 0x20 GT PUSH2 0x2B8 JUMPI JUMPDEST DUP2 PUSH2 0x2A9 PUSH1 0x20 SWAP4 DUP4 PUSH2 0x11DB JUMP JUMPDEST DUP2 ADD SUB SLT PUSH2 0x26B JUMPI MLOAD CODESIZE PUSH2 0x152 JUMP JUMPDEST RETURNDATASIZE SWAP2 POP PUSH2 0x29C JUMP JUMPDEST PUSH1 0x40 MLOAD PUSH4 0x20DB8267 PUSH1 0xE0 SHL DUP2 MSTORE PUSH1 0x4 SWAP1 REVERT JUMPDEST CALLVALUE PUSH2 0x26B JUMPI PUSH1 0x80 CALLDATASIZE PUSH1 0x3 NOT ADD SLT PUSH2 0x26B JUMPI PUSH2 0x2EB PUSH2 0x1136 JUMP JUMPDEST PUSH2 0x2F3 PUSH2 0x114C JUMP JUMPDEST SWAP1 PUSH2 0x2FC PUSH2 0x1162 JUMP JUMPDEST PUSH1 0x40 MLOAD PUSH4 0x19B02F49 PUSH1 0xE2 SHL DUP1 DUP3 MSTORE PUSH1 0x1 PUSH1 0x1 PUSH1 0xA0 SHL SUB SWAP5 DUP6 AND PUSH1 0x4 DUP4 ADD MSTORE PUSH1 0x20 SWAP5 SWAP4 DUP5 AND SWAP4 SWAP1 SWAP3 DUP6 DUP4 PUSH1 0x24 DUP2 DUP9 GAS STATICCALL SWAP3 DUP4 ISZERO PUSH2 0x22B JUMPI PUSH1 0x0 SWAP4 PUSH2 0x4BE JUMPI JUMPDEST POP PUSH1 0x40 MLOAD SWAP4 DUP5 MSTORE AND PUSH1 0x4 DUP4 ADD MSTORE DUP4 DUP3 PUSH1 0x24 DUP2 DUP7 GAS STATICCALL SWAP2 DUP3 ISZERO PUSH2 0x22B JUMPI PUSH1 0x0 SWAP3 PUSH2 0x48F JUMPI JUMPDEST POP PUSH1 0x40 MLOAD PUSH4 0x8E499BCF PUSH1 0xE0 SHL DUP1 DUP3 MSTORE SWAP1 DUP6 DUP2 PUSH1 0x4 DUP2 DUP9 GAS STATICCALL SWAP1 DUP2 ISZERO PUSH2 0x22B JUMPI PUSH1 0x0 SWAP2 PUSH2 0x462 JUMPI JUMPDEST POP DUP3 LT ISZERO PUSH2 0x423 JUMPI PUSH1 0x40 MLOAD SWAP1 DUP2 MSTORE DUP5 DUP2 PUSH1 0x4 DUP2 DUP8 GAS STATICCALL SWAP1 DUP2 ISZERO PUSH2 0x22B JUMPI PUSH1 0x0 SWAP2 PUSH2 0x435 JUMPI JUMPDEST POP DUP3 LT ISZERO PUSH2 0x423 JUMPI PUSH1 0x40 DUP1 MLOAD PUSH4 0x1535435 PUSH1 0xE2 SHL DUP2 MSTORE PUSH1 0x4 DUP2 ADD SWAP3 SWAP1 SWAP3 MSTORE PUSH1 0x24 DUP3 ADD SWAP3 SWAP1 SWAP3 MSTORE PUSH1 0x64 DUP1 CALLDATALOAD PUSH1 0x44 DUP4 ADD MSTORE SWAP1 SWAP3 DUP4 SWAP2 SWAP1 DUP3 SWAP1 GAS STATICCALL DUP1 ISZERO PUSH2 0x22B JUMPI PUSH1 0x40 SWAP3 PUSH1 0x0 SWAP3 PUSH1 0x0 SWAP3 PUSH2 0x401 JUMPI JUMPDEST POP DUP4 MLOAD SWAP3 DUP4 MSTORE DUP3 ADD MSTORE RETURN JUMPDEST SWAP1 SWAP3 POP PUSH2 0x41B SWAP2 POP DUP4 RETURNDATASIZE DUP6 GT PUSH2 0x224 JUMPI PUSH2 0x215 DUP2 DUP4 PUSH2 0x11DB JUMP JUMPDEST SWAP1 SWAP2 DUP5 PUSH2 0x3F6 JUMP JUMPDEST PUSH1 0x40 MLOAD PUSH4 0x7326195 PUSH1 0xE0 SHL DUP2 MSTORE PUSH1 0x4 SWAP1 REVERT JUMPDEST SWAP1 POP DUP5 DUP2 DUP2 RETURNDATASIZE DUP4 GT PUSH2 0x45B JUMPI JUMPDEST PUSH2 0x44C DUP2 DUP4 PUSH2 0x11DB JUMP JUMPDEST DUP2 ADD SUB SLT PUSH2 0x26B JUMPI MLOAD DUP6 PUSH2 0x3AA JUMP JUMPDEST POP RETURNDATASIZE PUSH2 0x442 JUMP JUMPDEST SWAP1 POP DUP6 DUP2 DUP2 RETURNDATASIZE DUP4 GT PUSH2 0x488 JUMPI JUMPDEST PUSH2 0x479 DUP2 DUP4 PUSH2 0x11DB JUMP JUMPDEST DUP2 ADD SUB SLT PUSH2 0x26B JUMPI MLOAD DUP7 PUSH2 0x385 JUMP JUMPDEST POP RETURNDATASIZE PUSH2 0x46F JUMP JUMPDEST SWAP1 SWAP2 POP DUP4 DUP2 DUP2 RETURNDATASIZE DUP4 GT PUSH2 0x4B7 JUMPI JUMPDEST PUSH2 0x4A7 DUP2 DUP4 PUSH2 0x11DB JUMP JUMPDEST DUP2 ADD SUB SLT PUSH2 0x26B JUMPI MLOAD SWAP1 DUP5 PUSH2 0x35E JUMP JUMPDEST POP RETURNDATASIZE PUSH2 0x49D JUMP JUMPDEST SWAP1 SWAP3 POP DUP6 DUP2 DUP2 RETURNDATASIZE DUP4 GT PUSH2 0x4E6 JUMPI JUMPDEST PUSH2 0x4D6 DUP2 DUP4 PUSH2 0x11DB JUMP JUMPDEST DUP2 ADD SUB SLT PUSH2 0x26B JUMPI MLOAD SWAP2 DUP7 PUSH2 0x33A JUMP JUMPDEST POP RETURNDATASIZE PUSH2 0x4CC JUMP JUMPDEST CALLVALUE PUSH2 0x26B JUMPI PUSH1 0x80 CALLDATASIZE PUSH1 0x3 NOT ADD SLT PUSH2 0x26B JUMPI PUSH2 0x506 PUSH2 0x1136 JUMP JUMPDEST PUSH1 0x24 SWAP1 PUSH8 0xFFFFFFFFFFFFFFFF SWAP1 DUP3 CALLDATALOAD PUSH1 0x44 CALLDATALOAD DUP4 DUP2 GT PUSH2 0x26B JUMPI PUSH2 0x52D SWAP1 CALLDATASIZE SWAP1 PUSH1 0x4 ADD PUSH2 0x1178 JUMP JUMPDEST SWAP5 SWAP1 SWAP4 PUSH1 0x64 CALLDATALOAD SWAP4 DUP5 TIMESTAMP GT PUSH2 0x829 JUMPI DUP4 ISZERO PUSH2 0x817 JUMPI PUSH1 0x40 MLOAD PUSH4 0x23B872DD PUSH1 0xE0 SHL DUP2 MSTORE CALLER PUSH1 0x4 DUP3 ADD MSTORE ADDRESS PUSH1 0x24 DUP3 ADD MSTORE PUSH1 0x44 DUP2 ADD DUP6 SWAP1 MSTORE PUSH1 0x20 SWAP8 SWAP1 SWAP7 PUSH1 0x1 PUSH1 0x1 PUSH1 0xA0 SHL SUB SWAP3 SWAP1 SWAP3 AND SWAP6 SWAP2 SWAP1 DUP9 DUP9 PUSH1 0x64 DUP2 PUSH1 0x0 DUP12 GAS CALL SWAP3 DUP4 ISZERO PUSH2 0x22B JUMPI PUSH2 0x5BC SWAP9 PUSH1 0x0 SWAP5 PUSH2 0x7EA JUMPI JUMPDEST POP PUSH1 0x40 MLOAD PUSH4 0x31CD52B PUSH1 0xE4 SHL DUP2 MSTORE PUSH1 0x4 DUP2 ADD DUP9 SWAP1 MSTORE PUSH1 0x60 DUP8 DUP3 ADD MSTORE SWAP9 DUP10 SWAP4 DUP5 SWAP4 PUSH1 0x64 DUP6 ADD SWAP2 PUSH2 0x124F JUMP JUMPDEST SWAP1 PUSH1 0x44 DUP4 ADD MSTORE SUB DUP2 DUP4 DUP9 GAS CALL SWAP5 DUP6 ISZERO PUSH2 0x22B JUMPI PUSH1 0x0 SWAP6 PUSH2 0x749 JUMPI JUMPDEST POP POP PUSH1 0x40 MLOAD PUSH4 0x8E499BCF PUSH1 0xE0 SHL DUP2 MSTORE SWAP1 DUP6 DUP3 PUSH1 0x4 DUP2 DUP8 GAS STATICCALL SWAP2 DUP3 ISZERO PUSH2 0x22B JUMPI PUSH1 0x0 SWAP3 PUSH2 0x71A JUMPI JUMPDEST POP PUSH1 0x0 SWAP6 SWAP5 SWAP6 JUMPDEST DUP3 DUP2 LT PUSH2 0x67C JUMPI POP POP POP PUSH1 0x40 MLOAD SWAP1 DUP2 MSTORE PUSH32 0x983E86FDA8E7B1E2EAE380201830EAF1CAC55772E8E39583DA349865E8178863 DUP4 CALLER SWAP3 LOG3 PUSH1 0x40 MLOAD SWAP2 DUP2 DUP4 SWAP3 DUP4 ADD DUP2 DUP5 MSTORE DUP3 MLOAD DUP1 SWAP2 MSTORE DUP2 PUSH1 0x40 DUP6 ADD SWAP4 ADD SWAP2 PUSH1 0x0 JUMPDEST DUP3 DUP2 LT PUSH2 0x665 JUMPI POP POP POP POP SUB SWAP1 RETURN JUMPDEST DUP4 MLOAD DUP6 MSTORE DUP7 SWAP6 POP SWAP4 DUP2 ADD SWAP4 SWAP3 DUP2 ADD SWAP3 PUSH1 0x1 ADD PUSH2 0x656 JUMP JUMPDEST PUSH2 0x688 DUP2 DUP9 SWAP8 SWAP9 PUSH2 0x128B JUMP JUMPDEST MLOAD PUSH2 0x69F JUMPI JUMPDEST PUSH2 0x697 SWAP1 PUSH2 0x1221 JUMP JUMPDEST SWAP6 SWAP5 SWAP6 PUSH2 0x605 JUMP JUMPDEST PUSH1 0x40 MLOAD PUSH4 0x27B2595F PUSH1 0xE1 SHL DUP2 MSTORE PUSH1 0x4 DUP2 ADD DUP3 SWAP1 MSTORE SWAP1 DUP8 DUP3 DUP5 DUP2 DUP10 GAS STATICCALL SWAP2 DUP3 ISZERO PUSH2 0x22B JUMPI PUSH2 0x697 SWAP3 PUSH2 0x6E6 SWAP2 PUSH1 0x0 SWAP2 PUSH2 0x6ED JUMPI JUMPDEST POP PUSH2 0x6DD DUP4 DUP11 PUSH2 0x128B JUMP JUMPDEST MLOAD SWAP1 CALLER SWAP1 PUSH2 0x14E8 JUMP JUMPDEST SWAP1 POP PUSH2 0x68E JUMP JUMPDEST PUSH2 0x70D SWAP2 POP DUP11 RETURNDATASIZE DUP13 GT PUSH2 0x713 JUMPI JUMPDEST PUSH2 0x705 DUP2 DUP4 PUSH2 0x11DB JUMP JUMPDEST DUP2 ADD SWAP1 PUSH2 0x1230 JUMP JUMPDEST DUP11 PUSH2 0x6D2 JUMP JUMPDEST POP RETURNDATASIZE PUSH2 0x6FB JUMP JUMPDEST SWAP1 SWAP2 POP DUP6 DUP2 DUP2 RETURNDATASIZE DUP4 GT PUSH2 0x742 JUMPI JUMPDEST PUSH2 0x732 DUP2 DUP4 PUSH2 0x11DB JUMP JUMPDEST DUP2 ADD SUB SLT PUSH2 0x26B JUMPI MLOAD SWAP1 DUP7 PUSH2 0x5FE JUMP JUMPDEST POP RETURNDATASIZE PUSH2 0x728 JUMP JUMPDEST SWAP1 SWAP2 SWAP5 POP RETURNDATASIZE DUP1 PUSH1 0x0 DUP4 RETURNDATACOPY PUSH2 0x75D DUP2 DUP4 PUSH2 0x11DB JUMP JUMPDEST DUP2 ADD SWAP1 DUP7 DUP2 DUP4 SUB SLT PUSH2 0x26B JUMPI DUP1 MLOAD SWAP1 DUP4 DUP3 GT PUSH2 0x26B JUMPI ADD DUP2 PUSH1 0x1F DUP3 ADD SLT ISZERO PUSH2 0x26B JUMPI DUP1 MLOAD SWAP3 DUP4 GT PUSH2 0x7D5 JUMPI DUP3 PUSH1 0x5 SHL PUSH1 0x40 MLOAD SWAP4 PUSH2 0x79C DUP10 DUP4 ADD DUP7 PUSH2 0x11DB JUMP JUMPDEST DUP5 MSTORE DUP8 DUP1 DUP6 ADD SWAP2 DUP4 ADD ADD SWAP3 DUP4 GT PUSH2 0x26B JUMPI DUP8 DUP1 SWAP3 ADD SWAP1 JUMPDEST DUP4 DUP3 LT PUSH2 0x7C6 JUMPI POP POP POP POP SWAP3 DUP6 DUP1 PUSH2 0x5D7 JUMP JUMPDEST DUP2 MLOAD DUP2 MSTORE SWAP1 DUP3 ADD SWAP1 DUP3 ADD PUSH2 0x7B3 JUMP JUMPDEST DUP6 PUSH4 0x4E487B71 PUSH1 0xE0 SHL PUSH1 0x0 MSTORE PUSH1 0x41 PUSH1 0x4 MSTORE PUSH1 0x0 REVERT JUMPDEST PUSH2 0x809 SWAP1 DUP12 RETURNDATASIZE DUP14 GT PUSH2 0x810 JUMPI JUMPDEST PUSH2 0x801 DUP2 DUP4 PUSH2 0x11DB JUMP JUMPDEST DUP2 ADD SWAP1 PUSH2 0x1273 JUMP JUMPDEST POP DUP11 PUSH2 0x592 JUMP JUMPDEST POP RETURNDATASIZE PUSH2 0x7F7 JUMP JUMPDEST PUSH1 0x40 MLOAD PUSH4 0x1F2A2005 PUSH1 0xE0 SHL DUP2 MSTORE PUSH1 0x4 SWAP1 REVERT JUMPDEST PUSH1 0x40 MLOAD PUSH4 0x1AB7DA6B PUSH1 0xE0 SHL DUP2 MSTORE PUSH1 0x4 SWAP1 REVERT JUMPDEST CALLVALUE PUSH2 0x26B JUMPI PUSH1 0xA0 CALLDATASIZE PUSH1 0x3 NOT ADD SLT PUSH2 0x26B JUMPI PUSH8 0xFFFFFFFFFFFFFFFF PUSH1 0x4 CALLDATALOAD DUP2 DUP2 GT PUSH2 0x26B JUMPI PUSH2 0x86D SWAP1 CALLDATASIZE SWAP1 PUSH1 0x4 ADD PUSH2 0x1178 JUMP JUMPDEST SWAP2 PUSH1 0x24 CALLDATALOAD SWAP1 DUP2 GT PUSH2 0x26B JUMPI PUSH2 0x886 SWAP1 CALLDATASIZE SWAP1 PUSH1 0x4 ADD PUSH2 0x1178 JUMP JUMPDEST SWAP1 SWAP3 PUSH1 0x44 CALLDATALOAD PUSH1 0x84 CALLDATALOAD TIMESTAMP GT PUSH2 0x829 JUMPI DUP2 ISZERO PUSH2 0x2C0 JUMPI PUSH1 0x1 DUP3 ADD DUP1 DUP4 GT PUSH2 0x278 JUMPI DUP4 SUB PUSH2 0x2C0 JUMPI DUP1 ISZERO PUSH2 0x817 JUMPI DUP3 ISZERO PUSH2 0xBA7 JUMPI PUSH2 0x8D0 DUP2 PUSH2 0x8C7 DUP8 SWAP7 SWAP5 SWAP7 PUSH2 0x120D JUMP JUMPDEST ADDRESS SWAP1 CALLER SWAP1 PUSH2 0x1436 JUMP JUMPDEST SWAP3 PUSH1 0x0 SWAP2 JUMPDEST DUP2 DUP4 LT PUSH2 0x92A JUMPI POP POP POP PUSH1 0x64 CALLDATALOAD DUP3 LT PUSH2 0x918 JUMPI PUSH1 0x0 NOT DUP2 ADD SWAP1 DUP1 DUP3 GT PUSH2 0x278 JUMPI PUSH1 0x20 SWAP4 PUSH2 0x90B PUSH2 0x108 PUSH2 0x910 SWAP5 DUP7 SWAP5 CALLER SWAP5 PUSH2 0x11FD JUMP JUMPDEST PUSH2 0x14E8 JUMP JUMPDEST PUSH1 0x40 MLOAD SWAP1 DUP2 MSTORE RETURN JUMPDEST PUSH1 0x40 MLOAD PUSH4 0x8199F5F3 PUSH1 0xE0 SHL DUP2 MSTORE PUSH1 0x4 SWAP1 REVERT JUMPDEST SWAP2 SWAP4 SWAP1 SWAP2 SWAP1 PUSH1 0x1 PUSH1 0x1 PUSH1 0xA0 SHL SUB PUSH2 0x945 PUSH2 0x108 DUP8 DUP7 DUP7 PUSH2 0x11FD JUMP JUMPDEST AND PUSH2 0x954 PUSH2 0x108 DUP8 DUP8 DUP11 PUSH2 0x11FD JUMP JUMPDEST SWAP1 PUSH1 0x1 DUP8 ADD DUP8 GT PUSH2 0x278 JUMPI PUSH2 0x970 PUSH2 0x108 PUSH1 0x1 DUP10 ADD DUP9 DUP12 PUSH2 0x11FD JUMP JUMPDEST PUSH1 0x40 MLOAD PUSH4 0x19B02F49 PUSH1 0xE2 SHL DUP2 MSTORE PUSH1 0x1 PUSH1 0x1 PUSH1 0xA0 SHL SUB DUP5 AND PUSH1 0x4 DUP3 ADD MSTORE SWAP1 SWAP2 SWAP1 PUSH1 0x20 DUP2 PUSH1 0x24 DUP2 DUP6 GAS STATICCALL SWAP1 DUP2 ISZERO PUSH2 0x22B JUMPI PUSH1 0x0 SWAP2 PUSH2 0xB75 JUMPI JUMPDEST POP PUSH1 0x40 MLOAD PUSH4 0x19B02F49 PUSH1 0xE2 SHL DUP2 MSTORE PUSH1 0x1 PUSH1 0x1 PUSH1 0xA0 SHL SUB SWAP1 SWAP4 AND PUSH1 0x4 DUP5 ADD MSTORE PUSH1 0x20 DUP4 PUSH1 0x24 DUP2 DUP6 GAS STATICCALL SWAP3 DUP4 ISZERO PUSH2 0x22B JUMPI PUSH1 0x0 SWAP4 PUSH2 0xB41 JUMPI JUMPDEST POP PUSH1 0x40 MLOAD PUSH4 0x8E499BCF PUSH1 0xE0 SHL DUP2 MSTORE PUSH1 0x20 DUP2 PUSH1 0x4 DUP2 DUP7 GAS STATICCALL SWAP1 DUP2 ISZERO PUSH2 0x22B JUMPI PUSH1 0x0 SWAP2 PUSH2 0xB0F JUMPI JUMPDEST POP DUP2 LT ISZERO PUSH2 0x423 JUMPI PUSH1 0x40 MLOAD PUSH4 0x8E499BCF PUSH1 0xE0 SHL DUP2 MSTORE PUSH1 0x20 DUP2 PUSH1 0x4 DUP2 DUP7 GAS STATICCALL SWAP1 DUP2 ISZERO PUSH2 0x22B JUMPI PUSH1 0x0 SWAP2 PUSH2 0xADD JUMPI JUMPDEST POP DUP4 LT ISZERO PUSH2 0x423 JUMPI PUSH1 0x0 PUSH1 0xA4 SWAP3 PUSH2 0xA58 DUP8 PUSH1 0x20 SWAP8 PUSH2 0xA52 PUSH2 0x108 DUP16 DUP15 DUP15 PUSH2 0x11FD JUMP JUMPDEST SWAP1 PUSH2 0x12F5 JUMP JUMPDEST PUSH1 0x40 MLOAD SWAP7 DUP8 SWAP6 DUP7 SWAP5 PUSH4 0xC45C5C3 PUSH1 0xE4 SHL DUP7 MSTORE PUSH1 0x4 DUP7 ADD MSTORE PUSH1 0x24 DUP6 ADD MSTORE PUSH1 0x44 DUP5 ADD MSTORE DUP2 PUSH1 0x64 DUP5 ADD MSTORE PUSH1 0x84 CALLDATALOAD PUSH1 0x84 DUP5 ADD MSTORE GAS CALL DUP1 ISZERO PUSH2 0x22B JUMPI PUSH1 0x0 SWAP1 PUSH2 0xAA9 JUMPI JUMPDEST PUSH2 0xAA2 SWAP2 POP SWAP5 PUSH2 0x1221 JUMP JUMPDEST SWAP2 SWAP1 PUSH2 0x8D5 JUMP JUMPDEST POP PUSH1 0x20 DUP2 RETURNDATASIZE PUSH1 0x20 GT PUSH2 0xAD5 JUMPI JUMPDEST DUP2 PUSH2 0xAC3 PUSH1 0x20 SWAP4 DUP4 PUSH2 0x11DB JUMP JUMPDEST DUP2 ADD SUB SLT PUSH2 0x26B JUMPI PUSH2 0xAA2 SWAP1 MLOAD PUSH2 0xA97 JUMP JUMPDEST RETURNDATASIZE SWAP2 POP PUSH2 0xAB6 JUMP JUMPDEST SWAP1 POP PUSH1 0x20 DUP2 RETURNDATASIZE PUSH1 0x20 GT PUSH2 0xB07 JUMPI JUMPDEST DUP2 PUSH2 0xAF8 PUSH1 0x20 SWAP4 DUP4 PUSH2 0x11DB JUMP JUMPDEST DUP2 ADD SUB SLT PUSH2 0x26B JUMPI MLOAD DUP12 PUSH2 0xA30 JUMP JUMPDEST RETURNDATASIZE SWAP2 POP PUSH2 0xAEB JUMP JUMPDEST SWAP1 POP PUSH1 0x20 DUP2 RETURNDATASIZE PUSH1 0x20 GT PUSH2 0xB39 JUMPI JUMPDEST DUP2 PUSH2 0xB2A PUSH1 0x20 SWAP4 DUP4 PUSH2 0x11DB JUMP JUMPDEST DUP2 ADD SUB SLT PUSH2 0x26B JUMPI MLOAD DUP12 PUSH2 0xA03 JUMP JUMPDEST RETURNDATASIZE SWAP2 POP PUSH2 0xB1D JUMP JUMPDEST SWAP1 SWAP3 POP PUSH1 0x20 DUP2 RETURNDATASIZE PUSH1 0x20 GT PUSH2 0xB6D JUMPI JUMPDEST DUP2 PUSH2 0xB5D PUSH1 0x20 SWAP4 DUP4 PUSH2 0x11DB JUMP JUMPDEST DUP2 ADD SUB SLT PUSH2 0x26B JUMPI MLOAD SWAP2 DUP11 PUSH2 0x9DD JUMP JUMPDEST RETURNDATASIZE SWAP2 POP PUSH2 0xB50 JUMP JUMPDEST SWAP1 POP PUSH1 0x20 DUP2 RETURNDATASIZE PUSH1 0x20 GT PUSH2 0xB9F JUMPI JUMPDEST DUP2 PUSH2 0xB90 PUSH1 0x20 SWAP4 DUP4 PUSH2 0x11DB JUMP JUMPDEST DUP2 ADD SUB SLT PUSH2 0x26B JUMPI MLOAD DUP11 PUSH2 0x9A7 JUMP JUMPDEST RETURNDATASIZE SWAP2 POP PUSH2 0xB83 JUMP JUMPDEST PUSH4 0x4E487B71 PUSH1 0xE0 SHL PUSH1 0x0 MSTORE PUSH1 0x32 PUSH1 0x4 MSTORE PUSH1 0x24 PUSH1 0x0 REVERT JUMPDEST CALLVALUE PUSH2 0x26B JUMPI PUSH1 0x0 CALLDATASIZE PUSH1 0x3 NOT ADD SLT PUSH2 0x26B JUMPI PUSH1 0x40 MLOAD PUSH32 0x0 PUSH1 0x1 PUSH1 0x1 PUSH1 0xA0 SHL SUB AND DUP2 MSTORE PUSH1 0x20 SWAP1 RETURN JUMPDEST CALLVALUE PUSH2 0x26B JUMPI PUSH1 0xC0 CALLDATASIZE PUSH1 0x3 NOT ADD SLT PUSH2 0x26B JUMPI PUSH2 0xC1B PUSH2 0x1136 JUMP JUMPDEST PUSH2 0xC23 PUSH2 0x114C JUMP JUMPDEST PUSH2 0xC2B PUSH2 0x1162 JUMP JUMPDEST SWAP2 PUSH1 0xA4 CALLDATALOAD TIMESTAMP GT PUSH2 0x829 JUMPI PUSH1 0x64 CALLDATALOAD ISZERO PUSH2 0x817 JUMPI PUSH1 0x40 MLOAD PUSH4 0x19B02F49 PUSH1 0xE2 SHL DUP1 DUP3 MSTORE PUSH1 0x1 PUSH1 0x1 PUSH1 0xA0 SHL SUB DUP1 DUP6 AND PUSH1 0x4 DUP5 ADD DUP2 SWAP1 MSTORE SWAP3 SWAP5 SWAP3 SWAP4 SWAP1 SWAP3 SWAP1 SWAP2 PUSH1 0x20 DUP7 PUSH1 0x24 DUP2 DUP8 DUP8 AND GAS STATICCALL SWAP6 DUP7 ISZERO PUSH2 0x22B JUMPI PUSH1 0x0 SWAP7 PUSH2 0xE98 JUMPI JUMPDEST POP PUSH1 0x40 MLOAD SWAP1 DUP2 MSTORE DUP4 DUP8 AND SWAP2 DUP3 PUSH1 0x4 DUP4 ADD MSTORE PUSH1 0x20 DUP3 PUSH1 0x24 DUP2 DUP9 DUP9 AND GAS STATICCALL SWAP2 DUP3 ISZERO PUSH2 0x22B JUMPI PUSH1 0x0 SWAP3 PUSH2 0xE64 JUMPI JUMPDEST POP PUSH1 0x40 MLOAD PUSH4 0x8E499BCF PUSH1 0xE0 SHL DUP2 MSTORE PUSH1 0x20 DUP2 PUSH1 0x4 DUP2 DUP9 DUP11 AND GAS STATICCALL SWAP1 DUP2 ISZERO PUSH2 0x22B JUMPI PUSH1 0x0 SWAP2 PUSH2 0xE32 JUMPI JUMPDEST POP DUP8 LT ISZERO PUSH2 0x423 JUMPI PUSH1 0x40 MLOAD PUSH4 0x8E499BCF PUSH1 0xE0 SHL DUP2 MSTORE PUSH1 0x20 DUP2 PUSH1 0x4 DUP2 DUP9 DUP11 AND GAS STATICCALL SWAP1 DUP2 ISZERO PUSH2 0x22B JUMPI PUSH1 0x0 SWAP2 PUSH2 0xE00 JUMPI JUMPDEST POP DUP3 LT ISZERO PUSH2 0x423 JUMPI PUSH2 0xD25 SWAP1 PUSH2 0xD1B PUSH1 0x64 CALLDATALOAD ADDRESS CALLER DUP5 PUSH2 0x1436 JUMP JUMPDEST DUP5 PUSH1 0x64 CALLDATALOAD SWAP2 PUSH2 0x12F5 JUMP JUMPDEST PUSH1 0x40 MLOAD SWAP6 PUSH4 0xC45C5C3 PUSH1 0xE4 SHL DUP8 MSTORE PUSH1 0x4 DUP8 ADD MSTORE PUSH1 0x24 DUP7 ADD MSTORE PUSH1 0x64 CALLDATALOAD PUSH1 0x44 DUP7 ADD MSTORE PUSH1 0x84 CALLDATALOAD PUSH1 0x64 DUP7 ADD MSTORE PUSH1 0xA4 CALLDATALOAD PUSH1 0x84 DUP7 ADD MSTORE PUSH1 0x20 DUP6 PUSH1 0xA4 DUP2 PUSH1 0x0 DUP8 DUP8 AND GAS CALL SWAP5 DUP6 ISZERO PUSH2 0x22B JUMPI PUSH1 0x0 SWAP6 PUSH2 0xDC8 JUMPI JUMPDEST POP PUSH2 0xD80 DUP6 PUSH1 0x20 SWAP8 CALLER SWAP1 PUSH2 0x14E8 JUMP JUMPDEST PUSH1 0x40 MLOAD SWAP4 DUP5 MSTORE DUP6 DUP5 ADD MSTORE PUSH1 0x64 CALLDATALOAD PUSH1 0x40 DUP5 ADD MSTORE DUP4 PUSH1 0x60 DUP5 ADD MSTORE AND SWAP1 PUSH32 0x28D00B9419287441AAD457025BBAA9AAEAD77E93E2739080543E5261012B0EEE PUSH1 0x80 CALLER SWAP3 LOG3 PUSH1 0x40 MLOAD SWAP1 DUP2 MSTORE RETURN JUMPDEST SWAP6 SWAP5 POP PUSH1 0x20 DUP7 RETURNDATASIZE PUSH1 0x20 GT PUSH2 0xDF8 JUMPI JUMPDEST DUP2 PUSH2 0xDE4 PUSH1 0x20 SWAP4 DUP4 PUSH2 0x11DB JUMP JUMPDEST DUP2 ADD SUB SLT PUSH2 0x26B JUMPI SWAP5 MLOAD SWAP4 SWAP5 PUSH2 0xD80 PUSH2 0xD71 JUMP JUMPDEST RETURNDATASIZE SWAP2 POP PUSH2 0xDD7 JUMP JUMPDEST SWAP1 POP PUSH1 0x20 DUP2 RETURNDATASIZE PUSH1 0x20 GT PUSH2 0xE2A JUMPI JUMPDEST DUP2 PUSH2 0xE1B PUSH1 0x20 SWAP4 DUP4 PUSH2 0x11DB JUMP JUMPDEST DUP2 ADD SUB SLT PUSH2 0x26B JUMPI MLOAD DUP10 PUSH2 0xD01 JUMP JUMPDEST RETURNDATASIZE SWAP2 POP PUSH2 0xE0E JUMP JUMPDEST SWAP1 POP PUSH1 0x20 DUP2 RETURNDATASIZE PUSH1 0x20 GT PUSH2 0xE5C JUMPI JUMPDEST DUP2 PUSH2 0xE4D PUSH1 0x20 SWAP4 DUP4 PUSH2 0x11DB JUMP JUMPDEST DUP2 ADD SUB SLT PUSH2 0x26B JUMPI MLOAD DUP10 PUSH2 0xCD2 JUMP JUMPDEST RETURNDATASIZE SWAP2 POP PUSH2 0xE40 JUMP JUMPDEST SWAP1 SWAP2 POP PUSH1 0x20 DUP2 RETURNDATASIZE PUSH1 0x20 GT PUSH2 0xE90 JUMPI JUMPDEST DUP2 PUSH2 0xE80 PUSH1 0x20 SWAP4 DUP4 PUSH2 0x11DB JUMP JUMPDEST DUP2 ADD SUB SLT PUSH2 0x26B JUMPI MLOAD SWAP1 DUP9 PUSH2 0xCAA JUMP JUMPDEST RETURNDATASIZE SWAP2 POP PUSH2 0xE73 JUMP JUMPDEST SWAP1 SWAP6 POP PUSH1 0x20 DUP2 RETURNDATASIZE PUSH1 0x20 GT PUSH2 0xEC4 JUMPI JUMPDEST DUP2 PUSH2 0xEB4 PUSH1 0x20 SWAP4 DUP4 PUSH2 0x11DB JUMP JUMPDEST DUP2 ADD SUB SLT PUSH2 0x26B JUMPI MLOAD SWAP5 DUP8 PUSH2 0xC7F JUMP JUMPDEST RETURNDATASIZE SWAP2 POP PUSH2 0xEA7 JUMP JUMPDEST CALLVALUE PUSH2 0x26B JUMPI PUSH1 0x80 CALLDATASIZE PUSH1 0x3 NOT ADD SLT PUSH2 0x26B JUMPI PUSH2 0xEE5 PUSH2 0x1136 JUMP JUMPDEST PUSH1 0x24 DUP1 CALLDATALOAD PUSH8 0xFFFFFFFFFFFFFFFF DUP2 GT PUSH2 0x26B JUMPI PUSH2 0xF06 SWAP1 CALLDATASIZE SWAP1 PUSH1 0x4 ADD PUSH2 0x1178 JUMP JUMPDEST SWAP2 SWAP1 PUSH1 0x64 CALLDATALOAD SWAP5 DUP6 TIMESTAMP GT PUSH2 0x1127 JUMPI POP PUSH1 0x40 MLOAD PUSH4 0x8E499BCF PUSH1 0xE0 SHL DUP2 MSTORE PUSH1 0x20 SWAP6 PUSH1 0x1 PUSH1 0x1 PUSH1 0xA0 SHL SUB DUP7 AND SWAP5 SWAP2 SWAP4 SWAP1 DUP8 DUP6 PUSH1 0x4 DUP2 DUP10 GAS STATICCALL SWAP7 DUP8 ISZERO PUSH2 0x22B JUMPI DUP9 SWAP6 PUSH1 0x0 SWAP9 PUSH2 0x10F6 JUMPI JUMPDEST POP PUSH1 0x0 SWAP1 JUMPDEST DUP9 DUP3 LT PUSH2 0x1055 JUMPI POP POP PUSH1 0x40 MLOAD PUSH4 0x4D49E87D PUSH1 0xE0 SHL DUP2 MSTORE PUSH1 0x60 PUSH1 0x4 DUP3 ADD MSTORE SWAP7 POP DUP7 SWAP4 DUP5 SWAP4 PUSH2 0xF82 SWAP2 PUSH1 0x64 DUP7 ADD SWAP2 SWAP1 PUSH2 0x124F JUMP JUMPDEST SWAP2 PUSH1 0x44 CALLDATALOAD SWAP1 DUP5 ADD MSTORE PUSH1 0x44 DUP4 ADD MSTORE SUB DUP2 PUSH1 0x0 DUP6 GAS CALL SWAP2 DUP3 ISZERO PUSH2 0x22B JUMPI PUSH1 0x0 SWAP3 PUSH2 0x1026 JUMPI JUMPDEST POP PUSH1 0x40 MLOAD PUSH4 0xA9059CBB PUSH1 0xE0 SHL DUP2 MSTORE CALLER PUSH1 0x4 DUP3 ADD MSTORE PUSH1 0x24 DUP2 ADD DUP4 SWAP1 MSTORE DUP4 DUP2 PUSH1 0x44 DUP2 PUSH1 0x0 DUP7 GAS CALL DUP1 ISZERO PUSH2 0x22B JUMPI PUSH2 0x1009 JUMPI JUMPDEST POP PUSH1 0x40 MLOAD DUP3 DUP2 MSTORE PUSH32 0x9D278C56BA6DC86A12EEFE6B43112BD6E06648EB4EC0B950EE2D783D40E2ACB4 DUP5 CALLER SWAP3 LOG3 PUSH1 0x40 MLOAD SWAP1 DUP2 MSTORE RETURN JUMPDEST PUSH2 0x101F SWAP1 DUP5 RETURNDATASIZE DUP7 GT PUSH2 0x810 JUMPI PUSH2 0x801 DUP2 DUP4 PUSH2 0x11DB JUMP JUMPDEST POP DUP4 PUSH2 0xFD5 JUMP JUMPDEST SWAP1 SWAP2 POP DUP3 DUP2 DUP2 RETURNDATASIZE DUP4 GT PUSH2 0x104E JUMPI JUMPDEST PUSH2 0x103E DUP2 DUP4 PUSH2 0x11DB JUMP JUMPDEST DUP2 ADD SUB SLT PUSH2 0x26B JUMPI MLOAD SWAP1 DUP4 PUSH2 0xFA5 JUMP JUMPDEST POP RETURNDATASIZE PUSH2 0x1034 JUMP JUMPDEST SWAP1 SWAP6 POP PUSH1 0x40 MLOAD PUSH4 0x27B2595F PUSH1 0xE1 SHL DUP2 MSTORE DUP7 PUSH1 0x4 DUP3 ADD MSTORE DUP10 DUP2 DUP6 DUP2 DUP12 GAS STATICCALL SWAP7 DUP8 ISZERO PUSH2 0x22B JUMPI DUP11 SWAP8 PUSH2 0x109F SWAP3 PUSH1 0x0 SWAP2 PUSH2 0x10D9 JUMPI JUMPDEST POP PUSH2 0x1093 DUP3 DUP9 DUP11 PUSH2 0x11FD JUMP JUMPDEST CALLDATALOAD PUSH2 0x10A5 JUMPI JUMPDEST POP PUSH2 0x1221 JUMP JUMPDEST SWAP1 PUSH2 0xF50 JUMP JUMPDEST PUSH2 0x10D3 SWAP1 PUSH2 0x10C0 PUSH2 0x10B7 DUP5 DUP11 DUP13 PUSH2 0x11FD JUMP JUMPDEST CALLDATALOAD ADDRESS CALLER DUP5 PUSH2 0x1436 JUMP JUMPDEST DUP5 PUSH2 0x10CC DUP5 DUP11 DUP13 PUSH2 0x11FD JUMP JUMPDEST CALLDATALOAD SWAP2 PUSH2 0x12F5 JUMP JUMPDEST DUP12 PUSH2 0x1099 JUMP JUMPDEST PUSH2 0x10F0 SWAP2 POP DUP10 RETURNDATASIZE DUP12 GT PUSH2 0x713 JUMPI PUSH2 0x705 DUP2 DUP4 PUSH2 0x11DB JUMP JUMPDEST DUP13 PUSH2 0x1087 JUMP JUMPDEST DUP7 DUP2 SWAP8 SWAP3 SWAP10 POP RETURNDATASIZE DUP4 GT PUSH2 0x1120 JUMPI JUMPDEST PUSH2 0x110E DUP2 DUP4 PUSH2 0x11DB JUMP JUMPDEST DUP2 ADD SUB SLT PUSH2 0x26B JUMPI DUP8 SWAP5 MLOAD SWAP7 DUP10 PUSH2 0xF4B JUMP JUMPDEST POP RETURNDATASIZE PUSH2 0x1104 JUMP JUMPDEST PUSH4 0x1AB7DA6B PUSH1 0xE0 SHL DUP2 MSTORE PUSH1 0x4 SWAP1 REVERT JUMPDEST PUSH1 0x4 CALLDATALOAD SWAP1 PUSH1 0x1 PUSH1 0x1 PUSH1 0xA0 SHL SUB DUP3 AND DUP3 SUB PUSH2 0x26B JUMPI JUMP JUMPDEST PUSH1 0x24 CALLDATALOAD SWAP1 PUSH1 0x1 PUSH1 0x1 PUSH1 0xA0 SHL SUB DUP3 AND DUP3 SUB PUSH2 0x26B JUMPI JUMP JUMPDEST PUSH1 0x44 CALLDATALOAD SWAP1 PUSH1 0x1 PUSH1 0x1 PUSH1 0xA0 SHL SUB DUP3 AND DUP3 SUB PUSH2 0x26B JUMPI JUMP JUMPDEST SWAP2 DUP2 PUSH1 0x1F DUP5 ADD SLT ISZERO PUSH2 0x26B JUMPI DUP3 CALLDATALOAD SWAP2 PUSH8 0xFFFFFFFFFFFFFFFF DUP4 GT PUSH2 0x26B JUMPI PUSH1 0x20 DUP1 DUP6 ADD SWAP5 DUP5 PUSH1 0x5 SHL ADD ADD GT PUSH2 0x26B JUMPI JUMP JUMPDEST PUSH1 0x80 DUP2 ADD SWAP1 DUP2 LT PUSH8 0xFFFFFFFFFFFFFFFF DUP3 GT OR PUSH2 0x11C5 JUMPI PUSH1 0x40 MSTORE JUMP JUMPDEST PUSH4 0x4E487B71 PUSH1 0xE0 SHL PUSH1 0x0 MSTORE PUSH1 0x41 PUSH1 0x4 MSTORE PUSH1 0x24 PUSH1 0x0 REVERT JUMPDEST SWAP1 PUSH1 0x1F DUP1 NOT SWAP2 ADD AND DUP2 ADD SWAP1 DUP2 LT PUSH8 0xFFFFFFFFFFFFFFFF DUP3 GT OR PUSH2 0x11C5 JUMPI PUSH1 0x40 MSTORE JUMP JUMPDEST SWAP2 SWAP1 DUP2 LT ISZERO PUSH2 0xBA7 JUMPI PUSH1 0x5 SHL ADD SWAP1 JUMP JUMPDEST CALLDATALOAD PUSH1 0x1 PUSH1 0x1 PUSH1 0xA0 SHL SUB DUP2 AND DUP2 SUB PUSH2 0x26B JUMPI SWAP1 JUMP JUMPDEST PUSH1 0x0 NOT DUP2 EQ PUSH2 0x278 JUMPI PUSH1 0x1 ADD SWAP1 JUMP JUMPDEST SWAP1 DUP2 PUSH1 0x20 SWAP2 SUB SLT PUSH2 0x26B JUMPI MLOAD PUSH1 0x1 PUSH1 0x1 PUSH1 0xA0 SHL SUB DUP2 AND DUP2 SUB PUSH2 0x26B JUMPI SWAP1 JUMP JUMPDEST DUP2 DUP4 MSTORE SWAP1 SWAP2 PUSH1 0x1 PUSH1 0x1 PUSH1 0xFB SHL SUB DUP4 GT PUSH2 0x26B JUMPI PUSH1 0x20 SWAP3 PUSH1 0x5 SHL DUP1 SWAP3 DUP5 DUP4 ADD CALLDATACOPY ADD ADD SWAP1 JUMP JUMPDEST SWAP1 DUP2 PUSH1 0x20 SWAP2 SUB SLT PUSH2 0x26B JUMPI MLOAD DUP1 ISZERO ISZERO DUP2 SUB PUSH2 0x26B JUMPI SWAP1 JUMP JUMPDEST DUP1 MLOAD DUP3 LT ISZERO PUSH2 0xBA7 JUMPI PUSH1 0x20 SWAP2 PUSH1 0x5 SHL ADD ADD SWAP1 JUMP JUMPDEST SWAP2 SWAP1 DUP3 PUSH1 0x40 SWAP2 SUB SLT PUSH2 0x26B JUMPI PUSH1 0x20 DUP3 MLOAD SWAP3 ADD MLOAD SWAP1 JUMP JUMPDEST RETURNDATASIZE ISZERO PUSH2 0x12F0 JUMPI RETURNDATASIZE SWAP1 PUSH8 0xFFFFFFFFFFFFFFFF DUP3 GT PUSH2 0x11C5 JUMPI PUSH1 0x40 MLOAD SWAP2 PUSH2 0x12E4 PUSH1 0x1F DUP3 ADD PUSH1 0x1F NOT AND PUSH1 0x20 ADD DUP5 PUSH2 0x11DB JUMP JUMPDEST DUP3 MSTORE RETURNDATASIZE PUSH1 0x0 PUSH1 0x20 DUP5 ADD RETURNDATACOPY JUMP JUMPDEST PUSH1 0x60 SWAP1 JUMP JUMPDEST SWAP1 PUSH1 0x40 SWAP3 DUP4 MLOAD DUP1 SWAP2 PUSH4 0x6EB1769F PUSH1 0xE1 SHL DUP3 MSTORE ADDRESS PUSH1 0x4 DUP4 ADD MSTORE PUSH1 0x1 DUP1 PUSH1 0xA0 SHL SUB DUP1 SWAP5 AND SWAP4 DUP5 PUSH1 0x24 DUP5 ADD MSTORE DUP3 PUSH1 0x44 PUSH1 0x20 SWAP6 DUP7 SWAP4 DUP10 AND GAS STATICCALL SWAP2 DUP3 ISZERO PUSH2 0x142B JUMPI PUSH1 0x0 SWAP3 PUSH2 0x13F9 JUMPI JUMPDEST POP DUP2 LT PUSH2 0x1348 JUMPI JUMPDEST POP POP POP POP POP JUMP JUMPDEST PUSH2 0x13A9 JUMPI JUMPDEST SWAP2 PUSH1 0x0 SWAP3 SWAP2 DUP4 DUP1 SWAP4 DUP7 MLOAD SWAP1 DUP2 ADD SWAP3 PUSH4 0x95EA7B3 PUSH1 0xE0 SHL DUP5 MSTORE PUSH1 0x24 DUP3 ADD MSTORE DUP2 NOT PUSH1 0x44 DUP3 ADD MSTORE PUSH1 0x44 DUP2 MSTORE PUSH2 0x137E DUP2 PUSH2 0x11A9 JUMP JUMPDEST MLOAD SWAP3 GAS CALL PUSH2 0x138A PUSH2 0x12B5 JUMP JUMPDEST POP ISZERO PUSH2 0x1399 JUMPI DUP1 DUP1 DUP1 DUP1 PUSH2 0x1341 JUMP JUMPDEST MLOAD PUSH4 0x12171D83 PUSH1 0xE3 SHL DUP2 MSTORE PUSH1 0x4 SWAP1 REVERT JUMPDEST PUSH1 0x0 DUP1 DUP6 MLOAD DUP4 DUP2 ADD SWAP1 PUSH4 0x95EA7B3 PUSH1 0xE0 SHL DUP3 MSTORE DUP6 PUSH1 0x24 DUP3 ADD MSTORE DUP3 PUSH1 0x44 DUP3 ADD MSTORE PUSH1 0x44 DUP2 MSTORE PUSH2 0x13D5 DUP2 PUSH2 0x11A9 JUMP JUMPDEST MLOAD SWAP1 DUP3 DUP8 GAS CALL PUSH2 0x13E3 PUSH2 0x12B5 JUMP JUMPDEST POP PUSH2 0x134D JUMPI DUP4 MLOAD PUSH4 0x12171D83 PUSH1 0xE3 SHL DUP2 MSTORE PUSH1 0x4 SWAP1 REVERT JUMPDEST SWAP1 SWAP2 DUP4 DUP3 DUP2 RETURNDATASIZE DUP4 GT PUSH2 0x1424 JUMPI JUMPDEST PUSH2 0x1410 DUP2 DUP4 PUSH2 0x11DB JUMP JUMPDEST DUP2 ADD SUB SLT PUSH2 0x1421 JUMPI POP MLOAD SWAP1 CODESIZE PUSH2 0x1339 JUMP JUMPDEST DUP1 REVERT JUMPDEST POP RETURNDATASIZE PUSH2 0x1406 JUMP JUMPDEST DUP7 MLOAD RETURNDATASIZE PUSH1 0x0 DUP3 RETURNDATACOPY RETURNDATASIZE SWAP1 REVERT JUMPDEST PUSH1 0x40 MLOAD PUSH4 0x23B872DD PUSH1 0xE0 SHL PUSH1 0x20 DUP3 ADD SWAP1 DUP2 MSTORE PUSH1 0x1 PUSH1 0x1 PUSH1 0xA0 SHL SUB SWAP4 DUP5 AND PUSH1 0x24 DUP4 ADD MSTORE SWAP4 SWAP1 SWAP3 AND PUSH1 0x44 DUP4 ADD MSTORE PUSH1 0x64 DUP3 ADD SWAP4 SWAP1 SWAP4 MSTORE PUSH1 0x0 SWAP3 DUP4 SWAP3 SWAP1 SWAP2 DUP4 SWAP1 PUSH2 0x1489 DUP2 PUSH1 0x84 DUP2 ADD JUMPDEST SUB PUSH1 0x1F NOT DUP2 ADD DUP4 MSTORE DUP3 PUSH2 0x11DB JUMP JUMPDEST MLOAD SWAP3 GAS CALL PUSH2 0x1495 PUSH2 0x12B5 JUMP JUMPDEST SWAP1 ISZERO SWAP1 DUP2 ISZERO PUSH2 0x14B8 JUMPI JUMPDEST POP PUSH2 0x14A6 JUMPI JUMP JUMPDEST PUSH1 0x40 MLOAD PUSH4 0x12171D83 PUSH1 0xE3 SHL DUP2 MSTORE PUSH1 0x4 SWAP1 REVERT JUMPDEST DUP1 MLOAD DUP1 ISZERO ISZERO SWAP3 POP DUP3 PUSH2 0x14CD JUMPI JUMPDEST POP POP CODESIZE PUSH2 0x149F JUMP JUMPDEST PUSH2 0x14E0 SWAP3 POP PUSH1 0x20 DUP1 SWAP2 DUP4 ADD ADD SWAP2 ADD PUSH2 0x1273 JUMP JUMPDEST ISZERO CODESIZE DUP1 PUSH2 0x14C5 JUMP JUMPDEST PUSH1 0x40 MLOAD PUSH4 0xA9059CBB PUSH1 0xE0 SHL PUSH1 0x20 DUP3 ADD SWAP1 DUP2 MSTORE PUSH1 0x1 PUSH1 0x1 PUSH1 0xA0 SHL SUB SWAP1 SWAP4 AND PUSH1 0x24 DUP3 ADD MSTORE PUSH1 0x44 DUP2 ADD SWAP4 SWAP1 SWAP4 MSTORE PUSH1 0x0 SWAP3 DUP4 SWAP3 SWAP1 DUP4 SWAP1 PUSH2 0x1489 DUP2 PUSH1 0x64 DUP2 ADD PUSH2 0x147B JUMP INVALID LOG2 PUSH5 0x6970667358 0x22 SLT KECCAK256 SWAP12 0xC9 0xD LOG3 0xAB POP PUSH17 0x5E156817FAA2281CE369A3C532C84FEA6D SWAP5 0x5D 0xD8 SWAP12 0xE1 PUSH16 0x970064736F6C63430008140033000000 "},"methodIdentifiers":{"addLiquidity(address,uint256[],uint256,uint256)":"2d94e2fa","getAmountOut(address,address,address,uint256)":"d7176ca9","getAmountOutMultiHop(address[],address[],uint256)":"faea590a","orbitalFactory()":"afdc8765","removeLiquidity(address,uint256,uint256[],uint256)":"d3b7634f","swap(address,address,address,uint256,uint256,uint256)":"75ce8b83","swapMultiHop(address[],address[],uint256,uint256,uint256)":"bd0cfd1c"}}}}}