{"contracts/security-token/SecurityTokenFactory.sol":{"SecurityTokenFactory":{"abi":[{"inputs":[{"internalType":"address","name":"_deployer","type":"address"}],"stateMutability":"nonpayable","type":"constructor"},{"inputs":[],"name":"EmptyName","type":"error"},{"inputs":[],"name":"EmptySymbol","type":"error"},{"inputs":[],"name":"MaxSupplyTooLow","type":"error"},{"inputs":[],"name":"ZeroSupply","type":"error"},{"anonymous":false,"inputs":[{"indexed":true,"internalType":"address","name":"creator","type":"address"},{"indexed":true,"internalType":"address","name":"tokenAddress","type":"address"},{"indexed":true,"internalType":"address","name":"transferRulesAddress","type":"address"},{"indexed":false,"internalType":"string","name":"name","type":"string"},{"indexed":false,"internalType":"string","name":"symbol","type":"string"},{"indexed":false,"internalType":"uint256","name":"totalSupply","type":"uint256"},{"indexed":false,"internalType":"uint256","name":"maxTotalSupply","type":"uint256"},{"indexed":false,"internalType":"bytes32","name":"documentHash","type":"bytes32"},{"indexed":false,"internalType":"string","name":"documentType","type":"string"},{"indexed":false,"internalType":"uint256","name":"originalValue","type":"uint256"}],"name":"SecurityTokenCreated","type":"event"},{"inputs":[{"internalType":"bytes","name":"_rulesBytecode","type":"bytes"},{"internalType":"bytes","name":"_swapBytecode","type":"bytes"},{"internalType":"string","name":"_name","type":"string"},{"internalType":"string","name":"_symbol","type":"string"},{"internalType":"uint8","name":"_decimals","type":"uint8"},{"internalType":"uint256","name":"_totalSupply","type":"uint256"},{"internalType":"uint256","name":"_maxTotalSupply","type":"uint256"},{"internalType":"bytes32","name":"_documentHash","type":"bytes32"},{"internalType":"string","name":"_documentType","type":"string"},{"internalType":"uint256","name":"_originalValue","type":"uint256"},{"internalType":"uint256","name":"_minTimelockAmount","type":"uint256"},{"internalType":"uint256","name":"_maxReleaseDelay","type":"uint256"}],"name":"createSecurityToken","outputs":[{"internalType":"address","name":"tokenAddress","type":"address"},{"internalType":"address","name":"rulesAddress","type":"address"}],"stateMutability":"nonpayable","type":"function"},{"inputs":[],"name":"deployer","outputs":[{"internalType":"contract SecurityTokenDeployer","name":"","type":"address"}],"stateMutability":"view","type":"function"},{"inputs":[{"internalType":"uint256","name":"index","type":"uint256"}],"name":"getTokenAtIndex","outputs":[{"components":[{"internalType":"address","name":"tokenAddress","type":"address"},{"internalType":"address","name":"transferRulesAddress","type":"address"},{"internalType":"address","name":"creator","type":"address"},{"internalType":"string","name":"name","type":"string"},{"internalType":"string","name":"symbol","type":"string"},{"internalType":"uint8","name":"decimals","type":"uint8"},{"internalType":"uint256","name":"totalSupply","type":"uint256"},{"internalType":"uint256","name":"maxTotalSupply","type":"uint256"},{"internalType":"bytes32","name":"documentHash","type":"bytes32"},{"internalType":"string","name":"documentType","type":"string"},{"internalType":"uint256","name":"originalValue","type":"uint256"},{"internalType":"uint256","name":"createdAt","type":"uint256"}],"internalType":"struct SecurityTokenFactory.SecurityToken","name":"","type":"tuple"}],"stateMutability":"view","type":"function"},{"inputs":[{"internalType":"address","name":"tokenAddress","type":"address"}],"name":"getTokenDetails","outputs":[{"components":[{"internalType":"address","name":"tokenAddress","type":"address"},{"internalType":"address","name":"transferRulesAddress","type":"address"},{"internalType":"address","name":"creator","type":"address"},{"internalType":"string","name":"name","type":"string"},{"internalType":"string","name":"symbol","type":"string"},{"internalType":"uint8","name":"decimals","type":"uint8"},{"internalType":"uint256","name":"totalSupply","type":"uint256"},{"internalType":"uint256","name":"maxTotalSupply","type":"uint256"},{"internalType":"bytes32","name":"documentHash","type":"bytes32"},{"internalType":"string","name":"documentType","type":"string"},{"internalType":"uint256","name":"originalValue","type":"uint256"},{"internalType":"uint256","name":"createdAt","type":"uint256"}],"internalType":"struct SecurityTokenFactory.SecurityToken","name":"","type":"tuple"}],"stateMutability":"view","type":"function"},{"inputs":[],"name":"getTotalTokens","outputs":[{"internalType":"uint256","name":"","type":"uint256"}],"stateMutability":"view","type":"function"},{"inputs":[{"internalType":"address","name":"user","type":"address"}],"name":"getUserTokens","outputs":[{"internalType":"address[]","name":"","type":"address[]"}],"stateMutability":"view","type":"function"},{"inputs":[{"internalType":"address","name":"tokenAddress","type":"address"}],"name":"isFactoryToken","outputs":[{"internalType":"bool","name":"","type":"bool"}],"stateMutability":"view","type":"function"}],"evm":{"bytecode":{"linkReferences":{},"object":"60a03461007957601f6111f538819003918201601f19168301916001600160401b0383118484101761007e5780849260209460405283398101031261007957516001600160a01b03811690819003610079576080526040516111609081610095823960805181818160a501528181610203015261032b0152f35b600080fd5b634e487b7160e01b600052604160045260246000fdfe608080604052600436101561001357600080fd5b60003560e01c908163519dc8d214610bb95750806388aa8bee14610b2057806397988dce14610a99578063a4b7914e14610a56578063af56a663146100d4578063d5f394881461008f5763f08b82e61461006c57600080fd5b3461008a57600036600319011261008a576020600054604051908152f35b600080fd5b3461008a57600036600319011261008a576040517f00000000000000000000000000000000000000000000000000000000000000006001600160a01b03168152602090f35b3461008a5761018036600319011261008a576004356001600160401b03811161008a57610105903690600401610e1f565b906024356001600160401b03811161008a57610125903690600401610e1f565b9091906044356001600160401b03811161008a57610147903690600401610e1f565b90949091906064356001600160401b03811161008a5761016b903690600401610e1f565b608435939160ff8516850361008a57610104356001600160401b03811161008a5761019a903690600401610e1f565b9390948715610a44578315610a325760a43515610a205760a43560c43510610a0e576101fd98610144358015610a0357602090915b6101643580156109f757935b6040516203ba1b60e51b8152600481018490529c8d9283926024840191610eaa565b038160007f00000000000000000000000000000000000000000000000000000000000000006001600160a01b03165af1998a156109ac578c9060009b6109b8575b506103259b6020876102d68e8d8f986103059860ff6102a4889d9c9a8f9b6102928b9d6040519b8c9a60018060a01b03168e8c01523360408c01523360608c015261014060808c01526101608b0191610eaa565b888103601f190160a08a015291610eaa565b931660c085015260a43560e085015260c43561010085015261012084015261014083015203601f198101835282610e68565b6102f9866040519788958587013784019183830160008152815194859201610d17565b01038084520182610e68565b604051809a81926203ba1b60e51b83528460048401526024830190610d3a565b038160007f00000000000000000000000000000000000000000000000000000000000000006001600160a01b03165af19788156109ac5760009861097b575b506000549460ff6040519161037883610e4c565b6001600160a01b038b811684528a16602084015233604084015261039d368a8e610ecb565b60608401526103ad368686610ecb565b60808401521660a082015260a43560c082015260c43560e082015260e4356101008201526103dc368587610ecb565b6101208201526101243561014082015242610160820152600160401b8610156106e7576001860160005561040f86610f11565b91909161096557805182546001600160a01b039182166001600160a01b03199182161784556020830151600185018054918416918316919091179055604083015160028501805491909316911617905560608101518051906001600160401b0382116106e75781906104846003860154610f42565b601f8111610912575b50602090601f83116001146108a057600092610895575b50508160011b916000199060031b1c19161760038301555b60808101518051906001600160401b0382116106e75781906104e16004860154610f42565b601f8111610842575b50602090601f83116001146107d0576000926107c5575b50508160011b916000199060031b1c19161760048301555b60ff60a08201511660ff1960058401541617600583015560c0810151600683015560e08101516007830155610100810151600883015561012081015180519060018060401b0382116106e7576105726009850154610f42565b601f811161077e575b50602090601f8311600114610708579180600b9492610160946000926106fd575b50508160011b916000199060031b1c19161760098501555b610140810151600a85015501519101553360005260016020526040600020918254600160401b8110156106e757600181018085558110156106d15760409a876106779861064493610652976000526020600020015560018060a01b038c1660005260026020528c6000205560036020528b600020600160ff198254161790558b519860e08a5260e08a0191610eaa565b918783036020890152610eaa565b9160a4358886015260c435606086015260e435608086015284830360a0860152610eaa565b6101243560c08301526001600160a01b03838116929085169133917f26d79bb30903a58ff476be6610c8dc9b82cf3f0e1355e603c7341152f7a0ed239181900390a482516001600160a01b03928316815291166020820152f35b634e487b7160e01b600052603260045260246000fd5b634e487b7160e01b600052604160045260246000fd5b015190508f8061059c565b906009850160005260206000209160005b601f1985168110610766575092600b94926001926101609583601f1981161061074d575b505050811b0160098501556105b4565b015160001960f88460031b161c191690558f808061073d565b91926020600181928685015181550194019201610719565b600985016000526020600020601f840160051c8101602085106107be575b601f830160051c820181106107b257505061057b565b6000815560010161079c565b508061079c565b015190508d80610501565b9250600485016000526020600020906000935b601f1984168510610827576001945083601f1981161061080e575b505050811b016004830155610519565b015160001960f88460031b161c191690558d80806107fe565b818101518355602094850194600190930192909101906107e3565b909150600485016000526020600020601f840160051c81016020851061088e575b90849392915b601f830160051c8201811061087f5750506104ea565b60008155859450600101610869565b5080610863565b015190508d806104a4565b9250600385016000526020600020906000935b601f19841685106108f7576001945083601f198116106108de575b505050811b0160038301556104bc565b015160001960f88460031b161c191690558d80806108ce565b818101518355602094850194600190930192909101906108b3565b909150600385016000526020600020601f840160051c81016020851061095e575b90849392915b601f830160051c8201811061094f57505061048d565b60008155859450600101610939565b5080610933565b634e487b7160e01b600052600060045260246000fd5b61099e91985060203d6020116109a5575b6109968183610e68565b810190610e8b565b9689610364565b503d61098c565b6040513d6000823e3d90fd5b859b509b8a878b9e60209796973d6020116109f0575b6109d88183610e68565b81016109e391610e8b565b9d5050509b93929361023e565b503d6109ce565b506314ad3680936101db565b5060206001916101cf565b604051633bfc66bf60e11b8152600490fd5b60405163c16f3a9360e01b8152600490fd5b604051630cc613fb60e11b8152600490fd5b604051632ef1310560e01b8152600490fd5b3461008a57602036600319011261008a576004356001600160a01b0381169081900361008a576000526003602052602060ff604060002054166040519015158152f35b3461008a57602036600319011261008a57600435610ab5610fa7565b50600054811015610ae557610ad5610acf610ae192610f11565b506110a9565b60405191829182610d5f565b0390f35b60405162461bcd60e51b8152602060048201526013602482015272496e646578206f7574206f6620626f756e647360681b6044820152606490fd5b3461008a57602036600319011261008a576004356001600160a01b0381169081900361008a57610b4e610fa7565b5080600052600360205260ff6040600020541615610b82576000526002602052610ae1610ad5610acf604060002054610f11565b60405162461bcd60e51b815260206004820152600f60248201526e151bdad95b881b9bdd08199bdd5b99608a1b6044820152606490fd5b3461008a576020908160031936011261008a576001600160a01b03906004358281169081900361008a578284916000526001908183526040600020805480865284860191600052846000209060005b818110610d045750505084610c1e910385610e68565b835182610c43610c2d83610f7c565b92610c3b6040519485610e68565b808452610f7c565b8286019690601f19013688376000915b610c97575b50506040519380850191818652518092526040850195926000905b838210610c805786880387f35b845181168852968201969382019390850190610c73565b809694969592939551821015610cf85785610cbb610cb58484610f93565b51610f11565b505416610cc88386610f93565b526000198214610ce2578680920191949695939295610c53565b634e487b7160e01b600052601160045260246000fd5b95939594929194610c58565b8254845292860192918501918501610c08565b60005b838110610d2a5750506000910152565b8181015183820152602001610d1a565b90602091610d5381518092818552858086019101610d17565b601f01601f1916010190565b6020815260018060a01b0380835116602083015280602084015116604083015260408301511660608201526060820151610da7610180918260808501526101a0840190610d3a565b92610e0a610dc7608083015195601f1996878783030160a0880152610d3a565b60ff60a08401511660c086015260c083015160e086015260e083015161010090818701528301516101209081870152830151610140968683030187870152610d3a565b93810151906101609182850152015191015290565b9181601f8401121561008a578235916001600160401b03831161008a576020838186019501011161008a57565b61018081019081106001600160401b038211176106e757604052565b601f909101601f19168101906001600160401b038211908210176106e757604052565b9081602091031261008a57516001600160a01b038116810361008a5790565b908060209392818452848401376000828201840152601f01601f1916010190565b9192916001600160401b0382116106e75760405191610ef4601f8201601f191660200184610e68565b82948184528183011161008a578281602093846000960137010152565b906000918254811015610f2e57828052600c602084209102019190565b634e487b7160e01b83526032600452602483fd5b90600182811c92168015610f72575b6020831014610f5c57565b634e487b7160e01b600052602260045260246000fd5b91607f1691610f51565b6001600160401b0381116106e75760051b60200190565b80518210156106d15760209160051b010190565b60405190610fb482610e4c565b81610160600091828152826020820152826040820152606080820152606060808201528260a08201528260c08201528260e0820152826101008201526060610120820152826101408201520152565b906040519182600082549261101784610f42565b9081845260019485811690816000146110865750600114611043575b505061104192500383610e68565b565b9093915060005260209081600020936000915b81831061106e57505061104193508201013880611033565b85548884018501529485019487945091830191611056565b91505061104194506020925060ff191682840152151560051b8201013880611033565b906040516110b681610e4c565b610160600b829460018060a01b0380825416855280600183015416602086015260028201541660408501526110ed60038201611003565b60608501526110fe60048201611003565b608085015260ff60058201541660a0850152600681015460c0850152600781015460e0850152600881015461010085015261113b60098201611003565b610120850152600a810154610140850152015491015256fea164736f6c6343000814000a","opcodes":"PUSH1 0xA0 CALLVALUE PUSH2 0x79 JUMPI PUSH1 0x1F PUSH2 0x11F5 CODESIZE DUP2 SWAP1 SUB SWAP2 DUP3 ADD PUSH1 0x1F NOT AND DUP4 ADD SWAP2 PUSH1 0x1 PUSH1 0x1 PUSH1 0x40 SHL SUB DUP4 GT DUP5 DUP5 LT OR PUSH2 0x7E JUMPI DUP1 DUP5 SWAP3 PUSH1 0x20 SWAP5 PUSH1 0x40 MSTORE DUP4 CODECOPY DUP2 ADD SUB SLT PUSH2 0x79 JUMPI MLOAD PUSH1 0x1 PUSH1 0x1 PUSH1 0xA0 SHL SUB DUP2 AND SWAP1 DUP2 SWAP1 SUB PUSH2 0x79 JUMPI PUSH1 0x80 MSTORE PUSH1 0x40 MLOAD PUSH2 0x1160 SWAP1 DUP2 PUSH2 0x95 DUP3 CODECOPY PUSH1 0x80 MLOAD DUP2 DUP2 DUP2 PUSH1 0xA5 ADD MSTORE DUP2 DUP2 PUSH2 0x203 ADD MSTORE PUSH2 0x32B ADD MSTORE RETURN JUMPDEST PUSH1 0x0 DUP1 REVERT JUMPDEST PUSH4 0x4E487B71 PUSH1 0xE0 SHL PUSH1 0x0 MSTORE PUSH1 0x41 PUSH1 0x4 MSTORE PUSH1 0x24 PUSH1 0x0 REVERT INVALID PUSH1 0x80 DUP1 PUSH1 0x40 MSTORE PUSH1 0x4 CALLDATASIZE LT ISZERO PUSH2 0x13 JUMPI PUSH1 0x0 DUP1 REVERT JUMPDEST PUSH1 0x0 CALLDATALOAD PUSH1 0xE0 SHR SWAP1 DUP2 PUSH4 0x519DC8D2 EQ PUSH2 0xBB9 JUMPI POP DUP1 PUSH4 0x88AA8BEE EQ PUSH2 0xB20 JUMPI DUP1 PUSH4 0x97988DCE EQ PUSH2 0xA99 JUMPI DUP1 PUSH4 0xA4B7914E EQ PUSH2 0xA56 JUMPI DUP1 PUSH4 0xAF56A663 EQ PUSH2 0xD4 JUMPI DUP1 PUSH4 0xD5F39488 EQ PUSH2 0x8F JUMPI PUSH4 0xF08B82E6 EQ PUSH2 0x6C JUMPI PUSH1 0x0 DUP1 REVERT JUMPDEST CALLVALUE PUSH2 0x8A JUMPI PUSH1 0x0 CALLDATASIZE PUSH1 0x3 NOT ADD SLT PUSH2 0x8A JUMPI PUSH1 0x20 PUSH1 0x0 SLOAD PUSH1 0x40 MLOAD SWAP1 DUP2 MSTORE RETURN JUMPDEST PUSH1 0x0 DUP1 REVERT JUMPDEST CALLVALUE PUSH2 0x8A JUMPI PUSH1 0x0 CALLDATASIZE PUSH1 0x3 NOT ADD SLT PUSH2 0x8A JUMPI PUSH1 0x40 MLOAD PUSH32 0x0 PUSH1 0x1 PUSH1 0x1 PUSH1 0xA0 SHL SUB AND DUP2 MSTORE PUSH1 0x20 SWAP1 RETURN JUMPDEST CALLVALUE PUSH2 0x8A JUMPI PUSH2 0x180 CALLDATASIZE PUSH1 0x3 NOT ADD SLT PUSH2 0x8A JUMPI PUSH1 0x4 CALLDATALOAD PUSH1 0x1 PUSH1 0x1 PUSH1 0x40 SHL SUB DUP2 GT PUSH2 0x8A JUMPI PUSH2 0x105 SWAP1 CALLDATASIZE SWAP1 PUSH1 0x4 ADD PUSH2 0xE1F JUMP JUMPDEST SWAP1 PUSH1 0x24 CALLDATALOAD PUSH1 0x1 PUSH1 0x1 PUSH1 0x40 SHL SUB DUP2 GT PUSH2 0x8A JUMPI PUSH2 0x125 SWAP1 CALLDATASIZE SWAP1 PUSH1 0x4 ADD PUSH2 0xE1F JUMP JUMPDEST SWAP1 SWAP2 SWAP1 PUSH1 0x44 CALLDATALOAD PUSH1 0x1 PUSH1 0x1 PUSH1 0x40 SHL SUB DUP2 GT PUSH2 0x8A JUMPI PUSH2 0x147 SWAP1 CALLDATASIZE SWAP1 PUSH1 0x4 ADD PUSH2 0xE1F JUMP JUMPDEST SWAP1 SWAP5 SWAP1 SWAP2 SWAP1 PUSH1 0x64 CALLDATALOAD PUSH1 0x1 PUSH1 0x1 PUSH1 0x40 SHL SUB DUP2 GT PUSH2 0x8A JUMPI PUSH2 0x16B SWAP1 CALLDATASIZE SWAP1 PUSH1 0x4 ADD PUSH2 0xE1F JUMP JUMPDEST PUSH1 0x84 CALLDATALOAD SWAP4 SWAP2 PUSH1 0xFF DUP6 AND DUP6 SUB PUSH2 0x8A JUMPI PUSH2 0x104 CALLDATALOAD PUSH1 0x1 PUSH1 0x1 PUSH1 0x40 SHL SUB DUP2 GT PUSH2 0x8A JUMPI PUSH2 0x19A SWAP1 CALLDATASIZE SWAP1 PUSH1 0x4 ADD PUSH2 0xE1F JUMP JUMPDEST SWAP4 SWAP1 SWAP5 DUP8 ISZERO PUSH2 0xA44 JUMPI DUP4 ISZERO PUSH2 0xA32 JUMPI PUSH1 0xA4 CALLDATALOAD ISZERO PUSH2 0xA20 JUMPI PUSH1 0xA4 CALLDATALOAD PUSH1 0xC4 CALLDATALOAD LT PUSH2 0xA0E JUMPI PUSH2 0x1FD SWAP9 PUSH2 0x144 CALLDATALOAD DUP1 ISZERO PUSH2 0xA03 JUMPI PUSH1 0x20 SWAP1 SWAP2 JUMPDEST PUSH2 0x164 CALLDATALOAD DUP1 ISZERO PUSH2 0x9F7 JUMPI SWAP4 JUMPDEST PUSH1 0x40 MLOAD PUSH3 0x3BA1B PUSH1 0xE5 SHL DUP2 MSTORE PUSH1 0x4 DUP2 ADD DUP5 SWAP1 MSTORE SWAP13 DUP14 SWAP3 DUP4 SWAP3 PUSH1 0x24 DUP5 ADD SWAP2 PUSH2 0xEAA JUMP JUMPDEST SUB DUP2 PUSH1 0x0 PUSH32 0x0 PUSH1 0x1 PUSH1 0x1 PUSH1 0xA0 SHL SUB AND GAS CALL SWAP10 DUP11 ISZERO PUSH2 0x9AC JUMPI DUP13 SWAP1 PUSH1 0x0 SWAP12 PUSH2 0x9B8 JUMPI JUMPDEST POP PUSH2 0x325 SWAP12 PUSH1 0x20 DUP8 PUSH2 0x2D6 DUP15 DUP14 DUP16 SWAP9 PUSH2 0x305 SWAP9 PUSH1 0xFF PUSH2 0x2A4 DUP9 SWAP14 SWAP13 SWAP11 DUP16 SWAP12 PUSH2 0x292 DUP12 SWAP14 PUSH1 0x40 MLOAD SWAP12 DUP13 SWAP11 PUSH1 0x1 DUP1 PUSH1 0xA0 SHL SUB AND DUP15 DUP13 ADD MSTORE CALLER PUSH1 0x40 DUP13 ADD MSTORE CALLER PUSH1 0x60 DUP13 ADD MSTORE PUSH2 0x140 PUSH1 0x80 DUP13 ADD MSTORE PUSH2 0x160 DUP12 ADD SWAP2 PUSH2 0xEAA JUMP JUMPDEST DUP9 DUP2 SUB PUSH1 0x1F NOT ADD PUSH1 0xA0 DUP11 ADD MSTORE SWAP2 PUSH2 0xEAA JUMP JUMPDEST SWAP4 AND PUSH1 0xC0 DUP6 ADD MSTORE PUSH1 0xA4 CALLDATALOAD PUSH1 0xE0 DUP6 ADD MSTORE PUSH1 0xC4 CALLDATALOAD PUSH2 0x100 DUP6 ADD MSTORE PUSH2 0x120 DUP5 ADD MSTORE PUSH2 0x140 DUP4 ADD MSTORE SUB PUSH1 0x1F NOT DUP2 ADD DUP4 MSTORE DUP3 PUSH2 0xE68 JUMP JUMPDEST PUSH2 0x2F9 DUP7 PUSH1 0x40 MLOAD SWAP8 DUP9 SWAP6 DUP6 DUP8 ADD CALLDATACOPY DUP5 ADD SWAP2 DUP4 DUP4 ADD PUSH1 0x0 DUP2 MSTORE DUP2 MLOAD SWAP5 DUP6 SWAP3 ADD PUSH2 0xD17 JUMP JUMPDEST ADD SUB DUP1 DUP5 MSTORE ADD DUP3 PUSH2 0xE68 JUMP JUMPDEST PUSH1 0x40 MLOAD DUP1 SWAP11 DUP2 SWAP3 PUSH3 0x3BA1B PUSH1 0xE5 SHL DUP4 MSTORE DUP5 PUSH1 0x4 DUP5 ADD MSTORE PUSH1 0x24 DUP4 ADD SWAP1 PUSH2 0xD3A JUMP JUMPDEST SUB DUP2 PUSH1 0x0 PUSH32 0x0 PUSH1 0x1 PUSH1 0x1 PUSH1 0xA0 SHL SUB AND GAS CALL SWAP8 DUP9 ISZERO PUSH2 0x9AC JUMPI PUSH1 0x0 SWAP9 PUSH2 0x97B JUMPI JUMPDEST POP PUSH1 0x0 SLOAD SWAP5 PUSH1 0xFF PUSH1 0x40 MLOAD SWAP2 PUSH2 0x378 DUP4 PUSH2 0xE4C JUMP JUMPDEST PUSH1 0x1 PUSH1 0x1 PUSH1 0xA0 SHL SUB DUP12 DUP2 AND DUP5 MSTORE DUP11 AND PUSH1 0x20 DUP5 ADD MSTORE CALLER PUSH1 0x40 DUP5 ADD MSTORE PUSH2 0x39D CALLDATASIZE DUP11 DUP15 PUSH2 0xECB JUMP JUMPDEST PUSH1 0x60 DUP5 ADD MSTORE PUSH2 0x3AD CALLDATASIZE DUP7 DUP7 PUSH2 0xECB JUMP JUMPDEST PUSH1 0x80 DUP5 ADD MSTORE AND PUSH1 0xA0 DUP3 ADD MSTORE PUSH1 0xA4 CALLDATALOAD PUSH1 0xC0 DUP3 ADD MSTORE PUSH1 0xC4 CALLDATALOAD PUSH1 0xE0 DUP3 ADD MSTORE PUSH1 0xE4 CALLDATALOAD PUSH2 0x100 DUP3 ADD MSTORE PUSH2 0x3DC CALLDATASIZE DUP6 DUP8 PUSH2 0xECB JUMP JUMPDEST PUSH2 0x120 DUP3 ADD MSTORE PUSH2 0x124 CALLDATALOAD PUSH2 0x140 DUP3 ADD MSTORE TIMESTAMP PUSH2 0x160 DUP3 ADD MSTORE PUSH1 0x1 PUSH1 0x40 SHL DUP7 LT ISZERO PUSH2 0x6E7 JUMPI PUSH1 0x1 DUP7 ADD PUSH1 0x0 SSTORE PUSH2 0x40F DUP7 PUSH2 0xF11 JUMP JUMPDEST SWAP2 SWAP1 SWAP2 PUSH2 0x965 JUMPI DUP1 MLOAD DUP3 SLOAD PUSH1 0x1 PUSH1 0x1 PUSH1 0xA0 SHL SUB SWAP2 DUP3 AND PUSH1 0x1 PUSH1 0x1 PUSH1 0xA0 SHL SUB NOT SWAP2 DUP3 AND OR DUP5 SSTORE PUSH1 0x20 DUP4 ADD MLOAD PUSH1 0x1 DUP6 ADD DUP1 SLOAD SWAP2 DUP5 AND SWAP2 DUP4 AND SWAP2 SWAP1 SWAP2 OR SWAP1 SSTORE PUSH1 0x40 DUP4 ADD MLOAD PUSH1 0x2 DUP6 ADD DUP1 SLOAD SWAP2 SWAP1 SWAP4 AND SWAP2 AND OR SWAP1 SSTORE PUSH1 0x60 DUP2 ADD MLOAD DUP1 MLOAD SWAP1 PUSH1 0x1 PUSH1 0x1 PUSH1 0x40 SHL SUB DUP3 GT PUSH2 0x6E7 JUMPI DUP2 SWAP1 PUSH2 0x484 PUSH1 0x3 DUP7 ADD SLOAD PUSH2 0xF42 JUMP JUMPDEST PUSH1 0x1F DUP2 GT PUSH2 0x912 JUMPI JUMPDEST POP PUSH1 0x20 SWAP1 PUSH1 0x1F DUP4 GT PUSH1 0x1 EQ PUSH2 0x8A0 JUMPI PUSH1 0x0 SWAP3 PUSH2 0x895 JUMPI JUMPDEST POP POP DUP2 PUSH1 0x1 SHL SWAP2 PUSH1 0x0 NOT SWAP1 PUSH1 0x3 SHL SHR NOT AND OR PUSH1 0x3 DUP4 ADD SSTORE JUMPDEST PUSH1 0x80 DUP2 ADD MLOAD DUP1 MLOAD SWAP1 PUSH1 0x1 PUSH1 0x1 PUSH1 0x40 SHL SUB DUP3 GT PUSH2 0x6E7 JUMPI DUP2 SWAP1 PUSH2 0x4E1 PUSH1 0x4 DUP7 ADD SLOAD PUSH2 0xF42 JUMP JUMPDEST PUSH1 0x1F DUP2 GT PUSH2 0x842 JUMPI JUMPDEST POP PUSH1 0x20 SWAP1 PUSH1 0x1F DUP4 GT PUSH1 0x1 EQ PUSH2 0x7D0 JUMPI PUSH1 0x0 SWAP3 PUSH2 0x7C5 JUMPI JUMPDEST POP POP DUP2 PUSH1 0x1 SHL SWAP2 PUSH1 0x0 NOT SWAP1 PUSH1 0x3 SHL SHR NOT AND OR PUSH1 0x4 DUP4 ADD SSTORE JUMPDEST PUSH1 0xFF PUSH1 0xA0 DUP3 ADD MLOAD AND PUSH1 0xFF NOT PUSH1 0x5 DUP5 ADD SLOAD AND OR PUSH1 0x5 DUP4 ADD SSTORE PUSH1 0xC0 DUP2 ADD MLOAD PUSH1 0x6 DUP4 ADD SSTORE PUSH1 0xE0 DUP2 ADD MLOAD PUSH1 0x7 DUP4 ADD SSTORE PUSH2 0x100 DUP2 ADD MLOAD PUSH1 0x8 DUP4 ADD SSTORE PUSH2 0x120 DUP2 ADD MLOAD DUP1 MLOAD SWAP1 PUSH1 0x1 DUP1 PUSH1 0x40 SHL SUB DUP3 GT PUSH2 0x6E7 JUMPI PUSH2 0x572 PUSH1 0x9 DUP6 ADD SLOAD PUSH2 0xF42 JUMP JUMPDEST PUSH1 0x1F DUP2 GT PUSH2 0x77E JUMPI JUMPDEST POP PUSH1 0x20 SWAP1 PUSH1 0x1F DUP4 GT PUSH1 0x1 EQ PUSH2 0x708 JUMPI SWAP2 DUP1 PUSH1 0xB SWAP5 SWAP3 PUSH2 0x160 SWAP5 PUSH1 0x0 SWAP3 PUSH2 0x6FD JUMPI JUMPDEST POP POP DUP2 PUSH1 0x1 SHL SWAP2 PUSH1 0x0 NOT SWAP1 PUSH1 0x3 SHL SHR NOT AND OR PUSH1 0x9 DUP6 ADD SSTORE JUMPDEST PUSH2 0x140 DUP2 ADD MLOAD PUSH1 0xA DUP6 ADD SSTORE ADD MLOAD SWAP2 ADD SSTORE CALLER PUSH1 0x0 MSTORE PUSH1 0x1 PUSH1 0x20 MSTORE PUSH1 0x40 PUSH1 0x0 KECCAK256 SWAP2 DUP3 SLOAD PUSH1 0x1 PUSH1 0x40 SHL DUP2 LT ISZERO PUSH2 0x6E7 JUMPI PUSH1 0x1 DUP2 ADD DUP1 DUP6 SSTORE DUP2 LT ISZERO PUSH2 0x6D1 JUMPI PUSH1 0x40 SWAP11 DUP8 PUSH2 0x677 SWAP9 PUSH2 0x644 SWAP4 PUSH2 0x652 SWAP8 PUSH1 0x0 MSTORE PUSH1 0x20 PUSH1 0x0 KECCAK256 ADD SSTORE PUSH1 0x1 DUP1 PUSH1 0xA0 SHL SUB DUP13 AND PUSH1 0x0 MSTORE PUSH1 0x2 PUSH1 0x20 MSTORE DUP13 PUSH1 0x0 KECCAK256 SSTORE PUSH1 0x3 PUSH1 0x20 MSTORE DUP12 PUSH1 0x0 KECCAK256 PUSH1 0x1 PUSH1 0xFF NOT DUP3 SLOAD AND OR SWAP1 SSTORE DUP12 MLOAD SWAP9 PUSH1 0xE0 DUP11 MSTORE PUSH1 0xE0 DUP11 ADD SWAP2 PUSH2 0xEAA JUMP JUMPDEST SWAP2 DUP8 DUP4 SUB PUSH1 0x20 DUP10 ADD MSTORE PUSH2 0xEAA JUMP JUMPDEST SWAP2 PUSH1 0xA4 CALLDATALOAD DUP9 DUP7 ADD MSTORE PUSH1 0xC4 CALLDATALOAD PUSH1 0x60 DUP7 ADD MSTORE PUSH1 0xE4 CALLDATALOAD PUSH1 0x80 DUP7 ADD MSTORE DUP5 DUP4 SUB PUSH1 0xA0 DUP7 ADD MSTORE PUSH2 0xEAA JUMP JUMPDEST PUSH2 0x124 CALLDATALOAD PUSH1 0xC0 DUP4 ADD MSTORE PUSH1 0x1 PUSH1 0x1 PUSH1 0xA0 SHL SUB DUP4 DUP2 AND SWAP3 SWAP1 DUP6 AND SWAP2 CALLER SWAP2 PUSH32 0x26D79BB30903A58FF476BE6610C8DC9B82CF3F0E1355E603C7341152F7A0ED23 SWAP2 DUP2 SWAP1 SUB SWAP1 LOG4 DUP3 MLOAD PUSH1 0x1 PUSH1 0x1 PUSH1 0xA0 SHL SUB SWAP3 DUP4 AND DUP2 MSTORE SWAP2 AND PUSH1 0x20 DUP3 ADD MSTORE RETURN JUMPDEST PUSH4 0x4E487B71 PUSH1 0xE0 SHL PUSH1 0x0 MSTORE PUSH1 0x32 PUSH1 0x4 MSTORE PUSH1 0x24 PUSH1 0x0 REVERT JUMPDEST PUSH4 0x4E487B71 PUSH1 0xE0 SHL PUSH1 0x0 MSTORE PUSH1 0x41 PUSH1 0x4 MSTORE PUSH1 0x24 PUSH1 0x0 REVERT JUMPDEST ADD MLOAD SWAP1 POP DUP16 DUP1 PUSH2 0x59C JUMP JUMPDEST SWAP1 PUSH1 0x9 DUP6 ADD PUSH1 0x0 MSTORE PUSH1 0x20 PUSH1 0x0 KECCAK256 SWAP2 PUSH1 0x0 JUMPDEST PUSH1 0x1F NOT DUP6 AND DUP2 LT PUSH2 0x766 JUMPI POP SWAP3 PUSH1 0xB SWAP5 SWAP3 PUSH1 0x1 SWAP3 PUSH2 0x160 SWAP6 DUP4 PUSH1 0x1F NOT DUP2 AND LT PUSH2 0x74D JUMPI JUMPDEST POP POP POP DUP2 SHL ADD PUSH1 0x9 DUP6 ADD SSTORE PUSH2 0x5B4 JUMP JUMPDEST ADD MLOAD PUSH1 0x0 NOT PUSH1 0xF8 DUP5 PUSH1 0x3 SHL AND SHR NOT AND SWAP1 SSTORE DUP16 DUP1 DUP1 PUSH2 0x73D JUMP JUMPDEST SWAP2 SWAP3 PUSH1 0x20 PUSH1 0x1 DUP2 SWAP3 DUP7 DUP6 ADD MLOAD DUP2 SSTORE ADD SWAP5 ADD SWAP3 ADD PUSH2 0x719 JUMP JUMPDEST PUSH1 0x9 DUP6 ADD PUSH1 0x0 MSTORE PUSH1 0x20 PUSH1 0x0 KECCAK256 PUSH1 0x1F DUP5 ADD PUSH1 0x5 SHR DUP2 ADD PUSH1 0x20 DUP6 LT PUSH2 0x7BE JUMPI JUMPDEST PUSH1 0x1F DUP4 ADD PUSH1 0x5 SHR DUP3 ADD DUP2 LT PUSH2 0x7B2 JUMPI POP POP PUSH2 0x57B JUMP JUMPDEST PUSH1 0x0 DUP2 SSTORE PUSH1 0x1 ADD PUSH2 0x79C JUMP JUMPDEST POP DUP1 PUSH2 0x79C JUMP JUMPDEST ADD MLOAD SWAP1 POP DUP14 DUP1 PUSH2 0x501 JUMP JUMPDEST SWAP3 POP PUSH1 0x4 DUP6 ADD PUSH1 0x0 MSTORE PUSH1 0x20 PUSH1 0x0 KECCAK256 SWAP1 PUSH1 0x0 SWAP4 JUMPDEST PUSH1 0x1F NOT DUP5 AND DUP6 LT PUSH2 0x827 JUMPI PUSH1 0x1 SWAP5 POP DUP4 PUSH1 0x1F NOT DUP2 AND LT PUSH2 0x80E JUMPI JUMPDEST POP POP POP DUP2 SHL ADD PUSH1 0x4 DUP4 ADD SSTORE PUSH2 0x519 JUMP JUMPDEST ADD MLOAD PUSH1 0x0 NOT PUSH1 0xF8 DUP5 PUSH1 0x3 SHL AND SHR NOT AND SWAP1 SSTORE DUP14 DUP1 DUP1 PUSH2 0x7FE JUMP JUMPDEST DUP2 DUP2 ADD MLOAD DUP4 SSTORE PUSH1 0x20 SWAP5 DUP6 ADD SWAP5 PUSH1 0x1 SWAP1 SWAP4 ADD SWAP3 SWAP1 SWAP2 ADD SWAP1 PUSH2 0x7E3 JUMP JUMPDEST SWAP1 SWAP2 POP PUSH1 0x4 DUP6 ADD PUSH1 0x0 MSTORE PUSH1 0x20 PUSH1 0x0 KECCAK256 PUSH1 0x1F DUP5 ADD PUSH1 0x5 SHR DUP2 ADD PUSH1 0x20 DUP6 LT PUSH2 0x88E JUMPI JUMPDEST SWAP1 DUP5 SWAP4 SWAP3 SWAP2 JUMPDEST PUSH1 0x1F DUP4 ADD PUSH1 0x5 SHR DUP3 ADD DUP2 LT PUSH2 0x87F JUMPI POP POP PUSH2 0x4EA JUMP JUMPDEST PUSH1 0x0 DUP2 SSTORE DUP6 SWAP5 POP PUSH1 0x1 ADD PUSH2 0x869 JUMP JUMPDEST POP DUP1 PUSH2 0x863 JUMP JUMPDEST ADD MLOAD SWAP1 POP DUP14 DUP1 PUSH2 0x4A4 JUMP JUMPDEST SWAP3 POP PUSH1 0x3 DUP6 ADD PUSH1 0x0 MSTORE PUSH1 0x20 PUSH1 0x0 KECCAK256 SWAP1 PUSH1 0x0 SWAP4 JUMPDEST PUSH1 0x1F NOT DUP5 AND DUP6 LT PUSH2 0x8F7 JUMPI PUSH1 0x1 SWAP5 POP DUP4 PUSH1 0x1F NOT DUP2 AND LT PUSH2 0x8DE JUMPI JUMPDEST POP POP POP DUP2 SHL ADD PUSH1 0x3 DUP4 ADD SSTORE PUSH2 0x4BC JUMP JUMPDEST ADD MLOAD PUSH1 0x0 NOT PUSH1 0xF8 DUP5 PUSH1 0x3 SHL AND SHR NOT AND SWAP1 SSTORE DUP14 DUP1 DUP1 PUSH2 0x8CE JUMP JUMPDEST DUP2 DUP2 ADD MLOAD DUP4 SSTORE PUSH1 0x20 SWAP5 DUP6 ADD SWAP5 PUSH1 0x1 SWAP1 SWAP4 ADD SWAP3 SWAP1 SWAP2 ADD SWAP1 PUSH2 0x8B3 JUMP JUMPDEST SWAP1 SWAP2 POP PUSH1 0x3 DUP6 ADD PUSH1 0x0 MSTORE PUSH1 0x20 PUSH1 0x0 KECCAK256 PUSH1 0x1F DUP5 ADD PUSH1 0x5 SHR DUP2 ADD PUSH1 0x20 DUP6 LT PUSH2 0x95E JUMPI JUMPDEST SWAP1 DUP5 SWAP4 SWAP3 SWAP2 JUMPDEST PUSH1 0x1F DUP4 ADD PUSH1 0x5 SHR DUP3 ADD DUP2 LT PUSH2 0x94F JUMPI POP POP PUSH2 0x48D JUMP JUMPDEST PUSH1 0x0 DUP2 SSTORE DUP6 SWAP5 POP PUSH1 0x1 ADD PUSH2 0x939 JUMP JUMPDEST POP DUP1 PUSH2 0x933 JUMP JUMPDEST PUSH4 0x4E487B71 PUSH1 0xE0 SHL PUSH1 0x0 MSTORE PUSH1 0x0 PUSH1 0x4 MSTORE PUSH1 0x24 PUSH1 0x0 REVERT JUMPDEST PUSH2 0x99E SWAP2 SWAP9 POP PUSH1 0x20 RETURNDATASIZE PUSH1 0x20 GT PUSH2 0x9A5 JUMPI JUMPDEST PUSH2 0x996 DUP2 DUP4 PUSH2 0xE68 JUMP JUMPDEST DUP2 ADD SWAP1 PUSH2 0xE8B JUMP JUMPDEST SWAP7 DUP10 PUSH2 0x364 JUMP JUMPDEST POP RETURNDATASIZE PUSH2 0x98C JUMP JUMPDEST PUSH1 0x40 MLOAD RETURNDATASIZE PUSH1 0x0 DUP3 RETURNDATACOPY RETURNDATASIZE SWAP1 REVERT JUMPDEST DUP6 SWAP12 POP SWAP12 DUP11 DUP8 DUP12 SWAP15 PUSH1 0x20 SWAP8 SWAP7 SWAP8 RETURNDATASIZE PUSH1 0x20 GT PUSH2 0x9F0 JUMPI JUMPDEST PUSH2 0x9D8 DUP2 DUP4 PUSH2 0xE68 JUMP JUMPDEST DUP2 ADD PUSH2 0x9E3 SWAP2 PUSH2 0xE8B JUMP JUMPDEST SWAP14 POP POP POP SWAP12 SWAP4 SWAP3 SWAP4 PUSH2 0x23E JUMP JUMPDEST POP RETURNDATASIZE PUSH2 0x9CE JUMP JUMPDEST POP PUSH4 0x14AD3680 SWAP4 PUSH2 0x1DB JUMP JUMPDEST POP PUSH1 0x20 PUSH1 0x1 SWAP2 PUSH2 0x1CF JUMP JUMPDEST PUSH1 0x40 MLOAD PUSH4 0x3BFC66BF PUSH1 0xE1 SHL DUP2 MSTORE PUSH1 0x4 SWAP1 REVERT JUMPDEST PUSH1 0x40 MLOAD PUSH4 0xC16F3A93 PUSH1 0xE0 SHL DUP2 MSTORE PUSH1 0x4 SWAP1 REVERT JUMPDEST PUSH1 0x40 MLOAD PUSH4 0xCC613FB PUSH1 0xE1 SHL DUP2 MSTORE PUSH1 0x4 SWAP1 REVERT JUMPDEST PUSH1 0x40 MLOAD PUSH4 0x2EF13105 PUSH1 0xE0 SHL DUP2 MSTORE PUSH1 0x4 SWAP1 REVERT JUMPDEST CALLVALUE PUSH2 0x8A JUMPI PUSH1 0x20 CALLDATASIZE PUSH1 0x3 NOT ADD SLT PUSH2 0x8A JUMPI PUSH1 0x4 CALLDATALOAD PUSH1 0x1 PUSH1 0x1 PUSH1 0xA0 SHL SUB DUP2 AND SWAP1 DUP2 SWAP1 SUB PUSH2 0x8A JUMPI PUSH1 0x0 MSTORE PUSH1 0x3 PUSH1 0x20 MSTORE PUSH1 0x20 PUSH1 0xFF PUSH1 0x40 PUSH1 0x0 KECCAK256 SLOAD AND PUSH1 0x40 MLOAD SWAP1 ISZERO ISZERO DUP2 MSTORE RETURN JUMPDEST CALLVALUE PUSH2 0x8A JUMPI PUSH1 0x20 CALLDATASIZE PUSH1 0x3 NOT ADD SLT PUSH2 0x8A JUMPI PUSH1 0x4 CALLDATALOAD PUSH2 0xAB5 PUSH2 0xFA7 JUMP JUMPDEST POP PUSH1 0x0 SLOAD DUP2 LT ISZERO PUSH2 0xAE5 JUMPI PUSH2 0xAD5 PUSH2 0xACF PUSH2 0xAE1 SWAP3 PUSH2 0xF11 JUMP JUMPDEST POP PUSH2 0x10A9 JUMP JUMPDEST PUSH1 0x40 MLOAD SWAP2 DUP3 SWAP2 DUP3 PUSH2 0xD5F JUMP JUMPDEST SUB SWAP1 RETURN JUMPDEST PUSH1 0x40 MLOAD PUSH3 0x461BCD PUSH1 0xE5 SHL DUP2 MSTORE PUSH1 0x20 PUSH1 0x4 DUP3 ADD MSTORE PUSH1 0x13 PUSH1 0x24 DUP3 ADD MSTORE PUSH19 0x496E646578206F7574206F6620626F756E6473 PUSH1 0x68 SHL PUSH1 0x44 DUP3 ADD MSTORE PUSH1 0x64 SWAP1 REVERT JUMPDEST CALLVALUE PUSH2 0x8A JUMPI PUSH1 0x20 CALLDATASIZE PUSH1 0x3 NOT ADD SLT PUSH2 0x8A JUMPI PUSH1 0x4 CALLDATALOAD PUSH1 0x1 PUSH1 0x1 PUSH1 0xA0 SHL SUB DUP2 AND SWAP1 DUP2 SWAP1 SUB PUSH2 0x8A JUMPI PUSH2 0xB4E PUSH2 0xFA7 JUMP JUMPDEST POP DUP1 PUSH1 0x0 MSTORE PUSH1 0x3 PUSH1 0x20 MSTORE PUSH1 0xFF PUSH1 0x40 PUSH1 0x0 KECCAK256 SLOAD AND ISZERO PUSH2 0xB82 JUMPI PUSH1 0x0 MSTORE PUSH1 0x2 PUSH1 0x20 MSTORE PUSH2 0xAE1 PUSH2 0xAD5 PUSH2 0xACF PUSH1 0x40 PUSH1 0x0 KECCAK256 SLOAD PUSH2 0xF11 JUMP JUMPDEST PUSH1 0x40 MLOAD PUSH3 0x461BCD PUSH1 0xE5 SHL DUP2 MSTORE PUSH1 0x20 PUSH1 0x4 DUP3 ADD MSTORE PUSH1 0xF PUSH1 0x24 DUP3 ADD MSTORE PUSH15 0x151BDAD95B881B9BDD08199BDD5B99 PUSH1 0x8A SHL PUSH1 0x44 DUP3 ADD MSTORE PUSH1 0x64 SWAP1 REVERT JUMPDEST CALLVALUE PUSH2 0x8A JUMPI PUSH1 0x20 SWAP1 DUP2 PUSH1 0x3 NOT CALLDATASIZE ADD SLT PUSH2 0x8A JUMPI PUSH1 0x1 PUSH1 0x1 PUSH1 0xA0 SHL SUB SWAP1 PUSH1 0x4 CALLDATALOAD DUP3 DUP2 AND SWAP1 DUP2 SWAP1 SUB PUSH2 0x8A JUMPI DUP3 DUP5 SWAP2 PUSH1 0x0 MSTORE PUSH1 0x1 SWAP1 DUP2 DUP4 MSTORE PUSH1 0x40 PUSH1 0x0 KECCAK256 DUP1 SLOAD DUP1 DUP7 MSTORE DUP5 DUP7 ADD SWAP2 PUSH1 0x0 MSTORE DUP5 PUSH1 0x0 KECCAK256 SWAP1 PUSH1 0x0 JUMPDEST DUP2 DUP2 LT PUSH2 0xD04 JUMPI POP POP POP DUP5 PUSH2 0xC1E SWAP2 SUB DUP6 PUSH2 0xE68 JUMP JUMPDEST DUP4 MLOAD DUP3 PUSH2 0xC43 PUSH2 0xC2D DUP4 PUSH2 0xF7C JUMP JUMPDEST SWAP3 PUSH2 0xC3B PUSH1 0x40 MLOAD SWAP5 DUP6 PUSH2 0xE68 JUMP JUMPDEST DUP1 DUP5 MSTORE PUSH2 0xF7C JUMP JUMPDEST DUP3 DUP7 ADD SWAP7 SWAP1 PUSH1 0x1F NOT ADD CALLDATASIZE DUP9 CALLDATACOPY PUSH1 0x0 SWAP2 JUMPDEST PUSH2 0xC97 JUMPI JUMPDEST POP POP PUSH1 0x40 MLOAD SWAP4 DUP1 DUP6 ADD SWAP2 DUP2 DUP7 MSTORE MLOAD DUP1 SWAP3 MSTORE PUSH1 0x40 DUP6 ADD SWAP6 SWAP3 PUSH1 0x0 SWAP1 JUMPDEST DUP4 DUP3 LT PUSH2 0xC80 JUMPI DUP7 DUP9 SUB DUP8 RETURN JUMPDEST DUP5 MLOAD DUP2 AND DUP9 MSTORE SWAP7 DUP3 ADD SWAP7 SWAP4 DUP3 ADD SWAP4 SWAP1 DUP6 ADD SWAP1 PUSH2 0xC73 JUMP JUMPDEST DUP1 SWAP7 SWAP5 SWAP7 SWAP6 SWAP3 SWAP4 SWAP6 MLOAD DUP3 LT ISZERO PUSH2 0xCF8 JUMPI DUP6 PUSH2 0xCBB PUSH2 0xCB5 DUP5 DUP5 PUSH2 0xF93 JUMP JUMPDEST MLOAD PUSH2 0xF11 JUMP JUMPDEST POP SLOAD AND PUSH2 0xCC8 DUP4 DUP7 PUSH2 0xF93 JUMP JUMPDEST MSTORE PUSH1 0x0 NOT DUP3 EQ PUSH2 0xCE2 JUMPI DUP7 DUP1 SWAP3 ADD SWAP2 SWAP5 SWAP7 SWAP6 SWAP4 SWAP3 SWAP6 PUSH2 0xC53 JUMP JUMPDEST PUSH4 0x4E487B71 PUSH1 0xE0 SHL PUSH1 0x0 MSTORE PUSH1 0x11 PUSH1 0x4 MSTORE PUSH1 0x24 PUSH1 0x0 REVERT JUMPDEST SWAP6 SWAP4 SWAP6 SWAP5 SWAP3 SWAP2 SWAP5 PUSH2 0xC58 JUMP JUMPDEST DUP3 SLOAD DUP5 MSTORE SWAP3 DUP7 ADD SWAP3 SWAP2 DUP6 ADD SWAP2 DUP6 ADD PUSH2 0xC08 JUMP JUMPDEST PUSH1 0x0 JUMPDEST DUP4 DUP2 LT PUSH2 0xD2A JUMPI POP POP PUSH1 0x0 SWAP2 ADD MSTORE JUMP JUMPDEST DUP2 DUP2 ADD MLOAD DUP4 DUP3 ADD MSTORE PUSH1 0x20 ADD PUSH2 0xD1A JUMP JUMPDEST SWAP1 PUSH1 0x20 SWAP2 PUSH2 0xD53 DUP2 MLOAD DUP1 SWAP3 DUP2 DUP6 MSTORE DUP6 DUP1 DUP7 ADD SWAP2 ADD PUSH2 0xD17 JUMP JUMPDEST PUSH1 0x1F ADD PUSH1 0x1F NOT AND ADD ADD SWAP1 JUMP JUMPDEST PUSH1 0x20 DUP2 MSTORE PUSH1 0x1 DUP1 PUSH1 0xA0 SHL SUB DUP1 DUP4 MLOAD AND PUSH1 0x20 DUP4 ADD MSTORE DUP1 PUSH1 0x20 DUP5 ADD MLOAD AND PUSH1 0x40 DUP4 ADD MSTORE PUSH1 0x40 DUP4 ADD MLOAD AND PUSH1 0x60 DUP3 ADD MSTORE PUSH1 0x60 DUP3 ADD MLOAD PUSH2 0xDA7 PUSH2 0x180 SWAP2 DUP3 PUSH1 0x80 DUP6 ADD MSTORE PUSH2 0x1A0 DUP5 ADD SWAP1 PUSH2 0xD3A JUMP JUMPDEST SWAP3 PUSH2 0xE0A PUSH2 0xDC7 PUSH1 0x80 DUP4 ADD MLOAD SWAP6 PUSH1 0x1F NOT SWAP7 DUP8 DUP8 DUP4 SUB ADD PUSH1 0xA0 DUP9 ADD MSTORE PUSH2 0xD3A JUMP JUMPDEST PUSH1 0xFF PUSH1 0xA0 DUP5 ADD MLOAD AND PUSH1 0xC0 DUP7 ADD MSTORE PUSH1 0xC0 DUP4 ADD MLOAD PUSH1 0xE0 DUP7 ADD MSTORE PUSH1 0xE0 DUP4 ADD MLOAD PUSH2 0x100 SWAP1 DUP2 DUP8 ADD MSTORE DUP4 ADD MLOAD PUSH2 0x120 SWAP1 DUP2 DUP8 ADD MSTORE DUP4 ADD MLOAD PUSH2 0x140 SWAP7 DUP7 DUP4 SUB ADD DUP8 DUP8 ADD MSTORE PUSH2 0xD3A JUMP JUMPDEST SWAP4 DUP2 ADD MLOAD SWAP1 PUSH2 0x160 SWAP2 DUP3 DUP6 ADD MSTORE ADD MLOAD SWAP2 ADD MSTORE SWAP1 JUMP JUMPDEST SWAP2 DUP2 PUSH1 0x1F DUP5 ADD SLT ISZERO PUSH2 0x8A JUMPI DUP3 CALLDATALOAD SWAP2 PUSH1 0x1 PUSH1 0x1 PUSH1 0x40 SHL SUB DUP4 GT PUSH2 0x8A JUMPI PUSH1 0x20 DUP4 DUP2 DUP7 ADD SWAP6 ADD ADD GT PUSH2 0x8A JUMPI JUMP JUMPDEST PUSH2 0x180 DUP2 ADD SWAP1 DUP2 LT PUSH1 0x1 PUSH1 0x1 PUSH1 0x40 SHL SUB DUP3 GT OR PUSH2 0x6E7 JUMPI PUSH1 0x40 MSTORE JUMP JUMPDEST PUSH1 0x1F SWAP1 SWAP2 ADD PUSH1 0x1F NOT AND DUP2 ADD SWAP1 PUSH1 0x1 PUSH1 0x1 PUSH1 0x40 SHL SUB DUP3 GT SWAP1 DUP3 LT OR PUSH2 0x6E7 JUMPI PUSH1 0x40 MSTORE JUMP JUMPDEST SWAP1 DUP2 PUSH1 0x20 SWAP2 SUB SLT PUSH2 0x8A JUMPI MLOAD PUSH1 0x1 PUSH1 0x1 PUSH1 0xA0 SHL SUB DUP2 AND DUP2 SUB PUSH2 0x8A JUMPI SWAP1 JUMP JUMPDEST SWAP1 DUP1 PUSH1 0x20 SWAP4 SWAP3 DUP2 DUP5 MSTORE DUP5 DUP5 ADD CALLDATACOPY PUSH1 0x0 DUP3 DUP3 ADD DUP5 ADD MSTORE PUSH1 0x1F ADD PUSH1 0x1F NOT AND ADD ADD SWAP1 JUMP JUMPDEST SWAP2 SWAP3 SWAP2 PUSH1 0x1 PUSH1 0x1 PUSH1 0x40 SHL SUB DUP3 GT PUSH2 0x6E7 JUMPI PUSH1 0x40 MLOAD SWAP2 PUSH2 0xEF4 PUSH1 0x1F DUP3 ADD PUSH1 0x1F NOT AND PUSH1 0x20 ADD DUP5 PUSH2 0xE68 JUMP JUMPDEST DUP3 SWAP5 DUP2 DUP5 MSTORE DUP2 DUP4 ADD GT PUSH2 0x8A JUMPI DUP3 DUP2 PUSH1 0x20 SWAP4 DUP5 PUSH1 0x0 SWAP7 ADD CALLDATACOPY ADD ADD MSTORE JUMP JUMPDEST SWAP1 PUSH1 0x0 SWAP2 DUP3 SLOAD DUP2 LT ISZERO PUSH2 0xF2E JUMPI DUP3 DUP1 MSTORE PUSH1 0xC PUSH1 0x20 DUP5 KECCAK256 SWAP2 MUL ADD SWAP2 SWAP1 JUMP JUMPDEST PUSH4 0x4E487B71 PUSH1 0xE0 SHL DUP4 MSTORE PUSH1 0x32 PUSH1 0x4 MSTORE PUSH1 0x24 DUP4 REVERT JUMPDEST SWAP1 PUSH1 0x1 DUP3 DUP2 SHR SWAP3 AND DUP1 ISZERO PUSH2 0xF72 JUMPI JUMPDEST PUSH1 0x20 DUP4 LT EQ PUSH2 0xF5C JUMPI JUMP JUMPDEST PUSH4 0x4E487B71 PUSH1 0xE0 SHL PUSH1 0x0 MSTORE PUSH1 0x22 PUSH1 0x4 MSTORE PUSH1 0x24 PUSH1 0x0 REVERT JUMPDEST SWAP2 PUSH1 0x7F AND SWAP2 PUSH2 0xF51 JUMP JUMPDEST PUSH1 0x1 PUSH1 0x1 PUSH1 0x40 SHL SUB DUP2 GT PUSH2 0x6E7 JUMPI PUSH1 0x5 SHL PUSH1 0x20 ADD SWAP1 JUMP JUMPDEST DUP1 MLOAD DUP3 LT ISZERO PUSH2 0x6D1 JUMPI PUSH1 0x20 SWAP2 PUSH1 0x5 SHL ADD ADD SWAP1 JUMP JUMPDEST PUSH1 0x40 MLOAD SWAP1 PUSH2 0xFB4 DUP3 PUSH2 0xE4C JUMP JUMPDEST DUP2 PUSH2 0x160 PUSH1 0x0 SWAP2 DUP3 DUP2 MSTORE DUP3 PUSH1 0x20 DUP3 ADD MSTORE DUP3 PUSH1 0x40 DUP3 ADD MSTORE PUSH1 0x60 DUP1 DUP3 ADD MSTORE PUSH1 0x60 PUSH1 0x80 DUP3 ADD MSTORE DUP3 PUSH1 0xA0 DUP3 ADD MSTORE DUP3 PUSH1 0xC0 DUP3 ADD MSTORE DUP3 PUSH1 0xE0 DUP3 ADD MSTORE DUP3 PUSH2 0x100 DUP3 ADD MSTORE PUSH1 0x60 PUSH2 0x120 DUP3 ADD MSTORE DUP3 PUSH2 0x140 DUP3 ADD MSTORE ADD MSTORE JUMP JUMPDEST SWAP1 PUSH1 0x40 MLOAD SWAP2 DUP3 PUSH1 0x0 DUP3 SLOAD SWAP3 PUSH2 0x1017 DUP5 PUSH2 0xF42 JUMP JUMPDEST SWAP1 DUP2 DUP5 MSTORE PUSH1 0x1 SWAP5 DUP6 DUP2 AND SWAP1 DUP2 PUSH1 0x0 EQ PUSH2 0x1086 JUMPI POP PUSH1 0x1 EQ PUSH2 0x1043 JUMPI JUMPDEST POP POP PUSH2 0x1041 SWAP3 POP SUB DUP4 PUSH2 0xE68 JUMP JUMPDEST JUMP JUMPDEST SWAP1 SWAP4 SWAP2 POP PUSH1 0x0 MSTORE PUSH1 0x20 SWAP1 DUP2 PUSH1 0x0 KECCAK256 SWAP4 PUSH1 0x0 SWAP2 JUMPDEST DUP2 DUP4 LT PUSH2 0x106E JUMPI POP POP PUSH2 0x1041 SWAP4 POP DUP3 ADD ADD CODESIZE DUP1 PUSH2 0x1033 JUMP JUMPDEST DUP6 SLOAD DUP9 DUP5 ADD DUP6 ADD MSTORE SWAP5 DUP6 ADD SWAP5 DUP8 SWAP5 POP SWAP2 DUP4 ADD SWAP2 PUSH2 0x1056 JUMP JUMPDEST SWAP2 POP POP PUSH2 0x1041 SWAP5 POP PUSH1 0x20 SWAP3 POP PUSH1 0xFF NOT AND DUP3 DUP5 ADD MSTORE ISZERO ISZERO PUSH1 0x5 SHL DUP3 ADD ADD CODESIZE DUP1 PUSH2 0x1033 JUMP JUMPDEST SWAP1 PUSH1 0x40 MLOAD PUSH2 0x10B6 DUP2 PUSH2 0xE4C JUMP JUMPDEST PUSH2 0x160 PUSH1 0xB DUP3 SWAP5 PUSH1 0x1 DUP1 PUSH1 0xA0 SHL SUB DUP1 DUP3 SLOAD AND DUP6 MSTORE DUP1 PUSH1 0x1 DUP4 ADD SLOAD AND PUSH1 0x20 DUP7 ADD MSTORE PUSH1 0x2 DUP3 ADD SLOAD AND PUSH1 0x40 DUP6 ADD MSTORE PUSH2 0x10ED PUSH1 0x3 DUP3 ADD PUSH2 0x1003 JUMP JUMPDEST PUSH1 0x60 DUP6 ADD MSTORE PUSH2 0x10FE PUSH1 0x4 DUP3 ADD PUSH2 0x1003 JUMP JUMPDEST PUSH1 0x80 DUP6 ADD MSTORE PUSH1 0xFF PUSH1 0x5 DUP3 ADD SLOAD AND PUSH1 0xA0 DUP6 ADD MSTORE PUSH1 0x6 DUP2 ADD SLOAD PUSH1 0xC0 DUP6 ADD MSTORE PUSH1 0x7 DUP2 ADD SLOAD PUSH1 0xE0 DUP6 ADD MSTORE PUSH1 0x8 DUP2 ADD SLOAD PUSH2 0x100 DUP6 ADD MSTORE PUSH2 0x113B PUSH1 0x9 DUP3 ADD PUSH2 0x1003 JUMP JUMPDEST PUSH2 0x120 DUP6 ADD MSTORE PUSH1 0xA DUP2 ADD SLOAD PUSH2 0x140 DUP6 ADD MSTORE ADD SLOAD SWAP2 ADD MSTORE JUMP INVALID LOG1 PUSH5 0x736F6C6343 STOP ADDMOD EQ STOP EXP "},"methodIdentifiers":{"createSecurityToken(bytes,bytes,string,string,uint8,uint256,uint256,bytes32,string,uint256,uint256,uint256)":"af56a663","deployer()":"d5f39488","getTokenAtIndex(uint256)":"97988dce","getTokenDetails(address)":"88aa8bee","getTotalTokens()":"f08b82e6","getUserTokens(address)":"519dc8d2","isFactoryToken(address)":"a4b7914e"}}}}}