{"contracts/security-token/RestrictedLockupToken.sol":{"RestrictedLockupToken":{"abi":[{"inputs":[{"internalType":"address","name":"transferRules_","type":"address"},{"internalType":"address","name":"contractAdmin_","type":"address"},{"internalType":"address","name":"tokenReserveAdmin_","type":"address"},{"internalType":"string","name":"symbol_","type":"string"},{"internalType":"string","name":"name_","type":"string"},{"internalType":"uint8","name":"decimals_","type":"uint8"},{"internalType":"uint256","name":"totalSupply_","type":"uint256"},{"internalType":"uint256","name":"maxTotalSupply_","type":"uint256"},{"internalType":"uint256","name":"_minTimelockAmount","type":"uint256"},{"internalType":"uint256","name":"_maxReleaseDelay","type":"uint256"}],"stateMutability":"nonpayable","type":"constructor"},{"anonymous":false,"inputs":[{"indexed":true,"internalType":"address","name":"admin","type":"address"},{"indexed":true,"internalType":"address","name":"addr","type":"address"},{"indexed":true,"internalType":"bool","name":"status","type":"bool"}],"name":"AddressFrozen","type":"event"},{"anonymous":false,"inputs":[{"indexed":true,"internalType":"address","name":"admin","type":"address"},{"indexed":true,"internalType":"address","name":"addr","type":"address"},{"indexed":true,"internalType":"uint256","name":"value","type":"uint256"}],"name":"AddressMaxBalance","type":"event"},{"anonymous":false,"inputs":[{"indexed":true,"internalType":"address","name":"admin","type":"address"},{"indexed":true,"internalType":"address","name":"addr","type":"address"},{"indexed":true,"internalType":"uint256","name":"value","type":"uint256"}],"name":"AddressTransferGroup","type":"event"},{"anonymous":false,"inputs":[{"indexed":true,"internalType":"address","name":"admin","type":"address"},{"indexed":true,"internalType":"uint256","name":"fromGroup","type":"uint256"},{"indexed":true,"internalType":"uint256","name":"toGroup","type":"uint256"},{"indexed":false,"internalType":"uint256","name":"lockedUntil","type":"uint256"}],"name":"AllowGroupTransfer","type":"event"},{"anonymous":false,"inputs":[{"indexed":true,"internalType":"address","name":"owner","type":"address"},{"indexed":true,"internalType":"address","name":"spender","type":"address"},{"indexed":false,"internalType":"uint256","name":"value","type":"uint256"}],"name":"Approval","type":"event"},{"anonymous":false,"inputs":[{"indexed":false,"internalType":"address","name":"admin","type":"address"},{"indexed":false,"internalType":"bool","name":"status","type":"bool"}],"name":"Pause","type":"event"},{"anonymous":false,"inputs":[{"indexed":true,"internalType":"address","name":"grantor","type":"address"},{"indexed":true,"internalType":"address","name":"grantee","type":"address"},{"indexed":false,"internalType":"uint8","name":"role","type":"uint8"},{"indexed":true,"internalType":"bool","name":"status","type":"bool"}],"name":"RoleChange","type":"event"},{"anonymous":false,"inputs":[{"indexed":true,"internalType":"address","name":"from","type":"address"},{"indexed":true,"internalType":"uint256","name":"scheduleId","type":"uint256"}],"name":"ScheduleCreated","type":"event"},{"anonymous":false,"inputs":[{"indexed":true,"internalType":"address","name":"from","type":"address"},{"indexed":true,"internalType":"address","name":"to","type":"address"},{"indexed":true,"internalType":"uint256","name":"scheduleId","type":"uint256"},{"indexed":false,"internalType":"uint256","name":"amount","type":"uint256"},{"indexed":false,"internalType":"uint256","name":"commencementTimestamp","type":"uint256"},{"indexed":false,"internalType":"uint256","name":"timelockId","type":"uint256"},{"indexed":false,"internalType":"address[]","name":"cancelableBy","type":"address[]"}],"name":"ScheduleFunded","type":"event"},{"anonymous":false,"inputs":[{"indexed":false,"internalType":"uint256","name":"id","type":"uint256"}],"name":"Snapshot","type":"event"},{"anonymous":false,"inputs":[{"indexed":true,"internalType":"address","name":"canceledBy","type":"address"},{"indexed":true,"internalType":"address","name":"target","type":"address"},{"indexed":true,"internalType":"uint256","name":"timelockIndex","type":"uint256"},{"indexed":false,"internalType":"address","name":"relaimTokenTo","type":"address"},{"indexed":false,"internalType":"uint256","name":"canceledAmount","type":"uint256"},{"indexed":false,"internalType":"uint256","name":"paidAmount","type":"uint256"}],"name":"TimelockCanceled","type":"event"},{"anonymous":false,"inputs":[{"indexed":true,"internalType":"address","name":"from","type":"address"},{"indexed":true,"internalType":"address","name":"to","type":"address"},{"indexed":false,"internalType":"uint256","name":"value","type":"uint256"}],"name":"Transfer","type":"event"},{"anonymous":false,"inputs":[{"indexed":false,"internalType":"address","name":"admin","type":"address"},{"indexed":false,"internalType":"address","name":"oldRules","type":"address"},{"indexed":false,"internalType":"address","name":"newRules","type":"address"}],"name":"Upgrade","type":"event"},{"inputs":[],"name":"_decimals","outputs":[{"internalType":"uint8","name":"","type":"uint8"}],"stateMutability":"view","type":"function"},{"inputs":[{"internalType":"address","name":"owner","type":"address"},{"internalType":"address","name":"spender","type":"address"}],"name":"allowance","outputs":[{"internalType":"uint256","name":"","type":"uint256"}],"stateMutability":"view","type":"function"},{"inputs":[{"internalType":"address","name":"spender","type":"address"},{"internalType":"uint256","name":"amount","type":"uint256"}],"name":"approve","outputs":[{"internalType":"bool","name":"","type":"bool"}],"stateMutability":"nonpayable","type":"function"},{"inputs":[{"internalType":"address","name":"who","type":"address"}],"name":"balanceOf","outputs":[{"internalType":"uint256","name":"","type":"uint256"}],"stateMutability":"view","type":"function"},{"inputs":[{"internalType":"address","name":"account","type":"address"},{"internalType":"uint256","name":"snapshotId","type":"uint256"}],"name":"balanceOfAt","outputs":[{"internalType":"uint256","name":"","type":"uint256"}],"stateMutability":"view","type":"function"},{"inputs":[{"internalType":"address","name":"who","type":"address"},{"internalType":"uint256","name":"timelockIndex","type":"uint256"}],"name":"balanceOfTimelock","outputs":[{"internalType":"uint256","name":"","type":"uint256"}],"stateMutability":"view","type":"function"},{"inputs":[{"internalType":"address[]","name":"to","type":"address[]"},{"internalType":"uint256[]","name":"amounts","type":"uint256[]"},{"internalType":"uint256[]","name":"commencementTimestamps","type":"uint256[]"},{"internalType":"uint256[]","name":"scheduleIds","type":"uint256[]"},{"internalType":"address[]","name":"cancelableBy","type":"address[]"}],"name":"batchFundReleaseSchedule","outputs":[{"internalType":"bool","name":"success","type":"bool"}],"stateMutability":"nonpayable","type":"function"},{"inputs":[{"internalType":"address","name":"from","type":"address"},{"internalType":"uint256","name":"value","type":"uint256"}],"name":"burn","outputs":[],"stateMutability":"nonpayable","type":"function"},{"inputs":[{"internalType":"uint256","name":"commencedTimestamp","type":"uint256"},{"internalType":"uint256","name":"currentTimestamp","type":"uint256"},{"internalType":"uint256","name":"amount","type":"uint256"},{"components":[{"internalType":"uint256","name":"releaseCount","type":"uint256"},{"internalType":"uint256","name":"delayUntilFirstReleaseInSeconds","type":"uint256"},{"internalType":"uint256","name":"initialReleasePortionInBips","type":"uint256"},{"internalType":"uint256","name":"periodBetweenReleasesInSeconds","type":"uint256"}],"internalType":"struct RestrictedLockupToken.ReleaseSchedule","name":"releaseSchedule","type":"tuple"}],"name":"calculateUnlocked","outputs":[{"internalType":"uint256","name":"unlocked","type":"uint256"}],"stateMutability":"pure","type":"function"},{"inputs":[{"internalType":"uint256","name":"commencedTimestamp","type":"uint256"},{"internalType":"uint256","name":"currentTimestamp","type":"uint256"},{"internalType":"uint256","name":"amount","type":"uint256"},{"internalType":"uint256","name":"releaseCount","type":"uint256"},{"internalType":"uint256","name":"delayUntilFirstReleaseInSeconds","type":"uint256"},{"internalType":"uint256","name":"initialReleasePortionInBips","type":"uint256"},{"internalType":"uint256","name":"periodBetweenReleasesInSeconds","type":"uint256"}],"name":"calculateUnlocked","outputs":[{"internalType":"uint256","name":"unlocked","type":"uint256"}],"stateMutability":"pure","type":"function"},{"inputs":[{"internalType":"uint256","name":"commencedTimestamp","type":"uint256"},{"internalType":"uint256","name":"currentTimestamp","type":"uint256"},{"internalType":"uint256","name":"amount","type":"uint256"},{"internalType":"uint256","name":"scheduleId","type":"uint256"}],"name":"calculateUnlocked","outputs":[{"internalType":"uint256","name":"unlocked","type":"uint256"}],"stateMutability":"view","type":"function"},{"inputs":[{"internalType":"address","name":"target","type":"address"},{"internalType":"uint256","name":"timelockIndex","type":"uint256"},{"internalType":"uint256","name":"scheduleId","type":"uint256"},{"internalType":"uint256","name":"commencementTimestamp","type":"uint256"},{"internalType":"uint256","name":"totalAmount","type":"uint256"},{"internalType":"address","name":"reclaimTokenTo","type":"address"}],"name":"cancelTimelock","outputs":[{"internalType":"bool","name":"success","type":"bool"}],"stateMutability":"nonpayable","type":"function"},{"inputs":[],"name":"contractAdminCount","outputs":[{"internalType":"uint8","name":"","type":"uint8"}],"stateMutability":"view","type":"function"},{"inputs":[{"internalType":"uint256","name":"releaseCount","type":"uint256"},{"internalType":"uint256","name":"delayUntilFirstReleaseInSeconds","type":"uint256"},{"internalType":"uint256","name":"initialReleasePortionInBips","type":"uint256"},{"internalType":"uint256","name":"periodBetweenReleasesInSeconds","type":"uint256"}],"name":"createReleaseSchedule","outputs":[{"internalType":"uint256","name":"unlockScheduleId","type":"uint256"}],"stateMutability":"nonpayable","type":"function"},{"inputs":[],"name":"decimals","outputs":[{"internalType":"uint8","name":"","type":"uint8"}],"stateMutability":"view","type":"function"},{"inputs":[{"internalType":"address","name":"spender","type":"address"},{"internalType":"uint256","name":"subtractedValue","type":"uint256"}],"name":"decreaseAllowance","outputs":[{"internalType":"bool","name":"","type":"bool"}],"stateMutability":"nonpayable","type":"function"},{"inputs":[{"internalType":"address","name":"from","type":"address"},{"internalType":"address","name":"to","type":"address"},{"internalType":"uint256","name":"value","type":"uint256"}],"name":"detectTransferRestriction","outputs":[{"internalType":"uint8","name":"","type":"uint8"}],"stateMutability":"view","type":"function"},{"inputs":[{"internalType":"address","name":"from","type":"address"},{"internalType":"address","name":"to","type":"address"},{"internalType":"uint256","name":"value","type":"uint256"}],"name":"enforceTransferRestrictions","outputs":[],"stateMutability":"view","type":"function"},{"inputs":[{"internalType":"address","name":"addr","type":"address"},{"internalType":"bool","name":"status","type":"bool"}],"name":"freeze","outputs":[],"stateMutability":"nonpayable","type":"function"},{"inputs":[{"internalType":"address","name":"to","type":"address"},{"internalType":"uint256","name":"amount","type":"uint256"},{"internalType":"uint256","name":"commencementTimestamp","type":"uint256"},{"internalType":"uint256","name":"scheduleId","type":"uint256"},{"internalType":"address[]","name":"cancelableBy","type":"address[]"}],"name":"fundReleaseSchedule","outputs":[{"internalType":"bool","name":"success","type":"bool"}],"stateMutability":"nonpayable","type":"function"},{"inputs":[{"internalType":"uint256","name":"from","type":"uint256"},{"internalType":"uint256","name":"to","type":"uint256"}],"name":"getAllowGroupTransferTime","outputs":[{"internalType":"uint256","name":"timestamp","type":"uint256"}],"stateMutability":"view","type":"function"},{"inputs":[{"internalType":"address","name":"from","type":"address"},{"internalType":"address","name":"to","type":"address"}],"name":"getAllowTransferTime","outputs":[{"internalType":"uint256","name":"timestamp","type":"uint256"}],"stateMutability":"view","type":"function"},{"inputs":[],"name":"getCurrentSnapshotId","outputs":[{"internalType":"uint256","name":"","type":"uint256"}],"stateMutability":"view","type":"function"},{"inputs":[{"internalType":"address","name":"addr","type":"address"}],"name":"getFrozenStatus","outputs":[{"internalType":"bool","name":"status","type":"bool"}],"stateMutability":"view","type":"function"},{"inputs":[{"internalType":"address","name":"addr","type":"address"}],"name":"getMaxBalance","outputs":[{"internalType":"uint256","name":"","type":"uint256"}],"stateMutability":"view","type":"function"},{"inputs":[{"internalType":"address","name":"addr","type":"address"}],"name":"getTransferGroup","outputs":[{"internalType":"uint256","name":"groupID","type":"uint256"}],"stateMutability":"view","type":"function"},{"inputs":[{"internalType":"address","name":"addr","type":"address"},{"internalType":"uint8","name":"role","type":"uint8"}],"name":"grantRole","outputs":[],"stateMutability":"nonpayable","type":"function"},{"inputs":[{"internalType":"address","name":"addr","type":"address"},{"internalType":"uint8","name":"role","type":"uint8"}],"name":"hasRole","outputs":[{"internalType":"bool","name":"","type":"bool"}],"stateMutability":"view","type":"function"},{"inputs":[{"internalType":"address","name":"spender","type":"address"},{"internalType":"uint256","name":"addedValue","type":"uint256"}],"name":"increaseAllowance","outputs":[{"internalType":"bool","name":"","type":"bool"}],"stateMutability":"nonpayable","type":"function"},{"inputs":[],"name":"isPaused","outputs":[{"internalType":"bool","name":"","type":"bool"}],"stateMutability":"view","type":"function"},{"inputs":[{"internalType":"address","name":"who","type":"address"}],"name":"lockedAmountOf","outputs":[{"internalType":"uint256","name":"amount","type":"uint256"}],"stateMutability":"view","type":"function"},{"inputs":[{"internalType":"address","name":"who","type":"address"},{"internalType":"uint256","name":"timelockIndex","type":"uint256"}],"name":"lockedAmountOfTimelock","outputs":[{"internalType":"uint256","name":"locked","type":"uint256"}],"stateMutability":"view","type":"function"},{"inputs":[],"name":"maxReleaseDelay","outputs":[{"internalType":"uint256","name":"","type":"uint256"}],"stateMutability":"view","type":"function"},{"inputs":[],"name":"maxTotalSupply","outputs":[{"internalType":"uint256","name":"","type":"uint256"}],"stateMutability":"view","type":"function"},{"inputs":[{"internalType":"uint8","name":"restrictionCode","type":"uint8"}],"name":"messageForTransferRestriction","outputs":[{"internalType":"string","name":"","type":"string"}],"stateMutability":"view","type":"function"},{"inputs":[],"name":"minTimelockAmount","outputs":[{"internalType":"uint256","name":"","type":"uint256"}],"stateMutability":"view","type":"function"},{"inputs":[{"internalType":"address","name":"to","type":"address"},{"internalType":"uint256","name":"value","type":"uint256"}],"name":"mint","outputs":[],"stateMutability":"nonpayable","type":"function"},{"inputs":[],"name":"name","outputs":[{"internalType":"string","name":"","type":"string"}],"stateMutability":"view","type":"function"},{"inputs":[],"name":"pause","outputs":[],"stateMutability":"nonpayable","type":"function"},{"inputs":[{"internalType":"uint256","name":"","type":"uint256"}],"name":"releaseSchedules","outputs":[{"internalType":"uint256","name":"releaseCount","type":"uint256"},{"internalType":"uint256","name":"delayUntilFirstReleaseInSeconds","type":"uint256"},{"internalType":"uint256","name":"initialReleasePortionInBips","type":"uint256"},{"internalType":"uint256","name":"periodBetweenReleasesInSeconds","type":"uint256"}],"stateMutability":"view","type":"function"},{"inputs":[{"internalType":"address","name":"addr","type":"address"},{"internalType":"uint8","name":"role","type":"uint8"}],"name":"revokeRole","outputs":[],"stateMutability":"nonpayable","type":"function"},{"inputs":[{"internalType":"address","name":"spender","type":"address"},{"internalType":"uint256","name":"value","type":"uint256"}],"name":"safeApprove","outputs":[],"stateMutability":"nonpayable","type":"function"},{"inputs":[],"name":"scheduleCount","outputs":[{"internalType":"uint256","name":"count","type":"uint256"}],"stateMutability":"view","type":"function"},{"inputs":[{"internalType":"address","name":"addr","type":"address"},{"internalType":"uint256","name":"groupID","type":"uint256"},{"internalType":"uint256","name":"lockedBalanceUntil","type":"uint256"},{"internalType":"uint256","name":"maxBalance","type":"uint256"},{"internalType":"bool","name":"status","type":"bool"}],"name":"setAddressPermissions","outputs":[],"stateMutability":"nonpayable","type":"function"},{"inputs":[{"internalType":"uint256","name":"from","type":"uint256"},{"internalType":"uint256","name":"to","type":"uint256"},{"internalType":"uint256","name":"lockedUntil","type":"uint256"}],"name":"setAllowGroupTransfer","outputs":[],"stateMutability":"nonpayable","type":"function"},{"inputs":[{"internalType":"address","name":"addr","type":"address"},{"internalType":"uint256","name":"updatedValue","type":"uint256"}],"name":"setMaxBalance","outputs":[],"stateMutability":"nonpayable","type":"function"},{"inputs":[{"internalType":"address","name":"addr","type":"address"},{"internalType":"uint256","name":"groupID","type":"uint256"}],"name":"setTransferGroup","outputs":[],"stateMutability":"nonpayable","type":"function"},{"inputs":[],"name":"snapshot","outputs":[{"internalType":"uint256","name":"","type":"uint256"}],"stateMutability":"nonpayable","type":"function"},{"inputs":[],"name":"symbol","outputs":[{"internalType":"string","name":"","type":"string"}],"stateMutability":"view","type":"function"},{"inputs":[{"internalType":"address","name":"who","type":"address"}],"name":"timelockBalanceOf","outputs":[{"internalType":"uint256","name":"","type":"uint256"}],"stateMutability":"view","type":"function"},{"inputs":[{"internalType":"address","name":"who","type":"address"}],"name":"timelockCountOf","outputs":[{"internalType":"uint256","name":"","type":"uint256"}],"stateMutability":"view","type":"function"},{"inputs":[{"internalType":"address","name":"who","type":"address"},{"internalType":"uint256","name":"index","type":"uint256"}],"name":"timelockOf","outputs":[{"components":[{"internalType":"uint256","name":"scheduleId","type":"uint256"},{"internalType":"uint256","name":"commencementTimestamp","type":"uint256"},{"internalType":"uint256","name":"tokensTransferred","type":"uint256"},{"internalType":"uint256","name":"totalAmount","type":"uint256"},{"internalType":"address[]","name":"cancelableBy","type":"address[]"}],"internalType":"struct RestrictedLockupToken.Timelock","name":"timelock","type":"tuple"}],"stateMutability":"view","type":"function"},{"inputs":[{"internalType":"address","name":"","type":"address"},{"internalType":"uint256","name":"","type":"uint256"}],"name":"timelocks","outputs":[{"internalType":"uint256","name":"scheduleId","type":"uint256"},{"internalType":"uint256","name":"commencementTimestamp","type":"uint256"},{"internalType":"uint256","name":"tokensTransferred","type":"uint256"},{"internalType":"uint256","name":"totalAmount","type":"uint256"}],"stateMutability":"view","type":"function"},{"inputs":[{"internalType":"address","name":"who","type":"address"}],"name":"tokensBalanceOf","outputs":[{"internalType":"uint256","name":"","type":"uint256"}],"stateMutability":"view","type":"function"},{"inputs":[],"name":"totalSupply","outputs":[{"internalType":"uint256","name":"","type":"uint256"}],"stateMutability":"view","type":"function"},{"inputs":[{"internalType":"uint256","name":"snapshotId","type":"uint256"}],"name":"totalSupplyAt","outputs":[{"internalType":"uint256","name":"","type":"uint256"}],"stateMutability":"view","type":"function"},{"inputs":[{"internalType":"address","name":"who","type":"address"},{"internalType":"uint256","name":"timelockIndex","type":"uint256"}],"name":"totalUnlockedToDateOfTimelock","outputs":[{"internalType":"uint256","name":"total","type":"uint256"}],"stateMutability":"view","type":"function"},{"inputs":[{"internalType":"address","name":"recipient","type":"address"},{"internalType":"uint256","name":"amount","type":"uint256"}],"name":"transfer","outputs":[{"internalType":"bool","name":"","type":"bool"}],"stateMutability":"nonpayable","type":"function"},{"inputs":[{"internalType":"address","name":"sender","type":"address"},{"internalType":"address","name":"recipient","type":"address"},{"internalType":"uint256","name":"amount","type":"uint256"}],"name":"transferFrom","outputs":[{"internalType":"bool","name":"","type":"bool"}],"stateMutability":"nonpayable","type":"function"},{"inputs":[],"name":"transferRules","outputs":[{"internalType":"contract ITransferRules","name":"","type":"address"}],"stateMutability":"view","type":"function"},{"inputs":[{"internalType":"address","name":"to","type":"address"},{"internalType":"uint256","name":"value","type":"uint256"},{"internalType":"uint256","name":"timelockId","type":"uint256"}],"name":"transferTimelock","outputs":[{"internalType":"bool","name":"","type":"bool"}],"stateMutability":"nonpayable","type":"function"},{"inputs":[{"internalType":"address","name":"who","type":"address"}],"name":"unlockedAmountOf","outputs":[{"internalType":"uint256","name":"amount","type":"uint256"}],"stateMutability":"view","type":"function"},{"inputs":[{"internalType":"address","name":"who","type":"address"},{"internalType":"uint256","name":"timelockIndex","type":"uint256"}],"name":"unlockedAmountOfTimelock","outputs":[{"internalType":"uint256","name":"unlocked","type":"uint256"}],"stateMutability":"view","type":"function"},{"inputs":[{"internalType":"address","name":"who","type":"address"}],"name":"unlockedBalanceOf","outputs":[{"internalType":"uint256","name":"","type":"uint256"}],"stateMutability":"view","type":"function"},{"inputs":[],"name":"unpause","outputs":[],"stateMutability":"nonpayable","type":"function"},{"inputs":[{"internalType":"contract ITransferRules","name":"newTransferRules","type":"address"}],"name":"upgradeTransferRules","outputs":[],"stateMutability":"nonpayable","type":"function"}],"evm":{"bytecode":{"linkReferences":{},"object":"60c060409080825234620007fd5762004e4180380380916200002282856200081e565b833981019161014082840312620007fd576200003e8262000842565b916200004d6020820162000842565b6200005a83830162000842565b60608301519093906001600160401b038111620007fd57866200007f91850162000857565b608084015190966001600160401b038211620007fd57620000a291850162000857565b60a08401519560ff87168703620007fd5760c08501519360e086015161012061010088015197015193805160018060401b038111620006d45760035491600183811c93168015620007f2575b6020841014620007dc578190601f9384811162000785575b50602090848311600114620006f657600092620006ea575b50508160011b916000199060031b1c1916176003555b8a51906001600160401b038211620006d45760049b8c54600181811c91168015620006c9575b6020821014620006b457908183859493116200065b575b506020918311600114620005f057600092620005e4575b50508160011b916000199060031b1c1916178a555b6001600b556015805460ff19908116909155926001600160a01b0392838216156200059557831692831562000548578916998a15620004f35760ff600f54911691610100600160a81b039060081b169060018060a81b0319161717600f55601055600052600960205282600020600182825416179055600181600a541617600a55866000526002836000209182549060ff8216911617179055600560205281600020936000602052826000205497600097885b81600052600d60205285600020548a101562000290576200028262000289916200027b8c8c62000acb565b90620008ce565b99620009d1565b9862000250565b620002a0908b99979899620008ce565b96600098895b83600052600d60205287600020548b1015620002df57620002d1620002d8916200027b8d8c620009e1565b9a620009d1565b99620002a6565b620002eb908a620008ce565b60085480620002fa84620009aa565b10620004d0575b505050600254600854806200031562000979565b10620003ed575b505060008051602062004e2183398151915260208262000341600094600254620008ce565b6002558484528382528884208181540190558851908152a38115620003aa575060805260a05251614102908162000d1f823960805181818161095b015281816114a00152611ff2015260a0518181816109d1015281816115240152818161228701526124cd0152f35b606490602085519162461bcd60e51b8352820152601760248201527f4d696e2074696d656c6f636b20616d6f756e74203e20300000000000000000006044820152fd5b60065490680100000000000000009182811015620004bb57906200041c826001620004359401600655620008f2565b90919082549060031b91821b91600019901b1916179055565b60075490811015620004a6576001810180600755811015620004915760076000527fa66cc928b5edb82af9bd49922954155ab7b0942694bea4ce44661d9a8736c688015560008051602062004e2183398151915260206200031c565b603285634e487b7160e01b6000525260246000fd5b604185634e487b7160e01b6000525260246000fd5b604187634e487b7160e01b6000525260246000fd5b82620004e3600192620004ea956200093d565b016200093d565b86808062000301565b865162461bcd60e51b81526020818e0152602960248201527f546f6b656e20726573657276652061646d696e20616464726573732063616e6e60448201526806f74206265203078360bc1b6064820152608490fd5b865162461bcd60e51b81526020818e0152602160248201527f546f6b656e206f776e657220616464726573732063616e6e6f742062652030786044820152600360fc1b6064820152608490fd5b865162461bcd60e51b81526020818e01526024808201527f5472616e736665722072756c657320616464726573732063616e6e6f742062656044820152630203078360e41b6064820152608490fd5b01519050388062000188565b60008e8152602081209350601f198516905b81811062000642575090846001959493921062000628575b505050811b018a556200019d565b015160001960f88460031b161c191690553880806200061a565b9293602060018192878601518155019501930162000602565b909192508d60005260206000208380860160051c82019260208710620006aa575b94869594939291940160051c01905b8181106200069a575062000171565b600081558594506001016200068b565b925081926200067c565b60228e634e487b7160e01b6000525260246000fd5b90607f16906200015a565b634e487b7160e01b600052604160045260246000fd5b0151905038806200011e565b6003600090815293507fc2575a0e9e593c00f959f8c92f12db2869c3395a3b0502d05e2516446f71f85b91905b601f198416851062000769576001945083601f198116106200074f575b505050811b0160035562000134565b015160001960f88460031b161c1916905538808062000740565b8181015183556020948501946001909301929091019062000723565b909150600360005260206000208480850160051c82019260208610620007d2575b9085949392910160051c01905b818110620007c2575062000106565b60008155849350600101620007b3565b92508192620007a6565b634e487b7160e01b600052602260045260246000fd5b92607f1692620000ee565b600080fd5b60a081019081106001600160401b03821117620006d457604052565b601f909101601f19168101906001600160401b03821190821017620006d457604052565b51906001600160a01b0382168203620007fd57565b919080601f84011215620007fd578251906001600160401b038211620006d4576040519160209162000893601f8301601f19168401856200081e565b818452828287010111620007fd5760005b818110620008ba57508260009394955001015290565b8581018301518482018401528201620008a4565b91908201809211620008dc57565b634e487b7160e01b600052601160045260246000fd5b6006548110156200090e57600660005260206000200190600090565b634e487b7160e01b600052603260045260246000fd5b80548210156200090e5760005260206000200190600090565b9081549168010000000000000000831015620006d457826200041c916001620009699501815562000924565b565b91908203918211620008dc57565b60065480620009885750600090565b6000198101908111620008dc57620009a090620008f2565b90549060031b1c90565b805480620009b9575050600090565b6000198101908111620008dc57620009a09162000924565b6000198114620008dc5760010190565b620009ed828262000b0f565b906040606083015192015182111560001462000a0b57505050600090565b62000a229262000a1b9162000a25565b906200096b565b90565b9062000a319162000b0f565b602081015160608201519151600c548110156200090e57600c600052604051608081019260029290921b7fdf6966c971051c3d54ec59162606531493a51404a002842f56009d7e5cf4a8c701916001600160401b03841182851017620006d45762000a2294606094604052835491828452600185015493846020820152600360028701549687604084015201549687910152429062000c35565b62000ad7828262000b0f565b90604060608301519201918251101560001462000af657505050600090565b62000a229262000b069162000a25565b9051906200096b565b6040805162000b1e8162000802565b60009384825260606080602093878582015287868201528783820152015260018060a01b038094168552600d8252828520805482101562000bec57855281852083519593916005020162000b728662000802565b80548652600460019182810154858901526002810154848901526003810154606089015201915180958487958554938481520194875280872096915b83831062000bd157505050505062000bc9925003826200081e565b608082015290565b87548116865296840196889650948101949184019162000bae565b634e487b7160e01b86526032600452602486fd5b81810292918115918404141715620008dc57565b811562000c1f570490565b634e487b7160e01b600052601260045260246000fd5b959192939060009681811162000d115762000c50916200096b565b946000198501948511620008dc5762000c7562000c6e868562000c00565b83620008ce565b86101562000d07578186101562000c90575b50505050505090565b839495965062000ca69061271092939462000c00565b04948262000cb583836200096b565b101562000cc4575b8062000c87565b9262000cf68662000cef62000cfc98979562000ce962000ce9966200027b996200096b565b62000c14565b926200096b565b62000c00565b388080808062000cbd565b5050509250505090565b505050505050505060009056fe608080604052600436101561001357600080fd5b60003560e01c90816306fdde03146129dc57508063077d3c0314612860578063095ea7b31461283a5780630c815103146128135780630f8ad1b4146124f057806314cf86eb146124b557806318160ddd1461249757806321bb56d71461227357806323b872dd146120a55780632ab4d052146120875780632beafc8914612070578063313ce5671461204f57806332424aa31461204f578063350724a914612015578063370de04314611fda5780633950935114611f895780633c637d7414611f4f5780633e84023614611e565780633f4ba83a14611e0f57806340c10f1914611cce57806340dc95c514611c6157806345d1129914611b8f5780634ee2cd7e14611b325780635439ad8614611b145780635f7c537714611abc57806364ca0ac314611a595780636968f8b314611a295780636aea0d2e14611a0257806370a08231146119df5780637d7b368b146119b85780637f4ab1dd1461198e57806382074ac2146118ee5780638456cb59146118a457806384955c881461185f5780638b9d68991461183c5780638d56cc9c146117d45780638e4f11ff1461143d5780638e64eac51461141c57806390fc7e91146113ec57806395a8c58d146113c057806395d89b41146112da57806396305c89146112be5780639711715a1461125f578063981b24d0146112275780639dc29fac14611093578063a457c2d714610fec578063a742c88e14610fc9578063a9059cbb14610f79578063a9b1f05114610f09578063ad061e2514610ee2578063b187bd2614610ebf578063b30bfa3d14610e85578063b7ed478514610800578063b7ef81e1146107e2578063bf120ae5146106d8578063c63aa5211461069e578063ceca46c214610671578063d4ce14151461064d578063db74fa3614610613578063dd62ed3e146105c2578063dfb7300e14610521578063e98a0c64146104ac578063ea612ae814610428578063f0658198146103f9578063fbc6d1cb146103395763fc96f7d8146102f557600080fd5b34610334576020366003190112610334576001600160a01b03610316612acb565b166000526014602052602060ff604060002054166040519015158152f35b600080fd5b3461033457604036600319011261033457610352612acb565b602435801580156103cf575b1561036f5761036d9133612cc2565b005b60405162461bcd60e51b815260206004820152603260248201527f43616e6e6f7420617070726f76652066726f6d206e6f6e2d7a65726f20746f206044820152716e6f6e2d7a65726f20616c6c6f77616e636560701b6064820152608490fd5b50336000526001602052604060002060018060a01b0383166000526020526040600020541561035e565b34610334576040366003190112610334576020610420610417612acb565b602435906135a7565b604051908152f35b3461033457604036600319011261033457610441612acb565b6001600160a01b03166000908152600d602052604090208054602435908110156103345761046e91612c99565b5080546104a86001830154926003600282015491015490604051948594859094939260609260808301968352602083015260408201520152565b0390f35b34610334576060366003190112610334576024356004356044356104d76104d233613206565b613f94565b816000526013602052604060002083600052602052806040600020556040519081527f5845e315015ee03f0d4ab1d198172b4f733609dc3de8b957ae1d86c87403018960203392a4005b34610334576020366003190112610334576004356001600160a01b0381811691828103610334577f8c78349fc44add47ae711ddc6e926b7845597c57473e587420693d8d0547845a926060926105796104d233613206565b61058482151561309f565b600f8054610100600160a81b03198116600895861b610100600160a81b031617909155604080513381529190941c91909116602082015291820152a1005b34610334576040366003190112610334576105db612acb565b6105e3612ae1565b9060018060a01b038091166000526001602052604060002091166000526020526020604060002054604051908152f35b34610334576020366003190112610334576001600160a01b03610634612acb565b1660005260126020526020604060002054604051908152f35b3461033457602061066661066036612b25565b91613e2d565b60ff60405191168152f35b3461033457600036600319011261033457600f5460405160089190911c6001600160a01b03168152602090f35b34610334576020366003190112610334576001600160a01b036106bf612acb565b1660005260116020526020604060002054604051908152f35b34610334576040366003190112610334576106f1612acb565b60243580151591828203610334576001600160a01b03169061071482151561309f565b61071d336131dc565b80156107d3575b156107745761074c9082600052601460205260406000209060ff801983541691151516179055565b337f17ec2643977f0865dd45350e9efdcdfead258c9220974e67d1a37ca144772293600080a4005b60405162461bcd60e51b815260206004820152603160248201527f444f4553204e4f5420484156452057414c4c4554532041444d494e204f5220526044820152704553455256452041444d494e20524f4c4560781b6064820152608490fd5b506107dd336131b2565b610724565b34610334576000366003190112610334576020600c54604051908152f35b346103345760a0366003190112610334576004356001600160401b03811161033457610830903690600401612c69565b906024356001600160401b03811161033457610850903690600401612c69565b92906044356001600160401b03811161033457610871903690600401612c69565b90949092906064356001600160401b03811161033457610895903690600401612c69565b90939092906084356001600160401b038111610334576108b9903690600401612c69565b9690926108c7858214613517565b6108d2828214613517565b6108dd868214613517565b60005b8181106108f257602060405160018152f35b6108fd81838c61355d565b356001600160a01b0381168103610334578b610926838661091f828c8b61355d565b359361355d565b3590610933848b8d61355d565b3592610940368e8b612c03565b916002600b5414610e40576002600b55600a835111610dfb577f00000000000000000000000000000000000000000000000000000000000000008110610dbf576001600160a01b03821615610d8b57600c54851015610d55576109a285612bce565b50548110610d18576109b48130613673565b506109cc60016109c387612bce565b50015485612cb5565b6109f67f000000000000000000000000000000000000000000000000000000000000000042612cb5565b10610cd457610a0361328e565b85815284602082015281606082015260018060a01b038316600052600d60205260406000208054600160401b811015610c4857610a4591600182018155612c99565b919091610cbe578051825560208101516001830155604081015160028301556060810151600383015560800151805191906001600160401b038311610c4857600160401b8311610c48576004820154836004840155808410610c91575b506020600491019101600052602060002060005b838110610c7457505050506001600160a01b0382166000908152600d602052604090205460001981018110610c5e578351610b83575b60405194608086019286526020860152600019016040850152608060608501528251809152602060a085019301906000905b808210610b615750610b5c9695946001600160a01b039093169333936000805160206140768339815191529350908190039150a46001600b556134bd565b6108e0565b82516001600160a01b0316855260209485019490920191600190910190610b1e565b6001600160a01b0383166000908152600d60205260409020610baa90600019830190612c99565b508451906001600160401b038211610c4857600160401b8211610c48576004810154826004830155808310610c1b575b506004602087019101600052602060002060005b838110610bfe5750505050610aec565b82516001600160a01b031681830155602090920191600101610bee565b600482016000526020600020908382015b8183018110610c3c575050610bda565b60008155600101610c2c565b634e487b7160e01b600052604160045260246000fd5b634e487b7160e01b600052601160045260246000fd5b82516001600160a01b031681830155602090920191600101610ab6565b600483016000526020600020908482015b8183018110610cb2575050610aa2565b60008155600101610ca2565b634e487b7160e01b600052600060045260246000fd5b60405162461bcd60e51b815260206004820152601c60248201527b696e697469616c2072656c65617365206f7574206f662072616e676560201b6044820152606490fd5b60405162461bcd60e51b81526020600482015260156024820152743c203120746f6b656e207065722072656c6561736560581b6044820152606490fd5b60405162461bcd60e51b815260206004820152600e60248201526d189859081cd8da19591d5b19525960921b6044820152606490fd5b60405162461bcd60e51b815260206004820152600c60248201526b746f2030206164647265737360a01b6044820152606490fd5b60405162461bcd60e51b8152602060048201526014602482015273616d6f756e74203c206d696e2066756e64696e6760601b6044820152606490fd5b60405162461bcd60e51b815260206004820152601e60248201527f6d61782031302063616e63656c61626c654279206164647265737365657300006044820152606490fd5b60405162461bcd60e51b815260206004820152601f60248201527f5265656e7472616e637947756172643a207265656e7472616e742063616c6c006044820152606490fd5b34610334576020366003190112610334576001600160a01b03610ea6612acb565b16600052600d6020526020604060002054604051908152f35b3461033457600036600319011261033457602060ff601554166040519015158152f35b34610334576040366003190112610334576020610420610f00612acb565b602435906135e4565b3461033457606036600319011261033457610f6e610f25612acb565b602435906002610f59604435610f4685610f3f83336135a7565b1015613a2d565b33600052600d6020526040600020612c99565b5001610f66838254612cb5565b9055306132bc565b602060405160018152f35b34610334576040366003190112610334576020610fbf610f97612acb565b60243590610faf6001600160a01b038216151561309f565b610fba828233613d8e565b613673565b6040519015158152f35b34610334576020366003190112610334576020610420610fe7612acb565b6139ec565b3461033457604036600319011261033457611005612acb565b60243590336000526001602052604060002060018060a01b0382166000526020526040600020549180831061104057610f6e92039033612cc2565b60405162461bcd60e51b815260206004820152602560248201527f45524332303a2064656372656173656420616c6c6f77616e63652062656c6f77604482015264207a65726f60d81b6064820152608490fd5b34610334576040366003190112610334576110ac612acb565b602435906001600160a01b0381169081156110c7811561309f565b6110d86110d3336131b2565b613fea565b6110e182613974565b84116111e557611196576110f49061383c565b6110fc61388d565b8060005260006020526040600020549180831061114657602081600080516020614096833981519152926000958587528684520360408620558060025403600255604051908152a3005b60405162461bcd60e51b815260206004820152602260248201527f45524332303a206275726e20616d6f756e7420657863656564732062616c616e604482015261636560f01b6064820152608490fd5b60405162461bcd60e51b815260206004820152602160248201527f45524332303a206275726e2066726f6d20746865207a65726f206164647265736044820152607360f81b6064820152608490fd5b60405162461bcd60e51b815260206004820152601a60248201527924b739bab33334b1b2b73a103a37b5b2b739903a3790313ab93760311b6044820152606490fd5b3461033457602036600319011261033457611243600435612e12565b901561125457602090604051908152f35b506020600254610420565b346103345760003660031901126103345761128161127c33613139565b6130e3565b6020600160085401806008557f8030e83b04d87bef53480e26263266d6ca66863aa8506aca6f2559d18aa1cb6782604051838152a1604051908152f35b346103345760206104206112d136612b07565b92919091613bab565b3461033457600036600319011261033457604051600090600454600181811c908083169283156113b6575b60209384841081146113a0578386529081156113805750600114611340575b6104a88461133481880382612bab565b60405191829182612a9f565b919350600460005283600020916000925b82841061136d57505050816104a8936113349282010193611324565b8054858501870152928501928101611351565b60ff1916858501525050151560051b8201019150611334816104a8611324565b634e487b7160e01b600052602260045260246000fd5b91607f1691611305565b34610334576040366003190112610334576020610fbf6113de612acb565b6113e6612af7565b90613163565b346103345760e036600319011261033457602061042060c43560a435608435606435604435602435600435613cc0565b3461033457600036600319011261033457602060ff600a5416604051908152f35b346103345760a036600319011261033457611456612acb565b6084356001600160401b038111610334573660238201121561033457611486903690602481600401359101612c03565b6002600b5414610e40576002600b55600a815111610dfb577f000000000000000000000000000000000000000000000000000000000000000060243510610dbf576001600160a01b03821615610d8b57600c546064351015610d55576114ed606435612bce565b505460243510610d185761150360243530613673565b5061151f6001611514606435612bce565b500154604435612cb5565b6115497f000000000000000000000000000000000000000000000000000000000000000042612cb5565b10610cd45761155661328e565b60643581526044356020820152602435606082015260018060a01b038316600052600d60205260406000208054600160401b811015610c485761159e91600182018155612c99565b919091610cbe578051825560208101516001830155604081015160028301556060810151600383015560800151805191906001600160401b038311610c4857600160401b8311610c485760048201548360048401558084106117a7575b506020600491019101600052602060002060005b83811061178a576001600160a01b0386166000908152600d6020526040902054869060001981019087908211610c5e5780516116d7575b604051916080830190602435845260443560208501526040840152608060608401528151809152602060a0840192019060005b8181106116b8575050606435936001600160a01b0316923392600080516020614076833981519152925081900390a46001600b55602060405160018152f35b82516001600160a01b0316845260209384019390920191600101611679565b60018060a01b038316600052600d60205260046116f8836040600020612c99565b50825191016001600160401b038211610c4857600160401b8211610c48578054828255808310611761575b506020830190600052602060002060005b8381106117445750505050611646565b82516001600160a01b031681830155602090920191600101611734565b8160005282602060002091820191015b81811061177e5750611723565b60008155600101611771565b82516001600160a01b03168183015560209092019160010161160f565b600483016000526020600020908482015b81830181106117c85750506115fb565b600081556001016117b8565b34610334576040366003190112610334576117ed612acb565b602435906001600160a01b031661180581151561309f565b611816611811336131dc565b613230565b8060005260116020528160406000205533600080516020614056833981519152600080a4005b3461033457602036600319011261033457602061042061185a612acb565b61399e565b3461033457602036600319011261033457602061042061187d612acb565b6001600160a01b038116600090815280845260409020549061189e906139ec565b90612cb5565b34610334576000366003190112610334576118c161127c33613139565b600160ff1960155416176015556000805160206140368339815191526040805133815260016020820152a1005b346103345760403660031901126103345761191361190a612acb565b60243590613bee565b60405180916020808352608060c08401928051838601528281015160408601526040810151606086015260608101518286015201519160a08085015282518091528160e0850193019160005b82811061196e57505050500390f35b83516001600160a01b03168552869550938101939281019260010161195f565b346103345760203660031901126103345760043560ff81168103610334576113346104a891613ec6565b346103345760403660031901126103345760206104206119d6612acb565b6024359061356d565b346103345760203660031901126103345760206104206119fd612acb565b613974565b3461033457602036600319011261033457600435600c548110156103345761046e90612bce565b34610334576020366003190112610334576020610420611a47612acb565b61189e611a53826139ec565b9161399e565b3461033457604036600319011261033457611a72612acb565b602435906001600160a01b0316611a8a81151561309f565b611a96611811336131dc565b80600052601260205281604060002055336000805160206140b6833981519152600080a4005b346103345760e0366003190112610334576080366063190112610334576020610420604051611aea81612b5a565b60643581526084358382015260a435604082015260c4356060820152604435602435600435613ca4565b34610334576000366003190112610334576020600854604051908152f35b34610334576040366003190112610334576020611b4d612acb565b6001600160a01b03811660009081526005835260409020611b7090602435612ed6565b919015611b805750604051908152f35b611b8a9150613974565b610420565b346103345760a036600319011261033457611ba8612acb565b608435801515916064359190602435848303610334576001600160a01b0390911692610714918415159190611bdc8361309f565b611be8611811336131dc565b611bf18361309f565b611bfd611811336131dc565b8560005260126020528060406000205585336000805160206140b6833981519152600080a4611c2b8261309f565b611c37611811336131dc565b846000526011602052806040600020558433600080516020614056833981519152600080a461309f565b3461033457604036600319011261033457611c7a612acb565b611c82612ae1565b9060018060a01b03809116600052601260205260406000205460005260136020526040600020911660005260126020526040600020546000526020526020604060002054604051908152f35b3461033457604036600319011261033457611ce7612acb565b6001600160a01b038116906024358215611d01811561309f565b611d0d6110d3336131b2565b611d1982600254612cb5565b60105410611db757611d7257602060008051602061409683398151915291611d4260009461383c565b611d4a61388d565b611d5681600254612cb5565b60025584845283825260408420818154019055604051908152a3005b60405162461bcd60e51b815260206004820152601f60248201527f45524332303a206d696e7420746f20746865207a65726f2061646472657373006044820152606490fd5b60405162461bcd60e51b815260206004820152602a60248201527f43616e6e6f74206d696e74206d6f7265207468616e20746865206d617820746f60448201526974616c20737570706c7960b01b6064820152608490fd5b3461033457600036600319011261033457611e2c61127c33613139565b60ff19601554166015556000805160206140368339815191526040805133815260006020820152a1005b3461033457604036600319011261033457611e6f612acb565b611e77612af7565b60ff918282169081151580611f41575b611e9090613058565b6001600160a01b031691611ea583151561309f565b611eb161127c33613139565b826000526009602052600160406000205416159081611f34575b50611f0e575b600192826000526009602052604060002090828254918216179060ff19161790556040519081526000805160206140d683398151915260203392a4005b600a549280841693818514610c5e57816001809601169060ff191617600a559250611ed1565b6001915016151584611ecb565b50600f838117851614611e87565b3461033457604036600319011261033457600435600052601360205260406000206024356000526020526020604060002054604051908152f35b3461033457604036600319011261033457610f6e611fa5612acb565b336000526001602052604060002060018060a01b038216600052602052611fd3602435604060002054612cb5565b9033612cc2565b346103345760003660031901126103345760206040517f00000000000000000000000000000000000000000000000000000000000000008152f35b34610334576020366003190112610334576001600160a01b03612036612acb565b1660005260006020526020604060002054604051908152f35b3461033457600036600319011261033457602060ff600f5416604051908152f35b346103345761036d61208136612b25565b91613d8e565b34610334576000366003190112610334576020601054604051908152f35b34610334576120b336612b25565b906001600160a01b03808216151580612268575b6120d09061309f565b8316908160005260209260018452604060002033600052845260406000205480821161220257612101828488613d8e565b61210b8287613a6d565b9061212882519361212188850195865190612cb5565b1015613632565b815191826121e2575b505050519182612146575b8360405160018152f35b60005260018352604060002033600052835260406000205493600019850361217d575b6121749394506136cb565b8082808061213c565b82851061219d57612195836121749596033383612cc2565b849350612169565b60405162461bcd60e51b815260048101859052601d60248201527f45524332303a20696e73756666696369656e7420616c6c6f77616e63650000006044820152606490fd5b6121f06121fa9386306136cb565b5190033387612cc2565b858080612131565b60405162461bcd60e51b815260048101869052603860248201527f54686520617070726f76656420616c6c6f77616e6365206973206c6f776572206044820152771d1a185b881d1a19481d1c985b9cd9995c88185b5bdd5b9d60421b6064820152608490fd5b5083811615156120c7565b346103345761228136612b07565b909291927f0000000000000000000000000000000000000000000000000000000000000000841161245c5760018310612429576127108082116123f35760018411156123a15750811561236f575b604051926122dc84612b5a565b8352602083019384526040830190815260608301918252600c54600160401b811015610c48578060016123129201600c55612bce565b949094610cbe5760039351855551600185015551600284015551910155600c546000198101908111610c5e5760405160209180337f9c52cb9bbb9b7fa6ddb26d1e82afc4e62c9ec50c0f3488c10bb8ad22d4edc4c3600080a38152f35b60405162461bcd60e51b815260206004820152600a6024820152690706572696f64203d20360b41b6044820152606490fd5b600184146123b0575b506122cf565b81036123bc57846123aa565b60405162461bcd60e51b815260206004820152600f60248201526e72656c6561736564203c203130302560881b6044820152606490fd5b60405162461bcd60e51b815260206004820152600e60248201526d72656c65617365203e203130302560901b6044820152606490fd5b60405162461bcd60e51b815260206004820152600b60248201526a3c20312072656c6561736560a81b6044820152606490fd5b60405162461bcd60e51b81526020600482015260136024820152720ccd2e4e6e840e4cad8cac2e6ca407c40dac2f606b1b6044820152606490fd5b34610334576000366003190112610334576020600254604051908152f35b346103345760003660031901126103345760206040517f00000000000000000000000000000000000000000000000000000000000000008152f35b346103345760c036600319011261033457612509612acb565b6024906001600160a01b0360a435818116929184359084830361033457831680600052602094600d86528260406000205411156127dc57801561279f5781600052600d865261255c836040600020612c99565b5094612567866134cc565b15612747576044358654036126f85760643560018701540361269e57600386019460843586540361264e5761259c858361356d565b91821561260d576002979899508291816125c56125bc896125cb956135a7565b958693306132bc565b306132bc565b6040519283528883015260408201527f6945f4788d8a6b16089d616d1f7bb52372bfdbc43addd3386a7842db4199986a60603392a45491015560405160018152f35b60405162461bcd60e51b8152600481018a9052601a818c015279151a5b595b1bd8dac81a185cc81b9bc81d985b1d59481b19599d60321b6044820152606490fd5b60405162461bcd60e51b8152600481018990526023818b01527f457870656374656420746f74616c416d6f756e7420646f6573206e6f74206d616044820152620e8c6d60eb1b6064820152608490fd5b60405162461bcd60e51b815260048101889052602d818a01527f457870656374656420636f6d6d656e63656d656e7454696d657374616d70206460448201526c0decae640dcdee840dac2e8c6d609b1b6064820152608490fd5b60405162461bcd60e51b8152600481018890526022818a01527f4578706563746564207363686564756c65496420646f6573206e6f74206d61746044820152610c6d60f31b6064820152608490fd5b60405162461bcd60e51b815260048101889052602b818a01527f596f7520617265206e6f7420616c6c6f77656420746f2063616e63656c20746860448201526a69732074696d656c6f636b60a81b6064820152608490fd5b60405162461bcd60e51b81526004810187905260168189015275496e76616c6964207265636c61696d546f6b656e546f60501b6044820152606490fd5b60405162461bcd60e51b8152600481018790526010818901526f696e76616c69642074696d656c6f636b60801b6044820152606490fd5b34610334576040366003190112610334576020610420612831612acb565b60243590613610565b3461033457604036600319011261033457610f6e612856612acb565b6024359033612cc2565b3461033457604036600319011261033457612879612acb565b612881612af7565b9060ff80831690811515806129ce575b61289a90613058565b6001600160a01b038316926128c79085906128b686151561309f565b6128c261127c33613139565b613163565b156129935760018416612911575b6000938385526009602052604085209182549181831618169060ff19161790556040519081526000805160206140d683398151915260203392a4005b600a5493818516946001861115612940578515610c5e5760ff1916600019909501821694909417600a556128d5565b60405162461bcd60e51b815260206004820152602560248201527f4d7573742068617665206174206c65617374206f6e6520636f6e74726163742060448201526430b236b4b760d91b6064820152608490fd5b60405162461bcd60e51b815260206004820152601360248201527243414e204e4f54205245564f4b4520524f4c4560681b6044820152606490fd5b50600f848117821614612891565b3461033457600036600319011261033457600090600354600181811c90808316928315612a72575b60209384841081146113a0578386529081156113805750600114612a32576104a88461133481880382612bab565b919350600360005283600020916000925b828410612a5f57505050816104a8936113349282010193611324565b8054858501870152928501928101612a43565b91607f1691612a04565b60005b838110612a8f5750506000910152565b8181015183820152602001612a7f565b60409160208252612abf8151809281602086015260208686019101612a7c565b601f01601f1916010190565b600435906001600160a01b038216820361033457565b602435906001600160a01b038216820361033457565b6024359060ff8216820361033457565b60809060031901126103345760043590602435906044359060643590565b6060906003190112610334576001600160a01b0390600435828116810361033457916024359081168103610334579060443590565b608081019081106001600160401b03821117610c4857604052565b60a081019081106001600160401b03821117610c4857604052565b604081019081106001600160401b03821117610c4857604052565b601f909101601f19168101906001600160401b03821190821017610c4857604052565b600c54811015612bed57600c60005260206000209060021b0190600090565b634e487b7160e01b600052603260045260246000fd5b9092916001600160401b038411610c48578360051b6040519260208094612c2c82850182612bab565b809781520191810192831161033457905b828210612c4a5750505050565b81356001600160a01b0381168103610334578152908301908301612c3d565b9181601f84011215610334578235916001600160401b038311610334576020808501948460051b01011161033457565b8054821015612bed576000526005602060002091020190600090565b91908201809211610c5e57565b6001600160a01b03908116918215612d735716918215612d235760207f8c5be1e5ebec7d5bd14f71427d1e84f3dd0314c0f7b2291e5b200ac8c7c3b925918360005260018252604060002085600052825280604060002055604051908152a3565b60405162461bcd60e51b815260206004820152602260248201527f45524332303a20617070726f766520746f20746865207a65726f206164647265604482015261737360f01b6064820152608490fd5b60405162461bcd60e51b8152602060048201526024808201527f45524332303a20617070726f76652066726f6d20746865207a65726f206164646044820152637265737360e01b6064820152608490fd5b600754811015612bed57600760005260206000200190600090565b600654811015612bed57600660005260206000200190600090565b8054821015612bed5760005260206000200190600090565b8015612e98576008548111612e5357612e2a90612f1a565b6006548103612e3c5750600090600090565b612e4590612dc4565b90549060031b1c9060019190565b60405162461bcd60e51b815260206004820152601d60248201527f4552433230536e617073686f743a206e6f6e6578697374656e742069640000006044820152606490fd5b60405162461bcd60e51b815260206004820152601660248201527504552433230536e617073686f743a20696420697320360541b6044820152606490fd5b8015612e98576008548111612e5357612eef9082612fc2565b81548103612f01575050600090600090565b6001612e459201612dfa565b91908203918211610c5e57565b60068054918215612fba576000925b808410612f7857508215159182612f54575b505015612f51576000198101908111610c5e5790565b90565b909150600019908382810111610c5e57600052826020600020010154143880612f3b565b600190612f8b818618831c828716612cb5565b918460005283836020600020015411600014612fa8575050612f29565b9094508101809111610c5e5792612f29565b505050600090565b8054918215612fba576000925b808410612ff657508215159182612f5457505015612f51576000198101908111610c5e5790565b600190613009818618831c828716612cb5565b918460005283836020600020015411600014613026575050612fcf565b9094508101809111610c5e5792612fcf565b8115613042570490565b634e487b7160e01b600052601260045260246000fd5b1561305f57565b60405162461bcd60e51b8152602060048201526018602482015277444f4553204e4f5420484156452056414c494420524f4c4560401b6044820152606490fd5b156130a657565b60405162461bcd60e51b81526020600482015260156024820152740416464726573732063616e6e6f742062652030783605c1b6044820152606490fd5b156130ea57565b60405162461bcd60e51b815260206004820152602160248201527f444f4553204e4f54204841564520434f4e54524143542041444d494e20524f4c6044820152604560f81b6064820152608490fd5b6001600160a01b031661314d81151561309f565b6000526009602052600160406000205416151590565b9060ff918282161515806131a4575b61317b90613058565b6001600160a01b031661318f81151561309f565b60005260096020526040600020541616151590565b50600f828117841614613172565b6001600160a01b03166131c681151561309f565b6000526009602052600260406000205416151590565b6001600160a01b03166131f081151561309f565b6000526009602052600460406000205416151590565b6001600160a01b031661321a81151561309f565b6000526009602052600860406000205416151590565b1561323757565b606460405162461bcd60e51b815260206004820152602060248201527f444f4553204e4f5420484156452057414c4c4554532041444d494e20524f4c456044820152fd5b81810292918115918404141715610c5e57565b6040519061329b82612b75565b60606080836000815260006020820152600060408201526000838201520152565b919061336591600080604051936020968786019463a9059cbb60e01b865260018060a01b0380931660248801526044870152604486526132fb86612b5a565b16926040519461330a86612b90565b8786527f5361666545524332303a206c6f772d6c6576656c2063616c6c206661696c656488870152519082855af13d156133ed573d91613349836133f5565b926133576040519485612bab565b83523d60008785013e613428565b8051908282159283156133d5575b5050501561337e5750565b6084906040519062461bcd60e51b82526004820152602a60248201527f5361666545524332303a204552433230206f7065726174696f6e20646964206e6044820152691bdd081cdd58d8d9595960b21b6064820152fd5b6133e59350820181019101613410565b388281613373565b606091613428565b6001600160401b038111610c4857601f01601f191660200190565b90816020910312610334575180151581036103345790565b9192901561348a575081511561343c575090565b3b156134455790565b60405162461bcd60e51b815260206004820152601d60248201527f416464726573733a2063616c6c20746f206e6f6e2d636f6e74726163740000006044820152606490fd5b82519091501561349d5750805190602001fd5b60405162461bcd60e51b81529081906134b99060048301612a9f565b0390fd5b6000198114610c5e5760010190565b60005b600482018054821015612fba57816134e691612dfa565b90543360039290921b1c6001600160a01b031614613510576135096004916134bd565b90506134cf565b5050600190565b1561351e57565b60405162461bcd60e51b81526020600482015260176024820152760dad2e6dac2e8c6d0cac840c2e4e4c2f240d8cadccee8d604b1b6044820152606490fd5b9190811015612bed5760051b0190565b6135778282613bee565b906040606083015192015182111560001461359457505050600090565b612f51926135a191613610565b90612f0d565b6135b18282613bee565b9060406060830151920191825110156000146135cf57505050600090565b612f51926135dc91613610565b905190612f0d565b906135ee91613bee565b6060810151604090910151808211613607575050600090565b612f5191612f0d565b612f519161361d91613bee565b60208101519060608101519051914290613bab565b1561363957565b60405162461bcd60e51b8152602060048201526012602482015271496e737566666963656e7420746f6b656e7360701b6044820152606490fd5b9061367e8133613a6d565b6136948151926121216020840194855190612cb5565b51806136ba575b5051806136a9575050600190565b6136b391336136cb565b3880613510565b6136c59083306136cb565b3861369b565b90916001600160a01b03808316929083156137e9578416938415613798576136f56136fa9261383c565b61383c565b6000828152806020526040812054918083106137445760408282600080516020614096833981519152958760209652828652038282205586815220818154019055604051908152a3565b60405162461bcd60e51b815260206004820152602660248201527f45524332303a207472616e7366657220616d6f756e7420657863656564732062604482015265616c616e636560d01b6064820152608490fd5b60405162461bcd60e51b815260206004820152602360248201527f45524332303a207472616e7366657220746f20746865207a65726f206164647260448201526265737360e81b6064820152608490fd5b60405162461bcd60e51b815260206004820152602560248201527f45524332303a207472616e736665722066726f6d20746865207a65726f206164604482015264647265737360d81b6064820152608490fd5b6001600160a01b03811660009081526005602052604090209061385e90613974565b6008548061386b84613951565b1061387557505050565b8261388560019261388b95613901565b01613901565b565b600254600854908161389d613924565b106138a6575050565b600654600160401b9283821015610c48576138ca8260016138e39401600655612ddf565b90919082549060031b91821b91600019901b1916179055565b60075491821015610c48576138ca82600161388b9401600755612dc4565b80549190600160401b831015610c4857826138ca91600161388b95018155612dfa565b600654806139325750600090565b6000198101908111610c5e5761394790612ddf565b90549060031b1c90565b80548061395f575050600090565b6000198101908111610c5e5761394791612dfa565b612f519060018060a01b038116600052600060205261189e611a5360406000205461189e846139ec565b60009060009283925b6001600160a01b0383168552600d60205260408520548410156139e5576139dd6139d760409261189e878761356d565b946134bd565b9390506139a7565b9350915050565b60009060009283925b6001600160a01b0383168552600d60205260408520548410156139e557613a256139d760409261189e87876135a7565b9390506139f5565b15613a3457565b60405162461bcd60e51b8152602060048201526011602482015270185b5bdd5b9d080f881d5b9b1bd8dad959607a1b6044820152606490fd5b9190604092835190613a7e82612b90565b84368337819260018060a01b03821693600092858452602091848352613aae84610f3f8b88205461189e866139ec565b8390855b888752600d8086528b88208054831015613b965790886003613af08f86908f9682613adc91612c99565b50966002809801549552858c528d20612c99565b50015403613b08575050613b03906134bd565b613ab2565b90919293613b1684876135a7565b811115613b6757613b60613b0393613b568f968998978f9682978f9784613b45613b4b928f836135a1916135a7565b9d6135a7565b97528c528d20612c99565b5001918254612cb5565b90556134bd565b945091613b87939b613b569293613b90989b8a989b9a528a528620612c99565b90558094612f0d565b81520152565b505050985095505092915083613b9091612f0d565b9190613bb9612f5194612bce565b5092600360405194613bca86612b5a565b80548652600181015460208701526002810154604087015201546060850152613ca4565b90613bf761328e565b5060018060a01b03809216600052613c19602091600d83526040600020612c99565b509060405192613c2884612b75565b82548452600460019384810154848701526002810154604087015260038101546060870152016040519384859385845492838152019360005285600020956000915b838310613c8a575050505050613c8292500382612bab565b608082015290565b875481168652968401968896509481019491840191613c6a565b9190612f51939182519060208401519260606040860151950151955b9591929390600096818111613d8157613cd891612f0d565b946000198501948511610c5e57613cf8613cf2868561327b565b83612cb5565b861015613d775781861015613d11575b50505050505090565b8394959650613d259061271092939461327b565b049482613d328383612f0d565b1015613d3f575b80613d08565b92613d6886613d62613d6d989795613d5d613d5d9661189e99612f0d565b613038565b92612f0d565b61327b565b3880808080613d39565b5050509250505090565b5050505050505050600090565b91613d9b91602493613e2d565b600f54604051637d8e7d1b60e01b815260ff8316600482015292602091849190829060081c6001600160a01b03165afa918215613e2157600092613ded575b50613de490613ec6565b901561349d5750565b613de4919250613e139060203d8111613e1a575b613e0b8183612bab565b810190613410565b9190613dda565b503d613e01565b6040513d6000823e3d90fd5b600f5460405163cfdb31a960e01b81523060048201526001600160a01b0392831660248201529282166044840152606483019390935290916020918391608491839160081c165afa908115613e2157600091613e87575090565b6020813d8211613ebe575b81613e9f60209383612bab565b81010312613eba57519060ff82168203613eb7575090565b80fd5b5080fd5b3d9150613e92565b600f54604051637f4ab1dd60e01b815260ff9290921660048301526000919082908290602490829060081c6001600160a01b03165afa918215613f88578092613f0e57505090565b9091503d8082843e613f208184612bab565b820191602081840312613eba578051906001600160401b038211613f84570182601f82011215613eba57805191613f56836133f5565b93613f646040519586612bab565b83855260208484010111613eb7575090612f519160208085019101612a7c565b8280fd5b604051903d90823e3d90fd5b15613f9b57565b60405162461bcd60e51b815260206004820152602160248201527f444f4553204e4f542048415645205452414e534645522041444d494e20524f4c6044820152604560f81b6064820152608490fd5b15613ff157565b606460405162461bcd60e51b815260206004820152602060248201527f444f4553204e4f54204841564520524553455256452041444d494e20524f4c456044820152fdfe0d7fd1e314b29407db3d79c46ecf1fa3d2108961fab8d20584277358cac41e890765aaf231b09368f07b83425559b145d7d386b1ff8f16c157a2ff2c7b9896fe8d92942330bb9e8e714a4f66aa3eefe27f66d05b8ae4b6f6889e5a64a16155beddf252ad1be2c89b69c2b068fc378daa952ba7f163c4a11628f55a4df523b3eff213aa445739b8d5bb514c5e3142fe13baacfa991314172ceaf756996259b8b37e9e87d17fbf2950f3379a6331b75b6e997a147bbd3eaedc68c30c62186c68cba164736f6c6343000814000addf252ad1be2c89b69c2b068fc378daa952ba7f163c4a11628f55a4df523b3ef","opcodes":"PUSH1 0xC0 PUSH1 0x40 SWAP1 DUP1 DUP3 MSTORE CALLVALUE PUSH3 0x7FD JUMPI PUSH3 0x4E41 DUP1 CODESIZE SUB DUP1 SWAP2 PUSH3 0x22 DUP3 DUP6 PUSH3 0x81E JUMP JUMPDEST DUP4 CODECOPY DUP2 ADD SWAP2 PUSH2 0x140 DUP3 DUP5 SUB SLT PUSH3 0x7FD JUMPI PUSH3 0x3E DUP3 PUSH3 0x842 JUMP JUMPDEST SWAP2 PUSH3 0x4D PUSH1 0x20 DUP3 ADD PUSH3 0x842 JUMP JUMPDEST PUSH3 0x5A DUP4 DUP4 ADD PUSH3 0x842 JUMP JUMPDEST PUSH1 0x60 DUP4 ADD MLOAD SWAP1 SWAP4 SWAP1 PUSH1 0x1 PUSH1 0x1 PUSH1 0x40 SHL SUB DUP2 GT PUSH3 0x7FD JUMPI DUP7 PUSH3 0x7F SWAP2 DUP6 ADD PUSH3 0x857 JUMP JUMPDEST PUSH1 0x80 DUP5 ADD MLOAD SWAP1 SWAP7 PUSH1 0x1 PUSH1 0x1 PUSH1 0x40 SHL SUB DUP3 GT PUSH3 0x7FD JUMPI PUSH3 0xA2 SWAP2 DUP6 ADD PUSH3 0x857 JUMP JUMPDEST PUSH1 0xA0 DUP5 ADD MLOAD SWAP6 PUSH1 0xFF DUP8 AND DUP8 SUB PUSH3 0x7FD JUMPI PUSH1 0xC0 DUP6 ADD MLOAD SWAP4 PUSH1 0xE0 DUP7 ADD MLOAD PUSH2 0x120 PUSH2 0x100 DUP9 ADD MLOAD SWAP8 ADD MLOAD SWAP4 DUP1 MLOAD PUSH1 0x1 DUP1 PUSH1 0x40 SHL SUB DUP2 GT PUSH3 0x6D4 JUMPI PUSH1 0x3 SLOAD SWAP2 PUSH1 0x1 DUP4 DUP2 SHR SWAP4 AND DUP1 ISZERO PUSH3 0x7F2 JUMPI JUMPDEST PUSH1 0x20 DUP5 LT EQ PUSH3 0x7DC JUMPI DUP2 SWAP1 PUSH1 0x1F SWAP4 DUP5 DUP2 GT PUSH3 0x785 JUMPI JUMPDEST POP PUSH1 0x20 SWAP1 DUP5 DUP4 GT PUSH1 0x1 EQ PUSH3 0x6F6 JUMPI PUSH1 0x0 SWAP3 PUSH3 0x6EA JUMPI JUMPDEST POP POP DUP2 PUSH1 0x1 SHL SWAP2 PUSH1 0x0 NOT SWAP1 PUSH1 0x3 SHL SHR NOT AND OR PUSH1 0x3 SSTORE JUMPDEST DUP11 MLOAD SWAP1 PUSH1 0x1 PUSH1 0x1 PUSH1 0x40 SHL SUB DUP3 GT PUSH3 0x6D4 JUMPI PUSH1 0x4 SWAP12 DUP13 SLOAD PUSH1 0x1 DUP2 DUP2 SHR SWAP2 AND DUP1 ISZERO PUSH3 0x6C9 JUMPI JUMPDEST PUSH1 0x20 DUP3 LT EQ PUSH3 0x6B4 JUMPI SWAP1 DUP2 DUP4 DUP6 SWAP5 SWAP4 GT PUSH3 0x65B JUMPI JUMPDEST POP PUSH1 0x20 SWAP2 DUP4 GT PUSH1 0x1 EQ PUSH3 0x5F0 JUMPI PUSH1 0x0 SWAP3 PUSH3 0x5E4 JUMPI JUMPDEST POP POP DUP2 PUSH1 0x1 SHL SWAP2 PUSH1 0x0 NOT SWAP1 PUSH1 0x3 SHL SHR NOT AND OR DUP11 SSTORE JUMPDEST PUSH1 0x1 PUSH1 0xB SSTORE PUSH1 0x15 DUP1 SLOAD PUSH1 0xFF NOT SWAP1 DUP2 AND SWAP1 SWAP2 SSTORE SWAP3 PUSH1 0x1 PUSH1 0x1 PUSH1 0xA0 SHL SUB SWAP3 DUP4 DUP3 AND ISZERO PUSH3 0x595 JUMPI DUP4 AND SWAP3 DUP4 ISZERO PUSH3 0x548 JUMPI DUP10 AND SWAP10 DUP11 ISZERO PUSH3 0x4F3 JUMPI PUSH1 0xFF PUSH1 0xF SLOAD SWAP2 AND SWAP2 PUSH2 0x100 PUSH1 0x1 PUSH1 0xA8 SHL SUB SWAP1 PUSH1 0x8 SHL AND SWAP1 PUSH1 0x1 DUP1 PUSH1 0xA8 SHL SUB NOT AND OR OR PUSH1 0xF SSTORE PUSH1 0x10 SSTORE PUSH1 0x0 MSTORE PUSH1 0x9 PUSH1 0x20 MSTORE DUP3 PUSH1 0x0 KECCAK256 PUSH1 0x1 DUP3 DUP3 SLOAD AND OR SWAP1 SSTORE PUSH1 0x1 DUP2 PUSH1 0xA SLOAD AND OR PUSH1 0xA SSTORE DUP7 PUSH1 0x0 MSTORE PUSH1 0x2 DUP4 PUSH1 0x0 KECCAK256 SWAP2 DUP3 SLOAD SWAP1 PUSH1 0xFF DUP3 AND SWAP2 AND OR OR SWAP1 SSTORE PUSH1 0x5 PUSH1 0x20 MSTORE DUP2 PUSH1 0x0 KECCAK256 SWAP4 PUSH1 0x0 PUSH1 0x20 MSTORE DUP3 PUSH1 0x0 KECCAK256 SLOAD SWAP8 PUSH1 0x0 SWAP8 DUP9 JUMPDEST DUP2 PUSH1 0x0 MSTORE PUSH1 0xD PUSH1 0x20 MSTORE DUP6 PUSH1 0x0 KECCAK256 SLOAD DUP11 LT ISZERO PUSH3 0x290 JUMPI PUSH3 0x282 PUSH3 0x289 SWAP2 PUSH3 0x27B DUP13 DUP13 PUSH3 0xACB JUMP JUMPDEST SWAP1 PUSH3 0x8CE JUMP JUMPDEST SWAP10 PUSH3 0x9D1 JUMP JUMPDEST SWAP9 PUSH3 0x250 JUMP JUMPDEST PUSH3 0x2A0 SWAP1 DUP12 SWAP10 SWAP8 SWAP9 SWAP10 PUSH3 0x8CE JUMP JUMPDEST SWAP7 PUSH1 0x0 SWAP9 DUP10 JUMPDEST DUP4 PUSH1 0x0 MSTORE PUSH1 0xD PUSH1 0x20 MSTORE DUP8 PUSH1 0x0 KECCAK256 SLOAD DUP12 LT ISZERO PUSH3 0x2DF JUMPI PUSH3 0x2D1 PUSH3 0x2D8 SWAP2 PUSH3 0x27B DUP14 DUP13 PUSH3 0x9E1 JUMP JUMPDEST SWAP11 PUSH3 0x9D1 JUMP JUMPDEST SWAP10 PUSH3 0x2A6 JUMP JUMPDEST PUSH3 0x2EB SWAP1 DUP11 PUSH3 0x8CE JUMP JUMPDEST PUSH1 0x8 SLOAD DUP1 PUSH3 0x2FA DUP5 PUSH3 0x9AA JUMP JUMPDEST LT PUSH3 0x4D0 JUMPI JUMPDEST POP POP POP PUSH1 0x2 SLOAD PUSH1 0x8 SLOAD DUP1 PUSH3 0x315 PUSH3 0x979 JUMP JUMPDEST LT PUSH3 0x3ED JUMPI JUMPDEST POP POP PUSH1 0x0 DUP1 MLOAD PUSH1 0x20 PUSH3 0x4E21 DUP4 CODECOPY DUP2 MLOAD SWAP2 MSTORE PUSH1 0x20 DUP3 PUSH3 0x341 PUSH1 0x0 SWAP5 PUSH1 0x2 SLOAD PUSH3 0x8CE JUMP JUMPDEST PUSH1 0x2 SSTORE DUP5 DUP5 MSTORE DUP4 DUP3 MSTORE DUP9 DUP5 KECCAK256 DUP2 DUP2 SLOAD ADD SWAP1 SSTORE DUP9 MLOAD SWAP1 DUP2 MSTORE LOG3 DUP2 ISZERO PUSH3 0x3AA JUMPI POP PUSH1 0x80 MSTORE PUSH1 0xA0 MSTORE MLOAD PUSH2 0x4102 SWAP1 DUP2 PUSH3 0xD1F DUP3 CODECOPY PUSH1 0x80 MLOAD DUP2 DUP2 DUP2 PUSH2 0x95B ADD MSTORE DUP2 DUP2 PUSH2 0x14A0 ADD MSTORE PUSH2 0x1FF2 ADD MSTORE PUSH1 0xA0 MLOAD DUP2 DUP2 DUP2 PUSH2 0x9D1 ADD MSTORE DUP2 DUP2 PUSH2 0x1524 ADD MSTORE DUP2 DUP2 PUSH2 0x2287 ADD MSTORE PUSH2 0x24CD ADD MSTORE RETURN JUMPDEST PUSH1 0x64 SWAP1 PUSH1 0x20 DUP6 MLOAD SWAP2 PUSH3 0x461BCD PUSH1 0xE5 SHL DUP4 MSTORE DUP3 ADD MSTORE PUSH1 0x17 PUSH1 0x24 DUP3 ADD MSTORE PUSH32 0x4D696E2074696D656C6F636B20616D6F756E74203E2030000000000000000000 PUSH1 0x44 DUP3 ADD MSTORE REVERT JUMPDEST PUSH1 0x6 SLOAD SWAP1 PUSH9 0x10000000000000000 SWAP2 DUP3 DUP2 LT ISZERO PUSH3 0x4BB JUMPI SWAP1 PUSH3 0x41C DUP3 PUSH1 0x1 PUSH3 0x435 SWAP5 ADD PUSH1 0x6 SSTORE PUSH3 0x8F2 JUMP JUMPDEST SWAP1 SWAP2 SWAP1 DUP3 SLOAD SWAP1 PUSH1 0x3 SHL SWAP2 DUP3 SHL SWAP2 PUSH1 0x0 NOT SWAP1 SHL NOT AND OR SWAP1 SSTORE JUMP JUMPDEST PUSH1 0x7 SLOAD SWAP1 DUP2 LT ISZERO PUSH3 0x4A6 JUMPI PUSH1 0x1 DUP2 ADD DUP1 PUSH1 0x7 SSTORE DUP2 LT ISZERO PUSH3 0x491 JUMPI PUSH1 0x7 PUSH1 0x0 MSTORE PUSH32 0xA66CC928B5EDB82AF9BD49922954155AB7B0942694BEA4CE44661D9A8736C688 ADD SSTORE PUSH1 0x0 DUP1 MLOAD PUSH1 0x20 PUSH3 0x4E21 DUP4 CODECOPY DUP2 MLOAD SWAP2 MSTORE PUSH1 0x20 PUSH3 0x31C JUMP JUMPDEST PUSH1 0x32 DUP6 PUSH4 0x4E487B71 PUSH1 0xE0 SHL PUSH1 0x0 MSTORE MSTORE PUSH1 0x24 PUSH1 0x0 REVERT JUMPDEST PUSH1 0x41 DUP6 PUSH4 0x4E487B71 PUSH1 0xE0 SHL PUSH1 0x0 MSTORE MSTORE PUSH1 0x24 PUSH1 0x0 REVERT JUMPDEST PUSH1 0x41 DUP8 PUSH4 0x4E487B71 PUSH1 0xE0 SHL PUSH1 0x0 MSTORE MSTORE PUSH1 0x24 PUSH1 0x0 REVERT JUMPDEST DUP3 PUSH3 0x4E3 PUSH1 0x1 SWAP3 PUSH3 0x4EA SWAP6 PUSH3 0x93D JUMP JUMPDEST ADD PUSH3 0x93D JUMP JUMPDEST DUP7 DUP1 DUP1 PUSH3 0x301 JUMP JUMPDEST DUP7 MLOAD PUSH3 0x461BCD PUSH1 0xE5 SHL DUP2 MSTORE PUSH1 0x20 DUP2 DUP15 ADD MSTORE PUSH1 0x29 PUSH1 0x24 DUP3 ADD MSTORE PUSH32 0x546F6B656E20726573657276652061646D696E20616464726573732063616E6E PUSH1 0x44 DUP3 ADD MSTORE PUSH9 0x6F742062652030783 PUSH1 0xBC SHL PUSH1 0x64 DUP3 ADD MSTORE PUSH1 0x84 SWAP1 REVERT JUMPDEST DUP7 MLOAD PUSH3 0x461BCD PUSH1 0xE5 SHL DUP2 MSTORE PUSH1 0x20 DUP2 DUP15 ADD MSTORE PUSH1 0x21 PUSH1 0x24 DUP3 ADD MSTORE PUSH32 0x546F6B656E206F776E657220616464726573732063616E6E6F74206265203078 PUSH1 0x44 DUP3 ADD MSTORE PUSH1 0x3 PUSH1 0xFC SHL PUSH1 0x64 DUP3 ADD MSTORE PUSH1 0x84 SWAP1 REVERT JUMPDEST DUP7 MLOAD PUSH3 0x461BCD PUSH1 0xE5 SHL DUP2 MSTORE PUSH1 0x20 DUP2 DUP15 ADD MSTORE PUSH1 0x24 DUP1 DUP3 ADD MSTORE PUSH32 0x5472616E736665722072756C657320616464726573732063616E6E6F74206265 PUSH1 0x44 DUP3 ADD MSTORE PUSH4 0x2030783 PUSH1 0xE4 SHL PUSH1 0x64 DUP3 ADD MSTORE PUSH1 0x84 SWAP1 REVERT JUMPDEST ADD MLOAD SWAP1 POP CODESIZE DUP1 PUSH3 0x188 JUMP JUMPDEST PUSH1 0x0 DUP15 DUP2 MSTORE PUSH1 0x20 DUP2 KECCAK256 SWAP4 POP PUSH1 0x1F NOT DUP6 AND SWAP1 JUMPDEST DUP2 DUP2 LT PUSH3 0x642 JUMPI POP SWAP1 DUP5 PUSH1 0x1 SWAP6 SWAP5 SWAP4 SWAP3 LT PUSH3 0x628 JUMPI JUMPDEST POP POP POP DUP2 SHL ADD DUP11 SSTORE PUSH3 0x19D JUMP JUMPDEST ADD MLOAD PUSH1 0x0 NOT PUSH1 0xF8 DUP5 PUSH1 0x3 SHL AND SHR NOT AND SWAP1 SSTORE CODESIZE DUP1 DUP1 PUSH3 0x61A JUMP JUMPDEST SWAP3 SWAP4 PUSH1 0x20 PUSH1 0x1 DUP2 SWAP3 DUP8 DUP7 ADD MLOAD DUP2 SSTORE ADD SWAP6 ADD SWAP4 ADD PUSH3 0x602 JUMP JUMPDEST SWAP1 SWAP2 SWAP3 POP DUP14 PUSH1 0x0 MSTORE PUSH1 0x20 PUSH1 0x0 KECCAK256 DUP4 DUP1 DUP7 ADD PUSH1 0x5 SHR DUP3 ADD SWAP3 PUSH1 0x20 DUP8 LT PUSH3 0x6AA JUMPI JUMPDEST SWAP5 DUP7 SWAP6 SWAP5 SWAP4 SWAP3 SWAP2 SWAP5 ADD PUSH1 0x5 SHR ADD SWAP1 JUMPDEST DUP2 DUP2 LT PUSH3 0x69A JUMPI POP PUSH3 0x171 JUMP JUMPDEST PUSH1 0x0 DUP2 SSTORE DUP6 SWAP5 POP PUSH1 0x1 ADD PUSH3 0x68B JUMP JUMPDEST SWAP3 POP DUP2 SWAP3 PUSH3 0x67C JUMP JUMPDEST PUSH1 0x22 DUP15 PUSH4 0x4E487B71 PUSH1 0xE0 SHL PUSH1 0x0 MSTORE MSTORE PUSH1 0x24 PUSH1 0x0 REVERT JUMPDEST SWAP1 PUSH1 0x7F AND SWAP1 PUSH3 0x15A JUMP JUMPDEST PUSH4 0x4E487B71 PUSH1 0xE0 SHL PUSH1 0x0 MSTORE PUSH1 0x41 PUSH1 0x4 MSTORE PUSH1 0x24 PUSH1 0x0 REVERT JUMPDEST ADD MLOAD SWAP1 POP CODESIZE DUP1 PUSH3 0x11E JUMP JUMPDEST PUSH1 0x3 PUSH1 0x0 SWAP1 DUP2 MSTORE SWAP4 POP PUSH32 0xC2575A0E9E593C00F959F8C92F12DB2869C3395A3B0502D05E2516446F71F85B SWAP2 SWAP1 JUMPDEST PUSH1 0x1F NOT DUP5 AND DUP6 LT PUSH3 0x769 JUMPI PUSH1 0x1 SWAP5 POP DUP4 PUSH1 0x1F NOT DUP2 AND LT PUSH3 0x74F JUMPI JUMPDEST POP POP POP DUP2 SHL ADD PUSH1 0x3 SSTORE PUSH3 0x134 JUMP JUMPDEST ADD MLOAD PUSH1 0x0 NOT PUSH1 0xF8 DUP5 PUSH1 0x3 SHL AND SHR NOT AND SWAP1 SSTORE CODESIZE DUP1 DUP1 PUSH3 0x740 JUMP JUMPDEST DUP2 DUP2 ADD MLOAD DUP4 SSTORE PUSH1 0x20 SWAP5 DUP6 ADD SWAP5 PUSH1 0x1 SWAP1 SWAP4 ADD SWAP3 SWAP1 SWAP2 ADD SWAP1 PUSH3 0x723 JUMP JUMPDEST SWAP1 SWAP2 POP PUSH1 0x3 PUSH1 0x0 MSTORE PUSH1 0x20 PUSH1 0x0 KECCAK256 DUP5 DUP1 DUP6 ADD PUSH1 0x5 SHR DUP3 ADD SWAP3 PUSH1 0x20 DUP7 LT PUSH3 0x7D2 JUMPI JUMPDEST SWAP1 DUP6 SWAP5 SWAP4 SWAP3 SWAP2 ADD PUSH1 0x5 SHR ADD SWAP1 JUMPDEST DUP2 DUP2 LT PUSH3 0x7C2 JUMPI POP PUSH3 0x106 JUMP JUMPDEST PUSH1 0x0 DUP2 SSTORE DUP5 SWAP4 POP PUSH1 0x1 ADD PUSH3 0x7B3 JUMP JUMPDEST SWAP3 POP DUP2 SWAP3 PUSH3 0x7A6 JUMP JUMPDEST PUSH4 0x4E487B71 PUSH1 0xE0 SHL PUSH1 0x0 MSTORE PUSH1 0x22 PUSH1 0x4 MSTORE PUSH1 0x24 PUSH1 0x0 REVERT JUMPDEST SWAP3 PUSH1 0x7F AND SWAP3 PUSH3 0xEE JUMP JUMPDEST PUSH1 0x0 DUP1 REVERT JUMPDEST PUSH1 0xA0 DUP2 ADD SWAP1 DUP2 LT PUSH1 0x1 PUSH1 0x1 PUSH1 0x40 SHL SUB DUP3 GT OR PUSH3 0x6D4 JUMPI PUSH1 0x40 MSTORE JUMP JUMPDEST PUSH1 0x1F SWAP1 SWAP2 ADD PUSH1 0x1F NOT AND DUP2 ADD SWAP1 PUSH1 0x1 PUSH1 0x1 PUSH1 0x40 SHL SUB DUP3 GT SWAP1 DUP3 LT OR PUSH3 0x6D4 JUMPI PUSH1 0x40 MSTORE JUMP JUMPDEST MLOAD SWAP1 PUSH1 0x1 PUSH1 0x1 PUSH1 0xA0 SHL SUB DUP3 AND DUP3 SUB PUSH3 0x7FD JUMPI JUMP JUMPDEST SWAP2 SWAP1 DUP1 PUSH1 0x1F DUP5 ADD SLT ISZERO PUSH3 0x7FD JUMPI DUP3 MLOAD SWAP1 PUSH1 0x1 PUSH1 0x1 PUSH1 0x40 SHL SUB DUP3 GT PUSH3 0x6D4 JUMPI PUSH1 0x40 MLOAD SWAP2 PUSH1 0x20 SWAP2 PUSH3 0x893 PUSH1 0x1F DUP4 ADD PUSH1 0x1F NOT AND DUP5 ADD DUP6 PUSH3 0x81E JUMP JUMPDEST DUP2 DUP5 MSTORE DUP3 DUP3 DUP8 ADD ADD GT PUSH3 0x7FD JUMPI PUSH1 0x0 JUMPDEST DUP2 DUP2 LT PUSH3 0x8BA JUMPI POP DUP3 PUSH1 0x0 SWAP4 SWAP5 SWAP6 POP ADD ADD MSTORE SWAP1 JUMP JUMPDEST DUP6 DUP2 ADD DUP4 ADD MLOAD DUP5 DUP3 ADD DUP5 ADD MSTORE DUP3 ADD PUSH3 0x8A4 JUMP JUMPDEST SWAP2 SWAP1 DUP3 ADD DUP1 SWAP3 GT PUSH3 0x8DC JUMPI JUMP JUMPDEST PUSH4 0x4E487B71 PUSH1 0xE0 SHL PUSH1 0x0 MSTORE PUSH1 0x11 PUSH1 0x4 MSTORE PUSH1 0x24 PUSH1 0x0 REVERT JUMPDEST PUSH1 0x6 SLOAD DUP2 LT ISZERO PUSH3 0x90E JUMPI PUSH1 0x6 PUSH1 0x0 MSTORE PUSH1 0x20 PUSH1 0x0 KECCAK256 ADD SWAP1 PUSH1 0x0 SWAP1 JUMP JUMPDEST PUSH4 0x4E487B71 PUSH1 0xE0 SHL PUSH1 0x0 MSTORE PUSH1 0x32 PUSH1 0x4 MSTORE PUSH1 0x24 PUSH1 0x0 REVERT JUMPDEST DUP1 SLOAD DUP3 LT ISZERO PUSH3 0x90E JUMPI PUSH1 0x0 MSTORE PUSH1 0x20 PUSH1 0x0 KECCAK256 ADD SWAP1 PUSH1 0x0 SWAP1 JUMP JUMPDEST SWAP1 DUP2 SLOAD SWAP2 PUSH9 0x10000000000000000 DUP4 LT ISZERO PUSH3 0x6D4 JUMPI DUP3 PUSH3 0x41C SWAP2 PUSH1 0x1 PUSH3 0x969 SWAP6 ADD DUP2 SSTORE PUSH3 0x924 JUMP JUMPDEST JUMP JUMPDEST SWAP2 SWAP1 DUP3 SUB SWAP2 DUP3 GT PUSH3 0x8DC JUMPI JUMP JUMPDEST PUSH1 0x6 SLOAD DUP1 PUSH3 0x988 JUMPI POP PUSH1 0x0 SWAP1 JUMP JUMPDEST PUSH1 0x0 NOT DUP2 ADD SWAP1 DUP2 GT PUSH3 0x8DC JUMPI PUSH3 0x9A0 SWAP1 PUSH3 0x8F2 JUMP JUMPDEST SWAP1 SLOAD SWAP1 PUSH1 0x3 SHL SHR SWAP1 JUMP JUMPDEST DUP1 SLOAD DUP1 PUSH3 0x9B9 JUMPI POP POP PUSH1 0x0 SWAP1 JUMP JUMPDEST PUSH1 0x0 NOT DUP2 ADD SWAP1 DUP2 GT PUSH3 0x8DC JUMPI PUSH3 0x9A0 SWAP2 PUSH3 0x924 JUMP JUMPDEST PUSH1 0x0 NOT DUP2 EQ PUSH3 0x8DC JUMPI PUSH1 0x1 ADD SWAP1 JUMP JUMPDEST PUSH3 0x9ED DUP3 DUP3 PUSH3 0xB0F JUMP JUMPDEST SWAP1 PUSH1 0x40 PUSH1 0x60 DUP4 ADD MLOAD SWAP3 ADD MLOAD DUP3 GT ISZERO PUSH1 0x0 EQ PUSH3 0xA0B JUMPI POP POP POP PUSH1 0x0 SWAP1 JUMP JUMPDEST PUSH3 0xA22 SWAP3 PUSH3 0xA1B SWAP2 PUSH3 0xA25 JUMP JUMPDEST SWAP1 PUSH3 0x96B JUMP JUMPDEST SWAP1 JUMP JUMPDEST SWAP1 PUSH3 0xA31 SWAP2 PUSH3 0xB0F JUMP JUMPDEST PUSH1 0x20 DUP2 ADD MLOAD PUSH1 0x60 DUP3 ADD MLOAD SWAP2 MLOAD PUSH1 0xC SLOAD DUP2 LT ISZERO PUSH3 0x90E JUMPI PUSH1 0xC PUSH1 0x0 MSTORE PUSH1 0x40 MLOAD PUSH1 0x80 DUP2 ADD SWAP3 PUSH1 0x2 SWAP3 SWAP1 SWAP3 SHL PUSH32 0xDF6966C971051C3D54EC59162606531493A51404A002842F56009D7E5CF4A8C7 ADD SWAP2 PUSH1 0x1 PUSH1 0x1 PUSH1 0x40 SHL SUB DUP5 GT DUP3 DUP6 LT OR PUSH3 0x6D4 JUMPI PUSH3 0xA22 SWAP5 PUSH1 0x60 SWAP5 PUSH1 0x40 MSTORE DUP4 SLOAD SWAP2 DUP3 DUP5 MSTORE PUSH1 0x1 DUP6 ADD SLOAD SWAP4 DUP5 PUSH1 0x20 DUP3 ADD MSTORE PUSH1 0x3 PUSH1 0x2 DUP8 ADD SLOAD SWAP7 DUP8 PUSH1 0x40 DUP5 ADD MSTORE ADD SLOAD SWAP7 DUP8 SWAP2 ADD MSTORE TIMESTAMP SWAP1 PUSH3 0xC35 JUMP JUMPDEST PUSH3 0xAD7 DUP3 DUP3 PUSH3 0xB0F JUMP JUMPDEST SWAP1 PUSH1 0x40 PUSH1 0x60 DUP4 ADD MLOAD SWAP3 ADD SWAP2 DUP3 MLOAD LT ISZERO PUSH1 0x0 EQ PUSH3 0xAF6 JUMPI POP POP POP PUSH1 0x0 SWAP1 JUMP JUMPDEST PUSH3 0xA22 SWAP3 PUSH3 0xB06 SWAP2 PUSH3 0xA25 JUMP JUMPDEST SWAP1 MLOAD SWAP1 PUSH3 0x96B JUMP JUMPDEST PUSH1 0x40 DUP1 MLOAD PUSH3 0xB1E DUP2 PUSH3 0x802 JUMP JUMPDEST PUSH1 0x0 SWAP4 DUP5 DUP3 MSTORE PUSH1 0x60 PUSH1 0x80 PUSH1 0x20 SWAP4 DUP8 DUP6 DUP3 ADD MSTORE DUP8 DUP7 DUP3 ADD MSTORE DUP8 DUP4 DUP3 ADD MSTORE ADD MSTORE PUSH1 0x1 DUP1 PUSH1 0xA0 SHL SUB DUP1 SWAP5 AND DUP6 MSTORE PUSH1 0xD DUP3 MSTORE DUP3 DUP6 KECCAK256 DUP1 SLOAD DUP3 LT ISZERO PUSH3 0xBEC JUMPI DUP6 MSTORE DUP2 DUP6 KECCAK256 DUP4 MLOAD SWAP6 SWAP4 SWAP2 PUSH1 0x5 MUL ADD PUSH3 0xB72 DUP7 PUSH3 0x802 JUMP JUMPDEST DUP1 SLOAD DUP7 MSTORE PUSH1 0x4 PUSH1 0x1 SWAP2 DUP3 DUP2 ADD SLOAD DUP6 DUP10 ADD MSTORE PUSH1 0x2 DUP2 ADD SLOAD DUP5 DUP10 ADD MSTORE PUSH1 0x3 DUP2 ADD SLOAD PUSH1 0x60 DUP10 ADD MSTORE ADD SWAP2 MLOAD DUP1 SWAP6 DUP5 DUP8 SWAP6 DUP6 SLOAD SWAP4 DUP5 DUP2 MSTORE ADD SWAP5 DUP8 MSTORE DUP1 DUP8 KECCAK256 SWAP7 SWAP2 JUMPDEST DUP4 DUP4 LT PUSH3 0xBD1 JUMPI POP POP POP POP POP PUSH3 0xBC9 SWAP3 POP SUB DUP3 PUSH3 0x81E JUMP JUMPDEST PUSH1 0x80 DUP3 ADD MSTORE SWAP1 JUMP JUMPDEST DUP8 SLOAD DUP2 AND DUP7 MSTORE SWAP7 DUP5 ADD SWAP7 DUP9 SWAP7 POP SWAP5 DUP2 ADD SWAP5 SWAP2 DUP5 ADD SWAP2 PUSH3 0xBAE JUMP JUMPDEST PUSH4 0x4E487B71 PUSH1 0xE0 SHL DUP7 MSTORE PUSH1 0x32 PUSH1 0x4 MSTORE PUSH1 0x24 DUP7 REVERT JUMPDEST DUP2 DUP2 MUL SWAP3 SWAP2 DUP2 ISZERO SWAP2 DUP5 DIV EQ OR ISZERO PUSH3 0x8DC JUMPI JUMP JUMPDEST DUP2 ISZERO PUSH3 0xC1F JUMPI DIV SWAP1 JUMP JUMPDEST PUSH4 0x4E487B71 PUSH1 0xE0 SHL PUSH1 0x0 MSTORE PUSH1 0x12 PUSH1 0x4 MSTORE PUSH1 0x24 PUSH1 0x0 REVERT JUMPDEST SWAP6 SWAP2 SWAP3 SWAP4 SWAP1 PUSH1 0x0 SWAP7 DUP2 DUP2 GT PUSH3 0xD11 JUMPI PUSH3 0xC50 SWAP2 PUSH3 0x96B JUMP JUMPDEST SWAP5 PUSH1 0x0 NOT DUP6 ADD SWAP5 DUP6 GT PUSH3 0x8DC JUMPI PUSH3 0xC75 PUSH3 0xC6E DUP7 DUP6 PUSH3 0xC00 JUMP JUMPDEST DUP4 PUSH3 0x8CE JUMP JUMPDEST DUP7 LT ISZERO PUSH3 0xD07 JUMPI DUP2 DUP7 LT ISZERO PUSH3 0xC90 JUMPI JUMPDEST POP POP POP POP POP POP SWAP1 JUMP JUMPDEST DUP4 SWAP5 SWAP6 SWAP7 POP PUSH3 0xCA6 SWAP1 PUSH2 0x2710 SWAP3 SWAP4 SWAP5 PUSH3 0xC00 JUMP JUMPDEST DIV SWAP5 DUP3 PUSH3 0xCB5 DUP4 DUP4 PUSH3 0x96B JUMP JUMPDEST LT ISZERO PUSH3 0xCC4 JUMPI JUMPDEST DUP1 PUSH3 0xC87 JUMP JUMPDEST SWAP3 PUSH3 0xCF6 DUP7 PUSH3 0xCEF PUSH3 0xCFC SWAP9 SWAP8 SWAP6 PUSH3 0xCE9 PUSH3 0xCE9 SWAP7 PUSH3 0x27B SWAP10 PUSH3 0x96B JUMP JUMPDEST PUSH3 0xC14 JUMP JUMPDEST SWAP3 PUSH3 0x96B JUMP JUMPDEST PUSH3 0xC00 JUMP JUMPDEST CODESIZE DUP1 DUP1 DUP1 DUP1 PUSH3 0xCBD JUMP JUMPDEST POP POP POP SWAP3 POP POP POP SWAP1 JUMP JUMPDEST POP POP POP POP POP POP POP POP PUSH1 0x0 SWAP1 JUMP INVALID PUSH1 0x80 DUP1 PUSH1 0x40 MSTORE PUSH1 0x4 CALLDATASIZE LT ISZERO PUSH2 0x13 JUMPI PUSH1 0x0 DUP1 REVERT JUMPDEST PUSH1 0x0 CALLDATALOAD PUSH1 0xE0 SHR SWAP1 DUP2 PUSH4 0x6FDDE03 EQ PUSH2 0x29DC JUMPI POP DUP1 PUSH4 0x77D3C03 EQ PUSH2 0x2860 JUMPI DUP1 PUSH4 0x95EA7B3 EQ PUSH2 0x283A JUMPI DUP1 PUSH4 0xC815103 EQ PUSH2 0x2813 JUMPI DUP1 PUSH4 0xF8AD1B4 EQ PUSH2 0x24F0 JUMPI DUP1 PUSH4 0x14CF86EB EQ PUSH2 0x24B5 JUMPI DUP1 PUSH4 0x18160DDD EQ PUSH2 0x2497 JUMPI DUP1 PUSH4 0x21BB56D7 EQ PUSH2 0x2273 JUMPI DUP1 PUSH4 0x23B872DD EQ PUSH2 0x20A5 JUMPI DUP1 PUSH4 0x2AB4D052 EQ PUSH2 0x2087 JUMPI DUP1 PUSH4 0x2BEAFC89 EQ PUSH2 0x2070 JUMPI DUP1 PUSH4 0x313CE567 EQ PUSH2 0x204F JUMPI DUP1 PUSH4 0x32424AA3 EQ PUSH2 0x204F JUMPI DUP1 PUSH4 0x350724A9 EQ PUSH2 0x2015 JUMPI DUP1 PUSH4 0x370DE043 EQ PUSH2 0x1FDA JUMPI DUP1 PUSH4 0x39509351 EQ PUSH2 0x1F89 JUMPI DUP1 PUSH4 0x3C637D74 EQ PUSH2 0x1F4F JUMPI DUP1 PUSH4 0x3E840236 EQ PUSH2 0x1E56 JUMPI DUP1 PUSH4 0x3F4BA83A EQ PUSH2 0x1E0F JUMPI DUP1 PUSH4 0x40C10F19 EQ PUSH2 0x1CCE JUMPI DUP1 PUSH4 0x40DC95C5 EQ PUSH2 0x1C61 JUMPI DUP1 PUSH4 0x45D11299 EQ PUSH2 0x1B8F JUMPI DUP1 PUSH4 0x4EE2CD7E EQ PUSH2 0x1B32 JUMPI DUP1 PUSH4 0x5439AD86 EQ PUSH2 0x1B14 JUMPI DUP1 PUSH4 0x5F7C5377 EQ PUSH2 0x1ABC JUMPI DUP1 PUSH4 0x64CA0AC3 EQ PUSH2 0x1A59 JUMPI DUP1 PUSH4 0x6968F8B3 EQ PUSH2 0x1A29 JUMPI DUP1 PUSH4 0x6AEA0D2E EQ PUSH2 0x1A02 JUMPI DUP1 PUSH4 0x70A08231 EQ PUSH2 0x19DF JUMPI DUP1 PUSH4 0x7D7B368B EQ PUSH2 0x19B8 JUMPI DUP1 PUSH4 0x7F4AB1DD EQ PUSH2 0x198E JUMPI DUP1 PUSH4 0x82074AC2 EQ PUSH2 0x18EE JUMPI DUP1 PUSH4 0x8456CB59 EQ PUSH2 0x18A4 JUMPI DUP1 PUSH4 0x84955C88 EQ PUSH2 0x185F JUMPI DUP1 PUSH4 0x8B9D6899 EQ PUSH2 0x183C JUMPI DUP1 PUSH4 0x8D56CC9C EQ PUSH2 0x17D4 JUMPI DUP1 PUSH4 0x8E4F11FF EQ PUSH2 0x143D JUMPI DUP1 PUSH4 0x8E64EAC5 EQ PUSH2 0x141C JUMPI DUP1 PUSH4 0x90FC7E91 EQ PUSH2 0x13EC JUMPI DUP1 PUSH4 0x95A8C58D EQ PUSH2 0x13C0 JUMPI DUP1 PUSH4 0x95D89B41 EQ PUSH2 0x12DA JUMPI DUP1 PUSH4 0x96305C89 EQ PUSH2 0x12BE JUMPI DUP1 PUSH4 0x9711715A EQ PUSH2 0x125F JUMPI DUP1 PUSH4 0x981B24D0 EQ PUSH2 0x1227 JUMPI DUP1 PUSH4 0x9DC29FAC EQ PUSH2 0x1093 JUMPI DUP1 PUSH4 0xA457C2D7 EQ PUSH2 0xFEC JUMPI DUP1 PUSH4 0xA742C88E EQ PUSH2 0xFC9 JUMPI DUP1 PUSH4 0xA9059CBB EQ PUSH2 0xF79 JUMPI DUP1 PUSH4 0xA9B1F051 EQ PUSH2 0xF09 JUMPI DUP1 PUSH4 0xAD061E25 EQ PUSH2 0xEE2 JUMPI DUP1 PUSH4 0xB187BD26 EQ PUSH2 0xEBF JUMPI DUP1 PUSH4 0xB30BFA3D EQ PUSH2 0xE85 JUMPI DUP1 PUSH4 0xB7ED4785 EQ PUSH2 0x800 JUMPI DUP1 PUSH4 0xB7EF81E1 EQ PUSH2 0x7E2 JUMPI DUP1 PUSH4 0xBF120AE5 EQ PUSH2 0x6D8 JUMPI DUP1 PUSH4 0xC63AA521 EQ PUSH2 0x69E JUMPI DUP1 PUSH4 0xCECA46C2 EQ PUSH2 0x671 JUMPI DUP1 PUSH4 0xD4CE1415 EQ PUSH2 0x64D JUMPI DUP1 PUSH4 0xDB74FA36 EQ PUSH2 0x613 JUMPI DUP1 PUSH4 0xDD62ED3E EQ PUSH2 0x5C2 JUMPI DUP1 PUSH4 0xDFB7300E EQ PUSH2 0x521 JUMPI DUP1 PUSH4 0xE98A0C64 EQ PUSH2 0x4AC JUMPI DUP1 PUSH4 0xEA612AE8 EQ PUSH2 0x428 JUMPI DUP1 PUSH4 0xF0658198 EQ PUSH2 0x3F9 JUMPI DUP1 PUSH4 0xFBC6D1CB EQ PUSH2 0x339 JUMPI PUSH4 0xFC96F7D8 EQ PUSH2 0x2F5 JUMPI PUSH1 0x0 DUP1 REVERT JUMPDEST CALLVALUE PUSH2 0x334 JUMPI PUSH1 0x20 CALLDATASIZE PUSH1 0x3 NOT ADD SLT PUSH2 0x334 JUMPI PUSH1 0x1 PUSH1 0x1 PUSH1 0xA0 SHL SUB PUSH2 0x316 PUSH2 0x2ACB JUMP JUMPDEST AND PUSH1 0x0 MSTORE PUSH1 0x14 PUSH1 0x20 MSTORE PUSH1 0x20 PUSH1 0xFF PUSH1 0x40 PUSH1 0x0 KECCAK256 SLOAD AND PUSH1 0x40 MLOAD SWAP1 ISZERO ISZERO DUP2 MSTORE RETURN JUMPDEST PUSH1 0x0 DUP1 REVERT JUMPDEST CALLVALUE PUSH2 0x334 JUMPI PUSH1 0x40 CALLDATASIZE PUSH1 0x3 NOT ADD SLT PUSH2 0x334 JUMPI PUSH2 0x352 PUSH2 0x2ACB JUMP JUMPDEST PUSH1 0x24 CALLDATALOAD DUP1 ISZERO DUP1 ISZERO PUSH2 0x3CF JUMPI JUMPDEST ISZERO PUSH2 0x36F JUMPI PUSH2 0x36D SWAP2 CALLER PUSH2 0x2CC2 JUMP JUMPDEST STOP JUMPDEST PUSH1 0x40 MLOAD PUSH3 0x461BCD PUSH1 0xE5 SHL DUP2 MSTORE PUSH1 0x20 PUSH1 0x4 DUP3 ADD MSTORE PUSH1 0x32 PUSH1 0x24 DUP3 ADD MSTORE PUSH32 0x43616E6E6F7420617070726F76652066726F6D206E6F6E2D7A65726F20746F20 PUSH1 0x44 DUP3 ADD MSTORE PUSH18 0x6E6F6E2D7A65726F20616C6C6F77616E6365 PUSH1 0x70 SHL PUSH1 0x64 DUP3 ADD MSTORE PUSH1 0x84 SWAP1 REVERT JUMPDEST POP CALLER PUSH1 0x0 MSTORE PUSH1 0x1 PUSH1 0x20 MSTORE PUSH1 0x40 PUSH1 0x0 KECCAK256 PUSH1 0x1 DUP1 PUSH1 0xA0 SHL SUB DUP4 AND PUSH1 0x0 MSTORE PUSH1 0x20 MSTORE PUSH1 0x40 PUSH1 0x0 KECCAK256 SLOAD ISZERO PUSH2 0x35E JUMP JUMPDEST CALLVALUE PUSH2 0x334 JUMPI PUSH1 0x40 CALLDATASIZE PUSH1 0x3 NOT ADD SLT PUSH2 0x334 JUMPI PUSH1 0x20 PUSH2 0x420 PUSH2 0x417 PUSH2 0x2ACB JUMP JUMPDEST PUSH1 0x24 CALLDATALOAD SWAP1 PUSH2 0x35A7 JUMP JUMPDEST PUSH1 0x40 MLOAD SWAP1 DUP2 MSTORE RETURN JUMPDEST CALLVALUE PUSH2 0x334 JUMPI PUSH1 0x40 CALLDATASIZE PUSH1 0x3 NOT ADD SLT PUSH2 0x334 JUMPI PUSH2 0x441 PUSH2 0x2ACB JUMP JUMPDEST PUSH1 0x1 PUSH1 0x1 PUSH1 0xA0 SHL SUB AND PUSH1 0x0 SWAP1 DUP2 MSTORE PUSH1 0xD PUSH1 0x20 MSTORE PUSH1 0x40 SWAP1 KECCAK256 DUP1 SLOAD PUSH1 0x24 CALLDATALOAD SWAP1 DUP2 LT ISZERO PUSH2 0x334 JUMPI PUSH2 0x46E SWAP2 PUSH2 0x2C99 JUMP JUMPDEST POP DUP1 SLOAD PUSH2 0x4A8 PUSH1 0x1 DUP4 ADD SLOAD SWAP3 PUSH1 0x3 PUSH1 0x2 DUP3 ADD SLOAD SWAP2 ADD SLOAD SWAP1 PUSH1 0x40 MLOAD SWAP5 DUP6 SWAP5 DUP6 SWAP1 SWAP5 SWAP4 SWAP3 PUSH1 0x60 SWAP3 PUSH1 0x80 DUP4 ADD SWAP7 DUP4 MSTORE PUSH1 0x20 DUP4 ADD MSTORE PUSH1 0x40 DUP3 ADD MSTORE ADD MSTORE JUMP JUMPDEST SUB SWAP1 RETURN JUMPDEST CALLVALUE PUSH2 0x334 JUMPI PUSH1 0x60 CALLDATASIZE PUSH1 0x3 NOT ADD SLT PUSH2 0x334 JUMPI PUSH1 0x24 CALLDATALOAD PUSH1 0x4 CALLDATALOAD PUSH1 0x44 CALLDATALOAD PUSH2 0x4D7 PUSH2 0x4D2 CALLER PUSH2 0x3206 JUMP JUMPDEST PUSH2 0x3F94 JUMP JUMPDEST DUP2 PUSH1 0x0 MSTORE PUSH1 0x13 PUSH1 0x20 MSTORE PUSH1 0x40 PUSH1 0x0 KECCAK256 DUP4 PUSH1 0x0 MSTORE PUSH1 0x20 MSTORE DUP1 PUSH1 0x40 PUSH1 0x0 KECCAK256 SSTORE PUSH1 0x40 MLOAD SWAP1 DUP2 MSTORE PUSH32 0x5845E315015EE03F0D4AB1D198172B4F733609DC3DE8B957AE1D86C874030189 PUSH1 0x20 CALLER SWAP3 LOG4 STOP JUMPDEST CALLVALUE PUSH2 0x334 JUMPI PUSH1 0x20 CALLDATASIZE PUSH1 0x3 NOT ADD SLT PUSH2 0x334 JUMPI PUSH1 0x4 CALLDATALOAD PUSH1 0x1 PUSH1 0x1 PUSH1 0xA0 SHL SUB DUP2 DUP2 AND SWAP2 DUP3 DUP2 SUB PUSH2 0x334 JUMPI PUSH32 0x8C78349FC44ADD47AE711DDC6E926B7845597C57473E587420693D8D0547845A SWAP3 PUSH1 0x60 SWAP3 PUSH2 0x579 PUSH2 0x4D2 CALLER PUSH2 0x3206 JUMP JUMPDEST PUSH2 0x584 DUP3 ISZERO ISZERO PUSH2 0x309F JUMP JUMPDEST PUSH1 0xF DUP1 SLOAD PUSH2 0x100 PUSH1 0x1 PUSH1 0xA8 SHL SUB NOT DUP2 AND PUSH1 0x8 SWAP6 DUP7 SHL PUSH2 0x100 PUSH1 0x1 PUSH1 0xA8 SHL SUB AND OR SWAP1 SWAP2 SSTORE PUSH1 0x40 DUP1 MLOAD CALLER DUP2 MSTORE SWAP2 SWAP1 SWAP5 SHR SWAP2 SWAP1 SWAP2 AND PUSH1 0x20 DUP3 ADD MSTORE SWAP2 DUP3 ADD MSTORE LOG1 STOP JUMPDEST CALLVALUE PUSH2 0x334 JUMPI PUSH1 0x40 CALLDATASIZE PUSH1 0x3 NOT ADD SLT PUSH2 0x334 JUMPI PUSH2 0x5DB PUSH2 0x2ACB JUMP JUMPDEST PUSH2 0x5E3 PUSH2 0x2AE1 JUMP JUMPDEST SWAP1 PUSH1 0x1 DUP1 PUSH1 0xA0 SHL SUB DUP1 SWAP2 AND PUSH1 0x0 MSTORE PUSH1 0x1 PUSH1 0x20 MSTORE PUSH1 0x40 PUSH1 0x0 KECCAK256 SWAP2 AND PUSH1 0x0 MSTORE PUSH1 0x20 MSTORE PUSH1 0x20 PUSH1 0x40 PUSH1 0x0 KECCAK256 SLOAD PUSH1 0x40 MLOAD SWAP1 DUP2 MSTORE RETURN JUMPDEST CALLVALUE PUSH2 0x334 JUMPI PUSH1 0x20 CALLDATASIZE PUSH1 0x3 NOT ADD SLT PUSH2 0x334 JUMPI PUSH1 0x1 PUSH1 0x1 PUSH1 0xA0 SHL SUB PUSH2 0x634 PUSH2 0x2ACB JUMP JUMPDEST AND PUSH1 0x0 MSTORE PUSH1 0x12 PUSH1 0x20 MSTORE PUSH1 0x20 PUSH1 0x40 PUSH1 0x0 KECCAK256 SLOAD PUSH1 0x40 MLOAD SWAP1 DUP2 MSTORE RETURN JUMPDEST CALLVALUE PUSH2 0x334 JUMPI PUSH1 0x20 PUSH2 0x666 PUSH2 0x660 CALLDATASIZE PUSH2 0x2B25 JUMP JUMPDEST SWAP2 PUSH2 0x3E2D JUMP JUMPDEST PUSH1 0xFF PUSH1 0x40 MLOAD SWAP2 AND DUP2 MSTORE RETURN JUMPDEST CALLVALUE PUSH2 0x334 JUMPI PUSH1 0x0 CALLDATASIZE PUSH1 0x3 NOT ADD SLT PUSH2 0x334 JUMPI PUSH1 0xF SLOAD PUSH1 0x40 MLOAD PUSH1 0x8 SWAP2 SWAP1 SWAP2 SHR PUSH1 0x1 PUSH1 0x1 PUSH1 0xA0 SHL SUB AND DUP2 MSTORE PUSH1 0x20 SWAP1 RETURN JUMPDEST CALLVALUE PUSH2 0x334 JUMPI PUSH1 0x20 CALLDATASIZE PUSH1 0x3 NOT ADD SLT PUSH2 0x334 JUMPI PUSH1 0x1 PUSH1 0x1 PUSH1 0xA0 SHL SUB PUSH2 0x6BF PUSH2 0x2ACB JUMP JUMPDEST AND PUSH1 0x0 MSTORE PUSH1 0x11 PUSH1 0x20 MSTORE PUSH1 0x20 PUSH1 0x40 PUSH1 0x0 KECCAK256 SLOAD PUSH1 0x40 MLOAD SWAP1 DUP2 MSTORE RETURN JUMPDEST CALLVALUE PUSH2 0x334 JUMPI PUSH1 0x40 CALLDATASIZE PUSH1 0x3 NOT ADD SLT PUSH2 0x334 JUMPI PUSH2 0x6F1 PUSH2 0x2ACB JUMP JUMPDEST PUSH1 0x24 CALLDATALOAD DUP1 ISZERO ISZERO SWAP2 DUP3 DUP3 SUB PUSH2 0x334 JUMPI PUSH1 0x1 PUSH1 0x1 PUSH1 0xA0 SHL SUB AND SWAP1 PUSH2 0x714 DUP3 ISZERO ISZERO PUSH2 0x309F JUMP JUMPDEST PUSH2 0x71D CALLER PUSH2 0x31DC JUMP JUMPDEST DUP1 ISZERO PUSH2 0x7D3 JUMPI JUMPDEST ISZERO PUSH2 0x774 JUMPI PUSH2 0x74C SWAP1 DUP3 PUSH1 0x0 MSTORE PUSH1 0x14 PUSH1 0x20 MSTORE PUSH1 0x40 PUSH1 0x0 KECCAK256 SWAP1 PUSH1 0xFF DUP1 NOT DUP4 SLOAD AND SWAP2 ISZERO ISZERO AND OR SWAP1 SSTORE JUMP JUMPDEST CALLER PUSH32 0x17EC2643977F0865DD45350E9EFDCDFEAD258C9220974E67D1A37CA144772293 PUSH1 0x0 DUP1 LOG4 STOP JUMPDEST PUSH1 0x40 MLOAD PUSH3 0x461BCD PUSH1 0xE5 SHL DUP2 MSTORE PUSH1 0x20 PUSH1 0x4 DUP3 ADD MSTORE PUSH1 0x31 PUSH1 0x24 DUP3 ADD MSTORE PUSH32 0x444F4553204E4F5420484156452057414C4C4554532041444D494E204F522052 PUSH1 0x44 DUP3 ADD MSTORE PUSH17 0x4553455256452041444D494E20524F4C45 PUSH1 0x78 SHL PUSH1 0x64 DUP3 ADD MSTORE PUSH1 0x84 SWAP1 REVERT JUMPDEST POP PUSH2 0x7DD CALLER PUSH2 0x31B2 JUMP JUMPDEST PUSH2 0x724 JUMP JUMPDEST CALLVALUE PUSH2 0x334 JUMPI PUSH1 0x0 CALLDATASIZE PUSH1 0x3 NOT ADD SLT PUSH2 0x334 JUMPI PUSH1 0x20 PUSH1 0xC SLOAD PUSH1 0x40 MLOAD SWAP1 DUP2 MSTORE RETURN JUMPDEST CALLVALUE PUSH2 0x334 JUMPI PUSH1 0xA0 CALLDATASIZE PUSH1 0x3 NOT ADD SLT PUSH2 0x334 JUMPI PUSH1 0x4 CALLDATALOAD PUSH1 0x1 PUSH1 0x1 PUSH1 0x40 SHL SUB DUP2 GT PUSH2 0x334 JUMPI PUSH2 0x830 SWAP1 CALLDATASIZE SWAP1 PUSH1 0x4 ADD PUSH2 0x2C69 JUMP JUMPDEST SWAP1 PUSH1 0x24 CALLDATALOAD PUSH1 0x1 PUSH1 0x1 PUSH1 0x40 SHL SUB DUP2 GT PUSH2 0x334 JUMPI PUSH2 0x850 SWAP1 CALLDATASIZE SWAP1 PUSH1 0x4 ADD PUSH2 0x2C69 JUMP JUMPDEST SWAP3 SWAP1 PUSH1 0x44 CALLDATALOAD PUSH1 0x1 PUSH1 0x1 PUSH1 0x40 SHL SUB DUP2 GT PUSH2 0x334 JUMPI PUSH2 0x871 SWAP1 CALLDATASIZE SWAP1 PUSH1 0x4 ADD PUSH2 0x2C69 JUMP JUMPDEST SWAP1 SWAP5 SWAP1 SWAP3 SWAP1 PUSH1 0x64 CALLDATALOAD PUSH1 0x1 PUSH1 0x1 PUSH1 0x40 SHL SUB DUP2 GT PUSH2 0x334 JUMPI PUSH2 0x895 SWAP1 CALLDATASIZE SWAP1 PUSH1 0x4 ADD PUSH2 0x2C69 JUMP JUMPDEST SWAP1 SWAP4 SWAP1 SWAP3 SWAP1 PUSH1 0x84 CALLDATALOAD PUSH1 0x1 PUSH1 0x1 PUSH1 0x40 SHL SUB DUP2 GT PUSH2 0x334 JUMPI PUSH2 0x8B9 SWAP1 CALLDATASIZE SWAP1 PUSH1 0x4 ADD PUSH2 0x2C69 JUMP JUMPDEST SWAP7 SWAP1 SWAP3 PUSH2 0x8C7 DUP6 DUP3 EQ PUSH2 0x3517 JUMP JUMPDEST PUSH2 0x8D2 DUP3 DUP3 EQ PUSH2 0x3517 JUMP JUMPDEST PUSH2 0x8DD DUP7 DUP3 EQ PUSH2 0x3517 JUMP JUMPDEST PUSH1 0x0 JUMPDEST DUP2 DUP2 LT PUSH2 0x8F2 JUMPI PUSH1 0x20 PUSH1 0x40 MLOAD PUSH1 0x1 DUP2 MSTORE RETURN JUMPDEST PUSH2 0x8FD DUP2 DUP4 DUP13 PUSH2 0x355D JUMP JUMPDEST CALLDATALOAD PUSH1 0x1 PUSH1 0x1 PUSH1 0xA0 SHL SUB DUP2 AND DUP2 SUB PUSH2 0x334 JUMPI DUP12 PUSH2 0x926 DUP4 DUP7 PUSH2 0x91F DUP3 DUP13 DUP12 PUSH2 0x355D JUMP JUMPDEST CALLDATALOAD SWAP4 PUSH2 0x355D JUMP JUMPDEST CALLDATALOAD SWAP1 PUSH2 0x933 DUP5 DUP12 DUP14 PUSH2 0x355D JUMP JUMPDEST CALLDATALOAD SWAP3 PUSH2 0x940 CALLDATASIZE DUP15 DUP12 PUSH2 0x2C03 JUMP JUMPDEST SWAP2 PUSH1 0x2 PUSH1 0xB SLOAD EQ PUSH2 0xE40 JUMPI PUSH1 0x2 PUSH1 0xB SSTORE PUSH1 0xA DUP4 MLOAD GT PUSH2 0xDFB JUMPI PUSH32 0x0 DUP2 LT PUSH2 0xDBF JUMPI PUSH1 0x1 PUSH1 0x1 PUSH1 0xA0 SHL SUB DUP3 AND ISZERO PUSH2 0xD8B JUMPI PUSH1 0xC SLOAD DUP6 LT ISZERO PUSH2 0xD55 JUMPI PUSH2 0x9A2 DUP6 PUSH2 0x2BCE JUMP JUMPDEST POP SLOAD DUP2 LT PUSH2 0xD18 JUMPI PUSH2 0x9B4 DUP2 ADDRESS PUSH2 0x3673 JUMP JUMPDEST POP PUSH2 0x9CC PUSH1 0x1 PUSH2 0x9C3 DUP8 PUSH2 0x2BCE JUMP JUMPDEST POP ADD SLOAD DUP6 PUSH2 0x2CB5 JUMP JUMPDEST PUSH2 0x9F6 PUSH32 0x0 TIMESTAMP PUSH2 0x2CB5 JUMP JUMPDEST LT PUSH2 0xCD4 JUMPI PUSH2 0xA03 PUSH2 0x328E JUMP JUMPDEST DUP6 DUP2 MSTORE DUP5 PUSH1 0x20 DUP3 ADD MSTORE DUP2 PUSH1 0x60 DUP3 ADD MSTORE PUSH1 0x1 DUP1 PUSH1 0xA0 SHL SUB DUP4 AND PUSH1 0x0 MSTORE PUSH1 0xD PUSH1 0x20 MSTORE PUSH1 0x40 PUSH1 0x0 KECCAK256 DUP1 SLOAD PUSH1 0x1 PUSH1 0x40 SHL DUP2 LT ISZERO PUSH2 0xC48 JUMPI PUSH2 0xA45 SWAP2 PUSH1 0x1 DUP3 ADD DUP2 SSTORE PUSH2 0x2C99 JUMP JUMPDEST SWAP2 SWAP1 SWAP2 PUSH2 0xCBE JUMPI DUP1 MLOAD DUP3 SSTORE PUSH1 0x20 DUP2 ADD MLOAD PUSH1 0x1 DUP4 ADD SSTORE PUSH1 0x40 DUP2 ADD MLOAD PUSH1 0x2 DUP4 ADD SSTORE PUSH1 0x60 DUP2 ADD MLOAD PUSH1 0x3 DUP4 ADD SSTORE PUSH1 0x80 ADD MLOAD DUP1 MLOAD SWAP2 SWAP1 PUSH1 0x1 PUSH1 0x1 PUSH1 0x40 SHL SUB DUP4 GT PUSH2 0xC48 JUMPI PUSH1 0x1 PUSH1 0x40 SHL DUP4 GT PUSH2 0xC48 JUMPI PUSH1 0x4 DUP3 ADD SLOAD DUP4 PUSH1 0x4 DUP5 ADD SSTORE DUP1 DUP5 LT PUSH2 0xC91 JUMPI JUMPDEST POP PUSH1 0x20 PUSH1 0x4 SWAP2 ADD SWAP2 ADD PUSH1 0x0 MSTORE PUSH1 0x20 PUSH1 0x0 KECCAK256 PUSH1 0x0 JUMPDEST DUP4 DUP2 LT PUSH2 0xC74 JUMPI POP POP POP POP PUSH1 0x1 PUSH1 0x1 PUSH1 0xA0 SHL SUB DUP3 AND PUSH1 0x0 SWAP1 DUP2 MSTORE PUSH1 0xD PUSH1 0x20 MSTORE PUSH1 0x40 SWAP1 KECCAK256 SLOAD PUSH1 0x0 NOT DUP2 ADD DUP2 LT PUSH2 0xC5E JUMPI DUP4 MLOAD PUSH2 0xB83 JUMPI JUMPDEST PUSH1 0x40 MLOAD SWAP5 PUSH1 0x80 DUP7 ADD SWAP3 DUP7 MSTORE PUSH1 0x20 DUP7 ADD MSTORE PUSH1 0x0 NOT ADD PUSH1 0x40 DUP6 ADD MSTORE PUSH1 0x80 PUSH1 0x60 DUP6 ADD MSTORE DUP3 MLOAD DUP1 SWAP2 MSTORE PUSH1 0x20 PUSH1 0xA0 DUP6 ADD SWAP4 ADD SWAP1 PUSH1 0x0 SWAP1 JUMPDEST DUP1 DUP3 LT PUSH2 0xB61 JUMPI POP PUSH2 0xB5C SWAP7 SWAP6 SWAP5 PUSH1 0x1 PUSH1 0x1 PUSH1 0xA0 SHL SUB SWAP1 SWAP4 AND SWAP4 CALLER SWAP4 PUSH1 0x0 DUP1 MLOAD PUSH1 0x20 PUSH2 0x4076 DUP4 CODECOPY DUP2 MLOAD SWAP2 MSTORE SWAP4 POP SWAP1 DUP2 SWAP1 SUB SWAP2 POP LOG4 PUSH1 0x1 PUSH1 0xB SSTORE PUSH2 0x34BD JUMP JUMPDEST PUSH2 0x8E0 JUMP JUMPDEST DUP3 MLOAD PUSH1 0x1 PUSH1 0x1 PUSH1 0xA0 SHL SUB AND DUP6 MSTORE PUSH1 0x20 SWAP5 DUP6 ADD SWAP5 SWAP1 SWAP3 ADD SWAP2 PUSH1 0x1 SWAP1 SWAP2 ADD SWAP1 PUSH2 0xB1E JUMP JUMPDEST PUSH1 0x1 PUSH1 0x1 PUSH1 0xA0 SHL SUB DUP4 AND PUSH1 0x0 SWAP1 DUP2 MSTORE PUSH1 0xD PUSH1 0x20 MSTORE PUSH1 0x40 SWAP1 KECCAK256 PUSH2 0xBAA SWAP1 PUSH1 0x0 NOT DUP4 ADD SWAP1 PUSH2 0x2C99 JUMP JUMPDEST POP DUP5 MLOAD SWAP1 PUSH1 0x1 PUSH1 0x1 PUSH1 0x40 SHL SUB DUP3 GT PUSH2 0xC48 JUMPI PUSH1 0x1 PUSH1 0x40 SHL DUP3 GT PUSH2 0xC48 JUMPI PUSH1 0x4 DUP2 ADD SLOAD DUP3 PUSH1 0x4 DUP4 ADD SSTORE DUP1 DUP4 LT PUSH2 0xC1B JUMPI JUMPDEST POP PUSH1 0x4 PUSH1 0x20 DUP8 ADD SWAP2 ADD PUSH1 0x0 MSTORE PUSH1 0x20 PUSH1 0x0 KECCAK256 PUSH1 0x0 JUMPDEST DUP4 DUP2 LT PUSH2 0xBFE JUMPI POP POP POP POP PUSH2 0xAEC JUMP JUMPDEST DUP3 MLOAD PUSH1 0x1 PUSH1 0x1 PUSH1 0xA0 SHL SUB AND DUP2 DUP4 ADD SSTORE PUSH1 0x20 SWAP1 SWAP3 ADD SWAP2 PUSH1 0x1 ADD PUSH2 0xBEE JUMP JUMPDEST PUSH1 0x4 DUP3 ADD PUSH1 0x0 MSTORE PUSH1 0x20 PUSH1 0x0 KECCAK256 SWAP1 DUP4 DUP3 ADD JUMPDEST DUP2 DUP4 ADD DUP2 LT PUSH2 0xC3C JUMPI POP POP PUSH2 0xBDA JUMP JUMPDEST PUSH1 0x0 DUP2 SSTORE PUSH1 0x1 ADD PUSH2 0xC2C JUMP JUMPDEST PUSH4 0x4E487B71 PUSH1 0xE0 SHL PUSH1 0x0 MSTORE PUSH1 0x41 PUSH1 0x4 MSTORE PUSH1 0x24 PUSH1 0x0 REVERT JUMPDEST PUSH4 0x4E487B71 PUSH1 0xE0 SHL PUSH1 0x0 MSTORE PUSH1 0x11 PUSH1 0x4 MSTORE PUSH1 0x24 PUSH1 0x0 REVERT JUMPDEST DUP3 MLOAD PUSH1 0x1 PUSH1 0x1 PUSH1 0xA0 SHL SUB AND DUP2 DUP4 ADD SSTORE PUSH1 0x20 SWAP1 SWAP3 ADD SWAP2 PUSH1 0x1 ADD PUSH2 0xAB6 JUMP JUMPDEST PUSH1 0x4 DUP4 ADD PUSH1 0x0 MSTORE PUSH1 0x20 PUSH1 0x0 KECCAK256 SWAP1 DUP5 DUP3 ADD JUMPDEST DUP2 DUP4 ADD DUP2 LT PUSH2 0xCB2 JUMPI POP POP PUSH2 0xAA2 JUMP JUMPDEST PUSH1 0x0 DUP2 SSTORE PUSH1 0x1 ADD PUSH2 0xCA2 JUMP JUMPDEST PUSH4 0x4E487B71 PUSH1 0xE0 SHL PUSH1 0x0 MSTORE PUSH1 0x0 PUSH1 0x4 MSTORE PUSH1 0x24 PUSH1 0x0 REVERT JUMPDEST PUSH1 0x40 MLOAD PUSH3 0x461BCD PUSH1 0xE5 SHL DUP2 MSTORE PUSH1 0x20 PUSH1 0x4 DUP3 ADD MSTORE PUSH1 0x1C PUSH1 0x24 DUP3 ADD MSTORE PUSH28 0x696E697469616C2072656C65617365206F7574206F662072616E6765 PUSH1 0x20 SHL PUSH1 0x44 DUP3 ADD MSTORE PUSH1 0x64 SWAP1 REVERT JUMPDEST PUSH1 0x40 MLOAD PUSH3 0x461BCD PUSH1 0xE5 SHL DUP2 MSTORE PUSH1 0x20 PUSH1 0x4 DUP3 ADD MSTORE PUSH1 0x15 PUSH1 0x24 DUP3 ADD MSTORE PUSH21 0x3C203120746F6B656E207065722072656C65617365 PUSH1 0x58 SHL PUSH1 0x44 DUP3 ADD MSTORE PUSH1 0x64 SWAP1 REVERT JUMPDEST PUSH1 0x40 MLOAD PUSH3 0x461BCD PUSH1 0xE5 SHL DUP2 MSTORE PUSH1 0x20 PUSH1 0x4 DUP3 ADD MSTORE PUSH1 0xE PUSH1 0x24 DUP3 ADD MSTORE PUSH14 0x189859081CD8DA19591D5B195259 PUSH1 0x92 SHL PUSH1 0x44 DUP3 ADD MSTORE PUSH1 0x64 SWAP1 REVERT JUMPDEST PUSH1 0x40 MLOAD PUSH3 0x461BCD PUSH1 0xE5 SHL DUP2 MSTORE PUSH1 0x20 PUSH1 0x4 DUP3 ADD MSTORE PUSH1 0xC PUSH1 0x24 DUP3 ADD MSTORE PUSH12 0x746F20302061646472657373 PUSH1 0xA0 SHL PUSH1 0x44 DUP3 ADD MSTORE PUSH1 0x64 SWAP1 REVERT JUMPDEST PUSH1 0x40 MLOAD PUSH3 0x461BCD PUSH1 0xE5 SHL DUP2 MSTORE PUSH1 0x20 PUSH1 0x4 DUP3 ADD MSTORE PUSH1 0x14 PUSH1 0x24 DUP3 ADD MSTORE PUSH20 0x616D6F756E74203C206D696E2066756E64696E67 PUSH1 0x60 SHL PUSH1 0x44 DUP3 ADD MSTORE PUSH1 0x64 SWAP1 REVERT JUMPDEST PUSH1 0x40 MLOAD PUSH3 0x461BCD PUSH1 0xE5 SHL DUP2 MSTORE PUSH1 0x20 PUSH1 0x4 DUP3 ADD MSTORE PUSH1 0x1E PUSH1 0x24 DUP3 ADD MSTORE PUSH32 0x6D61782031302063616E63656C61626C65427920616464726573736565730000 PUSH1 0x44 DUP3 ADD MSTORE PUSH1 0x64 SWAP1 REVERT JUMPDEST PUSH1 0x40 MLOAD PUSH3 0x461BCD PUSH1 0xE5 SHL DUP2 MSTORE PUSH1 0x20 PUSH1 0x4 DUP3 ADD MSTORE PUSH1 0x1F PUSH1 0x24 DUP3 ADD MSTORE PUSH32 0x5265656E7472616E637947756172643A207265656E7472616E742063616C6C00 PUSH1 0x44 DUP3 ADD MSTORE PUSH1 0x64 SWAP1 REVERT JUMPDEST CALLVALUE PUSH2 0x334 JUMPI PUSH1 0x20 CALLDATASIZE PUSH1 0x3 NOT ADD SLT PUSH2 0x334 JUMPI PUSH1 0x1 PUSH1 0x1 PUSH1 0xA0 SHL SUB PUSH2 0xEA6 PUSH2 0x2ACB JUMP JUMPDEST AND PUSH1 0x0 MSTORE PUSH1 0xD PUSH1 0x20 MSTORE PUSH1 0x20 PUSH1 0x40 PUSH1 0x0 KECCAK256 SLOAD PUSH1 0x40 MLOAD SWAP1 DUP2 MSTORE RETURN JUMPDEST CALLVALUE PUSH2 0x334 JUMPI PUSH1 0x0 CALLDATASIZE PUSH1 0x3 NOT ADD SLT PUSH2 0x334 JUMPI PUSH1 0x20 PUSH1 0xFF PUSH1 0x15 SLOAD AND PUSH1 0x40 MLOAD SWAP1 ISZERO ISZERO DUP2 MSTORE RETURN JUMPDEST CALLVALUE PUSH2 0x334 JUMPI PUSH1 0x40 CALLDATASIZE PUSH1 0x3 NOT ADD SLT PUSH2 0x334 JUMPI PUSH1 0x20 PUSH2 0x420 PUSH2 0xF00 PUSH2 0x2ACB JUMP JUMPDEST PUSH1 0x24 CALLDATALOAD SWAP1 PUSH2 0x35E4 JUMP JUMPDEST CALLVALUE PUSH2 0x334 JUMPI PUSH1 0x60 CALLDATASIZE PUSH1 0x3 NOT ADD SLT PUSH2 0x334 JUMPI PUSH2 0xF6E PUSH2 0xF25 PUSH2 0x2ACB JUMP JUMPDEST PUSH1 0x24 CALLDATALOAD SWAP1 PUSH1 0x2 PUSH2 0xF59 PUSH1 0x44 CALLDATALOAD PUSH2 0xF46 DUP6 PUSH2 0xF3F DUP4 CALLER PUSH2 0x35A7 JUMP JUMPDEST LT ISZERO PUSH2 0x3A2D JUMP JUMPDEST CALLER PUSH1 0x0 MSTORE PUSH1 0xD PUSH1 0x20 MSTORE PUSH1 0x40 PUSH1 0x0 KECCAK256 PUSH2 0x2C99 JUMP JUMPDEST POP ADD PUSH2 0xF66 DUP4 DUP3 SLOAD PUSH2 0x2CB5 JUMP JUMPDEST SWAP1 SSTORE ADDRESS PUSH2 0x32BC JUMP JUMPDEST PUSH1 0x20 PUSH1 0x40 MLOAD PUSH1 0x1 DUP2 MSTORE RETURN JUMPDEST CALLVALUE PUSH2 0x334 JUMPI PUSH1 0x40 CALLDATASIZE PUSH1 0x3 NOT ADD SLT PUSH2 0x334 JUMPI PUSH1 0x20 PUSH2 0xFBF PUSH2 0xF97 PUSH2 0x2ACB JUMP JUMPDEST PUSH1 0x24 CALLDATALOAD SWAP1 PUSH2 0xFAF PUSH1 0x1 PUSH1 0x1 PUSH1 0xA0 SHL SUB DUP3 AND ISZERO ISZERO PUSH2 0x309F JUMP JUMPDEST PUSH2 0xFBA DUP3 DUP3 CALLER PUSH2 0x3D8E JUMP JUMPDEST PUSH2 0x3673 JUMP JUMPDEST PUSH1 0x40 MLOAD SWAP1 ISZERO ISZERO DUP2 MSTORE RETURN JUMPDEST CALLVALUE PUSH2 0x334 JUMPI PUSH1 0x20 CALLDATASIZE PUSH1 0x3 NOT ADD SLT PUSH2 0x334 JUMPI PUSH1 0x20 PUSH2 0x420 PUSH2 0xFE7 PUSH2 0x2ACB JUMP JUMPDEST PUSH2 0x39EC JUMP JUMPDEST CALLVALUE PUSH2 0x334 JUMPI PUSH1 0x40 CALLDATASIZE PUSH1 0x3 NOT ADD SLT PUSH2 0x334 JUMPI PUSH2 0x1005 PUSH2 0x2ACB JUMP JUMPDEST PUSH1 0x24 CALLDATALOAD SWAP1 CALLER PUSH1 0x0 MSTORE PUSH1 0x1 PUSH1 0x20 MSTORE PUSH1 0x40 PUSH1 0x0 KECCAK256 PUSH1 0x1 DUP1 PUSH1 0xA0 SHL SUB DUP3 AND PUSH1 0x0 MSTORE PUSH1 0x20 MSTORE PUSH1 0x40 PUSH1 0x0 KECCAK256 SLOAD SWAP2 DUP1 DUP4 LT PUSH2 0x1040 JUMPI PUSH2 0xF6E SWAP3 SUB SWAP1 CALLER PUSH2 0x2CC2 JUMP JUMPDEST PUSH1 0x40 MLOAD PUSH3 0x461BCD PUSH1 0xE5 SHL DUP2 MSTORE PUSH1 0x20 PUSH1 0x4 DUP3 ADD MSTORE PUSH1 0x25 PUSH1 0x24 DUP3 ADD MSTORE PUSH32 0x45524332303A2064656372656173656420616C6C6F77616E63652062656C6F77 PUSH1 0x44 DUP3 ADD MSTORE PUSH5 0x207A65726F PUSH1 0xD8 SHL PUSH1 0x64 DUP3 ADD MSTORE PUSH1 0x84 SWAP1 REVERT JUMPDEST CALLVALUE PUSH2 0x334 JUMPI PUSH1 0x40 CALLDATASIZE PUSH1 0x3 NOT ADD SLT PUSH2 0x334 JUMPI PUSH2 0x10AC PUSH2 0x2ACB JUMP JUMPDEST PUSH1 0x24 CALLDATALOAD SWAP1 PUSH1 0x1 PUSH1 0x1 PUSH1 0xA0 SHL SUB DUP2 AND SWAP1 DUP2 ISZERO PUSH2 0x10C7 DUP2 ISZERO PUSH2 0x309F JUMP JUMPDEST PUSH2 0x10D8 PUSH2 0x10D3 CALLER PUSH2 0x31B2 JUMP JUMPDEST PUSH2 0x3FEA JUMP JUMPDEST PUSH2 0x10E1 DUP3 PUSH2 0x3974 JUMP JUMPDEST DUP5 GT PUSH2 0x11E5 JUMPI PUSH2 0x1196 JUMPI PUSH2 0x10F4 SWAP1 PUSH2 0x383C JUMP JUMPDEST PUSH2 0x10FC PUSH2 0x388D JUMP JUMPDEST DUP1 PUSH1 0x0 MSTORE PUSH1 0x0 PUSH1 0x20 MSTORE PUSH1 0x40 PUSH1 0x0 KECCAK256 SLOAD SWAP2 DUP1 DUP4 LT PUSH2 0x1146 JUMPI PUSH1 0x20 DUP2 PUSH1 0x0 DUP1 MLOAD PUSH1 0x20 PUSH2 0x4096 DUP4 CODECOPY DUP2 MLOAD SWAP2 MSTORE SWAP3 PUSH1 0x0 SWAP6 DUP6 DUP8 MSTORE DUP7 DUP5 MSTORE SUB PUSH1 0x40 DUP7 KECCAK256 SSTORE DUP1 PUSH1 0x2 SLOAD SUB PUSH1 0x2 SSTORE PUSH1 0x40 MLOAD SWAP1 DUP2 MSTORE LOG3 STOP JUMPDEST PUSH1 0x40 MLOAD PUSH3 0x461BCD PUSH1 0xE5 SHL DUP2 MSTORE PUSH1 0x20 PUSH1 0x4 DUP3 ADD MSTORE PUSH1 0x22 PUSH1 0x24 DUP3 ADD MSTORE PUSH32 0x45524332303A206275726E20616D6F756E7420657863656564732062616C616E PUSH1 0x44 DUP3 ADD MSTORE PUSH2 0x6365 PUSH1 0xF0 SHL PUSH1 0x64 DUP3 ADD MSTORE PUSH1 0x84 SWAP1 REVERT JUMPDEST PUSH1 0x40 MLOAD PUSH3 0x461BCD PUSH1 0xE5 SHL DUP2 MSTORE PUSH1 0x20 PUSH1 0x4 DUP3 ADD MSTORE PUSH1 0x21 PUSH1 0x24 DUP3 ADD MSTORE PUSH32 0x45524332303A206275726E2066726F6D20746865207A65726F20616464726573 PUSH1 0x44 DUP3 ADD MSTORE PUSH1 0x73 PUSH1 0xF8 SHL PUSH1 0x64 DUP3 ADD MSTORE PUSH1 0x84 SWAP1 REVERT JUMPDEST PUSH1 0x40 MLOAD PUSH3 0x461BCD PUSH1 0xE5 SHL DUP2 MSTORE PUSH1 0x20 PUSH1 0x4 DUP3 ADD MSTORE PUSH1 0x1A PUSH1 0x24 DUP3 ADD MSTORE PUSH26 0x24B739BAB33334B1B2B73A103A37B5B2B739903A3790313AB937 PUSH1 0x31 SHL PUSH1 0x44 DUP3 ADD MSTORE PUSH1 0x64 SWAP1 REVERT JUMPDEST CALLVALUE PUSH2 0x334 JUMPI PUSH1 0x20 CALLDATASIZE PUSH1 0x3 NOT ADD SLT PUSH2 0x334 JUMPI PUSH2 0x1243 PUSH1 0x4 CALLDATALOAD PUSH2 0x2E12 JUMP JUMPDEST SWAP1 ISZERO PUSH2 0x1254 JUMPI PUSH1 0x20 SWAP1 PUSH1 0x40 MLOAD SWAP1 DUP2 MSTORE RETURN JUMPDEST POP PUSH1 0x20 PUSH1 0x2 SLOAD PUSH2 0x420 JUMP JUMPDEST CALLVALUE PUSH2 0x334 JUMPI PUSH1 0x0 CALLDATASIZE PUSH1 0x3 NOT ADD SLT PUSH2 0x334 JUMPI PUSH2 0x1281 PUSH2 0x127C CALLER PUSH2 0x3139 JUMP JUMPDEST PUSH2 0x30E3 JUMP JUMPDEST PUSH1 0x20 PUSH1 0x1 PUSH1 0x8 SLOAD ADD DUP1 PUSH1 0x8 SSTORE PUSH32 0x8030E83B04D87BEF53480E26263266D6CA66863AA8506ACA6F2559D18AA1CB67 DUP3 PUSH1 0x40 MLOAD DUP4 DUP2 MSTORE LOG1 PUSH1 0x40 MLOAD SWAP1 DUP2 MSTORE RETURN JUMPDEST CALLVALUE PUSH2 0x334 JUMPI PUSH1 0x20 PUSH2 0x420 PUSH2 0x12D1 CALLDATASIZE PUSH2 0x2B07 JUMP JUMPDEST SWAP3 SWAP2 SWAP1 SWAP2 PUSH2 0x3BAB JUMP JUMPDEST CALLVALUE PUSH2 0x334 JUMPI PUSH1 0x0 CALLDATASIZE PUSH1 0x3 NOT ADD SLT PUSH2 0x334 JUMPI PUSH1 0x40 MLOAD PUSH1 0x0 SWAP1 PUSH1 0x4 SLOAD PUSH1 0x1 DUP2 DUP2 SHR SWAP1 DUP1 DUP4 AND SWAP3 DUP4 ISZERO PUSH2 0x13B6 JUMPI JUMPDEST PUSH1 0x20 SWAP4 DUP5 DUP5 LT DUP2 EQ PUSH2 0x13A0 JUMPI DUP4 DUP7 MSTORE SWAP1 DUP2 ISZERO PUSH2 0x1380 JUMPI POP PUSH1 0x1 EQ PUSH2 0x1340 JUMPI JUMPDEST PUSH2 0x4A8 DUP5 PUSH2 0x1334 DUP2 DUP9 SUB DUP3 PUSH2 0x2BAB JUMP JUMPDEST PUSH1 0x40 MLOAD SWAP2 DUP3 SWAP2 DUP3 PUSH2 0x2A9F JUMP JUMPDEST SWAP2 SWAP4 POP PUSH1 0x4 PUSH1 0x0 MSTORE DUP4 PUSH1 0x0 KECCAK256 SWAP2 PUSH1 0x0 SWAP3 JUMPDEST DUP3 DUP5 LT PUSH2 0x136D JUMPI POP POP POP DUP2 PUSH2 0x4A8 SWAP4 PUSH2 0x1334 SWAP3 DUP3 ADD ADD SWAP4 PUSH2 0x1324 JUMP JUMPDEST DUP1 SLOAD DUP6 DUP6 ADD DUP8 ADD MSTORE SWAP3 DUP6 ADD SWAP3 DUP2 ADD PUSH2 0x1351 JUMP JUMPDEST PUSH1 0xFF NOT AND DUP6 DUP6 ADD MSTORE POP POP ISZERO ISZERO PUSH1 0x5 SHL DUP3 ADD ADD SWAP2 POP PUSH2 0x1334 DUP2 PUSH2 0x4A8 PUSH2 0x1324 JUMP JUMPDEST PUSH4 0x4E487B71 PUSH1 0xE0 SHL PUSH1 0x0 MSTORE PUSH1 0x22 PUSH1 0x4 MSTORE PUSH1 0x24 PUSH1 0x0 REVERT JUMPDEST SWAP2 PUSH1 0x7F AND SWAP2 PUSH2 0x1305 JUMP JUMPDEST CALLVALUE PUSH2 0x334 JUMPI PUSH1 0x40 CALLDATASIZE PUSH1 0x3 NOT ADD SLT PUSH2 0x334 JUMPI PUSH1 0x20 PUSH2 0xFBF PUSH2 0x13DE PUSH2 0x2ACB JUMP JUMPDEST PUSH2 0x13E6 PUSH2 0x2AF7 JUMP JUMPDEST SWAP1 PUSH2 0x3163 JUMP JUMPDEST CALLVALUE PUSH2 0x334 JUMPI PUSH1 0xE0 CALLDATASIZE PUSH1 0x3 NOT ADD SLT PUSH2 0x334 JUMPI PUSH1 0x20 PUSH2 0x420 PUSH1 0xC4 CALLDATALOAD PUSH1 0xA4 CALLDATALOAD PUSH1 0x84 CALLDATALOAD PUSH1 0x64 CALLDATALOAD PUSH1 0x44 CALLDATALOAD PUSH1 0x24 CALLDATALOAD PUSH1 0x4 CALLDATALOAD PUSH2 0x3CC0 JUMP JUMPDEST CALLVALUE PUSH2 0x334 JUMPI PUSH1 0x0 CALLDATASIZE PUSH1 0x3 NOT ADD SLT PUSH2 0x334 JUMPI PUSH1 0x20 PUSH1 0xFF PUSH1 0xA SLOAD AND PUSH1 0x40 MLOAD SWAP1 DUP2 MSTORE RETURN JUMPDEST CALLVALUE PUSH2 0x334 JUMPI PUSH1 0xA0 CALLDATASIZE PUSH1 0x3 NOT ADD SLT PUSH2 0x334 JUMPI PUSH2 0x1456 PUSH2 0x2ACB JUMP JUMPDEST PUSH1 0x84 CALLDATALOAD PUSH1 0x1 PUSH1 0x1 PUSH1 0x40 SHL SUB DUP2 GT PUSH2 0x334 JUMPI CALLDATASIZE PUSH1 0x23 DUP3 ADD SLT ISZERO PUSH2 0x334 JUMPI PUSH2 0x1486 SWAP1 CALLDATASIZE SWAP1 PUSH1 0x24 DUP2 PUSH1 0x4 ADD CALLDATALOAD SWAP2 ADD PUSH2 0x2C03 JUMP JUMPDEST PUSH1 0x2 PUSH1 0xB SLOAD EQ PUSH2 0xE40 JUMPI PUSH1 0x2 PUSH1 0xB SSTORE PUSH1 0xA DUP2 MLOAD GT PUSH2 0xDFB JUMPI PUSH32 0x0 PUSH1 0x24 CALLDATALOAD LT PUSH2 0xDBF JUMPI PUSH1 0x1 PUSH1 0x1 PUSH1 0xA0 SHL SUB DUP3 AND ISZERO PUSH2 0xD8B JUMPI PUSH1 0xC SLOAD PUSH1 0x64 CALLDATALOAD LT ISZERO PUSH2 0xD55 JUMPI PUSH2 0x14ED PUSH1 0x64 CALLDATALOAD PUSH2 0x2BCE JUMP JUMPDEST POP SLOAD PUSH1 0x24 CALLDATALOAD LT PUSH2 0xD18 JUMPI PUSH2 0x1503 PUSH1 0x24 CALLDATALOAD ADDRESS PUSH2 0x3673 JUMP JUMPDEST POP PUSH2 0x151F PUSH1 0x1 PUSH2 0x1514 PUSH1 0x64 CALLDATALOAD PUSH2 0x2BCE JUMP JUMPDEST POP ADD SLOAD PUSH1 0x44 CALLDATALOAD PUSH2 0x2CB5 JUMP JUMPDEST PUSH2 0x1549 PUSH32 0x0 TIMESTAMP PUSH2 0x2CB5 JUMP JUMPDEST LT PUSH2 0xCD4 JUMPI PUSH2 0x1556 PUSH2 0x328E JUMP JUMPDEST PUSH1 0x64 CALLDATALOAD DUP2 MSTORE PUSH1 0x44 CALLDATALOAD PUSH1 0x20 DUP3 ADD MSTORE PUSH1 0x24 CALLDATALOAD PUSH1 0x60 DUP3 ADD MSTORE PUSH1 0x1 DUP1 PUSH1 0xA0 SHL SUB DUP4 AND PUSH1 0x0 MSTORE PUSH1 0xD PUSH1 0x20 MSTORE PUSH1 0x40 PUSH1 0x0 KECCAK256 DUP1 SLOAD PUSH1 0x1 PUSH1 0x40 SHL DUP2 LT ISZERO PUSH2 0xC48 JUMPI PUSH2 0x159E SWAP2 PUSH1 0x1 DUP3 ADD DUP2 SSTORE PUSH2 0x2C99 JUMP JUMPDEST SWAP2 SWAP1 SWAP2 PUSH2 0xCBE JUMPI DUP1 MLOAD DUP3 SSTORE PUSH1 0x20 DUP2 ADD MLOAD PUSH1 0x1 DUP4 ADD SSTORE PUSH1 0x40 DUP2 ADD MLOAD PUSH1 0x2 DUP4 ADD SSTORE PUSH1 0x60 DUP2 ADD MLOAD PUSH1 0x3 DUP4 ADD SSTORE PUSH1 0x80 ADD MLOAD DUP1 MLOAD SWAP2 SWAP1 PUSH1 0x1 PUSH1 0x1 PUSH1 0x40 SHL SUB DUP4 GT PUSH2 0xC48 JUMPI PUSH1 0x1 PUSH1 0x40 SHL DUP4 GT PUSH2 0xC48 JUMPI PUSH1 0x4 DUP3 ADD SLOAD DUP4 PUSH1 0x4 DUP5 ADD SSTORE DUP1 DUP5 LT PUSH2 0x17A7 JUMPI JUMPDEST POP PUSH1 0x20 PUSH1 0x4 SWAP2 ADD SWAP2 ADD PUSH1 0x0 MSTORE PUSH1 0x20 PUSH1 0x0 KECCAK256 PUSH1 0x0 JUMPDEST DUP4 DUP2 LT PUSH2 0x178A JUMPI PUSH1 0x1 PUSH1 0x1 PUSH1 0xA0 SHL SUB DUP7 AND PUSH1 0x0 SWAP1 DUP2 MSTORE PUSH1 0xD PUSH1 0x20 MSTORE PUSH1 0x40 SWAP1 KECCAK256 SLOAD DUP7 SWAP1 PUSH1 0x0 NOT DUP2 ADD SWAP1 DUP8 SWAP1 DUP3 GT PUSH2 0xC5E JUMPI DUP1 MLOAD PUSH2 0x16D7 JUMPI JUMPDEST PUSH1 0x40 MLOAD SWAP2 PUSH1 0x80 DUP4 ADD SWAP1 PUSH1 0x24 CALLDATALOAD DUP5 MSTORE PUSH1 0x44 CALLDATALOAD PUSH1 0x20 DUP6 ADD MSTORE PUSH1 0x40 DUP5 ADD MSTORE PUSH1 0x80 PUSH1 0x60 DUP5 ADD MSTORE DUP2 MLOAD DUP1 SWAP2 MSTORE PUSH1 0x20 PUSH1 0xA0 DUP5 ADD SWAP3 ADD SWAP1 PUSH1 0x0 JUMPDEST DUP2 DUP2 LT PUSH2 0x16B8 JUMPI POP POP PUSH1 0x64 CALLDATALOAD SWAP4 PUSH1 0x1 PUSH1 0x1 PUSH1 0xA0 SHL SUB AND SWAP3 CALLER SWAP3 PUSH1 0x0 DUP1 MLOAD PUSH1 0x20 PUSH2 0x4076 DUP4 CODECOPY DUP2 MLOAD SWAP2 MSTORE SWAP3 POP DUP2 SWAP1 SUB SWAP1 LOG4 PUSH1 0x1 PUSH1 0xB SSTORE PUSH1 0x20 PUSH1 0x40 MLOAD PUSH1 0x1 DUP2 MSTORE RETURN JUMPDEST DUP3 MLOAD PUSH1 0x1 PUSH1 0x1 PUSH1 0xA0 SHL SUB AND DUP5 MSTORE PUSH1 0x20 SWAP4 DUP5 ADD SWAP4 SWAP1 SWAP3 ADD SWAP2 PUSH1 0x1 ADD PUSH2 0x1679 JUMP JUMPDEST PUSH1 0x1 DUP1 PUSH1 0xA0 SHL SUB DUP4 AND PUSH1 0x0 MSTORE PUSH1 0xD PUSH1 0x20 MSTORE PUSH1 0x4 PUSH2 0x16F8 DUP4 PUSH1 0x40 PUSH1 0x0 KECCAK256 PUSH2 0x2C99 JUMP JUMPDEST POP DUP3 MLOAD SWAP2 ADD PUSH1 0x1 PUSH1 0x1 PUSH1 0x40 SHL SUB DUP3 GT PUSH2 0xC48 JUMPI PUSH1 0x1 PUSH1 0x40 SHL DUP3 GT PUSH2 0xC48 JUMPI DUP1 SLOAD DUP3 DUP3 SSTORE DUP1 DUP4 LT PUSH2 0x1761 JUMPI JUMPDEST POP PUSH1 0x20 DUP4 ADD SWAP1 PUSH1 0x0 MSTORE PUSH1 0x20 PUSH1 0x0 KECCAK256 PUSH1 0x0 JUMPDEST DUP4 DUP2 LT PUSH2 0x1744 JUMPI POP POP POP POP PUSH2 0x1646 JUMP JUMPDEST DUP3 MLOAD PUSH1 0x1 PUSH1 0x1 PUSH1 0xA0 SHL SUB AND DUP2 DUP4 ADD SSTORE PUSH1 0x20 SWAP1 SWAP3 ADD SWAP2 PUSH1 0x1 ADD PUSH2 0x1734 JUMP JUMPDEST DUP2 PUSH1 0x0 MSTORE DUP3 PUSH1 0x20 PUSH1 0x0 KECCAK256 SWAP2 DUP3 ADD SWAP2 ADD JUMPDEST DUP2 DUP2 LT PUSH2 0x177E JUMPI POP PUSH2 0x1723 JUMP JUMPDEST PUSH1 0x0 DUP2 SSTORE PUSH1 0x1 ADD PUSH2 0x1771 JUMP JUMPDEST DUP3 MLOAD PUSH1 0x1 PUSH1 0x1 PUSH1 0xA0 SHL SUB AND DUP2 DUP4 ADD SSTORE PUSH1 0x20 SWAP1 SWAP3 ADD SWAP2 PUSH1 0x1 ADD PUSH2 0x160F JUMP JUMPDEST PUSH1 0x4 DUP4 ADD PUSH1 0x0 MSTORE PUSH1 0x20 PUSH1 0x0 KECCAK256 SWAP1 DUP5 DUP3 ADD JUMPDEST DUP2 DUP4 ADD DUP2 LT PUSH2 0x17C8 JUMPI POP POP PUSH2 0x15FB JUMP JUMPDEST PUSH1 0x0 DUP2 SSTORE PUSH1 0x1 ADD PUSH2 0x17B8 JUMP JUMPDEST CALLVALUE PUSH2 0x334 JUMPI PUSH1 0x40 CALLDATASIZE PUSH1 0x3 NOT ADD SLT PUSH2 0x334 JUMPI PUSH2 0x17ED PUSH2 0x2ACB JUMP JUMPDEST PUSH1 0x24 CALLDATALOAD SWAP1 PUSH1 0x1 PUSH1 0x1 PUSH1 0xA0 SHL SUB AND PUSH2 0x1805 DUP2 ISZERO ISZERO PUSH2 0x309F JUMP JUMPDEST PUSH2 0x1816 PUSH2 0x1811 CALLER PUSH2 0x31DC JUMP JUMPDEST PUSH2 0x3230 JUMP JUMPDEST DUP1 PUSH1 0x0 MSTORE PUSH1 0x11 PUSH1 0x20 MSTORE DUP2 PUSH1 0x40 PUSH1 0x0 KECCAK256 SSTORE CALLER PUSH1 0x0 DUP1 MLOAD PUSH1 0x20 PUSH2 0x4056 DUP4 CODECOPY DUP2 MLOAD SWAP2 MSTORE PUSH1 0x0 DUP1 LOG4 STOP JUMPDEST CALLVALUE PUSH2 0x334 JUMPI PUSH1 0x20 CALLDATASIZE PUSH1 0x3 NOT ADD SLT PUSH2 0x334 JUMPI PUSH1 0x20 PUSH2 0x420 PUSH2 0x185A PUSH2 0x2ACB JUMP JUMPDEST PUSH2 0x399E JUMP JUMPDEST CALLVALUE PUSH2 0x334 JUMPI PUSH1 0x20 CALLDATASIZE PUSH1 0x3 NOT ADD SLT PUSH2 0x334 JUMPI PUSH1 0x20 PUSH2 0x420 PUSH2 0x187D PUSH2 0x2ACB JUMP JUMPDEST PUSH1 0x1 PUSH1 0x1 PUSH1 0xA0 SHL SUB DUP2 AND PUSH1 0x0 SWAP1 DUP2 MSTORE DUP1 DUP5 MSTORE PUSH1 0x40 SWAP1 KECCAK256 SLOAD SWAP1 PUSH2 0x189E SWAP1 PUSH2 0x39EC JUMP JUMPDEST SWAP1 PUSH2 0x2CB5 JUMP JUMPDEST CALLVALUE PUSH2 0x334 JUMPI PUSH1 0x0 CALLDATASIZE PUSH1 0x3 NOT ADD SLT PUSH2 0x334 JUMPI PUSH2 0x18C1 PUSH2 0x127C CALLER PUSH2 0x3139 JUMP JUMPDEST PUSH1 0x1 PUSH1 0xFF NOT PUSH1 0x15 SLOAD AND OR PUSH1 0x15 SSTORE PUSH1 0x0 DUP1 MLOAD PUSH1 0x20 PUSH2 0x4036 DUP4 CODECOPY DUP2 MLOAD SWAP2 MSTORE PUSH1 0x40 DUP1 MLOAD CALLER DUP2 MSTORE PUSH1 0x1 PUSH1 0x20 DUP3 ADD MSTORE LOG1 STOP JUMPDEST CALLVALUE PUSH2 0x334 JUMPI PUSH1 0x40 CALLDATASIZE PUSH1 0x3 NOT ADD SLT PUSH2 0x334 JUMPI PUSH2 0x1913 PUSH2 0x190A PUSH2 0x2ACB JUMP JUMPDEST PUSH1 0x24 CALLDATALOAD SWAP1 PUSH2 0x3BEE JUMP JUMPDEST PUSH1 0x40 MLOAD DUP1 SWAP2 PUSH1 0x20 DUP1 DUP4 MSTORE PUSH1 0x80 PUSH1 0xC0 DUP5 ADD SWAP3 DUP1 MLOAD DUP4 DUP7 ADD MSTORE DUP3 DUP2 ADD MLOAD PUSH1 0x40 DUP7 ADD MSTORE PUSH1 0x40 DUP2 ADD MLOAD PUSH1 0x60 DUP7 ADD MSTORE PUSH1 0x60 DUP2 ADD MLOAD DUP3 DUP7 ADD MSTORE ADD MLOAD SWAP2 PUSH1 0xA0 DUP1 DUP6 ADD MSTORE DUP3 MLOAD DUP1 SWAP2 MSTORE DUP2 PUSH1 0xE0 DUP6 ADD SWAP4 ADD SWAP2 PUSH1 0x0 JUMPDEST DUP3 DUP2 LT PUSH2 0x196E JUMPI POP POP POP POP SUB SWAP1 RETURN JUMPDEST DUP4 MLOAD PUSH1 0x1 PUSH1 0x1 PUSH1 0xA0 SHL SUB AND DUP6 MSTORE DUP7 SWAP6 POP SWAP4 DUP2 ADD SWAP4 SWAP3 DUP2 ADD SWAP3 PUSH1 0x1 ADD PUSH2 0x195F JUMP JUMPDEST CALLVALUE PUSH2 0x334 JUMPI PUSH1 0x20 CALLDATASIZE PUSH1 0x3 NOT ADD SLT PUSH2 0x334 JUMPI PUSH1 0x4 CALLDATALOAD PUSH1 0xFF DUP2 AND DUP2 SUB PUSH2 0x334 JUMPI PUSH2 0x1334 PUSH2 0x4A8 SWAP2 PUSH2 0x3EC6 JUMP JUMPDEST CALLVALUE PUSH2 0x334 JUMPI PUSH1 0x40 CALLDATASIZE PUSH1 0x3 NOT ADD SLT PUSH2 0x334 JUMPI PUSH1 0x20 PUSH2 0x420 PUSH2 0x19D6 PUSH2 0x2ACB JUMP JUMPDEST PUSH1 0x24 CALLDATALOAD SWAP1 PUSH2 0x356D JUMP JUMPDEST CALLVALUE PUSH2 0x334 JUMPI PUSH1 0x20 CALLDATASIZE PUSH1 0x3 NOT ADD SLT PUSH2 0x334 JUMPI PUSH1 0x20 PUSH2 0x420 PUSH2 0x19FD PUSH2 0x2ACB JUMP JUMPDEST PUSH2 0x3974 JUMP JUMPDEST CALLVALUE PUSH2 0x334 JUMPI PUSH1 0x20 CALLDATASIZE PUSH1 0x3 NOT ADD SLT PUSH2 0x334 JUMPI PUSH1 0x4 CALLDATALOAD PUSH1 0xC SLOAD DUP2 LT ISZERO PUSH2 0x334 JUMPI PUSH2 0x46E SWAP1 PUSH2 0x2BCE JUMP JUMPDEST CALLVALUE PUSH2 0x334 JUMPI PUSH1 0x20 CALLDATASIZE PUSH1 0x3 NOT ADD SLT PUSH2 0x334 JUMPI PUSH1 0x20 PUSH2 0x420 PUSH2 0x1A47 PUSH2 0x2ACB JUMP JUMPDEST PUSH2 0x189E PUSH2 0x1A53 DUP3 PUSH2 0x39EC JUMP JUMPDEST SWAP2 PUSH2 0x399E JUMP JUMPDEST CALLVALUE PUSH2 0x334 JUMPI PUSH1 0x40 CALLDATASIZE PUSH1 0x3 NOT ADD SLT PUSH2 0x334 JUMPI PUSH2 0x1A72 PUSH2 0x2ACB JUMP JUMPDEST PUSH1 0x24 CALLDATALOAD SWAP1 PUSH1 0x1 PUSH1 0x1 PUSH1 0xA0 SHL SUB AND PUSH2 0x1A8A DUP2 ISZERO ISZERO PUSH2 0x309F JUMP JUMPDEST PUSH2 0x1A96 PUSH2 0x1811 CALLER PUSH2 0x31DC JUMP JUMPDEST DUP1 PUSH1 0x0 MSTORE PUSH1 0x12 PUSH1 0x20 MSTORE DUP2 PUSH1 0x40 PUSH1 0x0 KECCAK256 SSTORE CALLER PUSH1 0x0 DUP1 MLOAD PUSH1 0x20 PUSH2 0x40B6 DUP4 CODECOPY DUP2 MLOAD SWAP2 MSTORE PUSH1 0x0 DUP1 LOG4 STOP JUMPDEST CALLVALUE PUSH2 0x334 JUMPI PUSH1 0xE0 CALLDATASIZE PUSH1 0x3 NOT ADD SLT PUSH2 0x334 JUMPI PUSH1 0x80 CALLDATASIZE PUSH1 0x63 NOT ADD SLT PUSH2 0x334 JUMPI PUSH1 0x20 PUSH2 0x420 PUSH1 0x40 MLOAD PUSH2 0x1AEA DUP2 PUSH2 0x2B5A JUMP JUMPDEST PUSH1 0x64 CALLDATALOAD DUP2 MSTORE PUSH1 0x84 CALLDATALOAD DUP4 DUP3 ADD MSTORE PUSH1 0xA4 CALLDATALOAD PUSH1 0x40 DUP3 ADD MSTORE PUSH1 0xC4 CALLDATALOAD PUSH1 0x60 DUP3 ADD MSTORE PUSH1 0x44 CALLDATALOAD PUSH1 0x24 CALLDATALOAD PUSH1 0x4 CALLDATALOAD PUSH2 0x3CA4 JUMP JUMPDEST CALLVALUE PUSH2 0x334 JUMPI PUSH1 0x0 CALLDATASIZE PUSH1 0x3 NOT ADD SLT PUSH2 0x334 JUMPI PUSH1 0x20 PUSH1 0x8 SLOAD PUSH1 0x40 MLOAD SWAP1 DUP2 MSTORE RETURN JUMPDEST CALLVALUE PUSH2 0x334 JUMPI PUSH1 0x40 CALLDATASIZE PUSH1 0x3 NOT ADD SLT PUSH2 0x334 JUMPI PUSH1 0x20 PUSH2 0x1B4D PUSH2 0x2ACB JUMP JUMPDEST PUSH1 0x1 PUSH1 0x1 PUSH1 0xA0 SHL SUB DUP2 AND PUSH1 0x0 SWAP1 DUP2 MSTORE PUSH1 0x5 DUP4 MSTORE PUSH1 0x40 SWAP1 KECCAK256 PUSH2 0x1B70 SWAP1 PUSH1 0x24 CALLDATALOAD PUSH2 0x2ED6 JUMP JUMPDEST SWAP2 SWAP1 ISZERO PUSH2 0x1B80 JUMPI POP PUSH1 0x40 MLOAD SWAP1 DUP2 MSTORE RETURN JUMPDEST PUSH2 0x1B8A SWAP2 POP PUSH2 0x3974 JUMP JUMPDEST PUSH2 0x420 JUMP JUMPDEST CALLVALUE PUSH2 0x334 JUMPI PUSH1 0xA0 CALLDATASIZE PUSH1 0x3 NOT ADD SLT PUSH2 0x334 JUMPI PUSH2 0x1BA8 PUSH2 0x2ACB JUMP JUMPDEST PUSH1 0x84 CALLDATALOAD DUP1 ISZERO ISZERO SWAP2 PUSH1 0x64 CALLDATALOAD SWAP2 SWAP1 PUSH1 0x24 CALLDATALOAD DUP5 DUP4 SUB PUSH2 0x334 JUMPI PUSH1 0x1 PUSH1 0x1 PUSH1 0xA0 SHL SUB SWAP1 SWAP2 AND SWAP3 PUSH2 0x714 SWAP2 DUP5 ISZERO ISZERO SWAP2 SWAP1 PUSH2 0x1BDC DUP4 PUSH2 0x309F JUMP JUMPDEST PUSH2 0x1BE8 PUSH2 0x1811 CALLER PUSH2 0x31DC JUMP JUMPDEST PUSH2 0x1BF1 DUP4 PUSH2 0x309F JUMP JUMPDEST PUSH2 0x1BFD PUSH2 0x1811 CALLER PUSH2 0x31DC JUMP JUMPDEST DUP6 PUSH1 0x0 MSTORE PUSH1 0x12 PUSH1 0x20 MSTORE DUP1 PUSH1 0x40 PUSH1 0x0 KECCAK256 SSTORE DUP6 CALLER PUSH1 0x0 DUP1 MLOAD PUSH1 0x20 PUSH2 0x40B6 DUP4 CODECOPY DUP2 MLOAD SWAP2 MSTORE PUSH1 0x0 DUP1 LOG4 PUSH2 0x1C2B DUP3 PUSH2 0x309F JUMP JUMPDEST PUSH2 0x1C37 PUSH2 0x1811 CALLER PUSH2 0x31DC JUMP JUMPDEST DUP5 PUSH1 0x0 MSTORE PUSH1 0x11 PUSH1 0x20 MSTORE DUP1 PUSH1 0x40 PUSH1 0x0 KECCAK256 SSTORE DUP5 CALLER PUSH1 0x0 DUP1 MLOAD PUSH1 0x20 PUSH2 0x4056 DUP4 CODECOPY DUP2 MLOAD SWAP2 MSTORE PUSH1 0x0 DUP1 LOG4 PUSH2 0x309F JUMP JUMPDEST CALLVALUE PUSH2 0x334 JUMPI PUSH1 0x40 CALLDATASIZE PUSH1 0x3 NOT ADD SLT PUSH2 0x334 JUMPI PUSH2 0x1C7A PUSH2 0x2ACB JUMP JUMPDEST PUSH2 0x1C82 PUSH2 0x2AE1 JUMP JUMPDEST SWAP1 PUSH1 0x1 DUP1 PUSH1 0xA0 SHL SUB DUP1 SWAP2 AND PUSH1 0x0 MSTORE PUSH1 0x12 PUSH1 0x20 MSTORE PUSH1 0x40 PUSH1 0x0 KECCAK256 SLOAD PUSH1 0x0 MSTORE PUSH1 0x13 PUSH1 0x20 MSTORE PUSH1 0x40 PUSH1 0x0 KECCAK256 SWAP2 AND PUSH1 0x0 MSTORE PUSH1 0x12 PUSH1 0x20 MSTORE PUSH1 0x40 PUSH1 0x0 KECCAK256 SLOAD PUSH1 0x0 MSTORE PUSH1 0x20 MSTORE PUSH1 0x20 PUSH1 0x40 PUSH1 0x0 KECCAK256 SLOAD PUSH1 0x40 MLOAD SWAP1 DUP2 MSTORE RETURN JUMPDEST CALLVALUE PUSH2 0x334 JUMPI PUSH1 0x40 CALLDATASIZE PUSH1 0x3 NOT ADD SLT PUSH2 0x334 JUMPI PUSH2 0x1CE7 PUSH2 0x2ACB JUMP JUMPDEST PUSH1 0x1 PUSH1 0x1 PUSH1 0xA0 SHL SUB DUP2 AND SWAP1 PUSH1 0x24 CALLDATALOAD DUP3 ISZERO PUSH2 0x1D01 DUP2 ISZERO PUSH2 0x309F JUMP JUMPDEST PUSH2 0x1D0D PUSH2 0x10D3 CALLER PUSH2 0x31B2 JUMP JUMPDEST PUSH2 0x1D19 DUP3 PUSH1 0x2 SLOAD PUSH2 0x2CB5 JUMP JUMPDEST PUSH1 0x10 SLOAD LT PUSH2 0x1DB7 JUMPI PUSH2 0x1D72 JUMPI PUSH1 0x20 PUSH1 0x0 DUP1 MLOAD PUSH1 0x20 PUSH2 0x4096 DUP4 CODECOPY DUP2 MLOAD SWAP2 MSTORE SWAP2 PUSH2 0x1D42 PUSH1 0x0 SWAP5 PUSH2 0x383C JUMP JUMPDEST PUSH2 0x1D4A PUSH2 0x388D JUMP JUMPDEST PUSH2 0x1D56 DUP2 PUSH1 0x2 SLOAD PUSH2 0x2CB5 JUMP JUMPDEST PUSH1 0x2 SSTORE DUP5 DUP5 MSTORE DUP4 DUP3 MSTORE PUSH1 0x40 DUP5 KECCAK256 DUP2 DUP2 SLOAD ADD SWAP1 SSTORE PUSH1 0x40 MLOAD SWAP1 DUP2 MSTORE LOG3 STOP JUMPDEST PUSH1 0x40 MLOAD PUSH3 0x461BCD PUSH1 0xE5 SHL DUP2 MSTORE PUSH1 0x20 PUSH1 0x4 DUP3 ADD MSTORE PUSH1 0x1F PUSH1 0x24 DUP3 ADD MSTORE PUSH32 0x45524332303A206D696E7420746F20746865207A65726F206164647265737300 PUSH1 0x44 DUP3 ADD MSTORE PUSH1 0x64 SWAP1 REVERT JUMPDEST PUSH1 0x40 MLOAD PUSH3 0x461BCD PUSH1 0xE5 SHL DUP2 MSTORE PUSH1 0x20 PUSH1 0x4 DUP3 ADD MSTORE PUSH1 0x2A PUSH1 0x24 DUP3 ADD MSTORE PUSH32 0x43616E6E6F74206D696E74206D6F7265207468616E20746865206D617820746F PUSH1 0x44 DUP3 ADD MSTORE PUSH10 0x74616C20737570706C79 PUSH1 0xB0 SHL PUSH1 0x64 DUP3 ADD MSTORE PUSH1 0x84 SWAP1 REVERT JUMPDEST CALLVALUE PUSH2 0x334 JUMPI PUSH1 0x0 CALLDATASIZE PUSH1 0x3 NOT ADD SLT PUSH2 0x334 JUMPI PUSH2 0x1E2C PUSH2 0x127C CALLER PUSH2 0x3139 JUMP JUMPDEST PUSH1 0xFF NOT PUSH1 0x15 SLOAD AND PUSH1 0x15 SSTORE PUSH1 0x0 DUP1 MLOAD PUSH1 0x20 PUSH2 0x4036 DUP4 CODECOPY DUP2 MLOAD SWAP2 MSTORE PUSH1 0x40 DUP1 MLOAD CALLER DUP2 MSTORE PUSH1 0x0 PUSH1 0x20 DUP3 ADD MSTORE LOG1 STOP JUMPDEST CALLVALUE PUSH2 0x334 JUMPI PUSH1 0x40 CALLDATASIZE PUSH1 0x3 NOT ADD SLT PUSH2 0x334 JUMPI PUSH2 0x1E6F PUSH2 0x2ACB JUMP JUMPDEST PUSH2 0x1E77 PUSH2 0x2AF7 JUMP JUMPDEST PUSH1 0xFF SWAP2 DUP3 DUP3 AND SWAP1 DUP2 ISZERO ISZERO DUP1 PUSH2 0x1F41 JUMPI JUMPDEST PUSH2 0x1E90 SWAP1 PUSH2 0x3058 JUMP JUMPDEST PUSH1 0x1 PUSH1 0x1 PUSH1 0xA0 SHL SUB AND SWAP2 PUSH2 0x1EA5 DUP4 ISZERO ISZERO PUSH2 0x309F JUMP JUMPDEST PUSH2 0x1EB1 PUSH2 0x127C CALLER PUSH2 0x3139 JUMP JUMPDEST DUP3 PUSH1 0x0 MSTORE PUSH1 0x9 PUSH1 0x20 MSTORE PUSH1 0x1 PUSH1 0x40 PUSH1 0x0 KECCAK256 SLOAD AND ISZERO SWAP1 DUP2 PUSH2 0x1F34 JUMPI JUMPDEST POP PUSH2 0x1F0E JUMPI JUMPDEST PUSH1 0x1 SWAP3 DUP3 PUSH1 0x0 MSTORE PUSH1 0x9 PUSH1 0x20 MSTORE PUSH1 0x40 PUSH1 0x0 KECCAK256 SWAP1 DUP3 DUP3 SLOAD SWAP2 DUP3 AND OR SWAP1 PUSH1 0xFF NOT AND OR SWAP1 SSTORE PUSH1 0x40 MLOAD SWAP1 DUP2 MSTORE PUSH1 0x0 DUP1 MLOAD PUSH1 0x20 PUSH2 0x40D6 DUP4 CODECOPY DUP2 MLOAD SWAP2 MSTORE PUSH1 0x20 CALLER SWAP3 LOG4 STOP JUMPDEST PUSH1 0xA SLOAD SWAP3 DUP1 DUP5 AND SWAP4 DUP2 DUP6 EQ PUSH2 0xC5E JUMPI DUP2 PUSH1 0x1 DUP1 SWAP7 ADD AND SWAP1 PUSH1 0xFF NOT AND OR PUSH1 0xA SSTORE SWAP3 POP PUSH2 0x1ED1 JUMP JUMPDEST PUSH1 0x1 SWAP2 POP AND ISZERO ISZERO DUP5 PUSH2 0x1ECB JUMP JUMPDEST POP PUSH1 0xF DUP4 DUP2 OR DUP6 AND EQ PUSH2 0x1E87 JUMP JUMPDEST CALLVALUE PUSH2 0x334 JUMPI PUSH1 0x40 CALLDATASIZE PUSH1 0x3 NOT ADD SLT PUSH2 0x334 JUMPI PUSH1 0x4 CALLDATALOAD PUSH1 0x0 MSTORE PUSH1 0x13 PUSH1 0x20 MSTORE PUSH1 0x40 PUSH1 0x0 KECCAK256 PUSH1 0x24 CALLDATALOAD PUSH1 0x0 MSTORE PUSH1 0x20 MSTORE PUSH1 0x20 PUSH1 0x40 PUSH1 0x0 KECCAK256 SLOAD PUSH1 0x40 MLOAD SWAP1 DUP2 MSTORE RETURN JUMPDEST CALLVALUE PUSH2 0x334 JUMPI PUSH1 0x40 CALLDATASIZE PUSH1 0x3 NOT ADD SLT PUSH2 0x334 JUMPI PUSH2 0xF6E PUSH2 0x1FA5 PUSH2 0x2ACB JUMP JUMPDEST CALLER PUSH1 0x0 MSTORE PUSH1 0x1 PUSH1 0x20 MSTORE PUSH1 0x40 PUSH1 0x0 KECCAK256 PUSH1 0x1 DUP1 PUSH1 0xA0 SHL SUB DUP3 AND PUSH1 0x0 MSTORE PUSH1 0x20 MSTORE PUSH2 0x1FD3 PUSH1 0x24 CALLDATALOAD PUSH1 0x40 PUSH1 0x0 KECCAK256 SLOAD PUSH2 0x2CB5 JUMP JUMPDEST SWAP1 CALLER PUSH2 0x2CC2 JUMP JUMPDEST CALLVALUE PUSH2 0x334 JUMPI PUSH1 0x0 CALLDATASIZE PUSH1 0x3 NOT ADD SLT PUSH2 0x334 JUMPI PUSH1 0x20 PUSH1 0x40 MLOAD PUSH32 0x0 DUP2 MSTORE RETURN JUMPDEST CALLVALUE PUSH2 0x334 JUMPI PUSH1 0x20 CALLDATASIZE PUSH1 0x3 NOT ADD SLT PUSH2 0x334 JUMPI PUSH1 0x1 PUSH1 0x1 PUSH1 0xA0 SHL SUB PUSH2 0x2036 PUSH2 0x2ACB JUMP JUMPDEST AND PUSH1 0x0 MSTORE PUSH1 0x0 PUSH1 0x20 MSTORE PUSH1 0x20 PUSH1 0x40 PUSH1 0x0 KECCAK256 SLOAD PUSH1 0x40 MLOAD SWAP1 DUP2 MSTORE RETURN JUMPDEST CALLVALUE PUSH2 0x334 JUMPI PUSH1 0x0 CALLDATASIZE PUSH1 0x3 NOT ADD SLT PUSH2 0x334 JUMPI PUSH1 0x20 PUSH1 0xFF PUSH1 0xF SLOAD AND PUSH1 0x40 MLOAD SWAP1 DUP2 MSTORE RETURN JUMPDEST CALLVALUE PUSH2 0x334 JUMPI PUSH2 0x36D PUSH2 0x2081 CALLDATASIZE PUSH2 0x2B25 JUMP JUMPDEST SWAP2 PUSH2 0x3D8E JUMP JUMPDEST CALLVALUE PUSH2 0x334 JUMPI PUSH1 0x0 CALLDATASIZE PUSH1 0x3 NOT ADD SLT PUSH2 0x334 JUMPI PUSH1 0x20 PUSH1 0x10 SLOAD PUSH1 0x40 MLOAD SWAP1 DUP2 MSTORE RETURN JUMPDEST CALLVALUE PUSH2 0x334 JUMPI PUSH2 0x20B3 CALLDATASIZE PUSH2 0x2B25 JUMP JUMPDEST SWAP1 PUSH1 0x1 PUSH1 0x1 PUSH1 0xA0 SHL SUB DUP1 DUP3 AND ISZERO ISZERO DUP1 PUSH2 0x2268 JUMPI JUMPDEST PUSH2 0x20D0 SWAP1 PUSH2 0x309F JUMP JUMPDEST DUP4 AND SWAP1 DUP2 PUSH1 0x0 MSTORE PUSH1 0x20 SWAP3 PUSH1 0x1 DUP5 MSTORE PUSH1 0x40 PUSH1 0x0 KECCAK256 CALLER PUSH1 0x0 MSTORE DUP5 MSTORE PUSH1 0x40 PUSH1 0x0 KECCAK256 SLOAD DUP1 DUP3 GT PUSH2 0x2202 JUMPI PUSH2 0x2101 DUP3 DUP5 DUP9 PUSH2 0x3D8E JUMP JUMPDEST PUSH2 0x210B DUP3 DUP8 PUSH2 0x3A6D JUMP JUMPDEST SWAP1 PUSH2 0x2128 DUP3 MLOAD SWAP4 PUSH2 0x2121 DUP9 DUP6 ADD SWAP6 DUP7 MLOAD SWAP1 PUSH2 0x2CB5 JUMP JUMPDEST LT ISZERO PUSH2 0x3632 JUMP JUMPDEST DUP2 MLOAD SWAP2 DUP3 PUSH2 0x21E2 JUMPI JUMPDEST POP POP POP MLOAD SWAP2 DUP3 PUSH2 0x2146 JUMPI JUMPDEST DUP4 PUSH1 0x40 MLOAD PUSH1 0x1 DUP2 MSTORE RETURN JUMPDEST PUSH1 0x0 MSTORE PUSH1 0x1 DUP4 MSTORE PUSH1 0x40 PUSH1 0x0 KECCAK256 CALLER PUSH1 0x0 MSTORE DUP4 MSTORE PUSH1 0x40 PUSH1 0x0 KECCAK256 SLOAD SWAP4 PUSH1 0x0 NOT DUP6 SUB PUSH2 0x217D JUMPI JUMPDEST PUSH2 0x2174 SWAP4 SWAP5 POP PUSH2 0x36CB JUMP JUMPDEST DUP1 DUP3 DUP1 DUP1 PUSH2 0x213C JUMP JUMPDEST DUP3 DUP6 LT PUSH2 0x219D JUMPI PUSH2 0x2195 DUP4 PUSH2 0x2174 SWAP6 SWAP7 SUB CALLER DUP4 PUSH2 0x2CC2 JUMP JUMPDEST DUP5 SWAP4 POP PUSH2 0x2169 JUMP JUMPDEST PUSH1 0x40 MLOAD PUSH3 0x461BCD PUSH1 0xE5 SHL DUP2 MSTORE PUSH1 0x4 DUP2 ADD DUP6 SWAP1 MSTORE PUSH1 0x1D PUSH1 0x24 DUP3 ADD MSTORE PUSH32 0x45524332303A20696E73756666696369656E7420616C6C6F77616E6365000000 PUSH1 0x44 DUP3 ADD MSTORE PUSH1 0x64 SWAP1 REVERT JUMPDEST PUSH2 0x21F0 PUSH2 0x21FA SWAP4 DUP7 ADDRESS PUSH2 0x36CB JUMP JUMPDEST MLOAD SWAP1 SUB CALLER DUP8 PUSH2 0x2CC2 JUMP JUMPDEST DUP6 DUP1 DUP1 PUSH2 0x2131 JUMP JUMPDEST PUSH1 0x40 MLOAD PUSH3 0x461BCD PUSH1 0xE5 SHL DUP2 MSTORE PUSH1 0x4 DUP2 ADD DUP7 SWAP1 MSTORE PUSH1 0x38 PUSH1 0x24 DUP3 ADD MSTORE PUSH32 0x54686520617070726F76656420616C6C6F77616E6365206973206C6F77657220 PUSH1 0x44 DUP3 ADD MSTORE PUSH24 0x1D1A185B881D1A19481D1C985B9CD9995C88185B5BDD5B9D PUSH1 0x42 SHL PUSH1 0x64 DUP3 ADD MSTORE PUSH1 0x84 SWAP1 REVERT JUMPDEST POP DUP4 DUP2 AND ISZERO ISZERO PUSH2 0x20C7 JUMP JUMPDEST CALLVALUE PUSH2 0x334 JUMPI PUSH2 0x2281 CALLDATASIZE PUSH2 0x2B07 JUMP JUMPDEST SWAP1 SWAP3 SWAP2 SWAP3 PUSH32 0x0 DUP5 GT PUSH2 0x245C JUMPI PUSH1 0x1 DUP4 LT PUSH2 0x2429 JUMPI PUSH2 0x2710 DUP1 DUP3 GT PUSH2 0x23F3 JUMPI PUSH1 0x1 DUP5 GT ISZERO PUSH2 0x23A1 JUMPI POP DUP2 ISZERO PUSH2 0x236F JUMPI JUMPDEST PUSH1 0x40 MLOAD SWAP3 PUSH2 0x22DC DUP5 PUSH2 0x2B5A JUMP JUMPDEST DUP4 MSTORE PUSH1 0x20 DUP4 ADD SWAP4 DUP5 MSTORE PUSH1 0x40 DUP4 ADD SWAP1 DUP2 MSTORE PUSH1 0x60 DUP4 ADD SWAP2 DUP3 MSTORE PUSH1 0xC SLOAD PUSH1 0x1 PUSH1 0x40 SHL DUP2 LT ISZERO PUSH2 0xC48 JUMPI DUP1 PUSH1 0x1 PUSH2 0x2312 SWAP3 ADD PUSH1 0xC SSTORE PUSH2 0x2BCE JUMP JUMPDEST SWAP5 SWAP1 SWAP5 PUSH2 0xCBE JUMPI PUSH1 0x3 SWAP4 MLOAD DUP6 SSTORE MLOAD PUSH1 0x1 DUP6 ADD SSTORE MLOAD PUSH1 0x2 DUP5 ADD SSTORE MLOAD SWAP2 ADD SSTORE PUSH1 0xC SLOAD PUSH1 0x0 NOT DUP2 ADD SWAP1 DUP2 GT PUSH2 0xC5E JUMPI PUSH1 0x40 MLOAD PUSH1 0x20 SWAP2 DUP1 CALLER PUSH32 0x9C52CB9BBB9B7FA6DDB26D1E82AFC4E62C9EC50C0F3488C10BB8AD22D4EDC4C3 PUSH1 0x0 DUP1 LOG3 DUP2 MSTORE RETURN JUMPDEST PUSH1 0x40 MLOAD PUSH3 0x461BCD PUSH1 0xE5 SHL DUP2 MSTORE PUSH1 0x20 PUSH1 0x4 DUP3 ADD MSTORE PUSH1 0xA PUSH1 0x24 DUP3 ADD MSTORE PUSH10 0x706572696F64203D203 PUSH1 0xB4 SHL PUSH1 0x44 DUP3 ADD MSTORE PUSH1 0x64 SWAP1 REVERT JUMPDEST PUSH1 0x1 DUP5 EQ PUSH2 0x23B0 JUMPI JUMPDEST POP PUSH2 0x22CF JUMP JUMPDEST DUP2 SUB PUSH2 0x23BC JUMPI DUP5 PUSH2 0x23AA JUMP JUMPDEST PUSH1 0x40 MLOAD PUSH3 0x461BCD PUSH1 0xE5 SHL DUP2 MSTORE PUSH1 0x20 PUSH1 0x4 DUP3 ADD MSTORE PUSH1 0xF PUSH1 0x24 DUP3 ADD MSTORE PUSH15 0x72656C6561736564203C2031303025 PUSH1 0x88 SHL PUSH1 0x44 DUP3 ADD MSTORE PUSH1 0x64 SWAP1 REVERT JUMPDEST PUSH1 0x40 MLOAD PUSH3 0x461BCD PUSH1 0xE5 SHL DUP2 MSTORE PUSH1 0x20 PUSH1 0x4 DUP3 ADD MSTORE PUSH1 0xE PUSH1 0x24 DUP3 ADD MSTORE PUSH14 0x72656C65617365203E2031303025 PUSH1 0x90 SHL PUSH1 0x44 DUP3 ADD MSTORE PUSH1 0x64 SWAP1 REVERT JUMPDEST PUSH1 0x40 MLOAD PUSH3 0x461BCD PUSH1 0xE5 SHL DUP2 MSTORE PUSH1 0x20 PUSH1 0x4 DUP3 ADD MSTORE PUSH1 0xB PUSH1 0x24 DUP3 ADD MSTORE PUSH11 0x3C20312072656C65617365 PUSH1 0xA8 SHL PUSH1 0x44 DUP3 ADD MSTORE PUSH1 0x64 SWAP1 REVERT JUMPDEST PUSH1 0x40 MLOAD PUSH3 0x461BCD PUSH1 0xE5 SHL DUP2 MSTORE PUSH1 0x20 PUSH1 0x4 DUP3 ADD MSTORE PUSH1 0x13 PUSH1 0x24 DUP3 ADD MSTORE PUSH19 0xCCD2E4E6E840E4CAD8CAC2E6CA407C40DAC2F PUSH1 0x6B SHL PUSH1 0x44 DUP3 ADD MSTORE PUSH1 0x64 SWAP1 REVERT JUMPDEST CALLVALUE PUSH2 0x334 JUMPI PUSH1 0x0 CALLDATASIZE PUSH1 0x3 NOT ADD SLT PUSH2 0x334 JUMPI PUSH1 0x20 PUSH1 0x2 SLOAD PUSH1 0x40 MLOAD SWAP1 DUP2 MSTORE RETURN JUMPDEST CALLVALUE PUSH2 0x334 JUMPI PUSH1 0x0 CALLDATASIZE PUSH1 0x3 NOT ADD SLT PUSH2 0x334 JUMPI PUSH1 0x20 PUSH1 0x40 MLOAD PUSH32 0x0 DUP2 MSTORE RETURN JUMPDEST CALLVALUE PUSH2 0x334 JUMPI PUSH1 0xC0 CALLDATASIZE PUSH1 0x3 NOT ADD SLT PUSH2 0x334 JUMPI PUSH2 0x2509 PUSH2 0x2ACB JUMP JUMPDEST PUSH1 0x24 SWAP1 PUSH1 0x1 PUSH1 0x1 PUSH1 0xA0 SHL SUB PUSH1 0xA4 CALLDATALOAD DUP2 DUP2 AND SWAP3 SWAP2 DUP5 CALLDATALOAD SWAP1 DUP5 DUP4 SUB PUSH2 0x334 JUMPI DUP4 AND DUP1 PUSH1 0x0 MSTORE PUSH1 0x20 SWAP5 PUSH1 0xD DUP7 MSTORE DUP3 PUSH1 0x40 PUSH1 0x0 KECCAK256 SLOAD GT ISZERO PUSH2 0x27DC JUMPI DUP1 ISZERO PUSH2 0x279F JUMPI DUP2 PUSH1 0x0 MSTORE PUSH1 0xD DUP7 MSTORE PUSH2 0x255C DUP4 PUSH1 0x40 PUSH1 0x0 KECCAK256 PUSH2 0x2C99 JUMP JUMPDEST POP SWAP5 PUSH2 0x2567 DUP7 PUSH2 0x34CC JUMP JUMPDEST ISZERO PUSH2 0x2747 JUMPI PUSH1 0x44 CALLDATALOAD DUP7 SLOAD SUB PUSH2 0x26F8 JUMPI PUSH1 0x64 CALLDATALOAD PUSH1 0x1 DUP8 ADD SLOAD SUB PUSH2 0x269E JUMPI PUSH1 0x3 DUP7 ADD SWAP5 PUSH1 0x84 CALLDATALOAD DUP7 SLOAD SUB PUSH2 0x264E JUMPI PUSH2 0x259C DUP6 DUP4 PUSH2 0x356D JUMP JUMPDEST SWAP2 DUP3 ISZERO PUSH2 0x260D JUMPI PUSH1 0x2 SWAP8 SWAP9 SWAP10 POP DUP3 SWAP2 DUP2 PUSH2 0x25C5 PUSH2 0x25BC DUP10 PUSH2 0x25CB SWAP6 PUSH2 0x35A7 JUMP JUMPDEST SWAP6 DUP7 SWAP4 ADDRESS PUSH2 0x32BC JUMP JUMPDEST ADDRESS PUSH2 0x32BC JUMP JUMPDEST PUSH1 0x40 MLOAD SWAP3 DUP4 MSTORE DUP9 DUP4 ADD MSTORE PUSH1 0x40 DUP3 ADD MSTORE PUSH32 0x6945F4788D8A6B16089D616D1F7BB52372BFDBC43ADDD3386A7842DB4199986A PUSH1 0x60 CALLER SWAP3 LOG4 SLOAD SWAP2 ADD SSTORE PUSH1 0x40 MLOAD PUSH1 0x1 DUP2 MSTORE RETURN JUMPDEST PUSH1 0x40 MLOAD PUSH3 0x461BCD PUSH1 0xE5 SHL DUP2 MSTORE PUSH1 0x4 DUP2 ADD DUP11 SWAP1 MSTORE PUSH1 0x1A DUP2 DUP13 ADD MSTORE PUSH26 0x151A5B595B1BD8DAC81A185CC81B9BC81D985B1D59481B19599D PUSH1 0x32 SHL PUSH1 0x44 DUP3 ADD MSTORE PUSH1 0x64 SWAP1 REVERT JUMPDEST PUSH1 0x40 MLOAD PUSH3 0x461BCD PUSH1 0xE5 SHL DUP2 MSTORE PUSH1 0x4 DUP2 ADD DUP10 SWAP1 MSTORE PUSH1 0x23 DUP2 DUP12 ADD MSTORE PUSH32 0x457870656374656420746F74616C416D6F756E7420646F6573206E6F74206D61 PUSH1 0x44 DUP3 ADD MSTORE PUSH3 0xE8C6D PUSH1 0xEB SHL PUSH1 0x64 DUP3 ADD MSTORE PUSH1 0x84 SWAP1 REVERT JUMPDEST PUSH1 0x40 MLOAD PUSH3 0x461BCD PUSH1 0xE5 SHL DUP2 MSTORE PUSH1 0x4 DUP2 ADD DUP9 SWAP1 MSTORE PUSH1 0x2D DUP2 DUP11 ADD MSTORE PUSH32 0x457870656374656420636F6D6D656E63656D656E7454696D657374616D702064 PUSH1 0x44 DUP3 ADD MSTORE PUSH13 0xDECAE640DCDEE840DAC2E8C6D PUSH1 0x9B SHL PUSH1 0x64 DUP3 ADD MSTORE PUSH1 0x84 SWAP1 REVERT JUMPDEST PUSH1 0x40 MLOAD PUSH3 0x461BCD PUSH1 0xE5 SHL DUP2 MSTORE PUSH1 0x4 DUP2 ADD DUP9 SWAP1 MSTORE PUSH1 0x22 DUP2 DUP11 ADD MSTORE PUSH32 0x4578706563746564207363686564756C65496420646F6573206E6F74206D6174 PUSH1 0x44 DUP3 ADD MSTORE PUSH2 0xC6D PUSH1 0xF3 SHL PUSH1 0x64 DUP3 ADD MSTORE PUSH1 0x84 SWAP1 REVERT JUMPDEST PUSH1 0x40 MLOAD PUSH3 0x461BCD PUSH1 0xE5 SHL DUP2 MSTORE PUSH1 0x4 DUP2 ADD DUP9 SWAP1 MSTORE PUSH1 0x2B DUP2 DUP11 ADD MSTORE PUSH32 0x596F7520617265206E6F7420616C6C6F77656420746F2063616E63656C207468 PUSH1 0x44 DUP3 ADD MSTORE PUSH11 0x69732074696D656C6F636B PUSH1 0xA8 SHL PUSH1 0x64 DUP3 ADD MSTORE PUSH1 0x84 SWAP1 REVERT JUMPDEST PUSH1 0x40 MLOAD PUSH3 0x461BCD PUSH1 0xE5 SHL DUP2 MSTORE PUSH1 0x4 DUP2 ADD DUP8 SWAP1 MSTORE PUSH1 0x16 DUP2 DUP10 ADD MSTORE PUSH22 0x496E76616C6964207265636C61696D546F6B656E546F PUSH1 0x50 SHL PUSH1 0x44 DUP3 ADD MSTORE PUSH1 0x64 SWAP1 REVERT JUMPDEST PUSH1 0x40 MLOAD PUSH3 0x461BCD PUSH1 0xE5 SHL DUP2 MSTORE PUSH1 0x4 DUP2 ADD DUP8 SWAP1 MSTORE PUSH1 0x10 DUP2 DUP10 ADD MSTORE PUSH16 0x696E76616C69642074696D656C6F636B PUSH1 0x80 SHL PUSH1 0x44 DUP3 ADD MSTORE PUSH1 0x64 SWAP1 REVERT JUMPDEST CALLVALUE PUSH2 0x334 JUMPI PUSH1 0x40 CALLDATASIZE PUSH1 0x3 NOT ADD SLT PUSH2 0x334 JUMPI PUSH1 0x20 PUSH2 0x420 PUSH2 0x2831 PUSH2 0x2ACB JUMP JUMPDEST PUSH1 0x24 CALLDATALOAD SWAP1 PUSH2 0x3610 JUMP JUMPDEST CALLVALUE PUSH2 0x334 JUMPI PUSH1 0x40 CALLDATASIZE PUSH1 0x3 NOT ADD SLT PUSH2 0x334 JUMPI PUSH2 0xF6E PUSH2 0x2856 PUSH2 0x2ACB JUMP JUMPDEST PUSH1 0x24 CALLDATALOAD SWAP1 CALLER PUSH2 0x2CC2 JUMP JUMPDEST CALLVALUE PUSH2 0x334 JUMPI PUSH1 0x40 CALLDATASIZE PUSH1 0x3 NOT ADD SLT PUSH2 0x334 JUMPI PUSH2 0x2879 PUSH2 0x2ACB JUMP JUMPDEST PUSH2 0x2881 PUSH2 0x2AF7 JUMP JUMPDEST SWAP1 PUSH1 0xFF DUP1 DUP4 AND SWAP1 DUP2 ISZERO ISZERO DUP1 PUSH2 0x29CE JUMPI JUMPDEST PUSH2 0x289A SWAP1 PUSH2 0x3058 JUMP JUMPDEST PUSH1 0x1 PUSH1 0x1 PUSH1 0xA0 SHL SUB DUP4 AND SWAP3 PUSH2 0x28C7 SWAP1 DUP6 SWAP1 PUSH2 0x28B6 DUP7 ISZERO ISZERO PUSH2 0x309F JUMP JUMPDEST PUSH2 0x28C2 PUSH2 0x127C CALLER PUSH2 0x3139 JUMP JUMPDEST PUSH2 0x3163 JUMP JUMPDEST ISZERO PUSH2 0x2993 JUMPI PUSH1 0x1 DUP5 AND PUSH2 0x2911 JUMPI JUMPDEST PUSH1 0x0 SWAP4 DUP4 DUP6 MSTORE PUSH1 0x9 PUSH1 0x20 MSTORE PUSH1 0x40 DUP6 KECCAK256 SWAP2 DUP3 SLOAD SWAP2 DUP2 DUP4 AND XOR AND SWAP1 PUSH1 0xFF NOT AND OR SWAP1 SSTORE PUSH1 0x40 MLOAD SWAP1 DUP2 MSTORE PUSH1 0x0 DUP1 MLOAD PUSH1 0x20 PUSH2 0x40D6 DUP4 CODECOPY DUP2 MLOAD SWAP2 MSTORE PUSH1 0x20 CALLER SWAP3 LOG4 STOP JUMPDEST PUSH1 0xA SLOAD SWAP4 DUP2 DUP6 AND SWAP5 PUSH1 0x1 DUP7 GT ISZERO PUSH2 0x2940 JUMPI DUP6 ISZERO PUSH2 0xC5E JUMPI PUSH1 0xFF NOT AND PUSH1 0x0 NOT SWAP1 SWAP6 ADD DUP3 AND SWAP5 SWAP1 SWAP5 OR PUSH1 0xA SSTORE PUSH2 0x28D5 JUMP JUMPDEST PUSH1 0x40 MLOAD PUSH3 0x461BCD PUSH1 0xE5 SHL DUP2 MSTORE PUSH1 0x20 PUSH1 0x4 DUP3 ADD MSTORE PUSH1 0x25 PUSH1 0x24 DUP3 ADD MSTORE PUSH32 0x4D7573742068617665206174206C65617374206F6E6520636F6E747261637420 PUSH1 0x44 DUP3 ADD MSTORE PUSH5 0x30B236B4B7 PUSH1 0xD9 SHL PUSH1 0x64 DUP3 ADD MSTORE PUSH1 0x84 SWAP1 REVERT JUMPDEST PUSH1 0x40 MLOAD PUSH3 0x461BCD PUSH1 0xE5 SHL DUP2 MSTORE PUSH1 0x20 PUSH1 0x4 DUP3 ADD MSTORE PUSH1 0x13 PUSH1 0x24 DUP3 ADD MSTORE PUSH19 0x43414E204E4F54205245564F4B4520524F4C45 PUSH1 0x68 SHL PUSH1 0x44 DUP3 ADD MSTORE PUSH1 0x64 SWAP1 REVERT JUMPDEST POP PUSH1 0xF DUP5 DUP2 OR DUP3 AND EQ PUSH2 0x2891 JUMP JUMPDEST CALLVALUE PUSH2 0x334 JUMPI PUSH1 0x0 CALLDATASIZE PUSH1 0x3 NOT ADD SLT PUSH2 0x334 JUMPI PUSH1 0x0 SWAP1 PUSH1 0x3 SLOAD PUSH1 0x1 DUP2 DUP2 SHR SWAP1 DUP1 DUP4 AND SWAP3 DUP4 ISZERO PUSH2 0x2A72 JUMPI JUMPDEST PUSH1 0x20 SWAP4 DUP5 DUP5 LT DUP2 EQ PUSH2 0x13A0 JUMPI DUP4 DUP7 MSTORE SWAP1 DUP2 ISZERO PUSH2 0x1380 JUMPI POP PUSH1 0x1 EQ PUSH2 0x2A32 JUMPI PUSH2 0x4A8 DUP5 PUSH2 0x1334 DUP2 DUP9 SUB DUP3 PUSH2 0x2BAB JUMP JUMPDEST SWAP2 SWAP4 POP PUSH1 0x3 PUSH1 0x0 MSTORE DUP4 PUSH1 0x0 KECCAK256 SWAP2 PUSH1 0x0 SWAP3 JUMPDEST DUP3 DUP5 LT PUSH2 0x2A5F JUMPI POP POP POP DUP2 PUSH2 0x4A8 SWAP4 PUSH2 0x1334 SWAP3 DUP3 ADD ADD SWAP4 PUSH2 0x1324 JUMP JUMPDEST DUP1 SLOAD DUP6 DUP6 ADD DUP8 ADD MSTORE SWAP3 DUP6 ADD SWAP3 DUP2 ADD PUSH2 0x2A43 JUMP JUMPDEST SWAP2 PUSH1 0x7F AND SWAP2 PUSH2 0x2A04 JUMP JUMPDEST PUSH1 0x0 JUMPDEST DUP4 DUP2 LT PUSH2 0x2A8F JUMPI POP POP PUSH1 0x0 SWAP2 ADD MSTORE JUMP JUMPDEST DUP2 DUP2 ADD MLOAD DUP4 DUP3 ADD MSTORE PUSH1 0x20 ADD PUSH2 0x2A7F JUMP JUMPDEST PUSH1 0x40 SWAP2 PUSH1 0x20 DUP3 MSTORE PUSH2 0x2ABF DUP2 MLOAD DUP1 SWAP3 DUP2 PUSH1 0x20 DUP7 ADD MSTORE PUSH1 0x20 DUP7 DUP7 ADD SWAP2 ADD PUSH2 0x2A7C JUMP JUMPDEST PUSH1 0x1F ADD PUSH1 0x1F NOT AND ADD ADD SWAP1 JUMP JUMPDEST PUSH1 0x4 CALLDATALOAD SWAP1 PUSH1 0x1 PUSH1 0x1 PUSH1 0xA0 SHL SUB DUP3 AND DUP3 SUB PUSH2 0x334 JUMPI JUMP JUMPDEST PUSH1 0x24 CALLDATALOAD SWAP1 PUSH1 0x1 PUSH1 0x1 PUSH1 0xA0 SHL SUB DUP3 AND DUP3 SUB PUSH2 0x334 JUMPI JUMP JUMPDEST PUSH1 0x24 CALLDATALOAD SWAP1 PUSH1 0xFF DUP3 AND DUP3 SUB PUSH2 0x334 JUMPI JUMP JUMPDEST PUSH1 0x80 SWAP1 PUSH1 0x3 NOT ADD SLT PUSH2 0x334 JUMPI PUSH1 0x4 CALLDATALOAD SWAP1 PUSH1 0x24 CALLDATALOAD SWAP1 PUSH1 0x44 CALLDATALOAD SWAP1 PUSH1 0x64 CALLDATALOAD SWAP1 JUMP JUMPDEST PUSH1 0x60 SWAP1 PUSH1 0x3 NOT ADD SLT PUSH2 0x334 JUMPI PUSH1 0x1 PUSH1 0x1 PUSH1 0xA0 SHL SUB SWAP1 PUSH1 0x4 CALLDATALOAD DUP3 DUP2 AND DUP2 SUB PUSH2 0x334 JUMPI SWAP2 PUSH1 0x24 CALLDATALOAD SWAP1 DUP2 AND DUP2 SUB PUSH2 0x334 JUMPI SWAP1 PUSH1 0x44 CALLDATALOAD SWAP1 JUMP JUMPDEST PUSH1 0x80 DUP2 ADD SWAP1 DUP2 LT PUSH1 0x1 PUSH1 0x1 PUSH1 0x40 SHL SUB DUP3 GT OR PUSH2 0xC48 JUMPI PUSH1 0x40 MSTORE JUMP JUMPDEST PUSH1 0xA0 DUP2 ADD SWAP1 DUP2 LT PUSH1 0x1 PUSH1 0x1 PUSH1 0x40 SHL SUB DUP3 GT OR PUSH2 0xC48 JUMPI PUSH1 0x40 MSTORE JUMP JUMPDEST PUSH1 0x40 DUP2 ADD SWAP1 DUP2 LT PUSH1 0x1 PUSH1 0x1 PUSH1 0x40 SHL SUB DUP3 GT OR PUSH2 0xC48 JUMPI PUSH1 0x40 MSTORE JUMP JUMPDEST PUSH1 0x1F SWAP1 SWAP2 ADD PUSH1 0x1F NOT AND DUP2 ADD SWAP1 PUSH1 0x1 PUSH1 0x1 PUSH1 0x40 SHL SUB DUP3 GT SWAP1 DUP3 LT OR PUSH2 0xC48 JUMPI PUSH1 0x40 MSTORE JUMP JUMPDEST PUSH1 0xC SLOAD DUP2 LT ISZERO PUSH2 0x2BED JUMPI PUSH1 0xC PUSH1 0x0 MSTORE PUSH1 0x20 PUSH1 0x0 KECCAK256 SWAP1 PUSH1 0x2 SHL ADD SWAP1 PUSH1 0x0 SWAP1 JUMP JUMPDEST PUSH4 0x4E487B71 PUSH1 0xE0 SHL PUSH1 0x0 MSTORE PUSH1 0x32 PUSH1 0x4 MSTORE PUSH1 0x24 PUSH1 0x0 REVERT JUMPDEST SWAP1 SWAP3 SWAP2 PUSH1 0x1 PUSH1 0x1 PUSH1 0x40 SHL SUB DUP5 GT PUSH2 0xC48 JUMPI DUP4 PUSH1 0x5 SHL PUSH1 0x40 MLOAD SWAP3 PUSH1 0x20 DUP1 SWAP5 PUSH2 0x2C2C DUP3 DUP6 ADD DUP3 PUSH2 0x2BAB JUMP JUMPDEST DUP1 SWAP8 DUP2 MSTORE ADD SWAP2 DUP2 ADD SWAP3 DUP4 GT PUSH2 0x334 JUMPI SWAP1 JUMPDEST DUP3 DUP3 LT PUSH2 0x2C4A JUMPI POP POP POP POP JUMP JUMPDEST DUP2 CALLDATALOAD PUSH1 0x1 PUSH1 0x1 PUSH1 0xA0 SHL SUB DUP2 AND DUP2 SUB PUSH2 0x334 JUMPI DUP2 MSTORE SWAP1 DUP4 ADD SWAP1 DUP4 ADD PUSH2 0x2C3D JUMP JUMPDEST SWAP2 DUP2 PUSH1 0x1F DUP5 ADD SLT ISZERO PUSH2 0x334 JUMPI DUP3 CALLDATALOAD SWAP2 PUSH1 0x1 PUSH1 0x1 PUSH1 0x40 SHL SUB DUP4 GT PUSH2 0x334 JUMPI PUSH1 0x20 DUP1 DUP6 ADD SWAP5 DUP5 PUSH1 0x5 SHL ADD ADD GT PUSH2 0x334 JUMPI JUMP JUMPDEST DUP1 SLOAD DUP3 LT ISZERO PUSH2 0x2BED JUMPI PUSH1 0x0 MSTORE PUSH1 0x5 PUSH1 0x20 PUSH1 0x0 KECCAK256 SWAP2 MUL ADD SWAP1 PUSH1 0x0 SWAP1 JUMP JUMPDEST SWAP2 SWAP1 DUP3 ADD DUP1 SWAP3 GT PUSH2 0xC5E JUMPI JUMP JUMPDEST PUSH1 0x1 PUSH1 0x1 PUSH1 0xA0 SHL SUB SWAP1 DUP2 AND SWAP2 DUP3 ISZERO PUSH2 0x2D73 JUMPI AND SWAP2 DUP3 ISZERO PUSH2 0x2D23 JUMPI PUSH1 0x20 PUSH32 0x8C5BE1E5EBEC7D5BD14F71427D1E84F3DD0314C0F7B2291E5B200AC8C7C3B925 SWAP2 DUP4 PUSH1 0x0 MSTORE PUSH1 0x1 DUP3 MSTORE PUSH1 0x40 PUSH1 0x0 KECCAK256 DUP6 PUSH1 0x0 MSTORE DUP3 MSTORE DUP1 PUSH1 0x40 PUSH1 0x0 KECCAK256 SSTORE PUSH1 0x40 MLOAD SWAP1 DUP2 MSTORE LOG3 JUMP JUMPDEST PUSH1 0x40 MLOAD PUSH3 0x461BCD PUSH1 0xE5 SHL DUP2 MSTORE PUSH1 0x20 PUSH1 0x4 DUP3 ADD MSTORE PUSH1 0x22 PUSH1 0x24 DUP3 ADD MSTORE PUSH32 0x45524332303A20617070726F766520746F20746865207A65726F206164647265 PUSH1 0x44 DUP3 ADD MSTORE PUSH2 0x7373 PUSH1 0xF0 SHL PUSH1 0x64 DUP3 ADD MSTORE PUSH1 0x84 SWAP1 REVERT JUMPDEST PUSH1 0x40 MLOAD PUSH3 0x461BCD PUSH1 0xE5 SHL DUP2 MSTORE PUSH1 0x20 PUSH1 0x4 DUP3 ADD MSTORE PUSH1 0x24 DUP1 DUP3 ADD MSTORE PUSH32 0x45524332303A20617070726F76652066726F6D20746865207A65726F20616464 PUSH1 0x44 DUP3 ADD MSTORE PUSH4 0x72657373 PUSH1 0xE0 SHL PUSH1 0x64 DUP3 ADD MSTORE PUSH1 0x84 SWAP1 REVERT JUMPDEST PUSH1 0x7 SLOAD DUP2 LT ISZERO PUSH2 0x2BED JUMPI PUSH1 0x7 PUSH1 0x0 MSTORE PUSH1 0x20 PUSH1 0x0 KECCAK256 ADD SWAP1 PUSH1 0x0 SWAP1 JUMP JUMPDEST PUSH1 0x6 SLOAD DUP2 LT ISZERO PUSH2 0x2BED JUMPI PUSH1 0x6 PUSH1 0x0 MSTORE PUSH1 0x20 PUSH1 0x0 KECCAK256 ADD SWAP1 PUSH1 0x0 SWAP1 JUMP JUMPDEST DUP1 SLOAD DUP3 LT ISZERO PUSH2 0x2BED JUMPI PUSH1 0x0 MSTORE PUSH1 0x20 PUSH1 0x0 KECCAK256 ADD SWAP1 PUSH1 0x0 SWAP1 JUMP JUMPDEST DUP1 ISZERO PUSH2 0x2E98 JUMPI PUSH1 0x8 SLOAD DUP2 GT PUSH2 0x2E53 JUMPI PUSH2 0x2E2A SWAP1 PUSH2 0x2F1A JUMP JUMPDEST PUSH1 0x6 SLOAD DUP2 SUB PUSH2 0x2E3C JUMPI POP PUSH1 0x0 SWAP1 PUSH1 0x0 SWAP1 JUMP JUMPDEST PUSH2 0x2E45 SWAP1 PUSH2 0x2DC4 JUMP JUMPDEST SWAP1 SLOAD SWAP1 PUSH1 0x3 SHL SHR SWAP1 PUSH1 0x1 SWAP2 SWAP1 JUMP JUMPDEST PUSH1 0x40 MLOAD PUSH3 0x461BCD PUSH1 0xE5 SHL DUP2 MSTORE PUSH1 0x20 PUSH1 0x4 DUP3 ADD MSTORE PUSH1 0x1D PUSH1 0x24 DUP3 ADD MSTORE PUSH32 0x4552433230536E617073686F743A206E6F6E6578697374656E74206964000000 PUSH1 0x44 DUP3 ADD MSTORE PUSH1 0x64 SWAP1 REVERT JUMPDEST PUSH1 0x40 MLOAD PUSH3 0x461BCD PUSH1 0xE5 SHL DUP2 MSTORE PUSH1 0x20 PUSH1 0x4 DUP3 ADD MSTORE PUSH1 0x16 PUSH1 0x24 DUP3 ADD MSTORE PUSH22 0x4552433230536E617073686F743A206964206973203 PUSH1 0x54 SHL PUSH1 0x44 DUP3 ADD MSTORE PUSH1 0x64 SWAP1 REVERT JUMPDEST DUP1 ISZERO PUSH2 0x2E98 JUMPI PUSH1 0x8 SLOAD DUP2 GT PUSH2 0x2E53 JUMPI PUSH2 0x2EEF SWAP1 DUP3 PUSH2 0x2FC2 JUMP JUMPDEST DUP2 SLOAD DUP2 SUB PUSH2 0x2F01 JUMPI POP POP PUSH1 0x0 SWAP1 PUSH1 0x0 SWAP1 JUMP JUMPDEST PUSH1 0x1 PUSH2 0x2E45 SWAP3 ADD PUSH2 0x2DFA JUMP JUMPDEST SWAP2 SWAP1 DUP3 SUB SWAP2 DUP3 GT PUSH2 0xC5E JUMPI JUMP JUMPDEST PUSH1 0x6 DUP1 SLOAD SWAP2 DUP3 ISZERO PUSH2 0x2FBA JUMPI PUSH1 0x0 SWAP3 JUMPDEST DUP1 DUP5 LT PUSH2 0x2F78 JUMPI POP DUP3 ISZERO ISZERO SWAP2 DUP3 PUSH2 0x2F54 JUMPI JUMPDEST POP POP ISZERO PUSH2 0x2F51 JUMPI PUSH1 0x0 NOT DUP2 ADD SWAP1 DUP2 GT PUSH2 0xC5E JUMPI SWAP1 JUMP JUMPDEST SWAP1 JUMP JUMPDEST SWAP1 SWAP2 POP PUSH1 0x0 NOT SWAP1 DUP4 DUP3 DUP2 ADD GT PUSH2 0xC5E JUMPI PUSH1 0x0 MSTORE DUP3 PUSH1 0x20 PUSH1 0x0 KECCAK256 ADD ADD SLOAD EQ CODESIZE DUP1 PUSH2 0x2F3B JUMP JUMPDEST PUSH1 0x1 SWAP1 PUSH2 0x2F8B DUP2 DUP7 XOR DUP4 SHR DUP3 DUP8 AND PUSH2 0x2CB5 JUMP JUMPDEST SWAP2 DUP5 PUSH1 0x0 MSTORE DUP4 DUP4 PUSH1 0x20 PUSH1 0x0 KECCAK256 ADD SLOAD GT PUSH1 0x0 EQ PUSH2 0x2FA8 JUMPI POP POP PUSH2 0x2F29 JUMP JUMPDEST SWAP1 SWAP5 POP DUP2 ADD DUP1 SWAP2 GT PUSH2 0xC5E JUMPI SWAP3 PUSH2 0x2F29 JUMP JUMPDEST POP POP POP PUSH1 0x0 SWAP1 JUMP JUMPDEST DUP1 SLOAD SWAP2 DUP3 ISZERO PUSH2 0x2FBA JUMPI PUSH1 0x0 SWAP3 JUMPDEST DUP1 DUP5 LT PUSH2 0x2FF6 JUMPI POP DUP3 ISZERO ISZERO SWAP2 DUP3 PUSH2 0x2F54 JUMPI POP POP ISZERO PUSH2 0x2F51 JUMPI PUSH1 0x0 NOT DUP2 ADD SWAP1 DUP2 GT PUSH2 0xC5E JUMPI SWAP1 JUMP JUMPDEST PUSH1 0x1 SWAP1 PUSH2 0x3009 DUP2 DUP7 XOR DUP4 SHR DUP3 DUP8 AND PUSH2 0x2CB5 JUMP JUMPDEST SWAP2 DUP5 PUSH1 0x0 MSTORE DUP4 DUP4 PUSH1 0x20 PUSH1 0x0 KECCAK256 ADD SLOAD GT PUSH1 0x0 EQ PUSH2 0x3026 JUMPI POP POP PUSH2 0x2FCF JUMP JUMPDEST SWAP1 SWAP5 POP DUP2 ADD DUP1 SWAP2 GT PUSH2 0xC5E JUMPI SWAP3 PUSH2 0x2FCF JUMP JUMPDEST DUP2 ISZERO PUSH2 0x3042 JUMPI DIV SWAP1 JUMP JUMPDEST PUSH4 0x4E487B71 PUSH1 0xE0 SHL PUSH1 0x0 MSTORE PUSH1 0x12 PUSH1 0x4 MSTORE PUSH1 0x24 PUSH1 0x0 REVERT JUMPDEST ISZERO PUSH2 0x305F JUMPI JUMP JUMPDEST PUSH1 0x40 MLOAD PUSH3 0x461BCD PUSH1 0xE5 SHL DUP2 MSTORE PUSH1 0x20 PUSH1 0x4 DUP3 ADD MSTORE PUSH1 0x18 PUSH1 0x24 DUP3 ADD MSTORE PUSH24 0x444F4553204E4F5420484156452056414C494420524F4C45 PUSH1 0x40 SHL PUSH1 0x44 DUP3 ADD MSTORE PUSH1 0x64 SWAP1 REVERT JUMPDEST ISZERO PUSH2 0x30A6 JUMPI JUMP JUMPDEST PUSH1 0x40 MLOAD PUSH3 0x461BCD PUSH1 0xE5 SHL DUP2 MSTORE PUSH1 0x20 PUSH1 0x4 DUP3 ADD MSTORE PUSH1 0x15 PUSH1 0x24 DUP3 ADD MSTORE PUSH21 0x416464726573732063616E6E6F742062652030783 PUSH1 0x5C SHL PUSH1 0x44 DUP3 ADD MSTORE PUSH1 0x64 SWAP1 REVERT JUMPDEST ISZERO PUSH2 0x30EA JUMPI JUMP JUMPDEST PUSH1 0x40 MLOAD PUSH3 0x461BCD PUSH1 0xE5 SHL DUP2 MSTORE PUSH1 0x20 PUSH1 0x4 DUP3 ADD MSTORE PUSH1 0x21 PUSH1 0x24 DUP3 ADD MSTORE PUSH32 0x444F4553204E4F54204841564520434F4E54524143542041444D494E20524F4C PUSH1 0x44 DUP3 ADD MSTORE PUSH1 0x45 PUSH1 0xF8 SHL PUSH1 0x64 DUP3 ADD MSTORE PUSH1 0x84 SWAP1 REVERT JUMPDEST PUSH1 0x1 PUSH1 0x1 PUSH1 0xA0 SHL SUB AND PUSH2 0x314D DUP2 ISZERO ISZERO PUSH2 0x309F JUMP JUMPDEST PUSH1 0x0 MSTORE PUSH1 0x9 PUSH1 0x20 MSTORE PUSH1 0x1 PUSH1 0x40 PUSH1 0x0 KECCAK256 SLOAD AND ISZERO ISZERO SWAP1 JUMP JUMPDEST SWAP1 PUSH1 0xFF SWAP2 DUP3 DUP3 AND ISZERO ISZERO DUP1 PUSH2 0x31A4 JUMPI JUMPDEST PUSH2 0x317B SWAP1 PUSH2 0x3058 JUMP JUMPDEST PUSH1 0x1 PUSH1 0x1 PUSH1 0xA0 SHL SUB AND PUSH2 0x318F DUP2 ISZERO ISZERO PUSH2 0x309F JUMP JUMPDEST PUSH1 0x0 MSTORE PUSH1 0x9 PUSH1 0x20 MSTORE PUSH1 0x40 PUSH1 0x0 KECCAK256 SLOAD AND AND ISZERO ISZERO SWAP1 JUMP JUMPDEST POP PUSH1 0xF DUP3 DUP2 OR DUP5 AND EQ PUSH2 0x3172 JUMP JUMPDEST PUSH1 0x1 PUSH1 0x1 PUSH1 0xA0 SHL SUB AND PUSH2 0x31C6 DUP2 ISZERO ISZERO PUSH2 0x309F JUMP JUMPDEST PUSH1 0x0 MSTORE PUSH1 0x9 PUSH1 0x20 MSTORE PUSH1 0x2 PUSH1 0x40 PUSH1 0x0 KECCAK256 SLOAD AND ISZERO ISZERO SWAP1 JUMP JUMPDEST PUSH1 0x1 PUSH1 0x1 PUSH1 0xA0 SHL SUB AND PUSH2 0x31F0 DUP2 ISZERO ISZERO PUSH2 0x309F JUMP JUMPDEST PUSH1 0x0 MSTORE PUSH1 0x9 PUSH1 0x20 MSTORE PUSH1 0x4 PUSH1 0x40 PUSH1 0x0 KECCAK256 SLOAD AND ISZERO ISZERO SWAP1 JUMP JUMPDEST PUSH1 0x1 PUSH1 0x1 PUSH1 0xA0 SHL SUB AND PUSH2 0x321A DUP2 ISZERO ISZERO PUSH2 0x309F JUMP JUMPDEST PUSH1 0x0 MSTORE PUSH1 0x9 PUSH1 0x20 MSTORE PUSH1 0x8 PUSH1 0x40 PUSH1 0x0 KECCAK256 SLOAD AND ISZERO ISZERO SWAP1 JUMP JUMPDEST ISZERO PUSH2 0x3237 JUMPI JUMP JUMPDEST PUSH1 0x64 PUSH1 0x40 MLOAD PUSH3 0x461BCD PUSH1 0xE5 SHL DUP2 MSTORE PUSH1 0x20 PUSH1 0x4 DUP3 ADD MSTORE PUSH1 0x20 PUSH1 0x24 DUP3 ADD MSTORE PUSH32 0x444F4553204E4F5420484156452057414C4C4554532041444D494E20524F4C45 PUSH1 0x44 DUP3 ADD MSTORE REVERT JUMPDEST DUP2 DUP2 MUL SWAP3 SWAP2 DUP2 ISZERO SWAP2 DUP5 DIV EQ OR ISZERO PUSH2 0xC5E JUMPI JUMP JUMPDEST PUSH1 0x40 MLOAD SWAP1 PUSH2 0x329B DUP3 PUSH2 0x2B75 JUMP JUMPDEST PUSH1 0x60 PUSH1 0x80 DUP4 PUSH1 0x0 DUP2 MSTORE PUSH1 0x0 PUSH1 0x20 DUP3 ADD MSTORE PUSH1 0x0 PUSH1 0x40 DUP3 ADD MSTORE PUSH1 0x0 DUP4 DUP3 ADD MSTORE ADD MSTORE JUMP JUMPDEST SWAP2 SWAP1 PUSH2 0x3365 SWAP2 PUSH1 0x0 DUP1 PUSH1 0x40 MLOAD SWAP4 PUSH1 0x20 SWAP7 DUP8 DUP7 ADD SWAP5 PUSH4 0xA9059CBB PUSH1 0xE0 SHL DUP7 MSTORE PUSH1 0x1 DUP1 PUSH1 0xA0 SHL SUB DUP1 SWAP4 AND PUSH1 0x24 DUP9 ADD MSTORE PUSH1 0x44 DUP8 ADD MSTORE PUSH1 0x44 DUP7 MSTORE PUSH2 0x32FB DUP7 PUSH2 0x2B5A JUMP JUMPDEST AND SWAP3 PUSH1 0x40 MLOAD SWAP5 PUSH2 0x330A DUP7 PUSH2 0x2B90 JUMP JUMPDEST DUP8 DUP7 MSTORE PUSH32 0x5361666545524332303A206C6F772D6C6576656C2063616C6C206661696C6564 DUP9 DUP8 ADD MSTORE MLOAD SWAP1 DUP3 DUP6 GAS CALL RETURNDATASIZE ISZERO PUSH2 0x33ED JUMPI RETURNDATASIZE SWAP2 PUSH2 0x3349 DUP4 PUSH2 0x33F5 JUMP JUMPDEST SWAP3 PUSH2 0x3357 PUSH1 0x40 MLOAD SWAP5 DUP6 PUSH2 0x2BAB JUMP JUMPDEST DUP4 MSTORE RETURNDATASIZE PUSH1 0x0 DUP8 DUP6 ADD RETURNDATACOPY PUSH2 0x3428 JUMP JUMPDEST DUP1 MLOAD SWAP1 DUP3 DUP3 ISZERO SWAP3 DUP4 ISZERO PUSH2 0x33D5 JUMPI JUMPDEST POP POP POP ISZERO PUSH2 0x337E JUMPI POP JUMP JUMPDEST PUSH1 0x84 SWAP1 PUSH1 0x40 MLOAD SWAP1 PUSH3 0x461BCD PUSH1 0xE5 SHL DUP3 MSTORE PUSH1 0x4 DUP3 ADD MSTORE PUSH1 0x2A PUSH1 0x24 DUP3 ADD MSTORE PUSH32 0x5361666545524332303A204552433230206F7065726174696F6E20646964206E PUSH1 0x44 DUP3 ADD MSTORE PUSH10 0x1BDD081CDD58D8D95959 PUSH1 0xB2 SHL PUSH1 0x64 DUP3 ADD MSTORE REVERT JUMPDEST PUSH2 0x33E5 SWAP4 POP DUP3 ADD DUP2 ADD SWAP2 ADD PUSH2 0x3410 JUMP JUMPDEST CODESIZE DUP3 DUP2 PUSH2 0x3373 JUMP JUMPDEST PUSH1 0x60 SWAP2 PUSH2 0x3428 JUMP JUMPDEST PUSH1 0x1 PUSH1 0x1 PUSH1 0x40 SHL SUB DUP2 GT PUSH2 0xC48 JUMPI PUSH1 0x1F ADD PUSH1 0x1F NOT AND PUSH1 0x20 ADD SWAP1 JUMP JUMPDEST SWAP1 DUP2 PUSH1 0x20 SWAP2 SUB SLT PUSH2 0x334 JUMPI MLOAD DUP1 ISZERO ISZERO DUP2 SUB PUSH2 0x334 JUMPI SWAP1 JUMP JUMPDEST SWAP2 SWAP3 SWAP1 ISZERO PUSH2 0x348A JUMPI POP DUP2 MLOAD ISZERO PUSH2 0x343C JUMPI POP SWAP1 JUMP JUMPDEST EXTCODESIZE ISZERO PUSH2 0x3445 JUMPI SWAP1 JUMP JUMPDEST PUSH1 0x40 MLOAD PUSH3 0x461BCD PUSH1 0xE5 SHL DUP2 MSTORE PUSH1 0x20 PUSH1 0x4 DUP3 ADD MSTORE PUSH1 0x1D PUSH1 0x24 DUP3 ADD MSTORE PUSH32 0x416464726573733A2063616C6C20746F206E6F6E2D636F6E7472616374000000 PUSH1 0x44 DUP3 ADD MSTORE PUSH1 0x64 SWAP1 REVERT JUMPDEST DUP3 MLOAD SWAP1 SWAP2 POP ISZERO PUSH2 0x349D JUMPI POP DUP1 MLOAD SWAP1 PUSH1 0x20 ADD REVERT JUMPDEST PUSH1 0x40 MLOAD PUSH3 0x461BCD PUSH1 0xE5 SHL DUP2 MSTORE SWAP1 DUP2 SWAP1 PUSH2 0x34B9 SWAP1 PUSH1 0x4 DUP4 ADD PUSH2 0x2A9F JUMP JUMPDEST SUB SWAP1 REVERT JUMPDEST PUSH1 0x0 NOT DUP2 EQ PUSH2 0xC5E JUMPI PUSH1 0x1 ADD SWAP1 JUMP JUMPDEST PUSH1 0x0 JUMPDEST PUSH1 0x4 DUP3 ADD DUP1 SLOAD DUP3 LT ISZERO PUSH2 0x2FBA JUMPI DUP2 PUSH2 0x34E6 SWAP2 PUSH2 0x2DFA JUMP JUMPDEST SWAP1 SLOAD CALLER PUSH1 0x3 SWAP3 SWAP1 SWAP3 SHL SHR PUSH1 0x1 PUSH1 0x1 PUSH1 0xA0 SHL SUB AND EQ PUSH2 0x3510 JUMPI PUSH2 0x3509 PUSH1 0x4 SWAP2 PUSH2 0x34BD JUMP JUMPDEST SWAP1 POP PUSH2 0x34CF JUMP JUMPDEST POP POP PUSH1 0x1 SWAP1 JUMP JUMPDEST ISZERO PUSH2 0x351E JUMPI JUMP JUMPDEST PUSH1 0x40 MLOAD PUSH3 0x461BCD PUSH1 0xE5 SHL DUP2 MSTORE PUSH1 0x20 PUSH1 0x4 DUP3 ADD MSTORE PUSH1 0x17 PUSH1 0x24 DUP3 ADD MSTORE PUSH23 0xDAD2E6DAC2E8C6D0CAC840C2E4E4C2F240D8CADCCEE8D PUSH1 0x4B SHL PUSH1 0x44 DUP3 ADD MSTORE PUSH1 0x64 SWAP1 REVERT JUMPDEST SWAP2 SWAP1 DUP2 LT ISZERO PUSH2 0x2BED JUMPI PUSH1 0x5 SHL ADD SWAP1 JUMP JUMPDEST PUSH2 0x3577 DUP3 DUP3 PUSH2 0x3BEE JUMP JUMPDEST SWAP1 PUSH1 0x40 PUSH1 0x60 DUP4 ADD MLOAD SWAP3 ADD MLOAD DUP3 GT ISZERO PUSH1 0x0 EQ PUSH2 0x3594 JUMPI POP POP POP PUSH1 0x0 SWAP1 JUMP JUMPDEST PUSH2 0x2F51 SWAP3 PUSH2 0x35A1 SWAP2 PUSH2 0x3610 JUMP JUMPDEST SWAP1 PUSH2 0x2F0D JUMP JUMPDEST PUSH2 0x35B1 DUP3 DUP3 PUSH2 0x3BEE JUMP JUMPDEST SWAP1 PUSH1 0x40 PUSH1 0x60 DUP4 ADD MLOAD SWAP3 ADD SWAP2 DUP3 MLOAD LT ISZERO PUSH1 0x0 EQ PUSH2 0x35CF JUMPI POP POP POP PUSH1 0x0 SWAP1 JUMP JUMPDEST PUSH2 0x2F51 SWAP3 PUSH2 0x35DC SWAP2 PUSH2 0x3610 JUMP JUMPDEST SWAP1 MLOAD SWAP1 PUSH2 0x2F0D JUMP JUMPDEST SWAP1 PUSH2 0x35EE SWAP2 PUSH2 0x3BEE JUMP JUMPDEST PUSH1 0x60 DUP2 ADD MLOAD PUSH1 0x40 SWAP1 SWAP2 ADD MLOAD DUP1 DUP3 GT PUSH2 0x3607 JUMPI POP POP PUSH1 0x0 SWAP1 JUMP JUMPDEST PUSH2 0x2F51 SWAP2 PUSH2 0x2F0D JUMP JUMPDEST PUSH2 0x2F51 SWAP2 PUSH2 0x361D SWAP2 PUSH2 0x3BEE JUMP JUMPDEST PUSH1 0x20 DUP2 ADD MLOAD SWAP1 PUSH1 0x60 DUP2 ADD MLOAD SWAP1 MLOAD SWAP2 TIMESTAMP SWAP1 PUSH2 0x3BAB JUMP JUMPDEST ISZERO PUSH2 0x3639 JUMPI JUMP JUMPDEST PUSH1 0x40 MLOAD PUSH3 0x461BCD PUSH1 0xE5 SHL DUP2 MSTORE PUSH1 0x20 PUSH1 0x4 DUP3 ADD MSTORE PUSH1 0x12 PUSH1 0x24 DUP3 ADD MSTORE PUSH18 0x496E737566666963656E7420746F6B656E73 PUSH1 0x70 SHL PUSH1 0x44 DUP3 ADD MSTORE PUSH1 0x64 SWAP1 REVERT JUMPDEST SWAP1 PUSH2 0x367E DUP2 CALLER PUSH2 0x3A6D JUMP JUMPDEST PUSH2 0x3694 DUP2 MLOAD SWAP3 PUSH2 0x2121 PUSH1 0x20 DUP5 ADD SWAP5 DUP6 MLOAD SWAP1 PUSH2 0x2CB5 JUMP JUMPDEST MLOAD DUP1 PUSH2 0x36BA JUMPI JUMPDEST POP MLOAD DUP1 PUSH2 0x36A9 JUMPI POP POP PUSH1 0x1 SWAP1 JUMP JUMPDEST PUSH2 0x36B3 SWAP2 CALLER PUSH2 0x36CB JUMP JUMPDEST CODESIZE DUP1 PUSH2 0x3510 JUMP JUMPDEST PUSH2 0x36C5 SWAP1 DUP4 ADDRESS PUSH2 0x36CB JUMP JUMPDEST CODESIZE PUSH2 0x369B JUMP JUMPDEST SWAP1 SWAP2 PUSH1 0x1 PUSH1 0x1 PUSH1 0xA0 SHL SUB DUP1 DUP4 AND SWAP3 SWAP1 DUP4 ISZERO PUSH2 0x37E9 JUMPI DUP5 AND SWAP4 DUP5 ISZERO PUSH2 0x3798 JUMPI PUSH2 0x36F5 PUSH2 0x36FA SWAP3 PUSH2 0x383C JUMP JUMPDEST PUSH2 0x383C JUMP JUMPDEST PUSH1 0x0 DUP3 DUP2 MSTORE DUP1 PUSH1 0x20 MSTORE PUSH1 0x40 DUP2 KECCAK256 SLOAD SWAP2 DUP1 DUP4 LT PUSH2 0x3744 JUMPI PUSH1 0x40 DUP3 DUP3 PUSH1 0x0 DUP1 MLOAD PUSH1 0x20 PUSH2 0x4096 DUP4 CODECOPY DUP2 MLOAD SWAP2 MSTORE SWAP6 DUP8 PUSH1 0x20 SWAP7 MSTORE DUP3 DUP7 MSTORE SUB DUP3 DUP3 KECCAK256 SSTORE DUP7 DUP2 MSTORE KECCAK256 DUP2 DUP2 SLOAD ADD SWAP1 SSTORE PUSH1 0x40 MLOAD SWAP1 DUP2 MSTORE LOG3 JUMP JUMPDEST PUSH1 0x40 MLOAD PUSH3 0x461BCD PUSH1 0xE5 SHL DUP2 MSTORE PUSH1 0x20 PUSH1 0x4 DUP3 ADD MSTORE PUSH1 0x26 PUSH1 0x24 DUP3 ADD MSTORE PUSH32 0x45524332303A207472616E7366657220616D6F756E7420657863656564732062 PUSH1 0x44 DUP3 ADD MSTORE PUSH6 0x616C616E6365 PUSH1 0xD0 SHL PUSH1 0x64 DUP3 ADD MSTORE PUSH1 0x84 SWAP1 REVERT JUMPDEST PUSH1 0x40 MLOAD PUSH3 0x461BCD PUSH1 0xE5 SHL DUP2 MSTORE PUSH1 0x20 PUSH1 0x4 DUP3 ADD MSTORE PUSH1 0x23 PUSH1 0x24 DUP3 ADD MSTORE PUSH32 0x45524332303A207472616E7366657220746F20746865207A65726F2061646472 PUSH1 0x44 DUP3 ADD MSTORE PUSH3 0x657373 PUSH1 0xE8 SHL PUSH1 0x64 DUP3 ADD MSTORE PUSH1 0x84 SWAP1 REVERT JUMPDEST PUSH1 0x40 MLOAD PUSH3 0x461BCD PUSH1 0xE5 SHL DUP2 MSTORE PUSH1 0x20 PUSH1 0x4 DUP3 ADD MSTORE PUSH1 0x25 PUSH1 0x24 DUP3 ADD MSTORE PUSH32 0x45524332303A207472616E736665722066726F6D20746865207A65726F206164 PUSH1 0x44 DUP3 ADD MSTORE PUSH5 0x6472657373 PUSH1 0xD8 SHL PUSH1 0x64 DUP3 ADD MSTORE PUSH1 0x84 SWAP1 REVERT JUMPDEST PUSH1 0x1 PUSH1 0x1 PUSH1 0xA0 SHL SUB DUP2 AND PUSH1 0x0 SWAP1 DUP2 MSTORE PUSH1 0x5 PUSH1 0x20 MSTORE PUSH1 0x40 SWAP1 KECCAK256 SWAP1 PUSH2 0x385E SWAP1 PUSH2 0x3974 JUMP JUMPDEST PUSH1 0x8 SLOAD DUP1 PUSH2 0x386B DUP5 PUSH2 0x3951 JUMP JUMPDEST LT PUSH2 0x3875 JUMPI POP POP POP JUMP JUMPDEST DUP3 PUSH2 0x3885 PUSH1 0x1 SWAP3 PUSH2 0x388B SWAP6 PUSH2 0x3901 JUMP JUMPDEST ADD PUSH2 0x3901 JUMP JUMPDEST JUMP JUMPDEST PUSH1 0x2 SLOAD PUSH1 0x8 SLOAD SWAP1 DUP2 PUSH2 0x389D PUSH2 0x3924 JUMP JUMPDEST LT PUSH2 0x38A6 JUMPI POP POP JUMP JUMPDEST PUSH1 0x6 SLOAD PUSH1 0x1 PUSH1 0x40 SHL SWAP3 DUP4 DUP3 LT ISZERO PUSH2 0xC48 JUMPI PUSH2 0x38CA DUP3 PUSH1 0x1 PUSH2 0x38E3 SWAP5 ADD PUSH1 0x6 SSTORE PUSH2 0x2DDF JUMP JUMPDEST SWAP1 SWAP2 SWAP1 DUP3 SLOAD SWAP1 PUSH1 0x3 SHL SWAP2 DUP3 SHL SWAP2 PUSH1 0x0 NOT SWAP1 SHL NOT AND OR SWAP1 SSTORE JUMP JUMPDEST PUSH1 0x7 SLOAD SWAP2 DUP3 LT ISZERO PUSH2 0xC48 JUMPI PUSH2 0x38CA DUP3 PUSH1 0x1 PUSH2 0x388B SWAP5 ADD PUSH1 0x7 SSTORE PUSH2 0x2DC4 JUMP JUMPDEST DUP1 SLOAD SWAP2 SWAP1 PUSH1 0x1 PUSH1 0x40 SHL DUP4 LT ISZERO PUSH2 0xC48 JUMPI DUP3 PUSH2 0x38CA SWAP2 PUSH1 0x1 PUSH2 0x388B SWAP6 ADD DUP2 SSTORE PUSH2 0x2DFA JUMP JUMPDEST PUSH1 0x6 SLOAD DUP1 PUSH2 0x3932 JUMPI POP PUSH1 0x0 SWAP1 JUMP JUMPDEST PUSH1 0x0 NOT DUP2 ADD SWAP1 DUP2 GT PUSH2 0xC5E JUMPI PUSH2 0x3947 SWAP1 PUSH2 0x2DDF JUMP JUMPDEST SWAP1 SLOAD SWAP1 PUSH1 0x3 SHL SHR SWAP1 JUMP JUMPDEST DUP1 SLOAD DUP1 PUSH2 0x395F JUMPI POP POP PUSH1 0x0 SWAP1 JUMP JUMPDEST PUSH1 0x0 NOT DUP2 ADD SWAP1 DUP2 GT PUSH2 0xC5E JUMPI PUSH2 0x3947 SWAP2 PUSH2 0x2DFA JUMP JUMPDEST PUSH2 0x2F51 SWAP1 PUSH1 0x1 DUP1 PUSH1 0xA0 SHL SUB DUP2 AND PUSH1 0x0 MSTORE PUSH1 0x0 PUSH1 0x20 MSTORE PUSH2 0x189E PUSH2 0x1A53 PUSH1 0x40 PUSH1 0x0 KECCAK256 SLOAD PUSH2 0x189E DUP5 PUSH2 0x39EC JUMP JUMPDEST PUSH1 0x0 SWAP1 PUSH1 0x0 SWAP3 DUP4 SWAP3 JUMPDEST PUSH1 0x1 PUSH1 0x1 PUSH1 0xA0 SHL SUB DUP4 AND DUP6 MSTORE PUSH1 0xD PUSH1 0x20 MSTORE PUSH1 0x40 DUP6 KECCAK256 SLOAD DUP5 LT ISZERO PUSH2 0x39E5 JUMPI PUSH2 0x39DD PUSH2 0x39D7 PUSH1 0x40 SWAP3 PUSH2 0x189E DUP8 DUP8 PUSH2 0x356D JUMP JUMPDEST SWAP5 PUSH2 0x34BD JUMP JUMPDEST SWAP4 SWAP1 POP PUSH2 0x39A7 JUMP JUMPDEST SWAP4 POP SWAP2 POP POP JUMP JUMPDEST PUSH1 0x0 SWAP1 PUSH1 0x0 SWAP3 DUP4 SWAP3 JUMPDEST PUSH1 0x1 PUSH1 0x1 PUSH1 0xA0 SHL SUB DUP4 AND DUP6 MSTORE PUSH1 0xD PUSH1 0x20 MSTORE PUSH1 0x40 DUP6 KECCAK256 SLOAD DUP5 LT ISZERO PUSH2 0x39E5 JUMPI PUSH2 0x3A25 PUSH2 0x39D7 PUSH1 0x40 SWAP3 PUSH2 0x189E DUP8 DUP8 PUSH2 0x35A7 JUMP JUMPDEST SWAP4 SWAP1 POP PUSH2 0x39F5 JUMP JUMPDEST ISZERO PUSH2 0x3A34 JUMPI JUMP JUMPDEST PUSH1 0x40 MLOAD PUSH3 0x461BCD PUSH1 0xE5 SHL DUP2 MSTORE PUSH1 0x20 PUSH1 0x4 DUP3 ADD MSTORE PUSH1 0x11 PUSH1 0x24 DUP3 ADD MSTORE PUSH17 0x185B5BDD5B9D080F881D5B9B1BD8DAD959 PUSH1 0x7A SHL PUSH1 0x44 DUP3 ADD MSTORE PUSH1 0x64 SWAP1 REVERT JUMPDEST SWAP2 SWAP1 PUSH1 0x40 SWAP3 DUP4 MLOAD SWAP1 PUSH2 0x3A7E DUP3 PUSH2 0x2B90 JUMP JUMPDEST DUP5 CALLDATASIZE DUP4 CALLDATACOPY DUP2 SWAP3 PUSH1 0x1 DUP1 PUSH1 0xA0 SHL SUB DUP3 AND SWAP4 PUSH1 0x0 SWAP3 DUP6 DUP5 MSTORE PUSH1 0x20 SWAP2 DUP5 DUP4 MSTORE PUSH2 0x3AAE DUP5 PUSH2 0xF3F DUP12 DUP9 KECCAK256 SLOAD PUSH2 0x189E DUP7 PUSH2 0x39EC JUMP JUMPDEST DUP4 SWAP1 DUP6 JUMPDEST DUP9 DUP8 MSTORE PUSH1 0xD DUP1 DUP7 MSTORE DUP12 DUP9 KECCAK256 DUP1 SLOAD DUP4 LT ISZERO PUSH2 0x3B96 JUMPI SWAP1 DUP9 PUSH1 0x3 PUSH2 0x3AF0 DUP16 DUP7 SWAP1 DUP16 SWAP7 DUP3 PUSH2 0x3ADC SWAP2 PUSH2 0x2C99 JUMP JUMPDEST POP SWAP7 PUSH1 0x2 DUP1 SWAP9 ADD SLOAD SWAP6 MSTORE DUP6 DUP13 MSTORE DUP14 KECCAK256 PUSH2 0x2C99 JUMP JUMPDEST POP ADD SLOAD SUB PUSH2 0x3B08 JUMPI POP POP PUSH2 0x3B03 SWAP1 PUSH2 0x34BD JUMP JUMPDEST PUSH2 0x3AB2 JUMP JUMPDEST SWAP1 SWAP2 SWAP3 SWAP4 PUSH2 0x3B16 DUP5 DUP8 PUSH2 0x35A7 JUMP JUMPDEST DUP2 GT ISZERO PUSH2 0x3B67 JUMPI PUSH2 0x3B60 PUSH2 0x3B03 SWAP4 PUSH2 0x3B56 DUP16 SWAP7 DUP10 SWAP9 SWAP8 DUP16 SWAP7 DUP3 SWAP8 DUP16 SWAP8 DUP5 PUSH2 0x3B45 PUSH2 0x3B4B SWAP3 DUP16 DUP4 PUSH2 0x35A1 SWAP2 PUSH2 0x35A7 JUMP JUMPDEST SWAP14 PUSH2 0x35A7 JUMP JUMPDEST SWAP8 MSTORE DUP13 MSTORE DUP14 KECCAK256 PUSH2 0x2C99 JUMP JUMPDEST POP ADD SWAP2 DUP3 SLOAD PUSH2 0x2CB5 JUMP JUMPDEST SWAP1 SSTORE PUSH2 0x34BD JUMP JUMPDEST SWAP5 POP SWAP2 PUSH2 0x3B87 SWAP4 SWAP12 PUSH2 0x3B56 SWAP3 SWAP4 PUSH2 0x3B90 SWAP9 SWAP12 DUP11 SWAP9 SWAP12 SWAP11 MSTORE DUP11 MSTORE DUP7 KECCAK256 PUSH2 0x2C99 JUMP JUMPDEST SWAP1 SSTORE DUP1 SWAP5 PUSH2 0x2F0D JUMP JUMPDEST DUP2 MSTORE ADD MSTORE JUMP JUMPDEST POP POP POP SWAP9 POP SWAP6 POP POP SWAP3 SWAP2 POP DUP4 PUSH2 0x3B90 SWAP2 PUSH2 0x2F0D JUMP JUMPDEST SWAP2 SWAP1 PUSH2 0x3BB9 PUSH2 0x2F51 SWAP5 PUSH2 0x2BCE JUMP JUMPDEST POP SWAP3 PUSH1 0x3 PUSH1 0x40 MLOAD SWAP5 PUSH2 0x3BCA DUP7 PUSH2 0x2B5A JUMP JUMPDEST DUP1 SLOAD DUP7 MSTORE PUSH1 0x1 DUP2 ADD SLOAD PUSH1 0x20 DUP8 ADD MSTORE PUSH1 0x2 DUP2 ADD SLOAD PUSH1 0x40 DUP8 ADD MSTORE ADD SLOAD PUSH1 0x60 DUP6 ADD MSTORE PUSH2 0x3CA4 JUMP JUMPDEST SWAP1 PUSH2 0x3BF7 PUSH2 0x328E JUMP JUMPDEST POP PUSH1 0x1 DUP1 PUSH1 0xA0 SHL SUB DUP1 SWAP3 AND PUSH1 0x0 MSTORE PUSH2 0x3C19 PUSH1 0x20 SWAP2 PUSH1 0xD DUP4 MSTORE PUSH1 0x40 PUSH1 0x0 KECCAK256 PUSH2 0x2C99 JUMP JUMPDEST POP SWAP1 PUSH1 0x40 MLOAD SWAP3 PUSH2 0x3C28 DUP5 PUSH2 0x2B75 JUMP JUMPDEST DUP3 SLOAD DUP5 MSTORE PUSH1 0x4 PUSH1 0x1 SWAP4 DUP5 DUP2 ADD SLOAD DUP5 DUP8 ADD MSTORE PUSH1 0x2 DUP2 ADD SLOAD PUSH1 0x40 DUP8 ADD MSTORE PUSH1 0x3 DUP2 ADD SLOAD PUSH1 0x60 DUP8 ADD MSTORE ADD PUSH1 0x40 MLOAD SWAP4 DUP5 DUP6 SWAP4 DUP6 DUP5 SLOAD SWAP3 DUP4 DUP2 MSTORE ADD SWAP4 PUSH1 0x0 MSTORE DUP6 PUSH1 0x0 KECCAK256 SWAP6 PUSH1 0x0 SWAP2 JUMPDEST DUP4 DUP4 LT PUSH2 0x3C8A JUMPI POP POP POP POP POP PUSH2 0x3C82 SWAP3 POP SUB DUP3 PUSH2 0x2BAB JUMP JUMPDEST PUSH1 0x80 DUP3 ADD MSTORE SWAP1 JUMP JUMPDEST DUP8 SLOAD DUP2 AND DUP7 MSTORE SWAP7 DUP5 ADD SWAP7 DUP9 SWAP7 POP SWAP5 DUP2 ADD SWAP5 SWAP2 DUP5 ADD SWAP2 PUSH2 0x3C6A JUMP JUMPDEST SWAP2 SWAP1 PUSH2 0x2F51 SWAP4 SWAP2 DUP3 MLOAD SWAP1 PUSH1 0x20 DUP5 ADD MLOAD SWAP3 PUSH1 0x60 PUSH1 0x40 DUP7 ADD MLOAD SWAP6 ADD MLOAD SWAP6 JUMPDEST SWAP6 SWAP2 SWAP3 SWAP4 SWAP1 PUSH1 0x0 SWAP7 DUP2 DUP2 GT PUSH2 0x3D81 JUMPI PUSH2 0x3CD8 SWAP2 PUSH2 0x2F0D JUMP JUMPDEST SWAP5 PUSH1 0x0 NOT DUP6 ADD SWAP5 DUP6 GT PUSH2 0xC5E JUMPI PUSH2 0x3CF8 PUSH2 0x3CF2 DUP7 DUP6 PUSH2 0x327B JUMP JUMPDEST DUP4 PUSH2 0x2CB5 JUMP JUMPDEST DUP7 LT ISZERO PUSH2 0x3D77 JUMPI DUP2 DUP7 LT ISZERO PUSH2 0x3D11 JUMPI JUMPDEST POP POP POP POP POP POP SWAP1 JUMP JUMPDEST DUP4 SWAP5 SWAP6 SWAP7 POP PUSH2 0x3D25 SWAP1 PUSH2 0x2710 SWAP3 SWAP4 SWAP5 PUSH2 0x327B JUMP JUMPDEST DIV SWAP5 DUP3 PUSH2 0x3D32 DUP4 DUP4 PUSH2 0x2F0D JUMP JUMPDEST LT ISZERO PUSH2 0x3D3F JUMPI JUMPDEST DUP1 PUSH2 0x3D08 JUMP JUMPDEST SWAP3 PUSH2 0x3D68 DUP7 PUSH2 0x3D62 PUSH2 0x3D6D SWAP9 SWAP8 SWAP6 PUSH2 0x3D5D PUSH2 0x3D5D SWAP7 PUSH2 0x189E SWAP10 PUSH2 0x2F0D JUMP JUMPDEST PUSH2 0x3038 JUMP JUMPDEST SWAP3 PUSH2 0x2F0D JUMP JUMPDEST PUSH2 0x327B JUMP JUMPDEST CODESIZE DUP1 DUP1 DUP1 DUP1 PUSH2 0x3D39 JUMP JUMPDEST POP POP POP SWAP3 POP POP POP SWAP1 JUMP JUMPDEST POP POP POP POP POP POP POP POP PUSH1 0x0 SWAP1 JUMP JUMPDEST SWAP2 PUSH2 0x3D9B SWAP2 PUSH1 0x24 SWAP4 PUSH2 0x3E2D JUMP JUMPDEST PUSH1 0xF SLOAD PUSH1 0x40 MLOAD PUSH4 0x7D8E7D1B PUSH1 0xE0 SHL DUP2 MSTORE PUSH1 0xFF DUP4 AND PUSH1 0x4 DUP3 ADD MSTORE SWAP3 PUSH1 0x20 SWAP2 DUP5 SWAP2 SWAP1 DUP3 SWAP1 PUSH1 0x8 SHR PUSH1 0x1 PUSH1 0x1 PUSH1 0xA0 SHL SUB AND GAS STATICCALL SWAP2 DUP3 ISZERO PUSH2 0x3E21 JUMPI PUSH1 0x0 SWAP3 PUSH2 0x3DED JUMPI JUMPDEST POP PUSH2 0x3DE4 SWAP1 PUSH2 0x3EC6 JUMP JUMPDEST SWAP1 ISZERO PUSH2 0x349D JUMPI POP JUMP JUMPDEST PUSH2 0x3DE4 SWAP2 SWAP3 POP PUSH2 0x3E13 SWAP1 PUSH1 0x20 RETURNDATASIZE DUP2 GT PUSH2 0x3E1A JUMPI JUMPDEST PUSH2 0x3E0B DUP2 DUP4 PUSH2 0x2BAB JUMP JUMPDEST DUP2 ADD SWAP1 PUSH2 0x3410 JUMP JUMPDEST SWAP2 SWAP1 PUSH2 0x3DDA JUMP JUMPDEST POP RETURNDATASIZE PUSH2 0x3E01 JUMP JUMPDEST PUSH1 0x40 MLOAD RETURNDATASIZE PUSH1 0x0 DUP3 RETURNDATACOPY RETURNDATASIZE SWAP1 REVERT JUMPDEST PUSH1 0xF SLOAD PUSH1 0x40 MLOAD PUSH4 0xCFDB31A9 PUSH1 0xE0 SHL DUP2 MSTORE ADDRESS PUSH1 0x4 DUP3 ADD MSTORE PUSH1 0x1 PUSH1 0x1 PUSH1 0xA0 SHL SUB SWAP3 DUP4 AND PUSH1 0x24 DUP3 ADD MSTORE SWAP3 DUP3 AND PUSH1 0x44 DUP5 ADD MSTORE PUSH1 0x64 DUP4 ADD SWAP4 SWAP1 SWAP4 MSTORE SWAP1 SWAP2 PUSH1 0x20 SWAP2 DUP4 SWAP2 PUSH1 0x84 SWAP2 DUP4 SWAP2 PUSH1 0x8 SHR AND GAS STATICCALL SWAP1 DUP2 ISZERO PUSH2 0x3E21 JUMPI PUSH1 0x0 SWAP2 PUSH2 0x3E87 JUMPI POP SWAP1 JUMP JUMPDEST PUSH1 0x20 DUP2 RETURNDATASIZE DUP3 GT PUSH2 0x3EBE JUMPI JUMPDEST DUP2 PUSH2 0x3E9F PUSH1 0x20 SWAP4 DUP4 PUSH2 0x2BAB JUMP JUMPDEST DUP2 ADD SUB SLT PUSH2 0x3EBA JUMPI MLOAD SWAP1 PUSH1 0xFF DUP3 AND DUP3 SUB PUSH2 0x3EB7 JUMPI POP SWAP1 JUMP JUMPDEST DUP1 REVERT JUMPDEST POP DUP1 REVERT JUMPDEST RETURNDATASIZE SWAP2 POP PUSH2 0x3E92 JUMP JUMPDEST PUSH1 0xF SLOAD PUSH1 0x40 MLOAD PUSH4 0x7F4AB1DD PUSH1 0xE0 SHL DUP2 MSTORE PUSH1 0xFF SWAP3 SWAP1 SWAP3 AND PUSH1 0x4 DUP4 ADD MSTORE PUSH1 0x0 SWAP2 SWAP1 DUP3 SWAP1 DUP3 SWAP1 PUSH1 0x24 SWAP1 DUP3 SWAP1 PUSH1 0x8 SHR PUSH1 0x1 PUSH1 0x1 PUSH1 0xA0 SHL SUB AND GAS STATICCALL SWAP2 DUP3 ISZERO PUSH2 0x3F88 JUMPI DUP1 SWAP3 PUSH2 0x3F0E JUMPI POP POP SWAP1 JUMP JUMPDEST SWAP1 SWAP2 POP RETURNDATASIZE DUP1 DUP3 DUP5 RETURNDATACOPY PUSH2 0x3F20 DUP2 DUP5 PUSH2 0x2BAB JUMP JUMPDEST DUP3 ADD SWAP2 PUSH1 0x20 DUP2 DUP5 SUB SLT PUSH2 0x3EBA JUMPI DUP1 MLOAD SWAP1 PUSH1 0x1 PUSH1 0x1 PUSH1 0x40 SHL SUB DUP3 GT PUSH2 0x3F84 JUMPI ADD DUP3 PUSH1 0x1F DUP3 ADD SLT ISZERO PUSH2 0x3EBA JUMPI DUP1 MLOAD SWAP2 PUSH2 0x3F56 DUP4 PUSH2 0x33F5 JUMP JUMPDEST SWAP4 PUSH2 0x3F64 PUSH1 0x40 MLOAD SWAP6 DUP7 PUSH2 0x2BAB JUMP JUMPDEST DUP4 DUP6 MSTORE PUSH1 0x20 DUP5 DUP5 ADD ADD GT PUSH2 0x3EB7 JUMPI POP SWAP1 PUSH2 0x2F51 SWAP2 PUSH1 0x20 DUP1 DUP6 ADD SWAP2 ADD PUSH2 0x2A7C JUMP JUMPDEST DUP3 DUP1 REVERT JUMPDEST PUSH1 0x40 MLOAD SWAP1 RETURNDATASIZE SWAP1 DUP3 RETURNDATACOPY RETURNDATASIZE SWAP1 REVERT JUMPDEST ISZERO PUSH2 0x3F9B JUMPI JUMP JUMPDEST PUSH1 0x40 MLOAD PUSH3 0x461BCD PUSH1 0xE5 SHL DUP2 MSTORE PUSH1 0x20 PUSH1 0x4 DUP3 ADD MSTORE PUSH1 0x21 PUSH1 0x24 DUP3 ADD MSTORE PUSH32 0x444F4553204E4F542048415645205452414E534645522041444D494E20524F4C PUSH1 0x44 DUP3 ADD MSTORE PUSH1 0x45 PUSH1 0xF8 SHL PUSH1 0x64 DUP3 ADD MSTORE PUSH1 0x84 SWAP1 REVERT JUMPDEST ISZERO PUSH2 0x3FF1 JUMPI JUMP JUMPDEST PUSH1 0x64 PUSH1 0x40 MLOAD PUSH3 0x461BCD PUSH1 0xE5 SHL DUP2 MSTORE PUSH1 0x20 PUSH1 0x4 DUP3 ADD MSTORE PUSH1 0x20 PUSH1 0x24 DUP3 ADD MSTORE PUSH32 0x444F4553204E4F54204841564520524553455256452041444D494E20524F4C45 PUSH1 0x44 DUP3 ADD MSTORE REVERT INVALID 0xD PUSH32 0xD1E314B29407DB3D79C46ECF1FA3D2108961FAB8D20584277358CAC41E890765 0xAA CALLCODE BALANCE 0xB0 SWAP4 PUSH9 0xF07B83425559B145D7 0xD3 DUP7 0xB1 SELFDESTRUCT DUP16 AND 0xC1 JUMPI LOG2 SELFDESTRUCT 0x2C PUSH28 0x9896FE8D92942330BB9E8E714A4F66AA3EEFE27F66D05B8AE4B6F688 SWAP15 GAS PUSH5 0xA16155BEDD CALLCODE MSTORE 0xAD SHL 0xE2 0xC8 SWAP12 PUSH10 0xC2B068FC378DAA952BA7 CALL PUSH4 0xC4A11628 CREATE2 GAS 0x4D CREATE2 0x23 0xB3 0xEF CALLCODE SGT 0xAA PREVRANDAO JUMPI CODECOPY 0xB8 0xD5 0xBB MLOAD 0x4C 0x5E BALANCE TIMESTAMP INVALID SGT 0xBA 0xAC STATICCALL SWAP10 SGT EQ OR 0x2C 0xEA 0xF7 JUMP SWAP10 PUSH3 0x59B8B3 PUSH31 0x9E87D17FBF2950F3379A6331B75B6E997A147BBD3EAEDC68C30C62186C68CB LOG1 PUSH5 0x736F6C6343 STOP ADDMOD EQ STOP EXP 0xDD CALLCODE MSTORE 0xAD SHL 0xE2 0xC8 SWAP12 PUSH10 0xC2B068FC378DAA952BA7 CALL PUSH4 0xC4A11628 CREATE2 GAS 0x4D CREATE2 0x23 0xB3 0xEF "},"methodIdentifiers":{"_decimals()":"32424aa3","allowance(address,address)":"dd62ed3e","approve(address,uint256)":"095ea7b3","balanceOf(address)":"70a08231","balanceOfAt(address,uint256)":"4ee2cd7e","balanceOfTimelock(address,uint256)":"ad061e25","batchFundReleaseSchedule(address[],uint256[],uint256[],uint256[],address[])":"b7ed4785","burn(address,uint256)":"9dc29fac","calculateUnlocked(uint256,uint256,uint256,(uint256,uint256,uint256,uint256))":"5f7c5377","calculateUnlocked(uint256,uint256,uint256,uint256)":"96305c89","calculateUnlocked(uint256,uint256,uint256,uint256,uint256,uint256,uint256)":"90fc7e91","cancelTimelock(address,uint256,uint256,uint256,uint256,address)":"0f8ad1b4","contractAdminCount()":"8e64eac5","createReleaseSchedule(uint256,uint256,uint256,uint256)":"21bb56d7","decimals()":"313ce567","decreaseAllowance(address,uint256)":"a457c2d7","detectTransferRestriction(address,address,uint256)":"d4ce1415","enforceTransferRestrictions(address,address,uint256)":"2beafc89","freeze(address,bool)":"bf120ae5","fundReleaseSchedule(address,uint256,uint256,uint256,address[])":"8e4f11ff","getAllowGroupTransferTime(uint256,uint256)":"3c637d74","getAllowTransferTime(address,address)":"40dc95c5","getCurrentSnapshotId()":"5439ad86","getFrozenStatus(address)":"fc96f7d8","getMaxBalance(address)":"c63aa521","getTransferGroup(address)":"db74fa36","grantRole(address,uint8)":"3e840236","hasRole(address,uint8)":"95a8c58d","increaseAllowance(address,uint256)":"39509351","isPaused()":"b187bd26","lockedAmountOf(address)":"8b9d6899","lockedAmountOfTimelock(address,uint256)":"7d7b368b","maxReleaseDelay()":"14cf86eb","maxTotalSupply()":"2ab4d052","messageForTransferRestriction(uint8)":"7f4ab1dd","minTimelockAmount()":"370de043","mint(address,uint256)":"40c10f19","name()":"06fdde03","pause()":"8456cb59","releaseSchedules(uint256)":"6aea0d2e","revokeRole(address,uint8)":"077d3c03","safeApprove(address,uint256)":"fbc6d1cb","scheduleCount()":"b7ef81e1","setAddressPermissions(address,uint256,uint256,uint256,bool)":"45d11299","setAllowGroupTransfer(uint256,uint256,uint256)":"e98a0c64","setMaxBalance(address,uint256)":"8d56cc9c","setTransferGroup(address,uint256)":"64ca0ac3","snapshot()":"9711715a","symbol()":"95d89b41","timelockBalanceOf(address)":"6968f8b3","timelockCountOf(address)":"b30bfa3d","timelockOf(address,uint256)":"82074ac2","timelocks(address,uint256)":"ea612ae8","tokensBalanceOf(address)":"350724a9","totalSupply()":"18160ddd","totalSupplyAt(uint256)":"981b24d0","totalUnlockedToDateOfTimelock(address,uint256)":"0c815103","transfer(address,uint256)":"a9059cbb","transferFrom(address,address,uint256)":"23b872dd","transferRules()":"ceca46c2","transferTimelock(address,uint256,uint256)":"a9b1f051","unlockedAmountOf(address)":"a742c88e","unlockedAmountOfTimelock(address,uint256)":"f0658198","unlockedBalanceOf(address)":"84955c88","unpause()":"3f4ba83a","upgradeTransferRules(address)":"dfb7300e"}}}}}