{"contracts/security-token/SecurityTokenFactory.sol":{"SecurityTokenFactory":{"abi":[{"inputs":[{"internalType":"address","name":"deployerAddress","type":"address"}],"stateMutability":"nonpayable","type":"constructor"},{"inputs":[],"name":"EmptyName","type":"error"},{"inputs":[],"name":"EmptySymbol","type":"error"},{"inputs":[],"name":"MaxSupplyTooLow","type":"error"},{"inputs":[],"name":"ZeroSupply","type":"error"},{"anonymous":false,"inputs":[{"indexed":true,"internalType":"address","name":"creator","type":"address"},{"indexed":true,"internalType":"address","name":"tokenAddress","type":"address"},{"indexed":true,"internalType":"address","name":"transferRulesAddress","type":"address"},{"indexed":false,"internalType":"string","name":"name","type":"string"},{"indexed":false,"internalType":"string","name":"symbol","type":"string"},{"indexed":false,"internalType":"uint256","name":"totalSupply","type":"uint256"},{"indexed":false,"internalType":"uint256","name":"maxTotalSupply","type":"uint256"},{"indexed":false,"internalType":"bytes32","name":"documentHash","type":"bytes32"},{"indexed":false,"internalType":"string","name":"documentType","type":"string"},{"indexed":false,"internalType":"uint256","name":"originalValue","type":"uint256"}],"name":"SecurityTokenCreated","type":"event"},{"inputs":[{"internalType":"string","name":"_name","type":"string"},{"internalType":"string","name":"_symbol","type":"string"},{"internalType":"uint8","name":"_decimals","type":"uint8"},{"internalType":"uint256","name":"_totalSupply","type":"uint256"},{"internalType":"uint256","name":"_maxTotalSupply","type":"uint256"},{"internalType":"bytes32","name":"_documentHash","type":"bytes32"},{"internalType":"string","name":"_documentType","type":"string"},{"internalType":"uint256","name":"_originalValue","type":"uint256"},{"internalType":"uint256","name":"_minTimelockAmount","type":"uint256"},{"internalType":"uint256","name":"_maxReleaseDelay","type":"uint256"}],"name":"createSecurityToken","outputs":[{"internalType":"address","name":"tokenAddress","type":"address"},{"internalType":"address","name":"rulesAddress","type":"address"}],"stateMutability":"nonpayable","type":"function"},{"inputs":[{"internalType":"uint256","name":"index","type":"uint256"}],"name":"getTokenAtIndex","outputs":[{"components":[{"internalType":"address","name":"tokenAddress","type":"address"},{"internalType":"address","name":"transferRulesAddress","type":"address"},{"internalType":"address","name":"creator","type":"address"},{"internalType":"string","name":"name","type":"string"},{"internalType":"string","name":"symbol","type":"string"},{"internalType":"uint8","name":"decimals","type":"uint8"},{"internalType":"uint256","name":"totalSupply","type":"uint256"},{"internalType":"uint256","name":"maxTotalSupply","type":"uint256"},{"internalType":"bytes32","name":"documentHash","type":"bytes32"},{"internalType":"string","name":"documentType","type":"string"},{"internalType":"uint256","name":"originalValue","type":"uint256"},{"internalType":"uint256","name":"createdAt","type":"uint256"}],"internalType":"struct SecurityTokenFactory.SecurityToken","name":"","type":"tuple"}],"stateMutability":"view","type":"function"},{"inputs":[{"internalType":"address","name":"tokenAddress","type":"address"}],"name":"getTokenDetails","outputs":[{"components":[{"internalType":"address","name":"tokenAddress","type":"address"},{"internalType":"address","name":"transferRulesAddress","type":"address"},{"internalType":"address","name":"creator","type":"address"},{"internalType":"string","name":"name","type":"string"},{"internalType":"string","name":"symbol","type":"string"},{"internalType":"uint8","name":"decimals","type":"uint8"},{"internalType":"uint256","name":"totalSupply","type":"uint256"},{"internalType":"uint256","name":"maxTotalSupply","type":"uint256"},{"internalType":"bytes32","name":"documentHash","type":"bytes32"},{"internalType":"string","name":"documentType","type":"string"},{"internalType":"uint256","name":"originalValue","type":"uint256"},{"internalType":"uint256","name":"createdAt","type":"uint256"}],"internalType":"struct SecurityTokenFactory.SecurityToken","name":"","type":"tuple"}],"stateMutability":"view","type":"function"},{"inputs":[],"name":"getTotalTokens","outputs":[{"internalType":"uint256","name":"","type":"uint256"}],"stateMutability":"view","type":"function"},{"inputs":[{"internalType":"address","name":"user","type":"address"}],"name":"getUserTokens","outputs":[{"internalType":"address[]","name":"","type":"address[]"}],"stateMutability":"view","type":"function"},{"inputs":[{"internalType":"address","name":"tokenAddress","type":"address"}],"name":"isFactoryToken","outputs":[{"internalType":"bool","name":"","type":"bool"}],"stateMutability":"view","type":"function"}],"evm":{"bytecode":{"linkReferences":{},"object":"60a03461007357601f6110bc38819003918201601f19168301916001600160401b038311848410176100785780849260209460405283398101031261007357516001600160a01b038116908190036100735760805260405161102d908161008f82396080518181816102b3015261037e0152f35b600080fd5b634e487b7160e01b600052604160045260246000fdfe608080604052600436101561001357600080fd5b60003560e01c908163519dc8d214610a8e57508063763372cc146101e757806388aa8bee1461014e57806397988dce146100c7578063a4b7914e146100845763f08b82e61461006157600080fd5b3461007f57600036600319011261007f576020600054604051908152f35b600080fd5b3461007f57602036600319011261007f576004356001600160a01b0381169081900361007f576000526003602052602060ff604060002054166040519015158152f35b3461007f57602036600319011261007f576004356100e3610e74565b50600054811015610113576101036100fd61010f92610dde565b50610f76565b60405191829182610c59565b0390f35b60405162461bcd60e51b8152602060048201526013602482015272496e646578206f7574206f6620626f756e647360681b6044820152606490fd5b3461007f57602036600319011261007f576004356001600160a01b0381169081900361007f5761017c610e74565b5080600052600360205260ff60406000205416156101b057600052600260205261010f6101036100fd604060002054610dde565b60405162461bcd60e51b815260206004820152600f60248201526e151bdad95b881b9bdd08199bdd5b99608a1b6044820152606490fd5b3461007f5761014036600319011261007f576004356001600160401b03811161007f57610218903690600401610bec565b6024356001600160401b03811161007f57610237903690600401610bec565b909160443560ff8116810361007f5760c4356001600160401b03811161007f57610265903690600401610bec565b8315610a7c578415610a6a5760643515610a585760643560843510610a4657610104358015610a3d57945b610124358015610a3157965b60405163266d820f60e11b815260208160048160007f00000000000000000000000000000000000000000000000000000000000000006001600160a01b03165af19788156109fd578a91600099610a09575b506040516370f6711f60e01b81526001600160a01b038a166004820152336024820181905260448201526101406064820152996020928b9283929091610350908c61033e61014487018b8b610d77565b86810360031901608488015291610d77565b60ff8b1660a485015260643560c485015260843560e4850152610104840192909252610124830152038160007f00000000000000000000000000000000000000000000000000000000000000006001600160a01b03165af19788156109fd576000986109cc575b506000549460ff604051916103cb83610d19565b6001600160a01b038b811684528a1660208401523360408401526103f0368a8e610d98565b6060840152610400368686610d98565b60808401521660a082015260643560c082015260843560e082015260a43561010082015261042f368587610d98565b61012082015260e43561014082015242610160820152600160401b861015610738576001860160005561046186610dde565b9190916109b657805182546001600160a01b039182166001600160a01b03199182161784556020830151600185018054918416918316919091179055604083015160028501805491909316911617905560608101518051906001600160401b0382116107385781906104d66003860154610e0f565b601f8111610963575b50602090601f83116001146108f1576000926108e6575b50508160011b916000199060031b1c19161760038301555b60808101518051906001600160401b0382116107385781906105336004860154610e0f565b601f8111610893575b50602090601f831160011461082157600092610816575b50508160011b916000199060031b1c19161760048301555b60ff60a08201511660ff1960058401541617600583015560c0810151600683015560e08101516007830155610100810151600883015561012081015180519060018060401b038211610738576105c46009850154610e0f565b601f81116107cf575b50602090601f8311600114610759579180600b94926101609460009261074e575b50508160011b916000199060031b1c19161760098501555b610140810151600a85015501519101553360005260016020526040600020918254600160401b81101561073857600181018085558110156107225760409a876106c998610696936106a4976000526020600020015560018060a01b038c1660005260026020528c6000205560036020528b600020600160ff198254161790558b519860e08a5260e08a0191610d77565b918783036020890152610d77565b9160643588860152608435606086015260a435608086015284830360a0860152610d77565b60e43560c08301526001600160a01b03838116929085169133917f26d79bb30903a58ff476be6610c8dc9b82cf3f0e1355e603c7341152f7a0ed239181900390a482516001600160a01b03928316815291166020820152f35b634e487b7160e01b600052603260045260246000fd5b634e487b7160e01b600052604160045260246000fd5b015190508f806105ee565b906009850160005260206000209160005b601f19851681106107b7575092600b94926001926101609583601f1981161061079e575b505050811b016009850155610606565b015160001960f88460031b161c191690558f808061078e565b9192602060018192868501518155019401920161076a565b600985016000526020600020601f840160051c81016020851061080f575b601f830160051c820181106108035750506105cd565b600081556001016107ed565b50806107ed565b015190508d80610553565b9250600485016000526020600020906000935b601f1984168510610878576001945083601f1981161061085f575b505050811b01600483015561056b565b015160001960f88460031b161c191690558d808061084f565b81810151835560209485019460019093019290910190610834565b909150600485016000526020600020601f840160051c8101602085106108df575b90849392915b601f830160051c820181106108d057505061053c565b600081558594506001016108ba565b50806108b4565b015190508d806104f6565b9250600385016000526020600020906000935b601f1984168510610948576001945083601f1981161061092f575b505050811b01600383015561050e565b015160001960f88460031b161c191690558d808061091f565b81810151835560209485019460019093019290910190610904565b909150600385016000526020600020601f840160051c8101602085106109af575b90849392915b601f830160051c820181106109a05750506104df565b6000815585945060010161098a565b5080610984565b634e487b7160e01b600052600060045260246000fd5b6109ef91985060203d6020116109f6575b6109e78183610d35565b810190610d58565b96896103b7565b503d6109dd565b6040513d6000823e3d90fd5b61035091995091610a28602093843d86116109f6576109e78183610d35565b999150916102ee565b506314ad36809661029c565b50600194610290565b604051633bfc66bf60e11b8152600490fd5b60405163c16f3a9360e01b8152600490fd5b604051630cc613fb60e11b8152600490fd5b604051632ef1310560e01b8152600490fd5b3461007f576020908160031936011261007f576001600160a01b03906004358281169081900361007f578284916000526001908183526040600020805480865284860191600052846000209060005b818110610bd95750505084610af3910385610d35565b835182610b18610b0283610e49565b92610b106040519485610d35565b808452610e49565b8286019690601f19013688376000915b610b6c575b50506040519380850191818652518092526040850195926000905b838210610b555786880387f35b845181168852968201969382019390850190610b48565b809694969592939551821015610bcd5785610b90610b8a8484610e60565b51610dde565b505416610b9d8386610e60565b526000198214610bb7578680920191949695939295610b28565b634e487b7160e01b600052601160045260246000fd5b95939594929194610b2d565b8254845292860192918501918501610add565b9181601f8401121561007f578235916001600160401b03831161007f576020838186019501011161007f57565b919082519283825260005b848110610c45575050826000602080949584010152601f8019910116010190565b602081830181015184830182015201610c24565b6020815260018060a01b0380835116602083015280602084015116604083015260408301511660608201526060820151610ca1610180918260808501526101a0840190610c19565b92610d04610cc1608083015195601f1996878783030160a0880152610c19565b60ff60a08401511660c086015260c083015160e086015260e083015161010090818701528301516101209081870152830151610140968683030187870152610c19565b93810151906101609182850152015191015290565b61018081019081106001600160401b0382111761073857604052565b601f909101601f19168101906001600160401b0382119082101761073857604052565b9081602091031261007f57516001600160a01b038116810361007f5790565b908060209392818452848401376000828201840152601f01601f1916010190565b9192916001600160401b0382116107385760405191610dc1601f8201601f191660200184610d35565b82948184528183011161007f578281602093846000960137010152565b906000918254811015610dfb57828052600c602084209102019190565b634e487b7160e01b83526032600452602483fd5b90600182811c92168015610e3f575b6020831014610e2957565b634e487b7160e01b600052602260045260246000fd5b91607f1691610e1e565b6001600160401b0381116107385760051b60200190565b80518210156107225760209160051b010190565b60405190610e8182610d19565b81610160600091828152826020820152826040820152606080820152606060808201528260a08201528260c08201528260e0820152826101008201526060610120820152826101408201520152565b9060405191826000825492610ee484610e0f565b908184526001948581169081600014610f535750600114610f10575b5050610f0e92500383610d35565b565b9093915060005260209081600020936000915b818310610f3b575050610f0e93508201013880610f00565b85548884018501529485019487945091830191610f23565b915050610f0e94506020925060ff191682840152151560051b8201013880610f00565b90604051610f8381610d19565b610160600b829460018060a01b038082541685528060018301541660208601526002820154166040850152610fba60038201610ed0565b6060850152610fcb60048201610ed0565b608085015260ff60058201541660a0850152600681015460c0850152600781015460e0850152600881015461010085015261100860098201610ed0565b610120850152600a810154610140850152015491015256fea164736f6c6343000814000a","opcodes":"PUSH1 0xA0 CALLVALUE PUSH2 0x73 JUMPI PUSH1 0x1F PUSH2 0x10BC CODESIZE DUP2 SWAP1 SUB SWAP2 DUP3 ADD PUSH1 0x1F NOT AND DUP4 ADD SWAP2 PUSH1 0x1 PUSH1 0x1 PUSH1 0x40 SHL SUB DUP4 GT DUP5 DUP5 LT OR PUSH2 0x78 JUMPI DUP1 DUP5 SWAP3 PUSH1 0x20 SWAP5 PUSH1 0x40 MSTORE DUP4 CODECOPY DUP2 ADD SUB SLT PUSH2 0x73 JUMPI MLOAD PUSH1 0x1 PUSH1 0x1 PUSH1 0xA0 SHL SUB DUP2 AND SWAP1 DUP2 SWAP1 SUB PUSH2 0x73 JUMPI PUSH1 0x80 MSTORE PUSH1 0x40 MLOAD PUSH2 0x102D SWAP1 DUP2 PUSH2 0x8F DUP3 CODECOPY PUSH1 0x80 MLOAD DUP2 DUP2 DUP2 PUSH2 0x2B3 ADD MSTORE PUSH2 0x37E ADD MSTORE RETURN JUMPDEST PUSH1 0x0 DUP1 REVERT JUMPDEST PUSH4 0x4E487B71 PUSH1 0xE0 SHL PUSH1 0x0 MSTORE PUSH1 0x41 PUSH1 0x4 MSTORE PUSH1 0x24 PUSH1 0x0 REVERT INVALID PUSH1 0x80 DUP1 PUSH1 0x40 MSTORE PUSH1 0x4 CALLDATASIZE LT ISZERO PUSH2 0x13 JUMPI PUSH1 0x0 DUP1 REVERT JUMPDEST PUSH1 0x0 CALLDATALOAD PUSH1 0xE0 SHR SWAP1 DUP2 PUSH4 0x519DC8D2 EQ PUSH2 0xA8E JUMPI POP DUP1 PUSH4 0x763372CC EQ PUSH2 0x1E7 JUMPI DUP1 PUSH4 0x88AA8BEE EQ PUSH2 0x14E JUMPI DUP1 PUSH4 0x97988DCE EQ PUSH2 0xC7 JUMPI DUP1 PUSH4 0xA4B7914E EQ PUSH2 0x84 JUMPI PUSH4 0xF08B82E6 EQ PUSH2 0x61 JUMPI PUSH1 0x0 DUP1 REVERT JUMPDEST CALLVALUE PUSH2 0x7F JUMPI PUSH1 0x0 CALLDATASIZE PUSH1 0x3 NOT ADD SLT PUSH2 0x7F JUMPI PUSH1 0x20 PUSH1 0x0 SLOAD PUSH1 0x40 MLOAD SWAP1 DUP2 MSTORE RETURN JUMPDEST PUSH1 0x0 DUP1 REVERT JUMPDEST CALLVALUE PUSH2 0x7F JUMPI PUSH1 0x20 CALLDATASIZE PUSH1 0x3 NOT ADD SLT PUSH2 0x7F JUMPI PUSH1 0x4 CALLDATALOAD PUSH1 0x1 PUSH1 0x1 PUSH1 0xA0 SHL SUB DUP2 AND SWAP1 DUP2 SWAP1 SUB PUSH2 0x7F JUMPI PUSH1 0x0 MSTORE PUSH1 0x3 PUSH1 0x20 MSTORE PUSH1 0x20 PUSH1 0xFF PUSH1 0x40 PUSH1 0x0 KECCAK256 SLOAD AND PUSH1 0x40 MLOAD SWAP1 ISZERO ISZERO DUP2 MSTORE RETURN JUMPDEST CALLVALUE PUSH2 0x7F JUMPI PUSH1 0x20 CALLDATASIZE PUSH1 0x3 NOT ADD SLT PUSH2 0x7F JUMPI PUSH1 0x4 CALLDATALOAD PUSH2 0xE3 PUSH2 0xE74 JUMP JUMPDEST POP PUSH1 0x0 SLOAD DUP2 LT ISZERO PUSH2 0x113 JUMPI PUSH2 0x103 PUSH2 0xFD PUSH2 0x10F SWAP3 PUSH2 0xDDE JUMP JUMPDEST POP PUSH2 0xF76 JUMP JUMPDEST PUSH1 0x40 MLOAD SWAP2 DUP3 SWAP2 DUP3 PUSH2 0xC59 JUMP JUMPDEST SUB SWAP1 RETURN JUMPDEST PUSH1 0x40 MLOAD PUSH3 0x461BCD PUSH1 0xE5 SHL DUP2 MSTORE PUSH1 0x20 PUSH1 0x4 DUP3 ADD MSTORE PUSH1 0x13 PUSH1 0x24 DUP3 ADD MSTORE PUSH19 0x496E646578206F7574206F6620626F756E6473 PUSH1 0x68 SHL PUSH1 0x44 DUP3 ADD MSTORE PUSH1 0x64 SWAP1 REVERT JUMPDEST CALLVALUE PUSH2 0x7F JUMPI PUSH1 0x20 CALLDATASIZE PUSH1 0x3 NOT ADD SLT PUSH2 0x7F JUMPI PUSH1 0x4 CALLDATALOAD PUSH1 0x1 PUSH1 0x1 PUSH1 0xA0 SHL SUB DUP2 AND SWAP1 DUP2 SWAP1 SUB PUSH2 0x7F JUMPI PUSH2 0x17C PUSH2 0xE74 JUMP JUMPDEST POP DUP1 PUSH1 0x0 MSTORE PUSH1 0x3 PUSH1 0x20 MSTORE PUSH1 0xFF PUSH1 0x40 PUSH1 0x0 KECCAK256 SLOAD AND ISZERO PUSH2 0x1B0 JUMPI PUSH1 0x0 MSTORE PUSH1 0x2 PUSH1 0x20 MSTORE PUSH2 0x10F PUSH2 0x103 PUSH2 0xFD PUSH1 0x40 PUSH1 0x0 KECCAK256 SLOAD PUSH2 0xDDE JUMP JUMPDEST PUSH1 0x40 MLOAD PUSH3 0x461BCD PUSH1 0xE5 SHL DUP2 MSTORE PUSH1 0x20 PUSH1 0x4 DUP3 ADD MSTORE PUSH1 0xF PUSH1 0x24 DUP3 ADD MSTORE PUSH15 0x151BDAD95B881B9BDD08199BDD5B99 PUSH1 0x8A SHL PUSH1 0x44 DUP3 ADD MSTORE PUSH1 0x64 SWAP1 REVERT JUMPDEST CALLVALUE PUSH2 0x7F JUMPI PUSH2 0x140 CALLDATASIZE PUSH1 0x3 NOT ADD SLT PUSH2 0x7F JUMPI PUSH1 0x4 CALLDATALOAD PUSH1 0x1 PUSH1 0x1 PUSH1 0x40 SHL SUB DUP2 GT PUSH2 0x7F JUMPI PUSH2 0x218 SWAP1 CALLDATASIZE SWAP1 PUSH1 0x4 ADD PUSH2 0xBEC JUMP JUMPDEST PUSH1 0x24 CALLDATALOAD PUSH1 0x1 PUSH1 0x1 PUSH1 0x40 SHL SUB DUP2 GT PUSH2 0x7F JUMPI PUSH2 0x237 SWAP1 CALLDATASIZE SWAP1 PUSH1 0x4 ADD PUSH2 0xBEC JUMP JUMPDEST SWAP1 SWAP2 PUSH1 0x44 CALLDATALOAD PUSH1 0xFF DUP2 AND DUP2 SUB PUSH2 0x7F JUMPI PUSH1 0xC4 CALLDATALOAD PUSH1 0x1 PUSH1 0x1 PUSH1 0x40 SHL SUB DUP2 GT PUSH2 0x7F JUMPI PUSH2 0x265 SWAP1 CALLDATASIZE SWAP1 PUSH1 0x4 ADD PUSH2 0xBEC JUMP JUMPDEST DUP4 ISZERO PUSH2 0xA7C JUMPI DUP5 ISZERO PUSH2 0xA6A JUMPI PUSH1 0x64 CALLDATALOAD ISZERO PUSH2 0xA58 JUMPI PUSH1 0x64 CALLDATALOAD PUSH1 0x84 CALLDATALOAD LT PUSH2 0xA46 JUMPI PUSH2 0x104 CALLDATALOAD DUP1 ISZERO PUSH2 0xA3D JUMPI SWAP5 JUMPDEST PUSH2 0x124 CALLDATALOAD DUP1 ISZERO PUSH2 0xA31 JUMPI SWAP7 JUMPDEST PUSH1 0x40 MLOAD PUSH4 0x266D820F PUSH1 0xE1 SHL DUP2 MSTORE PUSH1 0x20 DUP2 PUSH1 0x4 DUP2 PUSH1 0x0 PUSH32 0x0 PUSH1 0x1 PUSH1 0x1 PUSH1 0xA0 SHL SUB AND GAS CALL SWAP8 DUP9 ISZERO PUSH2 0x9FD JUMPI DUP11 SWAP2 PUSH1 0x0 SWAP10 PUSH2 0xA09 JUMPI JUMPDEST POP PUSH1 0x40 MLOAD PUSH4 0x70F6711F PUSH1 0xE0 SHL DUP2 MSTORE PUSH1 0x1 PUSH1 0x1 PUSH1 0xA0 SHL SUB DUP11 AND PUSH1 0x4 DUP3 ADD MSTORE CALLER PUSH1 0x24 DUP3 ADD DUP2 SWAP1 MSTORE PUSH1 0x44 DUP3 ADD MSTORE PUSH2 0x140 PUSH1 0x64 DUP3 ADD MSTORE SWAP10 PUSH1 0x20 SWAP3 DUP12 SWAP3 DUP4 SWAP3 SWAP1 SWAP2 PUSH2 0x350 SWAP1 DUP13 PUSH2 0x33E PUSH2 0x144 DUP8 ADD DUP12 DUP12 PUSH2 0xD77 JUMP JUMPDEST DUP7 DUP2 SUB PUSH1 0x3 NOT ADD PUSH1 0x84 DUP9 ADD MSTORE SWAP2 PUSH2 0xD77 JUMP JUMPDEST PUSH1 0xFF DUP12 AND PUSH1 0xA4 DUP6 ADD MSTORE PUSH1 0x64 CALLDATALOAD PUSH1 0xC4 DUP6 ADD MSTORE PUSH1 0x84 CALLDATALOAD PUSH1 0xE4 DUP6 ADD MSTORE PUSH2 0x104 DUP5 ADD SWAP3 SWAP1 SWAP3 MSTORE PUSH2 0x124 DUP4 ADD MSTORE SUB DUP2 PUSH1 0x0 PUSH32 0x0 PUSH1 0x1 PUSH1 0x1 PUSH1 0xA0 SHL SUB AND GAS CALL SWAP8 DUP9 ISZERO PUSH2 0x9FD JUMPI PUSH1 0x0 SWAP9 PUSH2 0x9CC JUMPI JUMPDEST POP PUSH1 0x0 SLOAD SWAP5 PUSH1 0xFF PUSH1 0x40 MLOAD SWAP2 PUSH2 0x3CB DUP4 PUSH2 0xD19 JUMP JUMPDEST PUSH1 0x1 PUSH1 0x1 PUSH1 0xA0 SHL SUB DUP12 DUP2 AND DUP5 MSTORE DUP11 AND PUSH1 0x20 DUP5 ADD MSTORE CALLER PUSH1 0x40 DUP5 ADD MSTORE PUSH2 0x3F0 CALLDATASIZE DUP11 DUP15 PUSH2 0xD98 JUMP JUMPDEST PUSH1 0x60 DUP5 ADD MSTORE PUSH2 0x400 CALLDATASIZE DUP7 DUP7 PUSH2 0xD98 JUMP JUMPDEST PUSH1 0x80 DUP5 ADD MSTORE AND PUSH1 0xA0 DUP3 ADD MSTORE PUSH1 0x64 CALLDATALOAD PUSH1 0xC0 DUP3 ADD MSTORE PUSH1 0x84 CALLDATALOAD PUSH1 0xE0 DUP3 ADD MSTORE PUSH1 0xA4 CALLDATALOAD PUSH2 0x100 DUP3 ADD MSTORE PUSH2 0x42F CALLDATASIZE DUP6 DUP8 PUSH2 0xD98 JUMP JUMPDEST PUSH2 0x120 DUP3 ADD MSTORE PUSH1 0xE4 CALLDATALOAD PUSH2 0x140 DUP3 ADD MSTORE TIMESTAMP PUSH2 0x160 DUP3 ADD MSTORE PUSH1 0x1 PUSH1 0x40 SHL DUP7 LT ISZERO PUSH2 0x738 JUMPI PUSH1 0x1 DUP7 ADD PUSH1 0x0 SSTORE PUSH2 0x461 DUP7 PUSH2 0xDDE JUMP JUMPDEST SWAP2 SWAP1 SWAP2 PUSH2 0x9B6 JUMPI DUP1 MLOAD DUP3 SLOAD PUSH1 0x1 PUSH1 0x1 PUSH1 0xA0 SHL SUB SWAP2 DUP3 AND PUSH1 0x1 PUSH1 0x1 PUSH1 0xA0 SHL SUB NOT SWAP2 DUP3 AND OR DUP5 SSTORE PUSH1 0x20 DUP4 ADD MLOAD PUSH1 0x1 DUP6 ADD DUP1 SLOAD SWAP2 DUP5 AND SWAP2 DUP4 AND SWAP2 SWAP1 SWAP2 OR SWAP1 SSTORE PUSH1 0x40 DUP4 ADD MLOAD PUSH1 0x2 DUP6 ADD DUP1 SLOAD SWAP2 SWAP1 SWAP4 AND SWAP2 AND OR SWAP1 SSTORE PUSH1 0x60 DUP2 ADD MLOAD DUP1 MLOAD SWAP1 PUSH1 0x1 PUSH1 0x1 PUSH1 0x40 SHL SUB DUP3 GT PUSH2 0x738 JUMPI DUP2 SWAP1 PUSH2 0x4D6 PUSH1 0x3 DUP7 ADD SLOAD PUSH2 0xE0F JUMP JUMPDEST PUSH1 0x1F DUP2 GT PUSH2 0x963 JUMPI JUMPDEST POP PUSH1 0x20 SWAP1 PUSH1 0x1F DUP4 GT PUSH1 0x1 EQ PUSH2 0x8F1 JUMPI PUSH1 0x0 SWAP3 PUSH2 0x8E6 JUMPI JUMPDEST POP POP DUP2 PUSH1 0x1 SHL SWAP2 PUSH1 0x0 NOT SWAP1 PUSH1 0x3 SHL SHR NOT AND OR PUSH1 0x3 DUP4 ADD SSTORE JUMPDEST PUSH1 0x80 DUP2 ADD MLOAD DUP1 MLOAD SWAP1 PUSH1 0x1 PUSH1 0x1 PUSH1 0x40 SHL SUB DUP3 GT PUSH2 0x738 JUMPI DUP2 SWAP1 PUSH2 0x533 PUSH1 0x4 DUP7 ADD SLOAD PUSH2 0xE0F JUMP JUMPDEST PUSH1 0x1F DUP2 GT PUSH2 0x893 JUMPI JUMPDEST POP PUSH1 0x20 SWAP1 PUSH1 0x1F DUP4 GT PUSH1 0x1 EQ PUSH2 0x821 JUMPI PUSH1 0x0 SWAP3 PUSH2 0x816 JUMPI JUMPDEST POP POP DUP2 PUSH1 0x1 SHL SWAP2 PUSH1 0x0 NOT SWAP1 PUSH1 0x3 SHL SHR NOT AND OR PUSH1 0x4 DUP4 ADD SSTORE JUMPDEST PUSH1 0xFF PUSH1 0xA0 DUP3 ADD MLOAD AND PUSH1 0xFF NOT PUSH1 0x5 DUP5 ADD SLOAD AND OR PUSH1 0x5 DUP4 ADD SSTORE PUSH1 0xC0 DUP2 ADD MLOAD PUSH1 0x6 DUP4 ADD SSTORE PUSH1 0xE0 DUP2 ADD MLOAD PUSH1 0x7 DUP4 ADD SSTORE PUSH2 0x100 DUP2 ADD MLOAD PUSH1 0x8 DUP4 ADD SSTORE PUSH2 0x120 DUP2 ADD MLOAD DUP1 MLOAD SWAP1 PUSH1 0x1 DUP1 PUSH1 0x40 SHL SUB DUP3 GT PUSH2 0x738 JUMPI PUSH2 0x5C4 PUSH1 0x9 DUP6 ADD SLOAD PUSH2 0xE0F JUMP JUMPDEST PUSH1 0x1F DUP2 GT PUSH2 0x7CF JUMPI JUMPDEST POP PUSH1 0x20 SWAP1 PUSH1 0x1F DUP4 GT PUSH1 0x1 EQ PUSH2 0x759 JUMPI SWAP2 DUP1 PUSH1 0xB SWAP5 SWAP3 PUSH2 0x160 SWAP5 PUSH1 0x0 SWAP3 PUSH2 0x74E JUMPI JUMPDEST POP POP DUP2 PUSH1 0x1 SHL SWAP2 PUSH1 0x0 NOT SWAP1 PUSH1 0x3 SHL SHR NOT AND OR PUSH1 0x9 DUP6 ADD SSTORE JUMPDEST PUSH2 0x140 DUP2 ADD MLOAD PUSH1 0xA DUP6 ADD SSTORE ADD MLOAD SWAP2 ADD SSTORE CALLER PUSH1 0x0 MSTORE PUSH1 0x1 PUSH1 0x20 MSTORE PUSH1 0x40 PUSH1 0x0 KECCAK256 SWAP2 DUP3 SLOAD PUSH1 0x1 PUSH1 0x40 SHL DUP2 LT ISZERO PUSH2 0x738 JUMPI PUSH1 0x1 DUP2 ADD DUP1 DUP6 SSTORE DUP2 LT ISZERO PUSH2 0x722 JUMPI PUSH1 0x40 SWAP11 DUP8 PUSH2 0x6C9 SWAP9 PUSH2 0x696 SWAP4 PUSH2 0x6A4 SWAP8 PUSH1 0x0 MSTORE PUSH1 0x20 PUSH1 0x0 KECCAK256 ADD SSTORE PUSH1 0x1 DUP1 PUSH1 0xA0 SHL SUB DUP13 AND PUSH1 0x0 MSTORE PUSH1 0x2 PUSH1 0x20 MSTORE DUP13 PUSH1 0x0 KECCAK256 SSTORE PUSH1 0x3 PUSH1 0x20 MSTORE DUP12 PUSH1 0x0 KECCAK256 PUSH1 0x1 PUSH1 0xFF NOT DUP3 SLOAD AND OR SWAP1 SSTORE DUP12 MLOAD SWAP9 PUSH1 0xE0 DUP11 MSTORE PUSH1 0xE0 DUP11 ADD SWAP2 PUSH2 0xD77 JUMP JUMPDEST SWAP2 DUP8 DUP4 SUB PUSH1 0x20 DUP10 ADD MSTORE PUSH2 0xD77 JUMP JUMPDEST SWAP2 PUSH1 0x64 CALLDATALOAD DUP9 DUP7 ADD MSTORE PUSH1 0x84 CALLDATALOAD PUSH1 0x60 DUP7 ADD MSTORE PUSH1 0xA4 CALLDATALOAD PUSH1 0x80 DUP7 ADD MSTORE DUP5 DUP4 SUB PUSH1 0xA0 DUP7 ADD MSTORE PUSH2 0xD77 JUMP JUMPDEST PUSH1 0xE4 CALLDATALOAD PUSH1 0xC0 DUP4 ADD MSTORE PUSH1 0x1 PUSH1 0x1 PUSH1 0xA0 SHL SUB DUP4 DUP2 AND SWAP3 SWAP1 DUP6 AND SWAP2 CALLER SWAP2 PUSH32 0x26D79BB30903A58FF476BE6610C8DC9B82CF3F0E1355E603C7341152F7A0ED23 SWAP2 DUP2 SWAP1 SUB SWAP1 LOG4 DUP3 MLOAD PUSH1 0x1 PUSH1 0x1 PUSH1 0xA0 SHL SUB SWAP3 DUP4 AND DUP2 MSTORE SWAP2 AND PUSH1 0x20 DUP3 ADD MSTORE RETURN JUMPDEST PUSH4 0x4E487B71 PUSH1 0xE0 SHL PUSH1 0x0 MSTORE PUSH1 0x32 PUSH1 0x4 MSTORE PUSH1 0x24 PUSH1 0x0 REVERT JUMPDEST PUSH4 0x4E487B71 PUSH1 0xE0 SHL PUSH1 0x0 MSTORE PUSH1 0x41 PUSH1 0x4 MSTORE PUSH1 0x24 PUSH1 0x0 REVERT JUMPDEST ADD MLOAD SWAP1 POP DUP16 DUP1 PUSH2 0x5EE JUMP JUMPDEST SWAP1 PUSH1 0x9 DUP6 ADD PUSH1 0x0 MSTORE PUSH1 0x20 PUSH1 0x0 KECCAK256 SWAP2 PUSH1 0x0 JUMPDEST PUSH1 0x1F NOT DUP6 AND DUP2 LT PUSH2 0x7B7 JUMPI POP SWAP3 PUSH1 0xB SWAP5 SWAP3 PUSH1 0x1 SWAP3 PUSH2 0x160 SWAP6 DUP4 PUSH1 0x1F NOT DUP2 AND LT PUSH2 0x79E JUMPI JUMPDEST POP POP POP DUP2 SHL ADD PUSH1 0x9 DUP6 ADD SSTORE PUSH2 0x606 JUMP JUMPDEST ADD MLOAD PUSH1 0x0 NOT PUSH1 0xF8 DUP5 PUSH1 0x3 SHL AND SHR NOT AND SWAP1 SSTORE DUP16 DUP1 DUP1 PUSH2 0x78E JUMP JUMPDEST SWAP2 SWAP3 PUSH1 0x20 PUSH1 0x1 DUP2 SWAP3 DUP7 DUP6 ADD MLOAD DUP2 SSTORE ADD SWAP5 ADD SWAP3 ADD PUSH2 0x76A JUMP JUMPDEST PUSH1 0x9 DUP6 ADD PUSH1 0x0 MSTORE PUSH1 0x20 PUSH1 0x0 KECCAK256 PUSH1 0x1F DUP5 ADD PUSH1 0x5 SHR DUP2 ADD PUSH1 0x20 DUP6 LT PUSH2 0x80F JUMPI JUMPDEST PUSH1 0x1F DUP4 ADD PUSH1 0x5 SHR DUP3 ADD DUP2 LT PUSH2 0x803 JUMPI POP POP PUSH2 0x5CD JUMP JUMPDEST PUSH1 0x0 DUP2 SSTORE PUSH1 0x1 ADD PUSH2 0x7ED JUMP JUMPDEST POP DUP1 PUSH2 0x7ED JUMP JUMPDEST ADD MLOAD SWAP1 POP DUP14 DUP1 PUSH2 0x553 JUMP JUMPDEST SWAP3 POP PUSH1 0x4 DUP6 ADD PUSH1 0x0 MSTORE PUSH1 0x20 PUSH1 0x0 KECCAK256 SWAP1 PUSH1 0x0 SWAP4 JUMPDEST PUSH1 0x1F NOT DUP5 AND DUP6 LT PUSH2 0x878 JUMPI PUSH1 0x1 SWAP5 POP DUP4 PUSH1 0x1F NOT DUP2 AND LT PUSH2 0x85F JUMPI JUMPDEST POP POP POP DUP2 SHL ADD PUSH1 0x4 DUP4 ADD SSTORE PUSH2 0x56B JUMP JUMPDEST ADD MLOAD PUSH1 0x0 NOT PUSH1 0xF8 DUP5 PUSH1 0x3 SHL AND SHR NOT AND SWAP1 SSTORE DUP14 DUP1 DUP1 PUSH2 0x84F JUMP JUMPDEST DUP2 DUP2 ADD MLOAD DUP4 SSTORE PUSH1 0x20 SWAP5 DUP6 ADD SWAP5 PUSH1 0x1 SWAP1 SWAP4 ADD SWAP3 SWAP1 SWAP2 ADD SWAP1 PUSH2 0x834 JUMP JUMPDEST SWAP1 SWAP2 POP PUSH1 0x4 DUP6 ADD PUSH1 0x0 MSTORE PUSH1 0x20 PUSH1 0x0 KECCAK256 PUSH1 0x1F DUP5 ADD PUSH1 0x5 SHR DUP2 ADD PUSH1 0x20 DUP6 LT PUSH2 0x8DF JUMPI JUMPDEST SWAP1 DUP5 SWAP4 SWAP3 SWAP2 JUMPDEST PUSH1 0x1F DUP4 ADD PUSH1 0x5 SHR DUP3 ADD DUP2 LT PUSH2 0x8D0 JUMPI POP POP PUSH2 0x53C JUMP JUMPDEST PUSH1 0x0 DUP2 SSTORE DUP6 SWAP5 POP PUSH1 0x1 ADD PUSH2 0x8BA JUMP JUMPDEST POP DUP1 PUSH2 0x8B4 JUMP JUMPDEST ADD MLOAD SWAP1 POP DUP14 DUP1 PUSH2 0x4F6 JUMP JUMPDEST SWAP3 POP PUSH1 0x3 DUP6 ADD PUSH1 0x0 MSTORE PUSH1 0x20 PUSH1 0x0 KECCAK256 SWAP1 PUSH1 0x0 SWAP4 JUMPDEST PUSH1 0x1F NOT DUP5 AND DUP6 LT PUSH2 0x948 JUMPI PUSH1 0x1 SWAP5 POP DUP4 PUSH1 0x1F NOT DUP2 AND LT PUSH2 0x92F JUMPI JUMPDEST POP POP POP DUP2 SHL ADD PUSH1 0x3 DUP4 ADD SSTORE PUSH2 0x50E JUMP JUMPDEST ADD MLOAD PUSH1 0x0 NOT PUSH1 0xF8 DUP5 PUSH1 0x3 SHL AND SHR NOT AND SWAP1 SSTORE DUP14 DUP1 DUP1 PUSH2 0x91F JUMP JUMPDEST DUP2 DUP2 ADD MLOAD DUP4 SSTORE PUSH1 0x20 SWAP5 DUP6 ADD SWAP5 PUSH1 0x1 SWAP1 SWAP4 ADD SWAP3 SWAP1 SWAP2 ADD SWAP1 PUSH2 0x904 JUMP JUMPDEST SWAP1 SWAP2 POP PUSH1 0x3 DUP6 ADD PUSH1 0x0 MSTORE PUSH1 0x20 PUSH1 0x0 KECCAK256 PUSH1 0x1F DUP5 ADD PUSH1 0x5 SHR DUP2 ADD PUSH1 0x20 DUP6 LT PUSH2 0x9AF JUMPI JUMPDEST SWAP1 DUP5 SWAP4 SWAP3 SWAP2 JUMPDEST PUSH1 0x1F DUP4 ADD PUSH1 0x5 SHR DUP3 ADD DUP2 LT PUSH2 0x9A0 JUMPI POP POP PUSH2 0x4DF JUMP JUMPDEST PUSH1 0x0 DUP2 SSTORE DUP6 SWAP5 POP PUSH1 0x1 ADD PUSH2 0x98A JUMP JUMPDEST POP DUP1 PUSH2 0x984 JUMP JUMPDEST PUSH4 0x4E487B71 PUSH1 0xE0 SHL PUSH1 0x0 MSTORE PUSH1 0x0 PUSH1 0x4 MSTORE PUSH1 0x24 PUSH1 0x0 REVERT JUMPDEST PUSH2 0x9EF SWAP2 SWAP9 POP PUSH1 0x20 RETURNDATASIZE PUSH1 0x20 GT PUSH2 0x9F6 JUMPI JUMPDEST PUSH2 0x9E7 DUP2 DUP4 PUSH2 0xD35 JUMP JUMPDEST DUP2 ADD SWAP1 PUSH2 0xD58 JUMP JUMPDEST SWAP7 DUP10 PUSH2 0x3B7 JUMP JUMPDEST POP RETURNDATASIZE PUSH2 0x9DD JUMP JUMPDEST PUSH1 0x40 MLOAD RETURNDATASIZE PUSH1 0x0 DUP3 RETURNDATACOPY RETURNDATASIZE SWAP1 REVERT JUMPDEST PUSH2 0x350 SWAP2 SWAP10 POP SWAP2 PUSH2 0xA28 PUSH1 0x20 SWAP4 DUP5 RETURNDATASIZE DUP7 GT PUSH2 0x9F6 JUMPI PUSH2 0x9E7 DUP2 DUP4 PUSH2 0xD35 JUMP JUMPDEST SWAP10 SWAP2 POP SWAP2 PUSH2 0x2EE JUMP JUMPDEST POP PUSH4 0x14AD3680 SWAP7 PUSH2 0x29C JUMP JUMPDEST POP PUSH1 0x1 SWAP5 PUSH2 0x290 JUMP JUMPDEST PUSH1 0x40 MLOAD PUSH4 0x3BFC66BF PUSH1 0xE1 SHL DUP2 MSTORE PUSH1 0x4 SWAP1 REVERT JUMPDEST PUSH1 0x40 MLOAD PUSH4 0xC16F3A93 PUSH1 0xE0 SHL DUP2 MSTORE PUSH1 0x4 SWAP1 REVERT JUMPDEST PUSH1 0x40 MLOAD PUSH4 0xCC613FB PUSH1 0xE1 SHL DUP2 MSTORE PUSH1 0x4 SWAP1 REVERT JUMPDEST PUSH1 0x40 MLOAD PUSH4 0x2EF13105 PUSH1 0xE0 SHL DUP2 MSTORE PUSH1 0x4 SWAP1 REVERT JUMPDEST CALLVALUE PUSH2 0x7F JUMPI PUSH1 0x20 SWAP1 DUP2 PUSH1 0x3 NOT CALLDATASIZE ADD SLT PUSH2 0x7F JUMPI PUSH1 0x1 PUSH1 0x1 PUSH1 0xA0 SHL SUB SWAP1 PUSH1 0x4 CALLDATALOAD DUP3 DUP2 AND SWAP1 DUP2 SWAP1 SUB PUSH2 0x7F JUMPI DUP3 DUP5 SWAP2 PUSH1 0x0 MSTORE PUSH1 0x1 SWAP1 DUP2 DUP4 MSTORE PUSH1 0x40 PUSH1 0x0 KECCAK256 DUP1 SLOAD DUP1 DUP7 MSTORE DUP5 DUP7 ADD SWAP2 PUSH1 0x0 MSTORE DUP5 PUSH1 0x0 KECCAK256 SWAP1 PUSH1 0x0 JUMPDEST DUP2 DUP2 LT PUSH2 0xBD9 JUMPI POP POP POP DUP5 PUSH2 0xAF3 SWAP2 SUB DUP6 PUSH2 0xD35 JUMP JUMPDEST DUP4 MLOAD DUP3 PUSH2 0xB18 PUSH2 0xB02 DUP4 PUSH2 0xE49 JUMP JUMPDEST SWAP3 PUSH2 0xB10 PUSH1 0x40 MLOAD SWAP5 DUP6 PUSH2 0xD35 JUMP JUMPDEST DUP1 DUP5 MSTORE PUSH2 0xE49 JUMP JUMPDEST DUP3 DUP7 ADD SWAP7 SWAP1 PUSH1 0x1F NOT ADD CALLDATASIZE DUP9 CALLDATACOPY PUSH1 0x0 SWAP2 JUMPDEST PUSH2 0xB6C JUMPI JUMPDEST POP POP PUSH1 0x40 MLOAD SWAP4 DUP1 DUP6 ADD SWAP2 DUP2 DUP7 MSTORE MLOAD DUP1 SWAP3 MSTORE PUSH1 0x40 DUP6 ADD SWAP6 SWAP3 PUSH1 0x0 SWAP1 JUMPDEST DUP4 DUP3 LT PUSH2 0xB55 JUMPI DUP7 DUP9 SUB DUP8 RETURN JUMPDEST DUP5 MLOAD DUP2 AND DUP9 MSTORE SWAP7 DUP3 ADD SWAP7 SWAP4 DUP3 ADD SWAP4 SWAP1 DUP6 ADD SWAP1 PUSH2 0xB48 JUMP JUMPDEST DUP1 SWAP7 SWAP5 SWAP7 SWAP6 SWAP3 SWAP4 SWAP6 MLOAD DUP3 LT ISZERO PUSH2 0xBCD JUMPI DUP6 PUSH2 0xB90 PUSH2 0xB8A DUP5 DUP5 PUSH2 0xE60 JUMP JUMPDEST MLOAD PUSH2 0xDDE JUMP JUMPDEST POP SLOAD AND PUSH2 0xB9D DUP4 DUP7 PUSH2 0xE60 JUMP JUMPDEST MSTORE PUSH1 0x0 NOT DUP3 EQ PUSH2 0xBB7 JUMPI DUP7 DUP1 SWAP3 ADD SWAP2 SWAP5 SWAP7 SWAP6 SWAP4 SWAP3 SWAP6 PUSH2 0xB28 JUMP JUMPDEST PUSH4 0x4E487B71 PUSH1 0xE0 SHL PUSH1 0x0 MSTORE PUSH1 0x11 PUSH1 0x4 MSTORE PUSH1 0x24 PUSH1 0x0 REVERT JUMPDEST SWAP6 SWAP4 SWAP6 SWAP5 SWAP3 SWAP2 SWAP5 PUSH2 0xB2D JUMP JUMPDEST DUP3 SLOAD DUP5 MSTORE SWAP3 DUP7 ADD SWAP3 SWAP2 DUP6 ADD SWAP2 DUP6 ADD PUSH2 0xADD JUMP JUMPDEST SWAP2 DUP2 PUSH1 0x1F DUP5 ADD SLT ISZERO PUSH2 0x7F JUMPI DUP3 CALLDATALOAD SWAP2 PUSH1 0x1 PUSH1 0x1 PUSH1 0x40 SHL SUB DUP4 GT PUSH2 0x7F JUMPI PUSH1 0x20 DUP4 DUP2 DUP7 ADD SWAP6 ADD ADD GT PUSH2 0x7F JUMPI JUMP JUMPDEST SWAP2 SWAP1 DUP3 MLOAD SWAP3 DUP4 DUP3 MSTORE PUSH1 0x0 JUMPDEST DUP5 DUP2 LT PUSH2 0xC45 JUMPI POP POP DUP3 PUSH1 0x0 PUSH1 0x20 DUP1 SWAP5 SWAP6 DUP5 ADD ADD MSTORE PUSH1 0x1F DUP1 NOT SWAP2 ADD AND ADD ADD SWAP1 JUMP JUMPDEST PUSH1 0x20 DUP2 DUP4 ADD DUP2 ADD MLOAD DUP5 DUP4 ADD DUP3 ADD MSTORE ADD PUSH2 0xC24 JUMP JUMPDEST PUSH1 0x20 DUP2 MSTORE PUSH1 0x1 DUP1 PUSH1 0xA0 SHL SUB DUP1 DUP4 MLOAD AND PUSH1 0x20 DUP4 ADD MSTORE DUP1 PUSH1 0x20 DUP5 ADD MLOAD AND PUSH1 0x40 DUP4 ADD MSTORE PUSH1 0x40 DUP4 ADD MLOAD AND PUSH1 0x60 DUP3 ADD MSTORE PUSH1 0x60 DUP3 ADD MLOAD PUSH2 0xCA1 PUSH2 0x180 SWAP2 DUP3 PUSH1 0x80 DUP6 ADD MSTORE PUSH2 0x1A0 DUP5 ADD SWAP1 PUSH2 0xC19 JUMP JUMPDEST SWAP3 PUSH2 0xD04 PUSH2 0xCC1 PUSH1 0x80 DUP4 ADD MLOAD SWAP6 PUSH1 0x1F NOT SWAP7 DUP8 DUP8 DUP4 SUB ADD PUSH1 0xA0 DUP9 ADD MSTORE PUSH2 0xC19 JUMP JUMPDEST PUSH1 0xFF PUSH1 0xA0 DUP5 ADD MLOAD AND PUSH1 0xC0 DUP7 ADD MSTORE PUSH1 0xC0 DUP4 ADD MLOAD PUSH1 0xE0 DUP7 ADD MSTORE PUSH1 0xE0 DUP4 ADD MLOAD PUSH2 0x100 SWAP1 DUP2 DUP8 ADD MSTORE DUP4 ADD MLOAD PUSH2 0x120 SWAP1 DUP2 DUP8 ADD MSTORE DUP4 ADD MLOAD PUSH2 0x140 SWAP7 DUP7 DUP4 SUB ADD DUP8 DUP8 ADD MSTORE PUSH2 0xC19 JUMP JUMPDEST SWAP4 DUP2 ADD MLOAD SWAP1 PUSH2 0x160 SWAP2 DUP3 DUP6 ADD MSTORE ADD MLOAD SWAP2 ADD MSTORE SWAP1 JUMP JUMPDEST PUSH2 0x180 DUP2 ADD SWAP1 DUP2 LT PUSH1 0x1 PUSH1 0x1 PUSH1 0x40 SHL SUB DUP3 GT OR PUSH2 0x738 JUMPI PUSH1 0x40 MSTORE JUMP JUMPDEST PUSH1 0x1F SWAP1 SWAP2 ADD PUSH1 0x1F NOT AND DUP2 ADD SWAP1 PUSH1 0x1 PUSH1 0x1 PUSH1 0x40 SHL SUB DUP3 GT SWAP1 DUP3 LT OR PUSH2 0x738 JUMPI PUSH1 0x40 MSTORE JUMP JUMPDEST SWAP1 DUP2 PUSH1 0x20 SWAP2 SUB SLT PUSH2 0x7F JUMPI MLOAD PUSH1 0x1 PUSH1 0x1 PUSH1 0xA0 SHL SUB DUP2 AND DUP2 SUB PUSH2 0x7F JUMPI SWAP1 JUMP JUMPDEST SWAP1 DUP1 PUSH1 0x20 SWAP4 SWAP3 DUP2 DUP5 MSTORE DUP5 DUP5 ADD CALLDATACOPY PUSH1 0x0 DUP3 DUP3 ADD DUP5 ADD MSTORE PUSH1 0x1F ADD PUSH1 0x1F NOT AND ADD ADD SWAP1 JUMP JUMPDEST SWAP2 SWAP3 SWAP2 PUSH1 0x1 PUSH1 0x1 PUSH1 0x40 SHL SUB DUP3 GT PUSH2 0x738 JUMPI PUSH1 0x40 MLOAD SWAP2 PUSH2 0xDC1 PUSH1 0x1F DUP3 ADD PUSH1 0x1F NOT AND PUSH1 0x20 ADD DUP5 PUSH2 0xD35 JUMP JUMPDEST DUP3 SWAP5 DUP2 DUP5 MSTORE DUP2 DUP4 ADD GT PUSH2 0x7F JUMPI DUP3 DUP2 PUSH1 0x20 SWAP4 DUP5 PUSH1 0x0 SWAP7 ADD CALLDATACOPY ADD ADD MSTORE JUMP JUMPDEST SWAP1 PUSH1 0x0 SWAP2 DUP3 SLOAD DUP2 LT ISZERO PUSH2 0xDFB JUMPI DUP3 DUP1 MSTORE PUSH1 0xC PUSH1 0x20 DUP5 KECCAK256 SWAP2 MUL ADD SWAP2 SWAP1 JUMP JUMPDEST PUSH4 0x4E487B71 PUSH1 0xE0 SHL DUP4 MSTORE PUSH1 0x32 PUSH1 0x4 MSTORE PUSH1 0x24 DUP4 REVERT JUMPDEST SWAP1 PUSH1 0x1 DUP3 DUP2 SHR SWAP3 AND DUP1 ISZERO PUSH2 0xE3F JUMPI JUMPDEST PUSH1 0x20 DUP4 LT EQ PUSH2 0xE29 JUMPI JUMP JUMPDEST PUSH4 0x4E487B71 PUSH1 0xE0 SHL PUSH1 0x0 MSTORE PUSH1 0x22 PUSH1 0x4 MSTORE PUSH1 0x24 PUSH1 0x0 REVERT JUMPDEST SWAP2 PUSH1 0x7F AND SWAP2 PUSH2 0xE1E JUMP JUMPDEST PUSH1 0x1 PUSH1 0x1 PUSH1 0x40 SHL SUB DUP2 GT PUSH2 0x738 JUMPI PUSH1 0x5 SHL PUSH1 0x20 ADD SWAP1 JUMP JUMPDEST DUP1 MLOAD DUP3 LT ISZERO PUSH2 0x722 JUMPI PUSH1 0x20 SWAP2 PUSH1 0x5 SHL ADD ADD SWAP1 JUMP JUMPDEST PUSH1 0x40 MLOAD SWAP1 PUSH2 0xE81 DUP3 PUSH2 0xD19 JUMP JUMPDEST DUP2 PUSH2 0x160 PUSH1 0x0 SWAP2 DUP3 DUP2 MSTORE DUP3 PUSH1 0x20 DUP3 ADD MSTORE DUP3 PUSH1 0x40 DUP3 ADD MSTORE PUSH1 0x60 DUP1 DUP3 ADD MSTORE PUSH1 0x60 PUSH1 0x80 DUP3 ADD MSTORE DUP3 PUSH1 0xA0 DUP3 ADD MSTORE DUP3 PUSH1 0xC0 DUP3 ADD MSTORE DUP3 PUSH1 0xE0 DUP3 ADD MSTORE DUP3 PUSH2 0x100 DUP3 ADD MSTORE PUSH1 0x60 PUSH2 0x120 DUP3 ADD MSTORE DUP3 PUSH2 0x140 DUP3 ADD MSTORE ADD MSTORE JUMP JUMPDEST SWAP1 PUSH1 0x40 MLOAD SWAP2 DUP3 PUSH1 0x0 DUP3 SLOAD SWAP3 PUSH2 0xEE4 DUP5 PUSH2 0xE0F JUMP JUMPDEST SWAP1 DUP2 DUP5 MSTORE PUSH1 0x1 SWAP5 DUP6 DUP2 AND SWAP1 DUP2 PUSH1 0x0 EQ PUSH2 0xF53 JUMPI POP PUSH1 0x1 EQ PUSH2 0xF10 JUMPI JUMPDEST POP POP PUSH2 0xF0E SWAP3 POP SUB DUP4 PUSH2 0xD35 JUMP JUMPDEST JUMP JUMPDEST SWAP1 SWAP4 SWAP2 POP PUSH1 0x0 MSTORE PUSH1 0x20 SWAP1 DUP2 PUSH1 0x0 KECCAK256 SWAP4 PUSH1 0x0 SWAP2 JUMPDEST DUP2 DUP4 LT PUSH2 0xF3B JUMPI POP POP PUSH2 0xF0E SWAP4 POP DUP3 ADD ADD CODESIZE DUP1 PUSH2 0xF00 JUMP JUMPDEST DUP6 SLOAD DUP9 DUP5 ADD DUP6 ADD MSTORE SWAP5 DUP6 ADD SWAP5 DUP8 SWAP5 POP SWAP2 DUP4 ADD SWAP2 PUSH2 0xF23 JUMP JUMPDEST SWAP2 POP POP PUSH2 0xF0E SWAP5 POP PUSH1 0x20 SWAP3 POP PUSH1 0xFF NOT AND DUP3 DUP5 ADD MSTORE ISZERO ISZERO PUSH1 0x5 SHL DUP3 ADD ADD CODESIZE DUP1 PUSH2 0xF00 JUMP JUMPDEST SWAP1 PUSH1 0x40 MLOAD PUSH2 0xF83 DUP2 PUSH2 0xD19 JUMP JUMPDEST PUSH2 0x160 PUSH1 0xB DUP3 SWAP5 PUSH1 0x1 DUP1 PUSH1 0xA0 SHL SUB DUP1 DUP3 SLOAD AND DUP6 MSTORE DUP1 PUSH1 0x1 DUP4 ADD SLOAD AND PUSH1 0x20 DUP7 ADD MSTORE PUSH1 0x2 DUP3 ADD SLOAD AND PUSH1 0x40 DUP6 ADD MSTORE PUSH2 0xFBA PUSH1 0x3 DUP3 ADD PUSH2 0xED0 JUMP JUMPDEST PUSH1 0x60 DUP6 ADD MSTORE PUSH2 0xFCB PUSH1 0x4 DUP3 ADD PUSH2 0xED0 JUMP JUMPDEST PUSH1 0x80 DUP6 ADD MSTORE PUSH1 0xFF PUSH1 0x5 DUP3 ADD SLOAD AND PUSH1 0xA0 DUP6 ADD MSTORE PUSH1 0x6 DUP2 ADD SLOAD PUSH1 0xC0 DUP6 ADD MSTORE PUSH1 0x7 DUP2 ADD SLOAD PUSH1 0xE0 DUP6 ADD MSTORE PUSH1 0x8 DUP2 ADD SLOAD PUSH2 0x100 DUP6 ADD MSTORE PUSH2 0x1008 PUSH1 0x9 DUP3 ADD PUSH2 0xED0 JUMP JUMPDEST PUSH2 0x120 DUP6 ADD MSTORE PUSH1 0xA DUP2 ADD SLOAD PUSH2 0x140 DUP6 ADD MSTORE ADD SLOAD SWAP2 ADD MSTORE JUMP INVALID LOG1 PUSH5 0x736F6C6343 STOP ADDMOD EQ STOP EXP "},"methodIdentifiers":{"createSecurityToken(string,string,uint8,uint256,uint256,bytes32,string,uint256,uint256,uint256)":"763372cc","getTokenAtIndex(uint256)":"97988dce","getTokenDetails(address)":"88aa8bee","getTotalTokens()":"f08b82e6","getUserTokens(address)":"519dc8d2","isFactoryToken(address)":"a4b7914e"}}}}}