{"contracts/security-token/RestrictedSwap.sol":{"RestrictedSwap":{"abi":[{"inputs":[{"internalType":"address","name":"transferRules_","type":"address"},{"internalType":"address","name":"contractAdmin_","type":"address"},{"internalType":"address","name":"tokenReserveAdmin_","type":"address"},{"internalType":"string","name":"symbol_","type":"string"},{"internalType":"string","name":"name_","type":"string"},{"internalType":"uint8","name":"decimals_","type":"uint8"},{"internalType":"uint256","name":"totalSupply_","type":"uint256"},{"internalType":"uint256","name":"maxTotalSupply_","type":"uint256"},{"internalType":"uint256","name":"_minTimelockAmount","type":"uint256"},{"internalType":"uint256","name":"_maxReleaseDelay","type":"uint256"}],"stateMutability":"nonpayable","type":"constructor"},{"anonymous":false,"inputs":[{"indexed":true,"internalType":"address","name":"admin","type":"address"},{"indexed":true,"internalType":"address","name":"addr","type":"address"},{"indexed":true,"internalType":"bool","name":"status","type":"bool"}],"name":"AddressFrozen","type":"event"},{"anonymous":false,"inputs":[{"indexed":true,"internalType":"address","name":"admin","type":"address"},{"indexed":true,"internalType":"address","name":"addr","type":"address"},{"indexed":true,"internalType":"uint256","name":"value","type":"uint256"}],"name":"AddressMaxBalance","type":"event"},{"anonymous":false,"inputs":[{"indexed":true,"internalType":"address","name":"admin","type":"address"},{"indexed":true,"internalType":"address","name":"addr","type":"address"},{"indexed":true,"internalType":"uint256","name":"value","type":"uint256"}],"name":"AddressTransferGroup","type":"event"},{"anonymous":false,"inputs":[{"indexed":true,"internalType":"address","name":"admin","type":"address"},{"indexed":true,"internalType":"uint256","name":"fromGroup","type":"uint256"},{"indexed":true,"internalType":"uint256","name":"toGroup","type":"uint256"},{"indexed":false,"internalType":"uint256","name":"lockedUntil","type":"uint256"}],"name":"AllowGroupTransfer","type":"event"},{"anonymous":false,"inputs":[{"indexed":true,"internalType":"address","name":"owner","type":"address"},{"indexed":true,"internalType":"address","name":"spender","type":"address"},{"indexed":false,"internalType":"uint256","name":"value","type":"uint256"}],"name":"Approval","type":"event"},{"anonymous":false,"inputs":[{"indexed":true,"internalType":"address","name":"payee","type":"address"},{"indexed":true,"internalType":"address","name":"token","type":"address"},{"indexed":false,"internalType":"uint256","name":"amount","type":"uint256"},{"indexed":true,"internalType":"uint256","name":"snapshotId","type":"uint256"}],"name":"Claimed","type":"event"},{"anonymous":false,"inputs":[{"indexed":true,"internalType":"address","name":"payer","type":"address"},{"indexed":true,"internalType":"address","name":"token","type":"address"},{"indexed":false,"internalType":"uint256","name":"amount","type":"uint256"},{"indexed":true,"internalType":"uint256","name":"snapshotId","type":"uint256"}],"name":"Funded","type":"event"},{"anonymous":false,"inputs":[{"indexed":false,"internalType":"address","name":"admin","type":"address"},{"indexed":false,"internalType":"bool","name":"status","type":"bool"}],"name":"Pause","type":"event"},{"anonymous":false,"inputs":[{"indexed":true,"internalType":"address","name":"grantor","type":"address"},{"indexed":true,"internalType":"address","name":"grantee","type":"address"},{"indexed":false,"internalType":"uint8","name":"role","type":"uint8"},{"indexed":true,"internalType":"bool","name":"status","type":"bool"}],"name":"RoleChange","type":"event"},{"anonymous":false,"inputs":[{"indexed":true,"internalType":"address","name":"from","type":"address"},{"indexed":true,"internalType":"uint256","name":"scheduleId","type":"uint256"}],"name":"ScheduleCreated","type":"event"},{"anonymous":false,"inputs":[{"indexed":true,"internalType":"address","name":"from","type":"address"},{"indexed":true,"internalType":"address","name":"to","type":"address"},{"indexed":true,"internalType":"uint256","name":"scheduleId","type":"uint256"},{"indexed":false,"internalType":"uint256","name":"amount","type":"uint256"},{"indexed":false,"internalType":"uint256","name":"commencementTimestamp","type":"uint256"},{"indexed":false,"internalType":"uint256","name":"timelockId","type":"uint256"},{"indexed":false,"internalType":"address[]","name":"cancelableBy","type":"address[]"}],"name":"ScheduleFunded","type":"event"},{"anonymous":false,"inputs":[{"indexed":false,"internalType":"uint256","name":"id","type":"uint256"}],"name":"Snapshot","type":"event"},{"anonymous":false,"inputs":[{"indexed":false,"internalType":"address","name":"sender","type":"address"},{"indexed":false,"internalType":"uint256","name":"swapNumber","type":"uint256"}],"name":"SwapCanceled","type":"event"},{"anonymous":false,"inputs":[{"indexed":false,"internalType":"uint256","name":"swapNumber","type":"uint256"},{"indexed":false,"internalType":"address","name":"restrictedTokenSender","type":"address"},{"indexed":false,"internalType":"uint256","name":"restrictedTokenAmount","type":"uint256"},{"indexed":false,"internalType":"address","name":"quoteTokenSender","type":"address"},{"indexed":false,"internalType":"address","name":"quoteToken","type":"address"},{"indexed":false,"internalType":"uint256","name":"quoteTokenAmount","type":"uint256"}],"name":"SwapComplete","type":"event"},{"anonymous":false,"inputs":[{"indexed":false,"internalType":"uint256","name":"swapNumber","type":"uint256"},{"indexed":false,"internalType":"address","name":"restrictedTokenSender","type":"address"},{"indexed":false,"internalType":"uint256","name":"restrictedTokenAmount","type":"uint256"},{"indexed":false,"internalType":"address","name":"quoteToken","type":"address"},{"indexed":false,"internalType":"address","name":"quoteTokenSender","type":"address"},{"indexed":false,"internalType":"uint256","name":"quoteTokenAmount","type":"uint256"}],"name":"SwapConfigured","type":"event"},{"anonymous":false,"inputs":[{"indexed":true,"internalType":"address","name":"canceledBy","type":"address"},{"indexed":true,"internalType":"address","name":"target","type":"address"},{"indexed":true,"internalType":"uint256","name":"timelockIndex","type":"uint256"},{"indexed":false,"internalType":"address","name":"relaimTokenTo","type":"address"},{"indexed":false,"internalType":"uint256","name":"canceledAmount","type":"uint256"},{"indexed":false,"internalType":"uint256","name":"paidAmount","type":"uint256"}],"name":"TimelockCanceled","type":"event"},{"anonymous":false,"inputs":[{"indexed":true,"internalType":"address","name":"from","type":"address"},{"indexed":true,"internalType":"address","name":"to","type":"address"},{"indexed":false,"internalType":"uint256","name":"value","type":"uint256"}],"name":"Transfer","type":"event"},{"anonymous":false,"inputs":[{"indexed":false,"internalType":"address","name":"admin","type":"address"},{"indexed":false,"internalType":"address","name":"oldRules","type":"address"},{"indexed":false,"internalType":"address","name":"newRules","type":"address"}],"name":"Upgrade","type":"event"},{"anonymous":false,"inputs":[{"indexed":true,"internalType":"address","name":"payee","type":"address"},{"indexed":true,"internalType":"address","name":"token","type":"address"},{"indexed":false,"internalType":"uint256","name":"amount","type":"uint256"},{"indexed":true,"internalType":"uint256","name":"snapshotId","type":"uint256"}],"name":"Withdrawn","type":"event"},{"inputs":[],"name":"_decimals","outputs":[{"internalType":"uint8","name":"","type":"uint8"}],"stateMutability":"view","type":"function"},{"inputs":[{"internalType":"address","name":"owner","type":"address"},{"internalType":"address","name":"spender","type":"address"}],"name":"allowance","outputs":[{"internalType":"uint256","name":"","type":"uint256"}],"stateMutability":"view","type":"function"},{"inputs":[{"internalType":"address","name":"spender","type":"address"},{"internalType":"uint256","name":"amount","type":"uint256"}],"name":"approve","outputs":[{"internalType":"bool","name":"","type":"bool"}],"stateMutability":"nonpayable","type":"function"},{"inputs":[{"internalType":"address","name":"who","type":"address"}],"name":"balanceOf","outputs":[{"internalType":"uint256","name":"","type":"uint256"}],"stateMutability":"view","type":"function"},{"inputs":[{"internalType":"address","name":"account","type":"address"},{"internalType":"uint256","name":"snapshotId","type":"uint256"}],"name":"balanceOfAt","outputs":[{"internalType":"uint256","name":"","type":"uint256"}],"stateMutability":"view","type":"function"},{"inputs":[{"internalType":"address","name":"who","type":"address"},{"internalType":"uint256","name":"timelockIndex","type":"uint256"}],"name":"balanceOfTimelock","outputs":[{"internalType":"uint256","name":"","type":"uint256"}],"stateMutability":"view","type":"function"},{"inputs":[{"internalType":"address[]","name":"to","type":"address[]"},{"internalType":"uint256[]","name":"amounts","type":"uint256[]"},{"internalType":"uint256[]","name":"commencementTimestamps","type":"uint256[]"},{"internalType":"uint256[]","name":"scheduleIds","type":"uint256[]"},{"internalType":"address[]","name":"cancelableBy","type":"address[]"}],"name":"batchFundReleaseSchedule","outputs":[{"internalType":"bool","name":"success","type":"bool"}],"stateMutability":"nonpayable","type":"function"},{"inputs":[{"internalType":"address","name":"from","type":"address"},{"internalType":"uint256","name":"value","type":"uint256"}],"name":"burn","outputs":[],"stateMutability":"nonpayable","type":"function"},{"inputs":[{"internalType":"uint256","name":"commencedTimestamp","type":"uint256"},{"internalType":"uint256","name":"currentTimestamp","type":"uint256"},{"internalType":"uint256","name":"amount","type":"uint256"},{"components":[{"internalType":"uint256","name":"releaseCount","type":"uint256"},{"internalType":"uint256","name":"delayUntilFirstReleaseInSeconds","type":"uint256"},{"internalType":"uint256","name":"initialReleasePortionInBips","type":"uint256"},{"internalType":"uint256","name":"periodBetweenReleasesInSeconds","type":"uint256"}],"internalType":"struct RestrictedLockupToken.ReleaseSchedule","name":"releaseSchedule","type":"tuple"}],"name":"calculateUnlocked","outputs":[{"internalType":"uint256","name":"unlocked","type":"uint256"}],"stateMutability":"pure","type":"function"},{"inputs":[{"internalType":"uint256","name":"commencedTimestamp","type":"uint256"},{"internalType":"uint256","name":"currentTimestamp","type":"uint256"},{"internalType":"uint256","name":"amount","type":"uint256"},{"internalType":"uint256","name":"releaseCount","type":"uint256"},{"internalType":"uint256","name":"delayUntilFirstReleaseInSeconds","type":"uint256"},{"internalType":"uint256","name":"initialReleasePortionInBips","type":"uint256"},{"internalType":"uint256","name":"periodBetweenReleasesInSeconds","type":"uint256"}],"name":"calculateUnlocked","outputs":[{"internalType":"uint256","name":"unlocked","type":"uint256"}],"stateMutability":"pure","type":"function"},{"inputs":[{"internalType":"uint256","name":"commencedTimestamp","type":"uint256"},{"internalType":"uint256","name":"currentTimestamp","type":"uint256"},{"internalType":"uint256","name":"amount","type":"uint256"},{"internalType":"uint256","name":"scheduleId","type":"uint256"}],"name":"calculateUnlocked","outputs":[{"internalType":"uint256","name":"unlocked","type":"uint256"}],"stateMutability":"view","type":"function"},{"inputs":[{"internalType":"uint256","name":"swapNumber","type":"uint256"}],"name":"cancelSell","outputs":[],"stateMutability":"nonpayable","type":"function"},{"inputs":[{"internalType":"address","name":"target","type":"address"},{"internalType":"uint256","name":"timelockIndex","type":"uint256"},{"internalType":"uint256","name":"scheduleId","type":"uint256"},{"internalType":"uint256","name":"commencementTimestamp","type":"uint256"},{"internalType":"uint256","name":"totalAmount","type":"uint256"},{"internalType":"address","name":"reclaimTokenTo","type":"address"}],"name":"cancelTimelock","outputs":[{"internalType":"bool","name":"success","type":"bool"}],"stateMutability":"nonpayable","type":"function"},{"inputs":[{"internalType":"address","name":"token","type":"address"},{"internalType":"uint256","name":"snapshotId","type":"uint256"}],"name":"claimDividend","outputs":[],"stateMutability":"nonpayable","type":"function"},{"inputs":[{"internalType":"address","name":"token","type":"address"},{"internalType":"address","name":"receiver","type":"address"},{"internalType":"uint256","name":"snapshotId","type":"uint256"}],"name":"claimedBalanceAt","outputs":[{"internalType":"uint256","name":"","type":"uint256"}],"stateMutability":"view","type":"function"},{"inputs":[{"internalType":"uint256","name":"swapNumber","type":"uint256"}],"name":"completeSwapWithPaymentToken","outputs":[],"stateMutability":"nonpayable","type":"function"},{"inputs":[{"internalType":"uint256","name":"swapNumber","type":"uint256"}],"name":"completeSwapWithRestrictedToken","outputs":[],"stateMutability":"nonpayable","type":"function"},{"inputs":[{"internalType":"uint256","name":"restrictedTokenAmount","type":"uint256"},{"internalType":"address","name":"restrictedTokenSender","type":"address"},{"internalType":"address","name":"quoteToken","type":"address"},{"internalType":"uint256","name":"quoteTokenAmount","type":"uint256"}],"name":"configureBuy","outputs":[],"stateMutability":"nonpayable","type":"function"},{"inputs":[{"internalType":"uint256","name":"restrictedTokenAmount","type":"uint256"},{"internalType":"address","name":"quoteToken","type":"address"},{"internalType":"address","name":"quoteTokenSender","type":"address"},{"internalType":"uint256","name":"quoteTokenAmount","type":"uint256"}],"name":"configureSell","outputs":[],"stateMutability":"nonpayable","type":"function"},{"inputs":[],"name":"contractAdminCount","outputs":[{"internalType":"uint8","name":"","type":"uint8"}],"stateMutability":"view","type":"function"},{"inputs":[{"internalType":"uint256","name":"releaseCount","type":"uint256"},{"internalType":"uint256","name":"delayUntilFirstReleaseInSeconds","type":"uint256"},{"internalType":"uint256","name":"initialReleasePortionInBips","type":"uint256"},{"internalType":"uint256","name":"periodBetweenReleasesInSeconds","type":"uint256"}],"name":"createReleaseSchedule","outputs":[{"internalType":"uint256","name":"unlockScheduleId","type":"uint256"}],"stateMutability":"nonpayable","type":"function"},{"inputs":[],"name":"decimals","outputs":[{"internalType":"uint8","name":"","type":"uint8"}],"stateMutability":"view","type":"function"},{"inputs":[{"internalType":"address","name":"spender","type":"address"},{"internalType":"uint256","name":"subtractedValue","type":"uint256"}],"name":"decreaseAllowance","outputs":[{"internalType":"bool","name":"","type":"bool"}],"stateMutability":"nonpayable","type":"function"},{"inputs":[{"internalType":"address","name":"from","type":"address"},{"internalType":"address","name":"to","type":"address"},{"internalType":"uint256","name":"value","type":"uint256"}],"name":"detectTransferRestriction","outputs":[{"internalType":"uint8","name":"","type":"uint8"}],"stateMutability":"view","type":"function"},{"inputs":[{"internalType":"address","name":"from","type":"address"},{"internalType":"address","name":"to","type":"address"},{"internalType":"uint256","name":"value","type":"uint256"}],"name":"enforceTransferRestrictions","outputs":[],"stateMutability":"view","type":"function"},{"inputs":[{"internalType":"address","name":"addr","type":"address"},{"internalType":"bool","name":"status","type":"bool"}],"name":"freeze","outputs":[],"stateMutability":"nonpayable","type":"function"},{"inputs":[{"internalType":"address","name":"token","type":"address"},{"internalType":"uint256","name":"amount","type":"uint256"},{"internalType":"uint256","name":"snapshotId","type":"uint256"}],"name":"fundDividend","outputs":[],"stateMutability":"nonpayable","type":"function"},{"inputs":[{"internalType":"address","name":"to","type":"address"},{"internalType":"uint256","name":"amount","type":"uint256"},{"internalType":"uint256","name":"commencementTimestamp","type":"uint256"},{"internalType":"uint256","name":"scheduleId","type":"uint256"},{"internalType":"address[]","name":"cancelableBy","type":"address[]"}],"name":"fundReleaseSchedule","outputs":[{"internalType":"bool","name":"success","type":"bool"}],"stateMutability":"nonpayable","type":"function"},{"inputs":[{"internalType":"address","name":"token","type":"address"},{"internalType":"uint256","name":"snapshotId","type":"uint256"}],"name":"fundsAt","outputs":[{"internalType":"uint256","name":"","type":"uint256"}],"stateMutability":"view","type":"function"},{"inputs":[{"internalType":"uint256","name":"from","type":"uint256"},{"internalType":"uint256","name":"to","type":"uint256"}],"name":"getAllowGroupTransferTime","outputs":[{"internalType":"uint256","name":"timestamp","type":"uint256"}],"stateMutability":"view","type":"function"},{"inputs":[{"internalType":"address","name":"from","type":"address"},{"internalType":"address","name":"to","type":"address"}],"name":"getAllowTransferTime","outputs":[{"internalType":"uint256","name":"timestamp","type":"uint256"}],"stateMutability":"view","type":"function"},{"inputs":[],"name":"getCurrentSnapshotId","outputs":[{"internalType":"uint256","name":"","type":"uint256"}],"stateMutability":"view","type":"function"},{"inputs":[{"internalType":"address","name":"addr","type":"address"}],"name":"getFrozenStatus","outputs":[{"internalType":"bool","name":"status","type":"bool"}],"stateMutability":"view","type":"function"},{"inputs":[{"internalType":"address","name":"addr","type":"address"}],"name":"getMaxBalance","outputs":[{"internalType":"uint256","name":"","type":"uint256"}],"stateMutability":"view","type":"function"},{"inputs":[{"internalType":"address","name":"addr","type":"address"}],"name":"getTransferGroup","outputs":[{"internalType":"uint256","name":"groupID","type":"uint256"}],"stateMutability":"view","type":"function"},{"inputs":[{"internalType":"address","name":"addr","type":"address"},{"internalType":"uint8","name":"role","type":"uint8"}],"name":"grantRole","outputs":[],"stateMutability":"nonpayable","type":"function"},{"inputs":[{"internalType":"address","name":"addr","type":"address"},{"internalType":"uint8","name":"role","type":"uint8"}],"name":"hasRole","outputs":[{"internalType":"bool","name":"","type":"bool"}],"stateMutability":"view","type":"function"},{"inputs":[{"internalType":"address","name":"spender","type":"address"},{"internalType":"uint256","name":"addedValue","type":"uint256"}],"name":"increaseAllowance","outputs":[{"internalType":"bool","name":"","type":"bool"}],"stateMutability":"nonpayable","type":"function"},{"inputs":[],"name":"isPaused","outputs":[{"internalType":"bool","name":"","type":"bool"}],"stateMutability":"view","type":"function"},{"inputs":[{"internalType":"address","name":"who","type":"address"}],"name":"lockedAmountOf","outputs":[{"internalType":"uint256","name":"amount","type":"uint256"}],"stateMutability":"view","type":"function"},{"inputs":[{"internalType":"address","name":"who","type":"address"},{"internalType":"uint256","name":"timelockIndex","type":"uint256"}],"name":"lockedAmountOfTimelock","outputs":[{"internalType":"uint256","name":"locked","type":"uint256"}],"stateMutability":"view","type":"function"},{"inputs":[],"name":"maxReleaseDelay","outputs":[{"internalType":"uint256","name":"","type":"uint256"}],"stateMutability":"view","type":"function"},{"inputs":[],"name":"maxTotalSupply","outputs":[{"internalType":"uint256","name":"","type":"uint256"}],"stateMutability":"view","type":"function"},{"inputs":[{"internalType":"uint8","name":"restrictionCode","type":"uint8"}],"name":"messageForTransferRestriction","outputs":[{"internalType":"string","name":"","type":"string"}],"stateMutability":"view","type":"function"},{"inputs":[],"name":"minTimelockAmount","outputs":[{"internalType":"uint256","name":"","type":"uint256"}],"stateMutability":"view","type":"function"},{"inputs":[{"internalType":"address","name":"to","type":"address"},{"internalType":"uint256","name":"value","type":"uint256"}],"name":"mint","outputs":[],"stateMutability":"nonpayable","type":"function"},{"inputs":[],"name":"name","outputs":[{"internalType":"string","name":"","type":"string"}],"stateMutability":"view","type":"function"},{"inputs":[],"name":"pause","outputs":[],"stateMutability":"nonpayable","type":"function"},{"inputs":[{"internalType":"uint256","name":"","type":"uint256"}],"name":"releaseSchedules","outputs":[{"internalType":"uint256","name":"releaseCount","type":"uint256"},{"internalType":"uint256","name":"delayUntilFirstReleaseInSeconds","type":"uint256"},{"internalType":"uint256","name":"initialReleasePortionInBips","type":"uint256"},{"internalType":"uint256","name":"periodBetweenReleasesInSeconds","type":"uint256"}],"stateMutability":"view","type":"function"},{"inputs":[{"internalType":"address","name":"addr","type":"address"},{"internalType":"uint8","name":"role","type":"uint8"}],"name":"revokeRole","outputs":[],"stateMutability":"nonpayable","type":"function"},{"inputs":[{"internalType":"address","name":"spender","type":"address"},{"internalType":"uint256","name":"value","type":"uint256"}],"name":"safeApprove","outputs":[],"stateMutability":"nonpayable","type":"function"},{"inputs":[],"name":"scheduleCount","outputs":[{"internalType":"uint256","name":"count","type":"uint256"}],"stateMutability":"view","type":"function"},{"inputs":[{"internalType":"address","name":"addr","type":"address"},{"internalType":"uint256","name":"groupID","type":"uint256"},{"internalType":"uint256","name":"lockedBalanceUntil","type":"uint256"},{"internalType":"uint256","name":"maxBalance","type":"uint256"},{"internalType":"bool","name":"status","type":"bool"}],"name":"setAddressPermissions","outputs":[],"stateMutability":"nonpayable","type":"function"},{"inputs":[{"internalType":"uint256","name":"from","type":"uint256"},{"internalType":"uint256","name":"to","type":"uint256"},{"internalType":"uint256","name":"lockedUntil","type":"uint256"}],"name":"setAllowGroupTransfer","outputs":[],"stateMutability":"nonpayable","type":"function"},{"inputs":[{"internalType":"address","name":"addr","type":"address"},{"internalType":"uint256","name":"updatedValue","type":"uint256"}],"name":"setMaxBalance","outputs":[],"stateMutability":"nonpayable","type":"function"},{"inputs":[{"internalType":"address","name":"addr","type":"address"},{"internalType":"uint256","name":"groupID","type":"uint256"}],"name":"setTransferGroup","outputs":[],"stateMutability":"nonpayable","type":"function"},{"inputs":[],"name":"snapshot","outputs":[{"internalType":"uint256","name":"","type":"uint256"}],"stateMutability":"nonpayable","type":"function"},{"inputs":[],"name":"swapNumber","outputs":[{"internalType":"uint256","name":"","type":"uint256"}],"stateMutability":"view","type":"function"},{"inputs":[{"internalType":"uint256","name":"swapNumber","type":"uint256"}],"name":"swapStatus","outputs":[{"internalType":"enum IRestrictedSwap.SwapStatus","name":"","type":"uint8"}],"stateMutability":"view","type":"function"},{"inputs":[],"name":"symbol","outputs":[{"internalType":"string","name":"","type":"string"}],"stateMutability":"view","type":"function"},{"inputs":[{"internalType":"address","name":"who","type":"address"}],"name":"timelockBalanceOf","outputs":[{"internalType":"uint256","name":"","type":"uint256"}],"stateMutability":"view","type":"function"},{"inputs":[{"internalType":"address","name":"who","type":"address"}],"name":"timelockCountOf","outputs":[{"internalType":"uint256","name":"","type":"uint256"}],"stateMutability":"view","type":"function"},{"inputs":[{"internalType":"address","name":"who","type":"address"},{"internalType":"uint256","name":"index","type":"uint256"}],"name":"timelockOf","outputs":[{"components":[{"internalType":"uint256","name":"scheduleId","type":"uint256"},{"internalType":"uint256","name":"commencementTimestamp","type":"uint256"},{"internalType":"uint256","name":"tokensTransferred","type":"uint256"},{"internalType":"uint256","name":"totalAmount","type":"uint256"},{"internalType":"address[]","name":"cancelableBy","type":"address[]"}],"internalType":"struct RestrictedLockupToken.Timelock","name":"timelock","type":"tuple"}],"stateMutability":"view","type":"function"},{"inputs":[{"internalType":"address","name":"","type":"address"},{"internalType":"uint256","name":"","type":"uint256"}],"name":"timelocks","outputs":[{"internalType":"uint256","name":"scheduleId","type":"uint256"},{"internalType":"uint256","name":"commencementTimestamp","type":"uint256"},{"internalType":"uint256","name":"tokensTransferred","type":"uint256"},{"internalType":"uint256","name":"totalAmount","type":"uint256"}],"stateMutability":"view","type":"function"},{"inputs":[],"name":"tokenPrecisionDivider","outputs":[{"internalType":"uint256","name":"","type":"uint256"}],"stateMutability":"view","type":"function"},{"inputs":[{"internalType":"address","name":"token","type":"address"},{"internalType":"uint256","name":"snapshotId","type":"uint256"}],"name":"tokensAt","outputs":[{"internalType":"uint256","name":"","type":"uint256"}],"stateMutability":"view","type":"function"},{"inputs":[{"internalType":"address","name":"who","type":"address"}],"name":"tokensBalanceOf","outputs":[{"internalType":"uint256","name":"","type":"uint256"}],"stateMutability":"view","type":"function"},{"inputs":[{"internalType":"address","name":"token","type":"address"},{"internalType":"address","name":"receiver","type":"address"},{"internalType":"uint256","name":"snapshotId","type":"uint256"}],"name":"totalAwardedBalanceAt","outputs":[{"internalType":"uint256","name":"","type":"uint256"}],"stateMutability":"view","type":"function"},{"inputs":[],"name":"totalSupply","outputs":[{"internalType":"uint256","name":"","type":"uint256"}],"stateMutability":"view","type":"function"},{"inputs":[{"internalType":"uint256","name":"snapshotId","type":"uint256"}],"name":"totalSupplyAt","outputs":[{"internalType":"uint256","name":"","type":"uint256"}],"stateMutability":"view","type":"function"},{"inputs":[{"internalType":"address","name":"who","type":"address"},{"internalType":"uint256","name":"timelockIndex","type":"uint256"}],"name":"totalUnlockedToDateOfTimelock","outputs":[{"internalType":"uint256","name":"total","type":"uint256"}],"stateMutability":"view","type":"function"},{"inputs":[{"internalType":"address","name":"recipient","type":"address"},{"internalType":"uint256","name":"amount","type":"uint256"}],"name":"transfer","outputs":[{"internalType":"bool","name":"","type":"bool"}],"stateMutability":"nonpayable","type":"function"},{"inputs":[{"internalType":"address","name":"sender","type":"address"},{"internalType":"address","name":"recipient","type":"address"},{"internalType":"uint256","name":"amount","type":"uint256"}],"name":"transferFrom","outputs":[{"internalType":"bool","name":"","type":"bool"}],"stateMutability":"nonpayable","type":"function"},{"inputs":[],"name":"transferRules","outputs":[{"internalType":"contract ITransferRules","name":"","type":"address"}],"stateMutability":"view","type":"function"},{"inputs":[{"internalType":"address","name":"to","type":"address"},{"internalType":"uint256","name":"value","type":"uint256"},{"internalType":"uint256","name":"timelockId","type":"uint256"}],"name":"transferTimelock","outputs":[{"internalType":"bool","name":"","type":"bool"}],"stateMutability":"nonpayable","type":"function"},{"inputs":[{"internalType":"address","name":"token","type":"address"},{"internalType":"address","name":"receiver","type":"address"},{"internalType":"uint256","name":"snapshotId","type":"uint256"}],"name":"unclaimedBalanceAt","outputs":[{"internalType":"uint256","name":"","type":"uint256"}],"stateMutability":"view","type":"function"},{"inputs":[{"internalType":"address","name":"who","type":"address"}],"name":"unlockedAmountOf","outputs":[{"internalType":"uint256","name":"amount","type":"uint256"}],"stateMutability":"view","type":"function"},{"inputs":[{"internalType":"address","name":"who","type":"address"},{"internalType":"uint256","name":"timelockIndex","type":"uint256"}],"name":"unlockedAmountOfTimelock","outputs":[{"internalType":"uint256","name":"unlocked","type":"uint256"}],"stateMutability":"view","type":"function"},{"inputs":[{"internalType":"address","name":"who","type":"address"}],"name":"unlockedBalanceOf","outputs":[{"internalType":"uint256","name":"","type":"uint256"}],"stateMutability":"view","type":"function"},{"inputs":[],"name":"unpause","outputs":[],"stateMutability":"nonpayable","type":"function"},{"inputs":[{"internalType":"contract ITransferRules","name":"newTransferRules","type":"address"}],"name":"upgradeTransferRules","outputs":[],"stateMutability":"nonpayable","type":"function"},{"inputs":[{"internalType":"address","name":"token","type":"address"},{"internalType":"uint256","name":"snapshotId","type":"uint256"}],"name":"withdrawalRemains","outputs":[],"stateMutability":"nonpayable","type":"function"}],"evm":{"bytecode":{"linkReferences":{},"object":"60c060409080825234620007f4576200601e803803809162000022828562000815565b833981019161014082840312620007f4576200003e8262000839565b916200004d6020820162000839565b6200005a83830162000839565b60608301519093906001600160401b038111620007f457866200007f9185016200084e565b608084015190966001600160401b038211620007f457620000a29185016200084e565b60a08401519560ff87168703620007f45760c08501519360e086015161012061010088015197015193805160018060401b038111620006cb5760035491600183811c93168015620007e9575b6020841014620007d3578190601f938481116200077c575b50602090848311600114620006ed57600092620006e1575b50508160011b916000199060031b1c1916176003555b8a51906001600160401b038211620006cb5760049b8c54600181811c91168015620006c0575b6020821014620006ab579081838594931162000652575b506020918311600114620005e757600092620005db575b50508160011b916000199060031b1c1916178a555b6001600b556015805460ff19908116909155926001600160a01b0392838216156200058c5783169283156200053f578916998a15620004ea5760ff600f54911691610100600160a81b039060081b169060018060a81b0319161717600f55601055600052600960205282600020600182825416179055600181600a541617600a55866000526002836000209182549060ff8216911617179055600560205281600020936000602052826000205497600097885b81600052600d60205285600020548a101562000290576200028262000289916200027b8c8c62000ac2565b90620008c5565b99620009c8565b9862000250565b620002a0908b99979899620008c5565b96600098895b83600052600d60205287600020548b1015620002df57620002d1620002d8916200027b8d8c620009d8565b9a620009c8565b99620002a6565b620002eb908a620008c5565b60085480620002fa84620009a1565b10620004c7575b505050600254600854806200031562000970565b10620003e4575b505060008051602062005ffe83398151915260208262000341600094600254620008c5565b6002558484528382528884208181540190558851908152a38115620003a1575060805260a0526000601855516152e8908162000d1682396080518181816122790152613f6d015260a05181818161277201528181612a270152613fe30152f35b606490602085519162461bcd60e51b8352820152601760248201527f4d696e2074696d656c6f636b20616d6f756e74203e20300000000000000000006044820152fd5b60065490680100000000000000009182811015620004b25790620004138260016200042c9401600655620008e9565b90919082549060031b91821b91600019901b1916179055565b600754908110156200049d576001810180600755811015620004885760076000527fa66cc928b5edb82af9bd49922954155ab7b0942694bea4ce44661d9a8736c688015560008051602062005ffe83398151915260206200031c565b603285634e487b7160e01b6000525260246000fd5b604185634e487b7160e01b6000525260246000fd5b604187634e487b7160e01b6000525260246000fd5b82620004da600192620004e19562000934565b0162000934565b86808062000301565b865162461bcd60e51b81526020818e0152602960248201527f546f6b656e20726573657276652061646d696e20616464726573732063616e6e60448201526806f74206265203078360bc1b6064820152608490fd5b865162461bcd60e51b81526020818e0152602160248201527f546f6b656e206f776e657220616464726573732063616e6e6f742062652030786044820152600360fc1b6064820152608490fd5b865162461bcd60e51b81526020818e01526024808201527f5472616e736665722072756c657320616464726573732063616e6e6f742062656044820152630203078360e41b6064820152608490fd5b01519050388062000188565b60008e8152602081209350601f198516905b8181106200063957509084600195949392106200061f575b505050811b018a556200019d565b015160001960f88460031b161c1916905538808062000611565b92936020600181928786015181550195019301620005f9565b909192508d60005260206000208380860160051c82019260208710620006a1575b94869594939291940160051c01905b81811062000691575062000171565b6000815585945060010162000682565b9250819262000673565b60228e634e487b7160e01b6000525260246000fd5b90607f16906200015a565b634e487b7160e01b600052604160045260246000fd5b0151905038806200011e565b6003600090815293507fc2575a0e9e593c00f959f8c92f12db2869c3395a3b0502d05e2516446f71f85b91905b601f198416851062000760576001945083601f1981161062000746575b505050811b0160035562000134565b015160001960f88460031b161c1916905538808062000737565b818101518355602094850194600190930192909101906200071a565b909150600360005260206000208480850160051c82019260208610620007c9575b9085949392910160051c01905b818110620007b9575062000106565b60008155849350600101620007aa565b925081926200079d565b634e487b7160e01b600052602260045260246000fd5b92607f1692620000ee565b600080fd5b60a081019081106001600160401b03821117620006cb57604052565b601f909101601f19168101906001600160401b03821190821017620006cb57604052565b51906001600160a01b0382168203620007f457565b919080601f84011215620007f4578251906001600160401b038211620006cb57604051916020916200088a601f8301601f191684018562000815565b818452828287010111620007f45760005b818110620008b157508260009394955001015290565b85810183015184820184015282016200089b565b91908201809211620008d357565b634e487b7160e01b600052601160045260246000fd5b6006548110156200090557600660005260206000200190600090565b634e487b7160e01b600052603260045260246000fd5b8054821015620009055760005260206000200190600090565b9081549168010000000000000000831015620006cb57826200041391600162000960950181556200091b565b565b91908203918211620008d357565b600654806200097f5750600090565b6000198101908111620008d3576200099790620008e9565b90549060031b1c90565b805480620009b0575050600090565b6000198101908111620008d35762000997916200091b565b6000198114620008d35760010190565b620009e4828262000b06565b906040606083015192015182111560001462000a0257505050600090565b62000a199262000a129162000a1c565b9062000962565b90565b9062000a289162000b06565b602081015160608201519151600c548110156200090557600c600052604051608081019260029290921b7fdf6966c971051c3d54ec59162606531493a51404a002842f56009d7e5cf4a8c701916001600160401b03841182851017620006cb5762000a1994606094604052835491828452600185015493846020820152600360028701549687604084015201549687910152429062000c2c565b62000ace828262000b06565b90604060608301519201918251101560001462000aed57505050600090565b62000a199262000afd9162000a1c565b90519062000962565b6040805162000b1581620007f9565b60009384825260606080602093878582015287868201528783820152015260018060a01b038094168552600d8252828520805482101562000be357855281852083519593916005020162000b6986620007f9565b80548652600460019182810154858901526002810154848901526003810154606089015201915180958487958554938481520194875280872096915b83831062000bc857505050505062000bc09250038262000815565b608082015290565b87548116865296840196889650948101949184019162000ba5565b634e487b7160e01b86526032600452602486fd5b81810292918115918404141715620008d357565b811562000c16570490565b634e487b7160e01b600052601260045260246000fd5b959192939060009681811162000d085762000c479162000962565b946000198501948511620008d35762000c6c62000c65868562000bf7565b83620008c5565b86101562000cfe578186101562000c87575b50505050505090565b839495965062000c9d9061271092939462000bf7565b04948262000cac838362000962565b101562000cbb575b8062000c7e565b9262000ced8662000ce662000cf398979562000ce062000ce0966200027b9962000962565b62000c0b565b9262000962565b62000bf7565b388080808062000cb4565b5050509250505090565b505050505050505060009056fe608060408181526004918236101561001657600080fd5b600092833560e01c91826306fdde031461312b57508163077d3c0314612fa257816307c9cd4514612e4d5781630872512b14612dab578163095ea7b314612d815781630c81510314612d585781630f8ad1b414612a4a57816314cf86eb14612a0f57816318160ddd146129f05781631d36f08b146129ae57816321bb56d71461275e57816323b872dd146125965781632a3bf5341461232c5781632ab4d0521461230d5781632beafc89146122f5578163313ce567146122d357816332424aa3146122d3578163350724a91461229c578163370de0431461226157816339509351146122115781633c637d74146121e05781633e840236146120d65781633f4ba83a1461208f57816340c10f1914611f4e57816340dc95c514611ef057816345d1129914611e1f5781634e2b303514611e025781634ee2cd7e14611da75781635247ab0514611c975781635439ad8614611c7857816357656cfe14611bc3578163593b643914611b9a5781635f7c537714611b3f57816364ca0ac314611adb5781636968f8b314611aa85781636aea0d2e14611a7e5781636ec9d56f14611a6257816370a0823114611a3c5781637d7b368b14611a135781637f4ab1dd146119dc578163809c18751461199e57816382074ac2146119005781638456cb59146118b557816384955c88146118725781638648c6a6146118535781638b9d68991461182d5781638d56cc9c146117c45781638e4f11ff1461175f5781638e64eac51461173d5781638fbe818a1461142457816390fc7e91146113ec57816395a8c58d146113be57816395d89b41146112dc57816396305c89146112bd5781639711715a1461125e578163976475d01461107a578163981b24d0146110415781639dc29fac14610eb6578163a2e2661614610e9a578163a457c2d714610df2578163a742c88e14610dcc578163a9059cbb14610d7b578163a9b1f05114610d1d578163ad061e2514610cf4578163b187bd2614610cd0578163b30bfa3d14610c98578163b7ed478514610b4d578163b7ef81e114610b2e578163bf120ae514610a22578163c0779ded1461081e578163c63aa521146107e6578163ceca46c2146107b9578163d4ce141514610793578163db74fa361461075b578163dd62ed3e14610712578163dfb7300e14610674578163e98a0c6414610600578163ea612ae814610581578163ecd158cf146104db578163f0658198146104ab578163fbc6d1cb146103eb575063fc96f7d8146103ab57600080fd5b346103e75760203660031901126103e75760209160ff9082906001600160a01b036103d461324d565b1681526014855220541690519015158152f35b5080fd5b839150346103e757826003193601126103e75761040661324d565b6024359182158015610485575b1561042757509061042491336134d8565b80f35b608490602086519162461bcd60e51b8352820152603260248201527f43616e6e6f7420617070726f76652066726f6d206e6f6e2d7a65726f20746f206044820152716e6f6e2d7a65726f20616c6c6f77616e636560701b6064820152fd5b50338452600160209081528585206001600160a01b038416865290528484205415610413565b5050346103e757806003193601126103e7576020906104d46104cb61324d565b60243590614527565b9051908152f35b5050346103e7576104eb3661343f565b926001600160a01b03909216916105038315156138c4565b61050f82303386613bb1565b838552601760205280852083865260205280852061052e8382546134b5565b905583855260176020528085208386526020526001818620016105528382546134b5565b9055519081527f73884fbf40e5433ea6f75b9343f3208649c9b8430641c927f0ed89d4eac6945b60203392a480f35b5050346103e757806003193601126103e75761059b61324d565b6001600160a01b03168252600d602052808220805460243591908210156105fc57906105c691613499565b508054600182015460028301546003909301549351918252602082015260408101919091526060810191909152608090f35b0390f35b8380fd5b9050346106705760603660031901126106705735602435916044359061062d61062833613ee0565b614f05565b82855260136020528085208486526020528181862055519081527f5845e315015ee03f0d4ab1d198172b4f733609dc3de8b957ae1d86c87403018960203392a480f35b8280fd5b905034610670576020366003190112610670576001600160a01b03903581811680820361070e577f8c78349fc44add47ae711ddc6e926b7845597c57473e587420693d8d0547845a936060936106cc61062833613ee0565b6106d7831515613dcf565b600f8054610100600160a81b03198116600896871b610100600160a81b0316179091558251338152941c166020840152820152a180f35b8480fd5b5050346103e757806003193601126103e7578060209261073061324d565b610738613268565b6001600160a01b0391821683526001865283832091168252845220549051908152f35b5050346103e75760203660031901126103e75760209181906001600160a01b0361078361324d565b1681526012845220549051908152f35b5050346103e75760209060ff6107b16107ab366132ac565b91614dcd565b915191168152f35b5050346103e757816003193601126103e757600f54905160089190911c6001600160a01b03168152602090f35b5050346103e75760203660031901126103e75760209181906001600160a01b0361080e61324d565b1681526011845220549051908152f35b90503461067057602091826003193601126105fc578135908185526019845260ff600582872001541683811015610a0f576002816108626003610869941415614fde565b141561501d565b8185526019845280852080546001600160a01b039081169591949161088f33881461505d565b600286019282845416978551916370a0823160e01b918284528184015283836024818d5afa928315610a05579084918c946109d0575b506108d7818b019b8c54903390613975565b60248688541693878c5416948a51958694859384528301525afa9283156109c6578a93610976575b50509161092d6109709594926109278a9560008051602061525c8339815191529b54906134b5565b146150c4565b60058701600260ff19825416179055600187019080808084541699610959600382019b8c54903361464b565b541698549254169254169254935196879687614fa6565b0390a180f35b908099949296959350813d83116109bf575b6109928183613381565b810103126109bb579651919692939092919061092d60008051602061525c8339815191526108ff565b8880fd5b503d610988565b86513d8c823e3d90fd5b8281939295503d83116109fe575b6109e88183613381565b810103126109fa5783905192386108c5565b8a80fd5b503d6109de565b87513d8d823e3d90fd5b634e487b7160e01b865260218452602486fd5b905034610670578160031936011261067057610a3c61324d565b916024359081151593848303610b2a576001600160a01b031692610a61841515613dcf565b610a6a33613eb6565b8015610b1b575b15610abf575090610a9791838652601460205285209060ff801983541691151516179055565b337f17ec2643977f0865dd45350e9efdcdfead258c9220974e67d1a37ca1447722938480a480f35b6020608492519162461bcd60e51b8352820152603160248201527f444f4553204e4f5420484156452057414c4c4554532041444d494e204f5220526044820152704553455256452041444d494e20524f4c4560781b6064820152fd5b50610b2533613e8c565b610a71565b8580fd5b5050346103e757816003193601126103e757602090600c549051908152f35b9050346106705760a0366003190112610670576001600160401b03813581811161070e57610b7e9036908401613469565b602493919335838111610c9457610b989036908401613469565b9290916044358581116109bb57610bb29036908401613469565b9490916064358781116109fa57610bcc9036908601613469565b979094608435918211610c9057610be591369101613469565b959091610bf3848214614497565b610bfe888214614497565b610c09898214614497565b8b5b818110610c1c5760208c5160018152f35b610c2781838d6144dd565b356001600160a01b0381168103610c8c57610c7590878c610c6285610c5a8f8290610c53828f8e6144dd565b35966144dd565b35928d6144dd565b3591610c6f368e8b6133d9565b93613f55565b15610c8857610c839061443d565b610c0b565b8c80fd5b8d80fd5b8b80fd5b8680fd5b5050346103e75760203660031901126103e75760209181906001600160a01b03610cc061324d565b168152600d845220549051908152f35b5050346103e757816003193601126103e75760209060ff6015541690519015158152f35b5050346103e757806003193601126103e7576020906104d4610d1461324d565b60243590614564565b5050346103e757610d74602092826002610d5f610d393661343f565b91949095610d5287610d4b8533614527565b10156149ab565b338152600d8a5220613499565b5001610d6c8382546134b5565b905530613975565b5160018152f35b5050346103e757806003193601126103e757602090610dc3610d9b61324d565b60243590610db36001600160a01b0382161515613dcf565b610dbe828233614d14565b6145f3565b90519015158152f35b5050346103e75760203660031901126103e7576020906104d4610ded61324d565b61496a565b90508234610e975782600319360112610e9757610e0d61324d565b918360243592338152600160205281812060018060a01b0386168252602052205490828210610e4657602085610d7485850387336134d8565b608490602086519162461bcd60e51b8352820152602560248201527f45524332303a2064656372656173656420616c6c6f77616e63652062656c6f77604482015264207a65726f60d81b6064820152fd5b80fd5b5050346103e7576020906104d4610eb0366132ac565b91613c1d565b839150346103e757826003193601126103e757610ed161324d565b6001600160a01b03811691602435918315610eec8115613dcf565b610efd610ef833613e8c565b614f5b565b610f06826148f2565b841161100157610fb457610f19906147bc565b610f2161480b565b828452836020528484205490828210610f66575081849560008051602061527c833981519152936020938688528785520381872055816002540360025551908152a380f35b608490602087519162461bcd60e51b8352820152602260248201527f45524332303a206275726e20616d6f756e7420657863656564732062616c616e604482015261636560f01b6064820152fd5b855162461bcd60e51b8152602081840152602160248201527f45524332303a206275726e2066726f6d20746865207a65726f206164647265736044820152607360f81b6064820152608490fd5b865162461bcd60e51b8152602081850152601a60248201527924b739bab33334b1b2b73a103a37b5b2b739903a3790313ab93760311b6044820152606490fd5b905034610670576020366003190112610670579161106160209335613628565b91501561107057905b51908152f35b506002549061106a565b90503461067057602090816003193601126105fc578035908185526019835260ff60058587200154168181101561124b5760028161086260036110be941415614fde565b81855260198352838520926001840160018060a01b036110e281835416331461505d565b6002860192888883865416848a5416978251916370a0823160e01b908184528a838501528684602481845afa9586156112405787948e9197611206575b50602492918461113592019c8d54913390613bb1565b8c88808c54169154169551958694859384528301525afa9283156111fc578b936111aa575b50509161118386949261092760008051602061525c8339815191529b97956109709954906134b5565b60058801600260ff1982541617905580808084541699610959600382019b8c54903061464b565b90809a96949297959350813d83116111f5575b6111c78183613381565b810103126111f157975193979294919390929161118360008051602061525c83398151915261115a565b8980fd5b503d6111bd565b8a513d8d823e3d90fd5b9492955050945082813d8311611239575b6112218183613381565b81010312610c88579051928b928592918c602461111f565b503d611217565b8551903d90823e3d90fd5b634e487b7160e01b865260218252602486fd5b5050346103e757816003193601126103e75760209061128461127f33613e13565b61386e565b60016008540190816008557f8030e83b04d87bef53480e26263266d6ca66863aa8506aca6f2559d18aa1cb67838251848152a151908152f35b5050346103e7576020906104d46112d33661328e565b92919091614b29565b8383346103e757816003193601126103e757805191809380549160019083821c928285169485156113b4575b60209586861081146113a15785895290811561137d5750600114611342575b6105f88787611338828c0383613381565b5191829182613221565b9080949750528583205b82841061136a57505050826105f89461133892820101948680611327565b805486850188015292860192810161134c565b60ff19168887015250505050151560051b8301019250611338826105f88680611327565b634e487b7160e01b845260228352602484fd5b93607f1693611308565b5050346103e757806003193601126103e757602090610dc36113de61324d565b6113e661327e565b90613e3d565b828434610e975760e0366003190112610e9757506104d460209260c4359060a435906084359060643590604435906024359035614c3e565b8383346103e757611434366132e1565b929392916001600160a01b038281169081156116fd5786611454336148f2565b106116ae57861561167d57841561163d57821680156115fc5761148e61147b888633614dcd565b60ff61148682614ead565b911615614d0c565b87808751602081019063d4ce141560e01b82526114c2816114b48b338c60248501613b8f565b03601f198101835282613381565b519082875af16114d0613aca565b9061157d575b506018546001810180911161156a57926005899a87948997948b9960008051602061521c8339815191529b6104249e8a6115609b60185581526019602052209360018060a01b03199333858754161786558c600387015560018601908582541617905584015560028301918254161790550160ff1981541690556018549451958695339087614fa6565b0390a1303361464b565b634e487b7160e01b895260118a52602489fd5b8060208061159093518301019101614db4565b60ff875191637f4ab1dd60e01b835216808b8301528982602481865afa9182156115f257906115c892918b926115ce575b5015614d0c565b896114d6565b6115eb9192503d808d833e6115e38183613381565b810190614e4f565b908c6115c1565b88513d8c823e3d90fd5b855162461bcd60e51b81526020818b0152601b60248201527a496e76616c69642071756f746520746f6b656e206164647265737360281b6044820152606490fd5b855162461bcd60e51b81526020818b0152601a602482015279125b9d985b1a59081c5d5bdd19481d1bdad95b88185b5bdd5b9d60321b6044820152606490fd5b855162461bcd60e51b81526020818b0152601f60248201526000805160206151dc8339815191526044820152606490fd5b855162461bcd60e51b81526020818b01526024808201527f496e73756666696369656e74207265737472696374656420746f6b656e20616d6044820152631bdd5b9d60e21b6064820152608490fd5b855162461bcd60e51b81526020818b0152601a60248201527924b73b30b634b21038bab7ba32903a37b5b2b71039b2b73232b960311b6044820152606490fd5b5050346103e757816003193601126103e75760209060ff600a54169051908152f35b9050346106705760a03660031901126106705761177a61324d565b92608435906001600160401b038211610e975736602383011215610e975750926117b2610dc3928560246020973693013591016133d9565b90606435906044359060243590613f55565b5050346103e757806003193601126103e7576117de61324d565b602435916001600160a01b039091169082906117fb831515613dcf565b61180c61180733613eb6565b613f0a565b82855260116020528420553360008051602061523c8339815191528480a480f35b5050346103e75760203660031901126103e7576020906104d461184e61324d565b61491c565b5050346103e757816003193601126103e7576020906018549051908152f35b5050346103e75760203660031901126103e7576104d46020926118af8361189761324d565b6001600160a01b03811684528387529220549161496a565b906134b5565b5050346103e757816003193601126103e7576000805160206151fc833981519152906118e361127f33613e13565b600160ff196015541617601555805133815260016020820152a180f35b828434610e975781600319360112610e97579061192761191e61324d565b60243590614b6c565b8151928392608060209384865260c08601928151868801528582015181880152810151606087015260608101518287015201519260a08086015283518092528060e086019401925b82811061197e57505050500390f35b83516001600160a01b03168552869550938101939281019260010161196f565b5050346103e757806020926119b2366132ac565b8352601686528383206001600160a01b039283168452865283832091168252845220549051908152f35b90503461067057602036600319011261067057359160ff83168303610e975750611a086105f892614ead565b905191829182613221565b5050346103e757806003193601126103e7576020906104d4611a3361324d565b602435906144ed565b5050346103e75760203660031901126103e7576020906104d4611a5d61324d565b6148f2565b5050346103e7576020906104d4611a78366132ac565b91613d44565b839150346103e75760203660031901126103e7573590600c54821015610e9757506105c6906133a4565b5050346103e75760203660031901126103e7576020906104d4611ac961324d565b6118af611ad58261496a565b9161491c565b5050346103e757806003193601126103e757611af561324d565b602435916001600160a01b03909116908290611b12831515613dcf565b611b1e61180733613eb6565b82855260126020528420553360008051602061529c8339815191528480a480f35b828434610e975760e0366003190112610e97576080366063190112610e9757506104d4602092825190611b718261331a565b60643582526084358583015260a4358483015260c4356060830152604435906024359035614c22565b5050346103e757806003193601126103e7576020906104d4611bba61324d565b60243590613bd9565b5050346103e757806003193601126103e757611bdd61324d565b60243591611bed61127f33613e13565b611bf5613904565b6001600160a01b03821691611c16908490611c118515156138c4565b613bd9565b90611c22823385613975565b8385526017602052808520838652602052600181862001611c44838254613723565b9055519081527f91fb9d98b786c57d74c099ccd2beca1739e9f6a81fb49001ca465c4b7591bbe260203392a46001600b5580f35b5050346103e757816003193601126103e7576020906008549051908152f35b91905034610670578060031936011261067057611cb261324d565b9160243592611cbf613904565b611cca843383613d44565b918215611d6457506001600160a01b0316917f2f6639d24651730c7bf57c95ddbf96d66d11477e4ec626876f92c22e5f365e6890611d09833386613975565b8486526020906016825280872085885282528087203388528252808720611d318582546134b5565b9055858752601782528087208588528252600181882001611d53858254613723565b9055519283523392a46001600b5580f35b606490602085519162461bcd60e51b8352820152601d60248201527f594f552043414e60542052454345495645204d4f524520544f4b454e530000006044820152fd5b5050346103e757806003193601126103e757602091611dc461324d565b6001600160a01b038116825260058452828220611de3906024356136ec565b925015611df257509051908152f35b611dfc91506148f2565b9061106a565b5050346103e757816003193601126103e757602090516127108152f35b9050346106705760a036600319011261067057611e3a61324d565b60243592606435926084359283151595868503611eec576001600160a01b0390911694610a61918615159190611e6f83613dcf565b611e7b61180733613eb6565b611e8483613dcf565b611e9061180733613eb6565b878a52601260205280868b2055873360008051602061529c8339815191528c80a4611eba82613dcf565b611ec661180733613eb6565b868952601160205280858a2055863360008051602061523c8339815191528b80a4613dcf565b8780fd5b5050346103e757806003193601126103e75780602092611f0e61324d565b611f16613268565b6001600160a01b0391821683526012808752848420548452601387528484209290911683528552828220548252845220549051908152f35b91905034610670578060031936011261067057611f6961324d565b6001600160a01b038116926024359291908415611f868115613dcf565b611f92610ef833613e8c565b611f9e856002546134b5565b6010541061203957611ff65750849260008051602061527c83398151915292611fc86020936147bc565b611fd061480b565b611fdc826002546134b5565b60025585855284835280852082815401905551908152a380f35b606490602084519162461bcd60e51b8352820152601f60248201527f45524332303a206d696e7420746f20746865207a65726f2061646472657373006044820152fd5b835162461bcd60e51b8152602081840152602a60248201527f43616e6e6f74206d696e74206d6f7265207468616e20746865206d617820746f60448201526974616c20737570706c7960b01b6064820152608490fd5b5050346103e757816003193601126103e7576000805160206151fc833981519152906120bd61127f33613e13565b60ff19601554166015558051338152836020820152a180f35b8383346103e757806003193601126103e7576120f061324d565b6120f861327e565b9160ff80841692831515806121d2575b61211190613d88565b6001600160a01b031693612126851515613dcf565b61213261127f33613e13565b8486526009602052600183872054161590816121c5575b5061218a575b8495508360019552600960205281862090838254918216179060ff1916179055519081526000805160206152bc83398151915260203392a480f35b600a548181168281146121b257600180979850839101169060ff191617600a5585945061214f565b634e487b7160e01b875260118852602487fd5b6001915016151587612149565b50600f858117831614612108565b9050346106705781600319360112610670576020928291358152601384528181206024358252845220549051908152f35b5050346103e757806003193601126103e757610d7460209261225a61223461324d565b338352600186528483206001600160a01b038216845286529184902054602435906134b5565b90336134d8565b5050346103e757816003193601126103e757602090517f00000000000000000000000000000000000000000000000000000000000000008152f35b5050346103e75760203660031901126103e75760209181906001600160a01b036122c461324d565b16815280845220549051908152f35b5050346103e757816003193601126103e75760209060ff600f54169051908152f35b8334610e9757610424612307366132ac565b91614d14565b5050346103e757816003193601126103e7576020906010549051908152f35b8383346103e75761233c366132e1565b936001600160a01b038084169493929085156125535784156125225786156124e25781169485156124a15761237561147b863387614dcd565b87808451602081019063d4ce141560e01b825261239b816114b48d8b3360248501613b8f565b519082865af16123a9613aca565b90612447575b506018546001810180911161156a579261243b9260058a9b8a9485856104249e8a60008051602061521c8339815191529d9c9b60185581526019602052209260018060a01b031992838554161784558a60038501556001840133848254161790558301558a600283019182541617905501600160ff198254161790556018549151958695339387614fa6565b0390a130903390613bb1565b8060208061245a93518301019101614db4565b60ff845191637f4ab1dd60e01b835216808b83015289826024818b5afa918215612497579061249192918b926115ce575015614d0c565b896123af565b85513d8c823e3d90fd5b825162461bcd60e51b81526020818b0152601b60248201527a496e76616c69642071756f746520746f6b656e206164647265737360281b6044820152606490fd5b825162461bcd60e51b81526020818b0152601a602482015279125b9d985b1a59081c5d5bdd19481d1bdad95b88185b5bdd5b9d60321b6044820152606490fd5b825162461bcd60e51b81526020818b0152601f60248201526000805160206151dc8339815191526044820152606490fd5b825162461bcd60e51b81526020818b0152601f60248201527f496e76616c6964207265737472696374656420746f6b656e2073656e646572006044820152606490fd5b8383346103e7576125a6366132ac565b93916001600160a01b03828116151580612753575b6125c490613dcf565b811692838152602095600187528582203383528752858220548082116126ef576125ef828686614d14565b6125f982856149eb565b9061261682519361260f8b8501958651906134b5565b10156145b2565b815191826126cf575b505050519384612633575b86865160018152f35b9085918152600187528181203382528752205495600019870361266a575b5061265e9394955061464b565b8190838080808061262a565b83871061268c57506126848361265e9596970333836134d8565b859493612651565b845162461bcd60e51b8152908101869052601d60248201527f45524332303a20696e73756666696369656e7420616c6c6f77616e63650000006044820152606490fd5b6126dd6126e793883061464b565b51900333856134d8565b88808061261f565b865162461bcd60e51b8152808a01899052603860248201527f54686520617070726f76656420616c6c6f77616e6365206973206c6f776572206044820152771d1a185b881d1a19481d1c985b9cd9995c88185b5bdd5b9d60421b6064820152608490fd5b5081811615156125bb565b839150346103e75761276f3661328e565b917f000000000000000000000000000000000000000000000000000000000000000081116129755760018410612944576127108083116129105760018511156128c057508215612890575b8651936127c68561331a565b84526020840190815286840191825260608401928352600c54600160401b81101561287d578060016127fb9201600c556133a4565b94909461286b5751845551600184015551600283015551600390910155600c5460001981019190821161285857508060209351927f9c52cb9bbb9b7fa6ddb26d1e82afc4e62c9ec50c0f3488c10bb8ad22d4edc4c3339180a38152f35b634e487b7160e01b835260119052602482fd5b634e487b7160e01b8752868652602487fd5b634e487b7160e01b875260418652602487fd5b865162461bcd60e51b8152602081870152600a6024820152690706572696f64203d20360b41b6044820152606490fd5b600185146128cf575b506127ba565b82036128db57876128c9565b865162461bcd60e51b8152602081870152600f60248201526e72656c6561736564203c203130302560881b6044820152606490fd5b875162461bcd60e51b8152602081880152600e60248201526d72656c65617365203e203130302560901b6044820152606490fd5b865162461bcd60e51b8152602081870152600b60248201526a3c20312072656c6561736560a81b6044820152606490fd5b865162461bcd60e51b815260208187015260136024820152720ccd2e4e6e840e4cad8cac2e6ca407c40dac2f606b1b6044820152606490fd5b5050346103e757806003193601126103e757806020926129cc61324d565b6024358252601785528282206001600160a01b039091168252845220549051908152f35b5050346103e757816003193601126103e7576020906002549051908152f35b5050346103e757816003193601126103e757602090517f00000000000000000000000000000000000000000000000000000000000000008152f35b8383346103e75760c03660031901126103e757612a6561324d565b60a4359360248035906001600160a01b0380881690818903611eec57851691828852602097600d895284888220541115612d23578215612ce85784888286612ab29452600d8c5220613499565b5095612abd8761444c565b15612c9257604435875403612c4557606435600188015403612bed576003870195608435875403612b9f57612af286836144ed565b928315612b60575050612b2260029798999a82612b1c612b13898796614527565b95869330613975565b30613975565b885192835289830152878201527f6945f4788d8a6b16089d616d1f7bb52372bfdbc43addd3386a7842db4199986a60603392a4549101555160018152f35b895162461bcd60e51b81529182018b9052601a9082015279151a5b595b1bd8dac81a185cc81b9bc81d985b1d59481b19599d60321b6044820152606490fd5b885162461bcd60e51b81529081018a90526023818401527f457870656374656420746f74616c416d6f756e7420646f6573206e6f74206d616044820152620e8c6d60eb1b6064820152608490fd5b875162461bcd60e51b81528087018a9052602d818401527f457870656374656420636f6d6d656e63656d656e7454696d657374616d70206460448201526c0decae640dcdee840dac2e8c6d609b1b6064820152608490fd5b875162461bcd60e51b81528087018a90526022818401527f4578706563746564207363686564756c65496420646f6573206e6f74206d61746044820152610c6d60f31b6064820152608490fd5b875162461bcd60e51b81528087018a9052602b818401527f596f7520617265206e6f7420616c6c6f77656420746f2063616e63656c20746860448201526a69732074696d656c6f636b60a81b6064820152608490fd5b875162461bcd60e51b81528087018a905260168184015275496e76616c6964207265636c61696d546f6b656e546f60501b6044820152606490fd5b875162461bcd60e51b81528087018a90526010818401526f696e76616c69642074696d656c6f636b60801b6044820152606490fd5b5050346103e757806003193601126103e7576020906104d4612d7861324d565b60243590614590565b5050346103e757806003193601126103e757602090610d74612da161324d565b60243590336134d8565b8383346103e75760203660031901126103e75782358083526019602052818320546001600160a01b031615612e11578252601960205260ff600582842001541690519183821015612dfe57602083838152f35b634e487b7160e01b815260218452602490fd5b815162461bcd60e51b8152602081860152601660248201527553776170207265636f7264206e6f742065786973747360501b6044820152606490fd5b8383346103e75760203660031901126103e757823590818352601960205260ff600582852001541684811015612f8f576002816108626003612e90941415614fde565b818352601960205280832080546001600160a01b0390612eb39082161515615132565b8060018301541691612ec6831515615132565b600581019260ff84541688811015612f7c579161097095939189847fa715d65b6e7107257e3f1469a8b36f0003c039bf6cc6279c26d814b77efb658099979515600014612f44575050506003612f2e9282541691612f2583331461517c565b0154903061464b565b805460ff1916600317905551918291338361395a565b600114612f55575b50505050612f2e565b612f7393612f6483331461517c565b60028401541692015491613975565b86808080612f4c565b634e487b7160e01b885260218952602488fd5b634e487b7160e01b845260218552602484fd5b8383346103e757806003193601126103e757612fbc61324d565b90612fc561327e565b9060ff808316928315158061311d575b612fde90613d88565b6001600160a01b0385169461300b908290612ffa881515613dcf565b61300661127f33613e13565b613e3d565b156130e45760018116613053575b85965084865260096020528286209182549181831618169060ff1916179055519081526000805160206152bc83398151915260203392a480f35b600a54828116600181111561309357801561308057879850839060001901169060ff191617600a55613019565b634e487b7160e01b885260118952602488fd5b845162461bcd60e51b81526020818b0152602560248201527f4d7573742068617665206174206c65617374206f6e6520636f6e74726163742060448201526430b236b4b760d91b6064820152608490fd5b825162461bcd60e51b8152602081890152601360248201527243414e204e4f54205245564f4b4520524f4c4560681b6044820152606490fd5b50600f818117831614612fd5565b929150346105fc57836003193601126105fc57600354600181811c91869082811680156131f4575b60209586861082146131e157508488529081156131bf5750600114613184575b6105f88686611338828b0383613381565b929550600383528583205b8284106131ac57505050826105f894611338928201019438613173565b805486850188015292860192810161318f565b60ff191687860152505050151560051b8301019250611338826105f838613173565b634e487b7160e01b845260229052602483fd5b93607f1693613153565b60005b8381106132115750506000910152565b8181015183820152602001613201565b6040916020825261324181518092816020860152602086860191016131fe565b601f01601f1916010190565b600435906001600160a01b038216820361326357565b600080fd5b602435906001600160a01b038216820361326357565b6024359060ff8216820361326357565b60809060031901126132635760043590602435906044359060643590565b6060906003190112613263576001600160a01b0390600435828116810361326357916024359081168103613263579060443590565b608090600319011261326357600435906001600160a01b0390602435828116810361326357916044359081168103613263579060643590565b608081019081106001600160401b0382111761333557604052565b634e487b7160e01b600052604160045260246000fd5b60a081019081106001600160401b0382111761333557604052565b604081019081106001600160401b0382111761333557604052565b601f909101601f19168101906001600160401b0382119082101761333557604052565b600c548110156133c357600c60005260206000209060021b0190600090565b634e487b7160e01b600052603260045260246000fd5b9092916001600160401b038411613335578360051b604051926020809461340282850182613381565b809781520191810192831161326357905b8282106134205750505050565b81356001600160a01b0381168103613263578152908301908301613413565b6060906003190112613263576004356001600160a01b038116810361326357906024359060443590565b9181601f84011215613263578235916001600160401b038311613263576020808501948460051b01011161326357565b80548210156133c3576000526005602060002091020190600090565b919082018092116134c257565b634e487b7160e01b600052601160045260246000fd5b6001600160a01b0390811691821561358957169182156135395760207f8c5be1e5ebec7d5bd14f71427d1e84f3dd0314c0f7b2291e5b200ac8c7c3b925918360005260018252604060002085600052825280604060002055604051908152a3565b60405162461bcd60e51b815260206004820152602260248201527f45524332303a20617070726f766520746f20746865207a65726f206164647265604482015261737360f01b6064820152608490fd5b60405162461bcd60e51b8152602060048201526024808201527f45524332303a20617070726f76652066726f6d20746865207a65726f206164646044820152637265737360e01b6064820152608490fd5b6007548110156133c357600760005260206000200190600090565b6006548110156133c357600660005260206000200190600090565b80548210156133c35760005260206000200190600090565b80156136ae5760085481116136695761364090613730565b60065481036136525750600090600090565b61365b906135da565b90549060031b1c9060019190565b60405162461bcd60e51b815260206004820152601d60248201527f4552433230536e617073686f743a206e6f6e6578697374656e742069640000006044820152606490fd5b60405162461bcd60e51b815260206004820152601660248201527504552433230536e617073686f743a20696420697320360541b6044820152606490fd5b80156136ae5760085481116136695761370590826137d8565b81548103613717575050600090600090565b600161365b9201613610565b919082039182116134c257565b600680549182156137d0576000925b80841061378e5750821515918261376a575b5050156137675760001981019081116134c25790565b90565b9091506000199083828101116134c257600052826020600020010154143880613751565b6001906137a1818618831c8287166134b5565b9184600052838360206000200154116000146137be57505061373f565b90945081018091116134c2579261373f565b505050600090565b80549182156137d0576000925b80841061380c5750821515918261376a575050156137675760001981019081116134c25790565b60019061381f818618831c8287166134b5565b91846000528383602060002001541160001461383c5750506137e5565b90945081018091116134c257926137e5565b8115613858570490565b634e487b7160e01b600052601260045260246000fd5b1561387557565b60405162461bcd60e51b815260206004820152602160248201527f444f4553204e4f54204841564520434f4e54524143542041444d494e20524f4c6044820152604560f81b6064820152608490fd5b156138cb57565b60405162461bcd60e51b815260206004820152601160248201527042414420544f4b454e204144445245535360781b6044820152606490fd5b6002600b5414613915576002600b55565b60405162461bcd60e51b815260206004820152601f60248201527f5265656e7472616e637947756172643a207265656e7472616e742063616c6c006044820152606490fd5b6001600160a01b039091168152602081019190915260400190565b6139aa6139af939261399c60405194859263a9059cbb60e01b60208501526024840161395a565b03601f198101845283613381565b6139e4565b565b6001600160401b03811161333557601f01601f191660200190565b90816020910312613263575180151581036132635790565b604051613a42916001600160a01b03166139fd82613366565b6000806020958685527f5361666545524332303a206c6f772d6c6576656c2063616c6c206661696c656487860152868151910182855af1613a3c613aca565b91613afa565b805190828215928315613ab2575b50505015613a5b5750565b6084906040519062461bcd60e51b82526004820152602a60248201527f5361666545524332303a204552433230206f7065726174696f6e20646964206e6044820152691bdd081cdd58d8d9595960b21b6064820152fd5b613ac293508201810191016139cc565b388281613a50565b3d15613af5573d90613adb826139b1565b91613ae96040519384613381565b82523d6000602084013e565b606090565b91929015613b5c5750815115613b0e575090565b3b15613b175790565b60405162461bcd60e51b815260206004820152601d60248201527f416464726573733a2063616c6c20746f206e6f6e2d636f6e74726163740000006044820152606490fd5b825190915015613b6f5750805190602001fd5b60405162461bcd60e51b8152908190613b8b9060048301613221565b0390fd5b6001600160a01b03918216815291166020820152604081019190915260600190565b906139aa9061399c6139af956040519586936323b872dd60e01b602086015260248501613b8f565b90600052601760205260406000209060018060a01b0316600052602052600160406000200154806137675750600090565b818102929181159184041417156134c257565b6040805163277166bf60e11b81529384939092908490613c429085906004840161395a565b03602094859181305afa948515613d3957600095613d0a575b508151630981b24d60e41b815260048101849052938085602481305afa948515613cff57600095613cd0575b5061271095868102908082048814901517156134c257613ccc95613caa9161384e565b9360005260178152826000209160018060a01b03166000525260002054613c0a565b0490565b90948582813d8311613cf8575b613ce78183613381565b81010312610e975750519338613c87565b503d613cdd565b83513d6000823e3d90fd5b90948482813d8311613d32575b613d218183613381565b81010312610e975750519338613c5b565b503d613d17565b82513d6000823e3d90fd5b9061376792604091613d57828286613c1d565b6000928352601660209081528484206001600160a01b03968716855281528484209290951683529352205490613723565b15613d8f57565b60405162461bcd60e51b8152602060048201526018602482015277444f4553204e4f5420484156452056414c494420524f4c4560401b6044820152606490fd5b15613dd657565b60405162461bcd60e51b81526020600482015260156024820152740416464726573732063616e6e6f742062652030783605c1b6044820152606490fd5b6001600160a01b0316613e27811515613dcf565b6000526009602052600160406000205416151590565b9060ff91828216151580613e7e575b613e5590613d88565b6001600160a01b0316613e69811515613dcf565b60005260096020526040600020541616151590565b50600f828117841614613e4c565b6001600160a01b0316613ea0811515613dcf565b6000526009602052600260406000205416151590565b6001600160a01b0316613eca811515613dcf565b6000526009602052600460406000205416151590565b6001600160a01b0316613ef4811515613dcf565b6000526009602052600860406000205416151590565b15613f1157565b606460405162461bcd60e51b815260206004820152602060248201527f444f4553204e4f5420484156452057414c4c4554532041444d494e20524f4c456044820152fd5b9093919293613f62613904565b600a8351116143ca577f0000000000000000000000000000000000000000000000000000000000000000811061438e576001600160a01b0382161561435a57600c5485101561432457613fb4856133a4565b505481106142e757613fc681306145f3565b50613fde6001613fd5876133a4565b500154856134b5565b6140087f0000000000000000000000000000000000000000000000000000000000000000426134b5565b106142a35761401561440f565b85815260208101858152606082019183835260018060a01b038516600052600d60205260406000208054600160401b8110156133355761405a91600182018155613499565b93909361428d578151845591516001840155604081015160028401559051600383015560800151805191906001600160401b03831161333557600160401b8311613335576004820154836004840155808410614260575b506020600491019101600052602060002060005b83811061424357505050506001600160a01b0382166000908152600d602052604090205460001981019081116134c2578351614190575b604051946080860192865260208601526040850152608060608501528251809152602060a0850193019060005b818110614171575050506001600160a01b03169133917f8d92942330bb9e8e714a4f66aa3eefe27f66d05b8ae4b6f6889e5a64a16155be919081900390a46001906001600b55565b82516001600160a01b0316855260209485019490920191600101614129565b60018060a01b038316600052600d60205260046141b1826040600020613499565b50855191016001600160401b03821161333557600160401b821161333557805482825580831061421a575b506020860190600052602060002060005b8381106141fd57505050506140fc565b82516001600160a01b0316818301556020909201916001016141ed565b8160005282602060002091820191015b81811061423757506141dc565b6000815560010161422a565b82516001600160a01b0316818301556020909201916001016140c5565b600483016000526020600020908482015b81830181106142815750506140b1565b60008155600101614271565b634e487b7160e01b600052600060045260246000fd5b60405162461bcd60e51b815260206004820152601c60248201527b696e697469616c2072656c65617365206f7574206f662072616e676560201b6044820152606490fd5b60405162461bcd60e51b81526020600482015260156024820152743c203120746f6b656e207065722072656c6561736560581b6044820152606490fd5b60405162461bcd60e51b815260206004820152600e60248201526d189859081cd8da19591d5b19525960921b6044820152606490fd5b60405162461bcd60e51b815260206004820152600c60248201526b746f2030206164647265737360a01b6044820152606490fd5b60405162461bcd60e51b8152602060048201526014602482015273616d6f756e74203c206d696e2066756e64696e6760601b6044820152606490fd5b60405162461bcd60e51b815260206004820152601e60248201527f6d61782031302063616e63656c61626c654279206164647265737365657300006044820152606490fd5b6040519061441c8261334b565b60606080836000815260006020820152600060408201526000838201520152565b60001981146134c25760010190565b60005b6004820180548210156137d0578161446691613610565b90543360039290921b1c6001600160a01b0316146144905761448960049161443d565b905061444f565b5050600190565b1561449e57565b60405162461bcd60e51b81526020600482015260176024820152760dad2e6dac2e8c6d0cac840c2e4e4c2f240d8cadccee8d604b1b6044820152606490fd5b91908110156133c35760051b0190565b6144f78282614b6c565b906040606083015192015182111560001461451457505050600090565b6137679261452191614590565b90613723565b6145318282614b6c565b90604060608301519201918251101560001461454f57505050600090565b6137679261455c91614590565b905190613723565b9061456e91614b6c565b6060810151604090910151808211614587575050600090565b61376791613723565b6137679161459d91614b6c565b60208101519060608101519051914290614b29565b156145b957565b60405162461bcd60e51b8152602060048201526012602482015271496e737566666963656e7420746f6b656e7360701b6044820152606490fd5b906145fe81336149eb565b61461481519261260f60208401948551906134b5565b518061463a575b505180614629575050600190565b614633913361464b565b3880614490565b61464590833061464b565b3861461b565b90916001600160a01b03808316929083156147695784169384156147185761467561467a926147bc565b6147bc565b6000828152806020526040812054918083106146c4576040828260008051602061527c833981519152958760209652828652038282205586815220818154019055604051908152a3565b60405162461bcd60e51b815260206004820152602660248201527f45524332303a207472616e7366657220616d6f756e7420657863656564732062604482015265616c616e636560d01b6064820152608490fd5b60405162461bcd60e51b815260206004820152602360248201527f45524332303a207472616e7366657220746f20746865207a65726f206164647260448201526265737360e81b6064820152608490fd5b60405162461bcd60e51b815260206004820152602560248201527f45524332303a207472616e736665722066726f6d20746865207a65726f206164604482015264647265737360d81b6064820152608490fd5b6001600160a01b0381166000908152600560205260409020906147de906148f2565b600854806147eb846148cf565b106147f557505050565b826148056001926139af9561487f565b0161487f565b600254600854908161481b6148a2565b10614824575050565b600654600160401b92838210156133355761484882600161486194016006556135f5565b90919082549060031b91821b91600019901b1916179055565b60075491821015613335576148488260016139af94016007556135da565b80549190600160401b83101561333557826148489160016139af95018155613610565b600654806148b05750600090565b60001981019081116134c2576148c5906135f5565b90549060031b1c90565b8054806148dd575050600090565b60001981019081116134c2576148c591613610565b6137679060018060a01b03811660005260006020526118af611ad56040600020546118af8461496a565b60009060009283925b6001600160a01b0383168552600d60205260408520548410156149635761495b6149556040926118af87876144ed565b9461443d565b939050614925565b9350915050565b60009060009283925b6001600160a01b0383168552600d6020526040852054841015614963576149a36149556040926118af8787614527565b939050614973565b156149b257565b60405162461bcd60e51b8152602060048201526011602482015270185b5bdd5b9d080f881d5b9b1bd8dad959607a1b6044820152606490fd5b91906040928351906149fc82613366565b84368337819260018060a01b03821693600092858452602091848352614a2c84610d4b8b8820546118af8661496a565b8390855b888752600d8086528b88208054831015614b145790886003614a6e8f86908f9682614a5a91613499565b50966002809801549552858c528d20613499565b50015403614a86575050614a819061443d565b614a30565b90919293614a948487614527565b811115614ae557614ade614a8193614ad48f968998978f9682978f9784614ac3614ac9928f8361452191614527565b9d614527565b97528c528d20613499565b50019182546134b5565b905561443d565b945091614b05939b614ad49293614b0e989b8a989b9a528a528620613499565b90558094613723565b81520152565b505050985095505092915083614b0e91613723565b9190614b37613767946133a4565b5092600360405194614b488661331a565b80548652600181015460208701526002810154604087015201546060850152614c22565b90614b7561440f565b5060018060a01b03809216600052614b97602091600d83526040600020613499565b509060405192614ba68461334b565b82548452600460019384810154848701526002810154604087015260038101546060870152016040519384859385845492838152019360005285600020956000915b838310614c08575050505050614c0092500382613381565b608082015290565b875481168652968401968896509481019491840191614be8565b9190613767939182519060208401519260606040860151950151955b9591929390600096818111614cff57614c5691613723565b9460001985019485116134c257614c76614c708685613c0a565b836134b5565b861015614cf55781861015614c8f575b50505050505090565b8394959650614ca390612710929394613c0a565b049482614cb08383613723565b1015614cbd575b80614c86565b92614ce686614ce0614ceb989795614cdb614cdb966118af99613723565b61384e565b92613723565b613c0a565b3880808080614cb7565b5050509250505090565b5050505050505050600090565b15613b6f5750565b91614d2191602493614dcd565b600f54604051637d8e7d1b60e01b815260ff8316600482015292602091849190829060081c6001600160a01b03165afa908115614da8576139af92600092614d74575b50614d6e90614ead565b90614d0c565b614d6e919250614d9a9060203d8111614da1575b614d928183613381565b8101906139cc565b9190614d64565b503d614d88565b6040513d6000823e3d90fd5b90816020910312613263575160ff811681036132635790565b600f5460405163cfdb31a960e01b81523060048201526001600160a01b0392831660248201529282166044840152606483019390935290916020918391608491839160081c165afa908115614da857600091614e27575090565b613767915060203d8111614e48575b614e408183613381565b810190614db4565b503d614e36565b602081830312613263578051906001600160401b038211613263570181601f82011215613263578051614e81816139b1565b92614e8f6040519485613381565b818452602082840101116132635761376791602080850191016131fe565b600f54604051637f4ab1dd60e01b815260ff9290921660048301526000908290602490829060081c6001600160a01b03165afa908115614da857600091614ef2575090565b613767913d8091833e6115e38183613381565b15614f0c57565b60405162461bcd60e51b815260206004820152602160248201527f444f4553204e4f542048415645205452414e534645522041444d494e20524f4c6044820152604560f81b6064820152608490fd5b15614f6257565b606460405162461bcd60e51b815260206004820152602060248201527f444f4553204e4f54204841564520524553455256452041444d494e20524f4c456044820152fd5b9081526001600160a01b039182166020820152604081019290925291821660608201529116608082015260a081019190915260c00190565b15614fe557565b60405162461bcd60e51b815260206004820152601060248201526f105b1c9958591e4818d85b98d95b195960821b6044820152606490fd5b1561502457565b60405162461bcd60e51b8152602060048201526011602482015270105b1c9958591e4818dbdb5c1b195d1959607a1b6044820152606490fd5b1561506457565b60405162461bcd60e51b815260206004820152603260248201527f596f7520617265206e6f7420617070726f70726961746520746f6b656e20736560448201527106e64657220666f72207468697320737761760741b6064820152608490fd5b156150cb57565b60405162461bcd60e51b815260206004820152603960248201527f4465706f73697420726576657274656420666f7220696e636f72726563742072604482015278195cdd5b1d081bd98819195c1bdcda5d195908185b5bdd5b9d603a1b6064820152608490fd5b1561513957565b60405162461bcd60e51b815260206004820152601b60248201527a151a1a5cc81cddd85c081a5cc81b9bdd0818dbdb999a59dd5c9959602a1b6044820152606490fd5b1561518357565b60405162461bcd60e51b815260206004820152602a60248201527f4f6e6c79207377617020636f6e666967757261746f722063616e2063616e636560448201526906c2074686520737761760b41b6064820152608490fdfe496e76616c6964207265737472696374656420746f6b656e20616d6f756e74000d7fd1e314b29407db3d79c46ecf1fa3d2108961fab8d20584277358cac41e89af8133d280a9241f6394046faf602ea059328a743babfff788f98718ccd680730765aaf231b09368f07b83425559b145d7d386b1ff8f16c157a2ff2c7b9896fe839a27e1d7199cf5ace0e4c298611bd5ff22b782dfce92a7fefebf119ec5778eddf252ad1be2c89b69c2b068fc378daa952ba7f163c4a11628f55a4df523b3eff213aa445739b8d5bb514c5e3142fe13baacfa991314172ceaf756996259b8b37e9e87d17fbf2950f3379a6331b75b6e997a147bbd3eaedc68c30c62186c68cba164736f6c6343000814000addf252ad1be2c89b69c2b068fc378daa952ba7f163c4a11628f55a4df523b3ef","opcodes":"PUSH1 0xC0 PUSH1 0x40 SWAP1 DUP1 DUP3 MSTORE CALLVALUE PUSH3 0x7F4 JUMPI PUSH3 0x601E DUP1 CODESIZE SUB DUP1 SWAP2 PUSH3 0x22 DUP3 DUP6 PUSH3 0x815 JUMP JUMPDEST DUP4 CODECOPY DUP2 ADD SWAP2 PUSH2 0x140 DUP3 DUP5 SUB SLT PUSH3 0x7F4 JUMPI PUSH3 0x3E DUP3 PUSH3 0x839 JUMP JUMPDEST SWAP2 PUSH3 0x4D PUSH1 0x20 DUP3 ADD PUSH3 0x839 JUMP JUMPDEST PUSH3 0x5A DUP4 DUP4 ADD PUSH3 0x839 JUMP JUMPDEST PUSH1 0x60 DUP4 ADD MLOAD SWAP1 SWAP4 SWAP1 PUSH1 0x1 PUSH1 0x1 PUSH1 0x40 SHL SUB DUP2 GT PUSH3 0x7F4 JUMPI DUP7 PUSH3 0x7F SWAP2 DUP6 ADD PUSH3 0x84E JUMP JUMPDEST PUSH1 0x80 DUP5 ADD MLOAD SWAP1 SWAP7 PUSH1 0x1 PUSH1 0x1 PUSH1 0x40 SHL SUB DUP3 GT PUSH3 0x7F4 JUMPI PUSH3 0xA2 SWAP2 DUP6 ADD PUSH3 0x84E JUMP JUMPDEST PUSH1 0xA0 DUP5 ADD MLOAD SWAP6 PUSH1 0xFF DUP8 AND DUP8 SUB PUSH3 0x7F4 JUMPI PUSH1 0xC0 DUP6 ADD MLOAD SWAP4 PUSH1 0xE0 DUP7 ADD MLOAD PUSH2 0x120 PUSH2 0x100 DUP9 ADD MLOAD SWAP8 ADD MLOAD SWAP4 DUP1 MLOAD PUSH1 0x1 DUP1 PUSH1 0x40 SHL SUB DUP2 GT PUSH3 0x6CB JUMPI PUSH1 0x3 SLOAD SWAP2 PUSH1 0x1 DUP4 DUP2 SHR SWAP4 AND DUP1 ISZERO PUSH3 0x7E9 JUMPI JUMPDEST PUSH1 0x20 DUP5 LT EQ PUSH3 0x7D3 JUMPI DUP2 SWAP1 PUSH1 0x1F SWAP4 DUP5 DUP2 GT PUSH3 0x77C JUMPI JUMPDEST POP PUSH1 0x20 SWAP1 DUP5 DUP4 GT PUSH1 0x1 EQ PUSH3 0x6ED JUMPI PUSH1 0x0 SWAP3 PUSH3 0x6E1 JUMPI JUMPDEST POP POP DUP2 PUSH1 0x1 SHL SWAP2 PUSH1 0x0 NOT SWAP1 PUSH1 0x3 SHL SHR NOT AND OR PUSH1 0x3 SSTORE JUMPDEST DUP11 MLOAD SWAP1 PUSH1 0x1 PUSH1 0x1 PUSH1 0x40 SHL SUB DUP3 GT PUSH3 0x6CB JUMPI PUSH1 0x4 SWAP12 DUP13 SLOAD PUSH1 0x1 DUP2 DUP2 SHR SWAP2 AND DUP1 ISZERO PUSH3 0x6C0 JUMPI JUMPDEST PUSH1 0x20 DUP3 LT EQ PUSH3 0x6AB JUMPI SWAP1 DUP2 DUP4 DUP6 SWAP5 SWAP4 GT PUSH3 0x652 JUMPI JUMPDEST POP PUSH1 0x20 SWAP2 DUP4 GT PUSH1 0x1 EQ PUSH3 0x5E7 JUMPI PUSH1 0x0 SWAP3 PUSH3 0x5DB JUMPI JUMPDEST POP POP DUP2 PUSH1 0x1 SHL SWAP2 PUSH1 0x0 NOT SWAP1 PUSH1 0x3 SHL SHR NOT AND OR DUP11 SSTORE JUMPDEST PUSH1 0x1 PUSH1 0xB SSTORE PUSH1 0x15 DUP1 SLOAD PUSH1 0xFF NOT SWAP1 DUP2 AND SWAP1 SWAP2 SSTORE SWAP3 PUSH1 0x1 PUSH1 0x1 PUSH1 0xA0 SHL SUB SWAP3 DUP4 DUP3 AND ISZERO PUSH3 0x58C JUMPI DUP4 AND SWAP3 DUP4 ISZERO PUSH3 0x53F JUMPI DUP10 AND SWAP10 DUP11 ISZERO PUSH3 0x4EA JUMPI PUSH1 0xFF PUSH1 0xF SLOAD SWAP2 AND SWAP2 PUSH2 0x100 PUSH1 0x1 PUSH1 0xA8 SHL SUB SWAP1 PUSH1 0x8 SHL AND SWAP1 PUSH1 0x1 DUP1 PUSH1 0xA8 SHL SUB NOT AND OR OR PUSH1 0xF SSTORE PUSH1 0x10 SSTORE PUSH1 0x0 MSTORE PUSH1 0x9 PUSH1 0x20 MSTORE DUP3 PUSH1 0x0 KECCAK256 PUSH1 0x1 DUP3 DUP3 SLOAD AND OR SWAP1 SSTORE PUSH1 0x1 DUP2 PUSH1 0xA SLOAD AND OR PUSH1 0xA SSTORE DUP7 PUSH1 0x0 MSTORE PUSH1 0x2 DUP4 PUSH1 0x0 KECCAK256 SWAP2 DUP3 SLOAD SWAP1 PUSH1 0xFF DUP3 AND SWAP2 AND OR OR SWAP1 SSTORE PUSH1 0x5 PUSH1 0x20 MSTORE DUP2 PUSH1 0x0 KECCAK256 SWAP4 PUSH1 0x0 PUSH1 0x20 MSTORE DUP3 PUSH1 0x0 KECCAK256 SLOAD SWAP8 PUSH1 0x0 SWAP8 DUP9 JUMPDEST DUP2 PUSH1 0x0 MSTORE PUSH1 0xD PUSH1 0x20 MSTORE DUP6 PUSH1 0x0 KECCAK256 SLOAD DUP11 LT ISZERO PUSH3 0x290 JUMPI PUSH3 0x282 PUSH3 0x289 SWAP2 PUSH3 0x27B DUP13 DUP13 PUSH3 0xAC2 JUMP JUMPDEST SWAP1 PUSH3 0x8C5 JUMP JUMPDEST SWAP10 PUSH3 0x9C8 JUMP JUMPDEST SWAP9 PUSH3 0x250 JUMP JUMPDEST PUSH3 0x2A0 SWAP1 DUP12 SWAP10 SWAP8 SWAP9 SWAP10 PUSH3 0x8C5 JUMP JUMPDEST SWAP7 PUSH1 0x0 SWAP9 DUP10 JUMPDEST DUP4 PUSH1 0x0 MSTORE PUSH1 0xD PUSH1 0x20 MSTORE DUP8 PUSH1 0x0 KECCAK256 SLOAD DUP12 LT ISZERO PUSH3 0x2DF JUMPI PUSH3 0x2D1 PUSH3 0x2D8 SWAP2 PUSH3 0x27B DUP14 DUP13 PUSH3 0x9D8 JUMP JUMPDEST SWAP11 PUSH3 0x9C8 JUMP JUMPDEST SWAP10 PUSH3 0x2A6 JUMP JUMPDEST PUSH3 0x2EB SWAP1 DUP11 PUSH3 0x8C5 JUMP JUMPDEST PUSH1 0x8 SLOAD DUP1 PUSH3 0x2FA DUP5 PUSH3 0x9A1 JUMP JUMPDEST LT PUSH3 0x4C7 JUMPI JUMPDEST POP POP POP PUSH1 0x2 SLOAD PUSH1 0x8 SLOAD DUP1 PUSH3 0x315 PUSH3 0x970 JUMP JUMPDEST LT PUSH3 0x3E4 JUMPI JUMPDEST POP POP PUSH1 0x0 DUP1 MLOAD PUSH1 0x20 PUSH3 0x5FFE DUP4 CODECOPY DUP2 MLOAD SWAP2 MSTORE PUSH1 0x20 DUP3 PUSH3 0x341 PUSH1 0x0 SWAP5 PUSH1 0x2 SLOAD PUSH3 0x8C5 JUMP JUMPDEST PUSH1 0x2 SSTORE DUP5 DUP5 MSTORE DUP4 DUP3 MSTORE DUP9 DUP5 KECCAK256 DUP2 DUP2 SLOAD ADD SWAP1 SSTORE DUP9 MLOAD SWAP1 DUP2 MSTORE LOG3 DUP2 ISZERO PUSH3 0x3A1 JUMPI POP PUSH1 0x80 MSTORE PUSH1 0xA0 MSTORE PUSH1 0x0 PUSH1 0x18 SSTORE MLOAD PUSH2 0x52E8 SWAP1 DUP2 PUSH3 0xD16 DUP3 CODECOPY PUSH1 0x80 MLOAD DUP2 DUP2 DUP2 PUSH2 0x2279 ADD MSTORE PUSH2 0x3F6D ADD MSTORE PUSH1 0xA0 MLOAD DUP2 DUP2 DUP2 PUSH2 0x2772 ADD MSTORE DUP2 DUP2 PUSH2 0x2A27 ADD MSTORE PUSH2 0x3FE3 ADD MSTORE RETURN JUMPDEST PUSH1 0x64 SWAP1 PUSH1 0x20 DUP6 MLOAD SWAP2 PUSH3 0x461BCD PUSH1 0xE5 SHL DUP4 MSTORE DUP3 ADD MSTORE PUSH1 0x17 PUSH1 0x24 DUP3 ADD MSTORE PUSH32 0x4D696E2074696D656C6F636B20616D6F756E74203E2030000000000000000000 PUSH1 0x44 DUP3 ADD MSTORE REVERT JUMPDEST PUSH1 0x6 SLOAD SWAP1 PUSH9 0x10000000000000000 SWAP2 DUP3 DUP2 LT ISZERO PUSH3 0x4B2 JUMPI SWAP1 PUSH3 0x413 DUP3 PUSH1 0x1 PUSH3 0x42C SWAP5 ADD PUSH1 0x6 SSTORE PUSH3 0x8E9 JUMP JUMPDEST SWAP1 SWAP2 SWAP1 DUP3 SLOAD SWAP1 PUSH1 0x3 SHL SWAP2 DUP3 SHL SWAP2 PUSH1 0x0 NOT SWAP1 SHL NOT AND OR SWAP1 SSTORE JUMP JUMPDEST PUSH1 0x7 SLOAD SWAP1 DUP2 LT ISZERO PUSH3 0x49D JUMPI PUSH1 0x1 DUP2 ADD DUP1 PUSH1 0x7 SSTORE DUP2 LT ISZERO PUSH3 0x488 JUMPI PUSH1 0x7 PUSH1 0x0 MSTORE PUSH32 0xA66CC928B5EDB82AF9BD49922954155AB7B0942694BEA4CE44661D9A8736C688 ADD SSTORE PUSH1 0x0 DUP1 MLOAD PUSH1 0x20 PUSH3 0x5FFE DUP4 CODECOPY DUP2 MLOAD SWAP2 MSTORE PUSH1 0x20 PUSH3 0x31C JUMP JUMPDEST PUSH1 0x32 DUP6 PUSH4 0x4E487B71 PUSH1 0xE0 SHL PUSH1 0x0 MSTORE MSTORE PUSH1 0x24 PUSH1 0x0 REVERT JUMPDEST PUSH1 0x41 DUP6 PUSH4 0x4E487B71 PUSH1 0xE0 SHL PUSH1 0x0 MSTORE MSTORE PUSH1 0x24 PUSH1 0x0 REVERT JUMPDEST PUSH1 0x41 DUP8 PUSH4 0x4E487B71 PUSH1 0xE0 SHL PUSH1 0x0 MSTORE MSTORE PUSH1 0x24 PUSH1 0x0 REVERT JUMPDEST DUP3 PUSH3 0x4DA PUSH1 0x1 SWAP3 PUSH3 0x4E1 SWAP6 PUSH3 0x934 JUMP JUMPDEST ADD PUSH3 0x934 JUMP JUMPDEST DUP7 DUP1 DUP1 PUSH3 0x301 JUMP JUMPDEST DUP7 MLOAD PUSH3 0x461BCD PUSH1 0xE5 SHL DUP2 MSTORE PUSH1 0x20 DUP2 DUP15 ADD MSTORE PUSH1 0x29 PUSH1 0x24 DUP3 ADD MSTORE PUSH32 0x546F6B656E20726573657276652061646D696E20616464726573732063616E6E PUSH1 0x44 DUP3 ADD MSTORE PUSH9 0x6F742062652030783 PUSH1 0xBC SHL PUSH1 0x64 DUP3 ADD MSTORE PUSH1 0x84 SWAP1 REVERT JUMPDEST DUP7 MLOAD PUSH3 0x461BCD PUSH1 0xE5 SHL DUP2 MSTORE PUSH1 0x20 DUP2 DUP15 ADD MSTORE PUSH1 0x21 PUSH1 0x24 DUP3 ADD MSTORE PUSH32 0x546F6B656E206F776E657220616464726573732063616E6E6F74206265203078 PUSH1 0x44 DUP3 ADD MSTORE PUSH1 0x3 PUSH1 0xFC SHL PUSH1 0x64 DUP3 ADD MSTORE PUSH1 0x84 SWAP1 REVERT JUMPDEST DUP7 MLOAD PUSH3 0x461BCD PUSH1 0xE5 SHL DUP2 MSTORE PUSH1 0x20 DUP2 DUP15 ADD MSTORE PUSH1 0x24 DUP1 DUP3 ADD MSTORE PUSH32 0x5472616E736665722072756C657320616464726573732063616E6E6F74206265 PUSH1 0x44 DUP3 ADD MSTORE PUSH4 0x2030783 PUSH1 0xE4 SHL PUSH1 0x64 DUP3 ADD MSTORE PUSH1 0x84 SWAP1 REVERT JUMPDEST ADD MLOAD SWAP1 POP CODESIZE DUP1 PUSH3 0x188 JUMP JUMPDEST PUSH1 0x0 DUP15 DUP2 MSTORE PUSH1 0x20 DUP2 KECCAK256 SWAP4 POP PUSH1 0x1F NOT DUP6 AND SWAP1 JUMPDEST DUP2 DUP2 LT PUSH3 0x639 JUMPI POP SWAP1 DUP5 PUSH1 0x1 SWAP6 SWAP5 SWAP4 SWAP3 LT PUSH3 0x61F JUMPI JUMPDEST POP POP POP DUP2 SHL ADD DUP11 SSTORE PUSH3 0x19D JUMP JUMPDEST ADD MLOAD PUSH1 0x0 NOT PUSH1 0xF8 DUP5 PUSH1 0x3 SHL AND SHR NOT AND SWAP1 SSTORE CODESIZE DUP1 DUP1 PUSH3 0x611 JUMP JUMPDEST SWAP3 SWAP4 PUSH1 0x20 PUSH1 0x1 DUP2 SWAP3 DUP8 DUP7 ADD MLOAD DUP2 SSTORE ADD SWAP6 ADD SWAP4 ADD PUSH3 0x5F9 JUMP JUMPDEST SWAP1 SWAP2 SWAP3 POP DUP14 PUSH1 0x0 MSTORE PUSH1 0x20 PUSH1 0x0 KECCAK256 DUP4 DUP1 DUP7 ADD PUSH1 0x5 SHR DUP3 ADD SWAP3 PUSH1 0x20 DUP8 LT PUSH3 0x6A1 JUMPI JUMPDEST SWAP5 DUP7 SWAP6 SWAP5 SWAP4 SWAP3 SWAP2 SWAP5 ADD PUSH1 0x5 SHR ADD SWAP1 JUMPDEST DUP2 DUP2 LT PUSH3 0x691 JUMPI POP PUSH3 0x171 JUMP JUMPDEST PUSH1 0x0 DUP2 SSTORE DUP6 SWAP5 POP PUSH1 0x1 ADD PUSH3 0x682 JUMP JUMPDEST SWAP3 POP DUP2 SWAP3 PUSH3 0x673 JUMP JUMPDEST PUSH1 0x22 DUP15 PUSH4 0x4E487B71 PUSH1 0xE0 SHL PUSH1 0x0 MSTORE MSTORE PUSH1 0x24 PUSH1 0x0 REVERT JUMPDEST SWAP1 PUSH1 0x7F AND SWAP1 PUSH3 0x15A JUMP JUMPDEST PUSH4 0x4E487B71 PUSH1 0xE0 SHL PUSH1 0x0 MSTORE PUSH1 0x41 PUSH1 0x4 MSTORE PUSH1 0x24 PUSH1 0x0 REVERT JUMPDEST ADD MLOAD SWAP1 POP CODESIZE DUP1 PUSH3 0x11E JUMP JUMPDEST PUSH1 0x3 PUSH1 0x0 SWAP1 DUP2 MSTORE SWAP4 POP PUSH32 0xC2575A0E9E593C00F959F8C92F12DB2869C3395A3B0502D05E2516446F71F85B SWAP2 SWAP1 JUMPDEST PUSH1 0x1F NOT DUP5 AND DUP6 LT PUSH3 0x760 JUMPI PUSH1 0x1 SWAP5 POP DUP4 PUSH1 0x1F NOT DUP2 AND LT PUSH3 0x746 JUMPI JUMPDEST POP POP POP DUP2 SHL ADD PUSH1 0x3 SSTORE PUSH3 0x134 JUMP JUMPDEST ADD MLOAD PUSH1 0x0 NOT PUSH1 0xF8 DUP5 PUSH1 0x3 SHL AND SHR NOT AND SWAP1 SSTORE CODESIZE DUP1 DUP1 PUSH3 0x737 JUMP JUMPDEST DUP2 DUP2 ADD MLOAD DUP4 SSTORE PUSH1 0x20 SWAP5 DUP6 ADD SWAP5 PUSH1 0x1 SWAP1 SWAP4 ADD SWAP3 SWAP1 SWAP2 ADD SWAP1 PUSH3 0x71A JUMP JUMPDEST SWAP1 SWAP2 POP PUSH1 0x3 PUSH1 0x0 MSTORE PUSH1 0x20 PUSH1 0x0 KECCAK256 DUP5 DUP1 DUP6 ADD PUSH1 0x5 SHR DUP3 ADD SWAP3 PUSH1 0x20 DUP7 LT PUSH3 0x7C9 JUMPI JUMPDEST SWAP1 DUP6 SWAP5 SWAP4 SWAP3 SWAP2 ADD PUSH1 0x5 SHR ADD SWAP1 JUMPDEST DUP2 DUP2 LT PUSH3 0x7B9 JUMPI POP PUSH3 0x106 JUMP JUMPDEST PUSH1 0x0 DUP2 SSTORE DUP5 SWAP4 POP PUSH1 0x1 ADD PUSH3 0x7AA JUMP JUMPDEST SWAP3 POP DUP2 SWAP3 PUSH3 0x79D JUMP JUMPDEST PUSH4 0x4E487B71 PUSH1 0xE0 SHL PUSH1 0x0 MSTORE PUSH1 0x22 PUSH1 0x4 MSTORE PUSH1 0x24 PUSH1 0x0 REVERT JUMPDEST SWAP3 PUSH1 0x7F AND SWAP3 PUSH3 0xEE JUMP JUMPDEST PUSH1 0x0 DUP1 REVERT JUMPDEST PUSH1 0xA0 DUP2 ADD SWAP1 DUP2 LT PUSH1 0x1 PUSH1 0x1 PUSH1 0x40 SHL SUB DUP3 GT OR PUSH3 0x6CB JUMPI PUSH1 0x40 MSTORE JUMP JUMPDEST PUSH1 0x1F SWAP1 SWAP2 ADD PUSH1 0x1F NOT AND DUP2 ADD SWAP1 PUSH1 0x1 PUSH1 0x1 PUSH1 0x40 SHL SUB DUP3 GT SWAP1 DUP3 LT OR PUSH3 0x6CB JUMPI PUSH1 0x40 MSTORE JUMP JUMPDEST MLOAD SWAP1 PUSH1 0x1 PUSH1 0x1 PUSH1 0xA0 SHL SUB DUP3 AND DUP3 SUB PUSH3 0x7F4 JUMPI JUMP JUMPDEST SWAP2 SWAP1 DUP1 PUSH1 0x1F DUP5 ADD SLT ISZERO PUSH3 0x7F4 JUMPI DUP3 MLOAD SWAP1 PUSH1 0x1 PUSH1 0x1 PUSH1 0x40 SHL SUB DUP3 GT PUSH3 0x6CB JUMPI PUSH1 0x40 MLOAD SWAP2 PUSH1 0x20 SWAP2 PUSH3 0x88A PUSH1 0x1F DUP4 ADD PUSH1 0x1F NOT AND DUP5 ADD DUP6 PUSH3 0x815 JUMP JUMPDEST DUP2 DUP5 MSTORE DUP3 DUP3 DUP8 ADD ADD GT PUSH3 0x7F4 JUMPI PUSH1 0x0 JUMPDEST DUP2 DUP2 LT PUSH3 0x8B1 JUMPI POP DUP3 PUSH1 0x0 SWAP4 SWAP5 SWAP6 POP ADD ADD MSTORE SWAP1 JUMP JUMPDEST DUP6 DUP2 ADD DUP4 ADD MLOAD DUP5 DUP3 ADD DUP5 ADD MSTORE DUP3 ADD PUSH3 0x89B JUMP JUMPDEST SWAP2 SWAP1 DUP3 ADD DUP1 SWAP3 GT PUSH3 0x8D3 JUMPI JUMP JUMPDEST PUSH4 0x4E487B71 PUSH1 0xE0 SHL PUSH1 0x0 MSTORE PUSH1 0x11 PUSH1 0x4 MSTORE PUSH1 0x24 PUSH1 0x0 REVERT JUMPDEST PUSH1 0x6 SLOAD DUP2 LT ISZERO PUSH3 0x905 JUMPI PUSH1 0x6 PUSH1 0x0 MSTORE PUSH1 0x20 PUSH1 0x0 KECCAK256 ADD SWAP1 PUSH1 0x0 SWAP1 JUMP JUMPDEST PUSH4 0x4E487B71 PUSH1 0xE0 SHL PUSH1 0x0 MSTORE PUSH1 0x32 PUSH1 0x4 MSTORE PUSH1 0x24 PUSH1 0x0 REVERT JUMPDEST DUP1 SLOAD DUP3 LT ISZERO PUSH3 0x905 JUMPI PUSH1 0x0 MSTORE PUSH1 0x20 PUSH1 0x0 KECCAK256 ADD SWAP1 PUSH1 0x0 SWAP1 JUMP JUMPDEST SWAP1 DUP2 SLOAD SWAP2 PUSH9 0x10000000000000000 DUP4 LT ISZERO PUSH3 0x6CB JUMPI DUP3 PUSH3 0x413 SWAP2 PUSH1 0x1 PUSH3 0x960 SWAP6 ADD DUP2 SSTORE PUSH3 0x91B JUMP JUMPDEST JUMP JUMPDEST SWAP2 SWAP1 DUP3 SUB SWAP2 DUP3 GT PUSH3 0x8D3 JUMPI JUMP JUMPDEST PUSH1 0x6 SLOAD DUP1 PUSH3 0x97F JUMPI POP PUSH1 0x0 SWAP1 JUMP JUMPDEST PUSH1 0x0 NOT DUP2 ADD SWAP1 DUP2 GT PUSH3 0x8D3 JUMPI PUSH3 0x997 SWAP1 PUSH3 0x8E9 JUMP JUMPDEST SWAP1 SLOAD SWAP1 PUSH1 0x3 SHL SHR SWAP1 JUMP JUMPDEST DUP1 SLOAD DUP1 PUSH3 0x9B0 JUMPI POP POP PUSH1 0x0 SWAP1 JUMP JUMPDEST PUSH1 0x0 NOT DUP2 ADD SWAP1 DUP2 GT PUSH3 0x8D3 JUMPI PUSH3 0x997 SWAP2 PUSH3 0x91B JUMP JUMPDEST PUSH1 0x0 NOT DUP2 EQ PUSH3 0x8D3 JUMPI PUSH1 0x1 ADD SWAP1 JUMP JUMPDEST PUSH3 0x9E4 DUP3 DUP3 PUSH3 0xB06 JUMP JUMPDEST SWAP1 PUSH1 0x40 PUSH1 0x60 DUP4 ADD MLOAD SWAP3 ADD MLOAD DUP3 GT ISZERO PUSH1 0x0 EQ PUSH3 0xA02 JUMPI POP POP POP PUSH1 0x0 SWAP1 JUMP JUMPDEST PUSH3 0xA19 SWAP3 PUSH3 0xA12 SWAP2 PUSH3 0xA1C JUMP JUMPDEST SWAP1 PUSH3 0x962 JUMP JUMPDEST SWAP1 JUMP JUMPDEST SWAP1 PUSH3 0xA28 SWAP2 PUSH3 0xB06 JUMP JUMPDEST PUSH1 0x20 DUP2 ADD MLOAD PUSH1 0x60 DUP3 ADD MLOAD SWAP2 MLOAD PUSH1 0xC SLOAD DUP2 LT ISZERO PUSH3 0x905 JUMPI PUSH1 0xC PUSH1 0x0 MSTORE PUSH1 0x40 MLOAD PUSH1 0x80 DUP2 ADD SWAP3 PUSH1 0x2 SWAP3 SWAP1 SWAP3 SHL PUSH32 0xDF6966C971051C3D54EC59162606531493A51404A002842F56009D7E5CF4A8C7 ADD SWAP2 PUSH1 0x1 PUSH1 0x1 PUSH1 0x40 SHL SUB DUP5 GT DUP3 DUP6 LT OR PUSH3 0x6CB JUMPI PUSH3 0xA19 SWAP5 PUSH1 0x60 SWAP5 PUSH1 0x40 MSTORE DUP4 SLOAD SWAP2 DUP3 DUP5 MSTORE PUSH1 0x1 DUP6 ADD SLOAD SWAP4 DUP5 PUSH1 0x20 DUP3 ADD MSTORE PUSH1 0x3 PUSH1 0x2 DUP8 ADD SLOAD SWAP7 DUP8 PUSH1 0x40 DUP5 ADD MSTORE ADD SLOAD SWAP7 DUP8 SWAP2 ADD MSTORE TIMESTAMP SWAP1 PUSH3 0xC2C JUMP JUMPDEST PUSH3 0xACE DUP3 DUP3 PUSH3 0xB06 JUMP JUMPDEST SWAP1 PUSH1 0x40 PUSH1 0x60 DUP4 ADD MLOAD SWAP3 ADD SWAP2 DUP3 MLOAD LT ISZERO PUSH1 0x0 EQ PUSH3 0xAED JUMPI POP POP POP PUSH1 0x0 SWAP1 JUMP JUMPDEST PUSH3 0xA19 SWAP3 PUSH3 0xAFD SWAP2 PUSH3 0xA1C JUMP JUMPDEST SWAP1 MLOAD SWAP1 PUSH3 0x962 JUMP JUMPDEST PUSH1 0x40 DUP1 MLOAD PUSH3 0xB15 DUP2 PUSH3 0x7F9 JUMP JUMPDEST PUSH1 0x0 SWAP4 DUP5 DUP3 MSTORE PUSH1 0x60 PUSH1 0x80 PUSH1 0x20 SWAP4 DUP8 DUP6 DUP3 ADD MSTORE DUP8 DUP7 DUP3 ADD MSTORE DUP8 DUP4 DUP3 ADD MSTORE ADD MSTORE PUSH1 0x1 DUP1 PUSH1 0xA0 SHL SUB DUP1 SWAP5 AND DUP6 MSTORE PUSH1 0xD DUP3 MSTORE DUP3 DUP6 KECCAK256 DUP1 SLOAD DUP3 LT ISZERO PUSH3 0xBE3 JUMPI DUP6 MSTORE DUP2 DUP6 KECCAK256 DUP4 MLOAD SWAP6 SWAP4 SWAP2 PUSH1 0x5 MUL ADD PUSH3 0xB69 DUP7 PUSH3 0x7F9 JUMP JUMPDEST DUP1 SLOAD DUP7 MSTORE PUSH1 0x4 PUSH1 0x1 SWAP2 DUP3 DUP2 ADD SLOAD DUP6 DUP10 ADD MSTORE PUSH1 0x2 DUP2 ADD SLOAD DUP5 DUP10 ADD MSTORE PUSH1 0x3 DUP2 ADD SLOAD PUSH1 0x60 DUP10 ADD MSTORE ADD SWAP2 MLOAD DUP1 SWAP6 DUP5 DUP8 SWAP6 DUP6 SLOAD SWAP4 DUP5 DUP2 MSTORE ADD SWAP5 DUP8 MSTORE DUP1 DUP8 KECCAK256 SWAP7 SWAP2 JUMPDEST DUP4 DUP4 LT PUSH3 0xBC8 JUMPI POP POP POP POP POP PUSH3 0xBC0 SWAP3 POP SUB DUP3 PUSH3 0x815 JUMP JUMPDEST PUSH1 0x80 DUP3 ADD MSTORE SWAP1 JUMP JUMPDEST DUP8 SLOAD DUP2 AND DUP7 MSTORE SWAP7 DUP5 ADD SWAP7 DUP9 SWAP7 POP SWAP5 DUP2 ADD SWAP5 SWAP2 DUP5 ADD SWAP2 PUSH3 0xBA5 JUMP JUMPDEST PUSH4 0x4E487B71 PUSH1 0xE0 SHL DUP7 MSTORE PUSH1 0x32 PUSH1 0x4 MSTORE PUSH1 0x24 DUP7 REVERT JUMPDEST DUP2 DUP2 MUL SWAP3 SWAP2 DUP2 ISZERO SWAP2 DUP5 DIV EQ OR ISZERO PUSH3 0x8D3 JUMPI JUMP JUMPDEST DUP2 ISZERO PUSH3 0xC16 JUMPI DIV SWAP1 JUMP JUMPDEST PUSH4 0x4E487B71 PUSH1 0xE0 SHL PUSH1 0x0 MSTORE PUSH1 0x12 PUSH1 0x4 MSTORE PUSH1 0x24 PUSH1 0x0 REVERT JUMPDEST SWAP6 SWAP2 SWAP3 SWAP4 SWAP1 PUSH1 0x0 SWAP7 DUP2 DUP2 GT PUSH3 0xD08 JUMPI PUSH3 0xC47 SWAP2 PUSH3 0x962 JUMP JUMPDEST SWAP5 PUSH1 0x0 NOT DUP6 ADD SWAP5 DUP6 GT PUSH3 0x8D3 JUMPI PUSH3 0xC6C PUSH3 0xC65 DUP7 DUP6 PUSH3 0xBF7 JUMP JUMPDEST DUP4 PUSH3 0x8C5 JUMP JUMPDEST DUP7 LT ISZERO PUSH3 0xCFE JUMPI DUP2 DUP7 LT ISZERO PUSH3 0xC87 JUMPI JUMPDEST POP POP POP POP POP POP SWAP1 JUMP JUMPDEST DUP4 SWAP5 SWAP6 SWAP7 POP PUSH3 0xC9D SWAP1 PUSH2 0x2710 SWAP3 SWAP4 SWAP5 PUSH3 0xBF7 JUMP JUMPDEST DIV SWAP5 DUP3 PUSH3 0xCAC DUP4 DUP4 PUSH3 0x962 JUMP JUMPDEST LT ISZERO PUSH3 0xCBB JUMPI JUMPDEST DUP1 PUSH3 0xC7E JUMP JUMPDEST SWAP3 PUSH3 0xCED DUP7 PUSH3 0xCE6 PUSH3 0xCF3 SWAP9 SWAP8 SWAP6 PUSH3 0xCE0 PUSH3 0xCE0 SWAP7 PUSH3 0x27B SWAP10 PUSH3 0x962 JUMP JUMPDEST PUSH3 0xC0B JUMP JUMPDEST SWAP3 PUSH3 0x962 JUMP JUMPDEST PUSH3 0xBF7 JUMP JUMPDEST CODESIZE DUP1 DUP1 DUP1 DUP1 PUSH3 0xCB4 JUMP JUMPDEST POP POP POP SWAP3 POP POP POP SWAP1 JUMP JUMPDEST POP POP POP POP POP POP POP POP PUSH1 0x0 SWAP1 JUMP INVALID PUSH1 0x80 PUSH1 0x40 DUP2 DUP2 MSTORE PUSH1 0x4 SWAP2 DUP3 CALLDATASIZE LT ISZERO PUSH2 0x16 JUMPI PUSH1 0x0 DUP1 REVERT JUMPDEST PUSH1 0x0 SWAP3 DUP4 CALLDATALOAD PUSH1 0xE0 SHR SWAP2 DUP3 PUSH4 0x6FDDE03 EQ PUSH2 0x312B JUMPI POP DUP2 PUSH4 0x77D3C03 EQ PUSH2 0x2FA2 JUMPI DUP2 PUSH4 0x7C9CD45 EQ PUSH2 0x2E4D JUMPI DUP2 PUSH4 0x872512B EQ PUSH2 0x2DAB JUMPI DUP2 PUSH4 0x95EA7B3 EQ PUSH2 0x2D81 JUMPI DUP2 PUSH4 0xC815103 EQ PUSH2 0x2D58 JUMPI DUP2 PUSH4 0xF8AD1B4 EQ PUSH2 0x2A4A JUMPI DUP2 PUSH4 0x14CF86EB EQ PUSH2 0x2A0F JUMPI DUP2 PUSH4 0x18160DDD EQ PUSH2 0x29F0 JUMPI DUP2 PUSH4 0x1D36F08B EQ PUSH2 0x29AE JUMPI DUP2 PUSH4 0x21BB56D7 EQ PUSH2 0x275E JUMPI DUP2 PUSH4 0x23B872DD EQ PUSH2 0x2596 JUMPI DUP2 PUSH4 0x2A3BF534 EQ PUSH2 0x232C JUMPI DUP2 PUSH4 0x2AB4D052 EQ PUSH2 0x230D JUMPI DUP2 PUSH4 0x2BEAFC89 EQ PUSH2 0x22F5 JUMPI DUP2 PUSH4 0x313CE567 EQ PUSH2 0x22D3 JUMPI DUP2 PUSH4 0x32424AA3 EQ PUSH2 0x22D3 JUMPI DUP2 PUSH4 0x350724A9 EQ PUSH2 0x229C JUMPI DUP2 PUSH4 0x370DE043 EQ PUSH2 0x2261 JUMPI DUP2 PUSH4 0x39509351 EQ PUSH2 0x2211 JUMPI DUP2 PUSH4 0x3C637D74 EQ PUSH2 0x21E0 JUMPI DUP2 PUSH4 0x3E840236 EQ PUSH2 0x20D6 JUMPI DUP2 PUSH4 0x3F4BA83A EQ PUSH2 0x208F JUMPI DUP2 PUSH4 0x40C10F19 EQ PUSH2 0x1F4E JUMPI DUP2 PUSH4 0x40DC95C5 EQ PUSH2 0x1EF0 JUMPI DUP2 PUSH4 0x45D11299 EQ PUSH2 0x1E1F JUMPI DUP2 PUSH4 0x4E2B3035 EQ PUSH2 0x1E02 JUMPI DUP2 PUSH4 0x4EE2CD7E EQ PUSH2 0x1DA7 JUMPI DUP2 PUSH4 0x5247AB05 EQ PUSH2 0x1C97 JUMPI DUP2 PUSH4 0x5439AD86 EQ PUSH2 0x1C78 JUMPI DUP2 PUSH4 0x57656CFE EQ PUSH2 0x1BC3 JUMPI DUP2 PUSH4 0x593B6439 EQ PUSH2 0x1B9A JUMPI DUP2 PUSH4 0x5F7C5377 EQ PUSH2 0x1B3F JUMPI DUP2 PUSH4 0x64CA0AC3 EQ PUSH2 0x1ADB JUMPI DUP2 PUSH4 0x6968F8B3 EQ PUSH2 0x1AA8 JUMPI DUP2 PUSH4 0x6AEA0D2E EQ PUSH2 0x1A7E JUMPI DUP2 PUSH4 0x6EC9D56F EQ PUSH2 0x1A62 JUMPI DUP2 PUSH4 0x70A08231 EQ PUSH2 0x1A3C JUMPI DUP2 PUSH4 0x7D7B368B EQ PUSH2 0x1A13 JUMPI DUP2 PUSH4 0x7F4AB1DD EQ PUSH2 0x19DC JUMPI DUP2 PUSH4 0x809C1875 EQ PUSH2 0x199E JUMPI DUP2 PUSH4 0x82074AC2 EQ PUSH2 0x1900 JUMPI DUP2 PUSH4 0x8456CB59 EQ PUSH2 0x18B5 JUMPI DUP2 PUSH4 0x84955C88 EQ PUSH2 0x1872 JUMPI DUP2 PUSH4 0x8648C6A6 EQ PUSH2 0x1853 JUMPI DUP2 PUSH4 0x8B9D6899 EQ PUSH2 0x182D JUMPI DUP2 PUSH4 0x8D56CC9C EQ PUSH2 0x17C4 JUMPI DUP2 PUSH4 0x8E4F11FF EQ PUSH2 0x175F JUMPI DUP2 PUSH4 0x8E64EAC5 EQ PUSH2 0x173D JUMPI DUP2 PUSH4 0x8FBE818A EQ PUSH2 0x1424 JUMPI DUP2 PUSH4 0x90FC7E91 EQ PUSH2 0x13EC JUMPI DUP2 PUSH4 0x95A8C58D EQ PUSH2 0x13BE JUMPI DUP2 PUSH4 0x95D89B41 EQ PUSH2 0x12DC JUMPI DUP2 PUSH4 0x96305C89 EQ PUSH2 0x12BD JUMPI DUP2 PUSH4 0x9711715A EQ PUSH2 0x125E JUMPI DUP2 PUSH4 0x976475D0 EQ PUSH2 0x107A JUMPI DUP2 PUSH4 0x981B24D0 EQ PUSH2 0x1041 JUMPI DUP2 PUSH4 0x9DC29FAC EQ PUSH2 0xEB6 JUMPI DUP2 PUSH4 0xA2E26616 EQ PUSH2 0xE9A JUMPI DUP2 PUSH4 0xA457C2D7 EQ PUSH2 0xDF2 JUMPI DUP2 PUSH4 0xA742C88E EQ PUSH2 0xDCC JUMPI DUP2 PUSH4 0xA9059CBB EQ PUSH2 0xD7B JUMPI DUP2 PUSH4 0xA9B1F051 EQ PUSH2 0xD1D JUMPI DUP2 PUSH4 0xAD061E25 EQ PUSH2 0xCF4 JUMPI DUP2 PUSH4 0xB187BD26 EQ PUSH2 0xCD0 JUMPI DUP2 PUSH4 0xB30BFA3D EQ PUSH2 0xC98 JUMPI DUP2 PUSH4 0xB7ED4785 EQ PUSH2 0xB4D JUMPI DUP2 PUSH4 0xB7EF81E1 EQ PUSH2 0xB2E JUMPI DUP2 PUSH4 0xBF120AE5 EQ PUSH2 0xA22 JUMPI DUP2 PUSH4 0xC0779DED EQ PUSH2 0x81E JUMPI DUP2 PUSH4 0xC63AA521 EQ PUSH2 0x7E6 JUMPI DUP2 PUSH4 0xCECA46C2 EQ PUSH2 0x7B9 JUMPI DUP2 PUSH4 0xD4CE1415 EQ PUSH2 0x793 JUMPI DUP2 PUSH4 0xDB74FA36 EQ PUSH2 0x75B JUMPI DUP2 PUSH4 0xDD62ED3E EQ PUSH2 0x712 JUMPI DUP2 PUSH4 0xDFB7300E EQ PUSH2 0x674 JUMPI DUP2 PUSH4 0xE98A0C64 EQ PUSH2 0x600 JUMPI DUP2 PUSH4 0xEA612AE8 EQ PUSH2 0x581 JUMPI DUP2 PUSH4 0xECD158CF EQ PUSH2 0x4DB JUMPI DUP2 PUSH4 0xF0658198 EQ PUSH2 0x4AB JUMPI DUP2 PUSH4 0xFBC6D1CB EQ PUSH2 0x3EB JUMPI POP PUSH4 0xFC96F7D8 EQ PUSH2 0x3AB JUMPI PUSH1 0x0 DUP1 REVERT JUMPDEST CALLVALUE PUSH2 0x3E7 JUMPI PUSH1 0x20 CALLDATASIZE PUSH1 0x3 NOT ADD SLT PUSH2 0x3E7 JUMPI PUSH1 0x20 SWAP2 PUSH1 0xFF SWAP1 DUP3 SWAP1 PUSH1 0x1 PUSH1 0x1 PUSH1 0xA0 SHL SUB PUSH2 0x3D4 PUSH2 0x324D JUMP JUMPDEST AND DUP2 MSTORE PUSH1 0x14 DUP6 MSTORE KECCAK256 SLOAD AND SWAP1 MLOAD SWAP1 ISZERO ISZERO DUP2 MSTORE RETURN JUMPDEST POP DUP1 REVERT JUMPDEST DUP4 SWAP2 POP CALLVALUE PUSH2 0x3E7 JUMPI DUP3 PUSH1 0x3 NOT CALLDATASIZE ADD SLT PUSH2 0x3E7 JUMPI PUSH2 0x406 PUSH2 0x324D JUMP JUMPDEST PUSH1 0x24 CALLDATALOAD SWAP2 DUP3 ISZERO DUP1 ISZERO PUSH2 0x485 JUMPI JUMPDEST ISZERO PUSH2 0x427 JUMPI POP SWAP1 PUSH2 0x424 SWAP2 CALLER PUSH2 0x34D8 JUMP JUMPDEST DUP1 RETURN JUMPDEST PUSH1 0x84 SWAP1 PUSH1 0x20 DUP7 MLOAD SWAP2 PUSH3 0x461BCD PUSH1 0xE5 SHL DUP4 MSTORE DUP3 ADD MSTORE PUSH1 0x32 PUSH1 0x24 DUP3 ADD MSTORE PUSH32 0x43616E6E6F7420617070726F76652066726F6D206E6F6E2D7A65726F20746F20 PUSH1 0x44 DUP3 ADD MSTORE PUSH18 0x6E6F6E2D7A65726F20616C6C6F77616E6365 PUSH1 0x70 SHL PUSH1 0x64 DUP3 ADD MSTORE REVERT JUMPDEST POP CALLER DUP5 MSTORE PUSH1 0x1 PUSH1 0x20 SWAP1 DUP2 MSTORE DUP6 DUP6 KECCAK256 PUSH1 0x1 PUSH1 0x1 PUSH1 0xA0 SHL SUB DUP5 AND DUP7 MSTORE SWAP1 MSTORE DUP5 DUP5 KECCAK256 SLOAD ISZERO PUSH2 0x413 JUMP JUMPDEST POP POP CALLVALUE PUSH2 0x3E7 JUMPI DUP1 PUSH1 0x3 NOT CALLDATASIZE ADD SLT PUSH2 0x3E7 JUMPI PUSH1 0x20 SWAP1 PUSH2 0x4D4 PUSH2 0x4CB PUSH2 0x324D JUMP JUMPDEST PUSH1 0x24 CALLDATALOAD SWAP1 PUSH2 0x4527 JUMP JUMPDEST SWAP1 MLOAD SWAP1 DUP2 MSTORE RETURN JUMPDEST POP POP CALLVALUE PUSH2 0x3E7 JUMPI PUSH2 0x4EB CALLDATASIZE PUSH2 0x343F JUMP JUMPDEST SWAP3 PUSH1 0x1 PUSH1 0x1 PUSH1 0xA0 SHL SUB SWAP1 SWAP3 AND SWAP2 PUSH2 0x503 DUP4 ISZERO ISZERO PUSH2 0x38C4 JUMP JUMPDEST PUSH2 0x50F DUP3 ADDRESS CALLER DUP7 PUSH2 0x3BB1 JUMP JUMPDEST DUP4 DUP6 MSTORE PUSH1 0x17 PUSH1 0x20 MSTORE DUP1 DUP6 KECCAK256 DUP4 DUP7 MSTORE PUSH1 0x20 MSTORE DUP1 DUP6 KECCAK256 PUSH2 0x52E DUP4 DUP3 SLOAD PUSH2 0x34B5 JUMP JUMPDEST SWAP1 SSTORE DUP4 DUP6 MSTORE PUSH1 0x17 PUSH1 0x20 MSTORE DUP1 DUP6 KECCAK256 DUP4 DUP7 MSTORE PUSH1 0x20 MSTORE PUSH1 0x1 DUP2 DUP7 KECCAK256 ADD PUSH2 0x552 DUP4 DUP3 SLOAD PUSH2 0x34B5 JUMP JUMPDEST SWAP1 SSTORE MLOAD SWAP1 DUP2 MSTORE PUSH32 0x73884FBF40E5433EA6F75B9343F3208649C9B8430641C927F0ED89D4EAC6945B PUSH1 0x20 CALLER SWAP3 LOG4 DUP1 RETURN JUMPDEST POP POP CALLVALUE PUSH2 0x3E7 JUMPI DUP1 PUSH1 0x3 NOT CALLDATASIZE ADD SLT PUSH2 0x3E7 JUMPI PUSH2 0x59B PUSH2 0x324D JUMP JUMPDEST PUSH1 0x1 PUSH1 0x1 PUSH1 0xA0 SHL SUB AND DUP3 MSTORE PUSH1 0xD PUSH1 0x20 MSTORE DUP1 DUP3 KECCAK256 DUP1 SLOAD PUSH1 0x24 CALLDATALOAD SWAP2 SWAP1 DUP3 LT ISZERO PUSH2 0x5FC JUMPI SWAP1 PUSH2 0x5C6 SWAP2 PUSH2 0x3499 JUMP JUMPDEST POP DUP1 SLOAD PUSH1 0x1 DUP3 ADD SLOAD PUSH1 0x2 DUP4 ADD SLOAD PUSH1 0x3 SWAP1 SWAP4 ADD SLOAD SWAP4 MLOAD SWAP2 DUP3 MSTORE PUSH1 0x20 DUP3 ADD MSTORE PUSH1 0x40 DUP2 ADD SWAP2 SWAP1 SWAP2 MSTORE PUSH1 0x60 DUP2 ADD SWAP2 SWAP1 SWAP2 MSTORE PUSH1 0x80 SWAP1 RETURN JUMPDEST SUB SWAP1 RETURN JUMPDEST DUP4 DUP1 REVERT JUMPDEST SWAP1 POP CALLVALUE PUSH2 0x670 JUMPI PUSH1 0x60 CALLDATASIZE PUSH1 0x3 NOT ADD SLT PUSH2 0x670 JUMPI CALLDATALOAD PUSH1 0x24 CALLDATALOAD SWAP2 PUSH1 0x44 CALLDATALOAD SWAP1 PUSH2 0x62D PUSH2 0x628 CALLER PUSH2 0x3EE0 JUMP JUMPDEST PUSH2 0x4F05 JUMP JUMPDEST DUP3 DUP6 MSTORE PUSH1 0x13 PUSH1 0x20 MSTORE DUP1 DUP6 KECCAK256 DUP5 DUP7 MSTORE PUSH1 0x20 MSTORE DUP2 DUP2 DUP7 KECCAK256 SSTORE MLOAD SWAP1 DUP2 MSTORE PUSH32 0x5845E315015EE03F0D4AB1D198172B4F733609DC3DE8B957AE1D86C874030189 PUSH1 0x20 CALLER SWAP3 LOG4 DUP1 RETURN JUMPDEST DUP3 DUP1 REVERT JUMPDEST SWAP1 POP CALLVALUE PUSH2 0x670 JUMPI PUSH1 0x20 CALLDATASIZE PUSH1 0x3 NOT ADD SLT PUSH2 0x670 JUMPI PUSH1 0x1 PUSH1 0x1 PUSH1 0xA0 SHL SUB SWAP1 CALLDATALOAD DUP2 DUP2 AND DUP1 DUP3 SUB PUSH2 0x70E JUMPI PUSH32 0x8C78349FC44ADD47AE711DDC6E926B7845597C57473E587420693D8D0547845A SWAP4 PUSH1 0x60 SWAP4 PUSH2 0x6CC PUSH2 0x628 CALLER PUSH2 0x3EE0 JUMP JUMPDEST PUSH2 0x6D7 DUP4 ISZERO ISZERO PUSH2 0x3DCF JUMP JUMPDEST PUSH1 0xF DUP1 SLOAD PUSH2 0x100 PUSH1 0x1 PUSH1 0xA8 SHL SUB NOT DUP2 AND PUSH1 0x8 SWAP7 DUP8 SHL PUSH2 0x100 PUSH1 0x1 PUSH1 0xA8 SHL SUB AND OR SWAP1 SWAP2 SSTORE DUP3 MLOAD CALLER DUP2 MSTORE SWAP5 SHR AND PUSH1 0x20 DUP5 ADD MSTORE DUP3 ADD MSTORE LOG1 DUP1 RETURN JUMPDEST DUP5 DUP1 REVERT JUMPDEST POP POP CALLVALUE PUSH2 0x3E7 JUMPI DUP1 PUSH1 0x3 NOT CALLDATASIZE ADD SLT PUSH2 0x3E7 JUMPI DUP1 PUSH1 0x20 SWAP3 PUSH2 0x730 PUSH2 0x324D JUMP JUMPDEST PUSH2 0x738 PUSH2 0x3268 JUMP JUMPDEST PUSH1 0x1 PUSH1 0x1 PUSH1 0xA0 SHL SUB SWAP2 DUP3 AND DUP4 MSTORE PUSH1 0x1 DUP7 MSTORE DUP4 DUP4 KECCAK256 SWAP2 AND DUP3 MSTORE DUP5 MSTORE KECCAK256 SLOAD SWAP1 MLOAD SWAP1 DUP2 MSTORE RETURN JUMPDEST POP POP CALLVALUE PUSH2 0x3E7 JUMPI PUSH1 0x20 CALLDATASIZE PUSH1 0x3 NOT ADD SLT PUSH2 0x3E7 JUMPI PUSH1 0x20 SWAP2 DUP2 SWAP1 PUSH1 0x1 PUSH1 0x1 PUSH1 0xA0 SHL SUB PUSH2 0x783 PUSH2 0x324D JUMP JUMPDEST AND DUP2 MSTORE PUSH1 0x12 DUP5 MSTORE KECCAK256 SLOAD SWAP1 MLOAD SWAP1 DUP2 MSTORE RETURN JUMPDEST POP POP CALLVALUE PUSH2 0x3E7 JUMPI PUSH1 0x20 SWAP1 PUSH1 0xFF PUSH2 0x7B1 PUSH2 0x7AB CALLDATASIZE PUSH2 0x32AC JUMP JUMPDEST SWAP2 PUSH2 0x4DCD JUMP JUMPDEST SWAP2 MLOAD SWAP2 AND DUP2 MSTORE RETURN JUMPDEST POP POP CALLVALUE PUSH2 0x3E7 JUMPI DUP2 PUSH1 0x3 NOT CALLDATASIZE ADD SLT PUSH2 0x3E7 JUMPI PUSH1 0xF SLOAD SWAP1 MLOAD PUSH1 0x8 SWAP2 SWAP1 SWAP2 SHR PUSH1 0x1 PUSH1 0x1 PUSH1 0xA0 SHL SUB AND DUP2 MSTORE PUSH1 0x20 SWAP1 RETURN JUMPDEST POP POP CALLVALUE PUSH2 0x3E7 JUMPI PUSH1 0x20 CALLDATASIZE PUSH1 0x3 NOT ADD SLT PUSH2 0x3E7 JUMPI PUSH1 0x20 SWAP2 DUP2 SWAP1 PUSH1 0x1 PUSH1 0x1 PUSH1 0xA0 SHL SUB PUSH2 0x80E PUSH2 0x324D JUMP JUMPDEST AND DUP2 MSTORE PUSH1 0x11 DUP5 MSTORE KECCAK256 SLOAD SWAP1 MLOAD SWAP1 DUP2 MSTORE RETURN JUMPDEST SWAP1 POP CALLVALUE PUSH2 0x670 JUMPI PUSH1 0x20 SWAP2 DUP3 PUSH1 0x3 NOT CALLDATASIZE ADD SLT PUSH2 0x5FC JUMPI DUP2 CALLDATALOAD SWAP1 DUP2 DUP6 MSTORE PUSH1 0x19 DUP5 MSTORE PUSH1 0xFF PUSH1 0x5 DUP3 DUP8 KECCAK256 ADD SLOAD AND DUP4 DUP2 LT ISZERO PUSH2 0xA0F JUMPI PUSH1 0x2 DUP2 PUSH2 0x862 PUSH1 0x3 PUSH2 0x869 SWAP5 EQ ISZERO PUSH2 0x4FDE JUMP JUMPDEST EQ ISZERO PUSH2 0x501D JUMP JUMPDEST DUP2 DUP6 MSTORE PUSH1 0x19 DUP5 MSTORE DUP1 DUP6 KECCAK256 DUP1 SLOAD PUSH1 0x1 PUSH1 0x1 PUSH1 0xA0 SHL SUB SWAP1 DUP2 AND SWAP6 SWAP2 SWAP5 SWAP2 PUSH2 0x88F CALLER DUP9 EQ PUSH2 0x505D JUMP JUMPDEST PUSH1 0x2 DUP7 ADD SWAP3 DUP3 DUP5 SLOAD AND SWAP8 DUP6 MLOAD SWAP2 PUSH4 0x70A08231 PUSH1 0xE0 SHL SWAP2 DUP3 DUP5 MSTORE DUP2 DUP5 ADD MSTORE DUP4 DUP4 PUSH1 0x24 DUP2 DUP14 GAS STATICCALL SWAP3 DUP4 ISZERO PUSH2 0xA05 JUMPI SWAP1 DUP5 SWAP2 DUP13 SWAP5 PUSH2 0x9D0 JUMPI JUMPDEST POP PUSH2 0x8D7 DUP2 DUP12 ADD SWAP12 DUP13 SLOAD SWAP1 CALLER SWAP1 PUSH2 0x3975 JUMP JUMPDEST PUSH1 0x24 DUP7 DUP9 SLOAD AND SWAP4 DUP8 DUP13 SLOAD AND SWAP5 DUP11 MLOAD SWAP6 DUP7 SWAP5 DUP6 SWAP4 DUP5 MSTORE DUP4 ADD MSTORE GAS STATICCALL SWAP3 DUP4 ISZERO PUSH2 0x9C6 JUMPI DUP11 SWAP4 PUSH2 0x976 JUMPI JUMPDEST POP POP SWAP2 PUSH2 0x92D PUSH2 0x970 SWAP6 SWAP5 SWAP3 PUSH2 0x927 DUP11 SWAP6 PUSH1 0x0 DUP1 MLOAD PUSH1 0x20 PUSH2 0x525C DUP4 CODECOPY DUP2 MLOAD SWAP2 MSTORE SWAP12 SLOAD SWAP1 PUSH2 0x34B5 JUMP JUMPDEST EQ PUSH2 0x50C4 JUMP JUMPDEST PUSH1 0x5 DUP8 ADD PUSH1 0x2 PUSH1 0xFF NOT DUP3 SLOAD AND OR SWAP1 SSTORE PUSH1 0x1 DUP8 ADD SWAP1 DUP1 DUP1 DUP1 DUP5 SLOAD AND SWAP10 PUSH2 0x959 PUSH1 0x3 DUP3 ADD SWAP12 DUP13 SLOAD SWAP1 CALLER PUSH2 0x464B JUMP JUMPDEST SLOAD AND SWAP9 SLOAD SWAP3 SLOAD AND SWAP3 SLOAD AND SWAP3 SLOAD SWAP4 MLOAD SWAP7 DUP8 SWAP7 DUP8 PUSH2 0x4FA6 JUMP JUMPDEST SUB SWAP1 LOG1 DUP1 RETURN JUMPDEST SWAP1 DUP1 SWAP10 SWAP5 SWAP3 SWAP7 SWAP6 SWAP4 POP DUP2 RETURNDATASIZE DUP4 GT PUSH2 0x9BF JUMPI JUMPDEST PUSH2 0x992 DUP2 DUP4 PUSH2 0x3381 JUMP JUMPDEST DUP2 ADD SUB SLT PUSH2 0x9BB JUMPI SWAP7 MLOAD SWAP2 SWAP7 SWAP3 SWAP4 SWAP1 SWAP3 SWAP2 SWAP1 PUSH2 0x92D PUSH1 0x0 DUP1 MLOAD PUSH1 0x20 PUSH2 0x525C DUP4 CODECOPY DUP2 MLOAD SWAP2 MSTORE PUSH2 0x8FF JUMP JUMPDEST DUP9 DUP1 REVERT JUMPDEST POP RETURNDATASIZE PUSH2 0x988 JUMP JUMPDEST DUP7 MLOAD RETURNDATASIZE DUP13 DUP3 RETURNDATACOPY RETURNDATASIZE SWAP1 REVERT JUMPDEST DUP3 DUP2 SWAP4 SWAP3 SWAP6 POP RETURNDATASIZE DUP4 GT PUSH2 0x9FE JUMPI JUMPDEST PUSH2 0x9E8 DUP2 DUP4 PUSH2 0x3381 JUMP JUMPDEST DUP2 ADD SUB SLT PUSH2 0x9FA JUMPI DUP4 SWAP1 MLOAD SWAP3 CODESIZE PUSH2 0x8C5 JUMP JUMPDEST DUP11 DUP1 REVERT JUMPDEST POP RETURNDATASIZE PUSH2 0x9DE JUMP JUMPDEST DUP8 MLOAD RETURNDATASIZE DUP14 DUP3 RETURNDATACOPY RETURNDATASIZE SWAP1 REVERT JUMPDEST PUSH4 0x4E487B71 PUSH1 0xE0 SHL DUP7 MSTORE PUSH1 0x21 DUP5 MSTORE PUSH1 0x24 DUP7 REVERT JUMPDEST SWAP1 POP CALLVALUE PUSH2 0x670 JUMPI DUP2 PUSH1 0x3 NOT CALLDATASIZE ADD SLT PUSH2 0x670 JUMPI PUSH2 0xA3C PUSH2 0x324D JUMP JUMPDEST SWAP2 PUSH1 0x24 CALLDATALOAD SWAP1 DUP2 ISZERO ISZERO SWAP4 DUP5 DUP4 SUB PUSH2 0xB2A JUMPI PUSH1 0x1 PUSH1 0x1 PUSH1 0xA0 SHL SUB AND SWAP3 PUSH2 0xA61 DUP5 ISZERO ISZERO PUSH2 0x3DCF JUMP JUMPDEST PUSH2 0xA6A CALLER PUSH2 0x3EB6 JUMP JUMPDEST DUP1 ISZERO PUSH2 0xB1B JUMPI JUMPDEST ISZERO PUSH2 0xABF JUMPI POP SWAP1 PUSH2 0xA97 SWAP2 DUP4 DUP7 MSTORE PUSH1 0x14 PUSH1 0x20 MSTORE DUP6 KECCAK256 SWAP1 PUSH1 0xFF DUP1 NOT DUP4 SLOAD AND SWAP2 ISZERO ISZERO AND OR SWAP1 SSTORE JUMP JUMPDEST CALLER PUSH32 0x17EC2643977F0865DD45350E9EFDCDFEAD258C9220974E67D1A37CA144772293 DUP5 DUP1 LOG4 DUP1 RETURN JUMPDEST PUSH1 0x20 PUSH1 0x84 SWAP3 MLOAD SWAP2 PUSH3 0x461BCD PUSH1 0xE5 SHL DUP4 MSTORE DUP3 ADD MSTORE PUSH1 0x31 PUSH1 0x24 DUP3 ADD MSTORE PUSH32 0x444F4553204E4F5420484156452057414C4C4554532041444D494E204F522052 PUSH1 0x44 DUP3 ADD MSTORE PUSH17 0x4553455256452041444D494E20524F4C45 PUSH1 0x78 SHL PUSH1 0x64 DUP3 ADD MSTORE REVERT JUMPDEST POP PUSH2 0xB25 CALLER PUSH2 0x3E8C JUMP JUMPDEST PUSH2 0xA71 JUMP JUMPDEST DUP6 DUP1 REVERT JUMPDEST POP POP CALLVALUE PUSH2 0x3E7 JUMPI DUP2 PUSH1 0x3 NOT CALLDATASIZE ADD SLT PUSH2 0x3E7 JUMPI PUSH1 0x20 SWAP1 PUSH1 0xC SLOAD SWAP1 MLOAD SWAP1 DUP2 MSTORE RETURN JUMPDEST SWAP1 POP CALLVALUE PUSH2 0x670 JUMPI PUSH1 0xA0 CALLDATASIZE PUSH1 0x3 NOT ADD SLT PUSH2 0x670 JUMPI PUSH1 0x1 PUSH1 0x1 PUSH1 0x40 SHL SUB DUP2 CALLDATALOAD DUP2 DUP2 GT PUSH2 0x70E JUMPI PUSH2 0xB7E SWAP1 CALLDATASIZE SWAP1 DUP5 ADD PUSH2 0x3469 JUMP JUMPDEST PUSH1 0x24 SWAP4 SWAP2 SWAP4 CALLDATALOAD DUP4 DUP2 GT PUSH2 0xC94 JUMPI PUSH2 0xB98 SWAP1 CALLDATASIZE SWAP1 DUP5 ADD PUSH2 0x3469 JUMP JUMPDEST SWAP3 SWAP1 SWAP2 PUSH1 0x44 CALLDATALOAD DUP6 DUP2 GT PUSH2 0x9BB JUMPI PUSH2 0xBB2 SWAP1 CALLDATASIZE SWAP1 DUP5 ADD PUSH2 0x3469 JUMP JUMPDEST SWAP5 SWAP1 SWAP2 PUSH1 0x64 CALLDATALOAD DUP8 DUP2 GT PUSH2 0x9FA JUMPI PUSH2 0xBCC SWAP1 CALLDATASIZE SWAP1 DUP7 ADD PUSH2 0x3469 JUMP JUMPDEST SWAP8 SWAP1 SWAP5 PUSH1 0x84 CALLDATALOAD SWAP2 DUP3 GT PUSH2 0xC90 JUMPI PUSH2 0xBE5 SWAP2 CALLDATASIZE SWAP2 ADD PUSH2 0x3469 JUMP JUMPDEST SWAP6 SWAP1 SWAP2 PUSH2 0xBF3 DUP5 DUP3 EQ PUSH2 0x4497 JUMP JUMPDEST PUSH2 0xBFE DUP9 DUP3 EQ PUSH2 0x4497 JUMP JUMPDEST PUSH2 0xC09 DUP10 DUP3 EQ PUSH2 0x4497 JUMP JUMPDEST DUP12 JUMPDEST DUP2 DUP2 LT PUSH2 0xC1C JUMPI PUSH1 0x20 DUP13 MLOAD PUSH1 0x1 DUP2 MSTORE RETURN JUMPDEST PUSH2 0xC27 DUP2 DUP4 DUP14 PUSH2 0x44DD JUMP JUMPDEST CALLDATALOAD PUSH1 0x1 PUSH1 0x1 PUSH1 0xA0 SHL SUB DUP2 AND DUP2 SUB PUSH2 0xC8C JUMPI PUSH2 0xC75 SWAP1 DUP8 DUP13 PUSH2 0xC62 DUP6 PUSH2 0xC5A DUP16 DUP3 SWAP1 PUSH2 0xC53 DUP3 DUP16 DUP15 PUSH2 0x44DD JUMP JUMPDEST CALLDATALOAD SWAP7 PUSH2 0x44DD JUMP JUMPDEST CALLDATALOAD SWAP3 DUP14 PUSH2 0x44DD JUMP JUMPDEST CALLDATALOAD SWAP2 PUSH2 0xC6F CALLDATASIZE DUP15 DUP12 PUSH2 0x33D9 JUMP JUMPDEST SWAP4 PUSH2 0x3F55 JUMP JUMPDEST ISZERO PUSH2 0xC88 JUMPI PUSH2 0xC83 SWAP1 PUSH2 0x443D JUMP JUMPDEST PUSH2 0xC0B JUMP JUMPDEST DUP13 DUP1 REVERT JUMPDEST DUP14 DUP1 REVERT JUMPDEST DUP12 DUP1 REVERT JUMPDEST DUP7 DUP1 REVERT JUMPDEST POP POP CALLVALUE PUSH2 0x3E7 JUMPI PUSH1 0x20 CALLDATASIZE PUSH1 0x3 NOT ADD SLT PUSH2 0x3E7 JUMPI PUSH1 0x20 SWAP2 DUP2 SWAP1 PUSH1 0x1 PUSH1 0x1 PUSH1 0xA0 SHL SUB PUSH2 0xCC0 PUSH2 0x324D JUMP JUMPDEST AND DUP2 MSTORE PUSH1 0xD DUP5 MSTORE KECCAK256 SLOAD SWAP1 MLOAD SWAP1 DUP2 MSTORE RETURN JUMPDEST POP POP CALLVALUE PUSH2 0x3E7 JUMPI DUP2 PUSH1 0x3 NOT CALLDATASIZE ADD SLT PUSH2 0x3E7 JUMPI PUSH1 0x20 SWAP1 PUSH1 0xFF PUSH1 0x15 SLOAD AND SWAP1 MLOAD SWAP1 ISZERO ISZERO DUP2 MSTORE RETURN JUMPDEST POP POP CALLVALUE PUSH2 0x3E7 JUMPI DUP1 PUSH1 0x3 NOT CALLDATASIZE ADD SLT PUSH2 0x3E7 JUMPI PUSH1 0x20 SWAP1 PUSH2 0x4D4 PUSH2 0xD14 PUSH2 0x324D JUMP JUMPDEST PUSH1 0x24 CALLDATALOAD SWAP1 PUSH2 0x4564 JUMP JUMPDEST POP POP CALLVALUE PUSH2 0x3E7 JUMPI PUSH2 0xD74 PUSH1 0x20 SWAP3 DUP3 PUSH1 0x2 PUSH2 0xD5F PUSH2 0xD39 CALLDATASIZE PUSH2 0x343F JUMP JUMPDEST SWAP2 SWAP5 SWAP1 SWAP6 PUSH2 0xD52 DUP8 PUSH2 0xD4B DUP6 CALLER PUSH2 0x4527 JUMP JUMPDEST LT ISZERO PUSH2 0x49AB JUMP JUMPDEST CALLER DUP2 MSTORE PUSH1 0xD DUP11 MSTORE KECCAK256 PUSH2 0x3499 JUMP JUMPDEST POP ADD PUSH2 0xD6C DUP4 DUP3 SLOAD PUSH2 0x34B5 JUMP JUMPDEST SWAP1 SSTORE ADDRESS PUSH2 0x3975 JUMP JUMPDEST MLOAD PUSH1 0x1 DUP2 MSTORE RETURN JUMPDEST POP POP CALLVALUE PUSH2 0x3E7 JUMPI DUP1 PUSH1 0x3 NOT CALLDATASIZE ADD SLT PUSH2 0x3E7 JUMPI PUSH1 0x20 SWAP1 PUSH2 0xDC3 PUSH2 0xD9B PUSH2 0x324D JUMP JUMPDEST PUSH1 0x24 CALLDATALOAD SWAP1 PUSH2 0xDB3 PUSH1 0x1 PUSH1 0x1 PUSH1 0xA0 SHL SUB DUP3 AND ISZERO ISZERO PUSH2 0x3DCF JUMP JUMPDEST PUSH2 0xDBE DUP3 DUP3 CALLER PUSH2 0x4D14 JUMP JUMPDEST PUSH2 0x45F3 JUMP JUMPDEST SWAP1 MLOAD SWAP1 ISZERO ISZERO DUP2 MSTORE RETURN JUMPDEST POP POP CALLVALUE PUSH2 0x3E7 JUMPI PUSH1 0x20 CALLDATASIZE PUSH1 0x3 NOT ADD SLT PUSH2 0x3E7 JUMPI PUSH1 0x20 SWAP1 PUSH2 0x4D4 PUSH2 0xDED PUSH2 0x324D JUMP JUMPDEST PUSH2 0x496A JUMP JUMPDEST SWAP1 POP DUP3 CALLVALUE PUSH2 0xE97 JUMPI DUP3 PUSH1 0x3 NOT CALLDATASIZE ADD SLT PUSH2 0xE97 JUMPI PUSH2 0xE0D PUSH2 0x324D JUMP JUMPDEST SWAP2 DUP4 PUSH1 0x24 CALLDATALOAD SWAP3 CALLER DUP2 MSTORE PUSH1 0x1 PUSH1 0x20 MSTORE DUP2 DUP2 KECCAK256 PUSH1 0x1 DUP1 PUSH1 0xA0 SHL SUB DUP7 AND DUP3 MSTORE PUSH1 0x20 MSTORE KECCAK256 SLOAD SWAP1 DUP3 DUP3 LT PUSH2 0xE46 JUMPI PUSH1 0x20 DUP6 PUSH2 0xD74 DUP6 DUP6 SUB DUP8 CALLER PUSH2 0x34D8 JUMP JUMPDEST PUSH1 0x84 SWAP1 PUSH1 0x20 DUP7 MLOAD SWAP2 PUSH3 0x461BCD PUSH1 0xE5 SHL DUP4 MSTORE DUP3 ADD MSTORE PUSH1 0x25 PUSH1 0x24 DUP3 ADD MSTORE PUSH32 0x45524332303A2064656372656173656420616C6C6F77616E63652062656C6F77 PUSH1 0x44 DUP3 ADD MSTORE PUSH5 0x207A65726F PUSH1 0xD8 SHL PUSH1 0x64 DUP3 ADD MSTORE REVERT JUMPDEST DUP1 REVERT JUMPDEST POP POP CALLVALUE PUSH2 0x3E7 JUMPI PUSH1 0x20 SWAP1 PUSH2 0x4D4 PUSH2 0xEB0 CALLDATASIZE PUSH2 0x32AC JUMP JUMPDEST SWAP2 PUSH2 0x3C1D JUMP JUMPDEST DUP4 SWAP2 POP CALLVALUE PUSH2 0x3E7 JUMPI DUP3 PUSH1 0x3 NOT CALLDATASIZE ADD SLT PUSH2 0x3E7 JUMPI PUSH2 0xED1 PUSH2 0x324D JUMP JUMPDEST PUSH1 0x1 PUSH1 0x1 PUSH1 0xA0 SHL SUB DUP2 AND SWAP2 PUSH1 0x24 CALLDATALOAD SWAP2 DUP4 ISZERO PUSH2 0xEEC DUP2 ISZERO PUSH2 0x3DCF JUMP JUMPDEST PUSH2 0xEFD PUSH2 0xEF8 CALLER PUSH2 0x3E8C JUMP JUMPDEST PUSH2 0x4F5B JUMP JUMPDEST PUSH2 0xF06 DUP3 PUSH2 0x48F2 JUMP JUMPDEST DUP5 GT PUSH2 0x1001 JUMPI PUSH2 0xFB4 JUMPI PUSH2 0xF19 SWAP1 PUSH2 0x47BC JUMP JUMPDEST PUSH2 0xF21 PUSH2 0x480B JUMP JUMPDEST DUP3 DUP5 MSTORE DUP4 PUSH1 0x20 MSTORE DUP5 DUP5 KECCAK256 SLOAD SWAP1 DUP3 DUP3 LT PUSH2 0xF66 JUMPI POP DUP2 DUP5 SWAP6 PUSH1 0x0 DUP1 MLOAD PUSH1 0x20 PUSH2 0x527C DUP4 CODECOPY DUP2 MLOAD SWAP2 MSTORE SWAP4 PUSH1 0x20 SWAP4 DUP7 DUP9 MSTORE DUP8 DUP6 MSTORE SUB DUP2 DUP8 KECCAK256 SSTORE DUP2 PUSH1 0x2 SLOAD SUB PUSH1 0x2 SSTORE MLOAD SWAP1 DUP2 MSTORE LOG3 DUP1 RETURN JUMPDEST PUSH1 0x84 SWAP1 PUSH1 0x20 DUP8 MLOAD SWAP2 PUSH3 0x461BCD PUSH1 0xE5 SHL DUP4 MSTORE DUP3 ADD MSTORE PUSH1 0x22 PUSH1 0x24 DUP3 ADD MSTORE PUSH32 0x45524332303A206275726E20616D6F756E7420657863656564732062616C616E PUSH1 0x44 DUP3 ADD MSTORE PUSH2 0x6365 PUSH1 0xF0 SHL PUSH1 0x64 DUP3 ADD MSTORE REVERT JUMPDEST DUP6 MLOAD PUSH3 0x461BCD PUSH1 0xE5 SHL DUP2 MSTORE PUSH1 0x20 DUP2 DUP5 ADD MSTORE PUSH1 0x21 PUSH1 0x24 DUP3 ADD MSTORE PUSH32 0x45524332303A206275726E2066726F6D20746865207A65726F20616464726573 PUSH1 0x44 DUP3 ADD MSTORE PUSH1 0x73 PUSH1 0xF8 SHL PUSH1 0x64 DUP3 ADD MSTORE PUSH1 0x84 SWAP1 REVERT JUMPDEST DUP7 MLOAD PUSH3 0x461BCD PUSH1 0xE5 SHL DUP2 MSTORE PUSH1 0x20 DUP2 DUP6 ADD MSTORE PUSH1 0x1A PUSH1 0x24 DUP3 ADD MSTORE PUSH26 0x24B739BAB33334B1B2B73A103A37B5B2B739903A3790313AB937 PUSH1 0x31 SHL PUSH1 0x44 DUP3 ADD MSTORE PUSH1 0x64 SWAP1 REVERT JUMPDEST SWAP1 POP CALLVALUE PUSH2 0x670 JUMPI PUSH1 0x20 CALLDATASIZE PUSH1 0x3 NOT ADD SLT PUSH2 0x670 JUMPI SWAP2 PUSH2 0x1061 PUSH1 0x20 SWAP4 CALLDATALOAD PUSH2 0x3628 JUMP JUMPDEST SWAP2 POP ISZERO PUSH2 0x1070 JUMPI SWAP1 JUMPDEST MLOAD SWAP1 DUP2 MSTORE RETURN JUMPDEST POP PUSH1 0x2 SLOAD SWAP1 PUSH2 0x106A JUMP JUMPDEST SWAP1 POP CALLVALUE PUSH2 0x670 JUMPI PUSH1 0x20 SWAP1 DUP2 PUSH1 0x3 NOT CALLDATASIZE ADD SLT PUSH2 0x5FC JUMPI DUP1 CALLDATALOAD SWAP1 DUP2 DUP6 MSTORE PUSH1 0x19 DUP4 MSTORE PUSH1 0xFF PUSH1 0x5 DUP6 DUP8 KECCAK256 ADD SLOAD AND DUP2 DUP2 LT ISZERO PUSH2 0x124B JUMPI PUSH1 0x2 DUP2 PUSH2 0x862 PUSH1 0x3 PUSH2 0x10BE SWAP5 EQ ISZERO PUSH2 0x4FDE JUMP JUMPDEST DUP2 DUP6 MSTORE PUSH1 0x19 DUP4 MSTORE DUP4 DUP6 KECCAK256 SWAP3 PUSH1 0x1 DUP5 ADD PUSH1 0x1 DUP1 PUSH1 0xA0 SHL SUB PUSH2 0x10E2 DUP2 DUP4 SLOAD AND CALLER EQ PUSH2 0x505D JUMP JUMPDEST PUSH1 0x2 DUP7 ADD SWAP3 DUP9 DUP9 DUP4 DUP7 SLOAD AND DUP5 DUP11 SLOAD AND SWAP8 DUP3 MLOAD SWAP2 PUSH4 0x70A08231 PUSH1 0xE0 SHL SWAP1 DUP2 DUP5 MSTORE DUP11 DUP4 DUP6 ADD MSTORE DUP7 DUP5 PUSH1 0x24 DUP2 DUP5 GAS STATICCALL SWAP6 DUP7 ISZERO PUSH2 0x1240 JUMPI DUP8 SWAP5 DUP15 SWAP2 SWAP8 PUSH2 0x1206 JUMPI JUMPDEST POP PUSH1 0x24 SWAP3 SWAP2 DUP5 PUSH2 0x1135 SWAP3 ADD SWAP13 DUP14 SLOAD SWAP2 CALLER SWAP1 PUSH2 0x3BB1 JUMP JUMPDEST DUP13 DUP9 DUP1 DUP13 SLOAD AND SWAP2 SLOAD AND SWAP6 MLOAD SWAP6 DUP7 SWAP5 DUP6 SWAP4 DUP5 MSTORE DUP4 ADD MSTORE GAS STATICCALL SWAP3 DUP4 ISZERO PUSH2 0x11FC JUMPI DUP12 SWAP4 PUSH2 0x11AA JUMPI JUMPDEST POP POP SWAP2 PUSH2 0x1183 DUP7 SWAP5 SWAP3 PUSH2 0x927 PUSH1 0x0 DUP1 MLOAD PUSH1 0x20 PUSH2 0x525C DUP4 CODECOPY DUP2 MLOAD SWAP2 MSTORE SWAP12 SWAP8 SWAP6 PUSH2 0x970 SWAP10 SLOAD SWAP1 PUSH2 0x34B5 JUMP JUMPDEST PUSH1 0x5 DUP9 ADD PUSH1 0x2 PUSH1 0xFF NOT DUP3 SLOAD AND OR SWAP1 SSTORE DUP1 DUP1 DUP1 DUP5 SLOAD AND SWAP10 PUSH2 0x959 PUSH1 0x3 DUP3 ADD SWAP12 DUP13 SLOAD SWAP1 ADDRESS PUSH2 0x464B JUMP JUMPDEST SWAP1 DUP1 SWAP11 SWAP7 SWAP5 SWAP3 SWAP8 SWAP6 SWAP4 POP DUP2 RETURNDATASIZE DUP4 GT PUSH2 0x11F5 JUMPI JUMPDEST PUSH2 0x11C7 DUP2 DUP4 PUSH2 0x3381 JUMP JUMPDEST DUP2 ADD SUB SLT PUSH2 0x11F1 JUMPI SWAP8 MLOAD SWAP4 SWAP8 SWAP3 SWAP5 SWAP2 SWAP4 SWAP1 SWAP3 SWAP2 PUSH2 0x1183 PUSH1 0x0 DUP1 MLOAD PUSH1 0x20 PUSH2 0x525C DUP4 CODECOPY DUP2 MLOAD SWAP2 MSTORE PUSH2 0x115A JUMP JUMPDEST DUP10 DUP1 REVERT JUMPDEST POP RETURNDATASIZE PUSH2 0x11BD JUMP JUMPDEST DUP11 MLOAD RETURNDATASIZE DUP14 DUP3 RETURNDATACOPY RETURNDATASIZE SWAP1 REVERT JUMPDEST SWAP5 SWAP3 SWAP6 POP POP SWAP5 POP DUP3 DUP2 RETURNDATASIZE DUP4 GT PUSH2 0x1239 JUMPI JUMPDEST PUSH2 0x1221 DUP2 DUP4 PUSH2 0x3381 JUMP JUMPDEST DUP2 ADD SUB SLT PUSH2 0xC88 JUMPI SWAP1 MLOAD SWAP3 DUP12 SWAP3 DUP6 SWAP3 SWAP2 DUP13 PUSH1 0x24 PUSH2 0x111F JUMP JUMPDEST POP RETURNDATASIZE PUSH2 0x1217 JUMP JUMPDEST DUP6 MLOAD SWAP1 RETURNDATASIZE SWAP1 DUP3 RETURNDATACOPY RETURNDATASIZE SWAP1 REVERT JUMPDEST PUSH4 0x4E487B71 PUSH1 0xE0 SHL DUP7 MSTORE PUSH1 0x21 DUP3 MSTORE PUSH1 0x24 DUP7 REVERT JUMPDEST POP POP CALLVALUE PUSH2 0x3E7 JUMPI DUP2 PUSH1 0x3 NOT CALLDATASIZE ADD SLT PUSH2 0x3E7 JUMPI PUSH1 0x20 SWAP1 PUSH2 0x1284 PUSH2 0x127F CALLER PUSH2 0x3E13 JUMP JUMPDEST PUSH2 0x386E JUMP JUMPDEST PUSH1 0x1 PUSH1 0x8 SLOAD ADD SWAP1 DUP2 PUSH1 0x8 SSTORE PUSH32 0x8030E83B04D87BEF53480E26263266D6CA66863AA8506ACA6F2559D18AA1CB67 DUP4 DUP3 MLOAD DUP5 DUP2 MSTORE LOG1 MLOAD SWAP1 DUP2 MSTORE RETURN JUMPDEST POP POP CALLVALUE PUSH2 0x3E7 JUMPI PUSH1 0x20 SWAP1 PUSH2 0x4D4 PUSH2 0x12D3 CALLDATASIZE PUSH2 0x328E JUMP JUMPDEST SWAP3 SWAP2 SWAP1 SWAP2 PUSH2 0x4B29 JUMP JUMPDEST DUP4 DUP4 CALLVALUE PUSH2 0x3E7 JUMPI DUP2 PUSH1 0x3 NOT CALLDATASIZE ADD SLT PUSH2 0x3E7 JUMPI DUP1 MLOAD SWAP2 DUP1 SWAP4 DUP1 SLOAD SWAP2 PUSH1 0x1 SWAP1 DUP4 DUP3 SHR SWAP3 DUP3 DUP6 AND SWAP5 DUP6 ISZERO PUSH2 0x13B4 JUMPI JUMPDEST PUSH1 0x20 SWAP6 DUP7 DUP7 LT DUP2 EQ PUSH2 0x13A1 JUMPI DUP6 DUP10 MSTORE SWAP1 DUP2 ISZERO PUSH2 0x137D JUMPI POP PUSH1 0x1 EQ PUSH2 0x1342 JUMPI JUMPDEST PUSH2 0x5F8 DUP8 DUP8 PUSH2 0x1338 DUP3 DUP13 SUB DUP4 PUSH2 0x3381 JUMP JUMPDEST MLOAD SWAP2 DUP3 SWAP2 DUP3 PUSH2 0x3221 JUMP JUMPDEST SWAP1 DUP1 SWAP5 SWAP8 POP MSTORE DUP6 DUP4 KECCAK256 JUMPDEST DUP3 DUP5 LT PUSH2 0x136A JUMPI POP POP POP DUP3 PUSH2 0x5F8 SWAP5 PUSH2 0x1338 SWAP3 DUP3 ADD ADD SWAP5 DUP7 DUP1 PUSH2 0x1327 JUMP JUMPDEST DUP1 SLOAD DUP7 DUP6 ADD DUP9 ADD MSTORE SWAP3 DUP7 ADD SWAP3 DUP2 ADD PUSH2 0x134C JUMP JUMPDEST PUSH1 0xFF NOT AND DUP9 DUP8 ADD MSTORE POP POP POP POP ISZERO ISZERO PUSH1 0x5 SHL DUP4 ADD ADD SWAP3 POP PUSH2 0x1338 DUP3 PUSH2 0x5F8 DUP7 DUP1 PUSH2 0x1327 JUMP JUMPDEST PUSH4 0x4E487B71 PUSH1 0xE0 SHL DUP5 MSTORE PUSH1 0x22 DUP4 MSTORE PUSH1 0x24 DUP5 REVERT JUMPDEST SWAP4 PUSH1 0x7F AND SWAP4 PUSH2 0x1308 JUMP JUMPDEST POP POP CALLVALUE PUSH2 0x3E7 JUMPI DUP1 PUSH1 0x3 NOT CALLDATASIZE ADD SLT PUSH2 0x3E7 JUMPI PUSH1 0x20 SWAP1 PUSH2 0xDC3 PUSH2 0x13DE PUSH2 0x324D JUMP JUMPDEST PUSH2 0x13E6 PUSH2 0x327E JUMP JUMPDEST SWAP1 PUSH2 0x3E3D JUMP JUMPDEST DUP3 DUP5 CALLVALUE PUSH2 0xE97 JUMPI PUSH1 0xE0 CALLDATASIZE PUSH1 0x3 NOT ADD SLT PUSH2 0xE97 JUMPI POP PUSH2 0x4D4 PUSH1 0x20 SWAP3 PUSH1 0xC4 CALLDATALOAD SWAP1 PUSH1 0xA4 CALLDATALOAD SWAP1 PUSH1 0x84 CALLDATALOAD SWAP1 PUSH1 0x64 CALLDATALOAD SWAP1 PUSH1 0x44 CALLDATALOAD SWAP1 PUSH1 0x24 CALLDATALOAD SWAP1 CALLDATALOAD PUSH2 0x4C3E JUMP JUMPDEST DUP4 DUP4 CALLVALUE PUSH2 0x3E7 JUMPI PUSH2 0x1434 CALLDATASIZE PUSH2 0x32E1 JUMP JUMPDEST SWAP3 SWAP4 SWAP3 SWAP2 PUSH1 0x1 PUSH1 0x1 PUSH1 0xA0 SHL SUB DUP3 DUP2 AND SWAP1 DUP2 ISZERO PUSH2 0x16FD JUMPI DUP7 PUSH2 0x1454 CALLER PUSH2 0x48F2 JUMP JUMPDEST LT PUSH2 0x16AE JUMPI DUP7 ISZERO PUSH2 0x167D JUMPI DUP5 ISZERO PUSH2 0x163D JUMPI DUP3 AND DUP1 ISZERO PUSH2 0x15FC JUMPI PUSH2 0x148E PUSH2 0x147B DUP9 DUP7 CALLER PUSH2 0x4DCD JUMP JUMPDEST PUSH1 0xFF PUSH2 0x1486 DUP3 PUSH2 0x4EAD JUMP JUMPDEST SWAP2 AND ISZERO PUSH2 0x4D0C JUMP JUMPDEST DUP8 DUP1 DUP8 MLOAD PUSH1 0x20 DUP2 ADD SWAP1 PUSH4 0xD4CE1415 PUSH1 0xE0 SHL DUP3 MSTORE PUSH2 0x14C2 DUP2 PUSH2 0x14B4 DUP12 CALLER DUP13 PUSH1 0x24 DUP6 ADD PUSH2 0x3B8F JUMP JUMPDEST SUB PUSH1 0x1F NOT DUP2 ADD DUP4 MSTORE DUP3 PUSH2 0x3381 JUMP JUMPDEST MLOAD SWAP1 DUP3 DUP8 GAS CALL PUSH2 0x14D0 PUSH2 0x3ACA JUMP JUMPDEST SWAP1 PUSH2 0x157D JUMPI JUMPDEST POP PUSH1 0x18 SLOAD PUSH1 0x1 DUP2 ADD DUP1 SWAP2 GT PUSH2 0x156A JUMPI SWAP3 PUSH1 0x5 DUP10 SWAP11 DUP8 SWAP5 DUP10 SWAP8 SWAP5 DUP12 SWAP10 PUSH1 0x0 DUP1 MLOAD PUSH1 0x20 PUSH2 0x521C DUP4 CODECOPY DUP2 MLOAD SWAP2 MSTORE SWAP12 PUSH2 0x424 SWAP15 DUP11 PUSH2 0x1560 SWAP12 PUSH1 0x18 SSTORE DUP2 MSTORE PUSH1 0x19 PUSH1 0x20 MSTORE KECCAK256 SWAP4 PUSH1 0x1 DUP1 PUSH1 0xA0 SHL SUB NOT SWAP4 CALLER DUP6 DUP8 SLOAD AND OR DUP7 SSTORE DUP13 PUSH1 0x3 DUP8 ADD SSTORE PUSH1 0x1 DUP7 ADD SWAP1 DUP6 DUP3 SLOAD AND OR SWAP1 SSTORE DUP5 ADD SSTORE PUSH1 0x2 DUP4 ADD SWAP2 DUP3 SLOAD AND OR SWAP1 SSTORE ADD PUSH1 0xFF NOT DUP2 SLOAD AND SWAP1 SSTORE PUSH1 0x18 SLOAD SWAP5 MLOAD SWAP6 DUP7 SWAP6 CALLER SWAP1 DUP8 PUSH2 0x4FA6 JUMP JUMPDEST SUB SWAP1 LOG1 ADDRESS CALLER PUSH2 0x464B JUMP JUMPDEST PUSH4 0x4E487B71 PUSH1 0xE0 SHL DUP10 MSTORE PUSH1 0x11 DUP11 MSTORE PUSH1 0x24 DUP10 REVERT JUMPDEST DUP1 PUSH1 0x20 DUP1 PUSH2 0x1590 SWAP4 MLOAD DUP4 ADD ADD SWAP2 ADD PUSH2 0x4DB4 JUMP JUMPDEST PUSH1 0xFF DUP8 MLOAD SWAP2 PUSH4 0x7F4AB1DD PUSH1 0xE0 SHL DUP4 MSTORE AND DUP1 DUP12 DUP4 ADD MSTORE DUP10 DUP3 PUSH1 0x24 DUP2 DUP7 GAS STATICCALL SWAP2 DUP3 ISZERO PUSH2 0x15F2 JUMPI SWAP1 PUSH2 0x15C8 SWAP3 SWAP2 DUP12 SWAP3 PUSH2 0x15CE JUMPI JUMPDEST POP ISZERO PUSH2 0x4D0C JUMP JUMPDEST DUP10 PUSH2 0x14D6 JUMP JUMPDEST PUSH2 0x15EB SWAP2 SWAP3 POP RETURNDATASIZE DUP1 DUP14 DUP4 RETURNDATACOPY PUSH2 0x15E3 DUP2 DUP4 PUSH2 0x3381 JUMP JUMPDEST DUP2 ADD SWAP1 PUSH2 0x4E4F JUMP JUMPDEST SWAP1 DUP13 PUSH2 0x15C1 JUMP JUMPDEST DUP9 MLOAD RETURNDATASIZE DUP13 DUP3 RETURNDATACOPY RETURNDATASIZE SWAP1 REVERT JUMPDEST DUP6 MLOAD PUSH3 0x461BCD PUSH1 0xE5 SHL DUP2 MSTORE PUSH1 0x20 DUP2 DUP12 ADD MSTORE PUSH1 0x1B PUSH1 0x24 DUP3 ADD MSTORE PUSH27 0x496E76616C69642071756F746520746F6B656E2061646472657373 PUSH1 0x28 SHL PUSH1 0x44 DUP3 ADD MSTORE PUSH1 0x64 SWAP1 REVERT JUMPDEST DUP6 MLOAD PUSH3 0x461BCD PUSH1 0xE5 SHL DUP2 MSTORE PUSH1 0x20 DUP2 DUP12 ADD MSTORE PUSH1 0x1A PUSH1 0x24 DUP3 ADD MSTORE PUSH26 0x125B9D985B1A59081C5D5BDD19481D1BDAD95B88185B5BDD5B9D PUSH1 0x32 SHL PUSH1 0x44 DUP3 ADD MSTORE PUSH1 0x64 SWAP1 REVERT JUMPDEST DUP6 MLOAD PUSH3 0x461BCD PUSH1 0xE5 SHL DUP2 MSTORE PUSH1 0x20 DUP2 DUP12 ADD MSTORE PUSH1 0x1F PUSH1 0x24 DUP3 ADD MSTORE PUSH1 0x0 DUP1 MLOAD PUSH1 0x20 PUSH2 0x51DC DUP4 CODECOPY DUP2 MLOAD SWAP2 MSTORE PUSH1 0x44 DUP3 ADD MSTORE PUSH1 0x64 SWAP1 REVERT JUMPDEST DUP6 MLOAD PUSH3 0x461BCD PUSH1 0xE5 SHL DUP2 MSTORE PUSH1 0x20 DUP2 DUP12 ADD MSTORE PUSH1 0x24 DUP1 DUP3 ADD MSTORE PUSH32 0x496E73756666696369656E74207265737472696374656420746F6B656E20616D PUSH1 0x44 DUP3 ADD MSTORE PUSH4 0x1BDD5B9D PUSH1 0xE2 SHL PUSH1 0x64 DUP3 ADD MSTORE PUSH1 0x84 SWAP1 REVERT JUMPDEST DUP6 MLOAD PUSH3 0x461BCD PUSH1 0xE5 SHL DUP2 MSTORE PUSH1 0x20 DUP2 DUP12 ADD MSTORE PUSH1 0x1A PUSH1 0x24 DUP3 ADD MSTORE PUSH26 0x24B73B30B634B21038BAB7BA32903A37B5B2B71039B2B73232B9 PUSH1 0x31 SHL PUSH1 0x44 DUP3 ADD MSTORE PUSH1 0x64 SWAP1 REVERT JUMPDEST POP POP CALLVALUE PUSH2 0x3E7 JUMPI DUP2 PUSH1 0x3 NOT CALLDATASIZE ADD SLT PUSH2 0x3E7 JUMPI PUSH1 0x20 SWAP1 PUSH1 0xFF PUSH1 0xA SLOAD AND SWAP1 MLOAD SWAP1 DUP2 MSTORE RETURN JUMPDEST SWAP1 POP CALLVALUE PUSH2 0x670 JUMPI PUSH1 0xA0 CALLDATASIZE PUSH1 0x3 NOT ADD SLT PUSH2 0x670 JUMPI PUSH2 0x177A PUSH2 0x324D JUMP JUMPDEST SWAP3 PUSH1 0x84 CALLDATALOAD SWAP1 PUSH1 0x1 PUSH1 0x1 PUSH1 0x40 SHL SUB DUP3 GT PUSH2 0xE97 JUMPI CALLDATASIZE PUSH1 0x23 DUP4 ADD SLT ISZERO PUSH2 0xE97 JUMPI POP SWAP3 PUSH2 0x17B2 PUSH2 0xDC3 SWAP3 DUP6 PUSH1 0x24 PUSH1 0x20 SWAP8 CALLDATASIZE SWAP4 ADD CALLDATALOAD SWAP2 ADD PUSH2 0x33D9 JUMP JUMPDEST SWAP1 PUSH1 0x64 CALLDATALOAD SWAP1 PUSH1 0x44 CALLDATALOAD SWAP1 PUSH1 0x24 CALLDATALOAD SWAP1 PUSH2 0x3F55 JUMP JUMPDEST POP POP CALLVALUE PUSH2 0x3E7 JUMPI DUP1 PUSH1 0x3 NOT CALLDATASIZE ADD SLT PUSH2 0x3E7 JUMPI PUSH2 0x17DE PUSH2 0x324D JUMP JUMPDEST PUSH1 0x24 CALLDATALOAD SWAP2 PUSH1 0x1 PUSH1 0x1 PUSH1 0xA0 SHL SUB SWAP1 SWAP2 AND SWAP1 DUP3 SWAP1 PUSH2 0x17FB DUP4 ISZERO ISZERO PUSH2 0x3DCF JUMP JUMPDEST PUSH2 0x180C PUSH2 0x1807 CALLER PUSH2 0x3EB6 JUMP JUMPDEST PUSH2 0x3F0A JUMP JUMPDEST DUP3 DUP6 MSTORE PUSH1 0x11 PUSH1 0x20 MSTORE DUP5 KECCAK256 SSTORE CALLER PUSH1 0x0 DUP1 MLOAD PUSH1 0x20 PUSH2 0x523C DUP4 CODECOPY DUP2 MLOAD SWAP2 MSTORE DUP5 DUP1 LOG4 DUP1 RETURN JUMPDEST POP POP CALLVALUE PUSH2 0x3E7 JUMPI PUSH1 0x20 CALLDATASIZE PUSH1 0x3 NOT ADD SLT PUSH2 0x3E7 JUMPI PUSH1 0x20 SWAP1 PUSH2 0x4D4 PUSH2 0x184E PUSH2 0x324D JUMP JUMPDEST PUSH2 0x491C JUMP JUMPDEST POP POP CALLVALUE PUSH2 0x3E7 JUMPI DUP2 PUSH1 0x3 NOT CALLDATASIZE ADD SLT PUSH2 0x3E7 JUMPI PUSH1 0x20 SWAP1 PUSH1 0x18 SLOAD SWAP1 MLOAD SWAP1 DUP2 MSTORE RETURN JUMPDEST POP POP CALLVALUE PUSH2 0x3E7 JUMPI PUSH1 0x20 CALLDATASIZE PUSH1 0x3 NOT ADD SLT PUSH2 0x3E7 JUMPI PUSH2 0x4D4 PUSH1 0x20 SWAP3 PUSH2 0x18AF DUP4 PUSH2 0x1897 PUSH2 0x324D JUMP JUMPDEST PUSH1 0x1 PUSH1 0x1 PUSH1 0xA0 SHL SUB DUP2 AND DUP5 MSTORE DUP4 DUP8 MSTORE SWAP3 KECCAK256 SLOAD SWAP2 PUSH2 0x496A JUMP JUMPDEST SWAP1 PUSH2 0x34B5 JUMP JUMPDEST POP POP CALLVALUE PUSH2 0x3E7 JUMPI DUP2 PUSH1 0x3 NOT CALLDATASIZE ADD SLT PUSH2 0x3E7 JUMPI PUSH1 0x0 DUP1 MLOAD PUSH1 0x20 PUSH2 0x51FC DUP4 CODECOPY DUP2 MLOAD SWAP2 MSTORE SWAP1 PUSH2 0x18E3 PUSH2 0x127F CALLER PUSH2 0x3E13 JUMP JUMPDEST PUSH1 0x1 PUSH1 0xFF NOT PUSH1 0x15 SLOAD AND OR PUSH1 0x15 SSTORE DUP1 MLOAD CALLER DUP2 MSTORE PUSH1 0x1 PUSH1 0x20 DUP3 ADD MSTORE LOG1 DUP1 RETURN JUMPDEST DUP3 DUP5 CALLVALUE PUSH2 0xE97 JUMPI DUP2 PUSH1 0x3 NOT CALLDATASIZE ADD SLT PUSH2 0xE97 JUMPI SWAP1 PUSH2 0x1927 PUSH2 0x191E PUSH2 0x324D JUMP JUMPDEST PUSH1 0x24 CALLDATALOAD SWAP1 PUSH2 0x4B6C JUMP JUMPDEST DUP2 MLOAD SWAP3 DUP4 SWAP3 PUSH1 0x80 PUSH1 0x20 SWAP4 DUP5 DUP7 MSTORE PUSH1 0xC0 DUP7 ADD SWAP3 DUP2 MLOAD DUP7 DUP9 ADD MSTORE DUP6 DUP3 ADD MLOAD DUP2 DUP9 ADD MSTORE DUP2 ADD MLOAD PUSH1 0x60 DUP8 ADD MSTORE PUSH1 0x60 DUP2 ADD MLOAD DUP3 DUP8 ADD MSTORE ADD MLOAD SWAP3 PUSH1 0xA0 DUP1 DUP7 ADD MSTORE DUP4 MLOAD DUP1 SWAP3 MSTORE DUP1 PUSH1 0xE0 DUP7 ADD SWAP5 ADD SWAP3 JUMPDEST DUP3 DUP2 LT PUSH2 0x197E JUMPI POP POP POP POP SUB SWAP1 RETURN JUMPDEST DUP4 MLOAD PUSH1 0x1 PUSH1 0x1 PUSH1 0xA0 SHL SUB AND DUP6 MSTORE DUP7 SWAP6 POP SWAP4 DUP2 ADD SWAP4 SWAP3 DUP2 ADD SWAP3 PUSH1 0x1 ADD PUSH2 0x196F JUMP JUMPDEST POP POP CALLVALUE PUSH2 0x3E7 JUMPI DUP1 PUSH1 0x20 SWAP3 PUSH2 0x19B2 CALLDATASIZE PUSH2 0x32AC JUMP JUMPDEST DUP4 MSTORE PUSH1 0x16 DUP7 MSTORE DUP4 DUP4 KECCAK256 PUSH1 0x1 PUSH1 0x1 PUSH1 0xA0 SHL SUB SWAP3 DUP4 AND DUP5 MSTORE DUP7 MSTORE DUP4 DUP4 KECCAK256 SWAP2 AND DUP3 MSTORE DUP5 MSTORE KECCAK256 SLOAD SWAP1 MLOAD SWAP1 DUP2 MSTORE RETURN JUMPDEST SWAP1 POP CALLVALUE PUSH2 0x670 JUMPI PUSH1 0x20 CALLDATASIZE PUSH1 0x3 NOT ADD SLT PUSH2 0x670 JUMPI CALLDATALOAD SWAP2 PUSH1 0xFF DUP4 AND DUP4 SUB PUSH2 0xE97 JUMPI POP PUSH2 0x1A08 PUSH2 0x5F8 SWAP3 PUSH2 0x4EAD JUMP JUMPDEST SWAP1 MLOAD SWAP2 DUP3 SWAP2 DUP3 PUSH2 0x3221 JUMP JUMPDEST POP POP CALLVALUE PUSH2 0x3E7 JUMPI DUP1 PUSH1 0x3 NOT CALLDATASIZE ADD SLT PUSH2 0x3E7 JUMPI PUSH1 0x20 SWAP1 PUSH2 0x4D4 PUSH2 0x1A33 PUSH2 0x324D JUMP JUMPDEST PUSH1 0x24 CALLDATALOAD SWAP1 PUSH2 0x44ED JUMP JUMPDEST POP POP CALLVALUE PUSH2 0x3E7 JUMPI PUSH1 0x20 CALLDATASIZE PUSH1 0x3 NOT ADD SLT PUSH2 0x3E7 JUMPI PUSH1 0x20 SWAP1 PUSH2 0x4D4 PUSH2 0x1A5D PUSH2 0x324D JUMP JUMPDEST PUSH2 0x48F2 JUMP JUMPDEST POP POP CALLVALUE PUSH2 0x3E7 JUMPI PUSH1 0x20 SWAP1 PUSH2 0x4D4 PUSH2 0x1A78 CALLDATASIZE PUSH2 0x32AC JUMP JUMPDEST SWAP2 PUSH2 0x3D44 JUMP JUMPDEST DUP4 SWAP2 POP CALLVALUE PUSH2 0x3E7 JUMPI PUSH1 0x20 CALLDATASIZE PUSH1 0x3 NOT ADD SLT PUSH2 0x3E7 JUMPI CALLDATALOAD SWAP1 PUSH1 0xC SLOAD DUP3 LT ISZERO PUSH2 0xE97 JUMPI POP PUSH2 0x5C6 SWAP1 PUSH2 0x33A4 JUMP JUMPDEST POP POP CALLVALUE PUSH2 0x3E7 JUMPI PUSH1 0x20 CALLDATASIZE PUSH1 0x3 NOT ADD SLT PUSH2 0x3E7 JUMPI PUSH1 0x20 SWAP1 PUSH2 0x4D4 PUSH2 0x1AC9 PUSH2 0x324D JUMP JUMPDEST PUSH2 0x18AF PUSH2 0x1AD5 DUP3 PUSH2 0x496A JUMP JUMPDEST SWAP2 PUSH2 0x491C JUMP JUMPDEST POP POP CALLVALUE PUSH2 0x3E7 JUMPI DUP1 PUSH1 0x3 NOT CALLDATASIZE ADD SLT PUSH2 0x3E7 JUMPI PUSH2 0x1AF5 PUSH2 0x324D JUMP JUMPDEST PUSH1 0x24 CALLDATALOAD SWAP2 PUSH1 0x1 PUSH1 0x1 PUSH1 0xA0 SHL SUB SWAP1 SWAP2 AND SWAP1 DUP3 SWAP1 PUSH2 0x1B12 DUP4 ISZERO ISZERO PUSH2 0x3DCF JUMP JUMPDEST PUSH2 0x1B1E PUSH2 0x1807 CALLER PUSH2 0x3EB6 JUMP JUMPDEST DUP3 DUP6 MSTORE PUSH1 0x12 PUSH1 0x20 MSTORE DUP5 KECCAK256 SSTORE CALLER PUSH1 0x0 DUP1 MLOAD PUSH1 0x20 PUSH2 0x529C DUP4 CODECOPY DUP2 MLOAD SWAP2 MSTORE DUP5 DUP1 LOG4 DUP1 RETURN JUMPDEST DUP3 DUP5 CALLVALUE PUSH2 0xE97 JUMPI PUSH1 0xE0 CALLDATASIZE PUSH1 0x3 NOT ADD SLT PUSH2 0xE97 JUMPI PUSH1 0x80 CALLDATASIZE PUSH1 0x63 NOT ADD SLT PUSH2 0xE97 JUMPI POP PUSH2 0x4D4 PUSH1 0x20 SWAP3 DUP3 MLOAD SWAP1 PUSH2 0x1B71 DUP3 PUSH2 0x331A JUMP JUMPDEST PUSH1 0x64 CALLDATALOAD DUP3 MSTORE PUSH1 0x84 CALLDATALOAD DUP6 DUP4 ADD MSTORE PUSH1 0xA4 CALLDATALOAD DUP5 DUP4 ADD MSTORE PUSH1 0xC4 CALLDATALOAD PUSH1 0x60 DUP4 ADD MSTORE PUSH1 0x44 CALLDATALOAD SWAP1 PUSH1 0x24 CALLDATALOAD SWAP1 CALLDATALOAD PUSH2 0x4C22 JUMP JUMPDEST POP POP CALLVALUE PUSH2 0x3E7 JUMPI DUP1 PUSH1 0x3 NOT CALLDATASIZE ADD SLT PUSH2 0x3E7 JUMPI PUSH1 0x20 SWAP1 PUSH2 0x4D4 PUSH2 0x1BBA PUSH2 0x324D JUMP JUMPDEST PUSH1 0x24 CALLDATALOAD SWAP1 PUSH2 0x3BD9 JUMP JUMPDEST POP POP CALLVALUE PUSH2 0x3E7 JUMPI DUP1 PUSH1 0x3 NOT CALLDATASIZE ADD SLT PUSH2 0x3E7 JUMPI PUSH2 0x1BDD PUSH2 0x324D JUMP JUMPDEST PUSH1 0x24 CALLDATALOAD SWAP2 PUSH2 0x1BED PUSH2 0x127F CALLER PUSH2 0x3E13 JUMP JUMPDEST PUSH2 0x1BF5 PUSH2 0x3904 JUMP JUMPDEST PUSH1 0x1 PUSH1 0x1 PUSH1 0xA0 SHL SUB DUP3 AND SWAP2 PUSH2 0x1C16 SWAP1 DUP5 SWAP1 PUSH2 0x1C11 DUP6 ISZERO ISZERO PUSH2 0x38C4 JUMP JUMPDEST PUSH2 0x3BD9 JUMP JUMPDEST SWAP1 PUSH2 0x1C22 DUP3 CALLER DUP6 PUSH2 0x3975 JUMP JUMPDEST DUP4 DUP6 MSTORE PUSH1 0x17 PUSH1 0x20 MSTORE DUP1 DUP6 KECCAK256 DUP4 DUP7 MSTORE PUSH1 0x20 MSTORE PUSH1 0x1 DUP2 DUP7 KECCAK256 ADD PUSH2 0x1C44 DUP4 DUP3 SLOAD PUSH2 0x3723 JUMP JUMPDEST SWAP1 SSTORE MLOAD SWAP1 DUP2 MSTORE PUSH32 0x91FB9D98B786C57D74C099CCD2BECA1739E9F6A81FB49001CA465C4B7591BBE2 PUSH1 0x20 CALLER SWAP3 LOG4 PUSH1 0x1 PUSH1 0xB SSTORE DUP1 RETURN JUMPDEST POP POP CALLVALUE PUSH2 0x3E7 JUMPI DUP2 PUSH1 0x3 NOT CALLDATASIZE ADD SLT PUSH2 0x3E7 JUMPI PUSH1 0x20 SWAP1 PUSH1 0x8 SLOAD SWAP1 MLOAD SWAP1 DUP2 MSTORE RETURN JUMPDEST SWAP2 SWAP1 POP CALLVALUE PUSH2 0x670 JUMPI DUP1 PUSH1 0x3 NOT CALLDATASIZE ADD SLT PUSH2 0x670 JUMPI PUSH2 0x1CB2 PUSH2 0x324D JUMP JUMPDEST SWAP2 PUSH1 0x24 CALLDATALOAD SWAP3 PUSH2 0x1CBF PUSH2 0x3904 JUMP JUMPDEST PUSH2 0x1CCA DUP5 CALLER DUP4 PUSH2 0x3D44 JUMP JUMPDEST SWAP2 DUP3 ISZERO PUSH2 0x1D64 JUMPI POP PUSH1 0x1 PUSH1 0x1 PUSH1 0xA0 SHL SUB AND SWAP2 PUSH32 0x2F6639D24651730C7BF57C95DDBF96D66D11477E4EC626876F92C22E5F365E68 SWAP1 PUSH2 0x1D09 DUP4 CALLER DUP7 PUSH2 0x3975 JUMP JUMPDEST DUP5 DUP7 MSTORE PUSH1 0x20 SWAP1 PUSH1 0x16 DUP3 MSTORE DUP1 DUP8 KECCAK256 DUP6 DUP9 MSTORE DUP3 MSTORE DUP1 DUP8 KECCAK256 CALLER DUP9 MSTORE DUP3 MSTORE DUP1 DUP8 KECCAK256 PUSH2 0x1D31 DUP6 DUP3 SLOAD PUSH2 0x34B5 JUMP JUMPDEST SWAP1 SSTORE DUP6 DUP8 MSTORE PUSH1 0x17 DUP3 MSTORE DUP1 DUP8 KECCAK256 DUP6 DUP9 MSTORE DUP3 MSTORE PUSH1 0x1 DUP2 DUP9 KECCAK256 ADD PUSH2 0x1D53 DUP6 DUP3 SLOAD PUSH2 0x3723 JUMP JUMPDEST SWAP1 SSTORE MLOAD SWAP3 DUP4 MSTORE CALLER SWAP3 LOG4 PUSH1 0x1 PUSH1 0xB SSTORE DUP1 RETURN JUMPDEST PUSH1 0x64 SWAP1 PUSH1 0x20 DUP6 MLOAD SWAP2 PUSH3 0x461BCD PUSH1 0xE5 SHL DUP4 MSTORE DUP3 ADD MSTORE PUSH1 0x1D PUSH1 0x24 DUP3 ADD MSTORE PUSH32 0x594F552043414E60542052454345495645204D4F524520544F4B454E53000000 PUSH1 0x44 DUP3 ADD MSTORE REVERT JUMPDEST POP POP CALLVALUE PUSH2 0x3E7 JUMPI DUP1 PUSH1 0x3 NOT CALLDATASIZE ADD SLT PUSH2 0x3E7 JUMPI PUSH1 0x20 SWAP2 PUSH2 0x1DC4 PUSH2 0x324D JUMP JUMPDEST PUSH1 0x1 PUSH1 0x1 PUSH1 0xA0 SHL SUB DUP2 AND DUP3 MSTORE PUSH1 0x5 DUP5 MSTORE DUP3 DUP3 KECCAK256 PUSH2 0x1DE3 SWAP1 PUSH1 0x24 CALLDATALOAD PUSH2 0x36EC JUMP JUMPDEST SWAP3 POP ISZERO PUSH2 0x1DF2 JUMPI POP SWAP1 MLOAD SWAP1 DUP2 MSTORE RETURN JUMPDEST PUSH2 0x1DFC SWAP2 POP PUSH2 0x48F2 JUMP JUMPDEST SWAP1 PUSH2 0x106A JUMP JUMPDEST POP POP CALLVALUE PUSH2 0x3E7 JUMPI DUP2 PUSH1 0x3 NOT CALLDATASIZE ADD SLT PUSH2 0x3E7 JUMPI PUSH1 0x20 SWAP1 MLOAD PUSH2 0x2710 DUP2 MSTORE RETURN JUMPDEST SWAP1 POP CALLVALUE PUSH2 0x670 JUMPI PUSH1 0xA0 CALLDATASIZE PUSH1 0x3 NOT ADD SLT PUSH2 0x670 JUMPI PUSH2 0x1E3A PUSH2 0x324D JUMP JUMPDEST PUSH1 0x24 CALLDATALOAD SWAP3 PUSH1 0x64 CALLDATALOAD SWAP3 PUSH1 0x84 CALLDATALOAD SWAP3 DUP4 ISZERO ISZERO SWAP6 DUP7 DUP6 SUB PUSH2 0x1EEC JUMPI PUSH1 0x1 PUSH1 0x1 PUSH1 0xA0 SHL SUB SWAP1 SWAP2 AND SWAP5 PUSH2 0xA61 SWAP2 DUP7 ISZERO ISZERO SWAP2 SWAP1 PUSH2 0x1E6F DUP4 PUSH2 0x3DCF JUMP JUMPDEST PUSH2 0x1E7B PUSH2 0x1807 CALLER PUSH2 0x3EB6 JUMP JUMPDEST PUSH2 0x1E84 DUP4 PUSH2 0x3DCF JUMP JUMPDEST PUSH2 0x1E90 PUSH2 0x1807 CALLER PUSH2 0x3EB6 JUMP JUMPDEST DUP8 DUP11 MSTORE PUSH1 0x12 PUSH1 0x20 MSTORE DUP1 DUP7 DUP12 KECCAK256 SSTORE DUP8 CALLER PUSH1 0x0 DUP1 MLOAD PUSH1 0x20 PUSH2 0x529C DUP4 CODECOPY DUP2 MLOAD SWAP2 MSTORE DUP13 DUP1 LOG4 PUSH2 0x1EBA DUP3 PUSH2 0x3DCF JUMP JUMPDEST PUSH2 0x1EC6 PUSH2 0x1807 CALLER PUSH2 0x3EB6 JUMP JUMPDEST DUP7 DUP10 MSTORE PUSH1 0x11 PUSH1 0x20 MSTORE DUP1 DUP6 DUP11 KECCAK256 SSTORE DUP7 CALLER PUSH1 0x0 DUP1 MLOAD PUSH1 0x20 PUSH2 0x523C DUP4 CODECOPY DUP2 MLOAD SWAP2 MSTORE DUP12 DUP1 LOG4 PUSH2 0x3DCF JUMP JUMPDEST DUP8 DUP1 REVERT JUMPDEST POP POP CALLVALUE PUSH2 0x3E7 JUMPI DUP1 PUSH1 0x3 NOT CALLDATASIZE ADD SLT PUSH2 0x3E7 JUMPI DUP1 PUSH1 0x20 SWAP3 PUSH2 0x1F0E PUSH2 0x324D JUMP JUMPDEST PUSH2 0x1F16 PUSH2 0x3268 JUMP JUMPDEST PUSH1 0x1 PUSH1 0x1 PUSH1 0xA0 SHL SUB SWAP2 DUP3 AND DUP4 MSTORE PUSH1 0x12 DUP1 DUP8 MSTORE DUP5 DUP5 KECCAK256 SLOAD DUP5 MSTORE PUSH1 0x13 DUP8 MSTORE DUP5 DUP5 KECCAK256 SWAP3 SWAP1 SWAP2 AND DUP4 MSTORE DUP6 MSTORE DUP3 DUP3 KECCAK256 SLOAD DUP3 MSTORE DUP5 MSTORE KECCAK256 SLOAD SWAP1 MLOAD SWAP1 DUP2 MSTORE RETURN JUMPDEST SWAP2 SWAP1 POP CALLVALUE PUSH2 0x670 JUMPI DUP1 PUSH1 0x3 NOT CALLDATASIZE ADD SLT PUSH2 0x670 JUMPI PUSH2 0x1F69 PUSH2 0x324D JUMP JUMPDEST PUSH1 0x1 PUSH1 0x1 PUSH1 0xA0 SHL SUB DUP2 AND SWAP3 PUSH1 0x24 CALLDATALOAD SWAP3 SWAP2 SWAP1 DUP5 ISZERO PUSH2 0x1F86 DUP2 ISZERO PUSH2 0x3DCF JUMP JUMPDEST PUSH2 0x1F92 PUSH2 0xEF8 CALLER PUSH2 0x3E8C JUMP JUMPDEST PUSH2 0x1F9E DUP6 PUSH1 0x2 SLOAD PUSH2 0x34B5 JUMP JUMPDEST PUSH1 0x10 SLOAD LT PUSH2 0x2039 JUMPI PUSH2 0x1FF6 JUMPI POP DUP5 SWAP3 PUSH1 0x0 DUP1 MLOAD PUSH1 0x20 PUSH2 0x527C DUP4 CODECOPY DUP2 MLOAD SWAP2 MSTORE SWAP3 PUSH2 0x1FC8 PUSH1 0x20 SWAP4 PUSH2 0x47BC JUMP JUMPDEST PUSH2 0x1FD0 PUSH2 0x480B JUMP JUMPDEST PUSH2 0x1FDC DUP3 PUSH1 0x2 SLOAD PUSH2 0x34B5 JUMP JUMPDEST PUSH1 0x2 SSTORE DUP6 DUP6 MSTORE DUP5 DUP4 MSTORE DUP1 DUP6 KECCAK256 DUP3 DUP2 SLOAD ADD SWAP1 SSTORE MLOAD SWAP1 DUP2 MSTORE LOG3 DUP1 RETURN JUMPDEST PUSH1 0x64 SWAP1 PUSH1 0x20 DUP5 MLOAD SWAP2 PUSH3 0x461BCD PUSH1 0xE5 SHL DUP4 MSTORE DUP3 ADD MSTORE PUSH1 0x1F PUSH1 0x24 DUP3 ADD MSTORE PUSH32 0x45524332303A206D696E7420746F20746865207A65726F206164647265737300 PUSH1 0x44 DUP3 ADD MSTORE REVERT JUMPDEST DUP4 MLOAD PUSH3 0x461BCD PUSH1 0xE5 SHL DUP2 MSTORE PUSH1 0x20 DUP2 DUP5 ADD MSTORE PUSH1 0x2A PUSH1 0x24 DUP3 ADD MSTORE PUSH32 0x43616E6E6F74206D696E74206D6F7265207468616E20746865206D617820746F PUSH1 0x44 DUP3 ADD MSTORE PUSH10 0x74616C20737570706C79 PUSH1 0xB0 SHL PUSH1 0x64 DUP3 ADD MSTORE PUSH1 0x84 SWAP1 REVERT JUMPDEST POP POP CALLVALUE PUSH2 0x3E7 JUMPI DUP2 PUSH1 0x3 NOT CALLDATASIZE ADD SLT PUSH2 0x3E7 JUMPI PUSH1 0x0 DUP1 MLOAD PUSH1 0x20 PUSH2 0x51FC DUP4 CODECOPY DUP2 MLOAD SWAP2 MSTORE SWAP1 PUSH2 0x20BD PUSH2 0x127F CALLER PUSH2 0x3E13 JUMP JUMPDEST PUSH1 0xFF NOT PUSH1 0x15 SLOAD AND PUSH1 0x15 SSTORE DUP1 MLOAD CALLER DUP2 MSTORE DUP4 PUSH1 0x20 DUP3 ADD MSTORE LOG1 DUP1 RETURN JUMPDEST DUP4 DUP4 CALLVALUE PUSH2 0x3E7 JUMPI DUP1 PUSH1 0x3 NOT CALLDATASIZE ADD SLT PUSH2 0x3E7 JUMPI PUSH2 0x20F0 PUSH2 0x324D JUMP JUMPDEST PUSH2 0x20F8 PUSH2 0x327E JUMP JUMPDEST SWAP2 PUSH1 0xFF DUP1 DUP5 AND SWAP3 DUP4 ISZERO ISZERO DUP1 PUSH2 0x21D2 JUMPI JUMPDEST PUSH2 0x2111 SWAP1 PUSH2 0x3D88 JUMP JUMPDEST PUSH1 0x1 PUSH1 0x1 PUSH1 0xA0 SHL SUB AND SWAP4 PUSH2 0x2126 DUP6 ISZERO ISZERO PUSH2 0x3DCF JUMP JUMPDEST PUSH2 0x2132 PUSH2 0x127F CALLER PUSH2 0x3E13 JUMP JUMPDEST DUP5 DUP7 MSTORE PUSH1 0x9 PUSH1 0x20 MSTORE PUSH1 0x1 DUP4 DUP8 KECCAK256 SLOAD AND ISZERO SWAP1 DUP2 PUSH2 0x21C5 JUMPI JUMPDEST POP PUSH2 0x218A JUMPI JUMPDEST DUP5 SWAP6 POP DUP4 PUSH1 0x1 SWAP6 MSTORE PUSH1 0x9 PUSH1 0x20 MSTORE DUP2 DUP7 KECCAK256 SWAP1 DUP4 DUP3 SLOAD SWAP2 DUP3 AND OR SWAP1 PUSH1 0xFF NOT AND OR SWAP1 SSTORE MLOAD SWAP1 DUP2 MSTORE PUSH1 0x0 DUP1 MLOAD PUSH1 0x20 PUSH2 0x52BC DUP4 CODECOPY DUP2 MLOAD SWAP2 MSTORE PUSH1 0x20 CALLER SWAP3 LOG4 DUP1 RETURN JUMPDEST PUSH1 0xA SLOAD DUP2 DUP2 AND DUP3 DUP2 EQ PUSH2 0x21B2 JUMPI PUSH1 0x1 DUP1 SWAP8 SWAP9 POP DUP4 SWAP2 ADD AND SWAP1 PUSH1 0xFF NOT AND OR PUSH1 0xA SSTORE DUP6 SWAP5 POP PUSH2 0x214F JUMP JUMPDEST PUSH4 0x4E487B71 PUSH1 0xE0 SHL DUP8 MSTORE PUSH1 0x11 DUP9 MSTORE PUSH1 0x24 DUP8 REVERT JUMPDEST PUSH1 0x1 SWAP2 POP AND ISZERO ISZERO DUP8 PUSH2 0x2149 JUMP JUMPDEST POP PUSH1 0xF DUP6 DUP2 OR DUP4 AND EQ PUSH2 0x2108 JUMP JUMPDEST SWAP1 POP CALLVALUE PUSH2 0x670 JUMPI DUP2 PUSH1 0x3 NOT CALLDATASIZE ADD SLT PUSH2 0x670 JUMPI PUSH1 0x20 SWAP3 DUP3 SWAP2 CALLDATALOAD DUP2 MSTORE PUSH1 0x13 DUP5 MSTORE DUP2 DUP2 KECCAK256 PUSH1 0x24 CALLDATALOAD DUP3 MSTORE DUP5 MSTORE KECCAK256 SLOAD SWAP1 MLOAD SWAP1 DUP2 MSTORE RETURN JUMPDEST POP POP CALLVALUE PUSH2 0x3E7 JUMPI DUP1 PUSH1 0x3 NOT CALLDATASIZE ADD SLT PUSH2 0x3E7 JUMPI PUSH2 0xD74 PUSH1 0x20 SWAP3 PUSH2 0x225A PUSH2 0x2234 PUSH2 0x324D JUMP JUMPDEST CALLER DUP4 MSTORE PUSH1 0x1 DUP7 MSTORE DUP5 DUP4 KECCAK256 PUSH1 0x1 PUSH1 0x1 PUSH1 0xA0 SHL SUB DUP3 AND DUP5 MSTORE DUP7 MSTORE SWAP2 DUP5 SWAP1 KECCAK256 SLOAD PUSH1 0x24 CALLDATALOAD SWAP1 PUSH2 0x34B5 JUMP JUMPDEST SWAP1 CALLER PUSH2 0x34D8 JUMP JUMPDEST POP POP CALLVALUE PUSH2 0x3E7 JUMPI DUP2 PUSH1 0x3 NOT CALLDATASIZE ADD SLT PUSH2 0x3E7 JUMPI PUSH1 0x20 SWAP1 MLOAD PUSH32 0x0 DUP2 MSTORE RETURN JUMPDEST POP POP CALLVALUE PUSH2 0x3E7 JUMPI PUSH1 0x20 CALLDATASIZE PUSH1 0x3 NOT ADD SLT PUSH2 0x3E7 JUMPI PUSH1 0x20 SWAP2 DUP2 SWAP1 PUSH1 0x1 PUSH1 0x1 PUSH1 0xA0 SHL SUB PUSH2 0x22C4 PUSH2 0x324D JUMP JUMPDEST AND DUP2 MSTORE DUP1 DUP5 MSTORE KECCAK256 SLOAD SWAP1 MLOAD SWAP1 DUP2 MSTORE RETURN JUMPDEST POP POP CALLVALUE PUSH2 0x3E7 JUMPI DUP2 PUSH1 0x3 NOT CALLDATASIZE ADD SLT PUSH2 0x3E7 JUMPI PUSH1 0x20 SWAP1 PUSH1 0xFF PUSH1 0xF SLOAD AND SWAP1 MLOAD SWAP1 DUP2 MSTORE RETURN JUMPDEST DUP4 CALLVALUE PUSH2 0xE97 JUMPI PUSH2 0x424 PUSH2 0x2307 CALLDATASIZE PUSH2 0x32AC JUMP JUMPDEST SWAP2 PUSH2 0x4D14 JUMP JUMPDEST POP POP CALLVALUE PUSH2 0x3E7 JUMPI DUP2 PUSH1 0x3 NOT CALLDATASIZE ADD SLT PUSH2 0x3E7 JUMPI PUSH1 0x20 SWAP1 PUSH1 0x10 SLOAD SWAP1 MLOAD SWAP1 DUP2 MSTORE RETURN JUMPDEST DUP4 DUP4 CALLVALUE PUSH2 0x3E7 JUMPI PUSH2 0x233C CALLDATASIZE PUSH2 0x32E1 JUMP JUMPDEST SWAP4 PUSH1 0x1 PUSH1 0x1 PUSH1 0xA0 SHL SUB DUP1 DUP5 AND SWAP5 SWAP4 SWAP3 SWAP1 DUP6 ISZERO PUSH2 0x2553 JUMPI DUP5 ISZERO PUSH2 0x2522 JUMPI DUP7 ISZERO PUSH2 0x24E2 JUMPI DUP2 AND SWAP5 DUP6 ISZERO PUSH2 0x24A1 JUMPI PUSH2 0x2375 PUSH2 0x147B DUP7 CALLER DUP8 PUSH2 0x4DCD JUMP JUMPDEST DUP8 DUP1 DUP5 MLOAD PUSH1 0x20 DUP2 ADD SWAP1 PUSH4 0xD4CE1415 PUSH1 0xE0 SHL DUP3 MSTORE PUSH2 0x239B DUP2 PUSH2 0x14B4 DUP14 DUP12 CALLER PUSH1 0x24 DUP6 ADD PUSH2 0x3B8F JUMP JUMPDEST MLOAD SWAP1 DUP3 DUP7 GAS CALL PUSH2 0x23A9 PUSH2 0x3ACA JUMP JUMPDEST SWAP1 PUSH2 0x2447 JUMPI JUMPDEST POP PUSH1 0x18 SLOAD PUSH1 0x1 DUP2 ADD DUP1 SWAP2 GT PUSH2 0x156A JUMPI SWAP3 PUSH2 0x243B SWAP3 PUSH1 0x5 DUP11 SWAP12 DUP11 SWAP5 DUP6 DUP6 PUSH2 0x424 SWAP15 DUP11 PUSH1 0x0 DUP1 MLOAD PUSH1 0x20 PUSH2 0x521C DUP4 CODECOPY DUP2 MLOAD SWAP2 MSTORE SWAP14 SWAP13 SWAP12 PUSH1 0x18 SSTORE DUP2 MSTORE PUSH1 0x19 PUSH1 0x20 MSTORE KECCAK256 SWAP3 PUSH1 0x1 DUP1 PUSH1 0xA0 SHL SUB NOT SWAP3 DUP4 DUP6 SLOAD AND OR DUP5 SSTORE DUP11 PUSH1 0x3 DUP6 ADD SSTORE PUSH1 0x1 DUP5 ADD CALLER DUP5 DUP3 SLOAD AND OR SWAP1 SSTORE DUP4 ADD SSTORE DUP11 PUSH1 0x2 DUP4 ADD SWAP2 DUP3 SLOAD AND OR SWAP1 SSTORE ADD PUSH1 0x1 PUSH1 0xFF NOT DUP3 SLOAD AND OR SWAP1 SSTORE PUSH1 0x18 SLOAD SWAP2 MLOAD SWAP6 DUP7 SWAP6 CALLER SWAP4 DUP8 PUSH2 0x4FA6 JUMP JUMPDEST SUB SWAP1 LOG1 ADDRESS SWAP1 CALLER SWAP1 PUSH2 0x3BB1 JUMP JUMPDEST DUP1 PUSH1 0x20 DUP1 PUSH2 0x245A SWAP4 MLOAD DUP4 ADD ADD SWAP2 ADD PUSH2 0x4DB4 JUMP JUMPDEST PUSH1 0xFF DUP5 MLOAD SWAP2 PUSH4 0x7F4AB1DD PUSH1 0xE0 SHL DUP4 MSTORE AND DUP1 DUP12 DUP4 ADD MSTORE DUP10 DUP3 PUSH1 0x24 DUP2 DUP12 GAS STATICCALL SWAP2 DUP3 ISZERO PUSH2 0x2497 JUMPI SWAP1 PUSH2 0x2491 SWAP3 SWAP2 DUP12 SWAP3 PUSH2 0x15CE JUMPI POP ISZERO PUSH2 0x4D0C JUMP JUMPDEST DUP10 PUSH2 0x23AF JUMP JUMPDEST DUP6 MLOAD RETURNDATASIZE DUP13 DUP3 RETURNDATACOPY RETURNDATASIZE SWAP1 REVERT JUMPDEST DUP3 MLOAD PUSH3 0x461BCD PUSH1 0xE5 SHL DUP2 MSTORE PUSH1 0x20 DUP2 DUP12 ADD MSTORE PUSH1 0x1B PUSH1 0x24 DUP3 ADD MSTORE PUSH27 0x496E76616C69642071756F746520746F6B656E2061646472657373 PUSH1 0x28 SHL PUSH1 0x44 DUP3 ADD MSTORE PUSH1 0x64 SWAP1 REVERT JUMPDEST DUP3 MLOAD PUSH3 0x461BCD PUSH1 0xE5 SHL DUP2 MSTORE PUSH1 0x20 DUP2 DUP12 ADD MSTORE PUSH1 0x1A PUSH1 0x24 DUP3 ADD MSTORE PUSH26 0x125B9D985B1A59081C5D5BDD19481D1BDAD95B88185B5BDD5B9D PUSH1 0x32 SHL PUSH1 0x44 DUP3 ADD MSTORE PUSH1 0x64 SWAP1 REVERT JUMPDEST DUP3 MLOAD PUSH3 0x461BCD PUSH1 0xE5 SHL DUP2 MSTORE PUSH1 0x20 DUP2 DUP12 ADD MSTORE PUSH1 0x1F PUSH1 0x24 DUP3 ADD MSTORE PUSH1 0x0 DUP1 MLOAD PUSH1 0x20 PUSH2 0x51DC DUP4 CODECOPY DUP2 MLOAD SWAP2 MSTORE PUSH1 0x44 DUP3 ADD MSTORE PUSH1 0x64 SWAP1 REVERT JUMPDEST DUP3 MLOAD PUSH3 0x461BCD PUSH1 0xE5 SHL DUP2 MSTORE PUSH1 0x20 DUP2 DUP12 ADD MSTORE PUSH1 0x1F PUSH1 0x24 DUP3 ADD MSTORE PUSH32 0x496E76616C6964207265737472696374656420746F6B656E2073656E64657200 PUSH1 0x44 DUP3 ADD MSTORE PUSH1 0x64 SWAP1 REVERT JUMPDEST DUP4 DUP4 CALLVALUE PUSH2 0x3E7 JUMPI PUSH2 0x25A6 CALLDATASIZE PUSH2 0x32AC JUMP JUMPDEST SWAP4 SWAP2 PUSH1 0x1 PUSH1 0x1 PUSH1 0xA0 SHL SUB DUP3 DUP2 AND ISZERO ISZERO DUP1 PUSH2 0x2753 JUMPI JUMPDEST PUSH2 0x25C4 SWAP1 PUSH2 0x3DCF JUMP JUMPDEST DUP2 AND SWAP3 DUP4 DUP2 MSTORE PUSH1 0x20 SWAP6 PUSH1 0x1 DUP8 MSTORE DUP6 DUP3 KECCAK256 CALLER DUP4 MSTORE DUP8 MSTORE DUP6 DUP3 KECCAK256 SLOAD DUP1 DUP3 GT PUSH2 0x26EF JUMPI PUSH2 0x25EF DUP3 DUP7 DUP7 PUSH2 0x4D14 JUMP JUMPDEST PUSH2 0x25F9 DUP3 DUP6 PUSH2 0x49EB JUMP JUMPDEST SWAP1 PUSH2 0x2616 DUP3 MLOAD SWAP4 PUSH2 0x260F DUP12 DUP6 ADD SWAP6 DUP7 MLOAD SWAP1 PUSH2 0x34B5 JUMP JUMPDEST LT ISZERO PUSH2 0x45B2 JUMP JUMPDEST DUP2 MLOAD SWAP2 DUP3 PUSH2 0x26CF JUMPI JUMPDEST POP POP POP MLOAD SWAP4 DUP5 PUSH2 0x2633 JUMPI JUMPDEST DUP7 DUP7 MLOAD PUSH1 0x1 DUP2 MSTORE RETURN JUMPDEST SWAP1 DUP6 SWAP2 DUP2 MSTORE PUSH1 0x1 DUP8 MSTORE DUP2 DUP2 KECCAK256 CALLER DUP3 MSTORE DUP8 MSTORE KECCAK256 SLOAD SWAP6 PUSH1 0x0 NOT DUP8 SUB PUSH2 0x266A JUMPI JUMPDEST POP PUSH2 0x265E SWAP4 SWAP5 SWAP6 POP PUSH2 0x464B JUMP JUMPDEST DUP2 SWAP1 DUP4 DUP1 DUP1 DUP1 DUP1 PUSH2 0x262A JUMP JUMPDEST DUP4 DUP8 LT PUSH2 0x268C JUMPI POP PUSH2 0x2684 DUP4 PUSH2 0x265E SWAP6 SWAP7 SWAP8 SUB CALLER DUP4 PUSH2 0x34D8 JUMP JUMPDEST DUP6 SWAP5 SWAP4 PUSH2 0x2651 JUMP JUMPDEST DUP5 MLOAD PUSH3 0x461BCD PUSH1 0xE5 SHL DUP2 MSTORE SWAP1 DUP2 ADD DUP7 SWAP1 MSTORE PUSH1 0x1D PUSH1 0x24 DUP3 ADD MSTORE PUSH32 0x45524332303A20696E73756666696369656E7420616C6C6F77616E6365000000 PUSH1 0x44 DUP3 ADD MSTORE PUSH1 0x64 SWAP1 REVERT JUMPDEST PUSH2 0x26DD PUSH2 0x26E7 SWAP4 DUP9 ADDRESS PUSH2 0x464B JUMP JUMPDEST MLOAD SWAP1 SUB CALLER DUP6 PUSH2 0x34D8 JUMP JUMPDEST DUP9 DUP1 DUP1 PUSH2 0x261F JUMP JUMPDEST DUP7 MLOAD PUSH3 0x461BCD PUSH1 0xE5 SHL DUP2 MSTORE DUP1 DUP11 ADD DUP10 SWAP1 MSTORE PUSH1 0x38 PUSH1 0x24 DUP3 ADD MSTORE PUSH32 0x54686520617070726F76656420616C6C6F77616E6365206973206C6F77657220 PUSH1 0x44 DUP3 ADD MSTORE PUSH24 0x1D1A185B881D1A19481D1C985B9CD9995C88185B5BDD5B9D PUSH1 0x42 SHL PUSH1 0x64 DUP3 ADD MSTORE PUSH1 0x84 SWAP1 REVERT JUMPDEST POP DUP2 DUP2 AND ISZERO ISZERO PUSH2 0x25BB JUMP JUMPDEST DUP4 SWAP2 POP CALLVALUE PUSH2 0x3E7 JUMPI PUSH2 0x276F CALLDATASIZE PUSH2 0x328E JUMP JUMPDEST SWAP2 PUSH32 0x0 DUP2 GT PUSH2 0x2975 JUMPI PUSH1 0x1 DUP5 LT PUSH2 0x2944 JUMPI PUSH2 0x2710 DUP1 DUP4 GT PUSH2 0x2910 JUMPI PUSH1 0x1 DUP6 GT ISZERO PUSH2 0x28C0 JUMPI POP DUP3 ISZERO PUSH2 0x2890 JUMPI JUMPDEST DUP7 MLOAD SWAP4 PUSH2 0x27C6 DUP6 PUSH2 0x331A JUMP JUMPDEST DUP5 MSTORE PUSH1 0x20 DUP5 ADD SWAP1 DUP2 MSTORE DUP7 DUP5 ADD SWAP2 DUP3 MSTORE PUSH1 0x60 DUP5 ADD SWAP3 DUP4 MSTORE PUSH1 0xC SLOAD PUSH1 0x1 PUSH1 0x40 SHL DUP2 LT ISZERO PUSH2 0x287D JUMPI DUP1 PUSH1 0x1 PUSH2 0x27FB SWAP3 ADD PUSH1 0xC SSTORE PUSH2 0x33A4 JUMP JUMPDEST SWAP5 SWAP1 SWAP5 PUSH2 0x286B JUMPI MLOAD DUP5 SSTORE MLOAD PUSH1 0x1 DUP5 ADD SSTORE MLOAD PUSH1 0x2 DUP4 ADD SSTORE MLOAD PUSH1 0x3 SWAP1 SWAP2 ADD SSTORE PUSH1 0xC SLOAD PUSH1 0x0 NOT DUP2 ADD SWAP2 SWAP1 DUP3 GT PUSH2 0x2858 JUMPI POP DUP1 PUSH1 0x20 SWAP4 MLOAD SWAP3 PUSH32 0x9C52CB9BBB9B7FA6DDB26D1E82AFC4E62C9EC50C0F3488C10BB8AD22D4EDC4C3 CALLER SWAP2 DUP1 LOG3 DUP2 MSTORE RETURN JUMPDEST PUSH4 0x4E487B71 PUSH1 0xE0 SHL DUP4 MSTORE PUSH1 0x11 SWAP1 MSTORE PUSH1 0x24 DUP3 REVERT JUMPDEST PUSH4 0x4E487B71 PUSH1 0xE0 SHL DUP8 MSTORE DUP7 DUP7 MSTORE PUSH1 0x24 DUP8 REVERT JUMPDEST PUSH4 0x4E487B71 PUSH1 0xE0 SHL DUP8 MSTORE PUSH1 0x41 DUP7 MSTORE PUSH1 0x24 DUP8 REVERT JUMPDEST DUP7 MLOAD PUSH3 0x461BCD PUSH1 0xE5 SHL DUP2 MSTORE PUSH1 0x20 DUP2 DUP8 ADD MSTORE PUSH1 0xA PUSH1 0x24 DUP3 ADD MSTORE PUSH10 0x706572696F64203D203 PUSH1 0xB4 SHL PUSH1 0x44 DUP3 ADD MSTORE PUSH1 0x64 SWAP1 REVERT JUMPDEST PUSH1 0x1 DUP6 EQ PUSH2 0x28CF JUMPI JUMPDEST POP PUSH2 0x27BA JUMP JUMPDEST DUP3 SUB PUSH2 0x28DB JUMPI DUP8 PUSH2 0x28C9 JUMP JUMPDEST DUP7 MLOAD PUSH3 0x461BCD PUSH1 0xE5 SHL DUP2 MSTORE PUSH1 0x20 DUP2 DUP8 ADD MSTORE PUSH1 0xF PUSH1 0x24 DUP3 ADD MSTORE PUSH15 0x72656C6561736564203C2031303025 PUSH1 0x88 SHL PUSH1 0x44 DUP3 ADD MSTORE PUSH1 0x64 SWAP1 REVERT JUMPDEST DUP8 MLOAD PUSH3 0x461BCD PUSH1 0xE5 SHL DUP2 MSTORE PUSH1 0x20 DUP2 DUP9 ADD MSTORE PUSH1 0xE PUSH1 0x24 DUP3 ADD MSTORE PUSH14 0x72656C65617365203E2031303025 PUSH1 0x90 SHL PUSH1 0x44 DUP3 ADD MSTORE PUSH1 0x64 SWAP1 REVERT JUMPDEST DUP7 MLOAD PUSH3 0x461BCD PUSH1 0xE5 SHL DUP2 MSTORE PUSH1 0x20 DUP2 DUP8 ADD MSTORE PUSH1 0xB PUSH1 0x24 DUP3 ADD MSTORE PUSH11 0x3C20312072656C65617365 PUSH1 0xA8 SHL PUSH1 0x44 DUP3 ADD MSTORE PUSH1 0x64 SWAP1 REVERT JUMPDEST DUP7 MLOAD PUSH3 0x461BCD PUSH1 0xE5 SHL DUP2 MSTORE PUSH1 0x20 DUP2 DUP8 ADD MSTORE PUSH1 0x13 PUSH1 0x24 DUP3 ADD MSTORE PUSH19 0xCCD2E4E6E840E4CAD8CAC2E6CA407C40DAC2F PUSH1 0x6B SHL PUSH1 0x44 DUP3 ADD MSTORE PUSH1 0x64 SWAP1 REVERT JUMPDEST POP POP CALLVALUE PUSH2 0x3E7 JUMPI DUP1 PUSH1 0x3 NOT CALLDATASIZE ADD SLT PUSH2 0x3E7 JUMPI DUP1 PUSH1 0x20 SWAP3 PUSH2 0x29CC PUSH2 0x324D JUMP JUMPDEST PUSH1 0x24 CALLDATALOAD DUP3 MSTORE PUSH1 0x17 DUP6 MSTORE DUP3 DUP3 KECCAK256 PUSH1 0x1 PUSH1 0x1 PUSH1 0xA0 SHL SUB SWAP1 SWAP2 AND DUP3 MSTORE DUP5 MSTORE KECCAK256 SLOAD SWAP1 MLOAD SWAP1 DUP2 MSTORE RETURN JUMPDEST POP POP CALLVALUE PUSH2 0x3E7 JUMPI DUP2 PUSH1 0x3 NOT CALLDATASIZE ADD SLT PUSH2 0x3E7 JUMPI PUSH1 0x20 SWAP1 PUSH1 0x2 SLOAD SWAP1 MLOAD SWAP1 DUP2 MSTORE RETURN JUMPDEST POP POP CALLVALUE PUSH2 0x3E7 JUMPI DUP2 PUSH1 0x3 NOT CALLDATASIZE ADD SLT PUSH2 0x3E7 JUMPI PUSH1 0x20 SWAP1 MLOAD PUSH32 0x0 DUP2 MSTORE RETURN JUMPDEST DUP4 DUP4 CALLVALUE PUSH2 0x3E7 JUMPI PUSH1 0xC0 CALLDATASIZE PUSH1 0x3 NOT ADD SLT PUSH2 0x3E7 JUMPI PUSH2 0x2A65 PUSH2 0x324D JUMP JUMPDEST PUSH1 0xA4 CALLDATALOAD SWAP4 PUSH1 0x24 DUP1 CALLDATALOAD SWAP1 PUSH1 0x1 PUSH1 0x1 PUSH1 0xA0 SHL SUB DUP1 DUP9 AND SWAP1 DUP2 DUP10 SUB PUSH2 0x1EEC JUMPI DUP6 AND SWAP2 DUP3 DUP9 MSTORE PUSH1 0x20 SWAP8 PUSH1 0xD DUP10 MSTORE DUP5 DUP9 DUP3 KECCAK256 SLOAD GT ISZERO PUSH2 0x2D23 JUMPI DUP3 ISZERO PUSH2 0x2CE8 JUMPI DUP5 DUP9 DUP3 DUP7 PUSH2 0x2AB2 SWAP5 MSTORE PUSH1 0xD DUP13 MSTORE KECCAK256 PUSH2 0x3499 JUMP JUMPDEST POP SWAP6 PUSH2 0x2ABD DUP8 PUSH2 0x444C JUMP JUMPDEST ISZERO PUSH2 0x2C92 JUMPI PUSH1 0x44 CALLDATALOAD DUP8 SLOAD SUB PUSH2 0x2C45 JUMPI PUSH1 0x64 CALLDATALOAD PUSH1 0x1 DUP9 ADD SLOAD SUB PUSH2 0x2BED JUMPI PUSH1 0x3 DUP8 ADD SWAP6 PUSH1 0x84 CALLDATALOAD DUP8 SLOAD SUB PUSH2 0x2B9F JUMPI PUSH2 0x2AF2 DUP7 DUP4 PUSH2 0x44ED JUMP JUMPDEST SWAP3 DUP4 ISZERO PUSH2 0x2B60 JUMPI POP POP PUSH2 0x2B22 PUSH1 0x2 SWAP8 SWAP9 SWAP10 SWAP11 DUP3 PUSH2 0x2B1C PUSH2 0x2B13 DUP10 DUP8 SWAP7 PUSH2 0x4527 JUMP JUMPDEST SWAP6 DUP7 SWAP4 ADDRESS PUSH2 0x3975 JUMP JUMPDEST ADDRESS PUSH2 0x3975 JUMP JUMPDEST DUP9 MLOAD SWAP3 DUP4 MSTORE DUP10 DUP4 ADD MSTORE DUP8 DUP3 ADD MSTORE PUSH32 0x6945F4788D8A6B16089D616D1F7BB52372BFDBC43ADDD3386A7842DB4199986A PUSH1 0x60 CALLER SWAP3 LOG4 SLOAD SWAP2 ADD SSTORE MLOAD PUSH1 0x1 DUP2 MSTORE RETURN JUMPDEST DUP10 MLOAD PUSH3 0x461BCD PUSH1 0xE5 SHL DUP2 MSTORE SWAP2 DUP3 ADD DUP12 SWAP1 MSTORE PUSH1 0x1A SWAP1 DUP3 ADD MSTORE PUSH26 0x151A5B595B1BD8DAC81A185CC81B9BC81D985B1D59481B19599D PUSH1 0x32 SHL PUSH1 0x44 DUP3 ADD MSTORE PUSH1 0x64 SWAP1 REVERT JUMPDEST DUP9 MLOAD PUSH3 0x461BCD PUSH1 0xE5 SHL DUP2 MSTORE SWAP1 DUP2 ADD DUP11 SWAP1 MSTORE PUSH1 0x23 DUP2 DUP5 ADD MSTORE PUSH32 0x457870656374656420746F74616C416D6F756E7420646F6573206E6F74206D61 PUSH1 0x44 DUP3 ADD MSTORE PUSH3 0xE8C6D PUSH1 0xEB SHL PUSH1 0x64 DUP3 ADD MSTORE PUSH1 0x84 SWAP1 REVERT JUMPDEST DUP8 MLOAD PUSH3 0x461BCD PUSH1 0xE5 SHL DUP2 MSTORE DUP1 DUP8 ADD DUP11 SWAP1 MSTORE PUSH1 0x2D DUP2 DUP5 ADD MSTORE PUSH32 0x457870656374656420636F6D6D656E63656D656E7454696D657374616D702064 PUSH1 0x44 DUP3 ADD MSTORE PUSH13 0xDECAE640DCDEE840DAC2E8C6D PUSH1 0x9B SHL PUSH1 0x64 DUP3 ADD MSTORE PUSH1 0x84 SWAP1 REVERT JUMPDEST DUP8 MLOAD PUSH3 0x461BCD PUSH1 0xE5 SHL DUP2 MSTORE DUP1 DUP8 ADD DUP11 SWAP1 MSTORE PUSH1 0x22 DUP2 DUP5 ADD MSTORE PUSH32 0x4578706563746564207363686564756C65496420646F6573206E6F74206D6174 PUSH1 0x44 DUP3 ADD MSTORE PUSH2 0xC6D PUSH1 0xF3 SHL PUSH1 0x64 DUP3 ADD MSTORE PUSH1 0x84 SWAP1 REVERT JUMPDEST DUP8 MLOAD PUSH3 0x461BCD PUSH1 0xE5 SHL DUP2 MSTORE DUP1 DUP8 ADD DUP11 SWAP1 MSTORE PUSH1 0x2B DUP2 DUP5 ADD MSTORE PUSH32 0x596F7520617265206E6F7420616C6C6F77656420746F2063616E63656C207468 PUSH1 0x44 DUP3 ADD MSTORE PUSH11 0x69732074696D656C6F636B PUSH1 0xA8 SHL PUSH1 0x64 DUP3 ADD MSTORE PUSH1 0x84 SWAP1 REVERT JUMPDEST DUP8 MLOAD PUSH3 0x461BCD PUSH1 0xE5 SHL DUP2 MSTORE DUP1 DUP8 ADD DUP11 SWAP1 MSTORE PUSH1 0x16 DUP2 DUP5 ADD MSTORE PUSH22 0x496E76616C6964207265636C61696D546F6B656E546F PUSH1 0x50 SHL PUSH1 0x44 DUP3 ADD MSTORE PUSH1 0x64 SWAP1 REVERT JUMPDEST DUP8 MLOAD PUSH3 0x461BCD PUSH1 0xE5 SHL DUP2 MSTORE DUP1 DUP8 ADD DUP11 SWAP1 MSTORE PUSH1 0x10 DUP2 DUP5 ADD MSTORE PUSH16 0x696E76616C69642074696D656C6F636B PUSH1 0x80 SHL PUSH1 0x44 DUP3 ADD MSTORE PUSH1 0x64 SWAP1 REVERT JUMPDEST POP POP CALLVALUE PUSH2 0x3E7 JUMPI DUP1 PUSH1 0x3 NOT CALLDATASIZE ADD SLT PUSH2 0x3E7 JUMPI PUSH1 0x20 SWAP1 PUSH2 0x4D4 PUSH2 0x2D78 PUSH2 0x324D JUMP JUMPDEST PUSH1 0x24 CALLDATALOAD SWAP1 PUSH2 0x4590 JUMP JUMPDEST POP POP CALLVALUE PUSH2 0x3E7 JUMPI DUP1 PUSH1 0x3 NOT CALLDATASIZE ADD SLT PUSH2 0x3E7 JUMPI PUSH1 0x20 SWAP1 PUSH2 0xD74 PUSH2 0x2DA1 PUSH2 0x324D JUMP JUMPDEST PUSH1 0x24 CALLDATALOAD SWAP1 CALLER PUSH2 0x34D8 JUMP JUMPDEST DUP4 DUP4 CALLVALUE PUSH2 0x3E7 JUMPI PUSH1 0x20 CALLDATASIZE PUSH1 0x3 NOT ADD SLT PUSH2 0x3E7 JUMPI DUP3 CALLDATALOAD DUP1 DUP4 MSTORE PUSH1 0x19 PUSH1 0x20 MSTORE DUP2 DUP4 KECCAK256 SLOAD PUSH1 0x1 PUSH1 0x1 PUSH1 0xA0 SHL SUB AND ISZERO PUSH2 0x2E11 JUMPI DUP3 MSTORE PUSH1 0x19 PUSH1 0x20 MSTORE PUSH1 0xFF PUSH1 0x5 DUP3 DUP5 KECCAK256 ADD SLOAD AND SWAP1 MLOAD SWAP2 DUP4 DUP3 LT ISZERO PUSH2 0x2DFE JUMPI PUSH1 0x20 DUP4 DUP4 DUP2 MSTORE RETURN JUMPDEST PUSH4 0x4E487B71 PUSH1 0xE0 SHL DUP2 MSTORE PUSH1 0x21 DUP5 MSTORE PUSH1 0x24 SWAP1 REVERT JUMPDEST DUP2 MLOAD PUSH3 0x461BCD PUSH1 0xE5 SHL DUP2 MSTORE PUSH1 0x20 DUP2 DUP7 ADD MSTORE PUSH1 0x16 PUSH1 0x24 DUP3 ADD MSTORE PUSH22 0x53776170207265636F7264206E6F7420657869737473 PUSH1 0x50 SHL PUSH1 0x44 DUP3 ADD MSTORE PUSH1 0x64 SWAP1 REVERT JUMPDEST DUP4 DUP4 CALLVALUE PUSH2 0x3E7 JUMPI PUSH1 0x20 CALLDATASIZE PUSH1 0x3 NOT ADD SLT PUSH2 0x3E7 JUMPI DUP3 CALLDATALOAD SWAP1 DUP2 DUP4 MSTORE PUSH1 0x19 PUSH1 0x20 MSTORE PUSH1 0xFF PUSH1 0x5 DUP3 DUP6 KECCAK256 ADD SLOAD AND DUP5 DUP2 LT ISZERO PUSH2 0x2F8F JUMPI PUSH1 0x2 DUP2 PUSH2 0x862 PUSH1 0x3 PUSH2 0x2E90 SWAP5 EQ ISZERO PUSH2 0x4FDE JUMP JUMPDEST DUP2 DUP4 MSTORE PUSH1 0x19 PUSH1 0x20 MSTORE DUP1 DUP4 KECCAK256 DUP1 SLOAD PUSH1 0x1 PUSH1 0x1 PUSH1 0xA0 SHL SUB SWAP1 PUSH2 0x2EB3 SWAP1 DUP3 AND ISZERO ISZERO PUSH2 0x5132 JUMP JUMPDEST DUP1 PUSH1 0x1 DUP4 ADD SLOAD AND SWAP2 PUSH2 0x2EC6 DUP4 ISZERO ISZERO PUSH2 0x5132 JUMP JUMPDEST PUSH1 0x5 DUP2 ADD SWAP3 PUSH1 0xFF DUP5 SLOAD AND DUP9 DUP2 LT ISZERO PUSH2 0x2F7C JUMPI SWAP2 PUSH2 0x970 SWAP6 SWAP4 SWAP2 DUP10 DUP5 PUSH32 0xA715D65B6E7107257E3F1469A8B36F0003C039BF6CC6279C26D814B77EFB6580 SWAP10 SWAP8 SWAP6 ISZERO PUSH1 0x0 EQ PUSH2 0x2F44 JUMPI POP POP POP PUSH1 0x3 PUSH2 0x2F2E SWAP3 DUP3 SLOAD AND SWAP2 PUSH2 0x2F25 DUP4 CALLER EQ PUSH2 0x517C JUMP JUMPDEST ADD SLOAD SWAP1 ADDRESS PUSH2 0x464B JUMP JUMPDEST DUP1 SLOAD PUSH1 0xFF NOT AND PUSH1 0x3 OR SWAP1 SSTORE MLOAD SWAP2 DUP3 SWAP2 CALLER DUP4 PUSH2 0x395A JUMP JUMPDEST PUSH1 0x1 EQ PUSH2 0x2F55 JUMPI JUMPDEST POP POP POP POP PUSH2 0x2F2E JUMP JUMPDEST PUSH2 0x2F73 SWAP4 PUSH2 0x2F64 DUP4 CALLER EQ PUSH2 0x517C JUMP JUMPDEST PUSH1 0x2 DUP5 ADD SLOAD AND SWAP3 ADD SLOAD SWAP2 PUSH2 0x3975 JUMP JUMPDEST DUP7 DUP1 DUP1 DUP1 PUSH2 0x2F4C JUMP JUMPDEST PUSH4 0x4E487B71 PUSH1 0xE0 SHL DUP9 MSTORE PUSH1 0x21 DUP10 MSTORE PUSH1 0x24 DUP9 REVERT JUMPDEST PUSH4 0x4E487B71 PUSH1 0xE0 SHL DUP5 MSTORE PUSH1 0x21 DUP6 MSTORE PUSH1 0x24 DUP5 REVERT JUMPDEST DUP4 DUP4 CALLVALUE PUSH2 0x3E7 JUMPI DUP1 PUSH1 0x3 NOT CALLDATASIZE ADD SLT PUSH2 0x3E7 JUMPI PUSH2 0x2FBC PUSH2 0x324D JUMP JUMPDEST SWAP1 PUSH2 0x2FC5 PUSH2 0x327E JUMP JUMPDEST SWAP1 PUSH1 0xFF DUP1 DUP4 AND SWAP3 DUP4 ISZERO ISZERO DUP1 PUSH2 0x311D JUMPI JUMPDEST PUSH2 0x2FDE SWAP1 PUSH2 0x3D88 JUMP JUMPDEST PUSH1 0x1 PUSH1 0x1 PUSH1 0xA0 SHL SUB DUP6 AND SWAP5 PUSH2 0x300B SWAP1 DUP3 SWAP1 PUSH2 0x2FFA DUP9 ISZERO ISZERO PUSH2 0x3DCF JUMP JUMPDEST PUSH2 0x3006 PUSH2 0x127F CALLER PUSH2 0x3E13 JUMP JUMPDEST PUSH2 0x3E3D JUMP JUMPDEST ISZERO PUSH2 0x30E4 JUMPI PUSH1 0x1 DUP2 AND PUSH2 0x3053 JUMPI JUMPDEST DUP6 SWAP7 POP DUP5 DUP7 MSTORE PUSH1 0x9 PUSH1 0x20 MSTORE DUP3 DUP7 KECCAK256 SWAP2 DUP3 SLOAD SWAP2 DUP2 DUP4 AND XOR AND SWAP1 PUSH1 0xFF NOT AND OR SWAP1 SSTORE MLOAD SWAP1 DUP2 MSTORE PUSH1 0x0 DUP1 MLOAD PUSH1 0x20 PUSH2 0x52BC DUP4 CODECOPY DUP2 MLOAD SWAP2 MSTORE PUSH1 0x20 CALLER SWAP3 LOG4 DUP1 RETURN JUMPDEST PUSH1 0xA SLOAD DUP3 DUP2 AND PUSH1 0x1 DUP2 GT ISZERO PUSH2 0x3093 JUMPI DUP1 ISZERO PUSH2 0x3080 JUMPI DUP8 SWAP9 POP DUP4 SWAP1 PUSH1 0x0 NOT ADD AND SWAP1 PUSH1 0xFF NOT AND OR PUSH1 0xA SSTORE PUSH2 0x3019 JUMP JUMPDEST PUSH4 0x4E487B71 PUSH1 0xE0 SHL DUP9 MSTORE PUSH1 0x11 DUP10 MSTORE PUSH1 0x24 DUP9 REVERT JUMPDEST DUP5 MLOAD PUSH3 0x461BCD PUSH1 0xE5 SHL DUP2 MSTORE PUSH1 0x20 DUP2 DUP12 ADD MSTORE PUSH1 0x25 PUSH1 0x24 DUP3 ADD MSTORE PUSH32 0x4D7573742068617665206174206C65617374206F6E6520636F6E747261637420 PUSH1 0x44 DUP3 ADD MSTORE PUSH5 0x30B236B4B7 PUSH1 0xD9 SHL PUSH1 0x64 DUP3 ADD MSTORE PUSH1 0x84 SWAP1 REVERT JUMPDEST DUP3 MLOAD PUSH3 0x461BCD PUSH1 0xE5 SHL DUP2 MSTORE PUSH1 0x20 DUP2 DUP10 ADD MSTORE PUSH1 0x13 PUSH1 0x24 DUP3 ADD MSTORE PUSH19 0x43414E204E4F54205245564F4B4520524F4C45 PUSH1 0x68 SHL PUSH1 0x44 DUP3 ADD MSTORE PUSH1 0x64 SWAP1 REVERT JUMPDEST POP PUSH1 0xF DUP2 DUP2 OR DUP4 AND EQ PUSH2 0x2FD5 JUMP JUMPDEST SWAP3 SWAP2 POP CALLVALUE PUSH2 0x5FC JUMPI DUP4 PUSH1 0x3 NOT CALLDATASIZE ADD SLT PUSH2 0x5FC JUMPI PUSH1 0x3 SLOAD PUSH1 0x1 DUP2 DUP2 SHR SWAP2 DUP7 SWAP1 DUP3 DUP2 AND DUP1 ISZERO PUSH2 0x31F4 JUMPI JUMPDEST PUSH1 0x20 SWAP6 DUP7 DUP7 LT DUP3 EQ PUSH2 0x31E1 JUMPI POP DUP5 DUP9 MSTORE SWAP1 DUP2 ISZERO PUSH2 0x31BF JUMPI POP PUSH1 0x1 EQ PUSH2 0x3184 JUMPI JUMPDEST PUSH2 0x5F8 DUP7 DUP7 PUSH2 0x1338 DUP3 DUP12 SUB DUP4 PUSH2 0x3381 JUMP JUMPDEST SWAP3 SWAP6 POP PUSH1 0x3 DUP4 MSTORE DUP6 DUP4 KECCAK256 JUMPDEST DUP3 DUP5 LT PUSH2 0x31AC JUMPI POP POP POP DUP3 PUSH2 0x5F8 SWAP5 PUSH2 0x1338 SWAP3 DUP3 ADD ADD SWAP5 CODESIZE PUSH2 0x3173 JUMP JUMPDEST DUP1 SLOAD DUP7 DUP6 ADD DUP9 ADD MSTORE SWAP3 DUP7 ADD SWAP3 DUP2 ADD PUSH2 0x318F JUMP JUMPDEST PUSH1 0xFF NOT AND DUP8 DUP7 ADD MSTORE POP POP POP ISZERO ISZERO PUSH1 0x5 SHL DUP4 ADD ADD SWAP3 POP PUSH2 0x1338 DUP3 PUSH2 0x5F8 CODESIZE PUSH2 0x3173 JUMP JUMPDEST PUSH4 0x4E487B71 PUSH1 0xE0 SHL DUP5 MSTORE PUSH1 0x22 SWAP1 MSTORE PUSH1 0x24 DUP4 REVERT JUMPDEST SWAP4 PUSH1 0x7F AND SWAP4 PUSH2 0x3153 JUMP JUMPDEST PUSH1 0x0 JUMPDEST DUP4 DUP2 LT PUSH2 0x3211 JUMPI POP POP PUSH1 0x0 SWAP2 ADD MSTORE JUMP JUMPDEST DUP2 DUP2 ADD MLOAD DUP4 DUP3 ADD MSTORE PUSH1 0x20 ADD PUSH2 0x3201 JUMP JUMPDEST PUSH1 0x40 SWAP2 PUSH1 0x20 DUP3 MSTORE PUSH2 0x3241 DUP2 MLOAD DUP1 SWAP3 DUP2 PUSH1 0x20 DUP7 ADD MSTORE PUSH1 0x20 DUP7 DUP7 ADD SWAP2 ADD PUSH2 0x31FE JUMP JUMPDEST PUSH1 0x1F ADD PUSH1 0x1F NOT AND ADD ADD SWAP1 JUMP JUMPDEST PUSH1 0x4 CALLDATALOAD SWAP1 PUSH1 0x1 PUSH1 0x1 PUSH1 0xA0 SHL SUB DUP3 AND DUP3 SUB PUSH2 0x3263 JUMPI JUMP JUMPDEST PUSH1 0x0 DUP1 REVERT JUMPDEST PUSH1 0x24 CALLDATALOAD SWAP1 PUSH1 0x1 PUSH1 0x1 PUSH1 0xA0 SHL SUB DUP3 AND DUP3 SUB PUSH2 0x3263 JUMPI JUMP JUMPDEST PUSH1 0x24 CALLDATALOAD SWAP1 PUSH1 0xFF DUP3 AND DUP3 SUB PUSH2 0x3263 JUMPI JUMP JUMPDEST PUSH1 0x80 SWAP1 PUSH1 0x3 NOT ADD SLT PUSH2 0x3263 JUMPI PUSH1 0x4 CALLDATALOAD SWAP1 PUSH1 0x24 CALLDATALOAD SWAP1 PUSH1 0x44 CALLDATALOAD SWAP1 PUSH1 0x64 CALLDATALOAD SWAP1 JUMP JUMPDEST PUSH1 0x60 SWAP1 PUSH1 0x3 NOT ADD SLT PUSH2 0x3263 JUMPI PUSH1 0x1 PUSH1 0x1 PUSH1 0xA0 SHL SUB SWAP1 PUSH1 0x4 CALLDATALOAD DUP3 DUP2 AND DUP2 SUB PUSH2 0x3263 JUMPI SWAP2 PUSH1 0x24 CALLDATALOAD SWAP1 DUP2 AND DUP2 SUB PUSH2 0x3263 JUMPI SWAP1 PUSH1 0x44 CALLDATALOAD SWAP1 JUMP JUMPDEST PUSH1 0x80 SWAP1 PUSH1 0x3 NOT ADD SLT PUSH2 0x3263 JUMPI PUSH1 0x4 CALLDATALOAD SWAP1 PUSH1 0x1 PUSH1 0x1 PUSH1 0xA0 SHL SUB SWAP1 PUSH1 0x24 CALLDATALOAD DUP3 DUP2 AND DUP2 SUB PUSH2 0x3263 JUMPI SWAP2 PUSH1 0x44 CALLDATALOAD SWAP1 DUP2 AND DUP2 SUB PUSH2 0x3263 JUMPI SWAP1 PUSH1 0x64 CALLDATALOAD SWAP1 JUMP JUMPDEST PUSH1 0x80 DUP2 ADD SWAP1 DUP2 LT PUSH1 0x1 PUSH1 0x1 PUSH1 0x40 SHL SUB DUP3 GT OR PUSH2 0x3335 JUMPI PUSH1 0x40 MSTORE JUMP JUMPDEST PUSH4 0x4E487B71 PUSH1 0xE0 SHL PUSH1 0x0 MSTORE PUSH1 0x41 PUSH1 0x4 MSTORE PUSH1 0x24 PUSH1 0x0 REVERT JUMPDEST PUSH1 0xA0 DUP2 ADD SWAP1 DUP2 LT PUSH1 0x1 PUSH1 0x1 PUSH1 0x40 SHL SUB DUP3 GT OR PUSH2 0x3335 JUMPI PUSH1 0x40 MSTORE JUMP JUMPDEST PUSH1 0x40 DUP2 ADD SWAP1 DUP2 LT PUSH1 0x1 PUSH1 0x1 PUSH1 0x40 SHL SUB DUP3 GT OR PUSH2 0x3335 JUMPI PUSH1 0x40 MSTORE JUMP JUMPDEST PUSH1 0x1F SWAP1 SWAP2 ADD PUSH1 0x1F NOT AND DUP2 ADD SWAP1 PUSH1 0x1 PUSH1 0x1 PUSH1 0x40 SHL SUB DUP3 GT SWAP1 DUP3 LT OR PUSH2 0x3335 JUMPI PUSH1 0x40 MSTORE JUMP JUMPDEST PUSH1 0xC SLOAD DUP2 LT ISZERO PUSH2 0x33C3 JUMPI PUSH1 0xC PUSH1 0x0 MSTORE PUSH1 0x20 PUSH1 0x0 KECCAK256 SWAP1 PUSH1 0x2 SHL ADD SWAP1 PUSH1 0x0 SWAP1 JUMP JUMPDEST PUSH4 0x4E487B71 PUSH1 0xE0 SHL PUSH1 0x0 MSTORE PUSH1 0x32 PUSH1 0x4 MSTORE PUSH1 0x24 PUSH1 0x0 REVERT JUMPDEST SWAP1 SWAP3 SWAP2 PUSH1 0x1 PUSH1 0x1 PUSH1 0x40 SHL SUB DUP5 GT PUSH2 0x3335 JUMPI DUP4 PUSH1 0x5 SHL PUSH1 0x40 MLOAD SWAP3 PUSH1 0x20 DUP1 SWAP5 PUSH2 0x3402 DUP3 DUP6 ADD DUP3 PUSH2 0x3381 JUMP JUMPDEST DUP1 SWAP8 DUP2 MSTORE ADD SWAP2 DUP2 ADD SWAP3 DUP4 GT PUSH2 0x3263 JUMPI SWAP1 JUMPDEST DUP3 DUP3 LT PUSH2 0x3420 JUMPI POP POP POP POP JUMP JUMPDEST DUP2 CALLDATALOAD PUSH1 0x1 PUSH1 0x1 PUSH1 0xA0 SHL SUB DUP2 AND DUP2 SUB PUSH2 0x3263 JUMPI DUP2 MSTORE SWAP1 DUP4 ADD SWAP1 DUP4 ADD PUSH2 0x3413 JUMP JUMPDEST PUSH1 0x60 SWAP1 PUSH1 0x3 NOT ADD SLT PUSH2 0x3263 JUMPI PUSH1 0x4 CALLDATALOAD PUSH1 0x1 PUSH1 0x1 PUSH1 0xA0 SHL SUB DUP2 AND DUP2 SUB PUSH2 0x3263 JUMPI SWAP1 PUSH1 0x24 CALLDATALOAD SWAP1 PUSH1 0x44 CALLDATALOAD SWAP1 JUMP JUMPDEST SWAP2 DUP2 PUSH1 0x1F DUP5 ADD SLT ISZERO PUSH2 0x3263 JUMPI DUP3 CALLDATALOAD SWAP2 PUSH1 0x1 PUSH1 0x1 PUSH1 0x40 SHL SUB DUP4 GT PUSH2 0x3263 JUMPI PUSH1 0x20 DUP1 DUP6 ADD SWAP5 DUP5 PUSH1 0x5 SHL ADD ADD GT PUSH2 0x3263 JUMPI JUMP JUMPDEST DUP1 SLOAD DUP3 LT ISZERO PUSH2 0x33C3 JUMPI PUSH1 0x0 MSTORE PUSH1 0x5 PUSH1 0x20 PUSH1 0x0 KECCAK256 SWAP2 MUL ADD SWAP1 PUSH1 0x0 SWAP1 JUMP JUMPDEST SWAP2 SWAP1 DUP3 ADD DUP1 SWAP3 GT PUSH2 0x34C2 JUMPI JUMP JUMPDEST PUSH4 0x4E487B71 PUSH1 0xE0 SHL PUSH1 0x0 MSTORE PUSH1 0x11 PUSH1 0x4 MSTORE PUSH1 0x24 PUSH1 0x0 REVERT JUMPDEST PUSH1 0x1 PUSH1 0x1 PUSH1 0xA0 SHL SUB SWAP1 DUP2 AND SWAP2 DUP3 ISZERO PUSH2 0x3589 JUMPI AND SWAP2 DUP3 ISZERO PUSH2 0x3539 JUMPI PUSH1 0x20 PUSH32 0x8C5BE1E5EBEC7D5BD14F71427D1E84F3DD0314C0F7B2291E5B200AC8C7C3B925 SWAP2 DUP4 PUSH1 0x0 MSTORE PUSH1 0x1 DUP3 MSTORE PUSH1 0x40 PUSH1 0x0 KECCAK256 DUP6 PUSH1 0x0 MSTORE DUP3 MSTORE DUP1 PUSH1 0x40 PUSH1 0x0 KECCAK256 SSTORE PUSH1 0x40 MLOAD SWAP1 DUP2 MSTORE LOG3 JUMP JUMPDEST PUSH1 0x40 MLOAD PUSH3 0x461BCD PUSH1 0xE5 SHL DUP2 MSTORE PUSH1 0x20 PUSH1 0x4 DUP3 ADD MSTORE PUSH1 0x22 PUSH1 0x24 DUP3 ADD MSTORE PUSH32 0x45524332303A20617070726F766520746F20746865207A65726F206164647265 PUSH1 0x44 DUP3 ADD MSTORE PUSH2 0x7373 PUSH1 0xF0 SHL PUSH1 0x64 DUP3 ADD MSTORE PUSH1 0x84 SWAP1 REVERT JUMPDEST PUSH1 0x40 MLOAD PUSH3 0x461BCD PUSH1 0xE5 SHL DUP2 MSTORE PUSH1 0x20 PUSH1 0x4 DUP3 ADD MSTORE PUSH1 0x24 DUP1 DUP3 ADD MSTORE PUSH32 0x45524332303A20617070726F76652066726F6D20746865207A65726F20616464 PUSH1 0x44 DUP3 ADD MSTORE PUSH4 0x72657373 PUSH1 0xE0 SHL PUSH1 0x64 DUP3 ADD MSTORE PUSH1 0x84 SWAP1 REVERT JUMPDEST PUSH1 0x7 SLOAD DUP2 LT ISZERO PUSH2 0x33C3 JUMPI PUSH1 0x7 PUSH1 0x0 MSTORE PUSH1 0x20 PUSH1 0x0 KECCAK256 ADD SWAP1 PUSH1 0x0 SWAP1 JUMP JUMPDEST PUSH1 0x6 SLOAD DUP2 LT ISZERO PUSH2 0x33C3 JUMPI PUSH1 0x6 PUSH1 0x0 MSTORE PUSH1 0x20 PUSH1 0x0 KECCAK256 ADD SWAP1 PUSH1 0x0 SWAP1 JUMP JUMPDEST DUP1 SLOAD DUP3 LT ISZERO PUSH2 0x33C3 JUMPI PUSH1 0x0 MSTORE PUSH1 0x20 PUSH1 0x0 KECCAK256 ADD SWAP1 PUSH1 0x0 SWAP1 JUMP JUMPDEST DUP1 ISZERO PUSH2 0x36AE JUMPI PUSH1 0x8 SLOAD DUP2 GT PUSH2 0x3669 JUMPI PUSH2 0x3640 SWAP1 PUSH2 0x3730 JUMP JUMPDEST PUSH1 0x6 SLOAD DUP2 SUB PUSH2 0x3652 JUMPI POP PUSH1 0x0 SWAP1 PUSH1 0x0 SWAP1 JUMP JUMPDEST PUSH2 0x365B SWAP1 PUSH2 0x35DA JUMP JUMPDEST SWAP1 SLOAD SWAP1 PUSH1 0x3 SHL SHR SWAP1 PUSH1 0x1 SWAP2 SWAP1 JUMP JUMPDEST PUSH1 0x40 MLOAD PUSH3 0x461BCD PUSH1 0xE5 SHL DUP2 MSTORE PUSH1 0x20 PUSH1 0x4 DUP3 ADD MSTORE PUSH1 0x1D PUSH1 0x24 DUP3 ADD MSTORE PUSH32 0x4552433230536E617073686F743A206E6F6E6578697374656E74206964000000 PUSH1 0x44 DUP3 ADD MSTORE PUSH1 0x64 SWAP1 REVERT JUMPDEST PUSH1 0x40 MLOAD PUSH3 0x461BCD PUSH1 0xE5 SHL DUP2 MSTORE PUSH1 0x20 PUSH1 0x4 DUP3 ADD MSTORE PUSH1 0x16 PUSH1 0x24 DUP3 ADD MSTORE PUSH22 0x4552433230536E617073686F743A206964206973203 PUSH1 0x54 SHL PUSH1 0x44 DUP3 ADD MSTORE PUSH1 0x64 SWAP1 REVERT JUMPDEST DUP1 ISZERO PUSH2 0x36AE JUMPI PUSH1 0x8 SLOAD DUP2 GT PUSH2 0x3669 JUMPI PUSH2 0x3705 SWAP1 DUP3 PUSH2 0x37D8 JUMP JUMPDEST DUP2 SLOAD DUP2 SUB PUSH2 0x3717 JUMPI POP POP PUSH1 0x0 SWAP1 PUSH1 0x0 SWAP1 JUMP JUMPDEST PUSH1 0x1 PUSH2 0x365B SWAP3 ADD PUSH2 0x3610 JUMP JUMPDEST SWAP2 SWAP1 DUP3 SUB SWAP2 DUP3 GT PUSH2 0x34C2 JUMPI JUMP JUMPDEST PUSH1 0x6 DUP1 SLOAD SWAP2 DUP3 ISZERO PUSH2 0x37D0 JUMPI PUSH1 0x0 SWAP3 JUMPDEST DUP1 DUP5 LT PUSH2 0x378E JUMPI POP DUP3 ISZERO ISZERO SWAP2 DUP3 PUSH2 0x376A JUMPI JUMPDEST POP POP ISZERO PUSH2 0x3767 JUMPI PUSH1 0x0 NOT DUP2 ADD SWAP1 DUP2 GT PUSH2 0x34C2 JUMPI SWAP1 JUMP JUMPDEST SWAP1 JUMP JUMPDEST SWAP1 SWAP2 POP PUSH1 0x0 NOT SWAP1 DUP4 DUP3 DUP2 ADD GT PUSH2 0x34C2 JUMPI PUSH1 0x0 MSTORE DUP3 PUSH1 0x20 PUSH1 0x0 KECCAK256 ADD ADD SLOAD EQ CODESIZE DUP1 PUSH2 0x3751 JUMP JUMPDEST PUSH1 0x1 SWAP1 PUSH2 0x37A1 DUP2 DUP7 XOR DUP4 SHR DUP3 DUP8 AND PUSH2 0x34B5 JUMP JUMPDEST SWAP2 DUP5 PUSH1 0x0 MSTORE DUP4 DUP4 PUSH1 0x20 PUSH1 0x0 KECCAK256 ADD SLOAD GT PUSH1 0x0 EQ PUSH2 0x37BE JUMPI POP POP PUSH2 0x373F JUMP JUMPDEST SWAP1 SWAP5 POP DUP2 ADD DUP1 SWAP2 GT PUSH2 0x34C2 JUMPI SWAP3 PUSH2 0x373F JUMP JUMPDEST POP POP POP PUSH1 0x0 SWAP1 JUMP JUMPDEST DUP1 SLOAD SWAP2 DUP3 ISZERO PUSH2 0x37D0 JUMPI PUSH1 0x0 SWAP3 JUMPDEST DUP1 DUP5 LT PUSH2 0x380C JUMPI POP DUP3 ISZERO ISZERO SWAP2 DUP3 PUSH2 0x376A JUMPI POP POP ISZERO PUSH2 0x3767 JUMPI PUSH1 0x0 NOT DUP2 ADD SWAP1 DUP2 GT PUSH2 0x34C2 JUMPI SWAP1 JUMP JUMPDEST PUSH1 0x1 SWAP1 PUSH2 0x381F DUP2 DUP7 XOR DUP4 SHR DUP3 DUP8 AND PUSH2 0x34B5 JUMP JUMPDEST SWAP2 DUP5 PUSH1 0x0 MSTORE DUP4 DUP4 PUSH1 0x20 PUSH1 0x0 KECCAK256 ADD SLOAD GT PUSH1 0x0 EQ PUSH2 0x383C JUMPI POP POP PUSH2 0x37E5 JUMP JUMPDEST SWAP1 SWAP5 POP DUP2 ADD DUP1 SWAP2 GT PUSH2 0x34C2 JUMPI SWAP3 PUSH2 0x37E5 JUMP JUMPDEST DUP2 ISZERO PUSH2 0x3858 JUMPI DIV SWAP1 JUMP JUMPDEST PUSH4 0x4E487B71 PUSH1 0xE0 SHL PUSH1 0x0 MSTORE PUSH1 0x12 PUSH1 0x4 MSTORE PUSH1 0x24 PUSH1 0x0 REVERT JUMPDEST ISZERO PUSH2 0x3875 JUMPI JUMP JUMPDEST PUSH1 0x40 MLOAD PUSH3 0x461BCD PUSH1 0xE5 SHL DUP2 MSTORE PUSH1 0x20 PUSH1 0x4 DUP3 ADD MSTORE PUSH1 0x21 PUSH1 0x24 DUP3 ADD MSTORE PUSH32 0x444F4553204E4F54204841564520434F4E54524143542041444D494E20524F4C PUSH1 0x44 DUP3 ADD MSTORE PUSH1 0x45 PUSH1 0xF8 SHL PUSH1 0x64 DUP3 ADD MSTORE PUSH1 0x84 SWAP1 REVERT JUMPDEST ISZERO PUSH2 0x38CB JUMPI JUMP JUMPDEST PUSH1 0x40 MLOAD PUSH3 0x461BCD PUSH1 0xE5 SHL DUP2 MSTORE PUSH1 0x20 PUSH1 0x4 DUP3 ADD MSTORE PUSH1 0x11 PUSH1 0x24 DUP3 ADD MSTORE PUSH17 0x42414420544F4B454E2041444452455353 PUSH1 0x78 SHL PUSH1 0x44 DUP3 ADD MSTORE PUSH1 0x64 SWAP1 REVERT JUMPDEST PUSH1 0x2 PUSH1 0xB SLOAD EQ PUSH2 0x3915 JUMPI PUSH1 0x2 PUSH1 0xB SSTORE JUMP JUMPDEST PUSH1 0x40 MLOAD PUSH3 0x461BCD PUSH1 0xE5 SHL DUP2 MSTORE PUSH1 0x20 PUSH1 0x4 DUP3 ADD MSTORE PUSH1 0x1F PUSH1 0x24 DUP3 ADD MSTORE PUSH32 0x5265656E7472616E637947756172643A207265656E7472616E742063616C6C00 PUSH1 0x44 DUP3 ADD MSTORE PUSH1 0x64 SWAP1 REVERT JUMPDEST PUSH1 0x1 PUSH1 0x1 PUSH1 0xA0 SHL SUB SWAP1 SWAP2 AND DUP2 MSTORE PUSH1 0x20 DUP2 ADD SWAP2 SWAP1 SWAP2 MSTORE PUSH1 0x40 ADD SWAP1 JUMP JUMPDEST PUSH2 0x39AA PUSH2 0x39AF SWAP4 SWAP3 PUSH2 0x399C PUSH1 0x40 MLOAD SWAP5 DUP6 SWAP3 PUSH4 0xA9059CBB PUSH1 0xE0 SHL PUSH1 0x20 DUP6 ADD MSTORE PUSH1 0x24 DUP5 ADD PUSH2 0x395A JUMP JUMPDEST SUB PUSH1 0x1F NOT DUP2 ADD DUP5 MSTORE DUP4 PUSH2 0x3381 JUMP JUMPDEST PUSH2 0x39E4 JUMP JUMPDEST JUMP JUMPDEST PUSH1 0x1 PUSH1 0x1 PUSH1 0x40 SHL SUB DUP2 GT PUSH2 0x3335 JUMPI PUSH1 0x1F ADD PUSH1 0x1F NOT AND PUSH1 0x20 ADD SWAP1 JUMP JUMPDEST SWAP1 DUP2 PUSH1 0x20 SWAP2 SUB SLT PUSH2 0x3263 JUMPI MLOAD DUP1 ISZERO ISZERO DUP2 SUB PUSH2 0x3263 JUMPI SWAP1 JUMP JUMPDEST PUSH1 0x40 MLOAD PUSH2 0x3A42 SWAP2 PUSH1 0x1 PUSH1 0x1 PUSH1 0xA0 SHL SUB AND PUSH2 0x39FD DUP3 PUSH2 0x3366 JUMP JUMPDEST PUSH1 0x0 DUP1 PUSH1 0x20 SWAP6 DUP7 DUP6 MSTORE PUSH32 0x5361666545524332303A206C6F772D6C6576656C2063616C6C206661696C6564 DUP8 DUP7 ADD MSTORE DUP7 DUP2 MLOAD SWAP2 ADD DUP3 DUP6 GAS CALL PUSH2 0x3A3C PUSH2 0x3ACA JUMP JUMPDEST SWAP2 PUSH2 0x3AFA JUMP JUMPDEST DUP1 MLOAD SWAP1 DUP3 DUP3 ISZERO SWAP3 DUP4 ISZERO PUSH2 0x3AB2 JUMPI JUMPDEST POP POP POP ISZERO PUSH2 0x3A5B JUMPI POP JUMP JUMPDEST PUSH1 0x84 SWAP1 PUSH1 0x40 MLOAD SWAP1 PUSH3 0x461BCD PUSH1 0xE5 SHL DUP3 MSTORE PUSH1 0x4 DUP3 ADD MSTORE PUSH1 0x2A PUSH1 0x24 DUP3 ADD MSTORE PUSH32 0x5361666545524332303A204552433230206F7065726174696F6E20646964206E PUSH1 0x44 DUP3 ADD MSTORE PUSH10 0x1BDD081CDD58D8D95959 PUSH1 0xB2 SHL PUSH1 0x64 DUP3 ADD MSTORE REVERT JUMPDEST PUSH2 0x3AC2 SWAP4 POP DUP3 ADD DUP2 ADD SWAP2 ADD PUSH2 0x39CC JUMP JUMPDEST CODESIZE DUP3 DUP2 PUSH2 0x3A50 JUMP JUMPDEST RETURNDATASIZE ISZERO PUSH2 0x3AF5 JUMPI RETURNDATASIZE SWAP1 PUSH2 0x3ADB DUP3 PUSH2 0x39B1 JUMP JUMPDEST SWAP2 PUSH2 0x3AE9 PUSH1 0x40 MLOAD SWAP4 DUP5 PUSH2 0x3381 JUMP JUMPDEST DUP3 MSTORE RETURNDATASIZE PUSH1 0x0 PUSH1 0x20 DUP5 ADD RETURNDATACOPY JUMP JUMPDEST PUSH1 0x60 SWAP1 JUMP JUMPDEST SWAP2 SWAP3 SWAP1 ISZERO PUSH2 0x3B5C JUMPI POP DUP2 MLOAD ISZERO PUSH2 0x3B0E JUMPI POP SWAP1 JUMP JUMPDEST EXTCODESIZE ISZERO PUSH2 0x3B17 JUMPI SWAP1 JUMP JUMPDEST PUSH1 0x40 MLOAD PUSH3 0x461BCD PUSH1 0xE5 SHL DUP2 MSTORE PUSH1 0x20 PUSH1 0x4 DUP3 ADD MSTORE PUSH1 0x1D PUSH1 0x24 DUP3 ADD MSTORE PUSH32 0x416464726573733A2063616C6C20746F206E6F6E2D636F6E7472616374000000 PUSH1 0x44 DUP3 ADD MSTORE PUSH1 0x64 SWAP1 REVERT JUMPDEST DUP3 MLOAD SWAP1 SWAP2 POP ISZERO PUSH2 0x3B6F JUMPI POP DUP1 MLOAD SWAP1 PUSH1 0x20 ADD REVERT JUMPDEST PUSH1 0x40 MLOAD PUSH3 0x461BCD PUSH1 0xE5 SHL DUP2 MSTORE SWAP1 DUP2 SWAP1 PUSH2 0x3B8B SWAP1 PUSH1 0x4 DUP4 ADD PUSH2 0x3221 JUMP JUMPDEST SUB SWAP1 REVERT JUMPDEST PUSH1 0x1 PUSH1 0x1 PUSH1 0xA0 SHL SUB SWAP2 DUP3 AND DUP2 MSTORE SWAP2 AND PUSH1 0x20 DUP3 ADD MSTORE PUSH1 0x40 DUP2 ADD SWAP2 SWAP1 SWAP2 MSTORE PUSH1 0x60 ADD SWAP1 JUMP JUMPDEST SWAP1 PUSH2 0x39AA SWAP1 PUSH2 0x399C PUSH2 0x39AF SWAP6 PUSH1 0x40 MLOAD SWAP6 DUP7 SWAP4 PUSH4 0x23B872DD PUSH1 0xE0 SHL PUSH1 0x20 DUP7 ADD MSTORE PUSH1 0x24 DUP6 ADD PUSH2 0x3B8F JUMP JUMPDEST SWAP1 PUSH1 0x0 MSTORE PUSH1 0x17 PUSH1 0x20 MSTORE PUSH1 0x40 PUSH1 0x0 KECCAK256 SWAP1 PUSH1 0x1 DUP1 PUSH1 0xA0 SHL SUB AND PUSH1 0x0 MSTORE PUSH1 0x20 MSTORE PUSH1 0x1 PUSH1 0x40 PUSH1 0x0 KECCAK256 ADD SLOAD DUP1 PUSH2 0x3767 JUMPI POP PUSH1 0x0 SWAP1 JUMP JUMPDEST DUP2 DUP2 MUL SWAP3 SWAP2 DUP2 ISZERO SWAP2 DUP5 DIV EQ OR ISZERO PUSH2 0x34C2 JUMPI JUMP JUMPDEST PUSH1 0x40 DUP1 MLOAD PUSH4 0x277166BF PUSH1 0xE1 SHL DUP2 MSTORE SWAP4 DUP5 SWAP4 SWAP1 SWAP3 SWAP1 DUP5 SWAP1 PUSH2 0x3C42 SWAP1 DUP6 SWAP1 PUSH1 0x4 DUP5 ADD PUSH2 0x395A JUMP JUMPDEST SUB PUSH1 0x20 SWAP5 DUP6 SWAP2 DUP2 ADDRESS GAS STATICCALL SWAP5 DUP6 ISZERO PUSH2 0x3D39 JUMPI PUSH1 0x0 SWAP6 PUSH2 0x3D0A JUMPI JUMPDEST POP DUP2 MLOAD PUSH4 0x981B24D PUSH1 0xE4 SHL DUP2 MSTORE PUSH1 0x4 DUP2 ADD DUP5 SWAP1 MSTORE SWAP4 DUP1 DUP6 PUSH1 0x24 DUP2 ADDRESS GAS STATICCALL SWAP5 DUP6 ISZERO PUSH2 0x3CFF JUMPI PUSH1 0x0 SWAP6 PUSH2 0x3CD0 JUMPI JUMPDEST POP PUSH2 0x2710 SWAP6 DUP7 DUP2 MUL SWAP1 DUP1 DUP3 DIV DUP9 EQ SWAP1 ISZERO OR ISZERO PUSH2 0x34C2 JUMPI PUSH2 0x3CCC SWAP6 PUSH2 0x3CAA SWAP2 PUSH2 0x384E JUMP JUMPDEST SWAP4 PUSH1 0x0 MSTORE PUSH1 0x17 DUP2 MSTORE DUP3 PUSH1 0x0 KECCAK256 SWAP2 PUSH1 0x1 DUP1 PUSH1 0xA0 SHL SUB AND PUSH1 0x0 MSTORE MSTORE PUSH1 0x0 KECCAK256 SLOAD PUSH2 0x3C0A JUMP JUMPDEST DIV SWAP1 JUMP JUMPDEST SWAP1 SWAP5 DUP6 DUP3 DUP2 RETURNDATASIZE DUP4 GT PUSH2 0x3CF8 JUMPI JUMPDEST PUSH2 0x3CE7 DUP2 DUP4 PUSH2 0x3381 JUMP JUMPDEST DUP2 ADD SUB SLT PUSH2 0xE97 JUMPI POP MLOAD SWAP4 CODESIZE PUSH2 0x3C87 JUMP JUMPDEST POP RETURNDATASIZE PUSH2 0x3CDD JUMP JUMPDEST DUP4 MLOAD RETURNDATASIZE PUSH1 0x0 DUP3 RETURNDATACOPY RETURNDATASIZE SWAP1 REVERT JUMPDEST SWAP1 SWAP5 DUP5 DUP3 DUP2 RETURNDATASIZE DUP4 GT PUSH2 0x3D32 JUMPI JUMPDEST PUSH2 0x3D21 DUP2 DUP4 PUSH2 0x3381 JUMP JUMPDEST DUP2 ADD SUB SLT PUSH2 0xE97 JUMPI POP MLOAD SWAP4 CODESIZE PUSH2 0x3C5B JUMP JUMPDEST POP RETURNDATASIZE PUSH2 0x3D17 JUMP JUMPDEST DUP3 MLOAD RETURNDATASIZE PUSH1 0x0 DUP3 RETURNDATACOPY RETURNDATASIZE SWAP1 REVERT JUMPDEST SWAP1 PUSH2 0x3767 SWAP3 PUSH1 0x40 SWAP2 PUSH2 0x3D57 DUP3 DUP3 DUP7 PUSH2 0x3C1D JUMP JUMPDEST PUSH1 0x0 SWAP3 DUP4 MSTORE PUSH1 0x16 PUSH1 0x20 SWAP1 DUP2 MSTORE DUP5 DUP5 KECCAK256 PUSH1 0x1 PUSH1 0x1 PUSH1 0xA0 SHL SUB SWAP7 DUP8 AND DUP6 MSTORE DUP2 MSTORE DUP5 DUP5 KECCAK256 SWAP3 SWAP1 SWAP6 AND DUP4 MSTORE SWAP4 MSTORE KECCAK256 SLOAD SWAP1 PUSH2 0x3723 JUMP JUMPDEST ISZERO PUSH2 0x3D8F JUMPI JUMP JUMPDEST PUSH1 0x40 MLOAD PUSH3 0x461BCD PUSH1 0xE5 SHL DUP2 MSTORE PUSH1 0x20 PUSH1 0x4 DUP3 ADD MSTORE PUSH1 0x18 PUSH1 0x24 DUP3 ADD MSTORE PUSH24 0x444F4553204E4F5420484156452056414C494420524F4C45 PUSH1 0x40 SHL PUSH1 0x44 DUP3 ADD MSTORE PUSH1 0x64 SWAP1 REVERT JUMPDEST ISZERO PUSH2 0x3DD6 JUMPI JUMP JUMPDEST PUSH1 0x40 MLOAD PUSH3 0x461BCD PUSH1 0xE5 SHL DUP2 MSTORE PUSH1 0x20 PUSH1 0x4 DUP3 ADD MSTORE PUSH1 0x15 PUSH1 0x24 DUP3 ADD MSTORE PUSH21 0x416464726573732063616E6E6F742062652030783 PUSH1 0x5C SHL PUSH1 0x44 DUP3 ADD MSTORE PUSH1 0x64 SWAP1 REVERT JUMPDEST PUSH1 0x1 PUSH1 0x1 PUSH1 0xA0 SHL SUB AND PUSH2 0x3E27 DUP2 ISZERO ISZERO PUSH2 0x3DCF JUMP JUMPDEST PUSH1 0x0 MSTORE PUSH1 0x9 PUSH1 0x20 MSTORE PUSH1 0x1 PUSH1 0x40 PUSH1 0x0 KECCAK256 SLOAD AND ISZERO ISZERO SWAP1 JUMP JUMPDEST SWAP1 PUSH1 0xFF SWAP2 DUP3 DUP3 AND ISZERO ISZERO DUP1 PUSH2 0x3E7E JUMPI JUMPDEST PUSH2 0x3E55 SWAP1 PUSH2 0x3D88 JUMP JUMPDEST PUSH1 0x1 PUSH1 0x1 PUSH1 0xA0 SHL SUB AND PUSH2 0x3E69 DUP2 ISZERO ISZERO PUSH2 0x3DCF JUMP JUMPDEST PUSH1 0x0 MSTORE PUSH1 0x9 PUSH1 0x20 MSTORE PUSH1 0x40 PUSH1 0x0 KECCAK256 SLOAD AND AND ISZERO ISZERO SWAP1 JUMP JUMPDEST POP PUSH1 0xF DUP3 DUP2 OR DUP5 AND EQ PUSH2 0x3E4C JUMP JUMPDEST PUSH1 0x1 PUSH1 0x1 PUSH1 0xA0 SHL SUB AND PUSH2 0x3EA0 DUP2 ISZERO ISZERO PUSH2 0x3DCF JUMP JUMPDEST PUSH1 0x0 MSTORE PUSH1 0x9 PUSH1 0x20 MSTORE PUSH1 0x2 PUSH1 0x40 PUSH1 0x0 KECCAK256 SLOAD AND ISZERO ISZERO SWAP1 JUMP JUMPDEST PUSH1 0x1 PUSH1 0x1 PUSH1 0xA0 SHL SUB AND PUSH2 0x3ECA DUP2 ISZERO ISZERO PUSH2 0x3DCF JUMP JUMPDEST PUSH1 0x0 MSTORE PUSH1 0x9 PUSH1 0x20 MSTORE PUSH1 0x4 PUSH1 0x40 PUSH1 0x0 KECCAK256 SLOAD AND ISZERO ISZERO SWAP1 JUMP JUMPDEST PUSH1 0x1 PUSH1 0x1 PUSH1 0xA0 SHL SUB AND PUSH2 0x3EF4 DUP2 ISZERO ISZERO PUSH2 0x3DCF JUMP JUMPDEST PUSH1 0x0 MSTORE PUSH1 0x9 PUSH1 0x20 MSTORE PUSH1 0x8 PUSH1 0x40 PUSH1 0x0 KECCAK256 SLOAD AND ISZERO ISZERO SWAP1 JUMP JUMPDEST ISZERO PUSH2 0x3F11 JUMPI JUMP JUMPDEST PUSH1 0x64 PUSH1 0x40 MLOAD PUSH3 0x461BCD PUSH1 0xE5 SHL DUP2 MSTORE PUSH1 0x20 PUSH1 0x4 DUP3 ADD MSTORE PUSH1 0x20 PUSH1 0x24 DUP3 ADD MSTORE PUSH32 0x444F4553204E4F5420484156452057414C4C4554532041444D494E20524F4C45 PUSH1 0x44 DUP3 ADD MSTORE REVERT JUMPDEST SWAP1 SWAP4 SWAP2 SWAP3 SWAP4 PUSH2 0x3F62 PUSH2 0x3904 JUMP JUMPDEST PUSH1 0xA DUP4 MLOAD GT PUSH2 0x43CA JUMPI PUSH32 0x0 DUP2 LT PUSH2 0x438E JUMPI PUSH1 0x1 PUSH1 0x1 PUSH1 0xA0 SHL SUB DUP3 AND ISZERO PUSH2 0x435A JUMPI PUSH1 0xC SLOAD DUP6 LT ISZERO PUSH2 0x4324 JUMPI PUSH2 0x3FB4 DUP6 PUSH2 0x33A4 JUMP JUMPDEST POP SLOAD DUP2 LT PUSH2 0x42E7 JUMPI PUSH2 0x3FC6 DUP2 ADDRESS PUSH2 0x45F3 JUMP JUMPDEST POP PUSH2 0x3FDE PUSH1 0x1 PUSH2 0x3FD5 DUP8 PUSH2 0x33A4 JUMP JUMPDEST POP ADD SLOAD DUP6 PUSH2 0x34B5 JUMP JUMPDEST PUSH2 0x4008 PUSH32 0x0 TIMESTAMP PUSH2 0x34B5 JUMP JUMPDEST LT PUSH2 0x42A3 JUMPI PUSH2 0x4015 PUSH2 0x440F JUMP JUMPDEST DUP6 DUP2 MSTORE PUSH1 0x20 DUP2 ADD DUP6 DUP2 MSTORE PUSH1 0x60 DUP3 ADD SWAP2 DUP4 DUP4 MSTORE PUSH1 0x1 DUP1 PUSH1 0xA0 SHL SUB DUP6 AND PUSH1 0x0 MSTORE PUSH1 0xD PUSH1 0x20 MSTORE PUSH1 0x40 PUSH1 0x0 KECCAK256 DUP1 SLOAD PUSH1 0x1 PUSH1 0x40 SHL DUP2 LT ISZERO PUSH2 0x3335 JUMPI PUSH2 0x405A SWAP2 PUSH1 0x1 DUP3 ADD DUP2 SSTORE PUSH2 0x3499 JUMP JUMPDEST SWAP4 SWAP1 SWAP4 PUSH2 0x428D JUMPI DUP2 MLOAD DUP5 SSTORE SWAP2 MLOAD PUSH1 0x1 DUP5 ADD SSTORE PUSH1 0x40 DUP2 ADD MLOAD PUSH1 0x2 DUP5 ADD SSTORE SWAP1 MLOAD PUSH1 0x3 DUP4 ADD SSTORE PUSH1 0x80 ADD MLOAD DUP1 MLOAD SWAP2 SWAP1 PUSH1 0x1 PUSH1 0x1 PUSH1 0x40 SHL SUB DUP4 GT PUSH2 0x3335 JUMPI PUSH1 0x1 PUSH1 0x40 SHL DUP4 GT PUSH2 0x3335 JUMPI PUSH1 0x4 DUP3 ADD SLOAD DUP4 PUSH1 0x4 DUP5 ADD SSTORE DUP1 DUP5 LT PUSH2 0x4260 JUMPI JUMPDEST POP PUSH1 0x20 PUSH1 0x4 SWAP2 ADD SWAP2 ADD PUSH1 0x0 MSTORE PUSH1 0x20 PUSH1 0x0 KECCAK256 PUSH1 0x0 JUMPDEST DUP4 DUP2 LT PUSH2 0x4243 JUMPI POP POP POP POP PUSH1 0x1 PUSH1 0x1 PUSH1 0xA0 SHL SUB DUP3 AND PUSH1 0x0 SWAP1 DUP2 MSTORE PUSH1 0xD PUSH1 0x20 MSTORE PUSH1 0x40 SWAP1 KECCAK256 SLOAD PUSH1 0x0 NOT DUP2 ADD SWAP1 DUP2 GT PUSH2 0x34C2 JUMPI DUP4 MLOAD PUSH2 0x4190 JUMPI JUMPDEST PUSH1 0x40 MLOAD SWAP5 PUSH1 0x80 DUP7 ADD SWAP3 DUP7 MSTORE PUSH1 0x20 DUP7 ADD MSTORE PUSH1 0x40 DUP6 ADD MSTORE PUSH1 0x80 PUSH1 0x60 DUP6 ADD MSTORE DUP3 MLOAD DUP1 SWAP2 MSTORE PUSH1 0x20 PUSH1 0xA0 DUP6 ADD SWAP4 ADD SWAP1 PUSH1 0x0 JUMPDEST DUP2 DUP2 LT PUSH2 0x4171 JUMPI POP POP POP PUSH1 0x1 PUSH1 0x1 PUSH1 0xA0 SHL SUB AND SWAP2 CALLER SWAP2 PUSH32 0x8D92942330BB9E8E714A4F66AA3EEFE27F66D05B8AE4B6F6889E5A64A16155BE SWAP2 SWAP1 DUP2 SWAP1 SUB SWAP1 LOG4 PUSH1 0x1 SWAP1 PUSH1 0x1 PUSH1 0xB SSTORE JUMP JUMPDEST DUP3 MLOAD PUSH1 0x1 PUSH1 0x1 PUSH1 0xA0 SHL SUB AND DUP6 MSTORE PUSH1 0x20 SWAP5 DUP6 ADD SWAP5 SWAP1 SWAP3 ADD SWAP2 PUSH1 0x1 ADD PUSH2 0x4129 JUMP JUMPDEST PUSH1 0x1 DUP1 PUSH1 0xA0 SHL SUB DUP4 AND PUSH1 0x0 MSTORE PUSH1 0xD PUSH1 0x20 MSTORE PUSH1 0x4 PUSH2 0x41B1 DUP3 PUSH1 0x40 PUSH1 0x0 KECCAK256 PUSH2 0x3499 JUMP JUMPDEST POP DUP6 MLOAD SWAP2 ADD PUSH1 0x1 PUSH1 0x1 PUSH1 0x40 SHL SUB DUP3 GT PUSH2 0x3335 JUMPI PUSH1 0x1 PUSH1 0x40 SHL DUP3 GT PUSH2 0x3335 JUMPI DUP1 SLOAD DUP3 DUP3 SSTORE DUP1 DUP4 LT PUSH2 0x421A JUMPI JUMPDEST POP PUSH1 0x20 DUP7 ADD SWAP1 PUSH1 0x0 MSTORE PUSH1 0x20 PUSH1 0x0 KECCAK256 PUSH1 0x0 JUMPDEST DUP4 DUP2 LT PUSH2 0x41FD JUMPI POP POP POP POP PUSH2 0x40FC JUMP JUMPDEST DUP3 MLOAD PUSH1 0x1 PUSH1 0x1 PUSH1 0xA0 SHL SUB AND DUP2 DUP4 ADD SSTORE PUSH1 0x20 SWAP1 SWAP3 ADD SWAP2 PUSH1 0x1 ADD PUSH2 0x41ED JUMP JUMPDEST DUP2 PUSH1 0x0 MSTORE DUP3 PUSH1 0x20 PUSH1 0x0 KECCAK256 SWAP2 DUP3 ADD SWAP2 ADD JUMPDEST DUP2 DUP2 LT PUSH2 0x4237 JUMPI POP PUSH2 0x41DC JUMP JUMPDEST PUSH1 0x0 DUP2 SSTORE PUSH1 0x1 ADD PUSH2 0x422A JUMP JUMPDEST DUP3 MLOAD PUSH1 0x1 PUSH1 0x1 PUSH1 0xA0 SHL SUB AND DUP2 DUP4 ADD SSTORE PUSH1 0x20 SWAP1 SWAP3 ADD SWAP2 PUSH1 0x1 ADD PUSH2 0x40C5 JUMP JUMPDEST PUSH1 0x4 DUP4 ADD PUSH1 0x0 MSTORE PUSH1 0x20 PUSH1 0x0 KECCAK256 SWAP1 DUP5 DUP3 ADD JUMPDEST DUP2 DUP4 ADD DUP2 LT PUSH2 0x4281 JUMPI POP POP PUSH2 0x40B1 JUMP JUMPDEST PUSH1 0x0 DUP2 SSTORE PUSH1 0x1 ADD PUSH2 0x4271 JUMP JUMPDEST PUSH4 0x4E487B71 PUSH1 0xE0 SHL PUSH1 0x0 MSTORE PUSH1 0x0 PUSH1 0x4 MSTORE PUSH1 0x24 PUSH1 0x0 REVERT JUMPDEST PUSH1 0x40 MLOAD PUSH3 0x461BCD PUSH1 0xE5 SHL DUP2 MSTORE PUSH1 0x20 PUSH1 0x4 DUP3 ADD MSTORE PUSH1 0x1C PUSH1 0x24 DUP3 ADD MSTORE PUSH28 0x696E697469616C2072656C65617365206F7574206F662072616E6765 PUSH1 0x20 SHL PUSH1 0x44 DUP3 ADD MSTORE PUSH1 0x64 SWAP1 REVERT JUMPDEST PUSH1 0x40 MLOAD PUSH3 0x461BCD PUSH1 0xE5 SHL DUP2 MSTORE PUSH1 0x20 PUSH1 0x4 DUP3 ADD MSTORE PUSH1 0x15 PUSH1 0x24 DUP3 ADD MSTORE PUSH21 0x3C203120746F6B656E207065722072656C65617365 PUSH1 0x58 SHL PUSH1 0x44 DUP3 ADD MSTORE PUSH1 0x64 SWAP1 REVERT JUMPDEST PUSH1 0x40 MLOAD PUSH3 0x461BCD PUSH1 0xE5 SHL DUP2 MSTORE PUSH1 0x20 PUSH1 0x4 DUP3 ADD MSTORE PUSH1 0xE PUSH1 0x24 DUP3 ADD MSTORE PUSH14 0x189859081CD8DA19591D5B195259 PUSH1 0x92 SHL PUSH1 0x44 DUP3 ADD MSTORE PUSH1 0x64 SWAP1 REVERT JUMPDEST PUSH1 0x40 MLOAD PUSH3 0x461BCD PUSH1 0xE5 SHL DUP2 MSTORE PUSH1 0x20 PUSH1 0x4 DUP3 ADD MSTORE PUSH1 0xC PUSH1 0x24 DUP3 ADD MSTORE PUSH12 0x746F20302061646472657373 PUSH1 0xA0 SHL PUSH1 0x44 DUP3 ADD MSTORE PUSH1 0x64 SWAP1 REVERT JUMPDEST PUSH1 0x40 MLOAD PUSH3 0x461BCD PUSH1 0xE5 SHL DUP2 MSTORE PUSH1 0x20 PUSH1 0x4 DUP3 ADD MSTORE PUSH1 0x14 PUSH1 0x24 DUP3 ADD MSTORE PUSH20 0x616D6F756E74203C206D696E2066756E64696E67 PUSH1 0x60 SHL PUSH1 0x44 DUP3 ADD MSTORE PUSH1 0x64 SWAP1 REVERT JUMPDEST PUSH1 0x40 MLOAD PUSH3 0x461BCD PUSH1 0xE5 SHL DUP2 MSTORE PUSH1 0x20 PUSH1 0x4 DUP3 ADD MSTORE PUSH1 0x1E PUSH1 0x24 DUP3 ADD MSTORE PUSH32 0x6D61782031302063616E63656C61626C65427920616464726573736565730000 PUSH1 0x44 DUP3 ADD MSTORE PUSH1 0x64 SWAP1 REVERT JUMPDEST PUSH1 0x40 MLOAD SWAP1 PUSH2 0x441C DUP3 PUSH2 0x334B JUMP JUMPDEST PUSH1 0x60 PUSH1 0x80 DUP4 PUSH1 0x0 DUP2 MSTORE PUSH1 0x0 PUSH1 0x20 DUP3 ADD MSTORE PUSH1 0x0 PUSH1 0x40 DUP3 ADD MSTORE PUSH1 0x0 DUP4 DUP3 ADD MSTORE ADD MSTORE JUMP JUMPDEST PUSH1 0x0 NOT DUP2 EQ PUSH2 0x34C2 JUMPI PUSH1 0x1 ADD SWAP1 JUMP JUMPDEST PUSH1 0x0 JUMPDEST PUSH1 0x4 DUP3 ADD DUP1 SLOAD DUP3 LT ISZERO PUSH2 0x37D0 JUMPI DUP2 PUSH2 0x4466 SWAP2 PUSH2 0x3610 JUMP JUMPDEST SWAP1 SLOAD CALLER PUSH1 0x3 SWAP3 SWAP1 SWAP3 SHL SHR PUSH1 0x1 PUSH1 0x1 PUSH1 0xA0 SHL SUB AND EQ PUSH2 0x4490 JUMPI PUSH2 0x4489 PUSH1 0x4 SWAP2 PUSH2 0x443D JUMP JUMPDEST SWAP1 POP PUSH2 0x444F JUMP JUMPDEST POP POP PUSH1 0x1 SWAP1 JUMP JUMPDEST ISZERO PUSH2 0x449E JUMPI JUMP JUMPDEST PUSH1 0x40 MLOAD PUSH3 0x461BCD PUSH1 0xE5 SHL DUP2 MSTORE PUSH1 0x20 PUSH1 0x4 DUP3 ADD MSTORE PUSH1 0x17 PUSH1 0x24 DUP3 ADD MSTORE PUSH23 0xDAD2E6DAC2E8C6D0CAC840C2E4E4C2F240D8CADCCEE8D PUSH1 0x4B SHL PUSH1 0x44 DUP3 ADD MSTORE PUSH1 0x64 SWAP1 REVERT JUMPDEST SWAP2 SWAP1 DUP2 LT ISZERO PUSH2 0x33C3 JUMPI PUSH1 0x5 SHL ADD SWAP1 JUMP JUMPDEST PUSH2 0x44F7 DUP3 DUP3 PUSH2 0x4B6C JUMP JUMPDEST SWAP1 PUSH1 0x40 PUSH1 0x60 DUP4 ADD MLOAD SWAP3 ADD MLOAD DUP3 GT ISZERO PUSH1 0x0 EQ PUSH2 0x4514 JUMPI POP POP POP PUSH1 0x0 SWAP1 JUMP JUMPDEST PUSH2 0x3767 SWAP3 PUSH2 0x4521 SWAP2 PUSH2 0x4590 JUMP JUMPDEST SWAP1 PUSH2 0x3723 JUMP JUMPDEST PUSH2 0x4531 DUP3 DUP3 PUSH2 0x4B6C JUMP JUMPDEST SWAP1 PUSH1 0x40 PUSH1 0x60 DUP4 ADD MLOAD SWAP3 ADD SWAP2 DUP3 MLOAD LT ISZERO PUSH1 0x0 EQ PUSH2 0x454F JUMPI POP POP POP PUSH1 0x0 SWAP1 JUMP JUMPDEST PUSH2 0x3767 SWAP3 PUSH2 0x455C SWAP2 PUSH2 0x4590 JUMP JUMPDEST SWAP1 MLOAD SWAP1 PUSH2 0x3723 JUMP JUMPDEST SWAP1 PUSH2 0x456E SWAP2 PUSH2 0x4B6C JUMP JUMPDEST PUSH1 0x60 DUP2 ADD MLOAD PUSH1 0x40 SWAP1 SWAP2 ADD MLOAD DUP1 DUP3 GT PUSH2 0x4587 JUMPI POP POP PUSH1 0x0 SWAP1 JUMP JUMPDEST PUSH2 0x3767 SWAP2 PUSH2 0x3723 JUMP JUMPDEST PUSH2 0x3767 SWAP2 PUSH2 0x459D SWAP2 PUSH2 0x4B6C JUMP JUMPDEST PUSH1 0x20 DUP2 ADD MLOAD SWAP1 PUSH1 0x60 DUP2 ADD MLOAD SWAP1 MLOAD SWAP2 TIMESTAMP SWAP1 PUSH2 0x4B29 JUMP JUMPDEST ISZERO PUSH2 0x45B9 JUMPI JUMP JUMPDEST PUSH1 0x40 MLOAD PUSH3 0x461BCD PUSH1 0xE5 SHL DUP2 MSTORE PUSH1 0x20 PUSH1 0x4 DUP3 ADD MSTORE PUSH1 0x12 PUSH1 0x24 DUP3 ADD MSTORE PUSH18 0x496E737566666963656E7420746F6B656E73 PUSH1 0x70 SHL PUSH1 0x44 DUP3 ADD MSTORE PUSH1 0x64 SWAP1 REVERT JUMPDEST SWAP1 PUSH2 0x45FE DUP2 CALLER PUSH2 0x49EB JUMP JUMPDEST PUSH2 0x4614 DUP2 MLOAD SWAP3 PUSH2 0x260F PUSH1 0x20 DUP5 ADD SWAP5 DUP6 MLOAD SWAP1 PUSH2 0x34B5 JUMP JUMPDEST MLOAD DUP1 PUSH2 0x463A JUMPI JUMPDEST POP MLOAD DUP1 PUSH2 0x4629 JUMPI POP POP PUSH1 0x1 SWAP1 JUMP JUMPDEST PUSH2 0x4633 SWAP2 CALLER PUSH2 0x464B JUMP JUMPDEST CODESIZE DUP1 PUSH2 0x4490 JUMP JUMPDEST PUSH2 0x4645 SWAP1 DUP4 ADDRESS PUSH2 0x464B JUMP JUMPDEST CODESIZE PUSH2 0x461B JUMP JUMPDEST SWAP1 SWAP2 PUSH1 0x1 PUSH1 0x1 PUSH1 0xA0 SHL SUB DUP1 DUP4 AND SWAP3 SWAP1 DUP4 ISZERO PUSH2 0x4769 JUMPI DUP5 AND SWAP4 DUP5 ISZERO PUSH2 0x4718 JUMPI PUSH2 0x4675 PUSH2 0x467A SWAP3 PUSH2 0x47BC JUMP JUMPDEST PUSH2 0x47BC JUMP JUMPDEST PUSH1 0x0 DUP3 DUP2 MSTORE DUP1 PUSH1 0x20 MSTORE PUSH1 0x40 DUP2 KECCAK256 SLOAD SWAP2 DUP1 DUP4 LT PUSH2 0x46C4 JUMPI PUSH1 0x40 DUP3 DUP3 PUSH1 0x0 DUP1 MLOAD PUSH1 0x20 PUSH2 0x527C DUP4 CODECOPY DUP2 MLOAD SWAP2 MSTORE SWAP6 DUP8 PUSH1 0x20 SWAP7 MSTORE DUP3 DUP7 MSTORE SUB DUP3 DUP3 KECCAK256 SSTORE DUP7 DUP2 MSTORE KECCAK256 DUP2 DUP2 SLOAD ADD SWAP1 SSTORE PUSH1 0x40 MLOAD SWAP1 DUP2 MSTORE LOG3 JUMP JUMPDEST PUSH1 0x40 MLOAD PUSH3 0x461BCD PUSH1 0xE5 SHL DUP2 MSTORE PUSH1 0x20 PUSH1 0x4 DUP3 ADD MSTORE PUSH1 0x26 PUSH1 0x24 DUP3 ADD MSTORE PUSH32 0x45524332303A207472616E7366657220616D6F756E7420657863656564732062 PUSH1 0x44 DUP3 ADD MSTORE PUSH6 0x616C616E6365 PUSH1 0xD0 SHL PUSH1 0x64 DUP3 ADD MSTORE PUSH1 0x84 SWAP1 REVERT JUMPDEST PUSH1 0x40 MLOAD PUSH3 0x461BCD PUSH1 0xE5 SHL DUP2 MSTORE PUSH1 0x20 PUSH1 0x4 DUP3 ADD MSTORE PUSH1 0x23 PUSH1 0x24 DUP3 ADD MSTORE PUSH32 0x45524332303A207472616E7366657220746F20746865207A65726F2061646472 PUSH1 0x44 DUP3 ADD MSTORE PUSH3 0x657373 PUSH1 0xE8 SHL PUSH1 0x64 DUP3 ADD MSTORE PUSH1 0x84 SWAP1 REVERT JUMPDEST PUSH1 0x40 MLOAD PUSH3 0x461BCD PUSH1 0xE5 SHL DUP2 MSTORE PUSH1 0x20 PUSH1 0x4 DUP3 ADD MSTORE PUSH1 0x25 PUSH1 0x24 DUP3 ADD MSTORE PUSH32 0x45524332303A207472616E736665722066726F6D20746865207A65726F206164 PUSH1 0x44 DUP3 ADD MSTORE PUSH5 0x6472657373 PUSH1 0xD8 SHL PUSH1 0x64 DUP3 ADD MSTORE PUSH1 0x84 SWAP1 REVERT JUMPDEST PUSH1 0x1 PUSH1 0x1 PUSH1 0xA0 SHL SUB DUP2 AND PUSH1 0x0 SWAP1 DUP2 MSTORE PUSH1 0x5 PUSH1 0x20 MSTORE PUSH1 0x40 SWAP1 KECCAK256 SWAP1 PUSH2 0x47DE SWAP1 PUSH2 0x48F2 JUMP JUMPDEST PUSH1 0x8 SLOAD DUP1 PUSH2 0x47EB DUP5 PUSH2 0x48CF JUMP JUMPDEST LT PUSH2 0x47F5 JUMPI POP POP POP JUMP JUMPDEST DUP3 PUSH2 0x4805 PUSH1 0x1 SWAP3 PUSH2 0x39AF SWAP6 PUSH2 0x487F JUMP JUMPDEST ADD PUSH2 0x487F JUMP JUMPDEST PUSH1 0x2 SLOAD PUSH1 0x8 SLOAD SWAP1 DUP2 PUSH2 0x481B PUSH2 0x48A2 JUMP JUMPDEST LT PUSH2 0x4824 JUMPI POP POP JUMP JUMPDEST PUSH1 0x6 SLOAD PUSH1 0x1 PUSH1 0x40 SHL SWAP3 DUP4 DUP3 LT ISZERO PUSH2 0x3335 JUMPI PUSH2 0x4848 DUP3 PUSH1 0x1 PUSH2 0x4861 SWAP5 ADD PUSH1 0x6 SSTORE PUSH2 0x35F5 JUMP JUMPDEST SWAP1 SWAP2 SWAP1 DUP3 SLOAD SWAP1 PUSH1 0x3 SHL SWAP2 DUP3 SHL SWAP2 PUSH1 0x0 NOT SWAP1 SHL NOT AND OR SWAP1 SSTORE JUMP JUMPDEST PUSH1 0x7 SLOAD SWAP2 DUP3 LT ISZERO PUSH2 0x3335 JUMPI PUSH2 0x4848 DUP3 PUSH1 0x1 PUSH2 0x39AF SWAP5 ADD PUSH1 0x7 SSTORE PUSH2 0x35DA JUMP JUMPDEST DUP1 SLOAD SWAP2 SWAP1 PUSH1 0x1 PUSH1 0x40 SHL DUP4 LT ISZERO PUSH2 0x3335 JUMPI DUP3 PUSH2 0x4848 SWAP2 PUSH1 0x1 PUSH2 0x39AF SWAP6 ADD DUP2 SSTORE PUSH2 0x3610 JUMP JUMPDEST PUSH1 0x6 SLOAD DUP1 PUSH2 0x48B0 JUMPI POP PUSH1 0x0 SWAP1 JUMP JUMPDEST PUSH1 0x0 NOT DUP2 ADD SWAP1 DUP2 GT PUSH2 0x34C2 JUMPI PUSH2 0x48C5 SWAP1 PUSH2 0x35F5 JUMP JUMPDEST SWAP1 SLOAD SWAP1 PUSH1 0x3 SHL SHR SWAP1 JUMP JUMPDEST DUP1 SLOAD DUP1 PUSH2 0x48DD JUMPI POP POP PUSH1 0x0 SWAP1 JUMP JUMPDEST PUSH1 0x0 NOT DUP2 ADD SWAP1 DUP2 GT PUSH2 0x34C2 JUMPI PUSH2 0x48C5 SWAP2 PUSH2 0x3610 JUMP JUMPDEST PUSH2 0x3767 SWAP1 PUSH1 0x1 DUP1 PUSH1 0xA0 SHL SUB DUP2 AND PUSH1 0x0 MSTORE PUSH1 0x0 PUSH1 0x20 MSTORE PUSH2 0x18AF PUSH2 0x1AD5 PUSH1 0x40 PUSH1 0x0 KECCAK256 SLOAD PUSH2 0x18AF DUP5 PUSH2 0x496A JUMP JUMPDEST PUSH1 0x0 SWAP1 PUSH1 0x0 SWAP3 DUP4 SWAP3 JUMPDEST PUSH1 0x1 PUSH1 0x1 PUSH1 0xA0 SHL SUB DUP4 AND DUP6 MSTORE PUSH1 0xD PUSH1 0x20 MSTORE PUSH1 0x40 DUP6 KECCAK256 SLOAD DUP5 LT ISZERO PUSH2 0x4963 JUMPI PUSH2 0x495B PUSH2 0x4955 PUSH1 0x40 SWAP3 PUSH2 0x18AF DUP8 DUP8 PUSH2 0x44ED JUMP JUMPDEST SWAP5 PUSH2 0x443D JUMP JUMPDEST SWAP4 SWAP1 POP PUSH2 0x4925 JUMP JUMPDEST SWAP4 POP SWAP2 POP POP JUMP JUMPDEST PUSH1 0x0 SWAP1 PUSH1 0x0 SWAP3 DUP4 SWAP3 JUMPDEST PUSH1 0x1 PUSH1 0x1 PUSH1 0xA0 SHL SUB DUP4 AND DUP6 MSTORE PUSH1 0xD PUSH1 0x20 MSTORE PUSH1 0x40 DUP6 KECCAK256 SLOAD DUP5 LT ISZERO PUSH2 0x4963 JUMPI PUSH2 0x49A3 PUSH2 0x4955 PUSH1 0x40 SWAP3 PUSH2 0x18AF DUP8 DUP8 PUSH2 0x4527 JUMP JUMPDEST SWAP4 SWAP1 POP PUSH2 0x4973 JUMP JUMPDEST ISZERO PUSH2 0x49B2 JUMPI JUMP JUMPDEST PUSH1 0x40 MLOAD PUSH3 0x461BCD PUSH1 0xE5 SHL DUP2 MSTORE PUSH1 0x20 PUSH1 0x4 DUP3 ADD MSTORE PUSH1 0x11 PUSH1 0x24 DUP3 ADD MSTORE PUSH17 0x185B5BDD5B9D080F881D5B9B1BD8DAD959 PUSH1 0x7A SHL PUSH1 0x44 DUP3 ADD MSTORE PUSH1 0x64 SWAP1 REVERT JUMPDEST SWAP2 SWAP1 PUSH1 0x40 SWAP3 DUP4 MLOAD SWAP1 PUSH2 0x49FC DUP3 PUSH2 0x3366 JUMP JUMPDEST DUP5 CALLDATASIZE DUP4 CALLDATACOPY DUP2 SWAP3 PUSH1 0x1 DUP1 PUSH1 0xA0 SHL SUB DUP3 AND SWAP4 PUSH1 0x0 SWAP3 DUP6 DUP5 MSTORE PUSH1 0x20 SWAP2 DUP5 DUP4 MSTORE PUSH2 0x4A2C DUP5 PUSH2 0xD4B DUP12 DUP9 KECCAK256 SLOAD PUSH2 0x18AF DUP7 PUSH2 0x496A JUMP JUMPDEST DUP4 SWAP1 DUP6 JUMPDEST DUP9 DUP8 MSTORE PUSH1 0xD DUP1 DUP7 MSTORE DUP12 DUP9 KECCAK256 DUP1 SLOAD DUP4 LT ISZERO PUSH2 0x4B14 JUMPI SWAP1 DUP9 PUSH1 0x3 PUSH2 0x4A6E DUP16 DUP7 SWAP1 DUP16 SWAP7 DUP3 PUSH2 0x4A5A SWAP2 PUSH2 0x3499 JUMP JUMPDEST POP SWAP7 PUSH1 0x2 DUP1 SWAP9 ADD SLOAD SWAP6 MSTORE DUP6 DUP13 MSTORE DUP14 KECCAK256 PUSH2 0x3499 JUMP JUMPDEST POP ADD SLOAD SUB PUSH2 0x4A86 JUMPI POP POP PUSH2 0x4A81 SWAP1 PUSH2 0x443D JUMP JUMPDEST PUSH2 0x4A30 JUMP JUMPDEST SWAP1 SWAP2 SWAP3 SWAP4 PUSH2 0x4A94 DUP5 DUP8 PUSH2 0x4527 JUMP JUMPDEST DUP2 GT ISZERO PUSH2 0x4AE5 JUMPI PUSH2 0x4ADE PUSH2 0x4A81 SWAP4 PUSH2 0x4AD4 DUP16 SWAP7 DUP10 SWAP9 SWAP8 DUP16 SWAP7 DUP3 SWAP8 DUP16 SWAP8 DUP5 PUSH2 0x4AC3 PUSH2 0x4AC9 SWAP3 DUP16 DUP4 PUSH2 0x4521 SWAP2 PUSH2 0x4527 JUMP JUMPDEST SWAP14 PUSH2 0x4527 JUMP JUMPDEST SWAP8 MSTORE DUP13 MSTORE DUP14 KECCAK256 PUSH2 0x3499 JUMP JUMPDEST POP ADD SWAP2 DUP3 SLOAD PUSH2 0x34B5 JUMP JUMPDEST SWAP1 SSTORE PUSH2 0x443D JUMP JUMPDEST SWAP5 POP SWAP2 PUSH2 0x4B05 SWAP4 SWAP12 PUSH2 0x4AD4 SWAP3 SWAP4 PUSH2 0x4B0E SWAP9 SWAP12 DUP11 SWAP9 SWAP12 SWAP11 MSTORE DUP11 MSTORE DUP7 KECCAK256 PUSH2 0x3499 JUMP JUMPDEST SWAP1 SSTORE DUP1 SWAP5 PUSH2 0x3723 JUMP JUMPDEST DUP2 MSTORE ADD MSTORE JUMP JUMPDEST POP POP POP SWAP9 POP SWAP6 POP POP SWAP3 SWAP2 POP DUP4 PUSH2 0x4B0E SWAP2 PUSH2 0x3723 JUMP JUMPDEST SWAP2 SWAP1 PUSH2 0x4B37 PUSH2 0x3767 SWAP5 PUSH2 0x33A4 JUMP JUMPDEST POP SWAP3 PUSH1 0x3 PUSH1 0x40 MLOAD SWAP5 PUSH2 0x4B48 DUP7 PUSH2 0x331A JUMP JUMPDEST DUP1 SLOAD DUP7 MSTORE PUSH1 0x1 DUP2 ADD SLOAD PUSH1 0x20 DUP8 ADD MSTORE PUSH1 0x2 DUP2 ADD SLOAD PUSH1 0x40 DUP8 ADD MSTORE ADD SLOAD PUSH1 0x60 DUP6 ADD MSTORE PUSH2 0x4C22 JUMP JUMPDEST SWAP1 PUSH2 0x4B75 PUSH2 0x440F JUMP JUMPDEST POP PUSH1 0x1 DUP1 PUSH1 0xA0 SHL SUB DUP1 SWAP3 AND PUSH1 0x0 MSTORE PUSH2 0x4B97 PUSH1 0x20 SWAP2 PUSH1 0xD DUP4 MSTORE PUSH1 0x40 PUSH1 0x0 KECCAK256 PUSH2 0x3499 JUMP JUMPDEST POP SWAP1 PUSH1 0x40 MLOAD SWAP3 PUSH2 0x4BA6 DUP5 PUSH2 0x334B JUMP JUMPDEST DUP3 SLOAD DUP5 MSTORE PUSH1 0x4 PUSH1 0x1 SWAP4 DUP5 DUP2 ADD SLOAD DUP5 DUP8 ADD MSTORE PUSH1 0x2 DUP2 ADD SLOAD PUSH1 0x40 DUP8 ADD MSTORE PUSH1 0x3 DUP2 ADD SLOAD PUSH1 0x60 DUP8 ADD MSTORE ADD PUSH1 0x40 MLOAD SWAP4 DUP5 DUP6 SWAP4 DUP6 DUP5 SLOAD SWAP3 DUP4 DUP2 MSTORE ADD SWAP4 PUSH1 0x0 MSTORE DUP6 PUSH1 0x0 KECCAK256 SWAP6 PUSH1 0x0 SWAP2 JUMPDEST DUP4 DUP4 LT PUSH2 0x4C08 JUMPI POP POP POP POP POP PUSH2 0x4C00 SWAP3 POP SUB DUP3 PUSH2 0x3381 JUMP JUMPDEST PUSH1 0x80 DUP3 ADD MSTORE SWAP1 JUMP JUMPDEST DUP8 SLOAD DUP2 AND DUP7 MSTORE SWAP7 DUP5 ADD SWAP7 DUP9 SWAP7 POP SWAP5 DUP2 ADD SWAP5 SWAP2 DUP5 ADD SWAP2 PUSH2 0x4BE8 JUMP JUMPDEST SWAP2 SWAP1 PUSH2 0x3767 SWAP4 SWAP2 DUP3 MLOAD SWAP1 PUSH1 0x20 DUP5 ADD MLOAD SWAP3 PUSH1 0x60 PUSH1 0x40 DUP7 ADD MLOAD SWAP6 ADD MLOAD SWAP6 JUMPDEST SWAP6 SWAP2 SWAP3 SWAP4 SWAP1 PUSH1 0x0 SWAP7 DUP2 DUP2 GT PUSH2 0x4CFF JUMPI PUSH2 0x4C56 SWAP2 PUSH2 0x3723 JUMP JUMPDEST SWAP5 PUSH1 0x0 NOT DUP6 ADD SWAP5 DUP6 GT PUSH2 0x34C2 JUMPI PUSH2 0x4C76 PUSH2 0x4C70 DUP7 DUP6 PUSH2 0x3C0A JUMP JUMPDEST DUP4 PUSH2 0x34B5 JUMP JUMPDEST DUP7 LT ISZERO PUSH2 0x4CF5 JUMPI DUP2 DUP7 LT ISZERO PUSH2 0x4C8F JUMPI JUMPDEST POP POP POP POP POP POP SWAP1 JUMP JUMPDEST DUP4 SWAP5 SWAP6 SWAP7 POP PUSH2 0x4CA3 SWAP1 PUSH2 0x2710 SWAP3 SWAP4 SWAP5 PUSH2 0x3C0A JUMP JUMPDEST DIV SWAP5 DUP3 PUSH2 0x4CB0 DUP4 DUP4 PUSH2 0x3723 JUMP JUMPDEST LT ISZERO PUSH2 0x4CBD JUMPI JUMPDEST DUP1 PUSH2 0x4C86 JUMP JUMPDEST SWAP3 PUSH2 0x4CE6 DUP7 PUSH2 0x4CE0 PUSH2 0x4CEB SWAP9 SWAP8 SWAP6 PUSH2 0x4CDB PUSH2 0x4CDB SWAP7 PUSH2 0x18AF SWAP10 PUSH2 0x3723 JUMP JUMPDEST PUSH2 0x384E JUMP JUMPDEST SWAP3 PUSH2 0x3723 JUMP JUMPDEST PUSH2 0x3C0A JUMP JUMPDEST CODESIZE DUP1 DUP1 DUP1 DUP1 PUSH2 0x4CB7 JUMP JUMPDEST POP POP POP SWAP3 POP POP POP SWAP1 JUMP JUMPDEST POP POP POP POP POP POP POP POP PUSH1 0x0 SWAP1 JUMP JUMPDEST ISZERO PUSH2 0x3B6F JUMPI POP JUMP JUMPDEST SWAP2 PUSH2 0x4D21 SWAP2 PUSH1 0x24 SWAP4 PUSH2 0x4DCD JUMP JUMPDEST PUSH1 0xF SLOAD PUSH1 0x40 MLOAD PUSH4 0x7D8E7D1B PUSH1 0xE0 SHL DUP2 MSTORE PUSH1 0xFF DUP4 AND PUSH1 0x4 DUP3 ADD MSTORE SWAP3 PUSH1 0x20 SWAP2 DUP5 SWAP2 SWAP1 DUP3 SWAP1 PUSH1 0x8 SHR PUSH1 0x1 PUSH1 0x1 PUSH1 0xA0 SHL SUB AND GAS STATICCALL SWAP1 DUP2 ISZERO PUSH2 0x4DA8 JUMPI PUSH2 0x39AF SWAP3 PUSH1 0x0 SWAP3 PUSH2 0x4D74 JUMPI JUMPDEST POP PUSH2 0x4D6E SWAP1 PUSH2 0x4EAD JUMP JUMPDEST SWAP1 PUSH2 0x4D0C JUMP JUMPDEST PUSH2 0x4D6E SWAP2 SWAP3 POP PUSH2 0x4D9A SWAP1 PUSH1 0x20 RETURNDATASIZE DUP2 GT PUSH2 0x4DA1 JUMPI JUMPDEST PUSH2 0x4D92 DUP2 DUP4 PUSH2 0x3381 JUMP JUMPDEST DUP2 ADD SWAP1 PUSH2 0x39CC JUMP JUMPDEST SWAP2 SWAP1 PUSH2 0x4D64 JUMP JUMPDEST POP RETURNDATASIZE PUSH2 0x4D88 JUMP JUMPDEST PUSH1 0x40 MLOAD RETURNDATASIZE PUSH1 0x0 DUP3 RETURNDATACOPY RETURNDATASIZE SWAP1 REVERT JUMPDEST SWAP1 DUP2 PUSH1 0x20 SWAP2 SUB SLT PUSH2 0x3263 JUMPI MLOAD PUSH1 0xFF DUP2 AND DUP2 SUB PUSH2 0x3263 JUMPI SWAP1 JUMP JUMPDEST PUSH1 0xF SLOAD PUSH1 0x40 MLOAD PUSH4 0xCFDB31A9 PUSH1 0xE0 SHL DUP2 MSTORE ADDRESS PUSH1 0x4 DUP3 ADD MSTORE PUSH1 0x1 PUSH1 0x1 PUSH1 0xA0 SHL SUB SWAP3 DUP4 AND PUSH1 0x24 DUP3 ADD MSTORE SWAP3 DUP3 AND PUSH1 0x44 DUP5 ADD MSTORE PUSH1 0x64 DUP4 ADD SWAP4 SWAP1 SWAP4 MSTORE SWAP1 SWAP2 PUSH1 0x20 SWAP2 DUP4 SWAP2 PUSH1 0x84 SWAP2 DUP4 SWAP2 PUSH1 0x8 SHR AND GAS STATICCALL SWAP1 DUP2 ISZERO PUSH2 0x4DA8 JUMPI PUSH1 0x0 SWAP2 PUSH2 0x4E27 JUMPI POP SWAP1 JUMP JUMPDEST PUSH2 0x3767 SWAP2 POP PUSH1 0x20 RETURNDATASIZE DUP2 GT PUSH2 0x4E48 JUMPI JUMPDEST PUSH2 0x4E40 DUP2 DUP4 PUSH2 0x3381 JUMP JUMPDEST DUP2 ADD SWAP1 PUSH2 0x4DB4 JUMP JUMPDEST POP RETURNDATASIZE PUSH2 0x4E36 JUMP JUMPDEST PUSH1 0x20 DUP2 DUP4 SUB SLT PUSH2 0x3263 JUMPI DUP1 MLOAD SWAP1 PUSH1 0x1 PUSH1 0x1 PUSH1 0x40 SHL SUB DUP3 GT PUSH2 0x3263 JUMPI ADD DUP2 PUSH1 0x1F DUP3 ADD SLT ISZERO PUSH2 0x3263 JUMPI DUP1 MLOAD PUSH2 0x4E81 DUP2 PUSH2 0x39B1 JUMP JUMPDEST SWAP3 PUSH2 0x4E8F PUSH1 0x40 MLOAD SWAP5 DUP6 PUSH2 0x3381 JUMP JUMPDEST DUP2 DUP5 MSTORE PUSH1 0x20 DUP3 DUP5 ADD ADD GT PUSH2 0x3263 JUMPI PUSH2 0x3767 SWAP2 PUSH1 0x20 DUP1 DUP6 ADD SWAP2 ADD PUSH2 0x31FE JUMP JUMPDEST PUSH1 0xF SLOAD PUSH1 0x40 MLOAD PUSH4 0x7F4AB1DD PUSH1 0xE0 SHL DUP2 MSTORE PUSH1 0xFF SWAP3 SWAP1 SWAP3 AND PUSH1 0x4 DUP4 ADD MSTORE PUSH1 0x0 SWAP1 DUP3 SWAP1 PUSH1 0x24 SWAP1 DUP3 SWAP1 PUSH1 0x8 SHR PUSH1 0x1 PUSH1 0x1 PUSH1 0xA0 SHL SUB AND GAS STATICCALL SWAP1 DUP2 ISZERO PUSH2 0x4DA8 JUMPI PUSH1 0x0 SWAP2 PUSH2 0x4EF2 JUMPI POP SWAP1 JUMP JUMPDEST PUSH2 0x3767 SWAP2 RETURNDATASIZE DUP1 SWAP2 DUP4 RETURNDATACOPY PUSH2 0x15E3 DUP2 DUP4 PUSH2 0x3381 JUMP JUMPDEST ISZERO PUSH2 0x4F0C JUMPI JUMP JUMPDEST PUSH1 0x40 MLOAD PUSH3 0x461BCD PUSH1 0xE5 SHL DUP2 MSTORE PUSH1 0x20 PUSH1 0x4 DUP3 ADD MSTORE PUSH1 0x21 PUSH1 0x24 DUP3 ADD MSTORE PUSH32 0x444F4553204E4F542048415645205452414E534645522041444D494E20524F4C PUSH1 0x44 DUP3 ADD MSTORE PUSH1 0x45 PUSH1 0xF8 SHL PUSH1 0x64 DUP3 ADD MSTORE PUSH1 0x84 SWAP1 REVERT JUMPDEST ISZERO PUSH2 0x4F62 JUMPI JUMP JUMPDEST PUSH1 0x64 PUSH1 0x40 MLOAD PUSH3 0x461BCD PUSH1 0xE5 SHL DUP2 MSTORE PUSH1 0x20 PUSH1 0x4 DUP3 ADD MSTORE PUSH1 0x20 PUSH1 0x24 DUP3 ADD MSTORE PUSH32 0x444F4553204E4F54204841564520524553455256452041444D494E20524F4C45 PUSH1 0x44 DUP3 ADD MSTORE REVERT JUMPDEST SWAP1 DUP2 MSTORE PUSH1 0x1 PUSH1 0x1 PUSH1 0xA0 SHL SUB SWAP2 DUP3 AND PUSH1 0x20 DUP3 ADD MSTORE PUSH1 0x40 DUP2 ADD SWAP3 SWAP1 SWAP3 MSTORE SWAP2 DUP3 AND PUSH1 0x60 DUP3 ADD MSTORE SWAP2 AND PUSH1 0x80 DUP3 ADD MSTORE PUSH1 0xA0 DUP2 ADD SWAP2 SWAP1 SWAP2 MSTORE PUSH1 0xC0 ADD SWAP1 JUMP JUMPDEST ISZERO PUSH2 0x4FE5 JUMPI JUMP JUMPDEST PUSH1 0x40 MLOAD PUSH3 0x461BCD PUSH1 0xE5 SHL DUP2 MSTORE PUSH1 0x20 PUSH1 0x4 DUP3 ADD MSTORE PUSH1 0x10 PUSH1 0x24 DUP3 ADD MSTORE PUSH16 0x105B1C9958591E4818D85B98D95B1959 PUSH1 0x82 SHL PUSH1 0x44 DUP3 ADD MSTORE PUSH1 0x64 SWAP1 REVERT JUMPDEST ISZERO PUSH2 0x5024 JUMPI JUMP JUMPDEST PUSH1 0x40 MLOAD PUSH3 0x461BCD PUSH1 0xE5 SHL DUP2 MSTORE PUSH1 0x20 PUSH1 0x4 DUP3 ADD MSTORE PUSH1 0x11 PUSH1 0x24 DUP3 ADD MSTORE PUSH17 0x105B1C9958591E4818DBDB5C1B195D1959 PUSH1 0x7A SHL PUSH1 0x44 DUP3 ADD MSTORE PUSH1 0x64 SWAP1 REVERT JUMPDEST ISZERO PUSH2 0x5064 JUMPI JUMP JUMPDEST PUSH1 0x40 MLOAD PUSH3 0x461BCD PUSH1 0xE5 SHL DUP2 MSTORE PUSH1 0x20 PUSH1 0x4 DUP3 ADD MSTORE PUSH1 0x32 PUSH1 0x24 DUP3 ADD MSTORE PUSH32 0x596F7520617265206E6F7420617070726F70726961746520746F6B656E207365 PUSH1 0x44 DUP3 ADD MSTORE PUSH18 0x6E64657220666F722074686973207377617 PUSH1 0x74 SHL PUSH1 0x64 DUP3 ADD MSTORE PUSH1 0x84 SWAP1 REVERT JUMPDEST ISZERO PUSH2 0x50CB JUMPI JUMP JUMPDEST PUSH1 0x40 MLOAD PUSH3 0x461BCD PUSH1 0xE5 SHL DUP2 MSTORE PUSH1 0x20 PUSH1 0x4 DUP3 ADD MSTORE PUSH1 0x39 PUSH1 0x24 DUP3 ADD MSTORE PUSH32 0x4465706F73697420726576657274656420666F7220696E636F72726563742072 PUSH1 0x44 DUP3 ADD MSTORE PUSH25 0x195CDD5B1D081BD98819195C1BDCDA5D195908185B5BDD5B9D PUSH1 0x3A SHL PUSH1 0x64 DUP3 ADD MSTORE PUSH1 0x84 SWAP1 REVERT JUMPDEST ISZERO PUSH2 0x5139 JUMPI JUMP JUMPDEST PUSH1 0x40 MLOAD PUSH3 0x461BCD PUSH1 0xE5 SHL DUP2 MSTORE PUSH1 0x20 PUSH1 0x4 DUP3 ADD MSTORE PUSH1 0x1B PUSH1 0x24 DUP3 ADD MSTORE PUSH27 0x151A1A5CC81CDDD85C081A5CC81B9BDD0818DBDB999A59DD5C9959 PUSH1 0x2A SHL PUSH1 0x44 DUP3 ADD MSTORE PUSH1 0x64 SWAP1 REVERT JUMPDEST ISZERO PUSH2 0x5183 JUMPI JUMP JUMPDEST PUSH1 0x40 MLOAD PUSH3 0x461BCD PUSH1 0xE5 SHL DUP2 MSTORE PUSH1 0x20 PUSH1 0x4 DUP3 ADD MSTORE PUSH1 0x2A PUSH1 0x24 DUP3 ADD MSTORE PUSH32 0x4F6E6C79207377617020636F6E666967757261746F722063616E2063616E6365 PUSH1 0x44 DUP3 ADD MSTORE PUSH10 0x6C20746865207377617 PUSH1 0xB4 SHL PUSH1 0x64 DUP3 ADD MSTORE PUSH1 0x84 SWAP1 REVERT INVALID 0x49 PUSH15 0x76616C696420726573747269637465 PUSH5 0x20746F6B65 PUSH15 0x20616D6F756E74000D7FD1E314B294 SMOD 0xDB RETURNDATASIZE PUSH26 0xC46ECF1FA3D2108961FAB8D20584277358CAC41E89AF8133D280 0xA9 0x24 0x1F PUSH4 0x94046FAF PUSH1 0x2E LOG0 MSIZE ORIGIN DUP11 PUSH21 0x3BABFFF788F98718CCD680730765AAF231B09368F0 PUSH28 0x83425559B145D7D386B1FF8F16C157A2FF2C7B9896FE839A27E1D719 SWAP13 CREATE2 0xAC 0xE0 0xE4 0xC2 SWAP9 PUSH2 0x1BD5 SELFDESTRUCT 0x22 0xB7 DUP3 0xDF 0xCE SWAP3 0xA7 INVALID INVALID 0xBF GT SWAP15 0xC5 PUSH24 0x8EDDF252AD1BE2C89B69C2B068FC378DAA952BA7F163C4A1 AND 0x28 CREATE2 GAS 0x4D CREATE2 0x23 0xB3 0xEF CALLCODE SGT 0xAA PREVRANDAO JUMPI CODECOPY 0xB8 0xD5 0xBB MLOAD 0x4C 0x5E BALANCE TIMESTAMP INVALID SGT 0xBA 0xAC STATICCALL SWAP10 SGT EQ OR 0x2C 0xEA 0xF7 JUMP SWAP10 PUSH3 0x59B8B3 PUSH31 0x9E87D17FBF2950F3379A6331B75B6E997A147BBD3EAEDC68C30C62186C68CB LOG1 PUSH5 0x736F6C6343 STOP ADDMOD EQ STOP EXP 0xDD CALLCODE MSTORE 0xAD SHL 0xE2 0xC8 SWAP12 PUSH10 0xC2B068FC378DAA952BA7 CALL PUSH4 0xC4A11628 CREATE2 GAS 0x4D CREATE2 0x23 0xB3 0xEF "},"methodIdentifiers":{"_decimals()":"32424aa3","allowance(address,address)":"dd62ed3e","approve(address,uint256)":"095ea7b3","balanceOf(address)":"70a08231","balanceOfAt(address,uint256)":"4ee2cd7e","balanceOfTimelock(address,uint256)":"ad061e25","batchFundReleaseSchedule(address[],uint256[],uint256[],uint256[],address[])":"b7ed4785","burn(address,uint256)":"9dc29fac","calculateUnlocked(uint256,uint256,uint256,(uint256,uint256,uint256,uint256))":"5f7c5377","calculateUnlocked(uint256,uint256,uint256,uint256)":"96305c89","calculateUnlocked(uint256,uint256,uint256,uint256,uint256,uint256,uint256)":"90fc7e91","cancelSell(uint256)":"07c9cd45","cancelTimelock(address,uint256,uint256,uint256,uint256,address)":"0f8ad1b4","claimDividend(address,uint256)":"5247ab05","claimedBalanceAt(address,address,uint256)":"809c1875","completeSwapWithPaymentToken(uint256)":"976475d0","completeSwapWithRestrictedToken(uint256)":"c0779ded","configureBuy(uint256,address,address,uint256)":"2a3bf534","configureSell(uint256,address,address,uint256)":"8fbe818a","contractAdminCount()":"8e64eac5","createReleaseSchedule(uint256,uint256,uint256,uint256)":"21bb56d7","decimals()":"313ce567","decreaseAllowance(address,uint256)":"a457c2d7","detectTransferRestriction(address,address,uint256)":"d4ce1415","enforceTransferRestrictions(address,address,uint256)":"2beafc89","freeze(address,bool)":"bf120ae5","fundDividend(address,uint256,uint256)":"ecd158cf","fundReleaseSchedule(address,uint256,uint256,uint256,address[])":"8e4f11ff","fundsAt(address,uint256)":"1d36f08b","getAllowGroupTransferTime(uint256,uint256)":"3c637d74","getAllowTransferTime(address,address)":"40dc95c5","getCurrentSnapshotId()":"5439ad86","getFrozenStatus(address)":"fc96f7d8","getMaxBalance(address)":"c63aa521","getTransferGroup(address)":"db74fa36","grantRole(address,uint8)":"3e840236","hasRole(address,uint8)":"95a8c58d","increaseAllowance(address,uint256)":"39509351","isPaused()":"b187bd26","lockedAmountOf(address)":"8b9d6899","lockedAmountOfTimelock(address,uint256)":"7d7b368b","maxReleaseDelay()":"14cf86eb","maxTotalSupply()":"2ab4d052","messageForTransferRestriction(uint8)":"7f4ab1dd","minTimelockAmount()":"370de043","mint(address,uint256)":"40c10f19","name()":"06fdde03","pause()":"8456cb59","releaseSchedules(uint256)":"6aea0d2e","revokeRole(address,uint8)":"077d3c03","safeApprove(address,uint256)":"fbc6d1cb","scheduleCount()":"b7ef81e1","setAddressPermissions(address,uint256,uint256,uint256,bool)":"45d11299","setAllowGroupTransfer(uint256,uint256,uint256)":"e98a0c64","setMaxBalance(address,uint256)":"8d56cc9c","setTransferGroup(address,uint256)":"64ca0ac3","snapshot()":"9711715a","swapNumber()":"8648c6a6","swapStatus(uint256)":"0872512b","symbol()":"95d89b41","timelockBalanceOf(address)":"6968f8b3","timelockCountOf(address)":"b30bfa3d","timelockOf(address,uint256)":"82074ac2","timelocks(address,uint256)":"ea612ae8","tokenPrecisionDivider()":"4e2b3035","tokensAt(address,uint256)":"593b6439","tokensBalanceOf(address)":"350724a9","totalAwardedBalanceAt(address,address,uint256)":"a2e26616","totalSupply()":"18160ddd","totalSupplyAt(uint256)":"981b24d0","totalUnlockedToDateOfTimelock(address,uint256)":"0c815103","transfer(address,uint256)":"a9059cbb","transferFrom(address,address,uint256)":"23b872dd","transferRules()":"ceca46c2","transferTimelock(address,uint256,uint256)":"a9b1f051","unclaimedBalanceAt(address,address,uint256)":"6ec9d56f","unlockedAmountOf(address)":"a742c88e","unlockedAmountOfTimelock(address,uint256)":"f0658198","unlockedBalanceOf(address)":"84955c88","unpause()":"3f4ba83a","upgradeTransferRules(address)":"dfb7300e","withdrawalRemains(address,uint256)":"57656cfe"}}}}}