{
  "_format": "hh-sol-artifact-1",
  "contractName": "RestrictedLockupToken",
  "sourceName": "contracts/security-token/RestrictedLockupToken.sol",
  "abi": [
    {
      "inputs": [
        {
          "internalType": "address",
          "name": "transferRules_",
          "type": "address"
        },
        {
          "internalType": "address",
          "name": "contractAdmin_",
          "type": "address"
        },
        {
          "internalType": "address",
          "name": "tokenReserveAdmin_",
          "type": "address"
        },
        {
          "internalType": "string",
          "name": "symbol_",
          "type": "string"
        },
        {
          "internalType": "string",
          "name": "name_",
          "type": "string"
        },
        {
          "internalType": "uint8",
          "name": "decimals_",
          "type": "uint8"
        },
        {
          "internalType": "uint256",
          "name": "totalSupply_",
          "type": "uint256"
        },
        {
          "internalType": "uint256",
          "name": "maxTotalSupply_",
          "type": "uint256"
        },
        {
          "internalType": "uint256",
          "name": "_minTimelockAmount",
          "type": "uint256"
        },
        {
          "internalType": "uint256",
          "name": "_maxReleaseDelay",
          "type": "uint256"
        }
      ],
      "stateMutability": "nonpayable",
      "type": "constructor"
    },
    {
      "anonymous": false,
      "inputs": [
        {
          "indexed": true,
          "internalType": "address",
          "name": "admin",
          "type": "address"
        },
        {
          "indexed": true,
          "internalType": "address",
          "name": "addr",
          "type": "address"
        },
        {
          "indexed": true,
          "internalType": "bool",
          "name": "status",
          "type": "bool"
        }
      ],
      "name": "AddressFrozen",
      "type": "event"
    },
    {
      "anonymous": false,
      "inputs": [
        {
          "indexed": true,
          "internalType": "address",
          "name": "admin",
          "type": "address"
        },
        {
          "indexed": true,
          "internalType": "address",
          "name": "addr",
          "type": "address"
        },
        {
          "indexed": true,
          "internalType": "uint256",
          "name": "value",
          "type": "uint256"
        }
      ],
      "name": "AddressMaxBalance",
      "type": "event"
    },
    {
      "anonymous": false,
      "inputs": [
        {
          "indexed": true,
          "internalType": "address",
          "name": "admin",
          "type": "address"
        },
        {
          "indexed": true,
          "internalType": "address",
          "name": "addr",
          "type": "address"
        },
        {
          "indexed": true,
          "internalType": "uint256",
          "name": "value",
          "type": "uint256"
        }
      ],
      "name": "AddressTransferGroup",
      "type": "event"
    },
    {
      "anonymous": false,
      "inputs": [
        {
          "indexed": true,
          "internalType": "address",
          "name": "admin",
          "type": "address"
        },
        {
          "indexed": true,
          "internalType": "uint256",
          "name": "fromGroup",
          "type": "uint256"
        },
        {
          "indexed": true,
          "internalType": "uint256",
          "name": "toGroup",
          "type": "uint256"
        },
        {
          "indexed": false,
          "internalType": "uint256",
          "name": "lockedUntil",
          "type": "uint256"
        }
      ],
      "name": "AllowGroupTransfer",
      "type": "event"
    },
    {
      "anonymous": false,
      "inputs": [
        {
          "indexed": true,
          "internalType": "address",
          "name": "owner",
          "type": "address"
        },
        {
          "indexed": true,
          "internalType": "address",
          "name": "spender",
          "type": "address"
        },
        {
          "indexed": false,
          "internalType": "uint256",
          "name": "value",
          "type": "uint256"
        }
      ],
      "name": "Approval",
      "type": "event"
    },
    {
      "anonymous": false,
      "inputs": [
        {
          "indexed": false,
          "internalType": "address",
          "name": "admin",
          "type": "address"
        },
        {
          "indexed": false,
          "internalType": "bool",
          "name": "status",
          "type": "bool"
        }
      ],
      "name": "Pause",
      "type": "event"
    },
    {
      "anonymous": false,
      "inputs": [
        {
          "indexed": true,
          "internalType": "address",
          "name": "grantor",
          "type": "address"
        },
        {
          "indexed": true,
          "internalType": "address",
          "name": "grantee",
          "type": "address"
        },
        {
          "indexed": false,
          "internalType": "uint8",
          "name": "role",
          "type": "uint8"
        },
        {
          "indexed": true,
          "internalType": "bool",
          "name": "status",
          "type": "bool"
        }
      ],
      "name": "RoleChange",
      "type": "event"
    },
    {
      "anonymous": false,
      "inputs": [
        {
          "indexed": true,
          "internalType": "address",
          "name": "from",
          "type": "address"
        },
        {
          "indexed": true,
          "internalType": "uint256",
          "name": "scheduleId",
          "type": "uint256"
        }
      ],
      "name": "ScheduleCreated",
      "type": "event"
    },
    {
      "anonymous": false,
      "inputs": [
        {
          "indexed": true,
          "internalType": "address",
          "name": "from",
          "type": "address"
        },
        {
          "indexed": true,
          "internalType": "address",
          "name": "to",
          "type": "address"
        },
        {
          "indexed": true,
          "internalType": "uint256",
          "name": "scheduleId",
          "type": "uint256"
        },
        {
          "indexed": false,
          "internalType": "uint256",
          "name": "amount",
          "type": "uint256"
        },
        {
          "indexed": false,
          "internalType": "uint256",
          "name": "commencementTimestamp",
          "type": "uint256"
        },
        {
          "indexed": false,
          "internalType": "uint256",
          "name": "timelockId",
          "type": "uint256"
        },
        {
          "indexed": false,
          "internalType": "address[]",
          "name": "cancelableBy",
          "type": "address[]"
        }
      ],
      "name": "ScheduleFunded",
      "type": "event"
    },
    {
      "anonymous": false,
      "inputs": [
        {
          "indexed": false,
          "internalType": "uint256",
          "name": "id",
          "type": "uint256"
        }
      ],
      "name": "Snapshot",
      "type": "event"
    },
    {
      "anonymous": false,
      "inputs": [
        {
          "indexed": true,
          "internalType": "address",
          "name": "canceledBy",
          "type": "address"
        },
        {
          "indexed": true,
          "internalType": "address",
          "name": "target",
          "type": "address"
        },
        {
          "indexed": true,
          "internalType": "uint256",
          "name": "timelockIndex",
          "type": "uint256"
        },
        {
          "indexed": false,
          "internalType": "address",
          "name": "relaimTokenTo",
          "type": "address"
        },
        {
          "indexed": false,
          "internalType": "uint256",
          "name": "canceledAmount",
          "type": "uint256"
        },
        {
          "indexed": false,
          "internalType": "uint256",
          "name": "paidAmount",
          "type": "uint256"
        }
      ],
      "name": "TimelockCanceled",
      "type": "event"
    },
    {
      "anonymous": false,
      "inputs": [
        {
          "indexed": true,
          "internalType": "address",
          "name": "from",
          "type": "address"
        },
        {
          "indexed": true,
          "internalType": "address",
          "name": "to",
          "type": "address"
        },
        {
          "indexed": false,
          "internalType": "uint256",
          "name": "value",
          "type": "uint256"
        }
      ],
      "name": "Transfer",
      "type": "event"
    },
    {
      "anonymous": false,
      "inputs": [
        {
          "indexed": false,
          "internalType": "address",
          "name": "admin",
          "type": "address"
        },
        {
          "indexed": false,
          "internalType": "address",
          "name": "oldRules",
          "type": "address"
        },
        {
          "indexed": false,
          "internalType": "address",
          "name": "newRules",
          "type": "address"
        }
      ],
      "name": "Upgrade",
      "type": "event"
    },
    {
      "inputs": [],
      "name": "_decimals",
      "outputs": [
        {
          "internalType": "uint8",
          "name": "",
          "type": "uint8"
        }
      ],
      "stateMutability": "view",
      "type": "function"
    },
    {
      "inputs": [
        {
          "internalType": "address",
          "name": "owner",
          "type": "address"
        },
        {
          "internalType": "address",
          "name": "spender",
          "type": "address"
        }
      ],
      "name": "allowance",
      "outputs": [
        {
          "internalType": "uint256",
          "name": "",
          "type": "uint256"
        }
      ],
      "stateMutability": "view",
      "type": "function"
    },
    {
      "inputs": [
        {
          "internalType": "address",
          "name": "spender",
          "type": "address"
        },
        {
          "internalType": "uint256",
          "name": "amount",
          "type": "uint256"
        }
      ],
      "name": "approve",
      "outputs": [
        {
          "internalType": "bool",
          "name": "",
          "type": "bool"
        }
      ],
      "stateMutability": "nonpayable",
      "type": "function"
    },
    {
      "inputs": [
        {
          "internalType": "address",
          "name": "who",
          "type": "address"
        }
      ],
      "name": "balanceOf",
      "outputs": [
        {
          "internalType": "uint256",
          "name": "",
          "type": "uint256"
        }
      ],
      "stateMutability": "view",
      "type": "function"
    },
    {
      "inputs": [
        {
          "internalType": "address",
          "name": "account",
          "type": "address"
        },
        {
          "internalType": "uint256",
          "name": "snapshotId",
          "type": "uint256"
        }
      ],
      "name": "balanceOfAt",
      "outputs": [
        {
          "internalType": "uint256",
          "name": "",
          "type": "uint256"
        }
      ],
      "stateMutability": "view",
      "type": "function"
    },
    {
      "inputs": [
        {
          "internalType": "address",
          "name": "who",
          "type": "address"
        },
        {
          "internalType": "uint256",
          "name": "timelockIndex",
          "type": "uint256"
        }
      ],
      "name": "balanceOfTimelock",
      "outputs": [
        {
          "internalType": "uint256",
          "name": "",
          "type": "uint256"
        }
      ],
      "stateMutability": "view",
      "type": "function"
    },
    {
      "inputs": [
        {
          "internalType": "address[]",
          "name": "to",
          "type": "address[]"
        },
        {
          "internalType": "uint256[]",
          "name": "amounts",
          "type": "uint256[]"
        },
        {
          "internalType": "uint256[]",
          "name": "commencementTimestamps",
          "type": "uint256[]"
        },
        {
          "internalType": "uint256[]",
          "name": "scheduleIds",
          "type": "uint256[]"
        },
        {
          "internalType": "address[]",
          "name": "cancelableBy",
          "type": "address[]"
        }
      ],
      "name": "batchFundReleaseSchedule",
      "outputs": [
        {
          "internalType": "bool",
          "name": "success",
          "type": "bool"
        }
      ],
      "stateMutability": "nonpayable",
      "type": "function"
    },
    {
      "inputs": [
        {
          "internalType": "address",
          "name": "from",
          "type": "address"
        },
        {
          "internalType": "uint256",
          "name": "value",
          "type": "uint256"
        }
      ],
      "name": "burn",
      "outputs": [],
      "stateMutability": "nonpayable",
      "type": "function"
    },
    {
      "inputs": [
        {
          "internalType": "uint256",
          "name": "commencedTimestamp",
          "type": "uint256"
        },
        {
          "internalType": "uint256",
          "name": "currentTimestamp",
          "type": "uint256"
        },
        {
          "internalType": "uint256",
          "name": "amount",
          "type": "uint256"
        },
        {
          "components": [
            {
              "internalType": "uint256",
              "name": "releaseCount",
              "type": "uint256"
            },
            {
              "internalType": "uint256",
              "name": "delayUntilFirstReleaseInSeconds",
              "type": "uint256"
            },
            {
              "internalType": "uint256",
              "name": "initialReleasePortionInBips",
              "type": "uint256"
            },
            {
              "internalType": "uint256",
              "name": "periodBetweenReleasesInSeconds",
              "type": "uint256"
            }
          ],
          "internalType": "struct RestrictedLockupToken.ReleaseSchedule",
          "name": "releaseSchedule",
          "type": "tuple"
        }
      ],
      "name": "calculateUnlocked",
      "outputs": [
        {
          "internalType": "uint256",
          "name": "unlocked",
          "type": "uint256"
        }
      ],
      "stateMutability": "pure",
      "type": "function"
    },
    {
      "inputs": [
        {
          "internalType": "uint256",
          "name": "commencedTimestamp",
          "type": "uint256"
        },
        {
          "internalType": "uint256",
          "name": "currentTimestamp",
          "type": "uint256"
        },
        {
          "internalType": "uint256",
          "name": "amount",
          "type": "uint256"
        },
        {
          "internalType": "uint256",
          "name": "releaseCount",
          "type": "uint256"
        },
        {
          "internalType": "uint256",
          "name": "delayUntilFirstReleaseInSeconds",
          "type": "uint256"
        },
        {
          "internalType": "uint256",
          "name": "initialReleasePortionInBips",
          "type": "uint256"
        },
        {
          "internalType": "uint256",
          "name": "periodBetweenReleasesInSeconds",
          "type": "uint256"
        }
      ],
      "name": "calculateUnlocked",
      "outputs": [
        {
          "internalType": "uint256",
          "name": "unlocked",
          "type": "uint256"
        }
      ],
      "stateMutability": "pure",
      "type": "function"
    },
    {
      "inputs": [
        {
          "internalType": "uint256",
          "name": "commencedTimestamp",
          "type": "uint256"
        },
        {
          "internalType": "uint256",
          "name": "currentTimestamp",
          "type": "uint256"
        },
        {
          "internalType": "uint256",
          "name": "amount",
          "type": "uint256"
        },
        {
          "internalType": "uint256",
          "name": "scheduleId",
          "type": "uint256"
        }
      ],
      "name": "calculateUnlocked",
      "outputs": [
        {
          "internalType": "uint256",
          "name": "unlocked",
          "type": "uint256"
        }
      ],
      "stateMutability": "view",
      "type": "function"
    },
    {
      "inputs": [
        {
          "internalType": "address",
          "name": "target",
          "type": "address"
        },
        {
          "internalType": "uint256",
          "name": "timelockIndex",
          "type": "uint256"
        },
        {
          "internalType": "uint256",
          "name": "scheduleId",
          "type": "uint256"
        },
        {
          "internalType": "uint256",
          "name": "commencementTimestamp",
          "type": "uint256"
        },
        {
          "internalType": "uint256",
          "name": "totalAmount",
          "type": "uint256"
        },
        {
          "internalType": "address",
          "name": "reclaimTokenTo",
          "type": "address"
        }
      ],
      "name": "cancelTimelock",
      "outputs": [
        {
          "internalType": "bool",
          "name": "success",
          "type": "bool"
        }
      ],
      "stateMutability": "nonpayable",
      "type": "function"
    },
    {
      "inputs": [],
      "name": "contractAdminCount",
      "outputs": [
        {
          "internalType": "uint8",
          "name": "",
          "type": "uint8"
        }
      ],
      "stateMutability": "view",
      "type": "function"
    },
    {
      "inputs": [
        {
          "internalType": "uint256",
          "name": "releaseCount",
          "type": "uint256"
        },
        {
          "internalType": "uint256",
          "name": "delayUntilFirstReleaseInSeconds",
          "type": "uint256"
        },
        {
          "internalType": "uint256",
          "name": "initialReleasePortionInBips",
          "type": "uint256"
        },
        {
          "internalType": "uint256",
          "name": "periodBetweenReleasesInSeconds",
          "type": "uint256"
        }
      ],
      "name": "createReleaseSchedule",
      "outputs": [
        {
          "internalType": "uint256",
          "name": "unlockScheduleId",
          "type": "uint256"
        }
      ],
      "stateMutability": "nonpayable",
      "type": "function"
    },
    {
      "inputs": [],
      "name": "decimals",
      "outputs": [
        {
          "internalType": "uint8",
          "name": "",
          "type": "uint8"
        }
      ],
      "stateMutability": "view",
      "type": "function"
    },
    {
      "inputs": [
        {
          "internalType": "address",
          "name": "spender",
          "type": "address"
        },
        {
          "internalType": "uint256",
          "name": "subtractedValue",
          "type": "uint256"
        }
      ],
      "name": "decreaseAllowance",
      "outputs": [
        {
          "internalType": "bool",
          "name": "",
          "type": "bool"
        }
      ],
      "stateMutability": "nonpayable",
      "type": "function"
    },
    {
      "inputs": [
        {
          "internalType": "address",
          "name": "from",
          "type": "address"
        },
        {
          "internalType": "address",
          "name": "to",
          "type": "address"
        },
        {
          "internalType": "uint256",
          "name": "value",
          "type": "uint256"
        }
      ],
      "name": "detectTransferRestriction",
      "outputs": [
        {
          "internalType": "uint8",
          "name": "",
          "type": "uint8"
        }
      ],
      "stateMutability": "view",
      "type": "function"
    },
    {
      "inputs": [
        {
          "internalType": "address",
          "name": "from",
          "type": "address"
        },
        {
          "internalType": "address",
          "name": "to",
          "type": "address"
        },
        {
          "internalType": "uint256",
          "name": "value",
          "type": "uint256"
        }
      ],
      "name": "enforceTransferRestrictions",
      "outputs": [],
      "stateMutability": "view",
      "type": "function"
    },
    {
      "inputs": [
        {
          "internalType": "address",
          "name": "addr",
          "type": "address"
        },
        {
          "internalType": "bool",
          "name": "status",
          "type": "bool"
        }
      ],
      "name": "freeze",
      "outputs": [],
      "stateMutability": "nonpayable",
      "type": "function"
    },
    {
      "inputs": [
        {
          "internalType": "address",
          "name": "to",
          "type": "address"
        },
        {
          "internalType": "uint256",
          "name": "amount",
          "type": "uint256"
        },
        {
          "internalType": "uint256",
          "name": "commencementTimestamp",
          "type": "uint256"
        },
        {
          "internalType": "uint256",
          "name": "scheduleId",
          "type": "uint256"
        },
        {
          "internalType": "address[]",
          "name": "cancelableBy",
          "type": "address[]"
        }
      ],
      "name": "fundReleaseSchedule",
      "outputs": [
        {
          "internalType": "bool",
          "name": "success",
          "type": "bool"
        }
      ],
      "stateMutability": "nonpayable",
      "type": "function"
    },
    {
      "inputs": [
        {
          "internalType": "uint256",
          "name": "from",
          "type": "uint256"
        },
        {
          "internalType": "uint256",
          "name": "to",
          "type": "uint256"
        }
      ],
      "name": "getAllowGroupTransferTime",
      "outputs": [
        {
          "internalType": "uint256",
          "name": "timestamp",
          "type": "uint256"
        }
      ],
      "stateMutability": "view",
      "type": "function"
    },
    {
      "inputs": [
        {
          "internalType": "address",
          "name": "from",
          "type": "address"
        },
        {
          "internalType": "address",
          "name": "to",
          "type": "address"
        }
      ],
      "name": "getAllowTransferTime",
      "outputs": [
        {
          "internalType": "uint256",
          "name": "timestamp",
          "type": "uint256"
        }
      ],
      "stateMutability": "view",
      "type": "function"
    },
    {
      "inputs": [],
      "name": "getCurrentSnapshotId",
      "outputs": [
        {
          "internalType": "uint256",
          "name": "",
          "type": "uint256"
        }
      ],
      "stateMutability": "view",
      "type": "function"
    },
    {
      "inputs": [
        {
          "internalType": "address",
          "name": "addr",
          "type": "address"
        }
      ],
      "name": "getFrozenStatus",
      "outputs": [
        {
          "internalType": "bool",
          "name": "status",
          "type": "bool"
        }
      ],
      "stateMutability": "view",
      "type": "function"
    },
    {
      "inputs": [
        {
          "internalType": "address",
          "name": "addr",
          "type": "address"
        }
      ],
      "name": "getMaxBalance",
      "outputs": [
        {
          "internalType": "uint256",
          "name": "",
          "type": "uint256"
        }
      ],
      "stateMutability": "view",
      "type": "function"
    },
    {
      "inputs": [
        {
          "internalType": "address",
          "name": "addr",
          "type": "address"
        }
      ],
      "name": "getTransferGroup",
      "outputs": [
        {
          "internalType": "uint256",
          "name": "groupID",
          "type": "uint256"
        }
      ],
      "stateMutability": "view",
      "type": "function"
    },
    {
      "inputs": [
        {
          "internalType": "address",
          "name": "addr",
          "type": "address"
        },
        {
          "internalType": "uint8",
          "name": "role",
          "type": "uint8"
        }
      ],
      "name": "grantRole",
      "outputs": [],
      "stateMutability": "nonpayable",
      "type": "function"
    },
    {
      "inputs": [
        {
          "internalType": "address",
          "name": "addr",
          "type": "address"
        },
        {
          "internalType": "uint8",
          "name": "role",
          "type": "uint8"
        }
      ],
      "name": "hasRole",
      "outputs": [
        {
          "internalType": "bool",
          "name": "",
          "type": "bool"
        }
      ],
      "stateMutability": "view",
      "type": "function"
    },
    {
      "inputs": [
        {
          "internalType": "address",
          "name": "spender",
          "type": "address"
        },
        {
          "internalType": "uint256",
          "name": "addedValue",
          "type": "uint256"
        }
      ],
      "name": "increaseAllowance",
      "outputs": [
        {
          "internalType": "bool",
          "name": "",
          "type": "bool"
        }
      ],
      "stateMutability": "nonpayable",
      "type": "function"
    },
    {
      "inputs": [],
      "name": "isPaused",
      "outputs": [
        {
          "internalType": "bool",
          "name": "",
          "type": "bool"
        }
      ],
      "stateMutability": "view",
      "type": "function"
    },
    {
      "inputs": [
        {
          "internalType": "address",
          "name": "who",
          "type": "address"
        }
      ],
      "name": "lockedAmountOf",
      "outputs": [
        {
          "internalType": "uint256",
          "name": "amount",
          "type": "uint256"
        }
      ],
      "stateMutability": "view",
      "type": "function"
    },
    {
      "inputs": [
        {
          "internalType": "address",
          "name": "who",
          "type": "address"
        },
        {
          "internalType": "uint256",
          "name": "timelockIndex",
          "type": "uint256"
        }
      ],
      "name": "lockedAmountOfTimelock",
      "outputs": [
        {
          "internalType": "uint256",
          "name": "locked",
          "type": "uint256"
        }
      ],
      "stateMutability": "view",
      "type": "function"
    },
    {
      "inputs": [],
      "name": "maxReleaseDelay",
      "outputs": [
        {
          "internalType": "uint256",
          "name": "",
          "type": "uint256"
        }
      ],
      "stateMutability": "view",
      "type": "function"
    },
    {
      "inputs": [],
      "name": "maxTotalSupply",
      "outputs": [
        {
          "internalType": "uint256",
          "name": "",
          "type": "uint256"
        }
      ],
      "stateMutability": "view",
      "type": "function"
    },
    {
      "inputs": [
        {
          "internalType": "uint8",
          "name": "restrictionCode",
          "type": "uint8"
        }
      ],
      "name": "messageForTransferRestriction",
      "outputs": [
        {
          "internalType": "string",
          "name": "",
          "type": "string"
        }
      ],
      "stateMutability": "view",
      "type": "function"
    },
    {
      "inputs": [],
      "name": "minTimelockAmount",
      "outputs": [
        {
          "internalType": "uint256",
          "name": "",
          "type": "uint256"
        }
      ],
      "stateMutability": "view",
      "type": "function"
    },
    {
      "inputs": [
        {
          "internalType": "address",
          "name": "to",
          "type": "address"
        },
        {
          "internalType": "uint256",
          "name": "value",
          "type": "uint256"
        }
      ],
      "name": "mint",
      "outputs": [],
      "stateMutability": "nonpayable",
      "type": "function"
    },
    {
      "inputs": [],
      "name": "name",
      "outputs": [
        {
          "internalType": "string",
          "name": "",
          "type": "string"
        }
      ],
      "stateMutability": "view",
      "type": "function"
    },
    {
      "inputs": [],
      "name": "pause",
      "outputs": [],
      "stateMutability": "nonpayable",
      "type": "function"
    },
    {
      "inputs": [
        {
          "internalType": "uint256",
          "name": "",
          "type": "uint256"
        }
      ],
      "name": "releaseSchedules",
      "outputs": [
        {
          "internalType": "uint256",
          "name": "releaseCount",
          "type": "uint256"
        },
        {
          "internalType": "uint256",
          "name": "delayUntilFirstReleaseInSeconds",
          "type": "uint256"
        },
        {
          "internalType": "uint256",
          "name": "initialReleasePortionInBips",
          "type": "uint256"
        },
        {
          "internalType": "uint256",
          "name": "periodBetweenReleasesInSeconds",
          "type": "uint256"
        }
      ],
      "stateMutability": "view",
      "type": "function"
    },
    {
      "inputs": [
        {
          "internalType": "address",
          "name": "addr",
          "type": "address"
        },
        {
          "internalType": "uint8",
          "name": "role",
          "type": "uint8"
        }
      ],
      "name": "revokeRole",
      "outputs": [],
      "stateMutability": "nonpayable",
      "type": "function"
    },
    {
      "inputs": [
        {
          "internalType": "address",
          "name": "spender",
          "type": "address"
        },
        {
          "internalType": "uint256",
          "name": "value",
          "type": "uint256"
        }
      ],
      "name": "safeApprove",
      "outputs": [],
      "stateMutability": "nonpayable",
      "type": "function"
    },
    {
      "inputs": [],
      "name": "scheduleCount",
      "outputs": [
        {
          "internalType": "uint256",
          "name": "count",
          "type": "uint256"
        }
      ],
      "stateMutability": "view",
      "type": "function"
    },
    {
      "inputs": [
        {
          "internalType": "address",
          "name": "addr",
          "type": "address"
        },
        {
          "internalType": "uint256",
          "name": "groupID",
          "type": "uint256"
        },
        {
          "internalType": "uint256",
          "name": "lockedBalanceUntil",
          "type": "uint256"
        },
        {
          "internalType": "uint256",
          "name": "maxBalance",
          "type": "uint256"
        },
        {
          "internalType": "bool",
          "name": "status",
          "type": "bool"
        }
      ],
      "name": "setAddressPermissions",
      "outputs": [],
      "stateMutability": "nonpayable",
      "type": "function"
    },
    {
      "inputs": [
        {
          "internalType": "uint256",
          "name": "from",
          "type": "uint256"
        },
        {
          "internalType": "uint256",
          "name": "to",
          "type": "uint256"
        },
        {
          "internalType": "uint256",
          "name": "lockedUntil",
          "type": "uint256"
        }
      ],
      "name": "setAllowGroupTransfer",
      "outputs": [],
      "stateMutability": "nonpayable",
      "type": "function"
    },
    {
      "inputs": [
        {
          "internalType": "address",
          "name": "addr",
          "type": "address"
        },
        {
          "internalType": "uint256",
          "name": "updatedValue",
          "type": "uint256"
        }
      ],
      "name": "setMaxBalance",
      "outputs": [],
      "stateMutability": "nonpayable",
      "type": "function"
    },
    {
      "inputs": [
        {
          "internalType": "address",
          "name": "addr",
          "type": "address"
        },
        {
          "internalType": "uint256",
          "name": "groupID",
          "type": "uint256"
        }
      ],
      "name": "setTransferGroup",
      "outputs": [],
      "stateMutability": "nonpayable",
      "type": "function"
    },
    {
      "inputs": [],
      "name": "snapshot",
      "outputs": [
        {
          "internalType": "uint256",
          "name": "",
          "type": "uint256"
        }
      ],
      "stateMutability": "nonpayable",
      "type": "function"
    },
    {
      "inputs": [],
      "name": "symbol",
      "outputs": [
        {
          "internalType": "string",
          "name": "",
          "type": "string"
        }
      ],
      "stateMutability": "view",
      "type": "function"
    },
    {
      "inputs": [
        {
          "internalType": "address",
          "name": "who",
          "type": "address"
        }
      ],
      "name": "timelockBalanceOf",
      "outputs": [
        {
          "internalType": "uint256",
          "name": "",
          "type": "uint256"
        }
      ],
      "stateMutability": "view",
      "type": "function"
    },
    {
      "inputs": [
        {
          "internalType": "address",
          "name": "who",
          "type": "address"
        }
      ],
      "name": "timelockCountOf",
      "outputs": [
        {
          "internalType": "uint256",
          "name": "",
          "type": "uint256"
        }
      ],
      "stateMutability": "view",
      "type": "function"
    },
    {
      "inputs": [
        {
          "internalType": "address",
          "name": "who",
          "type": "address"
        },
        {
          "internalType": "uint256",
          "name": "index",
          "type": "uint256"
        }
      ],
      "name": "timelockOf",
      "outputs": [
        {
          "components": [
            {
              "internalType": "uint256",
              "name": "scheduleId",
              "type": "uint256"
            },
            {
              "internalType": "uint256",
              "name": "commencementTimestamp",
              "type": "uint256"
            },
            {
              "internalType": "uint256",
              "name": "tokensTransferred",
              "type": "uint256"
            },
            {
              "internalType": "uint256",
              "name": "totalAmount",
              "type": "uint256"
            },
            {
              "internalType": "address[]",
              "name": "cancelableBy",
              "type": "address[]"
            }
          ],
          "internalType": "struct RestrictedLockupToken.Timelock",
          "name": "timelock",
          "type": "tuple"
        }
      ],
      "stateMutability": "view",
      "type": "function"
    },
    {
      "inputs": [
        {
          "internalType": "address",
          "name": "",
          "type": "address"
        },
        {
          "internalType": "uint256",
          "name": "",
          "type": "uint256"
        }
      ],
      "name": "timelocks",
      "outputs": [
        {
          "internalType": "uint256",
          "name": "scheduleId",
          "type": "uint256"
        },
        {
          "internalType": "uint256",
          "name": "commencementTimestamp",
          "type": "uint256"
        },
        {
          "internalType": "uint256",
          "name": "tokensTransferred",
          "type": "uint256"
        },
        {
          "internalType": "uint256",
          "name": "totalAmount",
          "type": "uint256"
        }
      ],
      "stateMutability": "view",
      "type": "function"
    },
    {
      "inputs": [
        {
          "internalType": "address",
          "name": "who",
          "type": "address"
        }
      ],
      "name": "tokensBalanceOf",
      "outputs": [
        {
          "internalType": "uint256",
          "name": "",
          "type": "uint256"
        }
      ],
      "stateMutability": "view",
      "type": "function"
    },
    {
      "inputs": [],
      "name": "totalSupply",
      "outputs": [
        {
          "internalType": "uint256",
          "name": "",
          "type": "uint256"
        }
      ],
      "stateMutability": "view",
      "type": "function"
    },
    {
      "inputs": [
        {
          "internalType": "uint256",
          "name": "snapshotId",
          "type": "uint256"
        }
      ],
      "name": "totalSupplyAt",
      "outputs": [
        {
          "internalType": "uint256",
          "name": "",
          "type": "uint256"
        }
      ],
      "stateMutability": "view",
      "type": "function"
    },
    {
      "inputs": [
        {
          "internalType": "address",
          "name": "who",
          "type": "address"
        },
        {
          "internalType": "uint256",
          "name": "timelockIndex",
          "type": "uint256"
        }
      ],
      "name": "totalUnlockedToDateOfTimelock",
      "outputs": [
        {
          "internalType": "uint256",
          "name": "total",
          "type": "uint256"
        }
      ],
      "stateMutability": "view",
      "type": "function"
    },
    {
      "inputs": [
        {
          "internalType": "address",
          "name": "recipient",
          "type": "address"
        },
        {
          "internalType": "uint256",
          "name": "amount",
          "type": "uint256"
        }
      ],
      "name": "transfer",
      "outputs": [
        {
          "internalType": "bool",
          "name": "",
          "type": "bool"
        }
      ],
      "stateMutability": "nonpayable",
      "type": "function"
    },
    {
      "inputs": [
        {
          "internalType": "address",
          "name": "sender",
          "type": "address"
        },
        {
          "internalType": "address",
          "name": "recipient",
          "type": "address"
        },
        {
          "internalType": "uint256",
          "name": "amount",
          "type": "uint256"
        }
      ],
      "name": "transferFrom",
      "outputs": [
        {
          "internalType": "bool",
          "name": "",
          "type": "bool"
        }
      ],
      "stateMutability": "nonpayable",
      "type": "function"
    },
    {
      "inputs": [],
      "name": "transferRules",
      "outputs": [
        {
          "internalType": "contract ITransferRules",
          "name": "",
          "type": "address"
        }
      ],
      "stateMutability": "view",
      "type": "function"
    },
    {
      "inputs": [
        {
          "internalType": "address",
          "name": "to",
          "type": "address"
        },
        {
          "internalType": "uint256",
          "name": "value",
          "type": "uint256"
        },
        {
          "internalType": "uint256",
          "name": "timelockId",
          "type": "uint256"
        }
      ],
      "name": "transferTimelock",
      "outputs": [
        {
          "internalType": "bool",
          "name": "",
          "type": "bool"
        }
      ],
      "stateMutability": "nonpayable",
      "type": "function"
    },
    {
      "inputs": [
        {
          "internalType": "address",
          "name": "who",
          "type": "address"
        }
      ],
      "name": "unlockedAmountOf",
      "outputs": [
        {
          "internalType": "uint256",
          "name": "amount",
          "type": "uint256"
        }
      ],
      "stateMutability": "view",
      "type": "function"
    },
    {
      "inputs": [
        {
          "internalType": "address",
          "name": "who",
          "type": "address"
        },
        {
          "internalType": "uint256",
          "name": "timelockIndex",
          "type": "uint256"
        }
      ],
      "name": "unlockedAmountOfTimelock",
      "outputs": [
        {
          "internalType": "uint256",
          "name": "unlocked",
          "type": "uint256"
        }
      ],
      "stateMutability": "view",
      "type": "function"
    },
    {
      "inputs": [
        {
          "internalType": "address",
          "name": "who",
          "type": "address"
        }
      ],
      "name": "unlockedBalanceOf",
      "outputs": [
        {
          "internalType": "uint256",
          "name": "",
          "type": "uint256"
        }
      ],
      "stateMutability": "view",
      "type": "function"
    },
    {
      "inputs": [],
      "name": "unpause",
      "outputs": [],
      "stateMutability": "nonpayable",
      "type": "function"
    },
    {
      "inputs": [
        {
          "internalType": "contract ITransferRules",
          "name": "newTransferRules",
          "type": "address"
        }
      ],
      "name": "upgradeTransferRules",
      "outputs": [],
      "stateMutability": "nonpayable",
      "type": "function"
    }
  ],
  "bytecode": "0x60c060409080825234620007ef5762004b4f803803809162000022828562000810565b833981019161014082840312620007ef576200003e8262000834565b916200004d6020820162000834565b6200005a83830162000834565b60608301519093906001600160401b038111620007ef57866200007f91850162000849565b608084015190966001600160401b038211620007ef57620000a291850162000849565b60a08401519560ff87168703620007ef5760c08501519360e086015161012061010088015197015193805160018060401b038111620006c65760035491600183811c93168015620007e4575b6020841014620007ce578190601f9384811162000777575b50602090848311600114620006e857600092620006dc575b50508160011b916000199060031b1c1916176003555b8a51906001600160401b038211620006c65760049b8c54600181811c91168015620006bb575b6020821014620006a657908183859493116200064d575b506020918311600114620005e257600092620005d6575b50508160011b916000199060031b1c1916178a555b6001600b556015805460ff19908116909155926001600160a01b039283821615620005875783169283156200053a578916998a15620004e55760ff600f54911691610100600160a81b039060081b169060018060a81b0319161717600f55601055600052600960205282600020600182825416179055600181600a541617600a55866000526002836000209182549060ff8216911617179055600560205281600020936000602052826000205497600097885b81600052600d60205285600020548a101562000290576200028262000289916200027b8c8c62000abd565b90620008c0565b99620009c3565b9862000250565b620002a0908b99979899620008c0565b96600098895b83600052600d60205287600020548b1015620002df57620002d1620002d8916200027b8d8c620009d3565b9a620009c3565b99620002a6565b620002eb908a620008c0565b60085480620002fa846200099c565b10620004c2575b50505060025460085480620003156200096b565b10620003df575b505060008051602062004b2f83398151915260208262000341600094600254620008c0565b6002558484528382528884208181540190558851908152a381156200039c575060805260a05251613e1e908162000d1182396080518181816117de0152612adb015260a051818181611a6d01528181611ce00152612b510152f35b606490602085519162461bcd60e51b8352820152601760248201527f4d696e2074696d656c6f636b20616d6f756e74203e20300000000000000000006044820152fd5b60065490680100000000000000009182811015620004ad57906200040e826001620004279401600655620008e4565b90919082549060031b91821b91600019901b1916179055565b6007549081101562000498576001810180600755811015620004835760076000527fa66cc928b5edb82af9bd49922954155ab7b0942694bea4ce44661d9a8736c688015560008051602062004b2f83398151915260206200031c565b603285634e487b7160e01b6000525260246000fd5b604185634e487b7160e01b6000525260246000fd5b604187634e487b7160e01b6000525260246000fd5b82620004d5600192620004dc956200092f565b016200092f565b86808062000301565b865162461bcd60e51b81526020818e0152602960248201527f546f6b656e20726573657276652061646d696e20616464726573732063616e6e60448201526806f74206265203078360bc1b6064820152608490fd5b865162461bcd60e51b81526020818e0152602160248201527f546f6b656e206f776e657220616464726573732063616e6e6f742062652030786044820152600360fc1b6064820152608490fd5b865162461bcd60e51b81526020818e01526024808201527f5472616e736665722072756c657320616464726573732063616e6e6f742062656044820152630203078360e41b6064820152608490fd5b01519050388062000188565b60008e8152602081209350601f198516905b8181106200063457509084600195949392106200061a575b505050811b018a556200019d565b015160001960f88460031b161c191690553880806200060c565b92936020600181928786015181550195019301620005f4565b909192508d60005260206000208380860160051c820192602087106200069c575b94869594939291940160051c01905b8181106200068c575062000171565b600081558594506001016200067d565b925081926200066e565b60228e634e487b7160e01b6000525260246000fd5b90607f16906200015a565b634e487b7160e01b600052604160045260246000fd5b0151905038806200011e565b6003600090815293507fc2575a0e9e593c00f959f8c92f12db2869c3395a3b0502d05e2516446f71f85b91905b601f19841685106200075b576001945083601f1981161062000741575b505050811b0160035562000134565b015160001960f88460031b161c1916905538808062000732565b8181015183556020948501946001909301929091019062000715565b909150600360005260206000208480850160051c82019260208610620007c4575b9085949392910160051c01905b818110620007b4575062000106565b60008155849350600101620007a5565b9250819262000798565b634e487b7160e01b600052602260045260246000fd5b92607f1692620000ee565b600080fd5b60a081019081106001600160401b03821117620006c657604052565b601f909101601f19168101906001600160401b03821190821017620006c657604052565b51906001600160a01b0382168203620007ef57565b919080601f84011215620007ef578251906001600160401b038211620006c6576040519160209162000885601f8301601f191684018562000810565b818452828287010111620007ef5760005b818110620008ac57508260009394955001015290565b858101830151848201840152820162000896565b91908201809211620008ce57565b634e487b7160e01b600052601160045260246000fd5b6006548110156200090057600660005260206000200190600090565b634e487b7160e01b600052603260045260246000fd5b8054821015620009005760005260206000200190600090565b9081549168010000000000000000831015620006c657826200040e9160016200095b9501815562000916565b565b91908203918211620008ce57565b600654806200097a5750600090565b6000198101908111620008ce576200099290620008e4565b90549060031b1c90565b805480620009ab575050600090565b6000198101908111620008ce57620009929162000916565b6000198114620008ce5760010190565b620009df828262000b01565b9060406060830151920151821115600014620009fd57505050600090565b62000a149262000a0d9162000a17565b906200095d565b90565b9062000a239162000b01565b602081015160608201519151600c548110156200090057600c600052604051608081019260029290921b7fdf6966c971051c3d54ec59162606531493a51404a002842f56009d7e5cf4a8c701916001600160401b03841182851017620006c65762000a1494606094604052835491828452600185015493846020820152600360028701549687604084015201549687910152429062000c27565b62000ac9828262000b01565b90604060608301519201918251101560001462000ae857505050600090565b62000a149262000af89162000a17565b9051906200095d565b6040805162000b1081620007f4565b60009384825260606080602093878582015287868201528783820152015260018060a01b038094168552600d8252828520805482101562000bde57855281852083519593916005020162000b6486620007f4565b80548652600460019182810154858901526002810154848901526003810154606089015201915180958487958554938481520194875280872096915b83831062000bc357505050505062000bbb9250038262000810565b608082015290565b87548116865296840196889650948101949184019162000ba0565b634e487b7160e01b86526032600452602486fd5b81810292918115918404141715620008ce57565b811562000c11570490565b634e487b7160e01b600052601260045260246000fd5b959192939060009681811162000d035762000c42916200095d565b946000198501948511620008ce5762000c6762000c60868562000bf2565b83620008c0565b86101562000cf9578186101562000c82575b50505050505090565b839495965062000c989061271092939462000bf2565b04948262000ca783836200095d565b101562000cb6575b8062000c79565b9262000ce88662000ce162000cee98979562000cdb62000cdb966200027b996200095d565b62000c06565b926200095d565b62000bf2565b388080808062000caf565b5050509250505090565b505050505050505060009056fe608060408181526004918236101561001657600080fd5b600092833560e01c91826306fdde031461220857508163077d3c0314612064578163095ea7b31461203a5781630c815103146120115781630f8ad1b414611d0357816314cf86eb14611cc857816318160ddd14611ca957816321bb56d714611a5957816323b872dd146118915781632ab4d052146118725781632beafc891461185a578163313ce5671461183857816332424aa314611838578163350724a914611801578163370de043146117c657816339509351146117765781633c637d74146117455781633e8402361461163b5781633f4ba83a146115f457816340c10f19146114b357816340dc95c51461145557816345d11299146113845781634ee2cd7e146113295781635439ad861461130a5781635f7c5377146112af57816364ca0ac31461124b5781636968f8b3146112185781636aea0d2e146111ee57816370a08231146111c85781637d7b368b1461119f5781637f4ab1dd1461116857816382074ac2146110ca5781638456cb591461107f57816384955c881461103c5781638b9d6899146110165781638d56cc9c14610fad5781638e4f11ff14610f485781638e64eac514610f2657816390fc7e9114610eee57816395a8c58d14610e7b57816395d89b4114610d9957816396305c8914610d7a5781639711715a14610d1b578163981b24d014610ce25781639dc29fac14610b57578163a457c2d714610aaf578163a742c88e14610a89578163a9059cbb14610a38578163a9b1f051146109cb578163ad061e25146109a2578163b187bd261461097e578163b30bfa3d14610946578163b7ed4785146107f3578163b7ef81e1146107d4578163bf120ae5146106c8578163c63aa52114610690578163ceca46c214610663578163d4ce14151461063d578163db74fa3614610605578163dd62ed3e146105bc578163dfb7300e1461051e578163e98a0c64146104aa578163ea612ae81461042b578163f0658198146103fb578163fbc6d1cb1461033b575063fc96f7d8146102fb57600080fd5b346103375760203660031901126103375760209160ff9082906001600160a01b0361032461232a565b1681526014855220541690519015158152f35b5080fd5b8391503461033757826003193601126103375761035661232a565b60243591821580156103d5575b156103775750906103749133612552565b80f35b608490602086519162461bcd60e51b8352820152603260248201527f43616e6e6f7420617070726f76652066726f6d206e6f6e2d7a65726f20746f206044820152716e6f6e2d7a65726f20616c6c6f77616e636560701b6064820152fd5b50338452600160209081528585206001600160a01b038416865290528484205415610363565b50503461033757806003193601126103375760209061042461041b61232a565b602435906132ee565b9051908152f35b50503461033757806003193601126103375761044561232a565b6001600160a01b03168252600d602052808220805460243591908210156104a6579061047091612513565b508054600182015460028301546003909301549351918252602082015260408101919091526060810191909152608090f35b0390f35b8380fd5b90503461051a57606036600319011261051a573560243591604435906104d76104d233612a47565b613cd0565b82855260136020528085208486526020528181862055519081527f5845e315015ee03f0d4ab1d198172b4f733609dc3de8b957ae1d86c87403018960203392a480f35b8280fd5b90503461051a57602036600319011261051a576001600160a01b0390358181168082036105b8577f8c78349fc44add47ae711ddc6e926b7845597c57473e587420693d8d0547845a936060936105766104d233612a47565b61058183151561292f565b600f8054610100600160a81b03198116600896871b610100600160a81b0316179091558251338152941c166020840152820152a180f35b8480fd5b505034610337578060031936011261033757806020926105da61232a565b6105e2612345565b6001600160a01b0391821683526001865283832091168252845220549051908152f35b5050346103375760203660031901126103375760209181906001600160a01b0361062d61232a565b1681526012845220549051908152f35b5050346103375760209060ff61065b61065536612389565b91613b74565b915191168152f35b505034610337578160031936011261033757600f54905160089190911c6001600160a01b03168152602090f35b5050346103375760203660031901126103375760209181906001600160a01b036106b861232a565b1681526011845220549051908152f35b90503461051a578160031936011261051a576106e261232a565b9160243590811515938483036107d0576001600160a01b03169261070784151561292f565b61071033612a1d565b80156107c1575b1561076557509061073d91838652601460205285209060ff801983541691151516179055565b337f17ec2643977f0865dd45350e9efdcdfead258c9220974e67d1a37ca1447722938480a480f35b6020608492519162461bcd60e51b8352820152603160248201527f444f4553204e4f5420484156452057414c4c4554532041444d494e204f5220526044820152704553455256452041444d494e20524f4c4560781b6064820152fd5b506107cb336129f3565b610717565b8580fd5b505034610337578160031936011261033757602090600c549051908152f35b90503461051a5760a036600319011261051a576001600160401b0381358181116105b85761082490369084016124e3565b6024939193358381116109425761083e90369084016124e3565b92909160443585811161093e5761085890369084016124e3565b94909160643587811161093a5761087290369086016124e3565b9790946084359182116109365761088b913691016124e3565b95909161089984821461325e565b6108a488821461325e565b6108af89821461325e565b8b5b8181106108c25760208c5160018152f35b6108cd81838d6132a4565b356001600160a01b03811681036109325761091b90878c610908856109008f82906108f9828f8e6132a4565b35966132a4565b35928d6132a4565b3591610915368e8b61247d565b93612abc565b1561092e5761092990613204565b6108b1565b8c80fd5b8d80fd5b8b80fd5b8a80fd5b8880fd5b8680fd5b5050346103375760203660031901126103375760209181906001600160a01b0361096e61232a565b168152600d845220549051908152f35b50503461033757816003193601126103375760209060ff6015541690519015158152f35b5050346103375780600319360112610337576020906104246109c261232a565b6024359061332b565b50503461033757606036600319011261033757610a316020926109ec61232a565b6002610a1c602435938660443591610a0f87610a0885336132ee565b1015613774565b338152600d8a5220612513565b5001610a2983825461252f565b905530613003565b5160018152f35b505034610337578060031936011261033757602090610a80610a5861232a565b60243590610a706001600160a01b038216151561292f565b610a7b828233613ad5565b6133ba565b90519015158152f35b50503461033757602036600319011261033757602090610424610aaa61232a565b613733565b90508234610b545782600319360112610b5457610aca61232a565b918360243592338152600160205281812060018060a01b0386168252602052205490828210610b0357602085610a318585038733612552565b608490602086519162461bcd60e51b8352820152602560248201527f45524332303a2064656372656173656420616c6c6f77616e63652062656c6f77604482015264207a65726f60d81b6064820152fd5b80fd5b83915034610337578260031936011261033757610b7261232a565b6001600160a01b03811691602435918315610b8d811561292f565b610b9e610b99336129f3565b613d26565b610ba7826136bb565b8411610ca257610c5557610bba90613583565b610bc26135d4565b828452836020528484205490828210610c075750818495600080516020613db2833981519152936020938688528785520381872055816002540360025551908152a380f35b608490602087519162461bcd60e51b8352820152602260248201527f45524332303a206275726e20616d6f756e7420657863656564732062616c616e604482015261636560f01b6064820152fd5b855162461bcd60e51b8152602081840152602160248201527f45524332303a206275726e2066726f6d20746865207a65726f206164647265736044820152607360f81b6064820152608490fd5b865162461bcd60e51b8152602081850152601a60248201527924b739bab33334b1b2b73a103a37b5b2b739903a3790313ab93760311b6044820152606490fd5b90503461051a57602036600319011261051a5791610d02602093356126a2565b915015610d1157905b51908152f35b5060025490610d0b565b505034610337578160031936011261033757602090610d41610d3c336129c9565b612973565b60016008540190816008557f8030e83b04d87bef53480e26263266d6ca66863aa8506aca6f2559d18aa1cb67838251848152a151908152f35b50503461033757602090610424610d903661236b565b929190916138f2565b838334610337578160031936011261033757805191809380549160019083821c92828516948515610e71575b6020958686108114610e5e57858952908115610e3a5750600114610dff575b6104a28787610df5828c0383612425565b51918291826122fe565b9080949750528583205b828410610e2757505050826104a294610df592820101948680610de4565b8054868501880152928601928101610e09565b60ff19168887015250505050151560051b8301019250610df5826104a28680610de4565b634e487b7160e01b845260228352602484fd5b93607f1693610dc5565b50503461033757806003193601126103375760ff60209282610e9b61232a565b91610ea461235b565b92848416151580610ee0575b610eb9906128e8565b6001600160a01b0316610ecd81151561292f565b8152600986522054161615159051908152f35b50600f848117861614610eb0565b828434610b545760e0366003190112610b54575061042460209260c4359060a435906084359060643590604435906024359035613a07565b50503461033757816003193601126103375760209060ff600a54169051908152f35b90503461051a5760a036600319011261051a57610f6361232a565b92608435906001600160401b038211610b545736602383011215610b54575092610f9b610a809285602460209736930135910161247d565b90606435906044359060243590612abc565b505034610337578060031936011261033757610fc761232a565b602435916001600160a01b03909116908290610fe483151561292f565b610ff5610ff033612a1d565b612a71565b828552601160205284205533600080516020613d928339815191528480a480f35b5050346103375760203660031901126103375760209061042461103761232a565b6136e5565b505034610337576020366003190112610337576104246020926110798361106161232a565b6001600160a01b038116845283875292205491613733565b9061252f565b505034610337578160031936011261033757600080516020613d72833981519152906110ad610d3c336129c9565b600160ff196015541617601555805133815260016020820152a180f35b828434610b545781600319360112610b5457906110f16110e861232a565b60243590613935565b8151928392608060209384865260c08601928151868801528582015181880152810151606087015260608101518287015201519260a08086015283518092528060e086019401925b82811061114857505050500390f35b83516001600160a01b031685528695509381019392810192600101611139565b90503461051a57602036600319011261051a57359160ff83168303610b5457506111946104a292613c06565b9051918291826122fe565b5050346103375780600319360112610337576020906104246111bf61232a565b602435906132b4565b505034610337576020366003190112610337576020906104246111e961232a565b6136bb565b83915034610337576020366003190112610337573590600c54821015610b54575061047090612448565b5050346103375760203660031901126103375760209061042461123961232a565b61107961124582613733565b916136e5565b50503461033757806003193601126103375761126561232a565b602435916001600160a01b0390911690829061128283151561292f565b61128e610ff033612a1d565b828552601260205284205533600080516020613dd28339815191528480a480f35b828434610b545760e0366003190112610b54576080366063190112610b5457506104246020928251906112e1826123be565b60643582526084358583015260a4358483015260c43560608301526044359060243590356139eb565b5050346103375781600319360112610337576020906008549051908152f35b50503461033757806003193601126103375760209161134661232a565b6001600160a01b03811682526005845282822061136590602435612766565b92501561137457509051908152f35b61137e91506136bb565b90610d0b565b90503461051a5760a036600319011261051a5761139f61232a565b60243592606435926084359283151595868503611451576001600160a01b03909116946107079186151591906113d48361292f565b6113e0610ff033612a1d565b6113e98361292f565b6113f5610ff033612a1d565b878a52601260205280868b20558733600080516020613dd28339815191528c80a461141f8261292f565b61142b610ff033612a1d565b868952601160205280858a20558633600080516020613d928339815191528b80a461292f565b8780fd5b5050346103375780600319360112610337578060209261147361232a565b61147b612345565b6001600160a01b0391821683526012808752848420548452601387528484209290911683528552828220548252845220549051908152f35b9190503461051a578060031936011261051a576114ce61232a565b6001600160a01b0381169260243592919084156114eb811561292f565b6114f7610b99336129f3565b6115038560025461252f565b6010541061159e5761155b57508492600080516020613db28339815191529261152d602093613583565b6115356135d4565b6115418260025461252f565b60025585855284835280852082815401905551908152a380f35b606490602084519162461bcd60e51b8352820152601f60248201527f45524332303a206d696e7420746f20746865207a65726f2061646472657373006044820152fd5b835162461bcd60e51b8152602081840152602a60248201527f43616e6e6f74206d696e74206d6f7265207468616e20746865206d617820746f60448201526974616c20737570706c7960b01b6064820152608490fd5b505034610337578160031936011261033757600080516020613d7283398151915290611622610d3c336129c9565b60ff19601554166015558051338152836020820152a180f35b83833461033757806003193601126103375761165561232a565b61165d61235b565b9160ff8084169283151580611737575b611676906128e8565b6001600160a01b03169361168b85151561292f565b611697610d3c336129c9565b84865260096020526001838720541615908161172a575b506116ef575b8495508360019552600960205281862090838254918216179060ff191617905551908152600080516020613df283398151915260203392a480f35b600a5481811682811461171757600180979850839101169060ff191617600a558594506116b4565b634e487b7160e01b875260118852602487fd5b60019150161515876116ae565b50600f85811783161461166d565b90503461051a578160031936011261051a576020928291358152601384528181206024358252845220549051908152f35b505034610337578060031936011261033757610a316020926117bf61179961232a565b338352600186528483206001600160a01b0382168452865291849020546024359061252f565b9033612552565b505034610337578160031936011261033757602090517f00000000000000000000000000000000000000000000000000000000000000008152f35b5050346103375760203660031901126103375760209181906001600160a01b0361182961232a565b16815280845220549051908152f35b50503461033757816003193601126103375760209060ff600f54169051908152f35b8334610b545761037461186c36612389565b91613ad5565b5050346103375781600319360112610337576020906010549051908152f35b838334610337576118a136612389565b93916001600160a01b03828116151580611a4e575b6118bf9061292f565b811692838152602095600187528582203383528752858220548082116119ea576118ea828686613ad5565b6118f482856137b4565b9061191182519361190a8b85019586519061252f565b1015613379565b815191826119ca575b50505051938461192e575b86865160018152f35b90859181526001875281812033825287522054956000198703611965575b5061195993949550613412565b81908380808080611925565b838710611987575061197f83611959959697033383612552565b85949361194c565b845162461bcd60e51b8152908101869052601d60248201527f45524332303a20696e73756666696369656e7420616c6c6f77616e63650000006044820152606490fd5b6119d86119e2938830613412565b5190033385612552565b88808061191a565b865162461bcd60e51b8152808a01899052603860248201527f54686520617070726f76656420616c6c6f77616e6365206973206c6f776572206044820152771d1a185b881d1a19481d1c985b9cd9995c88185b5bdd5b9d60421b6064820152608490fd5b5081811615156118b6565b8391503461033757611a6a3661236b565b917f00000000000000000000000000000000000000000000000000000000000000008111611c705760018410611c3f57612710808311611c0b576001851115611bbb57508215611b8b575b865193611ac1856123be565b84526020840190815286840191825260608401928352600c54600160401b811015611b7857806001611af69201600c55612448565b949094611b665751845551600184015551600283015551600390910155600c54600019810191908211611b5357508060209351927f9c52cb9bbb9b7fa6ddb26d1e82afc4e62c9ec50c0f3488c10bb8ad22d4edc4c3339180a38152f35b634e487b7160e01b835260119052602482fd5b634e487b7160e01b8752868652602487fd5b634e487b7160e01b875260418652602487fd5b865162461bcd60e51b8152602081870152600a6024820152690706572696f64203d20360b41b6044820152606490fd5b60018514611bca575b50611ab5565b8203611bd65787611bc4565b865162461bcd60e51b8152602081870152600f60248201526e72656c6561736564203c203130302560881b6044820152606490fd5b875162461bcd60e51b8152602081880152600e60248201526d72656c65617365203e203130302560901b6044820152606490fd5b865162461bcd60e51b8152602081870152600b60248201526a3c20312072656c6561736560a81b6044820152606490fd5b865162461bcd60e51b815260208187015260136024820152720ccd2e4e6e840e4cad8cac2e6ca407c40dac2f606b1b6044820152606490fd5b5050346103375781600319360112610337576020906002549051908152f35b505034610337578160031936011261033757602090517f00000000000000000000000000000000000000000000000000000000000000008152f35b8383346103375760c036600319011261033757611d1e61232a565b60a4359360248035906001600160a01b038088169081890361145157851691828852602097600d895284888220541115611fdc578215611fa15784888286611d6b9452600d8c5220612513565b5095611d7687613213565b15611f4b57604435875403611efe57606435600188015403611ea6576003870195608435875403611e5857611dab86836132b4565b928315611e19575050611ddb60029798999a82611dd5611dcc8987966132ee565b95869330613003565b30613003565b885192835289830152878201527f6945f4788d8a6b16089d616d1f7bb52372bfdbc43addd3386a7842db4199986a60603392a4549101555160018152f35b895162461bcd60e51b81529182018b9052601a9082015279151a5b595b1bd8dac81a185cc81b9bc81d985b1d59481b19599d60321b6044820152606490fd5b885162461bcd60e51b81529081018a90526023818401527f457870656374656420746f74616c416d6f756e7420646f6573206e6f74206d616044820152620e8c6d60eb1b6064820152608490fd5b875162461bcd60e51b81528087018a9052602d818401527f457870656374656420636f6d6d656e63656d656e7454696d657374616d70206460448201526c0decae640dcdee840dac2e8c6d609b1b6064820152608490fd5b875162461bcd60e51b81528087018a90526022818401527f4578706563746564207363686564756c65496420646f6573206e6f74206d61746044820152610c6d60f31b6064820152608490fd5b875162461bcd60e51b81528087018a9052602b818401527f596f7520617265206e6f7420616c6c6f77656420746f2063616e63656c20746860448201526a69732074696d656c6f636b60a81b6064820152608490fd5b875162461bcd60e51b81528087018a905260168184015275496e76616c6964207265636c61696d546f6b656e546f60501b6044820152606490fd5b875162461bcd60e51b81528087018a90526010818401526f696e76616c69642074696d656c6f636b60801b6044820152606490fd5b50503461033757806003193601126103375760209061042461203161232a565b60243590613357565b505034610337578060031936011261033757602090610a3161205a61232a565b6024359033612552565b83833461033757806003193601126103375761207e61232a565b61208661235b565b9160ff80841692831515806121fa575b61209f906128e8565b6001600160a01b0316936120b485151561292f565b6120c0610d3c336129c9565b8486526009602052838282858920541616036121a95760018116612118575b859650848652600960205282862091825491198216169060ff191617905551908152600080516020613df283398151915260203392a480f35b600a54828116600181111561215857801561214557879850839060001901169060ff191617600a556120df565b634e487b7160e01b885260118952602488fd5b845162461bcd60e51b81526020818b0152602560248201527f4d7573742068617665206174206c65617374206f6e6520636f6e74726163742060448201526430b236b4b760d91b6064820152608490fd5b825162461bcd60e51b8152602081890152602560248201527f4164647265737320646f6573206e6f7420686176652073706563696669656420604482015264726f6c657360d81b6064820152608490fd5b50600f858117831614612096565b929150346104a657836003193601126104a657600354600181811c91869082811680156122d1575b60209586861082146122be575084885290811561229c5750600114612261575b6104a28686610df5828b0383612425565b929550600383528583205b82841061228957505050826104a294610df5928201019438612250565b805486850188015292860192810161226c565b60ff191687860152505050151560051b8301019250610df5826104a238612250565b634e487b7160e01b845260229052602483fd5b93607f1693612230565b60005b8381106122ee5750506000910152565b81810151838201526020016122de565b6040916020825261231e81518092816020860152602086860191016122db565b601f01601f1916010190565b600435906001600160a01b038216820361234057565b600080fd5b602435906001600160a01b038216820361234057565b6024359060ff8216820361234057565b60809060031901126123405760043590602435906044359060643590565b6060906003190112612340576001600160a01b0390600435828116810361234057916024359081168103612340579060443590565b608081019081106001600160401b038211176123d957604052565b634e487b7160e01b600052604160045260246000fd5b60a081019081106001600160401b038211176123d957604052565b604081019081106001600160401b038211176123d957604052565b601f909101601f19168101906001600160401b038211908210176123d957604052565b600c5481101561246757600c60005260206000209060021b0190600090565b634e487b7160e01b600052603260045260246000fd5b9092916001600160401b0384116123d9578360051b60405192602080946124a682850182612425565b809781520191810192831161234057905b8282106124c45750505050565b81356001600160a01b03811681036123405781529083019083016124b7565b9181601f84011215612340578235916001600160401b038311612340576020808501948460051b01011161234057565b8054821015612467576000526005602060002091020190600090565b9190820180921161253c57565b634e487b7160e01b600052601160045260246000fd5b6001600160a01b0390811691821561260357169182156125b35760207f8c5be1e5ebec7d5bd14f71427d1e84f3dd0314c0f7b2291e5b200ac8c7c3b925918360005260018252604060002085600052825280604060002055604051908152a3565b60405162461bcd60e51b815260206004820152602260248201527f45524332303a20617070726f766520746f20746865207a65726f206164647265604482015261737360f01b6064820152608490fd5b60405162461bcd60e51b8152602060048201526024808201527f45524332303a20617070726f76652066726f6d20746865207a65726f206164646044820152637265737360e01b6064820152608490fd5b60075481101561246757600760005260206000200190600090565b60065481101561246757600660005260206000200190600090565b80548210156124675760005260206000200190600090565b80156127285760085481116126e3576126ba906127aa565b60065481036126cc5750600090600090565b6126d590612654565b90549060031b1c9060019190565b60405162461bcd60e51b815260206004820152601d60248201527f4552433230536e617073686f743a206e6f6e6578697374656e742069640000006044820152606490fd5b60405162461bcd60e51b815260206004820152601660248201527504552433230536e617073686f743a20696420697320360541b6044820152606490fd5b80156127285760085481116126e35761277f9082612852565b81548103612791575050600090600090565b60016126d5920161268a565b9190820391821161253c57565b6006805491821561284a576000925b808410612808575082151591826127e4575b5050156127e157600019810190811161253c5790565b90565b90915060001990838281011161253c576000528260206000200101541438806127cb565b60019061281b818618831c82871661252f565b9184600052838360206000200154116000146128385750506127b9565b909450810180911161253c57926127b9565b505050600090565b805491821561284a576000925b808410612886575082151591826127e4575050156127e157600019810190811161253c5790565b600190612899818618831c82871661252f565b9184600052838360206000200154116000146128b657505061285f565b909450810180911161253c579261285f565b81156128d2570490565b634e487b7160e01b600052601260045260246000fd5b156128ef57565b60405162461bcd60e51b8152602060048201526018602482015277444f4553204e4f5420484156452056414c494420524f4c4560401b6044820152606490fd5b1561293657565b60405162461bcd60e51b81526020600482015260156024820152740416464726573732063616e6e6f742062652030783605c1b6044820152606490fd5b1561297a57565b60405162461bcd60e51b815260206004820152602160248201527f444f4553204e4f54204841564520434f4e54524143542041444d494e20524f4c6044820152604560f81b6064820152608490fd5b6001600160a01b03166129dd81151561292f565b6000526009602052600160406000205416151590565b6001600160a01b0316612a0781151561292f565b6000526009602052600260406000205416151590565b6001600160a01b0316612a3181151561292f565b6000526009602052600460406000205416151590565b6001600160a01b0316612a5b81151561292f565b6000526009602052600860406000205416151590565b15612a7857565b606460405162461bcd60e51b815260206004820152602060248201527f444f4553204e4f5420484156452057414c4c4554532041444d494e20524f4c456044820152fd5b90939192936002600b5414612f7d576002600b55600a835111612f38577f00000000000000000000000000000000000000000000000000000000000000008110612efc576001600160a01b03821615612ec857600c54851015612e9257612b2285612448565b50548110612e5557612b3481306133ba565b50612b4c6001612b4387612448565b5001548561252f565b612b767f00000000000000000000000000000000000000000000000000000000000000004261252f565b10612e1157612b83612fd5565b85815260208101858152606082019183835260018060a01b038516600052600d60205260406000208054600160401b8110156123d957612bc891600182018155612513565b939093612dfb578151845591516001840155604081015160028401559051600383015560800151805191906001600160401b0383116123d957600160401b83116123d9576004820154836004840155808410612dce575b506020600491019101600052602060002060005b838110612db157505050506001600160a01b0382166000908152600d6020526040902054600019810190811161253c578351612cfe575b604051946080860192865260208601526040850152608060608501528251809152602060a0850193019060005b818110612cdf575050506001600160a01b03169133917f8d92942330bb9e8e714a4f66aa3eefe27f66d05b8ae4b6f6889e5a64a16155be919081900390a46001906001600b55565b82516001600160a01b0316855260209485019490920191600101612c97565b60018060a01b038316600052600d6020526004612d1f826040600020612513565b50855191016001600160401b0382116123d957600160401b82116123d9578054828255808310612d88575b506020860190600052602060002060005b838110612d6b5750505050612c6a565b82516001600160a01b031681830155602090920191600101612d5b565b8160005282602060002091820191015b818110612da55750612d4a565b60008155600101612d98565b82516001600160a01b031681830155602090920191600101612c33565b600483016000526020600020908482015b8183018110612def575050612c1f565b60008155600101612ddf565b634e487b7160e01b600052600060045260246000fd5b60405162461bcd60e51b815260206004820152601c60248201527b696e697469616c2072656c65617365206f7574206f662072616e676560201b6044820152606490fd5b60405162461bcd60e51b81526020600482015260156024820152743c203120746f6b656e207065722072656c6561736560581b6044820152606490fd5b60405162461bcd60e51b815260206004820152600e60248201526d189859081cd8da19591d5b19525960921b6044820152606490fd5b60405162461bcd60e51b815260206004820152600c60248201526b746f2030206164647265737360a01b6044820152606490fd5b60405162461bcd60e51b8152602060048201526014602482015273616d6f756e74203c206d696e2066756e64696e6760601b6044820152606490fd5b60405162461bcd60e51b815260206004820152601e60248201527f6d61782031302063616e63656c61626c654279206164647265737365657300006044820152606490fd5b60405162461bcd60e51b815260206004820152601f60248201527f5265656e7472616e637947756172643a207265656e7472616e742063616c6c006044820152606490fd5b8181029291811591840414171561253c57565b60405190612fe2826123ef565b60606080836000815260006020820152600060408201526000838201520152565b91906130ac91600080604051936020968786019463a9059cbb60e01b865260018060a01b038093166024880152604487015260448652613042866123be565b1692604051946130518661240a565b8786527f5361666545524332303a206c6f772d6c6576656c2063616c6c206661696c656488870152519082855af13d15613134573d916130908361313c565b9261309e6040519485612425565b83523d60008785013e61316f565b80519082821592831561311c575b505050156130c55750565b6084906040519062461bcd60e51b82526004820152602a60248201527f5361666545524332303a204552433230206f7065726174696f6e20646964206e6044820152691bdd081cdd58d8d9595960b21b6064820152fd5b61312c9350820181019101613157565b3882816130ba565b60609161316f565b6001600160401b0381116123d957601f01601f191660200190565b90816020910312612340575180151581036123405790565b919290156131d15750815115613183575090565b3b1561318c5790565b60405162461bcd60e51b815260206004820152601d60248201527f416464726573733a2063616c6c20746f206e6f6e2d636f6e74726163740000006044820152606490fd5b8251909150156131e45750805190602001fd5b60405162461bcd60e51b815290819061320090600483016122fe565b0390fd5b600019811461253c5760010190565b60005b60048201805482101561284a578161322d9161268a565b90543360039290921b1c6001600160a01b03161461325757613250600491613204565b9050613216565b5050600190565b1561326557565b60405162461bcd60e51b81526020600482015260176024820152760dad2e6dac2e8c6d0cac840c2e4e4c2f240d8cadccee8d604b1b6044820152606490fd5b91908110156124675760051b0190565b6132be8282613935565b90604060608301519201518211156000146132db57505050600090565b6127e1926132e891613357565b9061279d565b6132f88282613935565b90604060608301519201918251101560001461331657505050600090565b6127e19261332391613357565b90519061279d565b9061333591613935565b606081015160409091015180821161334e575050600090565b6127e19161279d565b6127e19161336491613935565b602081015190606081015190519142906138f2565b1561338057565b60405162461bcd60e51b8152602060048201526012602482015271496e737566666963656e7420746f6b656e7360701b6044820152606490fd5b906133c581336137b4565b6133db81519261190a602084019485519061252f565b5180613401575b5051806133f0575050600190565b6133fa9133613412565b3880613257565b61340c908330613412565b386133e2565b90916001600160a01b03808316929083156135305784169384156134df5761343c61344192613583565b613583565b60008281528060205260408120549180831061348b5760408282600080516020613db2833981519152958760209652828652038282205586815220818154019055604051908152a3565b60405162461bcd60e51b815260206004820152602660248201527f45524332303a207472616e7366657220616d6f756e7420657863656564732062604482015265616c616e636560d01b6064820152608490fd5b60405162461bcd60e51b815260206004820152602360248201527f45524332303a207472616e7366657220746f20746865207a65726f206164647260448201526265737360e81b6064820152608490fd5b60405162461bcd60e51b815260206004820152602560248201527f45524332303a207472616e736665722066726f6d20746865207a65726f206164604482015264647265737360d81b6064820152608490fd5b6001600160a01b0381166000908152600560205260409020906135a5906136bb565b600854806135b284613698565b106135bc57505050565b826135cc6001926135d295613648565b01613648565b565b60025460085490816135e461366b565b106135ed575050565b600654600160401b92838210156123d95761361182600161362a940160065561266f565b90919082549060031b91821b91600019901b1916179055565b600754918210156123d9576136118260016135d29401600755612654565b80549190600160401b8310156123d957826136119160016135d29501815561268a565b600654806136795750600090565b600019810190811161253c5761368e9061266f565b90549060031b1c90565b8054806136a6575050600090565b600019810190811161253c5761368e9161268a565b6127e19060018060a01b038116600052600060205261107961124560406000205461107984613733565b60009060009283925b6001600160a01b0383168552600d602052604085205484101561372c5761372461371e60409261107987876132b4565b94613204565b9390506136ee565b9350915050565b60009060009283925b6001600160a01b0383168552600d602052604085205484101561372c5761376c61371e60409261107987876132ee565b93905061373c565b1561377b57565b60405162461bcd60e51b8152602060048201526011602482015270185b5bdd5b9d080f881d5b9b1bd8dad959607a1b6044820152606490fd5b91906040928351906137c58261240a565b84368337819260018060a01b038216936000928584526020918483526137f584610a088b88205461107986613733565b8390855b888752600d8086528b882080548310156138dd57908860036138378f86908f968261382391612513565b50966002809801549552858c528d20612513565b5001540361384f57505061384a90613204565b6137f9565b9091929361385d84876132ee565b8111156138ae576138a761384a9361389d8f968998978f9682978f978461388c613892928f836132e8916132ee565b9d6132ee565b97528c528d20612513565b500191825461252f565b9055613204565b9450916138ce939b61389d92936138d7989b8a989b9a528a528620612513565b9055809461279d565b81520152565b5050509850955050929150836138d79161279d565b91906139006127e194612448565b5092600360405194613911866123be565b805486526001810154602087015260028101546040870152015460608501526139eb565b9061393e612fd5565b5060018060a01b03809216600052613960602091600d83526040600020612513565b50906040519261396f846123ef565b82548452600460019384810154848701526002810154604087015260038101546060870152016040519384859385845492838152019360005285600020956000915b8383106139d15750505050506139c992500382612425565b608082015290565b8754811686529684019688965094810194918401916139b1565b91906127e1939182519060208401519260606040860151950151955b9591929390600096818111613ac857613a1f9161279d565b94600019850194851161253c57613a3f613a398685612fc2565b8361252f565b861015613abe5781861015613a58575b50505050505090565b8394959650613a6c90612710929394612fc2565b049482613a79838361279d565b1015613a86575b80613a4f565b92613aaf86613aa9613ab4989795613aa4613aa4966110799961279d565b6128c8565b9261279d565b612fc2565b3880808080613a80565b5050509250505090565b5050505050505050600090565b91613ae291602493613b74565b600f54604051637d8e7d1b60e01b815260ff8316600482015292602091849190829060081c6001600160a01b03165afa918215613b6857600092613b34575b50613b2b90613c06565b90156131e45750565b613b2b919250613b5a9060203d8111613b61575b613b528183612425565b810190613157565b9190613b21565b503d613b48565b6040513d6000823e3d90fd5b600f5460405163cfdb31a960e01b81523060048201526001600160a01b0392831660248201529282166044840152606483019390935290916020918391608491839160081c165afa908115613b6857600091613bce575090565b6020813d8211613bfe575b81613be660209383612425565b8101031261033757519060ff82168203610b54575090565b3d9150613bd9565b600f54604051637f4ab1dd60e01b815260ff9290921660048301526000919082908290602490829060081c6001600160a01b03165afa918215613cc4578092613c4e57505090565b9091503d8082843e613c608184612425565b820191602081840312610337578051906001600160401b03821161051a570182601f8201121561033757805191613c968361313c565b93613ca46040519586612425565b83855260208484010111610b545750906127e191602080850191016122db565b604051903d90823e3d90fd5b15613cd757565b60405162461bcd60e51b815260206004820152602160248201527f444f4553204e4f542048415645205452414e534645522041444d494e20524f4c6044820152604560f81b6064820152608490fd5b15613d2d57565b606460405162461bcd60e51b815260206004820152602060248201527f444f4553204e4f54204841564520524553455256452041444d494e20524f4c456044820152fdfe0d7fd1e314b29407db3d79c46ecf1fa3d2108961fab8d20584277358cac41e890765aaf231b09368f07b83425559b145d7d386b1ff8f16c157a2ff2c7b9896feddf252ad1be2c89b69c2b068fc378daa952ba7f163c4a11628f55a4df523b3eff213aa445739b8d5bb514c5e3142fe13baacfa991314172ceaf756996259b8b37e9e87d17fbf2950f3379a6331b75b6e997a147bbd3eaedc68c30c62186c68cba164736f6c6343000814000addf252ad1be2c89b69c2b068fc378daa952ba7f163c4a11628f55a4df523b3ef",
  "linkReferences": {},
  "deployedLinkReferences": {}
}