{
  "_format": "hh-sol-artifact-1",
  "contractName": "SecurityTokenDeployer",
  "sourceName": "contracts/security-token/SecurityTokenDeployer.sol",
  "abi": [
    {
      "inputs": [
        {
          "internalType": "address",
          "name": "transferRules_",
          "type": "address"
        },
        {
          "internalType": "address",
          "name": "contractAdmin_",
          "type": "address"
        },
        {
          "internalType": "address",
          "name": "tokenReserveAdmin_",
          "type": "address"
        },
        {
          "internalType": "string",
          "name": "symbol_",
          "type": "string"
        },
        {
          "internalType": "string",
          "name": "name_",
          "type": "string"
        },
        {
          "internalType": "uint8",
          "name": "decimals_",
          "type": "uint8"
        },
        {
          "internalType": "uint256",
          "name": "totalSupply_",
          "type": "uint256"
        },
        {
          "internalType": "uint256",
          "name": "maxTotalSupply_",
          "type": "uint256"
        },
        {
          "internalType": "uint256",
          "name": "minTimelockAmount_",
          "type": "uint256"
        },
        {
          "internalType": "uint256",
          "name": "maxReleaseDelay_",
          "type": "uint256"
        }
      ],
      "name": "deployRestrictedSwap",
      "outputs": [
        {
          "internalType": "address",
          "name": "addr",
          "type": "address"
        }
      ],
      "stateMutability": "nonpayable",
      "type": "function"
    },
    {
      "inputs": [],
      "name": "deployTransferRules",
      "outputs": [
        {
          "internalType": "address",
          "name": "addr",
          "type": "address"
        }
      ],
      "stateMutability": "nonpayable",
      "type": "function"
    }
  ],
  "bytecode": "0x6080806040523461001657616f2b908161001c8239f35b600080fdfe6080604090808252600491823610156200001857600080fd5b600091823560e01c9081634cdb041e14620001ab57506370f6711f146200003e57600080fd5b34620001a75761014080600319360112620001a3576001600160a01b0390843582811691908290036200019f57602435908382168092036200019b5760443584811680910362000197576001600160401b03916064358381116200019357620000ab9036908b0162000220565b906084358481116200018f57620000c69036908c0162000220565b9260a4359560ff87168097036200018b57895197616064808a019788118a8910176200017757926200012d95928a99989795926200011e95620002e58c39885260208801528b870152806060870152850190620002a2565b908382036080850152620002a2565b9160a082015260c43560c082015260e43560e08201526101043561010082015261012061012435910152039084f09182156200016e57602093505191168152f35b513d84823e3d90fd5b50634e487b7160e01b8c5260418d5260248cfd5b8a80fd5b8980fd5b8880fd5b8680fd5b8580fd5b8480fd5b8280fd5b5080fd5b905034620001a35782600319360112620001a357610bd6818101906001600160401b038211838310176200020d57908291620063498339039083f09081156200020257516001600160a01b03909116815260209150f35b51913d9150823e3d90fd5b634e487b7160e01b855260418652602485fd5b81601f8201121562000287576001600160401b0391813591908383116200028c5760405193601f8401601f19908116603f01168501908111858210176200028c57604052828452602083830101116200028757816000926020809301838601378301015290565b600080fd5b634e487b7160e01b600052604160045260246000fd5b919082519283825260005b848110620002cf575050826000602080949584010152601f8019910116010190565b602081830181015184830182015201620002ad56fe60c060409080825234620007f45762006064803803809162000022828562000815565b833981019161014082840312620007f4576200003e8262000839565b916200004d6020820162000839565b6200005a83830162000839565b60608301519093906001600160401b038111620007f457866200007f9185016200084e565b608084015190966001600160401b038211620007f457620000a29185016200084e565b60a08401519560ff87168703620007f45760c08501519360e086015161012061010088015197015193805160018060401b038111620006cb5760035491600183811c93168015620007e9575b6020841014620007d3578190601f938481116200077c575b50602090848311600114620006ed57600092620006e1575b50508160011b916000199060031b1c1916176003555b8a51906001600160401b038211620006cb5760049b8c54600181811c91168015620006c0575b6020821014620006ab579081838594931162000652575b506020918311600114620005e757600092620005db575b50508160011b916000199060031b1c1916178a555b6001600b556015805460ff19908116909155926001600160a01b0392838216156200058c5783169283156200053f578916998a15620004ea5760ff600f54911691610100600160a81b039060081b169060018060a81b0319161717600f55601055600052600960205282600020600182825416179055600181600a541617600a55866000526002836000209182549060ff8216911617179055600560205281600020936000602052826000205497600097885b81600052600d60205285600020548a101562000290576200028262000289916200027b8c8c62000ac2565b90620008c5565b99620009c8565b9862000250565b620002a0908b99979899620008c5565b96600098895b83600052600d60205287600020548b1015620002df57620002d1620002d8916200027b8d8c620009d8565b9a620009c8565b99620002a6565b620002eb908a620008c5565b60085480620002fa84620009a1565b10620004c7575b505050600254600854806200031562000970565b10620003e4575b50506000805160206200604483398151915260208262000341600094600254620008c5565b6002558484528382528884208181540190558851908152a38115620003a1575060805260a05260006018555161532e908162000d1682396080518181816122e10152613fb3015260a0518181816127e401528181612a9901526140290152f35b606490602085519162461bcd60e51b8352820152601760248201527f4d696e2074696d656c6f636b20616d6f756e74203e20300000000000000000006044820152fd5b60065490680100000000000000009182811015620004b25790620004138260016200042c9401600655620008e9565b90919082549060031b91821b91600019901b1916179055565b600754908110156200049d576001810180600755811015620004885760076000527fa66cc928b5edb82af9bd49922954155ab7b0942694bea4ce44661d9a8736c68801556000805160206200604483398151915260206200031c565b603285634e487b7160e01b6000525260246000fd5b604185634e487b7160e01b6000525260246000fd5b604187634e487b7160e01b6000525260246000fd5b82620004da600192620004e19562000934565b0162000934565b86808062000301565b865162461bcd60e51b81526020818e0152602960248201527f546f6b656e20726573657276652061646d696e20616464726573732063616e6e60448201526806f74206265203078360bc1b6064820152608490fd5b865162461bcd60e51b81526020818e0152602160248201527f546f6b656e206f776e657220616464726573732063616e6e6f742062652030786044820152600360fc1b6064820152608490fd5b865162461bcd60e51b81526020818e01526024808201527f5472616e736665722072756c657320616464726573732063616e6e6f742062656044820152630203078360e41b6064820152608490fd5b01519050388062000188565b60008e8152602081209350601f198516905b8181106200063957509084600195949392106200061f575b505050811b018a556200019d565b015160001960f88460031b161c1916905538808062000611565b92936020600181928786015181550195019301620005f9565b909192508d60005260206000208380860160051c82019260208710620006a1575b94869594939291940160051c01905b81811062000691575062000171565b6000815585945060010162000682565b9250819262000673565b60228e634e487b7160e01b6000525260246000fd5b90607f16906200015a565b634e487b7160e01b600052604160045260246000fd5b0151905038806200011e565b6003600090815293507fc2575a0e9e593c00f959f8c92f12db2869c3395a3b0502d05e2516446f71f85b91905b601f198416851062000760576001945083601f1981161062000746575b505050811b0160035562000134565b015160001960f88460031b161c1916905538808062000737565b818101518355602094850194600190930192909101906200071a565b909150600360005260206000208480850160051c82019260208610620007c9575b9085949392910160051c01905b818110620007b9575062000106565b60008155849350600101620007aa565b925081926200079d565b634e487b7160e01b600052602260045260246000fd5b92607f1692620000ee565b600080fd5b60a081019081106001600160401b03821117620006cb57604052565b601f909101601f19168101906001600160401b03821190821017620006cb57604052565b51906001600160a01b0382168203620007f457565b919080601f84011215620007f4578251906001600160401b038211620006cb57604051916020916200088a601f8301601f191684018562000815565b818452828287010111620007f45760005b818110620008b157508260009394955001015290565b85810183015184820184015282016200089b565b91908201809211620008d357565b634e487b7160e01b600052601160045260246000fd5b6006548110156200090557600660005260206000200190600090565b634e487b7160e01b600052603260045260246000fd5b8054821015620009055760005260206000200190600090565b9081549168010000000000000000831015620006cb57826200041391600162000960950181556200091b565b565b91908203918211620008d357565b600654806200097f5750600090565b6000198101908111620008d3576200099790620008e9565b90549060031b1c90565b805480620009b0575050600090565b6000198101908111620008d35762000997916200091b565b6000198114620008d35760010190565b620009e4828262000b06565b906040606083015192015182111560001462000a0257505050600090565b62000a199262000a129162000a1c565b9062000962565b90565b9062000a289162000b06565b602081015160608201519151600c548110156200090557600c600052604051608081019260029290921b7fdf6966c971051c3d54ec59162606531493a51404a002842f56009d7e5cf4a8c701916001600160401b03841182851017620006cb5762000a1994606094604052835491828452600185015493846020820152600360028701549687604084015201549687910152429062000c2c565b62000ace828262000b06565b90604060608301519201918251101560001462000aed57505050600090565b62000a199262000afd9162000a1c565b90519062000962565b6040805162000b1581620007f9565b60009384825260606080602093878582015287868201528783820152015260018060a01b038094168552600d8252828520805482101562000be357855281852083519593916005020162000b6986620007f9565b80548652600460019182810154858901526002810154848901526003810154606089015201915180958487958554938481520194875280872096915b83831062000bc857505050505062000bc09250038262000815565b608082015290565b87548116865296840196889650948101949184019162000ba5565b634e487b7160e01b86526032600452602486fd5b81810292918115918404141715620008d357565b811562000c16570490565b634e487b7160e01b600052601260045260246000fd5b959192939060009681811162000d085762000c479162000962565b946000198501948511620008d35762000c6c62000c65868562000bf7565b83620008c5565b86101562000cfe578186101562000c87575b50505050505090565b839495965062000c9d9061271092939462000bf7565b04948262000cac838362000962565b101562000cbb575b8062000c7e565b9262000ced8662000ce662000cf398979562000ce062000ce0966200027b9962000962565b62000c0b565b9262000962565b62000bf7565b388080808062000cb4565b5050509250505090565b505050505050505060009056fe608060408181526004918236101561001657600080fd5b600092833560e01c91826306fdde03146131c057508163077d3c031461301c57816307c9cd4514612ebf5781630872512b14612e1d578163095ea7b314612df35781630c81510314612dca5781630f8ad1b414612abc57816314cf86eb14612a8157816318160ddd14612a625781631d36f08b14612a2057816321bb56d7146127d057816323b872dd146126085781632a3bf534146123945781632ab4d052146123755781632beafc891461235d578163313ce5671461233b57816332424aa31461233b578163350724a914612304578163370de043146122c957816339509351146122795781633c637d74146122485781633e8402361461213e5781633f4ba83a146120f757816340c10f1914611fb657816340dc95c514611f5857816345d1129914611e875781634e2b303514611e6a5781634ee2cd7e14611e0f5781635247ab0514611d015781635439ad8614611ce257816357656cfe14611c2d578163593b643914611c045781635f7c537714611ba957816364ca0ac314611b455781636968f8b314611b125781636aea0d2e14611ae85781636ec9d56f14611acc57816370a0823114611aa65781637d7b368b14611a7d5781637f4ab1dd14611a46578163809c187514611a0857816382074ac21461196a5781638456cb591461191f57816384955c88146118dc5781638648c6a6146118bd5781638b9d6899146118975781638d56cc9c1461182e5781638e4f11ff146117c95781638e64eac5146117a75781638fbe818a1461147e57816390fc7e911461144657816395a8c58d146113d357816395d89b41146112f157816396305c89146112d25781639711715a14611273578163976475d014611087578163981b24d01461104e5781639dc29fac14610ec3578163a2e2661614610ea7578163a457c2d714610dff578163a742c88e14610dd9578163a9059cbb14610d88578163a9b1f05114610d2a578163ad061e2514610d01578163b187bd2614610cdd578163b30bfa3d14610ca5578163b7ed478514610b5a578163b7ef81e114610b3b578163bf120ae514610a2f578163c0779ded1461081e578163c63aa521146107e6578163ceca46c2146107b9578163d4ce141514610793578163db74fa361461075b578163dd62ed3e14610712578163dfb7300e14610674578163e98a0c6414610600578163ea612ae814610581578163ecd158cf146104db578163f0658198146104ab578163fbc6d1cb146103eb575063fc96f7d8146103ab57600080fd5b346103e75760203660031901126103e75760209160ff9082906001600160a01b036103d46132e2565b1681526014855220541690519015158152f35b5080fd5b839150346103e757826003193601126103e7576104066132e2565b6024359182158015610485575b15610427575090610424913361356d565b80f35b608490602086519162461bcd60e51b8352820152603260248201527f43616e6e6f7420617070726f76652066726f6d206e6f6e2d7a65726f20746f206044820152716e6f6e2d7a65726f20616c6c6f77616e636560701b6064820152fd5b50338452600160209081528585206001600160a01b038416865290528484205415610413565b5050346103e757806003193601126103e7576020906104d46104cb6132e2565b6024359061456d565b9051908152f35b5050346103e7576104eb366134d4565b926001600160a01b0390921691610503831515613959565b61050f82303386613c46565b838552601760205280852083865260205280852061052e83825461354a565b9055838552601760205280852083865260205260018186200161055283825461354a565b9055519081527f73884fbf40e5433ea6f75b9343f3208649c9b8430641c927f0ed89d4eac6945b60203392a480f35b5050346103e757806003193601126103e75761059b6132e2565b6001600160a01b03168252600d602052808220805460243591908210156105fc57906105c69161352e565b508054600182015460028301546003909301549351918252602082015260408101919091526060810191909152608090f35b0390f35b8380fd5b9050346106705760603660031901126106705735602435916044359061062d61062833613f26565b614f4b565b82855260136020528085208486526020528181862055519081527f5845e315015ee03f0d4ab1d198172b4f733609dc3de8b957ae1d86c87403018960203392a480f35b8280fd5b905034610670576020366003190112610670576001600160a01b03903581811680820361070e577f8c78349fc44add47ae711ddc6e926b7845597c57473e587420693d8d0547845a936060936106cc61062833613f26565b6106d7831515613e64565b600f8054610100600160a81b03198116600896871b610100600160a81b0316179091558251338152941c166020840152820152a180f35b8480fd5b5050346103e757806003193601126103e757806020926107306132e2565b6107386132fd565b6001600160a01b0391821683526001865283832091168252845220549051908152f35b5050346103e75760203660031901126103e75760209181906001600160a01b036107836132e2565b1681526012845220549051908152f35b5050346103e75760209060ff6107b16107ab36613341565b91614e13565b915191168152f35b5050346103e757816003193601126103e757600f54905160089190911c6001600160a01b03168152602090f35b5050346103e75760203660031901126103e75760209181906001600160a01b0361080e6132e2565b1681526011845220549051908152f35b90503461067057602091826003193601126105fc5781359061083e613999565b8185526019845260ff600582872001541683811015610a1c5760028161086a6003610871941415615024565b1415615063565b8185526019845280852080546001600160a01b03908116959194916108973388146150a3565b600286019282845416978551916370a0823160e01b918284528184015283836024818d5afa928315610a12579084918c946109dd575b506108df818b019b8c54903390613a0a565b60248688541693878c5416948a51958694859384528301525afa9283156109d3578a93610983575b50509161093561097895949261092f8a956000805160206152a28339815191529b549061354a565b1461510a565b60058701600260ff19825416179055600187019080808084541699610961600382019b8c549033614691565b541698549254169254169254935196879687614fec565b0390a16001600b5580f35b908099949296959350813d83116109cc575b61099f8183613416565b810103126109c857965191969293909291906109356000805160206152a2833981519152610907565b8880fd5b503d610995565b86513d8c823e3d90fd5b8281939295503d8311610a0b575b6109f58183613416565b81010312610a075783905192386108cd565b8a80fd5b503d6109eb565b87513d8d823e3d90fd5b634e487b7160e01b865260218452602486fd5b905034610670578160031936011261067057610a496132e2565b916024359081151593848303610b37576001600160a01b031692610a6e841515613e64565b610a7733613efc565b8015610b28575b15610acc575090610aa491838652601460205285209060ff801983541691151516179055565b337f17ec2643977f0865dd45350e9efdcdfead258c9220974e67d1a37ca1447722938480a480f35b6020608492519162461bcd60e51b8352820152603160248201527f444f4553204e4f5420484156452057414c4c4554532041444d494e204f5220526044820152704553455256452041444d494e20524f4c4560781b6064820152fd5b50610b3233613ed2565b610a7e565b8580fd5b5050346103e757816003193601126103e757602090600c549051908152f35b9050346106705760a0366003190112610670576001600160401b03813581811161070e57610b8b90369084016134fe565b602493919335838111610ca157610ba590369084016134fe565b9290916044358581116109c857610bbf90369084016134fe565b949091606435878111610a0757610bd990369086016134fe565b979094608435918211610c9d57610bf2913691016134fe565b959091610c008482146144dd565b610c0b8882146144dd565b610c168982146144dd565b8b5b818110610c295760208c5160018152f35b610c3481838d614523565b356001600160a01b0381168103610c9957610c8290878c610c6f85610c678f8290610c60828f8e614523565b3596614523565b35928d614523565b3591610c7c368e8b61346e565b93613f9b565b15610c9557610c9090614483565b610c18565b8c80fd5b8d80fd5b8b80fd5b8680fd5b5050346103e75760203660031901126103e75760209181906001600160a01b03610ccd6132e2565b168152600d845220549051908152f35b5050346103e757816003193601126103e75760209060ff6015541690519015158152f35b5050346103e757806003193601126103e7576020906104d4610d216132e2565b602435906145aa565b5050346103e757610d81602092826002610d6c610d46366134d4565b91949095610d5f87610d58853361456d565b10156149f1565b338152600d8a522061352e565b5001610d7983825461354a565b905530613a0a565b5160018152f35b5050346103e757806003193601126103e757602090610dd0610da86132e2565b60243590610dc06001600160a01b0382161515613e64565b610dcb828233614d5a565b614639565b90519015158152f35b5050346103e75760203660031901126103e7576020906104d4610dfa6132e2565b6149b0565b90508234610ea45782600319360112610ea457610e1a6132e2565b918360243592338152600160205281812060018060a01b0386168252602052205490828210610e5357602085610d81858503873361356d565b608490602086519162461bcd60e51b8352820152602560248201527f45524332303a2064656372656173656420616c6c6f77616e63652062656c6f77604482015264207a65726f60d81b6064820152fd5b80fd5b5050346103e7576020906104d4610ebd36613341565b91613cb2565b839150346103e757826003193601126103e757610ede6132e2565b6001600160a01b03811691602435918315610ef98115613e64565b610f0a610f0533613ed2565b614fa1565b610f1382614938565b841161100e57610fc157610f2690614802565b610f2e614851565b828452836020528484205490828210610f7357508184956000805160206152c2833981519152936020938688528785520381872055816002540360025551908152a380f35b608490602087519162461bcd60e51b8352820152602260248201527f45524332303a206275726e20616d6f756e7420657863656564732062616c616e604482015261636560f01b6064820152fd5b855162461bcd60e51b8152602081840152602160248201527f45524332303a206275726e2066726f6d20746865207a65726f206164647265736044820152607360f81b6064820152608490fd5b865162461bcd60e51b8152602081850152601a60248201527924b739bab33334b1b2b73a103a37b5b2b739903a3790313ab93760311b6044820152606490fd5b905034610670576020366003190112610670579161106e602093356136bd565b91501561107d57905b51908152f35b5060025490611077565b90503461067057602090816003193601126105fc578035906110a7613999565b8185526019835260ff6005858720015416818110156112605760028161086a60036110d3941415615024565b81855260198352838520926001840160018060a01b036110f78183541633146150a3565b6002860192888883865416848a5416978251916370a0823160e01b908184528a838501528684602481845afa9586156112555787948e919761121b575b50602492918461114a92019c8d54913390613c46565b8c88808c54169154169551958694859384528301525afa928315611211578b936111bf575b50509161119886949261092f6000805160206152a28339815191529b979561097899549061354a565b60058801600260ff1982541617905580808084541699610961600382019b8c549030614691565b90809a96949297959350813d831161120a575b6111dc8183613416565b810103126112065797519397929491939092916111986000805160206152a283398151915261116f565b8980fd5b503d6111d2565b8a513d8d823e3d90fd5b9492955050945082813d831161124e575b6112368183613416565b81010312610c95579051928b928592918c6024611134565b503d61122c565b8551903d90823e3d90fd5b634e487b7160e01b865260218252602486fd5b5050346103e757816003193601126103e75760209061129961129433613ea8565b613903565b60016008540190816008557f8030e83b04d87bef53480e26263266d6ca66863aa8506aca6f2559d18aa1cb67838251848152a151908152f35b5050346103e7576020906104d46112e836613323565b92919091614b6f565b8383346103e757816003193601126103e757805191809380549160019083821c928285169485156113c9575b60209586861081146113b6578589529081156113925750600114611357575b6105f8878761134d828c0383613416565b51918291826132b6565b9080949750528583205b82841061137f57505050826105f89461134d9282010194868061133c565b8054868501880152928601928101611361565b60ff19168887015250505050151560051b830101925061134d826105f8868061133c565b634e487b7160e01b845260228352602484fd5b93607f169361131d565b5050346103e757806003193601126103e75760ff602092826113f36132e2565b916113fc613313565b92848416151580611438575b61141190613e1d565b6001600160a01b0316611425811515613e64565b8152600986522054161615159051908152f35b50600f848117861614611408565b828434610ea45760e0366003190112610ea457506104d460209260c4359060a435906084359060643590604435906024359035614c84565b8383346103e75761148e36613376565b9161149a949394613999565b6001600160a01b0382811690811561176757866114b633614938565b106117185786156116e75784156116a75782168015611666576114f06114dd888633614e13565b60ff6114e882614ef3565b911615614d52565b87808751602081019063d4ce141560e01b8252611524816115168b338c60248501613c24565b03601f198101835282613416565b519082875af1611532613b5f565b906115e7575b50601854600181018091116115d457926005899a87948997948b996000805160206152628339815191529b6115cc9e8a6115c29b60185581526019602052209360018060a01b03199333858754161786558c600387015560018601908582541617905584015560028301918254161790550160ff1981541690556018549451958695339087614fec565b0390a13033614691565b6001600b5580f35b634e487b7160e01b895260118a52602489fd5b806020806115fa93518301019101614dfa565b60ff875191637f4ab1dd60e01b835216808b8301528982602481865afa91821561165c579061163292918b92611638575b5015614d52565b89611538565b6116559192503d808d833e61164d8183613416565b810190614e95565b908c61162b565b88513d8c823e3d90fd5b855162461bcd60e51b81526020818b0152601b60248201527a496e76616c69642071756f746520746f6b656e206164647265737360281b6044820152606490fd5b855162461bcd60e51b81526020818b0152601a602482015279125b9d985b1a59081c5d5bdd19481d1bdad95b88185b5bdd5b9d60321b6044820152606490fd5b855162461bcd60e51b81526020818b0152601f60248201526000805160206152228339815191526044820152606490fd5b855162461bcd60e51b81526020818b01526024808201527f496e73756666696369656e74207265737472696374656420746f6b656e20616d6044820152631bdd5b9d60e21b6064820152608490fd5b855162461bcd60e51b81526020818b0152601a60248201527924b73b30b634b21038bab7ba32903a37b5b2b71039b2b73232b960311b6044820152606490fd5b5050346103e757816003193601126103e75760209060ff600a54169051908152f35b9050346106705760a0366003190112610670576117e46132e2565b92608435906001600160401b038211610ea45736602383011215610ea457509261181c610dd09285602460209736930135910161346e565b90606435906044359060243590613f9b565b5050346103e757806003193601126103e7576118486132e2565b602435916001600160a01b03909116908290611865831515613e64565b61187661187133613efc565b613f50565b8285526011602052842055336000805160206152828339815191528480a480f35b5050346103e75760203660031901126103e7576020906104d46118b86132e2565b614962565b5050346103e757816003193601126103e7576020906018549051908152f35b5050346103e75760203660031901126103e7576104d4602092611919836119016132e2565b6001600160a01b0381168452838752922054916149b0565b9061354a565b5050346103e757816003193601126103e7576000805160206152428339815191529061194d61129433613ea8565b600160ff196015541617601555805133815260016020820152a180f35b828434610ea45781600319360112610ea457906119916119886132e2565b60243590614bb2565b8151928392608060209384865260c08601928151868801528582015181880152810151606087015260608101518287015201519260a08086015283518092528060e086019401925b8281106119e857505050500390f35b83516001600160a01b0316855286955093810193928101926001016119d9565b5050346103e75780602092611a1c36613341565b8352601686528383206001600160a01b039283168452865283832091168252845220549051908152f35b90503461067057602036600319011261067057359160ff83168303610ea45750611a726105f892614ef3565b9051918291826132b6565b5050346103e757806003193601126103e7576020906104d4611a9d6132e2565b60243590614533565b5050346103e75760203660031901126103e7576020906104d4611ac76132e2565b614938565b5050346103e7576020906104d4611ae236613341565b91613dd9565b839150346103e75760203660031901126103e7573590600c54821015610ea457506105c690613439565b5050346103e75760203660031901126103e7576020906104d4611b336132e2565b611919611b3f826149b0565b91614962565b5050346103e757806003193601126103e757611b5f6132e2565b602435916001600160a01b03909116908290611b7c831515613e64565b611b8861187133613efc565b8285526012602052842055336000805160206152e28339815191528480a480f35b828434610ea45760e0366003190112610ea4576080366063190112610ea457506104d4602092825190611bdb826133af565b60643582526084358583015260a4358483015260c4356060830152604435906024359035614c68565b5050346103e757806003193601126103e7576020906104d4611c246132e2565b60243590613c6e565b5050346103e757806003193601126103e757611c476132e2565b60243591611c5761129433613ea8565b611c5f613999565b6001600160a01b03821691611c80908490611c7b851515613959565b613c6e565b908385526017602052808520838652602052600181862001611ca38382546137b8565b9055611cb0823385613a0a565b519081527f91fb9d98b786c57d74c099ccd2beca1739e9f6a81fb49001ca465c4b7591bbe260203392a46001600b5580f35b5050346103e757816003193601126103e7576020906008549051908152f35b905034610670578160031936011261067057611d1b6132e2565b9060243592611d28613999565b611d33843385613dd9565b918215611dcd57507f2f6639d24651730c7bf57c95ddbf96d66d11477e4ec626876f92c22e5f365e6890848652602090601682528087209460018060a01b03169485885282528087203388528252808720611d8f85825461354a565b9055858752601782528087208588528252600181882001611db18582546137b8565b9055611dbe843387613a0a565b519283523392a46001600b5580f35b6020606492519162461bcd60e51b8352820152601d60248201527f594f552043414e60542052454345495645204d4f524520544f4b454e530000006044820152fd5b5050346103e757806003193601126103e757602091611e2c6132e2565b6001600160a01b038116825260058452828220611e4b90602435613781565b925015611e5a57509051908152f35b611e649150614938565b90611077565b5050346103e757816003193601126103e757602090516127108152f35b9050346106705760a036600319011261067057611ea26132e2565b60243592606435926084359283151595868503611f54576001600160a01b0390911694610a6e918615159190611ed783613e64565b611ee361187133613efc565b611eec83613e64565b611ef861187133613efc565b878a52601260205280868b205587336000805160206152e28339815191528c80a4611f2282613e64565b611f2e61187133613efc565b868952601160205280858a205586336000805160206152828339815191528b80a4613e64565b8780fd5b5050346103e757806003193601126103e75780602092611f766132e2565b611f7e6132fd565b6001600160a01b0391821683526012808752848420548452601387528484209290911683528552828220548252845220549051908152f35b91905034610670578060031936011261067057611fd16132e2565b6001600160a01b038116926024359291908415611fee8115613e64565b611ffa610f0533613ed2565b6120068560025461354a565b601054106120a15761205e575084926000805160206152c283398151915292612030602093614802565b612038614851565b6120448260025461354a565b60025585855284835280852082815401905551908152a380f35b606490602084519162461bcd60e51b8352820152601f60248201527f45524332303a206d696e7420746f20746865207a65726f2061646472657373006044820152fd5b835162461bcd60e51b8152602081840152602a60248201527f43616e6e6f74206d696e74206d6f7265207468616e20746865206d617820746f60448201526974616c20737570706c7960b01b6064820152608490fd5b5050346103e757816003193601126103e7576000805160206152428339815191529061212561129433613ea8565b60ff19601554166015558051338152836020820152a180f35b8383346103e757806003193601126103e7576121586132e2565b612160613313565b9160ff808416928315158061223a575b61217990613e1d565b6001600160a01b03169361218e851515613e64565b61219a61129433613ea8565b84865260096020526001838720541615908161222d575b506121f2575b8495508360019552600960205281862090838254918216179060ff19161790555190815260008051602061530283398151915260203392a480f35b600a5481811682811461221a57600180979850839101169060ff191617600a558594506121b7565b634e487b7160e01b875260118852602487fd5b60019150161515876121b1565b50600f858117831614612170565b9050346106705781600319360112610670576020928291358152601384528181206024358252845220549051908152f35b5050346103e757806003193601126103e757610d816020926122c261229c6132e2565b338352600186528483206001600160a01b0382168452865291849020546024359061354a565b903361356d565b5050346103e757816003193601126103e757602090517f00000000000000000000000000000000000000000000000000000000000000008152f35b5050346103e75760203660031901126103e75760209181906001600160a01b0361232c6132e2565b16815280845220549051908152f35b5050346103e757816003193601126103e75760209060ff600f54169051908152f35b8334610ea45761042461236f36613341565b91614d5a565b5050346103e757816003193601126103e7576020906010549051908152f35b8383346103e7576123a436613376565b936123b193929193613999565b6001600160a01b03828116949085156125c5578415612594578615612554578116948515612513576123e76114dd863387614e13565b87808451602081019063d4ce141560e01b825261240d816115168d8b3360248501613c24565b519082865af161241b613b5f565b906124b9575b50601854600181018091116115d457926124ad9260058a9b8a9485856115cc9e8a6000805160206152628339815191529d9c9b60185581526019602052209260018060a01b031992838554161784558a60038501556001840133848254161790558301558a600283019182541617905501600160ff198254161790556018549151958695339387614fec565b0390a130903390613c46565b806020806124cc93518301019101614dfa565b60ff845191637f4ab1dd60e01b835216808b83015289826024818b5afa918215612509579061250392918b92611638575015614d52565b89612421565b85513d8c823e3d90fd5b825162461bcd60e51b81526020818b0152601b60248201527a496e76616c69642071756f746520746f6b656e206164647265737360281b6044820152606490fd5b825162461bcd60e51b81526020818b0152601a602482015279125b9d985b1a59081c5d5bdd19481d1bdad95b88185b5bdd5b9d60321b6044820152606490fd5b825162461bcd60e51b81526020818b0152601f60248201526000805160206152228339815191526044820152606490fd5b825162461bcd60e51b81526020818b0152601f60248201527f496e76616c6964207265737472696374656420746f6b656e2073656e646572006044820152606490fd5b8383346103e75761261836613341565b93916001600160a01b038281161515806127c5575b61263690613e64565b8116928381526020956001875285822033835287528582205480821161276157612661828686614d5a565b61266b8285614a31565b906126888251936126818b85019586519061354a565b10156145f8565b81519182612741575b5050505193846126a5575b86865160018152f35b908591815260018752818120338252875220549560001987036126dc575b506126d093949550614691565b8190838080808061269c565b8387106126fe57506126f6836126d095969703338361356d565b8594936126c3565b845162461bcd60e51b8152908101869052601d60248201527f45524332303a20696e73756666696369656e7420616c6c6f77616e63650000006044820152606490fd5b61274f612759938830614691565b519003338561356d565b888080612691565b865162461bcd60e51b8152808a01899052603860248201527f54686520617070726f76656420616c6c6f77616e6365206973206c6f776572206044820152771d1a185b881d1a19481d1c985b9cd9995c88185b5bdd5b9d60421b6064820152608490fd5b50818116151561262d565b839150346103e7576127e136613323565b917f000000000000000000000000000000000000000000000000000000000000000081116129e757600184106129b65761271080831161298257600185111561293257508215612902575b865193612838856133af565b84526020840190815286840191825260608401928352600c54600160401b8110156128ef5780600161286d9201600c55613439565b9490946128dd5751845551600184015551600283015551600390910155600c546000198101919082116128ca57508060209351927f9c52cb9bbb9b7fa6ddb26d1e82afc4e62c9ec50c0f3488c10bb8ad22d4edc4c3339180a38152f35b634e487b7160e01b835260119052602482fd5b634e487b7160e01b8752868652602487fd5b634e487b7160e01b875260418652602487fd5b865162461bcd60e51b8152602081870152600a6024820152690706572696f64203d20360b41b6044820152606490fd5b60018514612941575b5061282c565b820361294d578761293b565b865162461bcd60e51b8152602081870152600f60248201526e72656c6561736564203c203130302560881b6044820152606490fd5b875162461bcd60e51b8152602081880152600e60248201526d72656c65617365203e203130302560901b6044820152606490fd5b865162461bcd60e51b8152602081870152600b60248201526a3c20312072656c6561736560a81b6044820152606490fd5b865162461bcd60e51b815260208187015260136024820152720ccd2e4e6e840e4cad8cac2e6ca407c40dac2f606b1b6044820152606490fd5b5050346103e757806003193601126103e75780602092612a3e6132e2565b6024358252601785528282206001600160a01b039091168252845220549051908152f35b5050346103e757816003193601126103e7576020906002549051908152f35b5050346103e757816003193601126103e757602090517f00000000000000000000000000000000000000000000000000000000000000008152f35b8383346103e75760c03660031901126103e757612ad76132e2565b60a4359360248035906001600160a01b0380881690818903611f5457851691828852602097600d895284888220541115612d95578215612d5a5784888286612b249452600d8c522061352e565b5095612b2f87614492565b15612d0457604435875403612cb757606435600188015403612c5f576003870195608435875403612c1157612b648683614533565b928315612bd2575050612b9460029798999a82612b8e612b8589879661456d565b95869330613a0a565b30613a0a565b885192835289830152878201527f6945f4788d8a6b16089d616d1f7bb52372bfdbc43addd3386a7842db4199986a60603392a4549101555160018152f35b895162461bcd60e51b81529182018b9052601a9082015279151a5b595b1bd8dac81a185cc81b9bc81d985b1d59481b19599d60321b6044820152606490fd5b885162461bcd60e51b81529081018a90526023818401527f457870656374656420746f74616c416d6f756e7420646f6573206e6f74206d616044820152620e8c6d60eb1b6064820152608490fd5b875162461bcd60e51b81528087018a9052602d818401527f457870656374656420636f6d6d656e63656d656e7454696d657374616d70206460448201526c0decae640dcdee840dac2e8c6d609b1b6064820152608490fd5b875162461bcd60e51b81528087018a90526022818401527f4578706563746564207363686564756c65496420646f6573206e6f74206d61746044820152610c6d60f31b6064820152608490fd5b875162461bcd60e51b81528087018a9052602b818401527f596f7520617265206e6f7420616c6c6f77656420746f2063616e63656c20746860448201526a69732074696d656c6f636b60a81b6064820152608490fd5b875162461bcd60e51b81528087018a905260168184015275496e76616c6964207265636c61696d546f6b656e546f60501b6044820152606490fd5b875162461bcd60e51b81528087018a90526010818401526f696e76616c69642074696d656c6f636b60801b6044820152606490fd5b5050346103e757806003193601126103e7576020906104d4612dea6132e2565b602435906145d6565b5050346103e757806003193601126103e757602090610d81612e136132e2565b602435903361356d565b8383346103e75760203660031901126103e75782358083526019602052818320546001600160a01b031615612e83578252601960205260ff600582842001541690519183821015612e7057602083838152f35b634e487b7160e01b815260218452602490fd5b815162461bcd60e51b8152602081860152601660248201527553776170207265636f7264206e6f742065786973747360501b6044820152606490fd5b8383346103e75760203660031901126103e757823590612edd613999565b818352601960205260ff6005828520015416848110156130095760028161086a6003612f0a941415615024565b818352601960205280832080546001600160a01b0390612f2d9082161515615178565b8060018301541691612f40831515615178565b600581019260ff84541688811015612ff6579161097895939189847fa715d65b6e7107257e3f1469a8b36f0003c039bf6cc6279c26d814b77efb658099979515600014612fbe575050506003612fa89282541691612f9f8333146151c2565b01549030614691565b805460ff191660031790555191829133836139ef565b600114612fcf575b50505050612fa8565b612fed93612fde8333146151c2565b60028401541692015491613a0a565b86808080612fc6565b634e487b7160e01b885260218952602488fd5b634e487b7160e01b845260218552602484fd5b8383346103e757806003193601126103e7576130366132e2565b61303e613313565b9160ff80841692831515806131b2575b61305790613e1d565b6001600160a01b03169361306c851515613e64565b61307861129433613ea8565b84865260096020528382828589205416160361316157600181166130d0575b859650848652600960205282862091825491198216169060ff19161790555190815260008051602061530283398151915260203392a480f35b600a5482811660018111156131105780156130fd57879850839060001901169060ff191617600a55613097565b634e487b7160e01b885260118952602488fd5b845162461bcd60e51b81526020818b0152602560248201527f4d7573742068617665206174206c65617374206f6e6520636f6e74726163742060448201526430b236b4b760d91b6064820152608490fd5b825162461bcd60e51b8152602081890152602560248201527f4164647265737320646f6573206e6f7420686176652073706563696669656420604482015264726f6c657360d81b6064820152608490fd5b50600f85811783161461304e565b929150346105fc57836003193601126105fc57600354600181811c9186908281168015613289575b602095868610821461327657508488529081156132545750600114613219575b6105f8868661134d828b0383613416565b929550600383528583205b82841061324157505050826105f89461134d928201019438613208565b8054868501880152928601928101613224565b60ff191687860152505050151560051b830101925061134d826105f838613208565b634e487b7160e01b845260229052602483fd5b93607f16936131e8565b60005b8381106132a65750506000910152565b8181015183820152602001613296565b604091602082526132d68151809281602086015260208686019101613293565b601f01601f1916010190565b600435906001600160a01b03821682036132f857565b600080fd5b602435906001600160a01b03821682036132f857565b6024359060ff821682036132f857565b60809060031901126132f85760043590602435906044359060643590565b60609060031901126132f8576001600160a01b039060043582811681036132f8579160243590811681036132f8579060443590565b60809060031901126132f857600435906001600160a01b039060243582811681036132f8579160443590811681036132f8579060643590565b608081019081106001600160401b038211176133ca57604052565b634e487b7160e01b600052604160045260246000fd5b60a081019081106001600160401b038211176133ca57604052565b604081019081106001600160401b038211176133ca57604052565b601f909101601f19168101906001600160401b038211908210176133ca57604052565b600c5481101561345857600c60005260206000209060021b0190600090565b634e487b7160e01b600052603260045260246000fd5b9092916001600160401b0384116133ca578360051b604051926020809461349782850182613416565b80978152019181019283116132f857905b8282106134b55750505050565b81356001600160a01b03811681036132f85781529083019083016134a8565b60609060031901126132f8576004356001600160a01b03811681036132f857906024359060443590565b9181601f840112156132f8578235916001600160401b0383116132f8576020808501948460051b0101116132f857565b8054821015613458576000526005602060002091020190600090565b9190820180921161355757565b634e487b7160e01b600052601160045260246000fd5b6001600160a01b0390811691821561361e57169182156135ce5760207f8c5be1e5ebec7d5bd14f71427d1e84f3dd0314c0f7b2291e5b200ac8c7c3b925918360005260018252604060002085600052825280604060002055604051908152a3565b60405162461bcd60e51b815260206004820152602260248201527f45524332303a20617070726f766520746f20746865207a65726f206164647265604482015261737360f01b6064820152608490fd5b60405162461bcd60e51b8152602060048201526024808201527f45524332303a20617070726f76652066726f6d20746865207a65726f206164646044820152637265737360e01b6064820152608490fd5b60075481101561345857600760005260206000200190600090565b60065481101561345857600660005260206000200190600090565b80548210156134585760005260206000200190600090565b80156137435760085481116136fe576136d5906137c5565b60065481036136e75750600090600090565b6136f09061366f565b90549060031b1c9060019190565b60405162461bcd60e51b815260206004820152601d60248201527f4552433230536e617073686f743a206e6f6e6578697374656e742069640000006044820152606490fd5b60405162461bcd60e51b815260206004820152601660248201527504552433230536e617073686f743a20696420697320360541b6044820152606490fd5b80156137435760085481116136fe5761379a908261386d565b815481036137ac575050600090600090565b60016136f092016136a5565b9190820391821161355757565b60068054918215613865576000925b808410613823575082151591826137ff575b5050156137fc5760001981019081116135575790565b90565b909150600019908382810111613557576000528260206000200101541438806137e6565b600190613836818618831c82871661354a565b9184600052838360206000200154116000146138535750506137d4565b909450810180911161355757926137d4565b505050600090565b8054918215613865576000925b8084106138a1575082151591826137ff575050156137fc5760001981019081116135575790565b6001906138b4818618831c82871661354a565b9184600052838360206000200154116000146138d157505061387a565b9094508101809111613557579261387a565b81156138ed570490565b634e487b7160e01b600052601260045260246000fd5b1561390a57565b60405162461bcd60e51b815260206004820152602160248201527f444f4553204e4f54204841564520434f4e54524143542041444d494e20524f4c6044820152604560f81b6064820152608490fd5b1561396057565b60405162461bcd60e51b815260206004820152601160248201527042414420544f4b454e204144445245535360781b6044820152606490fd5b6002600b54146139aa576002600b55565b60405162461bcd60e51b815260206004820152601f60248201527f5265656e7472616e637947756172643a207265656e7472616e742063616c6c006044820152606490fd5b6001600160a01b039091168152602081019190915260400190565b613a3f613a449392613a3160405194859263a9059cbb60e01b6020850152602484016139ef565b03601f198101845283613416565b613a79565b565b6001600160401b0381116133ca57601f01601f191660200190565b908160209103126132f8575180151581036132f85790565b604051613ad7916001600160a01b0316613a92826133fb565b6000806020958685527f5361666545524332303a206c6f772d6c6576656c2063616c6c206661696c656487860152868151910182855af1613ad1613b5f565b91613b8f565b805190828215928315613b47575b50505015613af05750565b6084906040519062461bcd60e51b82526004820152602a60248201527f5361666545524332303a204552433230206f7065726174696f6e20646964206e6044820152691bdd081cdd58d8d9595960b21b6064820152fd5b613b579350820181019101613a61565b388281613ae5565b3d15613b8a573d90613b7082613a46565b91613b7e6040519384613416565b82523d6000602084013e565b606090565b91929015613bf15750815115613ba3575090565b3b15613bac5790565b60405162461bcd60e51b815260206004820152601d60248201527f416464726573733a2063616c6c20746f206e6f6e2d636f6e74726163740000006044820152606490fd5b825190915015613c045750805190602001fd5b60405162461bcd60e51b8152908190613c2090600483016132b6565b0390fd5b6001600160a01b03918216815291166020820152604081019190915260600190565b90613a3f90613a31613a44956040519586936323b872dd60e01b602086015260248501613c24565b90600052601760205260406000209060018060a01b0316600052602052600160406000200154806137fc5750600090565b8181029291811591840414171561355757565b6040805163277166bf60e11b81529384939092908490613cd7908590600484016139ef565b03602094859181305afa948515613dce57600095613d9f575b508151630981b24d60e41b815260048101849052938085602481305afa948515613d9457600095613d65575b50612710958681029080820488149015171561355757613d6195613d3f916138e3565b9360005260178152826000209160018060a01b03166000525260002054613c9f565b0490565b90948582813d8311613d8d575b613d7c8183613416565b81010312610ea45750519338613d1c565b503d613d72565b83513d6000823e3d90fd5b90948482813d8311613dc7575b613db68183613416565b81010312610ea45750519338613cf0565b503d613dac565b82513d6000823e3d90fd5b906137fc92604091613dec828286613cb2565b6000928352601660209081528484206001600160a01b039687168552815284842092909516835293522054906137b8565b15613e2457565b60405162461bcd60e51b8152602060048201526018602482015277444f4553204e4f5420484156452056414c494420524f4c4560401b6044820152606490fd5b15613e6b57565b60405162461bcd60e51b81526020600482015260156024820152740416464726573732063616e6e6f742062652030783605c1b6044820152606490fd5b6001600160a01b0316613ebc811515613e64565b6000526009602052600160406000205416151590565b6001600160a01b0316613ee6811515613e64565b6000526009602052600260406000205416151590565b6001600160a01b0316613f10811515613e64565b6000526009602052600460406000205416151590565b6001600160a01b0316613f3a811515613e64565b6000526009602052600860406000205416151590565b15613f5757565b606460405162461bcd60e51b815260206004820152602060248201527f444f4553204e4f5420484156452057414c4c4554532041444d494e20524f4c456044820152fd5b9093919293613fa8613999565b600a835111614410577f000000000000000000000000000000000000000000000000000000000000000081106143d4576001600160a01b038216156143a057600c5485101561436a57613ffa85613439565b5054811061432d5761400c8130614639565b50614024600161401b87613439565b5001548561354a565b61404e7f00000000000000000000000000000000000000000000000000000000000000004261354a565b106142e95761405b614455565b85815260208101858152606082019183835260018060a01b038516600052600d60205260406000208054600160401b8110156133ca576140a09160018201815561352e565b9390936142d3578151845591516001840155604081015160028401559051600383015560800151805191906001600160401b0383116133ca57600160401b83116133ca5760048201548360048401558084106142a6575b506020600491019101600052602060002060005b83811061428957505050506001600160a01b0382166000908152600d602052604090205460001981019081116135575783516141d6575b604051946080860192865260208601526040850152608060608501528251809152602060a0850193019060005b8181106141b7575050506001600160a01b03169133917f8d92942330bb9e8e714a4f66aa3eefe27f66d05b8ae4b6f6889e5a64a16155be919081900390a46001906001600b55565b82516001600160a01b031685526020948501949092019160010161416f565b60018060a01b038316600052600d60205260046141f782604060002061352e565b50855191016001600160401b0382116133ca57600160401b82116133ca578054828255808310614260575b506020860190600052602060002060005b8381106142435750505050614142565b82516001600160a01b031681830155602090920191600101614233565b8160005282602060002091820191015b81811061427d5750614222565b60008155600101614270565b82516001600160a01b03168183015560209092019160010161410b565b600483016000526020600020908482015b81830181106142c75750506140f7565b600081556001016142b7565b634e487b7160e01b600052600060045260246000fd5b60405162461bcd60e51b815260206004820152601c60248201527b696e697469616c2072656c65617365206f7574206f662072616e676560201b6044820152606490fd5b60405162461bcd60e51b81526020600482015260156024820152743c203120746f6b656e207065722072656c6561736560581b6044820152606490fd5b60405162461bcd60e51b815260206004820152600e60248201526d189859081cd8da19591d5b19525960921b6044820152606490fd5b60405162461bcd60e51b815260206004820152600c60248201526b746f2030206164647265737360a01b6044820152606490fd5b60405162461bcd60e51b8152602060048201526014602482015273616d6f756e74203c206d696e2066756e64696e6760601b6044820152606490fd5b60405162461bcd60e51b815260206004820152601e60248201527f6d61782031302063616e63656c61626c654279206164647265737365657300006044820152606490fd5b60405190614462826133e0565b60606080836000815260006020820152600060408201526000838201520152565b60001981146135575760010190565b60005b60048201805482101561386557816144ac916136a5565b90543360039290921b1c6001600160a01b0316146144d6576144cf600491614483565b9050614495565b5050600190565b156144e457565b60405162461bcd60e51b81526020600482015260176024820152760dad2e6dac2e8c6d0cac840c2e4e4c2f240d8cadccee8d604b1b6044820152606490fd5b91908110156134585760051b0190565b61453d8282614bb2565b906040606083015192015182111560001461455a57505050600090565b6137fc92614567916145d6565b906137b8565b6145778282614bb2565b90604060608301519201918251101560001461459557505050600090565b6137fc926145a2916145d6565b9051906137b8565b906145b491614bb2565b60608101516040909101518082116145cd575050600090565b6137fc916137b8565b6137fc916145e391614bb2565b60208101519060608101519051914290614b6f565b156145ff57565b60405162461bcd60e51b8152602060048201526012602482015271496e737566666963656e7420746f6b656e7360701b6044820152606490fd5b906146448133614a31565b61465a815192612681602084019485519061354a565b5180614680575b50518061466f575050600190565b6146799133614691565b38806144d6565b61468b908330614691565b38614661565b90916001600160a01b03808316929083156147af57841693841561475e576146bb6146c092614802565b614802565b60008281528060205260408120549180831061470a57604082826000805160206152c2833981519152958760209652828652038282205586815220818154019055604051908152a3565b60405162461bcd60e51b815260206004820152602660248201527f45524332303a207472616e7366657220616d6f756e7420657863656564732062604482015265616c616e636560d01b6064820152608490fd5b60405162461bcd60e51b815260206004820152602360248201527f45524332303a207472616e7366657220746f20746865207a65726f206164647260448201526265737360e81b6064820152608490fd5b60405162461bcd60e51b815260206004820152602560248201527f45524332303a207472616e736665722066726f6d20746865207a65726f206164604482015264647265737360d81b6064820152608490fd5b6001600160a01b03811660009081526005602052604090209061482490614938565b6008548061483184614915565b1061483b57505050565b8261484b600192613a44956148c5565b016148c5565b60025460085490816148616148e8565b1061486a575050565b600654600160401b92838210156133ca5761488e8260016148a7940160065561368a565b90919082549060031b91821b91600019901b1916179055565b600754918210156133ca5761488e826001613a44940160075561366f565b80549190600160401b8310156133ca578261488e916001613a44950181556136a5565b600654806148f65750600090565b60001981019081116135575761490b9061368a565b90549060031b1c90565b805480614923575050600090565b60001981019081116135575761490b916136a5565b6137fc9060018060a01b0381166000526000602052611919611b3f604060002054611919846149b0565b60009060009283925b6001600160a01b0383168552600d60205260408520548410156149a9576149a161499b6040926119198787614533565b94614483565b93905061496b565b9350915050565b60009060009283925b6001600160a01b0383168552600d60205260408520548410156149a9576149e961499b604092611919878761456d565b9390506149b9565b156149f857565b60405162461bcd60e51b8152602060048201526011602482015270185b5bdd5b9d080f881d5b9b1bd8dad959607a1b6044820152606490fd5b9190604092835190614a42826133fb565b84368337819260018060a01b03821693600092858452602091848352614a7284610d588b882054611919866149b0565b8390855b888752600d8086528b88208054831015614b5a5790886003614ab48f86908f9682614aa09161352e565b50966002809801549552858c528d2061352e565b50015403614acc575050614ac790614483565b614a76565b90919293614ada848761456d565b811115614b2b57614b24614ac793614b1a8f968998978f9682978f9784614b09614b0f928f836145679161456d565b9d61456d565b97528c528d2061352e565b500191825461354a565b9055614483565b945091614b4b939b614b1a9293614b54989b8a989b9a528a52862061352e565b905580946137b8565b81520152565b505050985095505092915083614b54916137b8565b9190614b7d6137fc94613439565b5092600360405194614b8e866133af565b80548652600181015460208701526002810154604087015201546060850152614c68565b90614bbb614455565b5060018060a01b03809216600052614bdd602091600d8352604060002061352e565b509060405192614bec846133e0565b82548452600460019384810154848701526002810154604087015260038101546060870152016040519384859385845492838152019360005285600020956000915b838310614c4e575050505050614c4692500382613416565b608082015290565b875481168652968401968896509481019491840191614c2e565b91906137fc939182519060208401519260606040860151950151955b9591929390600096818111614d4557614c9c916137b8565b94600019850194851161355757614cbc614cb68685613c9f565b8361354a565b861015614d3b5781861015614cd5575b50505050505090565b8394959650614ce990612710929394613c9f565b049482614cf683836137b8565b1015614d03575b80614ccc565b92614d2c86614d26614d31989795614d21614d2196611919996137b8565b6138e3565b926137b8565b613c9f565b3880808080614cfd565b5050509250505090565b5050505050505050600090565b15613c045750565b91614d6791602493614e13565b600f54604051637d8e7d1b60e01b815260ff8316600482015292602091849190829060081c6001600160a01b03165afa908115614dee57613a4492600092614dba575b50614db490614ef3565b90614d52565b614db4919250614de09060203d8111614de7575b614dd88183613416565b810190613a61565b9190614daa565b503d614dce565b6040513d6000823e3d90fd5b908160209103126132f8575160ff811681036132f85790565b600f5460405163cfdb31a960e01b81523060048201526001600160a01b0392831660248201529282166044840152606483019390935290916020918391608491839160081c165afa908115614dee57600091614e6d575090565b6137fc915060203d8111614e8e575b614e868183613416565b810190614dfa565b503d614e7c565b6020818303126132f8578051906001600160401b0382116132f8570181601f820112156132f8578051614ec781613a46565b92614ed56040519485613416565b818452602082840101116132f8576137fc9160208085019101613293565b600f54604051637f4ab1dd60e01b815260ff9290921660048301526000908290602490829060081c6001600160a01b03165afa908115614dee57600091614f38575090565b6137fc913d8091833e61164d8183613416565b15614f5257565b60405162461bcd60e51b815260206004820152602160248201527f444f4553204e4f542048415645205452414e534645522041444d494e20524f4c6044820152604560f81b6064820152608490fd5b15614fa857565b606460405162461bcd60e51b815260206004820152602060248201527f444f4553204e4f54204841564520524553455256452041444d494e20524f4c456044820152fd5b9081526001600160a01b039182166020820152604081019290925291821660608201529116608082015260a081019190915260c00190565b1561502b57565b60405162461bcd60e51b815260206004820152601060248201526f105b1c9958591e4818d85b98d95b195960821b6044820152606490fd5b1561506a57565b60405162461bcd60e51b8152602060048201526011602482015270105b1c9958591e4818dbdb5c1b195d1959607a1b6044820152606490fd5b156150aa57565b60405162461bcd60e51b815260206004820152603260248201527f596f7520617265206e6f7420617070726f70726961746520746f6b656e20736560448201527106e64657220666f72207468697320737761760741b6064820152608490fd5b1561511157565b60405162461bcd60e51b815260206004820152603960248201527f4465706f73697420726576657274656420666f7220696e636f72726563742072604482015278195cdd5b1d081bd98819195c1bdcda5d195908185b5bdd5b9d603a1b6064820152608490fd5b1561517f57565b60405162461bcd60e51b815260206004820152601b60248201527a151a1a5cc81cddd85c081a5cc81b9bdd0818dbdb999a59dd5c9959602a1b6044820152606490fd5b156151c957565b60405162461bcd60e51b815260206004820152602a60248201527f4f6e6c79207377617020636f6e666967757261746f722063616e2063616e636560448201526906c2074686520737761760b41b6064820152608490fdfe496e76616c6964207265737472696374656420746f6b656e20616d6f756e74000d7fd1e314b29407db3d79c46ecf1fa3d2108961fab8d20584277358cac41e89af8133d280a9241f6394046faf602ea059328a743babfff788f98718ccd680730765aaf231b09368f07b83425559b145d7d386b1ff8f16c157a2ff2c7b9896fe839a27e1d7199cf5ace0e4c298611bd5ff22b782dfce92a7fefebf119ec5778eddf252ad1be2c89b69c2b068fc378daa952ba7f163c4a11628f55a4df523b3eff213aa445739b8d5bb514c5e3142fe13baacfa991314172ceaf756996259b8b37e9e87d17fbf2950f3379a6331b75b6e997a147bbd3eaedc68c30c62186c68cba164736f6c6343000814000addf252ad1be2c89b69c2b068fc378daa952ba7f163c4a11628f55a4df523b3ef60406080815234620002b357806000808052806020818152838220620000316200002a8254620002b8565b82620002f5565b600e665355434345535360c81b01905560018252818152838220620000626200005b8254620002b8565b826200032f565b60458155825261434560f01b60018284207f47524541544552205448414e20524543495049454e54204d41582042414c414e8155015560028252818152838220620000b26200002a8254620002b8565b60287f53454e44455220544f4b454e53204c4f434b454400000000000000000000000001905560038252818152838220620000f26200002a8254620002b8565b603a7f444f204e4f542053454e4420544f20544f4b454e20434f4e545241435400000001905560048252818152838220620001326200002a8254620002b8565b60387f444f204e4f542053454e4420544f20454d50545920414444524553530000000001905560058252818152838220620001726200002a8254620002b8565b60307f53454e44455220414444524553532049532046524f5a454e000000000000000001905560068252818152838220620001b26200002a8254620002b8565b60287f414c4c205452414e53464552532050415553454400000000000000000000000001905560078252818152838220620001f26200002a8254620002b8565b60367f5452414e534645522047524f5550204e4f5420415050524f564544000000000001905560088252818152838220620002326200005b8254620002b8565b604d8155825265102620aa22a960d11b60018284207f5452414e534645522047524f5550204e4f5420414c4c4f57454420554e54494c81550155600982525220620002826200002a8254620002b8565b7f524543495049454e5420414444524553532049532046524f5a454e000000003690555161086990816200036d8239f35b600080fd5b90600182811c92168015620002ea575b6020831014620002d457565b634e487b7160e01b600052602260045260246000fd5b91607f1691620002c8565b601f821162000302575050565b6000908152601f60208220920160051c8201915b8281106200032357505050565b81815560010162000316565b601f82116200033c575050565b60009081526002601f60208320930160051c830192015b8281106200036057505050565b8181556001016200035356fe608060408181526004918236101561001657600080fd5b600092833560e01c9182630e65f5b2146103c35750816339b80fa9146103a75781634b5f02801461038b5781634f52bf731461036e578163796a79f4146103525781637ac904eb146103365781637d8e7d1b1461030b5781637f4ab1dd14610188578163a5c9d28a1461016c578163b46c6d2914610150578163cceec23f14610134578163cfdb31a9146100d1575063d0a6d1a6146100b457600080fd5b346100cd57816003193601126100cd5751908152602090f35b5080fd5b9050346101305760803660031901126101305735916001600160a01b0390818416840361012d5760243590828216820361012d57604435928316830361012d575060209360ff926101259260643592610434565b915191168152f35b80fd5b8280fd5b5050346100cd57816003193601126100cd576020905160028152f35b5050346100cd57816003193601126100cd576020905160018152f35b5050346100cd57816003193601126100cd576020905160068152f35b905034610130576020928360031936011261012d57813560ff81168091036100cd57600981116102d1578152808452828120835192829180549060019180831c938382169081156102c7575b8a861082146102b45750918995939185938996875290816000146102915750600114610254575b50505061020e92509593929503826103de565b82519382859384528251928382860152825b84811061023e57505050828201840152601f01601f19168101030190f35b8181018301518882018801528795508201610220565b86528486209492508591905b81831061027957508894505082010161020e38806101fb565b85548884018501529485019487945091830191610260565b9250505061020e94925060ff191682840152151560051b820101869238806101fb565b634e487b7160e01b885260229052602487fd5b94607f16946101d4565b835162461bcd60e51b81528084018690526014602482015273424144205245535452494354494f4e20434f444560601b6044820152606490fd5b90503461013057602036600319011261013057359060ff821680920361013057602092505190158152f35b5050346100cd57816003193601126100cd576020905160058152f35b5050346100cd57816003193601126100cd576020905160088152f35b919050346101305782600319360112610130576020925051908152f35b5050346100cd57816003193601126100cd576020905160038152f35b5050346100cd57816003193601126100cd576020905160078152f35b8490346100cd57816003193601126100cd5780600960209252f35b601f909101601f19168101906001600160401b0382119082101761040157604052565b634e487b7160e01b600052604160045260246000fd5b9081602091031261042f5751801515810361042f5790565b600080fd5b604080516358c3de9360e11b8152600495946001600160a01b03938416949293602093909290919084818a818a5afa9081156106c85760009161083f575b5061083257821680156108285785811461081b57845163c63aa52160e01b80825289820183905260249391868186818c5afa9081156107a2576000916107ee575b5015159081610717575b5061070957855193631f92defb60e31b918286521693848a820152858185818b5afa9081156106fe576000916106e1575b506106d35785519081528189820152848184818a5afa9081156106c85760009161069b575b5061068e578451906340dc95c560e01b82528389830152828201528381604481895afa90811561063d57600091610661575b508015610654574210610648578351631092ab9160e31b815287810183905283818381895afa90811561063d5790879160009161060d575b5010968761059b575b5050505050505061059657600090565b600290565b848495969798505196879384926370a0823160e01b84528301525afa91821561060357506000916105d7575b5090501138808080808080610586565b82813d83116105fc575b6105eb81836103de565b8101031261012d57505180386105c7565b503d6105e1565b513d6000823e3d90fd5b91508482813d8311610636575b61062481836103de565b8101031261012d57508690513861057d565b503d61061a565b85513d6000823e3d90fd5b50505050505050600890565b5050505050505050600790565b908482813d8311610687575b61067781836103de565b8101031261012d57505138610545565b503d61066d565b5050505050505050600990565b6106bb9150853d87116106c1575b6106b381836103de565b810190610417565b38610513565b503d6106a9565b86513d6000823e3d90fd5b505050505050505050600590565b6106f89150863d88116106c1576106b381836103de565b386104ee565b87513d6000823e3d90fd5b505050505050505050600190565b905086516370a0823160e01b8152838b820152868186818c5afa9081156107a2576000916107c1575b508981018091116107ad578751918252838b830152868286818c5afa9182156107a257600092610773575b5011386104bd565b90918782813d831161079b575b61078a81836103de565b8101031261012d575051903861076b565b503d610780565b88513d6000823e3d90fd5b8460118c634e487b7160e01b600052526000fd5b908782813d83116107e7575b6107d781836103de565b8101031261012d57505138610740565b503d6107cd565b908782813d8311610814575b61080481836103de565b8101031261012d575051386104b3565b503d6107fa565b5050505050505050600390565b5050505050505090565b5050505050505050600690565b6108569150853d87116106c1576106b381836103de565b3861047256fea164736f6c6343000814000aa164736f6c6343000814000a",
  "linkReferences": {},
  "deployedLinkReferences": {}
}