{
  "_format": "hh-sol-artifact-1",
  "contractName": "SecurityTokenDeployer",
  "sourceName": "contracts/security-token/SecurityTokenDeployer.sol",
  "abi": [
    {
      "inputs": [
        {
          "internalType": "address",
          "name": "transferRules_",
          "type": "address"
        },
        {
          "internalType": "address",
          "name": "contractAdmin_",
          "type": "address"
        },
        {
          "internalType": "address",
          "name": "tokenReserveAdmin_",
          "type": "address"
        },
        {
          "internalType": "string",
          "name": "symbol_",
          "type": "string"
        },
        {
          "internalType": "string",
          "name": "name_",
          "type": "string"
        },
        {
          "internalType": "uint8",
          "name": "decimals_",
          "type": "uint8"
        },
        {
          "internalType": "uint256",
          "name": "totalSupply_",
          "type": "uint256"
        },
        {
          "internalType": "uint256",
          "name": "maxTotalSupply_",
          "type": "uint256"
        },
        {
          "internalType": "uint256",
          "name": "minTimelockAmount_",
          "type": "uint256"
        },
        {
          "internalType": "uint256",
          "name": "maxReleaseDelay_",
          "type": "uint256"
        }
      ],
      "name": "deployRestrictedSwap",
      "outputs": [
        {
          "internalType": "address",
          "name": "addr",
          "type": "address"
        }
      ],
      "stateMutability": "nonpayable",
      "type": "function"
    },
    {
      "inputs": [],
      "name": "deployTransferRules",
      "outputs": [
        {
          "internalType": "address",
          "name": "addr",
          "type": "address"
        }
      ],
      "stateMutability": "nonpayable",
      "type": "function"
    }
  ],
  "bytecode": "0x6080806040523461001657616ee5908161001c8239f35b600080fdfe6080604090808252600491823610156200001857600080fd5b600091823560e01c9081634cdb041e14620001ab57506370f6711f146200003e57600080fd5b34620001a75761014080600319360112620001a3576001600160a01b0390843582811691908290036200019f57602435908382168092036200019b5760443584811680910362000197576001600160401b03916064358381116200019357620000ab9036908b0162000220565b906084358481116200018f57620000c69036908c0162000220565b9260a4359560ff87168097036200018b5789519761601e808a019788118a8910176200017757926200012d95928a99989795926200011e95620002e58c39885260208801528b870152806060870152850190620002a2565b908382036080850152620002a2565b9160a082015260c43560c082015260e43560e08201526101043561010082015261012061012435910152039084f09182156200016e57602093505191168152f35b513d84823e3d90fd5b50634e487b7160e01b8c5260418d5260248cfd5b8a80fd5b8980fd5b8880fd5b8680fd5b8580fd5b8480fd5b8280fd5b5080fd5b905034620001a35782600319360112620001a357610bd6818101906001600160401b038211838310176200020d57908291620063038339039083f09081156200020257516001600160a01b03909116815260209150f35b51913d9150823e3d90fd5b634e487b7160e01b855260418652602485fd5b81601f8201121562000287576001600160401b0391813591908383116200028c5760405193601f8401601f19908116603f01168501908111858210176200028c57604052828452602083830101116200028757816000926020809301838601378301015290565b600080fd5b634e487b7160e01b600052604160045260246000fd5b919082519283825260005b848110620002cf575050826000602080949584010152601f8019910116010190565b602081830181015184830182015201620002ad56fe60c060409080825234620007f4576200601e803803809162000022828562000815565b833981019161014082840312620007f4576200003e8262000839565b916200004d6020820162000839565b6200005a83830162000839565b60608301519093906001600160401b038111620007f457866200007f9185016200084e565b608084015190966001600160401b038211620007f457620000a29185016200084e565b60a08401519560ff87168703620007f45760c08501519360e086015161012061010088015197015193805160018060401b038111620006cb5760035491600183811c93168015620007e9575b6020841014620007d3578190601f938481116200077c575b50602090848311600114620006ed57600092620006e1575b50508160011b916000199060031b1c1916176003555b8a51906001600160401b038211620006cb5760049b8c54600181811c91168015620006c0575b6020821014620006ab579081838594931162000652575b506020918311600114620005e757600092620005db575b50508160011b916000199060031b1c1916178a555b6001600b556015805460ff19908116909155926001600160a01b0392838216156200058c5783169283156200053f578916998a15620004ea5760ff600f54911691610100600160a81b039060081b169060018060a81b0319161717600f55601055600052600960205282600020600182825416179055600181600a541617600a55866000526002836000209182549060ff8216911617179055600560205281600020936000602052826000205497600097885b81600052600d60205285600020548a101562000290576200028262000289916200027b8c8c62000ac2565b90620008c5565b99620009c8565b9862000250565b620002a0908b99979899620008c5565b96600098895b83600052600d60205287600020548b1015620002df57620002d1620002d8916200027b8d8c620009d8565b9a620009c8565b99620002a6565b620002eb908a620008c5565b60085480620002fa84620009a1565b10620004c7575b505050600254600854806200031562000970565b10620003e4575b505060008051602062005ffe83398151915260208262000341600094600254620008c5565b6002558484528382528884208181540190558851908152a38115620003a1575060805260a0526000601855516152e8908162000d1682396080518181816122790152613f6d015260a05181818161277201528181612a270152613fe30152f35b606490602085519162461bcd60e51b8352820152601760248201527f4d696e2074696d656c6f636b20616d6f756e74203e20300000000000000000006044820152fd5b60065490680100000000000000009182811015620004b25790620004138260016200042c9401600655620008e9565b90919082549060031b91821b91600019901b1916179055565b600754908110156200049d576001810180600755811015620004885760076000527fa66cc928b5edb82af9bd49922954155ab7b0942694bea4ce44661d9a8736c688015560008051602062005ffe83398151915260206200031c565b603285634e487b7160e01b6000525260246000fd5b604185634e487b7160e01b6000525260246000fd5b604187634e487b7160e01b6000525260246000fd5b82620004da600192620004e19562000934565b0162000934565b86808062000301565b865162461bcd60e51b81526020818e0152602960248201527f546f6b656e20726573657276652061646d696e20616464726573732063616e6e60448201526806f74206265203078360bc1b6064820152608490fd5b865162461bcd60e51b81526020818e0152602160248201527f546f6b656e206f776e657220616464726573732063616e6e6f742062652030786044820152600360fc1b6064820152608490fd5b865162461bcd60e51b81526020818e01526024808201527f5472616e736665722072756c657320616464726573732063616e6e6f742062656044820152630203078360e41b6064820152608490fd5b01519050388062000188565b60008e8152602081209350601f198516905b8181106200063957509084600195949392106200061f575b505050811b018a556200019d565b015160001960f88460031b161c1916905538808062000611565b92936020600181928786015181550195019301620005f9565b909192508d60005260206000208380860160051c82019260208710620006a1575b94869594939291940160051c01905b81811062000691575062000171565b6000815585945060010162000682565b9250819262000673565b60228e634e487b7160e01b6000525260246000fd5b90607f16906200015a565b634e487b7160e01b600052604160045260246000fd5b0151905038806200011e565b6003600090815293507fc2575a0e9e593c00f959f8c92f12db2869c3395a3b0502d05e2516446f71f85b91905b601f198416851062000760576001945083601f1981161062000746575b505050811b0160035562000134565b015160001960f88460031b161c1916905538808062000737565b818101518355602094850194600190930192909101906200071a565b909150600360005260206000208480850160051c82019260208610620007c9575b9085949392910160051c01905b818110620007b9575062000106565b60008155849350600101620007aa565b925081926200079d565b634e487b7160e01b600052602260045260246000fd5b92607f1692620000ee565b600080fd5b60a081019081106001600160401b03821117620006cb57604052565b601f909101601f19168101906001600160401b03821190821017620006cb57604052565b51906001600160a01b0382168203620007f457565b919080601f84011215620007f4578251906001600160401b038211620006cb57604051916020916200088a601f8301601f191684018562000815565b818452828287010111620007f45760005b818110620008b157508260009394955001015290565b85810183015184820184015282016200089b565b91908201809211620008d357565b634e487b7160e01b600052601160045260246000fd5b6006548110156200090557600660005260206000200190600090565b634e487b7160e01b600052603260045260246000fd5b8054821015620009055760005260206000200190600090565b9081549168010000000000000000831015620006cb57826200041391600162000960950181556200091b565b565b91908203918211620008d357565b600654806200097f5750600090565b6000198101908111620008d3576200099790620008e9565b90549060031b1c90565b805480620009b0575050600090565b6000198101908111620008d35762000997916200091b565b6000198114620008d35760010190565b620009e4828262000b06565b906040606083015192015182111560001462000a0257505050600090565b62000a199262000a129162000a1c565b9062000962565b90565b9062000a289162000b06565b602081015160608201519151600c548110156200090557600c600052604051608081019260029290921b7fdf6966c971051c3d54ec59162606531493a51404a002842f56009d7e5cf4a8c701916001600160401b03841182851017620006cb5762000a1994606094604052835491828452600185015493846020820152600360028701549687604084015201549687910152429062000c2c565b62000ace828262000b06565b90604060608301519201918251101560001462000aed57505050600090565b62000a199262000afd9162000a1c565b90519062000962565b6040805162000b1581620007f9565b60009384825260606080602093878582015287868201528783820152015260018060a01b038094168552600d8252828520805482101562000be357855281852083519593916005020162000b6986620007f9565b80548652600460019182810154858901526002810154848901526003810154606089015201915180958487958554938481520194875280872096915b83831062000bc857505050505062000bc09250038262000815565b608082015290565b87548116865296840196889650948101949184019162000ba5565b634e487b7160e01b86526032600452602486fd5b81810292918115918404141715620008d357565b811562000c16570490565b634e487b7160e01b600052601260045260246000fd5b959192939060009681811162000d085762000c479162000962565b946000198501948511620008d35762000c6c62000c65868562000bf7565b83620008c5565b86101562000cfe578186101562000c87575b50505050505090565b839495965062000c9d9061271092939462000bf7565b04948262000cac838362000962565b101562000cbb575b8062000c7e565b9262000ced8662000ce662000cf398979562000ce062000ce0966200027b9962000962565b62000c0b565b9262000962565b62000bf7565b388080808062000cb4565b5050509250505090565b505050505050505060009056fe608060408181526004918236101561001657600080fd5b600092833560e01c91826306fdde031461312b57508163077d3c0314612fa257816307c9cd4514612e4d5781630872512b14612dab578163095ea7b314612d815781630c81510314612d585781630f8ad1b414612a4a57816314cf86eb14612a0f57816318160ddd146129f05781631d36f08b146129ae57816321bb56d71461275e57816323b872dd146125965781632a3bf5341461232c5781632ab4d0521461230d5781632beafc89146122f5578163313ce567146122d357816332424aa3146122d3578163350724a91461229c578163370de0431461226157816339509351146122115781633c637d74146121e05781633e840236146120d65781633f4ba83a1461208f57816340c10f1914611f4e57816340dc95c514611ef057816345d1129914611e1f5781634e2b303514611e025781634ee2cd7e14611da75781635247ab0514611c975781635439ad8614611c7857816357656cfe14611bc3578163593b643914611b9a5781635f7c537714611b3f57816364ca0ac314611adb5781636968f8b314611aa85781636aea0d2e14611a7e5781636ec9d56f14611a6257816370a0823114611a3c5781637d7b368b14611a135781637f4ab1dd146119dc578163809c18751461199e57816382074ac2146119005781638456cb59146118b557816384955c88146118725781638648c6a6146118535781638b9d68991461182d5781638d56cc9c146117c45781638e4f11ff1461175f5781638e64eac51461173d5781638fbe818a1461142457816390fc7e91146113ec57816395a8c58d146113be57816395d89b41146112dc57816396305c89146112bd5781639711715a1461125e578163976475d01461107a578163981b24d0146110415781639dc29fac14610eb6578163a2e2661614610e9a578163a457c2d714610df2578163a742c88e14610dcc578163a9059cbb14610d7b578163a9b1f05114610d1d578163ad061e2514610cf4578163b187bd2614610cd0578163b30bfa3d14610c98578163b7ed478514610b4d578163b7ef81e114610b2e578163bf120ae514610a22578163c0779ded1461081e578163c63aa521146107e6578163ceca46c2146107b9578163d4ce141514610793578163db74fa361461075b578163dd62ed3e14610712578163dfb7300e14610674578163e98a0c6414610600578163ea612ae814610581578163ecd158cf146104db578163f0658198146104ab578163fbc6d1cb146103eb575063fc96f7d8146103ab57600080fd5b346103e75760203660031901126103e75760209160ff9082906001600160a01b036103d461324d565b1681526014855220541690519015158152f35b5080fd5b839150346103e757826003193601126103e75761040661324d565b6024359182158015610485575b1561042757509061042491336134d8565b80f35b608490602086519162461bcd60e51b8352820152603260248201527f43616e6e6f7420617070726f76652066726f6d206e6f6e2d7a65726f20746f206044820152716e6f6e2d7a65726f20616c6c6f77616e636560701b6064820152fd5b50338452600160209081528585206001600160a01b038416865290528484205415610413565b5050346103e757806003193601126103e7576020906104d46104cb61324d565b60243590614527565b9051908152f35b5050346103e7576104eb3661343f565b926001600160a01b03909216916105038315156138c4565b61050f82303386613bb1565b838552601760205280852083865260205280852061052e8382546134b5565b905583855260176020528085208386526020526001818620016105528382546134b5565b9055519081527f73884fbf40e5433ea6f75b9343f3208649c9b8430641c927f0ed89d4eac6945b60203392a480f35b5050346103e757806003193601126103e75761059b61324d565b6001600160a01b03168252600d602052808220805460243591908210156105fc57906105c691613499565b508054600182015460028301546003909301549351918252602082015260408101919091526060810191909152608090f35b0390f35b8380fd5b9050346106705760603660031901126106705735602435916044359061062d61062833613ee0565b614f05565b82855260136020528085208486526020528181862055519081527f5845e315015ee03f0d4ab1d198172b4f733609dc3de8b957ae1d86c87403018960203392a480f35b8280fd5b905034610670576020366003190112610670576001600160a01b03903581811680820361070e577f8c78349fc44add47ae711ddc6e926b7845597c57473e587420693d8d0547845a936060936106cc61062833613ee0565b6106d7831515613dcf565b600f8054610100600160a81b03198116600896871b610100600160a81b0316179091558251338152941c166020840152820152a180f35b8480fd5b5050346103e757806003193601126103e7578060209261073061324d565b610738613268565b6001600160a01b0391821683526001865283832091168252845220549051908152f35b5050346103e75760203660031901126103e75760209181906001600160a01b0361078361324d565b1681526012845220549051908152f35b5050346103e75760209060ff6107b16107ab366132ac565b91614dcd565b915191168152f35b5050346103e757816003193601126103e757600f54905160089190911c6001600160a01b03168152602090f35b5050346103e75760203660031901126103e75760209181906001600160a01b0361080e61324d565b1681526011845220549051908152f35b90503461067057602091826003193601126105fc578135908185526019845260ff600582872001541683811015610a0f576002816108626003610869941415614fde565b141561501d565b8185526019845280852080546001600160a01b039081169591949161088f33881461505d565b600286019282845416978551916370a0823160e01b918284528184015283836024818d5afa928315610a05579084918c946109d0575b506108d7818b019b8c54903390613975565b60248688541693878c5416948a51958694859384528301525afa9283156109c6578a93610976575b50509161092d6109709594926109278a9560008051602061525c8339815191529b54906134b5565b146150c4565b60058701600260ff19825416179055600187019080808084541699610959600382019b8c54903361464b565b541698549254169254169254935196879687614fa6565b0390a180f35b908099949296959350813d83116109bf575b6109928183613381565b810103126109bb579651919692939092919061092d60008051602061525c8339815191526108ff565b8880fd5b503d610988565b86513d8c823e3d90fd5b8281939295503d83116109fe575b6109e88183613381565b810103126109fa5783905192386108c5565b8a80fd5b503d6109de565b87513d8d823e3d90fd5b634e487b7160e01b865260218452602486fd5b905034610670578160031936011261067057610a3c61324d565b916024359081151593848303610b2a576001600160a01b031692610a61841515613dcf565b610a6a33613eb6565b8015610b1b575b15610abf575090610a9791838652601460205285209060ff801983541691151516179055565b337f17ec2643977f0865dd45350e9efdcdfead258c9220974e67d1a37ca1447722938480a480f35b6020608492519162461bcd60e51b8352820152603160248201527f444f4553204e4f5420484156452057414c4c4554532041444d494e204f5220526044820152704553455256452041444d494e20524f4c4560781b6064820152fd5b50610b2533613e8c565b610a71565b8580fd5b5050346103e757816003193601126103e757602090600c549051908152f35b9050346106705760a0366003190112610670576001600160401b03813581811161070e57610b7e9036908401613469565b602493919335838111610c9457610b989036908401613469565b9290916044358581116109bb57610bb29036908401613469565b9490916064358781116109fa57610bcc9036908601613469565b979094608435918211610c9057610be591369101613469565b959091610bf3848214614497565b610bfe888214614497565b610c09898214614497565b8b5b818110610c1c5760208c5160018152f35b610c2781838d6144dd565b356001600160a01b0381168103610c8c57610c7590878c610c6285610c5a8f8290610c53828f8e6144dd565b35966144dd565b35928d6144dd565b3591610c6f368e8b6133d9565b93613f55565b15610c8857610c839061443d565b610c0b565b8c80fd5b8d80fd5b8b80fd5b8680fd5b5050346103e75760203660031901126103e75760209181906001600160a01b03610cc061324d565b168152600d845220549051908152f35b5050346103e757816003193601126103e75760209060ff6015541690519015158152f35b5050346103e757806003193601126103e7576020906104d4610d1461324d565b60243590614564565b5050346103e757610d74602092826002610d5f610d393661343f565b91949095610d5287610d4b8533614527565b10156149ab565b338152600d8a5220613499565b5001610d6c8382546134b5565b905530613975565b5160018152f35b5050346103e757806003193601126103e757602090610dc3610d9b61324d565b60243590610db36001600160a01b0382161515613dcf565b610dbe828233614d14565b6145f3565b90519015158152f35b5050346103e75760203660031901126103e7576020906104d4610ded61324d565b61496a565b90508234610e975782600319360112610e9757610e0d61324d565b918360243592338152600160205281812060018060a01b0386168252602052205490828210610e4657602085610d7485850387336134d8565b608490602086519162461bcd60e51b8352820152602560248201527f45524332303a2064656372656173656420616c6c6f77616e63652062656c6f77604482015264207a65726f60d81b6064820152fd5b80fd5b5050346103e7576020906104d4610eb0366132ac565b91613c1d565b839150346103e757826003193601126103e757610ed161324d565b6001600160a01b03811691602435918315610eec8115613dcf565b610efd610ef833613e8c565b614f5b565b610f06826148f2565b841161100157610fb457610f19906147bc565b610f2161480b565b828452836020528484205490828210610f66575081849560008051602061527c833981519152936020938688528785520381872055816002540360025551908152a380f35b608490602087519162461bcd60e51b8352820152602260248201527f45524332303a206275726e20616d6f756e7420657863656564732062616c616e604482015261636560f01b6064820152fd5b855162461bcd60e51b8152602081840152602160248201527f45524332303a206275726e2066726f6d20746865207a65726f206164647265736044820152607360f81b6064820152608490fd5b865162461bcd60e51b8152602081850152601a60248201527924b739bab33334b1b2b73a103a37b5b2b739903a3790313ab93760311b6044820152606490fd5b905034610670576020366003190112610670579161106160209335613628565b91501561107057905b51908152f35b506002549061106a565b90503461067057602090816003193601126105fc578035908185526019835260ff60058587200154168181101561124b5760028161086260036110be941415614fde565b81855260198352838520926001840160018060a01b036110e281835416331461505d565b6002860192888883865416848a5416978251916370a0823160e01b908184528a838501528684602481845afa9586156112405787948e9197611206575b50602492918461113592019c8d54913390613bb1565b8c88808c54169154169551958694859384528301525afa9283156111fc578b936111aa575b50509161118386949261092760008051602061525c8339815191529b97956109709954906134b5565b60058801600260ff1982541617905580808084541699610959600382019b8c54903061464b565b90809a96949297959350813d83116111f5575b6111c78183613381565b810103126111f157975193979294919390929161118360008051602061525c83398151915261115a565b8980fd5b503d6111bd565b8a513d8d823e3d90fd5b9492955050945082813d8311611239575b6112218183613381565b81010312610c88579051928b928592918c602461111f565b503d611217565b8551903d90823e3d90fd5b634e487b7160e01b865260218252602486fd5b5050346103e757816003193601126103e75760209061128461127f33613e13565b61386e565b60016008540190816008557f8030e83b04d87bef53480e26263266d6ca66863aa8506aca6f2559d18aa1cb67838251848152a151908152f35b5050346103e7576020906104d46112d33661328e565b92919091614b29565b8383346103e757816003193601126103e757805191809380549160019083821c928285169485156113b4575b60209586861081146113a15785895290811561137d5750600114611342575b6105f88787611338828c0383613381565b5191829182613221565b9080949750528583205b82841061136a57505050826105f89461133892820101948680611327565b805486850188015292860192810161134c565b60ff19168887015250505050151560051b8301019250611338826105f88680611327565b634e487b7160e01b845260228352602484fd5b93607f1693611308565b5050346103e757806003193601126103e757602090610dc36113de61324d565b6113e661327e565b90613e3d565b828434610e975760e0366003190112610e9757506104d460209260c4359060a435906084359060643590604435906024359035614c3e565b8383346103e757611434366132e1565b929392916001600160a01b038281169081156116fd5786611454336148f2565b106116ae57861561167d57841561163d57821680156115fc5761148e61147b888633614dcd565b60ff61148682614ead565b911615614d0c565b87808751602081019063d4ce141560e01b82526114c2816114b48b338c60248501613b8f565b03601f198101835282613381565b519082875af16114d0613aca565b9061157d575b506018546001810180911161156a57926005899a87948997948b9960008051602061521c8339815191529b6104249e8a6115609b60185581526019602052209360018060a01b03199333858754161786558c600387015560018601908582541617905584015560028301918254161790550160ff1981541690556018549451958695339087614fa6565b0390a1303361464b565b634e487b7160e01b895260118a52602489fd5b8060208061159093518301019101614db4565b60ff875191637f4ab1dd60e01b835216808b8301528982602481865afa9182156115f257906115c892918b926115ce575b5015614d0c565b896114d6565b6115eb9192503d808d833e6115e38183613381565b810190614e4f565b908c6115c1565b88513d8c823e3d90fd5b855162461bcd60e51b81526020818b0152601b60248201527a496e76616c69642071756f746520746f6b656e206164647265737360281b6044820152606490fd5b855162461bcd60e51b81526020818b0152601a602482015279125b9d985b1a59081c5d5bdd19481d1bdad95b88185b5bdd5b9d60321b6044820152606490fd5b855162461bcd60e51b81526020818b0152601f60248201526000805160206151dc8339815191526044820152606490fd5b855162461bcd60e51b81526020818b01526024808201527f496e73756666696369656e74207265737472696374656420746f6b656e20616d6044820152631bdd5b9d60e21b6064820152608490fd5b855162461bcd60e51b81526020818b0152601a60248201527924b73b30b634b21038bab7ba32903a37b5b2b71039b2b73232b960311b6044820152606490fd5b5050346103e757816003193601126103e75760209060ff600a54169051908152f35b9050346106705760a03660031901126106705761177a61324d565b92608435906001600160401b038211610e975736602383011215610e975750926117b2610dc3928560246020973693013591016133d9565b90606435906044359060243590613f55565b5050346103e757806003193601126103e7576117de61324d565b602435916001600160a01b039091169082906117fb831515613dcf565b61180c61180733613eb6565b613f0a565b82855260116020528420553360008051602061523c8339815191528480a480f35b5050346103e75760203660031901126103e7576020906104d461184e61324d565b61491c565b5050346103e757816003193601126103e7576020906018549051908152f35b5050346103e75760203660031901126103e7576104d46020926118af8361189761324d565b6001600160a01b03811684528387529220549161496a565b906134b5565b5050346103e757816003193601126103e7576000805160206151fc833981519152906118e361127f33613e13565b600160ff196015541617601555805133815260016020820152a180f35b828434610e975781600319360112610e97579061192761191e61324d565b60243590614b6c565b8151928392608060209384865260c08601928151868801528582015181880152810151606087015260608101518287015201519260a08086015283518092528060e086019401925b82811061197e57505050500390f35b83516001600160a01b03168552869550938101939281019260010161196f565b5050346103e757806020926119b2366132ac565b8352601686528383206001600160a01b039283168452865283832091168252845220549051908152f35b90503461067057602036600319011261067057359160ff83168303610e975750611a086105f892614ead565b905191829182613221565b5050346103e757806003193601126103e7576020906104d4611a3361324d565b602435906144ed565b5050346103e75760203660031901126103e7576020906104d4611a5d61324d565b6148f2565b5050346103e7576020906104d4611a78366132ac565b91613d44565b839150346103e75760203660031901126103e7573590600c54821015610e9757506105c6906133a4565b5050346103e75760203660031901126103e7576020906104d4611ac961324d565b6118af611ad58261496a565b9161491c565b5050346103e757806003193601126103e757611af561324d565b602435916001600160a01b03909116908290611b12831515613dcf565b611b1e61180733613eb6565b82855260126020528420553360008051602061529c8339815191528480a480f35b828434610e975760e0366003190112610e97576080366063190112610e9757506104d4602092825190611b718261331a565b60643582526084358583015260a4358483015260c4356060830152604435906024359035614c22565b5050346103e757806003193601126103e7576020906104d4611bba61324d565b60243590613bd9565b5050346103e757806003193601126103e757611bdd61324d565b60243591611bed61127f33613e13565b611bf5613904565b6001600160a01b03821691611c16908490611c118515156138c4565b613bd9565b90611c22823385613975565b8385526017602052808520838652602052600181862001611c44838254613723565b9055519081527f91fb9d98b786c57d74c099ccd2beca1739e9f6a81fb49001ca465c4b7591bbe260203392a46001600b5580f35b5050346103e757816003193601126103e7576020906008549051908152f35b91905034610670578060031936011261067057611cb261324d565b9160243592611cbf613904565b611cca843383613d44565b918215611d6457506001600160a01b0316917f2f6639d24651730c7bf57c95ddbf96d66d11477e4ec626876f92c22e5f365e6890611d09833386613975565b8486526020906016825280872085885282528087203388528252808720611d318582546134b5565b9055858752601782528087208588528252600181882001611d53858254613723565b9055519283523392a46001600b5580f35b606490602085519162461bcd60e51b8352820152601d60248201527f594f552043414e60542052454345495645204d4f524520544f4b454e530000006044820152fd5b5050346103e757806003193601126103e757602091611dc461324d565b6001600160a01b038116825260058452828220611de3906024356136ec565b925015611df257509051908152f35b611dfc91506148f2565b9061106a565b5050346103e757816003193601126103e757602090516127108152f35b9050346106705760a036600319011261067057611e3a61324d565b60243592606435926084359283151595868503611eec576001600160a01b0390911694610a61918615159190611e6f83613dcf565b611e7b61180733613eb6565b611e8483613dcf565b611e9061180733613eb6565b878a52601260205280868b2055873360008051602061529c8339815191528c80a4611eba82613dcf565b611ec661180733613eb6565b868952601160205280858a2055863360008051602061523c8339815191528b80a4613dcf565b8780fd5b5050346103e757806003193601126103e75780602092611f0e61324d565b611f16613268565b6001600160a01b0391821683526012808752848420548452601387528484209290911683528552828220548252845220549051908152f35b91905034610670578060031936011261067057611f6961324d565b6001600160a01b038116926024359291908415611f868115613dcf565b611f92610ef833613e8c565b611f9e856002546134b5565b6010541061203957611ff65750849260008051602061527c83398151915292611fc86020936147bc565b611fd061480b565b611fdc826002546134b5565b60025585855284835280852082815401905551908152a380f35b606490602084519162461bcd60e51b8352820152601f60248201527f45524332303a206d696e7420746f20746865207a65726f2061646472657373006044820152fd5b835162461bcd60e51b8152602081840152602a60248201527f43616e6e6f74206d696e74206d6f7265207468616e20746865206d617820746f60448201526974616c20737570706c7960b01b6064820152608490fd5b5050346103e757816003193601126103e7576000805160206151fc833981519152906120bd61127f33613e13565b60ff19601554166015558051338152836020820152a180f35b8383346103e757806003193601126103e7576120f061324d565b6120f861327e565b9160ff80841692831515806121d2575b61211190613d88565b6001600160a01b031693612126851515613dcf565b61213261127f33613e13565b8486526009602052600183872054161590816121c5575b5061218a575b8495508360019552600960205281862090838254918216179060ff1916179055519081526000805160206152bc83398151915260203392a480f35b600a548181168281146121b257600180979850839101169060ff191617600a5585945061214f565b634e487b7160e01b875260118852602487fd5b6001915016151587612149565b50600f858117831614612108565b9050346106705781600319360112610670576020928291358152601384528181206024358252845220549051908152f35b5050346103e757806003193601126103e757610d7460209261225a61223461324d565b338352600186528483206001600160a01b038216845286529184902054602435906134b5565b90336134d8565b5050346103e757816003193601126103e757602090517f00000000000000000000000000000000000000000000000000000000000000008152f35b5050346103e75760203660031901126103e75760209181906001600160a01b036122c461324d565b16815280845220549051908152f35b5050346103e757816003193601126103e75760209060ff600f54169051908152f35b8334610e9757610424612307366132ac565b91614d14565b5050346103e757816003193601126103e7576020906010549051908152f35b8383346103e75761233c366132e1565b936001600160a01b038084169493929085156125535784156125225786156124e25781169485156124a15761237561147b863387614dcd565b87808451602081019063d4ce141560e01b825261239b816114b48d8b3360248501613b8f565b519082865af16123a9613aca565b90612447575b506018546001810180911161156a579261243b9260058a9b8a9485856104249e8a60008051602061521c8339815191529d9c9b60185581526019602052209260018060a01b031992838554161784558a60038501556001840133848254161790558301558a600283019182541617905501600160ff198254161790556018549151958695339387614fa6565b0390a130903390613bb1565b8060208061245a93518301019101614db4565b60ff845191637f4ab1dd60e01b835216808b83015289826024818b5afa918215612497579061249192918b926115ce575015614d0c565b896123af565b85513d8c823e3d90fd5b825162461bcd60e51b81526020818b0152601b60248201527a496e76616c69642071756f746520746f6b656e206164647265737360281b6044820152606490fd5b825162461bcd60e51b81526020818b0152601a602482015279125b9d985b1a59081c5d5bdd19481d1bdad95b88185b5bdd5b9d60321b6044820152606490fd5b825162461bcd60e51b81526020818b0152601f60248201526000805160206151dc8339815191526044820152606490fd5b825162461bcd60e51b81526020818b0152601f60248201527f496e76616c6964207265737472696374656420746f6b656e2073656e646572006044820152606490fd5b8383346103e7576125a6366132ac565b93916001600160a01b03828116151580612753575b6125c490613dcf565b811692838152602095600187528582203383528752858220548082116126ef576125ef828686614d14565b6125f982856149eb565b9061261682519361260f8b8501958651906134b5565b10156145b2565b815191826126cf575b505050519384612633575b86865160018152f35b9085918152600187528181203382528752205495600019870361266a575b5061265e9394955061464b565b8190838080808061262a565b83871061268c57506126848361265e9596970333836134d8565b859493612651565b845162461bcd60e51b8152908101869052601d60248201527f45524332303a20696e73756666696369656e7420616c6c6f77616e63650000006044820152606490fd5b6126dd6126e793883061464b565b51900333856134d8565b88808061261f565b865162461bcd60e51b8152808a01899052603860248201527f54686520617070726f76656420616c6c6f77616e6365206973206c6f776572206044820152771d1a185b881d1a19481d1c985b9cd9995c88185b5bdd5b9d60421b6064820152608490fd5b5081811615156125bb565b839150346103e75761276f3661328e565b917f000000000000000000000000000000000000000000000000000000000000000081116129755760018410612944576127108083116129105760018511156128c057508215612890575b8651936127c68561331a565b84526020840190815286840191825260608401928352600c54600160401b81101561287d578060016127fb9201600c556133a4565b94909461286b5751845551600184015551600283015551600390910155600c5460001981019190821161285857508060209351927f9c52cb9bbb9b7fa6ddb26d1e82afc4e62c9ec50c0f3488c10bb8ad22d4edc4c3339180a38152f35b634e487b7160e01b835260119052602482fd5b634e487b7160e01b8752868652602487fd5b634e487b7160e01b875260418652602487fd5b865162461bcd60e51b8152602081870152600a6024820152690706572696f64203d20360b41b6044820152606490fd5b600185146128cf575b506127ba565b82036128db57876128c9565b865162461bcd60e51b8152602081870152600f60248201526e72656c6561736564203c203130302560881b6044820152606490fd5b875162461bcd60e51b8152602081880152600e60248201526d72656c65617365203e203130302560901b6044820152606490fd5b865162461bcd60e51b8152602081870152600b60248201526a3c20312072656c6561736560a81b6044820152606490fd5b865162461bcd60e51b815260208187015260136024820152720ccd2e4e6e840e4cad8cac2e6ca407c40dac2f606b1b6044820152606490fd5b5050346103e757806003193601126103e757806020926129cc61324d565b6024358252601785528282206001600160a01b039091168252845220549051908152f35b5050346103e757816003193601126103e7576020906002549051908152f35b5050346103e757816003193601126103e757602090517f00000000000000000000000000000000000000000000000000000000000000008152f35b8383346103e75760c03660031901126103e757612a6561324d565b60a4359360248035906001600160a01b0380881690818903611eec57851691828852602097600d895284888220541115612d23578215612ce85784888286612ab29452600d8c5220613499565b5095612abd8761444c565b15612c9257604435875403612c4557606435600188015403612bed576003870195608435875403612b9f57612af286836144ed565b928315612b60575050612b2260029798999a82612b1c612b13898796614527565b95869330613975565b30613975565b885192835289830152878201527f6945f4788d8a6b16089d616d1f7bb52372bfdbc43addd3386a7842db4199986a60603392a4549101555160018152f35b895162461bcd60e51b81529182018b9052601a9082015279151a5b595b1bd8dac81a185cc81b9bc81d985b1d59481b19599d60321b6044820152606490fd5b885162461bcd60e51b81529081018a90526023818401527f457870656374656420746f74616c416d6f756e7420646f6573206e6f74206d616044820152620e8c6d60eb1b6064820152608490fd5b875162461bcd60e51b81528087018a9052602d818401527f457870656374656420636f6d6d656e63656d656e7454696d657374616d70206460448201526c0decae640dcdee840dac2e8c6d609b1b6064820152608490fd5b875162461bcd60e51b81528087018a90526022818401527f4578706563746564207363686564756c65496420646f6573206e6f74206d61746044820152610c6d60f31b6064820152608490fd5b875162461bcd60e51b81528087018a9052602b818401527f596f7520617265206e6f7420616c6c6f77656420746f2063616e63656c20746860448201526a69732074696d656c6f636b60a81b6064820152608490fd5b875162461bcd60e51b81528087018a905260168184015275496e76616c6964207265636c61696d546f6b656e546f60501b6044820152606490fd5b875162461bcd60e51b81528087018a90526010818401526f696e76616c69642074696d656c6f636b60801b6044820152606490fd5b5050346103e757806003193601126103e7576020906104d4612d7861324d565b60243590614590565b5050346103e757806003193601126103e757602090610d74612da161324d565b60243590336134d8565b8383346103e75760203660031901126103e75782358083526019602052818320546001600160a01b031615612e11578252601960205260ff600582842001541690519183821015612dfe57602083838152f35b634e487b7160e01b815260218452602490fd5b815162461bcd60e51b8152602081860152601660248201527553776170207265636f7264206e6f742065786973747360501b6044820152606490fd5b8383346103e75760203660031901126103e757823590818352601960205260ff600582852001541684811015612f8f576002816108626003612e90941415614fde565b818352601960205280832080546001600160a01b0390612eb39082161515615132565b8060018301541691612ec6831515615132565b600581019260ff84541688811015612f7c579161097095939189847fa715d65b6e7107257e3f1469a8b36f0003c039bf6cc6279c26d814b77efb658099979515600014612f44575050506003612f2e9282541691612f2583331461517c565b0154903061464b565b805460ff1916600317905551918291338361395a565b600114612f55575b50505050612f2e565b612f7393612f6483331461517c565b60028401541692015491613975565b86808080612f4c565b634e487b7160e01b885260218952602488fd5b634e487b7160e01b845260218552602484fd5b8383346103e757806003193601126103e757612fbc61324d565b90612fc561327e565b9060ff808316928315158061311d575b612fde90613d88565b6001600160a01b0385169461300b908290612ffa881515613dcf565b61300661127f33613e13565b613e3d565b156130e45760018116613053575b85965084865260096020528286209182549181831618169060ff1916179055519081526000805160206152bc83398151915260203392a480f35b600a54828116600181111561309357801561308057879850839060001901169060ff191617600a55613019565b634e487b7160e01b885260118952602488fd5b845162461bcd60e51b81526020818b0152602560248201527f4d7573742068617665206174206c65617374206f6e6520636f6e74726163742060448201526430b236b4b760d91b6064820152608490fd5b825162461bcd60e51b8152602081890152601360248201527243414e204e4f54205245564f4b4520524f4c4560681b6044820152606490fd5b50600f818117831614612fd5565b929150346105fc57836003193601126105fc57600354600181811c91869082811680156131f4575b60209586861082146131e157508488529081156131bf5750600114613184575b6105f88686611338828b0383613381565b929550600383528583205b8284106131ac57505050826105f894611338928201019438613173565b805486850188015292860192810161318f565b60ff191687860152505050151560051b8301019250611338826105f838613173565b634e487b7160e01b845260229052602483fd5b93607f1693613153565b60005b8381106132115750506000910152565b8181015183820152602001613201565b6040916020825261324181518092816020860152602086860191016131fe565b601f01601f1916010190565b600435906001600160a01b038216820361326357565b600080fd5b602435906001600160a01b038216820361326357565b6024359060ff8216820361326357565b60809060031901126132635760043590602435906044359060643590565b6060906003190112613263576001600160a01b0390600435828116810361326357916024359081168103613263579060443590565b608090600319011261326357600435906001600160a01b0390602435828116810361326357916044359081168103613263579060643590565b608081019081106001600160401b0382111761333557604052565b634e487b7160e01b600052604160045260246000fd5b60a081019081106001600160401b0382111761333557604052565b604081019081106001600160401b0382111761333557604052565b601f909101601f19168101906001600160401b0382119082101761333557604052565b600c548110156133c357600c60005260206000209060021b0190600090565b634e487b7160e01b600052603260045260246000fd5b9092916001600160401b038411613335578360051b604051926020809461340282850182613381565b809781520191810192831161326357905b8282106134205750505050565b81356001600160a01b0381168103613263578152908301908301613413565b6060906003190112613263576004356001600160a01b038116810361326357906024359060443590565b9181601f84011215613263578235916001600160401b038311613263576020808501948460051b01011161326357565b80548210156133c3576000526005602060002091020190600090565b919082018092116134c257565b634e487b7160e01b600052601160045260246000fd5b6001600160a01b0390811691821561358957169182156135395760207f8c5be1e5ebec7d5bd14f71427d1e84f3dd0314c0f7b2291e5b200ac8c7c3b925918360005260018252604060002085600052825280604060002055604051908152a3565b60405162461bcd60e51b815260206004820152602260248201527f45524332303a20617070726f766520746f20746865207a65726f206164647265604482015261737360f01b6064820152608490fd5b60405162461bcd60e51b8152602060048201526024808201527f45524332303a20617070726f76652066726f6d20746865207a65726f206164646044820152637265737360e01b6064820152608490fd5b6007548110156133c357600760005260206000200190600090565b6006548110156133c357600660005260206000200190600090565b80548210156133c35760005260206000200190600090565b80156136ae5760085481116136695761364090613730565b60065481036136525750600090600090565b61365b906135da565b90549060031b1c9060019190565b60405162461bcd60e51b815260206004820152601d60248201527f4552433230536e617073686f743a206e6f6e6578697374656e742069640000006044820152606490fd5b60405162461bcd60e51b815260206004820152601660248201527504552433230536e617073686f743a20696420697320360541b6044820152606490fd5b80156136ae5760085481116136695761370590826137d8565b81548103613717575050600090600090565b600161365b9201613610565b919082039182116134c257565b600680549182156137d0576000925b80841061378e5750821515918261376a575b5050156137675760001981019081116134c25790565b90565b9091506000199083828101116134c257600052826020600020010154143880613751565b6001906137a1818618831c8287166134b5565b9184600052838360206000200154116000146137be57505061373f565b90945081018091116134c2579261373f565b505050600090565b80549182156137d0576000925b80841061380c5750821515918261376a575050156137675760001981019081116134c25790565b60019061381f818618831c8287166134b5565b91846000528383602060002001541160001461383c5750506137e5565b90945081018091116134c257926137e5565b8115613858570490565b634e487b7160e01b600052601260045260246000fd5b1561387557565b60405162461bcd60e51b815260206004820152602160248201527f444f4553204e4f54204841564520434f4e54524143542041444d494e20524f4c6044820152604560f81b6064820152608490fd5b156138cb57565b60405162461bcd60e51b815260206004820152601160248201527042414420544f4b454e204144445245535360781b6044820152606490fd5b6002600b5414613915576002600b55565b60405162461bcd60e51b815260206004820152601f60248201527f5265656e7472616e637947756172643a207265656e7472616e742063616c6c006044820152606490fd5b6001600160a01b039091168152602081019190915260400190565b6139aa6139af939261399c60405194859263a9059cbb60e01b60208501526024840161395a565b03601f198101845283613381565b6139e4565b565b6001600160401b03811161333557601f01601f191660200190565b90816020910312613263575180151581036132635790565b604051613a42916001600160a01b03166139fd82613366565b6000806020958685527f5361666545524332303a206c6f772d6c6576656c2063616c6c206661696c656487860152868151910182855af1613a3c613aca565b91613afa565b805190828215928315613ab2575b50505015613a5b5750565b6084906040519062461bcd60e51b82526004820152602a60248201527f5361666545524332303a204552433230206f7065726174696f6e20646964206e6044820152691bdd081cdd58d8d9595960b21b6064820152fd5b613ac293508201810191016139cc565b388281613a50565b3d15613af5573d90613adb826139b1565b91613ae96040519384613381565b82523d6000602084013e565b606090565b91929015613b5c5750815115613b0e575090565b3b15613b175790565b60405162461bcd60e51b815260206004820152601d60248201527f416464726573733a2063616c6c20746f206e6f6e2d636f6e74726163740000006044820152606490fd5b825190915015613b6f5750805190602001fd5b60405162461bcd60e51b8152908190613b8b9060048301613221565b0390fd5b6001600160a01b03918216815291166020820152604081019190915260600190565b906139aa9061399c6139af956040519586936323b872dd60e01b602086015260248501613b8f565b90600052601760205260406000209060018060a01b0316600052602052600160406000200154806137675750600090565b818102929181159184041417156134c257565b6040805163277166bf60e11b81529384939092908490613c429085906004840161395a565b03602094859181305afa948515613d3957600095613d0a575b508151630981b24d60e41b815260048101849052938085602481305afa948515613cff57600095613cd0575b5061271095868102908082048814901517156134c257613ccc95613caa9161384e565b9360005260178152826000209160018060a01b03166000525260002054613c0a565b0490565b90948582813d8311613cf8575b613ce78183613381565b81010312610e975750519338613c87565b503d613cdd565b83513d6000823e3d90fd5b90948482813d8311613d32575b613d218183613381565b81010312610e975750519338613c5b565b503d613d17565b82513d6000823e3d90fd5b9061376792604091613d57828286613c1d565b6000928352601660209081528484206001600160a01b03968716855281528484209290951683529352205490613723565b15613d8f57565b60405162461bcd60e51b8152602060048201526018602482015277444f4553204e4f5420484156452056414c494420524f4c4560401b6044820152606490fd5b15613dd657565b60405162461bcd60e51b81526020600482015260156024820152740416464726573732063616e6e6f742062652030783605c1b6044820152606490fd5b6001600160a01b0316613e27811515613dcf565b6000526009602052600160406000205416151590565b9060ff91828216151580613e7e575b613e5590613d88565b6001600160a01b0316613e69811515613dcf565b60005260096020526040600020541616151590565b50600f828117841614613e4c565b6001600160a01b0316613ea0811515613dcf565b6000526009602052600260406000205416151590565b6001600160a01b0316613eca811515613dcf565b6000526009602052600460406000205416151590565b6001600160a01b0316613ef4811515613dcf565b6000526009602052600860406000205416151590565b15613f1157565b606460405162461bcd60e51b815260206004820152602060248201527f444f4553204e4f5420484156452057414c4c4554532041444d494e20524f4c456044820152fd5b9093919293613f62613904565b600a8351116143ca577f0000000000000000000000000000000000000000000000000000000000000000811061438e576001600160a01b0382161561435a57600c5485101561432457613fb4856133a4565b505481106142e757613fc681306145f3565b50613fde6001613fd5876133a4565b500154856134b5565b6140087f0000000000000000000000000000000000000000000000000000000000000000426134b5565b106142a35761401561440f565b85815260208101858152606082019183835260018060a01b038516600052600d60205260406000208054600160401b8110156133355761405a91600182018155613499565b93909361428d578151845591516001840155604081015160028401559051600383015560800151805191906001600160401b03831161333557600160401b8311613335576004820154836004840155808410614260575b506020600491019101600052602060002060005b83811061424357505050506001600160a01b0382166000908152600d602052604090205460001981019081116134c2578351614190575b604051946080860192865260208601526040850152608060608501528251809152602060a0850193019060005b818110614171575050506001600160a01b03169133917f8d92942330bb9e8e714a4f66aa3eefe27f66d05b8ae4b6f6889e5a64a16155be919081900390a46001906001600b55565b82516001600160a01b0316855260209485019490920191600101614129565b60018060a01b038316600052600d60205260046141b1826040600020613499565b50855191016001600160401b03821161333557600160401b821161333557805482825580831061421a575b506020860190600052602060002060005b8381106141fd57505050506140fc565b82516001600160a01b0316818301556020909201916001016141ed565b8160005282602060002091820191015b81811061423757506141dc565b6000815560010161422a565b82516001600160a01b0316818301556020909201916001016140c5565b600483016000526020600020908482015b81830181106142815750506140b1565b60008155600101614271565b634e487b7160e01b600052600060045260246000fd5b60405162461bcd60e51b815260206004820152601c60248201527b696e697469616c2072656c65617365206f7574206f662072616e676560201b6044820152606490fd5b60405162461bcd60e51b81526020600482015260156024820152743c203120746f6b656e207065722072656c6561736560581b6044820152606490fd5b60405162461bcd60e51b815260206004820152600e60248201526d189859081cd8da19591d5b19525960921b6044820152606490fd5b60405162461bcd60e51b815260206004820152600c60248201526b746f2030206164647265737360a01b6044820152606490fd5b60405162461bcd60e51b8152602060048201526014602482015273616d6f756e74203c206d696e2066756e64696e6760601b6044820152606490fd5b60405162461bcd60e51b815260206004820152601e60248201527f6d61782031302063616e63656c61626c654279206164647265737365657300006044820152606490fd5b6040519061441c8261334b565b60606080836000815260006020820152600060408201526000838201520152565b60001981146134c25760010190565b60005b6004820180548210156137d0578161446691613610565b90543360039290921b1c6001600160a01b0316146144905761448960049161443d565b905061444f565b5050600190565b1561449e57565b60405162461bcd60e51b81526020600482015260176024820152760dad2e6dac2e8c6d0cac840c2e4e4c2f240d8cadccee8d604b1b6044820152606490fd5b91908110156133c35760051b0190565b6144f78282614b6c565b906040606083015192015182111560001461451457505050600090565b6137679261452191614590565b90613723565b6145318282614b6c565b90604060608301519201918251101560001461454f57505050600090565b6137679261455c91614590565b905190613723565b9061456e91614b6c565b6060810151604090910151808211614587575050600090565b61376791613723565b6137679161459d91614b6c565b60208101519060608101519051914290614b29565b156145b957565b60405162461bcd60e51b8152602060048201526012602482015271496e737566666963656e7420746f6b656e7360701b6044820152606490fd5b906145fe81336149eb565b61461481519261260f60208401948551906134b5565b518061463a575b505180614629575050600190565b614633913361464b565b3880614490565b61464590833061464b565b3861461b565b90916001600160a01b03808316929083156147695784169384156147185761467561467a926147bc565b6147bc565b6000828152806020526040812054918083106146c4576040828260008051602061527c833981519152958760209652828652038282205586815220818154019055604051908152a3565b60405162461bcd60e51b815260206004820152602660248201527f45524332303a207472616e7366657220616d6f756e7420657863656564732062604482015265616c616e636560d01b6064820152608490fd5b60405162461bcd60e51b815260206004820152602360248201527f45524332303a207472616e7366657220746f20746865207a65726f206164647260448201526265737360e81b6064820152608490fd5b60405162461bcd60e51b815260206004820152602560248201527f45524332303a207472616e736665722066726f6d20746865207a65726f206164604482015264647265737360d81b6064820152608490fd5b6001600160a01b0381166000908152600560205260409020906147de906148f2565b600854806147eb846148cf565b106147f557505050565b826148056001926139af9561487f565b0161487f565b600254600854908161481b6148a2565b10614824575050565b600654600160401b92838210156133355761484882600161486194016006556135f5565b90919082549060031b91821b91600019901b1916179055565b60075491821015613335576148488260016139af94016007556135da565b80549190600160401b83101561333557826148489160016139af95018155613610565b600654806148b05750600090565b60001981019081116134c2576148c5906135f5565b90549060031b1c90565b8054806148dd575050600090565b60001981019081116134c2576148c591613610565b6137679060018060a01b03811660005260006020526118af611ad56040600020546118af8461496a565b60009060009283925b6001600160a01b0383168552600d60205260408520548410156149635761495b6149556040926118af87876144ed565b9461443d565b939050614925565b9350915050565b60009060009283925b6001600160a01b0383168552600d6020526040852054841015614963576149a36149556040926118af8787614527565b939050614973565b156149b257565b60405162461bcd60e51b8152602060048201526011602482015270185b5bdd5b9d080f881d5b9b1bd8dad959607a1b6044820152606490fd5b91906040928351906149fc82613366565b84368337819260018060a01b03821693600092858452602091848352614a2c84610d4b8b8820546118af8661496a565b8390855b888752600d8086528b88208054831015614b145790886003614a6e8f86908f9682614a5a91613499565b50966002809801549552858c528d20613499565b50015403614a86575050614a819061443d565b614a30565b90919293614a948487614527565b811115614ae557614ade614a8193614ad48f968998978f9682978f9784614ac3614ac9928f8361452191614527565b9d614527565b97528c528d20613499565b50019182546134b5565b905561443d565b945091614b05939b614ad49293614b0e989b8a989b9a528a528620613499565b90558094613723565b81520152565b505050985095505092915083614b0e91613723565b9190614b37613767946133a4565b5092600360405194614b488661331a565b80548652600181015460208701526002810154604087015201546060850152614c22565b90614b7561440f565b5060018060a01b03809216600052614b97602091600d83526040600020613499565b509060405192614ba68461334b565b82548452600460019384810154848701526002810154604087015260038101546060870152016040519384859385845492838152019360005285600020956000915b838310614c08575050505050614c0092500382613381565b608082015290565b875481168652968401968896509481019491840191614be8565b9190613767939182519060208401519260606040860151950151955b9591929390600096818111614cff57614c5691613723565b9460001985019485116134c257614c76614c708685613c0a565b836134b5565b861015614cf55781861015614c8f575b50505050505090565b8394959650614ca390612710929394613c0a565b049482614cb08383613723565b1015614cbd575b80614c86565b92614ce686614ce0614ceb989795614cdb614cdb966118af99613723565b61384e565b92613723565b613c0a565b3880808080614cb7565b5050509250505090565b5050505050505050600090565b15613b6f5750565b91614d2191602493614dcd565b600f54604051637d8e7d1b60e01b815260ff8316600482015292602091849190829060081c6001600160a01b03165afa908115614da8576139af92600092614d74575b50614d6e90614ead565b90614d0c565b614d6e919250614d9a9060203d8111614da1575b614d928183613381565b8101906139cc565b9190614d64565b503d614d88565b6040513d6000823e3d90fd5b90816020910312613263575160ff811681036132635790565b600f5460405163cfdb31a960e01b81523060048201526001600160a01b0392831660248201529282166044840152606483019390935290916020918391608491839160081c165afa908115614da857600091614e27575090565b613767915060203d8111614e48575b614e408183613381565b810190614db4565b503d614e36565b602081830312613263578051906001600160401b038211613263570181601f82011215613263578051614e81816139b1565b92614e8f6040519485613381565b818452602082840101116132635761376791602080850191016131fe565b600f54604051637f4ab1dd60e01b815260ff9290921660048301526000908290602490829060081c6001600160a01b03165afa908115614da857600091614ef2575090565b613767913d8091833e6115e38183613381565b15614f0c57565b60405162461bcd60e51b815260206004820152602160248201527f444f4553204e4f542048415645205452414e534645522041444d494e20524f4c6044820152604560f81b6064820152608490fd5b15614f6257565b606460405162461bcd60e51b815260206004820152602060248201527f444f4553204e4f54204841564520524553455256452041444d494e20524f4c456044820152fd5b9081526001600160a01b039182166020820152604081019290925291821660608201529116608082015260a081019190915260c00190565b15614fe557565b60405162461bcd60e51b815260206004820152601060248201526f105b1c9958591e4818d85b98d95b195960821b6044820152606490fd5b1561502457565b60405162461bcd60e51b8152602060048201526011602482015270105b1c9958591e4818dbdb5c1b195d1959607a1b6044820152606490fd5b1561506457565b60405162461bcd60e51b815260206004820152603260248201527f596f7520617265206e6f7420617070726f70726961746520746f6b656e20736560448201527106e64657220666f72207468697320737761760741b6064820152608490fd5b156150cb57565b60405162461bcd60e51b815260206004820152603960248201527f4465706f73697420726576657274656420666f7220696e636f72726563742072604482015278195cdd5b1d081bd98819195c1bdcda5d195908185b5bdd5b9d603a1b6064820152608490fd5b1561513957565b60405162461bcd60e51b815260206004820152601b60248201527a151a1a5cc81cddd85c081a5cc81b9bdd0818dbdb999a59dd5c9959602a1b6044820152606490fd5b1561518357565b60405162461bcd60e51b815260206004820152602a60248201527f4f6e6c79207377617020636f6e666967757261746f722063616e2063616e636560448201526906c2074686520737761760b41b6064820152608490fdfe496e76616c6964207265737472696374656420746f6b656e20616d6f756e74000d7fd1e314b29407db3d79c46ecf1fa3d2108961fab8d20584277358cac41e89af8133d280a9241f6394046faf602ea059328a743babfff788f98718ccd680730765aaf231b09368f07b83425559b145d7d386b1ff8f16c157a2ff2c7b9896fe839a27e1d7199cf5ace0e4c298611bd5ff22b782dfce92a7fefebf119ec5778eddf252ad1be2c89b69c2b068fc378daa952ba7f163c4a11628f55a4df523b3eff213aa445739b8d5bb514c5e3142fe13baacfa991314172ceaf756996259b8b37e9e87d17fbf2950f3379a6331b75b6e997a147bbd3eaedc68c30c62186c68cba164736f6c6343000814000addf252ad1be2c89b69c2b068fc378daa952ba7f163c4a11628f55a4df523b3ef60406080815234620002b357806000808052806020818152838220620000316200002a8254620002b8565b82620002f5565b600e665355434345535360c81b01905560018252818152838220620000626200005b8254620002b8565b826200032f565b60458155825261434560f01b60018284207f47524541544552205448414e20524543495049454e54204d41582042414c414e8155015560028252818152838220620000b26200002a8254620002b8565b60287f53454e44455220544f4b454e53204c4f434b454400000000000000000000000001905560038252818152838220620000f26200002a8254620002b8565b603a7f444f204e4f542053454e4420544f20544f4b454e20434f4e545241435400000001905560048252818152838220620001326200002a8254620002b8565b60387f444f204e4f542053454e4420544f20454d50545920414444524553530000000001905560058252818152838220620001726200002a8254620002b8565b60307f53454e44455220414444524553532049532046524f5a454e000000000000000001905560068252818152838220620001b26200002a8254620002b8565b60287f414c4c205452414e53464552532050415553454400000000000000000000000001905560078252818152838220620001f26200002a8254620002b8565b60367f5452414e534645522047524f5550204e4f5420415050524f564544000000000001905560088252818152838220620002326200005b8254620002b8565b604d8155825265102620aa22a960d11b60018284207f5452414e534645522047524f5550204e4f5420414c4c4f57454420554e54494c81550155600982525220620002826200002a8254620002b8565b7f524543495049454e5420414444524553532049532046524f5a454e000000003690555161086990816200036d8239f35b600080fd5b90600182811c92168015620002ea575b6020831014620002d457565b634e487b7160e01b600052602260045260246000fd5b91607f1691620002c8565b601f821162000302575050565b6000908152601f60208220920160051c8201915b8281106200032357505050565b81815560010162000316565b601f82116200033c575050565b60009081526002601f60208320930160051c830192015b8281106200036057505050565b8181556001016200035356fe608060408181526004918236101561001657600080fd5b600092833560e01c9182630e65f5b2146103c35750816339b80fa9146103a75781634b5f02801461038b5781634f52bf731461036e578163796a79f4146103525781637ac904eb146103365781637d8e7d1b1461030b5781637f4ab1dd14610188578163a5c9d28a1461016c578163b46c6d2914610150578163cceec23f14610134578163cfdb31a9146100d1575063d0a6d1a6146100b457600080fd5b346100cd57816003193601126100cd5751908152602090f35b5080fd5b9050346101305760803660031901126101305735916001600160a01b0390818416840361012d5760243590828216820361012d57604435928316830361012d575060209360ff926101259260643592610434565b915191168152f35b80fd5b8280fd5b5050346100cd57816003193601126100cd576020905160028152f35b5050346100cd57816003193601126100cd576020905160018152f35b5050346100cd57816003193601126100cd576020905160068152f35b905034610130576020928360031936011261012d57813560ff81168091036100cd57600981116102d1578152808452828120835192829180549060019180831c938382169081156102c7575b8a861082146102b45750918995939185938996875290816000146102915750600114610254575b50505061020e92509593929503826103de565b82519382859384528251928382860152825b84811061023e57505050828201840152601f01601f19168101030190f35b8181018301518882018801528795508201610220565b86528486209492508591905b81831061027957508894505082010161020e38806101fb565b85548884018501529485019487945091830191610260565b9250505061020e94925060ff191682840152151560051b820101869238806101fb565b634e487b7160e01b885260229052602487fd5b94607f16946101d4565b835162461bcd60e51b81528084018690526014602482015273424144205245535452494354494f4e20434f444560601b6044820152606490fd5b90503461013057602036600319011261013057359060ff821680920361013057602092505190158152f35b5050346100cd57816003193601126100cd576020905160058152f35b5050346100cd57816003193601126100cd576020905160088152f35b919050346101305782600319360112610130576020925051908152f35b5050346100cd57816003193601126100cd576020905160038152f35b5050346100cd57816003193601126100cd576020905160078152f35b8490346100cd57816003193601126100cd5780600960209252f35b601f909101601f19168101906001600160401b0382119082101761040157604052565b634e487b7160e01b600052604160045260246000fd5b9081602091031261042f5751801515810361042f5790565b600080fd5b604080516358c3de9360e11b8152600495946001600160a01b03938416949293602093909290919084818a818a5afa9081156106c85760009161083f575b5061083257821680156108285785811461081b57845163c63aa52160e01b80825289820183905260249391868186818c5afa9081156107a2576000916107ee575b5015159081610717575b5061070957855193631f92defb60e31b918286521693848a820152858185818b5afa9081156106fe576000916106e1575b506106d35785519081528189820152848184818a5afa9081156106c85760009161069b575b5061068e578451906340dc95c560e01b82528389830152828201528381604481895afa90811561063d57600091610661575b508015610654574210610648578351631092ab9160e31b815287810183905283818381895afa90811561063d5790879160009161060d575b5010968761059b575b5050505050505061059657600090565b600290565b848495969798505196879384926370a0823160e01b84528301525afa91821561060357506000916105d7575b5090501138808080808080610586565b82813d83116105fc575b6105eb81836103de565b8101031261012d57505180386105c7565b503d6105e1565b513d6000823e3d90fd5b91508482813d8311610636575b61062481836103de565b8101031261012d57508690513861057d565b503d61061a565b85513d6000823e3d90fd5b50505050505050600890565b5050505050505050600790565b908482813d8311610687575b61067781836103de565b8101031261012d57505138610545565b503d61066d565b5050505050505050600990565b6106bb9150853d87116106c1575b6106b381836103de565b810190610417565b38610513565b503d6106a9565b86513d6000823e3d90fd5b505050505050505050600590565b6106f89150863d88116106c1576106b381836103de565b386104ee565b87513d6000823e3d90fd5b505050505050505050600190565b905086516370a0823160e01b8152838b820152868186818c5afa9081156107a2576000916107c1575b508981018091116107ad578751918252838b830152868286818c5afa9182156107a257600092610773575b5011386104bd565b90918782813d831161079b575b61078a81836103de565b8101031261012d575051903861076b565b503d610780565b88513d6000823e3d90fd5b8460118c634e487b7160e01b600052526000fd5b908782813d83116107e7575b6107d781836103de565b8101031261012d57505138610740565b503d6107cd565b908782813d8311610814575b61080481836103de565b8101031261012d575051386104b3565b503d6107fa565b5050505050505050600390565b5050505050505090565b5050505050505050600690565b6108569150853d87116106c1576106b381836103de565b3861047256fea164736f6c6343000814000aa164736f6c6343000814000a",
  "linkReferences": {},
  "deployedLinkReferences": {}
}