{
  "_format": "hh-sol-artifact-1",
  "contractName": "OrbitalPool",
  "sourceName": "contracts/orbital/OrbitalPool.sol",
  "abi": [
    {
      "inputs": [],
      "stateMutability": "nonpayable",
      "type": "constructor"
    },
    {
      "inputs": [],
      "name": "AlreadyInitialized",
      "type": "error"
    },
    {
      "inputs": [],
      "name": "DeadlineExpired",
      "type": "error"
    },
    {
      "inputs": [],
      "name": "DuplicateToken",
      "type": "error"
    },
    {
      "inputs": [],
      "name": "InsufficientAllowance",
      "type": "error"
    },
    {
      "inputs": [],
      "name": "InsufficientBalance",
      "type": "error"
    },
    {
      "inputs": [],
      "name": "InsufficientLiquidity",
      "type": "error"
    },
    {
      "inputs": [],
      "name": "InvalidConcentration",
      "type": "error"
    },
    {
      "inputs": [],
      "name": "InvalidFee",
      "type": "error"
    },
    {
      "inputs": [],
      "name": "InvalidPower",
      "type": "error"
    },
    {
      "inputs": [],
      "name": "InvalidTokenCount",
      "type": "error"
    },
    {
      "inputs": [],
      "name": "InvalidTokenIndex",
      "type": "error"
    },
    {
      "inputs": [],
      "name": "InvariantViolated",
      "type": "error"
    },
    {
      "inputs": [],
      "name": "InvariantViolation",
      "type": "error"
    },
    {
      "inputs": [],
      "name": "NotFactory",
      "type": "error"
    },
    {
      "inputs": [],
      "name": "NotInitialized",
      "type": "error"
    },
    {
      "inputs": [],
      "name": "ReentrantCall",
      "type": "error"
    },
    {
      "inputs": [],
      "name": "SameToken",
      "type": "error"
    },
    {
      "inputs": [],
      "name": "SlippageExceeded",
      "type": "error"
    },
    {
      "inputs": [],
      "name": "TransferFailed",
      "type": "error"
    },
    {
      "inputs": [],
      "name": "ZeroAddress",
      "type": "error"
    },
    {
      "inputs": [],
      "name": "ZeroAmount",
      "type": "error"
    },
    {
      "inputs": [],
      "name": "ZeroInput",
      "type": "error"
    },
    {
      "anonymous": false,
      "inputs": [
        {
          "indexed": true,
          "internalType": "address",
          "name": "owner",
          "type": "address"
        },
        {
          "indexed": true,
          "internalType": "address",
          "name": "spender",
          "type": "address"
        },
        {
          "indexed": false,
          "internalType": "uint256",
          "name": "value",
          "type": "uint256"
        }
      ],
      "name": "Approval",
      "type": "event"
    },
    {
      "anonymous": false,
      "inputs": [
        {
          "indexed": true,
          "internalType": "address",
          "name": "collector",
          "type": "address"
        },
        {
          "indexed": false,
          "internalType": "uint256[]",
          "name": "amounts",
          "type": "uint256[]"
        }
      ],
      "name": "FeesCollected",
      "type": "event"
    },
    {
      "anonymous": false,
      "inputs": [
        {
          "indexed": true,
          "internalType": "address",
          "name": "provider",
          "type": "address"
        },
        {
          "indexed": false,
          "internalType": "uint256[]",
          "name": "amounts",
          "type": "uint256[]"
        },
        {
          "indexed": false,
          "internalType": "uint256",
          "name": "lpMinted",
          "type": "uint256"
        }
      ],
      "name": "LiquidityAdded",
      "type": "event"
    },
    {
      "anonymous": false,
      "inputs": [
        {
          "indexed": true,
          "internalType": "address",
          "name": "provider",
          "type": "address"
        },
        {
          "indexed": false,
          "internalType": "uint256[]",
          "name": "amounts",
          "type": "uint256[]"
        },
        {
          "indexed": false,
          "internalType": "uint256",
          "name": "lpBurned",
          "type": "uint256"
        }
      ],
      "name": "LiquidityRemoved",
      "type": "event"
    },
    {
      "anonymous": false,
      "inputs": [
        {
          "indexed": true,
          "internalType": "address",
          "name": "sender",
          "type": "address"
        },
        {
          "indexed": false,
          "internalType": "uint256",
          "name": "tokenInIndex",
          "type": "uint256"
        },
        {
          "indexed": false,
          "internalType": "uint256",
          "name": "tokenOutIndex",
          "type": "uint256"
        },
        {
          "indexed": false,
          "internalType": "uint256",
          "name": "amountIn",
          "type": "uint256"
        },
        {
          "indexed": false,
          "internalType": "uint256",
          "name": "amountOut",
          "type": "uint256"
        },
        {
          "indexed": false,
          "internalType": "uint256",
          "name": "feeAmount",
          "type": "uint256"
        }
      ],
      "name": "Swap",
      "type": "event"
    },
    {
      "anonymous": false,
      "inputs": [
        {
          "indexed": true,
          "internalType": "address",
          "name": "from",
          "type": "address"
        },
        {
          "indexed": true,
          "internalType": "address",
          "name": "to",
          "type": "address"
        },
        {
          "indexed": false,
          "internalType": "uint256",
          "name": "value",
          "type": "uint256"
        }
      ],
      "name": "Transfer",
      "type": "event"
    },
    {
      "inputs": [],
      "name": "FEE_DENOMINATOR",
      "outputs": [
        {
          "internalType": "uint256",
          "name": "",
          "type": "uint256"
        }
      ],
      "stateMutability": "view",
      "type": "function"
    },
    {
      "inputs": [],
      "name": "MAX_FEE_BPS",
      "outputs": [
        {
          "internalType": "uint256",
          "name": "",
          "type": "uint256"
        }
      ],
      "stateMutability": "view",
      "type": "function"
    },
    {
      "inputs": [],
      "name": "MAX_TOKENS",
      "outputs": [
        {
          "internalType": "uint256",
          "name": "",
          "type": "uint256"
        }
      ],
      "stateMutability": "view",
      "type": "function"
    },
    {
      "inputs": [],
      "name": "MINIMUM_LIQUIDITY",
      "outputs": [
        {
          "internalType": "uint256",
          "name": "",
          "type": "uint256"
        }
      ],
      "stateMutability": "view",
      "type": "function"
    },
    {
      "inputs": [],
      "name": "MIN_TOKENS",
      "outputs": [
        {
          "internalType": "uint256",
          "name": "",
          "type": "uint256"
        }
      ],
      "stateMutability": "view",
      "type": "function"
    },
    {
      "inputs": [],
      "name": "WAD",
      "outputs": [
        {
          "internalType": "uint256",
          "name": "",
          "type": "uint256"
        }
      ],
      "stateMutability": "view",
      "type": "function"
    },
    {
      "inputs": [
        {
          "internalType": "uint256",
          "name": "",
          "type": "uint256"
        }
      ],
      "name": "accumulatedFees",
      "outputs": [
        {
          "internalType": "uint256",
          "name": "",
          "type": "uint256"
        }
      ],
      "stateMutability": "view",
      "type": "function"
    },
    {
      "inputs": [
        {
          "internalType": "uint256[]",
          "name": "amounts",
          "type": "uint256[]"
        },
        {
          "internalType": "uint256",
          "name": "minLiquidity",
          "type": "uint256"
        },
        {
          "internalType": "uint256",
          "name": "deadline",
          "type": "uint256"
        }
      ],
      "name": "addLiquidity",
      "outputs": [
        {
          "internalType": "uint256",
          "name": "liquidity",
          "type": "uint256"
        }
      ],
      "stateMutability": "nonpayable",
      "type": "function"
    },
    {
      "inputs": [
        {
          "internalType": "address",
          "name": "",
          "type": "address"
        },
        {
          "internalType": "address",
          "name": "",
          "type": "address"
        }
      ],
      "name": "allowance",
      "outputs": [
        {
          "internalType": "uint256",
          "name": "",
          "type": "uint256"
        }
      ],
      "stateMutability": "view",
      "type": "function"
    },
    {
      "inputs": [
        {
          "internalType": "address",
          "name": "spender",
          "type": "address"
        },
        {
          "internalType": "uint256",
          "name": "amount",
          "type": "uint256"
        }
      ],
      "name": "approve",
      "outputs": [
        {
          "internalType": "bool",
          "name": "",
          "type": "bool"
        }
      ],
      "stateMutability": "nonpayable",
      "type": "function"
    },
    {
      "inputs": [
        {
          "internalType": "address",
          "name": "",
          "type": "address"
        }
      ],
      "name": "balanceOf",
      "outputs": [
        {
          "internalType": "uint256",
          "name": "",
          "type": "uint256"
        }
      ],
      "stateMutability": "view",
      "type": "function"
    },
    {
      "inputs": [],
      "name": "collectFees",
      "outputs": [],
      "stateMutability": "nonpayable",
      "type": "function"
    },
    {
      "inputs": [],
      "name": "concentration",
      "outputs": [
        {
          "internalType": "uint8",
          "name": "",
          "type": "uint8"
        }
      ],
      "stateMutability": "view",
      "type": "function"
    },
    {
      "inputs": [],
      "name": "factory",
      "outputs": [
        {
          "internalType": "address",
          "name": "",
          "type": "address"
        }
      ],
      "stateMutability": "view",
      "type": "function"
    },
    {
      "inputs": [],
      "name": "feeCollector",
      "outputs": [
        {
          "internalType": "address",
          "name": "",
          "type": "address"
        }
      ],
      "stateMutability": "view",
      "type": "function"
    },
    {
      "inputs": [],
      "name": "getAccumulatedFees",
      "outputs": [
        {
          "internalType": "uint256[]",
          "name": "",
          "type": "uint256[]"
        }
      ],
      "stateMutability": "view",
      "type": "function"
    },
    {
      "inputs": [
        {
          "internalType": "uint256",
          "name": "tokenInIndex",
          "type": "uint256"
        },
        {
          "internalType": "uint256",
          "name": "tokenOutIndex",
          "type": "uint256"
        },
        {
          "internalType": "uint256",
          "name": "amountIn",
          "type": "uint256"
        }
      ],
      "name": "getAmountOut",
      "outputs": [
        {
          "internalType": "uint256",
          "name": "amountOut",
          "type": "uint256"
        },
        {
          "internalType": "uint256",
          "name": "feeAmount",
          "type": "uint256"
        }
      ],
      "stateMutability": "view",
      "type": "function"
    },
    {
      "inputs": [],
      "name": "getInvariant",
      "outputs": [
        {
          "internalType": "uint256",
          "name": "K",
          "type": "uint256"
        }
      ],
      "stateMutability": "view",
      "type": "function"
    },
    {
      "inputs": [],
      "name": "getReserves",
      "outputs": [
        {
          "internalType": "uint256[]",
          "name": "",
          "type": "uint256[]"
        }
      ],
      "stateMutability": "view",
      "type": "function"
    },
    {
      "inputs": [
        {
          "internalType": "uint256",
          "name": "tokenAIndex",
          "type": "uint256"
        },
        {
          "internalType": "uint256",
          "name": "tokenBIndex",
          "type": "uint256"
        }
      ],
      "name": "getSpotPrice",
      "outputs": [
        {
          "internalType": "uint256",
          "name": "price",
          "type": "uint256"
        }
      ],
      "stateMutability": "view",
      "type": "function"
    },
    {
      "inputs": [
        {
          "internalType": "address",
          "name": "token",
          "type": "address"
        }
      ],
      "name": "getTokenIndex",
      "outputs": [
        {
          "internalType": "uint256",
          "name": "",
          "type": "uint256"
        }
      ],
      "stateMutability": "view",
      "type": "function"
    },
    {
      "inputs": [],
      "name": "getTokens",
      "outputs": [
        {
          "internalType": "address[]",
          "name": "",
          "type": "address[]"
        }
      ],
      "stateMutability": "view",
      "type": "function"
    },
    {
      "inputs": [
        {
          "internalType": "address[]",
          "name": "_tokens",
          "type": "address[]"
        },
        {
          "internalType": "uint8",
          "name": "_concentration",
          "type": "uint8"
        },
        {
          "internalType": "uint256",
          "name": "_swapFeeBps",
          "type": "uint256"
        },
        {
          "internalType": "address",
          "name": "_feeCollector",
          "type": "address"
        },
        {
          "internalType": "string",
          "name": "_name",
          "type": "string"
        },
        {
          "internalType": "string",
          "name": "_symbol",
          "type": "string"
        }
      ],
      "name": "initialize",
      "outputs": [],
      "stateMutability": "nonpayable",
      "type": "function"
    },
    {
      "inputs": [],
      "name": "initialized",
      "outputs": [
        {
          "internalType": "bool",
          "name": "",
          "type": "bool"
        }
      ],
      "stateMutability": "view",
      "type": "function"
    },
    {
      "inputs": [],
      "name": "lpDecimals",
      "outputs": [
        {
          "internalType": "uint8",
          "name": "",
          "type": "uint8"
        }
      ],
      "stateMutability": "view",
      "type": "function"
    },
    {
      "inputs": [],
      "name": "name",
      "outputs": [
        {
          "internalType": "string",
          "name": "",
          "type": "string"
        }
      ],
      "stateMutability": "view",
      "type": "function"
    },
    {
      "inputs": [],
      "name": "numTokens",
      "outputs": [
        {
          "internalType": "uint256",
          "name": "",
          "type": "uint256"
        }
      ],
      "stateMutability": "view",
      "type": "function"
    },
    {
      "inputs": [
        {
          "internalType": "uint256",
          "name": "liquidity",
          "type": "uint256"
        },
        {
          "internalType": "uint256[]",
          "name": "minAmounts",
          "type": "uint256[]"
        },
        {
          "internalType": "uint256",
          "name": "deadline",
          "type": "uint256"
        }
      ],
      "name": "removeLiquidity",
      "outputs": [
        {
          "internalType": "uint256[]",
          "name": "amounts",
          "type": "uint256[]"
        }
      ],
      "stateMutability": "nonpayable",
      "type": "function"
    },
    {
      "inputs": [
        {
          "internalType": "uint256",
          "name": "",
          "type": "uint256"
        }
      ],
      "name": "reserves",
      "outputs": [
        {
          "internalType": "uint256",
          "name": "",
          "type": "uint256"
        }
      ],
      "stateMutability": "view",
      "type": "function"
    },
    {
      "inputs": [
        {
          "internalType": "uint256",
          "name": "tokenInIndex",
          "type": "uint256"
        },
        {
          "internalType": "uint256",
          "name": "tokenOutIndex",
          "type": "uint256"
        },
        {
          "internalType": "uint256",
          "name": "amountIn",
          "type": "uint256"
        },
        {
          "internalType": "uint256",
          "name": "minAmountOut",
          "type": "uint256"
        },
        {
          "internalType": "uint256",
          "name": "deadline",
          "type": "uint256"
        }
      ],
      "name": "swap",
      "outputs": [
        {
          "internalType": "uint256",
          "name": "amountOut",
          "type": "uint256"
        }
      ],
      "stateMutability": "nonpayable",
      "type": "function"
    },
    {
      "inputs": [],
      "name": "swapFeeBps",
      "outputs": [
        {
          "internalType": "uint256",
          "name": "",
          "type": "uint256"
        }
      ],
      "stateMutability": "view",
      "type": "function"
    },
    {
      "inputs": [],
      "name": "symbol",
      "outputs": [
        {
          "internalType": "string",
          "name": "",
          "type": "string"
        }
      ],
      "stateMutability": "view",
      "type": "function"
    },
    {
      "inputs": [
        {
          "internalType": "uint256",
          "name": "",
          "type": "uint256"
        }
      ],
      "name": "tokens",
      "outputs": [
        {
          "internalType": "address",
          "name": "",
          "type": "address"
        }
      ],
      "stateMutability": "view",
      "type": "function"
    },
    {
      "inputs": [],
      "name": "totalSupply",
      "outputs": [
        {
          "internalType": "uint256",
          "name": "",
          "type": "uint256"
        }
      ],
      "stateMutability": "view",
      "type": "function"
    },
    {
      "inputs": [
        {
          "internalType": "address",
          "name": "to",
          "type": "address"
        },
        {
          "internalType": "uint256",
          "name": "amount",
          "type": "uint256"
        }
      ],
      "name": "transfer",
      "outputs": [
        {
          "internalType": "bool",
          "name": "",
          "type": "bool"
        }
      ],
      "stateMutability": "nonpayable",
      "type": "function"
    },
    {
      "inputs": [
        {
          "internalType": "address",
          "name": "from",
          "type": "address"
        },
        {
          "internalType": "address",
          "name": "to",
          "type": "address"
        },
        {
          "internalType": "uint256",
          "name": "amount",
          "type": "uint256"
        }
      ],
      "name": "transferFrom",
      "outputs": [
        {
          "internalType": "bool",
          "name": "",
          "type": "bool"
        }
      ],
      "stateMutability": "nonpayable",
      "type": "function"
    }
  ],
  "bytecode": "0x60a0806040523461002f576001600c55336080526125ad908161003582396080518181816102480152610c9f0152f35b600080fdfe608080604052600436101561001357600080fd5b60003560e01c908163054d50d414611a275750806306fdde03146119935780630902f1ac14611963578063095ea7b3146118e5578063158ef93e146118c257806318160ddd146118a45780631965e183146118885780631cc241c11461185f578063219ce0d41461183e57806323b872dd146117325780632ffdaf891461171457806331cd52b0146114e15780633f812882146114c05780634d49e87d1461113c5780634f64b2be146110fa5780635df45a371461106e57806366c0bd241461104b5780636a1460241461102857806370a0823114610fee5780638334278d14610fb7578063851ed85e14610f9b5780638e499bcf14610f7d57806395d89b4114610e9f578063a9059cbb14610dfe578063aa6ca80814610d37578063ba9a7a5614610d1a578063c0ff1a1514610cf7578063c415b95c14610cce578063c45a015514610c89578063c45c5c301461095d578063c879657214610844578063d55be8c614610828578063d73792a91461080b578063dd62ed3e146107ba578063f47c84c51461079e5763fe485a11146101ab57600080fd5b346107995760c0366003190112610799576004356001600160401b038111610799576101db903690600401611ce6565b6024359160ff8316809303610799576044356064356001600160a01b03811690819003610799576084356001600160401b03811161079957610221903690600401611d16565b9160a4356001600160401b03811161079957610241903690600401611d16565b90979094907f00000000000000000000000000000000000000000000000000000000000000006001600160a01b031633036107875760ff600654166107765760028810801561076c575b61075a5760028114158061074f575b80610744575b80610739575b8061072e575b61071c576064821161070a5782156106f85760005b88811061066b57508760015560ff1960025416176002556003556bffffffffffffffffffffffff60a01b60045416176004556001600160401b03821161046d57819061030e600754611b14565b601f81116105f7575b50600090601f831160011461058257600092610577575b50508160011b916000199060031b1c1916176007555b6001600160401b03811161046d5761035d600854611b14565b601f8111610512575b506000601f821160011461048e5781929394600092610483575b50508160011b916000199060031b1c1916176008555b60005b8281106103af576006805460ff19166001179055005b6103c26103bd828585611d52565b611d62565b906000549168010000000000000000928381101561046d578060016103ea9201600055611c9c565b81546001600160a01b0393841660039290921b91821b9390911b1916919091179055600580548381101561046d5761042791600182019055611c65565b908054600019809360031b1b19169055600d80549384101561046d578361045691600161046896019055611c18565b909182549160031b1b19169055611d43565b610399565b634e487b7160e01b600052604160045260246000fd5b013590503880610380565b601f1982169460086000527ff3f7a9fe364faab93b216da50a3214154f22a0a2b415b23a84c8169e8b636ee39160005b8781106104fa5750836001959697106104e0575b505050811b01600855610396565b0135600019600384901b60f8161c191690553880806104d2565b909260206001819286860135815501940191016104be565b60086000527ff3f7a9fe364faab93b216da50a3214154f22a0a2b415b23a84c8169e8b636ee3601f830160051c8101916020841061056d575b601f0160051c01905b8181106105615750610366565b60008155600101610554565b909150819061054b565b01359050388061032e565b600760009081529350600080516020612538833981519152915b601f19841685106105df576001945083601f198116106105c5575b505050811b01600755610344565b0135600019600384901b60f8161c191690553880806105b7565b8181013583556020948501946001909301920161059c565b9091506007600052601f830160051c6000805160206125388339815191520160208410610656575b908392915b601f820160051c6000805160206125388339815191520181106106475750610317565b60008155849350600101610624565b5060008051602061253883398151915261061f565b6001600160a01b036106816103bd838c8c611d52565b16156106f85760005b8181106106a0575061069b90611d43565b6102c1565b89896106c66103bd846106b76103bd888787611d52565b946001600160a01b0394611d52565b6001600160a01b039092169116146106e6576106e190611d43565b61068a565b6040516323271fb560e11b8152600490fd5b60405163d92e233d60e01b8152600490fd5b6040516358d620b360e01b8152600490fd5b604051631676992b60e11b8152600490fd5b5060208114156102ac565b5060108114156102a6565b5060088114156102a0565b50600481141561029a565b60405163e778681d60e01b8152600490fd5b506008881161028b565b60405162dc149f60e41b8152600490fd5b604051631966391b60e11b8152600490fd5b600080fd5b3461079957600036600319011261079957602060405160088152f35b34610799576040366003190112610799576107d3611bec565b6107db611c02565b9060018060a01b03809116600052600b602052604060002091166000526020526020604060002054604051908152f35b346107995760003660031901126107995760206040516127108152f35b3461079957600036600319011261079957602060405160648152f35b34610799576000366003190112610799576002600c541461094b576002600c556004546001600160a01b039081163303610787576001549061088582612144565b9160005b8181106108d957837f9bc3ed6aed6a780294c85faeafe7c4bc19617c745bdf61b8d1fc8159c3d1aab16108cf856004541692604051918291602083526020830190611bb8565b0390a26001600c55005b806108e66108fd92611c18565b9054600391821b1c8581610902575b505050611d43565b610889565b6109439261090f85611c18565b81549060001990841b1b1916905582610928868b611e32565b5261093285611c9c565b9054911b1c168660045416906124db565b8580856108f5565b6040516306fda65d60e31b8152600490fd5b346107995760a0366003190112610799576002600c541461094b576002600c5560ff6006541615610c77576084354211610c6557600154806004351015610c5357806024351015610c535760243560043514610c415760443515610c2f576127106109cc600354604435611d76565b046109d981604435611da9565b916040518181602060055491828152019060056000527f036b6384b5eca791c62761152d0c79bb0604c104a5fb6f4eb0703f3154bb3db09060005b818110610c165750505091610a2e81610a33940382611b4e565b612176565b90610a3e8584611d76565b91670de0b6b3a76400009283810290808204851490151715610c0057610a8492610a6b83610a7f93611d89565b60ff60025416916024359060043590611e46565b611d76565b91818102918183041490151715610c0057610a9e91611d89565b906064358210610bee57610ab3602435611c65565b90549060031b1c8211610bdc57610b8682610afa610b2e602096610ad8600435611c9c565b90546001600160a01b039491604435913091339160039190911b1c8716612423565b610b17610b08600435611c65565b91909283548360031b1c611e25565b825460001960039390931b92831b1916911b179055565b610b4c610b3c602435611c65565b610b178583548360031b1c611da9565b610b6a610b5a600435611c18565b610b178783548360031b1c611e25565b610b75602435611c9c565b9190913392549060031b1c166124db565b60405190600435825260243584830152604435604083015282606083015260808201527f6d2535bccee43630e01014525de773080b47e1a82c56ef6a30802933a48c9e3460a03392a26001600c55604051908152f35b60405163bb55fd2760e01b8152600490fd5b604051638199f5f360e01b8152600490fd5b634e487b7160e01b600052601160045260246000fd5b8254845286945060209093019260019283019201610a14565b604051631f2a200560e01b8152600490fd5b60405163100dac0560e11b8152600490fd5b60405163609f982f60e01b8152600490fd5b604051631ab7da6b60e01b8152600490fd5b6040516321c4e35760e21b8152600490fd5b34610799576000366003190112610799576040517f00000000000000000000000000000000000000000000000000000000000000006001600160a01b03168152602090f35b34610799576000366003190112610799576004546040516001600160a01b039091168152602090f35b34610799576000366003190112610799576020610d12612281565b604051908152f35b346107995760003660031901126107995760206040516103e88152f35b34610799576000366003190112610799576040518060005480835260208093018091600080527f290decd9548b62a8d60345a988386fc84ba6bc95484008f6362f93160ef3e5639060005b86828210610de1578686610d9882880383611b4e565b604051928392818401908285525180915260408401929160005b828110610dc157505050500390f35b83516001600160a01b031685528695509381019392810192600101610db2565b83546001600160a01b031685529093019260019283019201610d82565b3461079957604036600319011261079957610e17611bec565b6001600160a01b031660243581156106f85733600052600a6020528060406000205410610e8d5733600052600a6020526040600020818154039055816000526040600020610e66828254611e25565b905560405190815260008051602061255883398151915260203392a3602060405160018152f35b604051631e9acf1760e31b8152600490fd5b34610799576000366003190112610799576040516000600854610ec181611b14565b80845290600190818116908115610f565750600114610efb575b610ef784610eeb81860382611b4e565b60405191829182611b6f565b0390f35b6008600090815292507ff3f7a9fe364faab93b216da50a3214154f22a0a2b415b23a84c8169e8b636ee35b828410610f3e575050508101602001610eeb82610edb565b80546020858701810191909152909301928101610f26565b60ff191660208087019190915292151560051b85019092019250610eeb9150839050610edb565b34610799576000366003190112610799576020600154604051908152f35b3461079957600036600319011261079957602060405160128152f35b346107995760203660031901126107995760043560055481101561079957610fe0602091611c65565b90546040519160031b1c8152f35b34610799576020366003190112610799576001600160a01b0361100f611bec565b16600052600a6020526020604060002054604051908152f35b34610799576000366003190112610799576020604051670de0b6b3a76400008152f35b34610799576020366003190112610799576020610d12611069611bec565b612235565b346107995760003660031901126107995760405180600d54808252826020809301600d6000527fd7b6990105719101dabeb77144f2a3385c8033acd3af97e9423a695e81ad1eb59260005b858282106110e4575050506110d092500383611b4e565b610ef7604051928284938452830190611bb8565b85548452600195860195889550930192016110b9565b346107995760203660031901126107995760043560005481101561079957611123602091611c9c565b905460405160039290921b1c6001600160a01b03168152f35b34610799576060366003190112610799576004356001600160401b0381116107995761116c903690600401611ce6565b6002600c541461094b576002600c5560ff6006541615610c77576044354211610c65576001549182820361075a5760005b8381106114a157506009918254156000146113945760005b84811061132057506111e26111cc85610a2e611db6565b506111dd60ff6002541680926120f0565b611fe8565b926103e89384811115610bdc576103e7198101908111610c0057938154818101809111610c0057825560008052600a6020526040600020908154818101809111610c005760206000939260008051602061255883398151915292859455604051908152a35b6024358410610bdc5761125b848254611e25565b905533600052600a6020526040600020611276848254611e25565b9055604051838152600060008051602061255883398151915260203393a361129d84612144565b9160005b8581106112fb57602085857fb60e972ce1258a7280a8e34204b1df88fcabbe8aea805e46bc1566cdc6e6e1486112e260405192604084526040840190611bb8565b9183858201528033930390a26001600c55604051908152f35b8061130a61131b928585611d52565b356113158287611e32565b52611d43565b6112a1565b8061135961133061138f93611c9c565b90549061133e848789611d52565b35913091339160039190911b1c6001600160a01b0316612423565b61138a611367828587611d52565b3561137183611c65565b90919082549060031b91821b91600019901b1916179055565b611d43565b6111b5565b60001960005b858110611440575060005b8581106113c857506113c1670de0b6b3a7640000918554611d76565b0492611247565b80670de0b6b3a76400006113ed6113df8594611c65565b949054600395861b1c611d76565b048015610c2f5761143b928161142161138a9361140986611c9c565b90543091339190871b1c6001600160a01b0316612423565b610b1761142d85611c65565b929093838554911b1c611e25565b6113a5565b61144b818486611d52565b35670de0b6b3a764000090818102918183041490151715610c00576114809061147383611c65565b90549060031b1c90611d89565b828110611497575b5061149290611d43565b61139a565b9150611492611488565b6114ac818484611d52565b3515610c2f576114bb90611d43565b61119d565b34610799576040366003190112610799576020610d126024356004356122c0565b34610799576060366003190112610799576004356024356001600160401b03811161079957611514903690600401611ce6565b90916002600c541461094b576002600c5560ff6006541615610c77576044354211610c655760015480830361075a578115610c2f5733600052602092600a84528260406000205410610e8d576009549461156c611db6565b9586519061157982612144565b9760005b8381106116e4575050505060005b8381106116aa5750505033600052600a83528160406000205410610e8d5733600052600a835260406000208281540390556115c882600954611da9565b6009556000604051838152600080516020612558833981519152853392a360005b81811061164b5750507f0f74fe264fb7d04b4800409b8a3562eb271296e19c3ec8835639635b3e858c45604051604081526116276040820186611bb8565b92848201528033930390a26001600c55610ef7604051928284938452830190611bb8565b8061138a61165c6116a59388611e32565b5161167b61166984611c65565b610b1782549460039583871b1c611da9565b61168483611c9c565b9054911b1c6001600160a01b031661169c8389611e32565b519033906124db565b6115e9565b6116b48188611e32565b516116c0828585611d52565b3511610bee576116d08188611e32565b5115610c2f576116df90611d43565b61158b565b80611705846117008b6116fa61170f9688611e32565b51611d76565b611d89565b611315828d611e32565b61157d565b34610799576000366003190112610799576020600354604051908152f35b346107995760603660031901126107995761174b611bec565b611753611c02565b604435916001600160a01b03918216919082156106f8571680600052602092600a84528060406000205410610e8d5781600052600b845260406000203360005284528360406000205460001981036117f0575b506000805160206125588339815191529183600052600a825260406000208181540390558460005260406000206117de828254611e25565b9055604051908152a360405160018152f35b905081811061182c578160008051602061255883398151915292869285600052600b8452604060002033600052845203604060002055916117a6565b6040516313be252b60e01b8152600490fd5b3461079957600036600319011261079957602060ff60025416604051908152f35b3461079957602036600319011261079957600435600d5481101561079957610fe0602091611c18565b3461079957600036600319011261079957602060405160028152f35b34610799576000366003190112610799576020600954604051908152f35b3461079957600036600319011261079957602060ff600654166040519015158152f35b34610799576040366003190112610799576118fe611bec565b6001600160a01b031660243581156106f85733600052600b602052604060002082600052602052806040600020556040519081527f8c5be1e5ebec7d5bd14f71427d1e84f3dd0314c0f7b2291e5b200ac8c7c3b92560203392a3602060405160018152f35b3461079957600036600319011261079957610ef761197f611db6565b604051918291602083526020830190611bb8565b346107995760003660031901126107995760405160006007546119b581611b14565b80845290600190818116908115610f5657506001146119de57610ef784610eeb81860382611b4e565b6007600090815292506000805160206125388339815191525b828410611a0f575050508101602001610eeb82610edb565b805460208587018101919091529093019281016119f7565b346107995760603660031901126107995760043590602435906044359160015491828510801590611b0a575b611afb5750808414610c41578215610c2f57611a97611a82612710611a7a60035487611d76565b048095611da9565b611a8e84610a2e611db6565b92909185611d76565b90670de0b6b3a76400009687830292808404891490151715610c0057611ad194611ac485610a7f95611d89565b9160ff6002541693611e46565b90838102938185041490151715610c0057604092611aee91611d89565b9082519182526020820152f35b63609f982f60e01b8152600490fd5b5082821015611a53565b90600182811c92168015611b44575b6020831014611b2e57565b634e487b7160e01b600052602260045260246000fd5b91607f1691611b23565b90601f801991011681019081106001600160401b0382111761046d57604052565b6020808252825181830181905290939260005b828110611ba457505060409293506000838284010152601f8019910116010190565b818101860151848201604001528501611b82565b90815180825260208080930193019160005b828110611bd8575050505090565b835185529381019392810192600101611bca565b600435906001600160a01b038216820361079957565b602435906001600160a01b038216820361079957565b600d54811015611c4f57600d6000527fd7b6990105719101dabeb77144f2a3385c8033acd3af97e9423a695e81ad1eb50190600090565b634e487b7160e01b600052603260045260246000fd5b600554811015611c4f5760056000527f036b6384b5eca791c62761152d0c79bb0604c104a5fb6f4eb0703f3154bb3db00190600090565b906000918254811015611cd2578280527f290decd9548b62a8d60345a988386fc84ba6bc95484008f6362f93160ef3e563019190565b634e487b7160e01b83526032600452602483fd5b9181601f84011215610799578235916001600160401b038311610799576020808501948460051b01011161079957565b9181601f84011215610799578235916001600160401b038311610799576020838186019501011161079957565b6000198114610c005760010190565b9190811015611c4f5760051b0190565b356001600160a01b03811681036107995790565b81810292918115918404141715610c0057565b8115611d93570490565b634e487b7160e01b600052601260045260246000fd5b91908203918211610c0057565b60405190600554808352826020918282019060056000527f036b6384b5eca791c62761152d0c79bb0604c104a5fb6f4eb0703f3154bb3db0936000905b828210611e0b57505050611e0992500383611b4e565b565b855484526001958601958895509381019390910190611df3565b91908201809211610c0057565b8051821015611c4f5760209160051b010190565b93845193611e5482876120f0565b9460009384925b828410611eac575050505083821015611e9a576111dd611e7e92611e8495611da9565b92611e32565b519081811015611e9a57611e9791611da9565b90565b60405163302e29cb60e01b8152600490fd5b9091929488878714611f0057611ee991611edd87611ecd8a611ee395611e32565b5186888c14611ef1575b50611f0b565b90611e25565b95611d43565b929190611e5b565b611efa91611e25565b86611ed7565b5094611ee990611d43565b9060ff1660028114611fd45760048114611fba5760088114611f9c5760108114611f7957602014611f4857604051634956aa2960e01b8152600490fd5b611f75611f6e611f6e611f6e93611f6e670de0b6b3a76400008096818096858296611d76565b0480611d76565b0490565b50611f75611f6e611f6e611f6e93670de0b6b3a764000094858094838294611d76565b50611f75611f6e91611f6e670de0b6b3a76400008094838294611d76565b50611f75611f6e91670de0b6b3a764000092818492611d76565b50611f7581670de0b6b3a764000092611d76565b9060ff166002811461206f57600481146120625760088114612052576010811461203f5760201461202557604051634956aa2960e01b8152600490fd5b61203a61203a61203a61203a611e9794612075565b612075565b5061203a61203a61203a611e9793612075565b5061203a61203a611e9792612075565b5061203a611e9791612075565b50611e97905b80156120ea57670de0b6b3a764000080820291820403610c0057600060038211156120dc57508060019080821c828101809111610c005791905b8383106120bc5750505090565b909192506120d3836120ce8184611d89565b611e25565b821c91906120af565b906120e45790565b50600190565b50600090565b80516000939284925b8284106121065750505050565b90919294611ee361212591611edd8561211f8a87611e32565b51611f0b565b9291906120f9565b6001600160401b03811161046d5760051b60200190565b9061214e8261212d565b61215b6040519182611b4e565b828152809261216c601f199161212d565b0190602036910137565b9091600091600061218685612144565b94815b8181106122175750841561220557815b8181106121a65750505050565b6121ba6121b38286611e32565b5183611d76565b670de0b6b3a7640000908181029181830414901517156121f157906121e2876121ec93611d89565b611315828a611e32565b612199565b634e487b7160e01b84526011600452602484fd5b60405163af458c0760e01b8152600490fd5b94611ee3612230916122298887611e32565b5190611e25565b612189565b6001549060005b82811061224857505090565b61225181611c9c565b905460039190911b1c6001600160a01b039081169083161461227b5761227690611d43565b61223c565b91505090565b60ff600654161580156122b6575b6122b157611e976122a4600154610a2e611db6565b5060ff60025416906120f0565b600090565b506009541561228f565b9060015490818310801590612398575b610c53576122dd83611c65565b90549060031b1c158015612381575b6123795761230a61230261231193610a2e611db6565b509384611e32565b5192611e32565b519060ff600254166002811460001461232e5750611e97916123a2565b9061234361233c8383611f0b565b9284611f0b565b91801561237057670de0b6b3a76400009361236461236a92611f75956123a2565b926123a2565b90611d76565b50505050600090565b505050600090565b5061238b81611c65565b90549060031b1c156122ec565b50818110156122d0565b90801561220557670de0b6b3a764000091828102928184041490151715610c0057611e9791611d89565b3d15612406573d906001600160401b03821161046d57604051916123fa601f8201601f191660200184611b4e565b82523d6000602084013e565b606090565b90816020910312610799575180151581036107995790565b6040516323b872dd60e01b602082019081526001600160a01b03938416602483015292909316604484015260648084019490945292825260a0820192906001600160401b0384118385101761046d576000809493819460405251925af16124886123cc565b90159081156124ab575b5061249957565b6040516312171d8360e31b8152600490fd5b80518015159250826124c0575b505038612492565b6124d3925060208091830101910161240b565b1538806124b8565b60405163a9059cbb60e01b602082019081526001600160a01b0390931660248201526044808201949094529283526080830192916001600160401b0384118385101761046d576000809493819460405251925af16124886123cc56fea66cc928b5edb82af9bd49922954155ab7b0942694bea4ce44661d9a8736c688ddf252ad1be2c89b69c2b068fc378daa952ba7f163c4a11628f55a4df523b3efa264697066735822122027e12658b70a11453ff4412b0823b7975c90f5a4286a7e137d5820ceac7e3c4364736f6c63430008140033",
  "linkReferences": {},
  "deployedLinkReferences": {}
}