{
  "_format": "hh-sol-artifact-1",
  "contractName": "AssetBackedExchange",
  "sourceName": "contracts/AssetBackedExchange.sol",
  "abi": [
    {
      "inputs": [
        {
          "internalType": "address",
          "name": "_owner",
          "type": "address"
        }
      ],
      "stateMutability": "nonpayable",
      "type": "constructor"
    },
    {
      "inputs": [],
      "name": "AlreadyExecuted",
      "type": "error"
    },
    {
      "inputs": [],
      "name": "ExchangePaused",
      "type": "error"
    },
    {
      "inputs": [],
      "name": "InsufficientEth",
      "type": "error"
    },
    {
      "inputs": [],
      "name": "InsufficientFill",
      "type": "error"
    },
    {
      "inputs": [],
      "name": "LimitTooHigh",
      "type": "error"
    },
    {
      "inputs": [],
      "name": "NotMaker",
      "type": "error"
    },
    {
      "inputs": [],
      "name": "NotOwner",
      "type": "error"
    },
    {
      "inputs": [],
      "name": "NotPaused",
      "type": "error"
    },
    {
      "inputs": [],
      "name": "NotPendingOwner",
      "type": "error"
    },
    {
      "inputs": [],
      "name": "NothingToWithdraw",
      "type": "error"
    },
    {
      "inputs": [],
      "name": "OrderExpired",
      "type": "error"
    },
    {
      "inputs": [],
      "name": "OrderNotActive",
      "type": "error"
    },
    {
      "inputs": [],
      "name": "ReentrantCall",
      "type": "error"
    },
    {
      "inputs": [],
      "name": "SameToken",
      "type": "error"
    },
    {
      "inputs": [],
      "name": "TimelockNotMet",
      "type": "error"
    },
    {
      "inputs": [],
      "name": "TransferFailed",
      "type": "error"
    },
    {
      "inputs": [],
      "name": "ZeroAddress",
      "type": "error"
    },
    {
      "inputs": [],
      "name": "ZeroAmount",
      "type": "error"
    },
    {
      "anonymous": false,
      "inputs": [
        {
          "indexed": true,
          "internalType": "uint256",
          "name": "requestId",
          "type": "uint256"
        }
      ],
      "name": "EmergencyWithdrawCancelled",
      "type": "event"
    },
    {
      "anonymous": false,
      "inputs": [
        {
          "indexed": true,
          "internalType": "uint256",
          "name": "requestId",
          "type": "uint256"
        }
      ],
      "name": "EmergencyWithdrawExecuted",
      "type": "event"
    },
    {
      "anonymous": false,
      "inputs": [
        {
          "indexed": true,
          "internalType": "uint256",
          "name": "requestId",
          "type": "uint256"
        },
        {
          "indexed": false,
          "internalType": "address",
          "name": "token",
          "type": "address"
        },
        {
          "indexed": false,
          "internalType": "uint256",
          "name": "amount",
          "type": "uint256"
        },
        {
          "indexed": false,
          "internalType": "address",
          "name": "recipient",
          "type": "address"
        },
        {
          "indexed": false,
          "internalType": "uint256",
          "name": "executeAfter",
          "type": "uint256"
        }
      ],
      "name": "EmergencyWithdrawRequested",
      "type": "event"
    },
    {
      "anonymous": false,
      "inputs": [
        {
          "indexed": true,
          "internalType": "address",
          "name": "to",
          "type": "address"
        },
        {
          "indexed": false,
          "internalType": "uint256",
          "name": "amount",
          "type": "uint256"
        }
      ],
      "name": "EthWithdrawn",
      "type": "event"
    },
    {
      "anonymous": false,
      "inputs": [
        {
          "indexed": true,
          "internalType": "uint256",
          "name": "orderId",
          "type": "uint256"
        },
        {
          "indexed": true,
          "internalType": "address",
          "name": "maker",
          "type": "address"
        }
      ],
      "name": "OrderCancelled",
      "type": "event"
    },
    {
      "anonymous": false,
      "inputs": [
        {
          "indexed": true,
          "internalType": "uint256",
          "name": "orderId",
          "type": "uint256"
        },
        {
          "indexed": true,
          "internalType": "address",
          "name": "maker",
          "type": "address"
        },
        {
          "indexed": false,
          "internalType": "address",
          "name": "tokenSell",
          "type": "address"
        },
        {
          "indexed": false,
          "internalType": "address",
          "name": "tokenBuy",
          "type": "address"
        },
        {
          "indexed": false,
          "internalType": "uint256",
          "name": "amountSell",
          "type": "uint256"
        },
        {
          "indexed": false,
          "internalType": "uint256",
          "name": "amountBuy",
          "type": "uint256"
        },
        {
          "indexed": false,
          "internalType": "uint256",
          "name": "deadline",
          "type": "uint256"
        }
      ],
      "name": "OrderCreated",
      "type": "event"
    },
    {
      "anonymous": false,
      "inputs": [
        {
          "indexed": true,
          "internalType": "uint256",
          "name": "orderId",
          "type": "uint256"
        },
        {
          "indexed": true,
          "internalType": "address",
          "name": "taker",
          "type": "address"
        },
        {
          "indexed": false,
          "internalType": "uint256",
          "name": "fillAmountSell",
          "type": "uint256"
        },
        {
          "indexed": false,
          "internalType": "uint256",
          "name": "fillAmountBuy",
          "type": "uint256"
        }
      ],
      "name": "OrderFilled",
      "type": "event"
    },
    {
      "anonymous": false,
      "inputs": [
        {
          "indexed": true,
          "internalType": "address",
          "name": "currentOwner",
          "type": "address"
        },
        {
          "indexed": true,
          "internalType": "address",
          "name": "pendingOwner",
          "type": "address"
        }
      ],
      "name": "OwnershipTransferStarted",
      "type": "event"
    },
    {
      "anonymous": false,
      "inputs": [
        {
          "indexed": true,
          "internalType": "address",
          "name": "previousOwner",
          "type": "address"
        },
        {
          "indexed": true,
          "internalType": "address",
          "name": "newOwner",
          "type": "address"
        }
      ],
      "name": "OwnershipTransferred",
      "type": "event"
    },
    {
      "anonymous": false,
      "inputs": [
        {
          "indexed": true,
          "internalType": "address",
          "name": "by",
          "type": "address"
        }
      ],
      "name": "Paused",
      "type": "event"
    },
    {
      "anonymous": false,
      "inputs": [
        {
          "indexed": true,
          "internalType": "address",
          "name": "by",
          "type": "address"
        }
      ],
      "name": "Unpaused",
      "type": "event"
    },
    {
      "inputs": [],
      "name": "EMERGENCY_TIMELOCK",
      "outputs": [
        {
          "internalType": "uint256",
          "name": "",
          "type": "uint256"
        }
      ],
      "stateMutability": "view",
      "type": "function"
    },
    {
      "inputs": [],
      "name": "ETH_ADDRESS",
      "outputs": [
        {
          "internalType": "address",
          "name": "",
          "type": "address"
        }
      ],
      "stateMutability": "view",
      "type": "function"
    },
    {
      "inputs": [],
      "name": "MAX_SCAN_LIMIT",
      "outputs": [
        {
          "internalType": "uint256",
          "name": "",
          "type": "uint256"
        }
      ],
      "stateMutability": "view",
      "type": "function"
    },
    {
      "inputs": [],
      "name": "acceptOwnership",
      "outputs": [],
      "stateMutability": "nonpayable",
      "type": "function"
    },
    {
      "inputs": [
        {
          "internalType": "uint256",
          "name": "requestId",
          "type": "uint256"
        }
      ],
      "name": "cancelEmergencyWithdraw",
      "outputs": [],
      "stateMutability": "nonpayable",
      "type": "function"
    },
    {
      "inputs": [
        {
          "internalType": "uint256",
          "name": "orderId",
          "type": "uint256"
        }
      ],
      "name": "cancelOrder",
      "outputs": [],
      "stateMutability": "nonpayable",
      "type": "function"
    },
    {
      "inputs": [
        {
          "internalType": "address",
          "name": "tokenSell",
          "type": "address"
        },
        {
          "internalType": "address",
          "name": "tokenBuy",
          "type": "address"
        },
        {
          "internalType": "uint256",
          "name": "amountSell",
          "type": "uint256"
        },
        {
          "internalType": "uint256",
          "name": "amountBuy",
          "type": "uint256"
        },
        {
          "internalType": "uint256",
          "name": "deadline",
          "type": "uint256"
        }
      ],
      "name": "createOrder",
      "outputs": [
        {
          "internalType": "uint256",
          "name": "orderId",
          "type": "uint256"
        }
      ],
      "stateMutability": "nonpayable",
      "type": "function"
    },
    {
      "inputs": [
        {
          "internalType": "address",
          "name": "tokenBuy",
          "type": "address"
        },
        {
          "internalType": "uint256",
          "name": "amountBuy",
          "type": "uint256"
        },
        {
          "internalType": "uint256",
          "name": "deadline",
          "type": "uint256"
        }
      ],
      "name": "createOrderSellETH",
      "outputs": [
        {
          "internalType": "uint256",
          "name": "orderId",
          "type": "uint256"
        }
      ],
      "stateMutability": "payable",
      "type": "function"
    },
    {
      "inputs": [
        {
          "internalType": "uint256",
          "name": "",
          "type": "uint256"
        }
      ],
      "name": "emergencyRequests",
      "outputs": [
        {
          "internalType": "address",
          "name": "token",
          "type": "address"
        },
        {
          "internalType": "uint256",
          "name": "amount",
          "type": "uint256"
        },
        {
          "internalType": "address",
          "name": "recipient",
          "type": "address"
        },
        {
          "internalType": "uint256",
          "name": "executeAfter",
          "type": "uint256"
        },
        {
          "internalType": "bool",
          "name": "executed",
          "type": "bool"
        }
      ],
      "stateMutability": "view",
      "type": "function"
    },
    {
      "inputs": [
        {
          "internalType": "address",
          "name": "",
          "type": "address"
        }
      ],
      "name": "ethBalances",
      "outputs": [
        {
          "internalType": "uint256",
          "name": "",
          "type": "uint256"
        }
      ],
      "stateMutability": "view",
      "type": "function"
    },
    {
      "inputs": [
        {
          "internalType": "uint256",
          "name": "requestId",
          "type": "uint256"
        }
      ],
      "name": "executeEmergencyWithdraw",
      "outputs": [],
      "stateMutability": "nonpayable",
      "type": "function"
    },
    {
      "inputs": [
        {
          "internalType": "uint256",
          "name": "orderId",
          "type": "uint256"
        },
        {
          "internalType": "uint256",
          "name": "fillAmountBuy",
          "type": "uint256"
        }
      ],
      "name": "fillOrder",
      "outputs": [],
      "stateMutability": "nonpayable",
      "type": "function"
    },
    {
      "inputs": [
        {
          "internalType": "uint256",
          "name": "orderId",
          "type": "uint256"
        }
      ],
      "name": "fillOrderWithETH",
      "outputs": [],
      "stateMutability": "payable",
      "type": "function"
    },
    {
      "inputs": [
        {
          "internalType": "address",
          "name": "tokenSell",
          "type": "address"
        },
        {
          "internalType": "address",
          "name": "tokenBuy",
          "type": "address"
        }
      ],
      "name": "getActiveOrders",
      "outputs": [
        {
          "components": [
            {
              "internalType": "uint256",
              "name": "id",
              "type": "uint256"
            },
            {
              "internalType": "address",
              "name": "maker",
              "type": "address"
            },
            {
              "internalType": "address",
              "name": "tokenSell",
              "type": "address"
            },
            {
              "internalType": "address",
              "name": "tokenBuy",
              "type": "address"
            },
            {
              "internalType": "uint256",
              "name": "amountSell",
              "type": "uint256"
            },
            {
              "internalType": "uint256",
              "name": "amountBuy",
              "type": "uint256"
            },
            {
              "internalType": "uint256",
              "name": "filledSell",
              "type": "uint256"
            },
            {
              "internalType": "uint256",
              "name": "filledBuy",
              "type": "uint256"
            },
            {
              "internalType": "bool",
              "name": "cancelled",
              "type": "bool"
            },
            {
              "internalType": "uint256",
              "name": "deadline",
              "type": "uint256"
            }
          ],
          "internalType": "struct AssetBackedExchange.Order[]",
          "name": "",
          "type": "tuple[]"
        }
      ],
      "stateMutability": "view",
      "type": "function"
    },
    {
      "inputs": [
        {
          "internalType": "address",
          "name": "tokenSell",
          "type": "address"
        },
        {
          "internalType": "address",
          "name": "tokenBuy",
          "type": "address"
        },
        {
          "internalType": "uint256",
          "name": "offset",
          "type": "uint256"
        },
        {
          "internalType": "uint256",
          "name": "limit",
          "type": "uint256"
        }
      ],
      "name": "getActiveOrders",
      "outputs": [
        {
          "components": [
            {
              "internalType": "uint256",
              "name": "id",
              "type": "uint256"
            },
            {
              "internalType": "address",
              "name": "maker",
              "type": "address"
            },
            {
              "internalType": "address",
              "name": "tokenSell",
              "type": "address"
            },
            {
              "internalType": "address",
              "name": "tokenBuy",
              "type": "address"
            },
            {
              "internalType": "uint256",
              "name": "amountSell",
              "type": "uint256"
            },
            {
              "internalType": "uint256",
              "name": "amountBuy",
              "type": "uint256"
            },
            {
              "internalType": "uint256",
              "name": "filledSell",
              "type": "uint256"
            },
            {
              "internalType": "uint256",
              "name": "filledBuy",
              "type": "uint256"
            },
            {
              "internalType": "bool",
              "name": "cancelled",
              "type": "bool"
            },
            {
              "internalType": "uint256",
              "name": "deadline",
              "type": "uint256"
            }
          ],
          "internalType": "struct AssetBackedExchange.Order[]",
          "name": "",
          "type": "tuple[]"
        }
      ],
      "stateMutability": "view",
      "type": "function"
    },
    {
      "inputs": [
        {
          "internalType": "uint256",
          "name": "orderId",
          "type": "uint256"
        }
      ],
      "name": "getOrder",
      "outputs": [
        {
          "components": [
            {
              "internalType": "uint256",
              "name": "id",
              "type": "uint256"
            },
            {
              "internalType": "address",
              "name": "maker",
              "type": "address"
            },
            {
              "internalType": "address",
              "name": "tokenSell",
              "type": "address"
            },
            {
              "internalType": "address",
              "name": "tokenBuy",
              "type": "address"
            },
            {
              "internalType": "uint256",
              "name": "amountSell",
              "type": "uint256"
            },
            {
              "internalType": "uint256",
              "name": "amountBuy",
              "type": "uint256"
            },
            {
              "internalType": "uint256",
              "name": "filledSell",
              "type": "uint256"
            },
            {
              "internalType": "uint256",
              "name": "filledBuy",
              "type": "uint256"
            },
            {
              "internalType": "bool",
              "name": "cancelled",
              "type": "bool"
            },
            {
              "internalType": "uint256",
              "name": "deadline",
              "type": "uint256"
            }
          ],
          "internalType": "struct AssetBackedExchange.Order",
          "name": "",
          "type": "tuple"
        }
      ],
      "stateMutability": "view",
      "type": "function"
    },
    {
      "inputs": [],
      "name": "getOrderCount",
      "outputs": [
        {
          "internalType": "uint256",
          "name": "",
          "type": "uint256"
        }
      ],
      "stateMutability": "view",
      "type": "function"
    },
    {
      "inputs": [
        {
          "internalType": "address",
          "name": "user",
          "type": "address"
        }
      ],
      "name": "getUserOrders",
      "outputs": [
        {
          "internalType": "uint256[]",
          "name": "",
          "type": "uint256[]"
        }
      ],
      "stateMutability": "view",
      "type": "function"
    },
    {
      "inputs": [],
      "name": "nextEmergencyId",
      "outputs": [
        {
          "internalType": "uint256",
          "name": "",
          "type": "uint256"
        }
      ],
      "stateMutability": "view",
      "type": "function"
    },
    {
      "inputs": [],
      "name": "nextOrderId",
      "outputs": [
        {
          "internalType": "uint256",
          "name": "",
          "type": "uint256"
        }
      ],
      "stateMutability": "view",
      "type": "function"
    },
    {
      "inputs": [],
      "name": "owner",
      "outputs": [
        {
          "internalType": "address",
          "name": "",
          "type": "address"
        }
      ],
      "stateMutability": "view",
      "type": "function"
    },
    {
      "inputs": [],
      "name": "pause",
      "outputs": [],
      "stateMutability": "nonpayable",
      "type": "function"
    },
    {
      "inputs": [],
      "name": "paused",
      "outputs": [
        {
          "internalType": "bool",
          "name": "",
          "type": "bool"
        }
      ],
      "stateMutability": "view",
      "type": "function"
    },
    {
      "inputs": [],
      "name": "pendingOwner",
      "outputs": [
        {
          "internalType": "address",
          "name": "",
          "type": "address"
        }
      ],
      "stateMutability": "view",
      "type": "function"
    },
    {
      "inputs": [
        {
          "internalType": "address",
          "name": "token",
          "type": "address"
        },
        {
          "internalType": "uint256",
          "name": "amount",
          "type": "uint256"
        },
        {
          "internalType": "address",
          "name": "recipient",
          "type": "address"
        }
      ],
      "name": "requestEmergencyWithdraw",
      "outputs": [
        {
          "internalType": "uint256",
          "name": "requestId",
          "type": "uint256"
        }
      ],
      "stateMutability": "nonpayable",
      "type": "function"
    },
    {
      "inputs": [
        {
          "internalType": "address",
          "name": "newOwner",
          "type": "address"
        }
      ],
      "name": "transferOwnership",
      "outputs": [],
      "stateMutability": "nonpayable",
      "type": "function"
    },
    {
      "inputs": [],
      "name": "unpause",
      "outputs": [],
      "stateMutability": "nonpayable",
      "type": "function"
    },
    {
      "inputs": [],
      "name": "withdrawEth",
      "outputs": [],
      "stateMutability": "nonpayable",
      "type": "function"
    },
    {
      "stateMutability": "payable",
      "type": "receive"
    }
  ],
  "bytecode": "0x6080346100b657601f611d5338819003918201601f19168301916001600160401b038311848410176100bb578084926020946040528339810103126100b657516001600160a01b038116908190036100b657600160005580156100a457600180546001600160a01b031916821790556040519060007f8be0079c531659141344cd1fd0a4f28419497f9722a3daafe3b4186f6b6457e08180a3611c8190816100d28239f35b60405163d92e233d60e01b8152600490fd5b600080fd5b634e487b7160e01b600052604160045260246000fdfe6080806040526004361015610060575b50361561001b57600080fd5b60405162461bcd60e51b815260206004820152601760248201527f44697265637420455448206e6f742061636365707465640000000000000000006044820152606490fd5b60003560e01c90816310bb7c2b146115ad575080632a58b3301461062257806330f86b67146113405780633cfba0e3146113065780633f4ba83a14611290578063514fcac714611156578063518e62db14610e7a578063582ee98d14610d675780635c975abb14610d415780635fab9ae514610bc757806360d7442b14610ba957806363c69f0814610af55780636ac3eb4314610ad857806379ba509714610a5b5780637aae1bb2146109cb5780637c1402181461081f5780638456cb59146107b657806384d8f823146106405780638d0a5fbb146106225780638da5cb5b146105f9578063a0ef91df14610546578063a734f06e14610517578063ab9f52a1146104d2578063c37dfc5b146102c6578063d09ef24114610282578063e30c397814610259578063efdfb7621461023b5763f2fde38b146101a1573861000f565b34610236576020366003190112610236576101ba611612565b6001546001600160a01b039081169133839003610224571690811561021257600280546001600160a01b031916831790557f38d16b8cac22d99fc7c124b9cd0de2d3fa1faef420bfe791d8c362d765e22700600080a3005b60405163d92e233d60e01b8152600490fd5b6040516330cd747160e01b8152600490fd5b600080fd5b34610236576000366003190112610236576020600354604051908152f35b34610236576000366003190112610236576002546040516001600160a01b039091168152602090f35b346102365760203660031901126102365761029b6117d1565b5060043560005260066020526101406102b7604060002061181d565b6102c4604051809261163e565bf35b34610236576040366003190112610236576024356002600054146104c057600260005560ff60025460a01c166104ae57806004356000526006602052604060002061031081611afc565b821561049c5760038101546001600160a01b031673eeeeeeeeeeeeeeeeeeeeeeeeeeeeeeeeeeeeeeee1461021257600581015460078201908154946103558683611791565b809111610492575b506103759061037060048501548661179e565b6117b1565b938415610480578361038691611705565b905560068101610397848254611705565b905560028101546001600160a01b031673eeeeeeeeeeeeeeeeeeeeeeeeeeeeeeeeeeeeeeee14610460575b600381015460018201546103e69184916001600160a01b0390811691339116611be4565b600201546001600160a01b03168273eeeeeeeeeeeeeeeeeeeeeeeeeeeeeeeeeeeeeeed19820161044e575b82604051918252602082015233907f36a54e61f475a84cd4a5c3b403be29e6101b05ec843b61fb97c3e123ff59b3f4604060043592a36001600055005b610459913390611b3d565b8282610411565b3360005260086020526040600020610479848254611705565b90556103c2565b604051633e0526e560e01b8152600490fd5b935061037561035d565b604051631f2a200560e01b8152600490fd5b604051630815eb4560e11b8152600490fd5b6040516306fda65d60e31b8152600490fd5b34610236576080366003190112610236576105136105076104f1611612565b6104f9611628565b90606435916044359161193d565b604051918291826116ad565b0390f35b3461023657600036600319011261023657602060405173eeeeeeeeeeeeeeeeeeeeeeeeeeeeeeeeeeeeeeee8152f35b34610236576000366003190112610236576002600054146104c057600260005533600052600860205260406000205480156105e75733600052600860205260006040812055600080808084335af161059c611751565b50156105d5576040519081527f8455ae6be5d92f1df1c3c1484388e247a36c7e60d72055ae216dbc258f257d4b60203392a26001600055005b6040516312171d8360e31b8152600490fd5b604051630686827b60e51b8152600490fd5b34610236576000366003190112610236576001546040516001600160a01b039091168152602090f35b34610236576000366003190112610236576020600554604051908152f35b6020366003190112610236576004356002600054146104c057600260005560ff60025460a01c166104ae5780600052600660205260406000209061068382611afc565b341561049c5760038201546001600160a01b039290831673eeeeeeeeeeeeeeeeeeeeeeeeeeeeeeeeeeeeeeed190161021257600581015490600781018054946106cc8685611791565b8034116000146107ab576106ea90945b61037060048601548761179e565b9586156104805761074993879361070387600294611705565b905560068101610714858254611705565b90558260018201541660005260086020526040600020610735878254611705565b9055853411610781575b0154163390611b3d565b60405192835260208301527f36a54e61f475a84cd4a5c3b403be29e6101b05ec843b61fb97c3e123ff59b3f460403393a36001600055005b61078b8634611791565b3360005260086020526107a46040600020918254611705565b905561073f565b506106ea34946106dc565b34610236576000366003190112610236576001546001600160a01b031633036102245760025460ff8160a01c166104ae5760ff60a01b1916600160a01b17600255337f62e78cea01bee320cd4e420270b5ea74000d11b0c9f74754ebdbfc544b05a258600080a2005b3461023657604036600319011261023657610838611612565b610840611628565b60405163ab9f52a160e01b81526001600160a01b0392831660048201529116602482015260006044820181905260648083015281608481305afa80156109bf57600090610898575b61051390604051918291826116ad565b503d806000833e6108a9818361172f565b810160209182818303126102365780519067ffffffffffffffff8211610236570181601f82011215610236578051926108e1846118a0565b926108ef604051948561172f565b848452818401908261014080970285010193818511610236578301915b8483106109225750505050506105139150610888565b86838303126102365783879160405161093a81611712565b855181526109498387016118b8565b83820152610959604087016118b8565b6040820152606061096b8188016118b8565b908201526080808701519082015260a0808701519082015260c0808701519082015260e086015160e08201526101006109a58188016118cc565b90820152610120808701519082015281520192019161090c565b6040513d6000823e3d90fd5b3461023657602036600319011261023657600154600435906001600160a01b03163303610224578060005260046020526040600020600481019081549060ff8216610a4957600101541561049c5760ff191660011790557f063c09fbefb35d5bb16d75da375f0e4c90a798eb8bfad5783b2cdcfbf8c89f83600080a2005b604051630dc1019760e01b8152600490fd5b34610236576000366003190112610236576002546001600160a01b038082163303610ac657600154916001600160601b0360a01b903382851617600155166002553391167f8be0079c531659141344cd1fd0a4f28419497f9722a3daafe3b4186f6b6457e0600080a3005b604051630614e5c760e21b8152600490fd5b346102365760003660031901126102365760206040516101f48152f35b3461023657602080600319360112610236576001600160a01b03610b17611612565b1660005260078152604060002060405190818382549182815201908192600052846000209060005b86828210610b95578686610b558288038361172f565b604051928392818401908285525180915260408401929160005b828110610b7e57505050500390f35b835185528695509381019392810192600101610b6f565b835485529093019260019283019201610b3f565b346102365760003660031901126102365760206040516202a3008152f35b3461023657606036600319011261023657610be0611612565b602435906044356001600160a01b038181169291839003610236578060015416330361022457831561049c5782156102125760035492610c1f846116f6565b6003556202a300420191824211610d2b576040519260a084019284841067ffffffffffffffff851117610d1557602097610cf87f88a1f0b46553efe60fc3cd64c295f3e31eabb731ede3c76c68204985359dfa429660048a87819b60809a60405216978884528d8401868152604085019088825260608601928a84528c870194600086526000526020869052806040600020975116916001600160601b0360a01b9283895416178855516001880155600287019251169082541617905551600384015551151591019060ff801983541691151516179055565b6040519384528884015260408301526060820152a2604051908152f35b634e487b7160e01b600052604160045260246000fd5b634e487b7160e01b600052601160045260246000fd5b3461023657600036600319011261023657602060ff60025460a01c166040519015158152f35b3461023657602036600319011261023657600154600435906001600160a01b039081163303610224576002600054146104c0576002600055816000526004602052604060002090600482019081549260ff8416610a49576001810192835494851561049c5760038301544210610e685760ff19166001179055805482169373eeeeeeeeeeeeeeeeeeeeeeeeeeeeeeeeeeeeeeee8503610e5057506000935083928392600284930154169054905af1610e1d611751565b50156105d5575b7fa7d096069a26edbff974ac62b79d901783aa4bd4243483de31bf3ac923e88e59600080a26001600055005b9250906002610e63949201541690611b3d565b610e24565b6040516327056b2160e01b8152600490fd5b346102365760a036600319011261023657610e93611612565b610e9b611628565b906002600054146104c057600260005560ff60025460a01c166104ae5760443515801561114c575b61049c576001600160a01b03811615801561113b575b610212576001600160a01b0381811690831614611129576001600160a01b03811673eeeeeeeeeeeeeeeeeeeeeeeeeeeeeeeeeeeeeeee146102125760843515158061111d575b61110b57610f3a60443530336001600160a01b038516611be4565b60055490610f47826116f6565b600555604051610f5681611712565b82815233602082015260018060a01b038216604082015260018060a01b0384166060820152604435608082015260643560a0820152600960c082016000815261105160e084016000815261010085019060008252610120860193608435855288600052600660205260a06040600020978051895560018901600180841b03602083015116906001600160601b03841b918282541617905560028a01600180851b036040840151168282541617905560038a0190600180851b0360608401511690825416179055608081015160048a015501516005880155516006870155516007860155511515600885019060ff801983541691151516179055565b51910155336000526007602052604060002092835493600160401b851015610d1557600185018082558510156110f55760209484916000528560002001556040519160018060a01b0316825260018060a01b031683820152604435604082015260643560608201526084356080820152817fdb932a34c9c681f70d4d797e099a8752999c25f9c9ffa2009c5f39c8f8dee4b460a03393a36001600055604051908152f35b634e487b7160e01b600052603260045260246000fd5b6040516362b439dd60e11b8152600490fd5b50426084351115610f1f565b60405163100dac0560e11b8152600490fd5b506001600160a01b03821615610ed9565b5060643515610ec3565b34610236576020366003190112610236576004356002600054146104c057600260005580600052600660205260406000206004810154801561127e576008820180549060ff821661127e576006840154918383101561127e57600185019260018060a01b0394858554169384330361126c5760016111da9460ff1916179055611791565b938461120f575b33867fc0362da6f2ff36b382b34aec0814f6b3cdf89f5ef282a1d1f114d0c0b036d596600080a36001600055005b60020154831673eeeeeeeeeeeeeeeeeeeeeeeeeeeeeeeeeeeeeeee81036112595750505416600052600860205261124c6040600020918254611705565b90555b81808080806111e1565b909150611267939250611b3d565b61124f565b60405163b331e42160e01b8152600490fd5b604051631d4ecc5b60e01b8152600490fd5b34610236576000366003190112610236576001546001600160a01b031633036102245760025460ff8160a01c16156112f45760ff60a01b1916600255337f5db9ee0a495bf2e6ff9c91a7834c1ba4fdd244a5e8aa4e537bd38aeae4b073aa600080a2005b604051636cd6020160e01b8152600490fd5b34610236576020366003190112610236576001600160a01b03611327611612565b1660005260086020526020604060002054604051908152f35b606036600319011261023657611354611612565b6002600054146104c057600260005560ff60025460a01c166104ae57341580156115a3575b61049c576001600160a01b03811615801561157d575b61021257604435151580611571575b61110b576005546113ae816116f6565b6005556040516113bd81611712565b81815233602082015273eeeeeeeeeeeeeeeeeeeeeeeeeeeeeeeeeeeeeeee604082015260018060a01b038316606082015234608082015260243560a0820152600960c08201600081526114c260e084016000815261010085019060008252610120860193604435855287600052600660205260a06040600020978051895560018901600180841b03602083015116906001600160601b03841b918282541617905560028a01600180851b036040840151168282541617905560038a0190600180851b0360608401511690825416179055608081015160048a015501516005880155516006870155516007860155511515600885019060ff801983541691151516179055565b51910155336000526007602052604060002091825492600160401b841015610d1557600184018082558410156110f55760209383916000528460002001556040519073eeeeeeeeeeeeeeeeeeeeeeeeeeeeeeeeeeeeeeee825260018060a01b03168382015234604082015260243560608201526044356080820152817fdb932a34c9c681f70d4d797e099a8752999c25f9c9ffa2009c5f39c8f8dee4b460a03393a36001600055604051908152f35b5042604435111561139e565b506001600160a01b03811673eeeeeeeeeeeeeeeeeeeeeeeeeeeeeeeeeeeeeeee1461138f565b5060243515611379565b346102365760203660031901126102365760a09060043560005260046020526040600020600180841b039081815416916001820154906002830154169060ff600460038501549401541693855260208501526040840152606083015215156080820152f35b600435906001600160a01b038216820361023657565b602435906001600160a01b038216820361023657565b8051825260018060a01b0380602083015116602084015280604083015116604084015260608201511660608301526080810151608083015260a081015160a083015260c081015160c083015260e081015160e08301526101008082015115159083015261012080910151910152565b6020908160408183019282815285518094520193019160005b8281106116d4575050505090565b9091929382610140826116ea600194895161163e565b019501939291016116c6565b6000198114610d2b5760010190565b91908201809211610d2b57565b610140810190811067ffffffffffffffff821117610d1557604052565b90601f8019910116810190811067ffffffffffffffff821117610d1557604052565b3d1561178c573d9067ffffffffffffffff8211610d155760405191611780601f8201601f19166020018461172f565b82523d6000602084013e565b606090565b91908203918211610d2b57565b81810292918115918404141715610d2b57565b81156117bb570490565b634e487b7160e01b600052601260045260246000fd5b604051906117de82611712565b816101206000918281528260208201528260408201528260608201528260808201528260a08201528260c08201528260e0820152826101008201520152565b9060405161182a81611712565b8254815260018301546001600160a01b039081166020830152600284015481166040830152600384015416606082015260048301546080820152600583015460a0820152600683015460c0820152600783015460e0820152600883015460ff161515610100820152600990920154610120830152565b67ffffffffffffffff8111610d155760051b60200190565b51906001600160a01b038216820361023657565b5190811515820361023657565b906118e3826118a0565b6118f0604051918261172f565b8281528092611901601f19916118a0565b019060005b82811061191257505050565b60209061191d6117d1565b82828501015201611906565b80518210156110f55760209160051b010190565b92908115611af3575b6101f48211611ae157600554936000928391611961826118d9565b91855b88811080611ad8575b15611a82578060005260068060205260406000209060048201548015611a765760018060a01b039182600285015416838816149283611a63575b5082611a53575b82611a46575b505080611a26575b6119d0575b506119cb906116f6565b611964565b8888929810156119ef575b506119e86119cb916116f6565b96906119c1565b611a1e6119cb9296611a036119e89361181d565b611a0d8289611929565b52611a188188611929565b506116f6565b9591506119db565b5060098101548015908115611a3c575b506119bc565b9050421038611a36565b83015410905038806119b4565b600884015460ff161592506119ae565b60038501548b82169116149250386119a7565b5050506119cb906116f6565b5094505094509250508114611ad457611a9a816118d9565b9160005b828110611aab5750505090565b80611ab9611acf9284611929565b51611ac48287611929565b52611a188186611929565b611a9e565b5090565b5081851061196d565b6040516342027b1360e11b8152600490fd5b60649150611946565b6004810154801561127e5760ff60088301541661127e576006820154101561127e57600901548015159081611b33575b5061110b57565b9050421138611b2c565b60405163a9059cbb60e01b602082019081526001600160a01b03938416602483015260448083019590955293815291926080830167ffffffffffffffff811184821017610d1557600094859485926040525193165af1611b9b611751565b9015908115611bac575b506105d557565b8051801515925082611bc1575b505038611ba5565b8192509060209181010312610236576020611bdc91016118cc565b153880611bb9565b6040516323b872dd60e01b602082019081526001600160a01b039384166024830152938316604482015260648082019590955293845290929160a0830167ffffffffffffffff811184821017610d1557600094859485926040525193165af1611b9b61175156fea2646970667358221220dfa450c3f8c824cd49702612a092c467ffc718d158db906917eb53ad1e92a56964736f6c63430008140033",
  "linkReferences": {},
  "deployedLinkReferences": {}
}