{
  "_format": "hh-sol-artifact-1",
  "contractName": "AssetBackedExchange",
  "sourceName": "contracts/AssetBackedExchange.sol",
  "abi": [
    {
      "inputs": [],
      "name": "InsufficientEth",
      "type": "error"
    },
    {
      "inputs": [],
      "name": "InsufficientFill",
      "type": "error"
    },
    {
      "inputs": [],
      "name": "NotMaker",
      "type": "error"
    },
    {
      "inputs": [],
      "name": "NothingToWithdraw",
      "type": "error"
    },
    {
      "inputs": [],
      "name": "OrderNotActive",
      "type": "error"
    },
    {
      "inputs": [],
      "name": "SameToken",
      "type": "error"
    },
    {
      "inputs": [],
      "name": "TransferFailed",
      "type": "error"
    },
    {
      "inputs": [],
      "name": "ZeroAddress",
      "type": "error"
    },
    {
      "inputs": [],
      "name": "ZeroAmount",
      "type": "error"
    },
    {
      "anonymous": false,
      "inputs": [
        {
          "indexed": true,
          "internalType": "address",
          "name": "to",
          "type": "address"
        },
        {
          "indexed": false,
          "internalType": "uint256",
          "name": "amount",
          "type": "uint256"
        }
      ],
      "name": "EthWithdrawn",
      "type": "event"
    },
    {
      "anonymous": false,
      "inputs": [
        {
          "indexed": true,
          "internalType": "uint256",
          "name": "orderId",
          "type": "uint256"
        },
        {
          "indexed": true,
          "internalType": "address",
          "name": "maker",
          "type": "address"
        }
      ],
      "name": "OrderCancelled",
      "type": "event"
    },
    {
      "anonymous": false,
      "inputs": [
        {
          "indexed": true,
          "internalType": "uint256",
          "name": "orderId",
          "type": "uint256"
        },
        {
          "indexed": true,
          "internalType": "address",
          "name": "maker",
          "type": "address"
        },
        {
          "indexed": false,
          "internalType": "address",
          "name": "tokenSell",
          "type": "address"
        },
        {
          "indexed": false,
          "internalType": "address",
          "name": "tokenBuy",
          "type": "address"
        },
        {
          "indexed": false,
          "internalType": "uint256",
          "name": "amountSell",
          "type": "uint256"
        },
        {
          "indexed": false,
          "internalType": "uint256",
          "name": "amountBuy",
          "type": "uint256"
        }
      ],
      "name": "OrderCreated",
      "type": "event"
    },
    {
      "anonymous": false,
      "inputs": [
        {
          "indexed": true,
          "internalType": "uint256",
          "name": "orderId",
          "type": "uint256"
        },
        {
          "indexed": true,
          "internalType": "address",
          "name": "taker",
          "type": "address"
        },
        {
          "indexed": false,
          "internalType": "uint256",
          "name": "fillAmountSell",
          "type": "uint256"
        },
        {
          "indexed": false,
          "internalType": "uint256",
          "name": "fillAmountBuy",
          "type": "uint256"
        }
      ],
      "name": "OrderFilled",
      "type": "event"
    },
    {
      "inputs": [],
      "name": "ETH_ADDRESS",
      "outputs": [
        {
          "internalType": "address",
          "name": "",
          "type": "address"
        }
      ],
      "stateMutability": "view",
      "type": "function"
    },
    {
      "inputs": [
        {
          "internalType": "uint256",
          "name": "orderId",
          "type": "uint256"
        }
      ],
      "name": "cancelOrder",
      "outputs": [],
      "stateMutability": "nonpayable",
      "type": "function"
    },
    {
      "inputs": [
        {
          "internalType": "address",
          "name": "tokenSell",
          "type": "address"
        },
        {
          "internalType": "address",
          "name": "tokenBuy",
          "type": "address"
        },
        {
          "internalType": "uint256",
          "name": "amountSell",
          "type": "uint256"
        },
        {
          "internalType": "uint256",
          "name": "amountBuy",
          "type": "uint256"
        }
      ],
      "name": "createOrder",
      "outputs": [
        {
          "internalType": "uint256",
          "name": "orderId",
          "type": "uint256"
        }
      ],
      "stateMutability": "nonpayable",
      "type": "function"
    },
    {
      "inputs": [
        {
          "internalType": "address",
          "name": "tokenBuy",
          "type": "address"
        },
        {
          "internalType": "uint256",
          "name": "amountBuy",
          "type": "uint256"
        }
      ],
      "name": "createOrderSellETH",
      "outputs": [
        {
          "internalType": "uint256",
          "name": "orderId",
          "type": "uint256"
        }
      ],
      "stateMutability": "payable",
      "type": "function"
    },
    {
      "inputs": [
        {
          "internalType": "address",
          "name": "",
          "type": "address"
        }
      ],
      "name": "ethBalances",
      "outputs": [
        {
          "internalType": "uint256",
          "name": "",
          "type": "uint256"
        }
      ],
      "stateMutability": "view",
      "type": "function"
    },
    {
      "inputs": [
        {
          "internalType": "uint256",
          "name": "orderId",
          "type": "uint256"
        },
        {
          "internalType": "uint256",
          "name": "fillAmountBuy",
          "type": "uint256"
        }
      ],
      "name": "fillOrder",
      "outputs": [],
      "stateMutability": "nonpayable",
      "type": "function"
    },
    {
      "inputs": [
        {
          "internalType": "uint256",
          "name": "orderId",
          "type": "uint256"
        }
      ],
      "name": "fillOrderWithETH",
      "outputs": [],
      "stateMutability": "payable",
      "type": "function"
    },
    {
      "inputs": [
        {
          "internalType": "address",
          "name": "tokenSell",
          "type": "address"
        },
        {
          "internalType": "address",
          "name": "tokenBuy",
          "type": "address"
        }
      ],
      "name": "getActiveOrders",
      "outputs": [
        {
          "components": [
            {
              "internalType": "uint256",
              "name": "id",
              "type": "uint256"
            },
            {
              "internalType": "address",
              "name": "maker",
              "type": "address"
            },
            {
              "internalType": "address",
              "name": "tokenSell",
              "type": "address"
            },
            {
              "internalType": "address",
              "name": "tokenBuy",
              "type": "address"
            },
            {
              "internalType": "uint256",
              "name": "amountSell",
              "type": "uint256"
            },
            {
              "internalType": "uint256",
              "name": "amountBuy",
              "type": "uint256"
            },
            {
              "internalType": "uint256",
              "name": "filledSell",
              "type": "uint256"
            },
            {
              "internalType": "uint256",
              "name": "filledBuy",
              "type": "uint256"
            },
            {
              "internalType": "bool",
              "name": "cancelled",
              "type": "bool"
            }
          ],
          "internalType": "struct AssetBackedExchange.Order[]",
          "name": "",
          "type": "tuple[]"
        }
      ],
      "stateMutability": "view",
      "type": "function"
    },
    {
      "inputs": [
        {
          "internalType": "uint256",
          "name": "orderId",
          "type": "uint256"
        }
      ],
      "name": "getOrder",
      "outputs": [
        {
          "components": [
            {
              "internalType": "uint256",
              "name": "id",
              "type": "uint256"
            },
            {
              "internalType": "address",
              "name": "maker",
              "type": "address"
            },
            {
              "internalType": "address",
              "name": "tokenSell",
              "type": "address"
            },
            {
              "internalType": "address",
              "name": "tokenBuy",
              "type": "address"
            },
            {
              "internalType": "uint256",
              "name": "amountSell",
              "type": "uint256"
            },
            {
              "internalType": "uint256",
              "name": "amountBuy",
              "type": "uint256"
            },
            {
              "internalType": "uint256",
              "name": "filledSell",
              "type": "uint256"
            },
            {
              "internalType": "uint256",
              "name": "filledBuy",
              "type": "uint256"
            },
            {
              "internalType": "bool",
              "name": "cancelled",
              "type": "bool"
            }
          ],
          "internalType": "struct AssetBackedExchange.Order",
          "name": "",
          "type": "tuple"
        }
      ],
      "stateMutability": "view",
      "type": "function"
    },
    {
      "inputs": [],
      "name": "getOrderCount",
      "outputs": [
        {
          "internalType": "uint256",
          "name": "",
          "type": "uint256"
        }
      ],
      "stateMutability": "view",
      "type": "function"
    },
    {
      "inputs": [
        {
          "internalType": "address",
          "name": "user",
          "type": "address"
        }
      ],
      "name": "getUserOrders",
      "outputs": [
        {
          "internalType": "uint256[]",
          "name": "",
          "type": "uint256[]"
        }
      ],
      "stateMutability": "view",
      "type": "function"
    },
    {
      "inputs": [],
      "name": "nextOrderId",
      "outputs": [
        {
          "internalType": "uint256",
          "name": "",
          "type": "uint256"
        }
      ],
      "stateMutability": "view",
      "type": "function"
    },
    {
      "inputs": [],
      "name": "withdrawEth",
      "outputs": [],
      "stateMutability": "nonpayable",
      "type": "function"
    },
    {
      "stateMutability": "payable",
      "type": "receive"
    }
  ],
  "bytecode": "0x6080806040523461001657611299908161001c8239f35b600080fdfe6080604081815260049081361015610022575b505050361561002057600080fd5b005b600092833560e01c9081632a58b33014610f66575080633cfba0e314610f2e578063514fcac714610dae57806363c69f0814610cfe5780637c14021814610af457806384d8f823146109115780638d0a5fbb146108f45780639aa76c941461070c578063a0ef91df1461067b578063a734f06e14610648578063c37dfc5b146103c3578063d09ef241146103825763fe87991803610012573461037e57608036600319011261037e576100d3610f80565b916100dc610f9b565b906044356064359181158015610376575b610368576001600160a01b03958616938415801561035e575b61034f578616908185146103415773eeeeeeeeeeeeeeeeeeeeeeeeeeeeeeeeeeeeeeee85146103335785516323b872dd60e01b81523382820190815230602082810191909152604082018690529991908a90829081906060010381858b5af19081156103295782916102fc575b50156102ed5780549761018589611082565b8255888a898881519461019786611015565b84865283860190338252838701918d835260608801918b835260808901938d855260a08a0195865260c08a01968b885260e08b01988c8a526101008c019a8d8c528d52600190528b2099518a558160018b01935116926bffffffffffffffffffffffff60a01b93848254161790558160028b0191511683825416179055600389019251169082541617905551878601555160058501555160068401555160078301555115159060080190610256919060ff801983541691151516179055565b33815260028952868120805492600160401b8410156102da57600184018083558410156102c75750818a918a949352200155845193845286840152838301526060820152827fa4be1e061958d160de04db54668a64922c36d2765b16644ae91acf127708970e60803393a351908152f35b634e487b7160e01b835260329052602482fd5b634e487b7160e01b835260419052602482fd5b5085516312171d8360e31b8152fd5b61031c91508a3d8c11610322575b6103148183611048565b81019061106a565b38610173565b503d61030a565b88513d84823e3d90fd5b855163d92e233d60e01b8152fd5b855163100dac0560e11b8152fd5b50845163d92e233d60e01b8152fd5b5086811615610106565b8451631f2a200560e01b8152fd5b5082156100ed565b8280fd5b50903461037e57602036600319011261037e576103b882610120946103c1936103a9611134565b50358152600160205220611179565b91518092610fb1565bf35b503461037e578060031936011261037e57813590602435828552602060018152828620946103f086611233565b821561063a5760038601546001600160a01b039081169673eeeeeeeeeeeeeeeeeeeeeeeeeeeeeeeeeeeeeeee919082891461062a576005810154986007820180549a61043c8c826110a7565b808a11610620575b5061045b90610456888601548b6110b4565b6110c7565b9a8b15610610576104c99288926104738b80946110e7565b90558c610485600687019182546110e7565b90558d86600187015416908c518096819582946323b872dd60e01b84528d3390850160409194939294606082019560018060a01b0380921683521660208201520152565b03925af1908115610606578b916105e9575b50156105d957600201541690810361054657508680808089335af16104fe6110f4565b50156105385750907f36a54e61f475a84cd4a5c3b403be29e6101b05ec843b61fb97c3e123ff59b3f492915b82519586528501523393a380f35b83516312171d8360e31b8152fd5b845163a9059cbb60e01b815233838201908152602081018990529091849183919082908c90829060400103925af19081156105cf5788916105b2575b50156105385750907f36a54e61f475a84cd4a5c3b403be29e6101b05ec843b61fb97c3e123ff59b3f4929161052a565b6105c99150833d8511610322576103148183611048565b38610582565b85513d8a823e3d90fd5b86516312171d8360e31b81528490fd5b6106009150863d8811610322576103148183611048565b386104db565b88513d8d823e3d90fd5b8951633e0526e560e01b81528790fd5b985061045b610444565b865163d92e233d60e01b81528490fd5b8351631f2a200560e01b8152fd5b8382346106775781600319360112610677576020905173eeeeeeeeeeeeeeeeeeeeeeeeeeeeeeeeeeeeeeee8152f35b5080fd5b503461037e578260031936011261037e573383526003602052808320549182156106fe57338452600360205283828120558380808086335af16106bc6110f4565b50156106f05750519081527f8455ae6be5d92f1df1c3c1484388e247a36c7e60d72055ae216dbc258f257d4b60203392a280f35b90516312171d8360e31b8152fd5b9051630686827b60e51b8152fd5b508060031936011261037e57610720610f80565b602435341580156108ec575b6108dd576001600160a01b03918216801580156108c0575b6108b05785549461075486611082565b875584519661076288611015565b86885260209787898881840198338a528185019073eeeeeeeeeeeeeeeeeeeeeeeeeeeeeeeeeeeeeeee9a8b835260608701908a8252608088019234845260a08901948d865260c08a01968b885260e08b01988c8a526101008c019a8d8c528d52600190528b2099518a558160018b01935116926bffffffffffffffffffffffff60a01b93848254161790558160028b019151168382541617905560038901925116908254161790555187860155516005850155516006840155516007830155511515906008019061083e919060ff801983541691151516179055565b33815260028852858120805492600160401b8410156102da57600184018083558410156102c757508189918994935220015583519283528583015234838301526060820152827fa4be1e061958d160de04db54668a64922c36d2765b16644ae91acf127708970e60803393a351908152f35b5050505163d92e233d60e01b8152fd5b5073eeeeeeeeeeeeeeeeeeeeeeeeeeeeeeeeeeeeeeee8114610744565b505051631f2a200560e01b8152fd5b50801561072c565b838234610677578160031936011261067757602091549051908152f35b509060209182600319360112610af057813591828552600184528185209361093885611233565b3415610ae15760038501546001600160a01b039290831673eeeeeeeeeeeeeeeeeeeeeeeeeeeeeeeeeeeeeeed1901610ad357600586015492600787019687549761098289876110a7565b803411600014610ac85761099f90965b61045686850154896110b4565b988915610ab857866109b0916110e7565b9055600681016109c18982546110e7565b90558880808088866001870154165af16109d96110f4565b5015610aa85760020154855163a9059cbb60e01b815233848201908152602081018a90529092859284928390036040019183918d91165af19081156105cf578891610a8b575b501561053857823411610a5f575b50825194855284015233927f36a54e61f475a84cd4a5c3b403be29e6101b05ec843b61fb97c3e123ff59b3f49190a380f35b86808080610a6d87346110a7565b335af1610a786110f4565b50610a2d5783516312171d8360e31b8152fd5b610aa29150833d8511610322576103148183611048565b38610a1f565b85516312171d8360e31b81528390fd5b8751633e0526e560e01b81528590fd5b5061099f3496610992565b835163d92e233d60e01b8152fd5b509051631f2a200560e01b8152fd5b8380fd5b50829034610677578060031936011261067757610b0f610f80565b92610b18610f9b565b835493948594926001600160a01b03918216929190865b858110610c795750610b40886111f1565b97610b4d8751998a611048565b808952610b5c601f19916111f1565b01875b818110610c625750508692875b868110610bbf5788888b81519160208080850192818652845180945285019301945b828110610b9b5784840385f35b9091928261012082610bb06001948a51610fb1565b01960191019492919094610b8e565b80895260016020528789208a87866002840154161480610c51575b80610c42575b80610c32575b610bfb575b5050610bf690611082565b610b6c565b610c17610c2a91610c2389610c1d610bf697969b948592611082565b9b611179565b92611209565b528c611209565b50908a610beb565b5060068201548583015411610be6565b5060ff60088301541615610be0565b508560038301541686851614610bda565b602090610c6d611134565b82828d01015201610b5f565b80885260016020528688208584600283015416149081610ceb575b81610cdb575b81610cc9575b50610cb4575b610caf90611082565b610b2f565b97610cc1610caf91611082565b989050610ca6565b9050826006820154910154118a610ca0565b600881015460ff16159150610c9a565b9050836003820154168486161490610c94565b508234610dab5760209081600319360112610dab5782906001600160a01b03610d25610f80565b16815260028352818120908251808584549182815201908194845286842090845b818110610d975750505081610d5c910382611048565b83519485948186019282875251809352850193925b828110610d8057505050500390f35b835185528695509381019392810192600101610d71565b825484529288019260019283019201610d46565b80fd5b50903461037e5760209182600319360112610af0578135928385526001815281852092610dda84611233565b6001840180546001600160a01b039290831633819003610f1f5760088701805460ff19166001179055818701546006880154610e15916110a7565b9687610e46575b89338a7fc0362da6f2ff36b382b34aec0814f6b3cdf89f5ef282a1d1f114d0c0b036d5968380a380f35b6002015484169073eeeeeeeeeeeeeeeeeeeeeeeeeeeeeeeeeeeeeeee8203610e935750505091600391610e839493541687525284209182546110e7565b90555b3880808080808080610e1c565b865163a9059cbb60e01b81526001600160a01b0390911681840190815260208101989098529196919350849250839182908a90829060400103925af1918215610f15578692610ef8575b505015610eeb575050610e86565b516312171d8360e31b8152fd5b610f0e9250803d10610322576103148183611048565b3880610edd565b83513d88823e3d90fd5b50845163b331e42160e01b8152fd5b8382346106775760203660031901126106775760209181906001600160a01b03610f56610f80565b1681526003845220549051908152f35b849034610677578160031936011261067757602091548152f35b600435906001600160a01b0382168203610f9657565b600080fd5b602435906001600160a01b0382168203610f9657565b8051825260018060a01b0380602083015116602084015280604083015116604084015260608201511660608301526080810151608083015260a081015160a083015260c081015160c083015260e081015160e0830152610100809101511515910152565b610120810190811067ffffffffffffffff82111761103257604052565b634e487b7160e01b600052604160045260246000fd5b90601f8019910116810190811067ffffffffffffffff82111761103257604052565b90816020910312610f9657518015158103610f965790565b60001981146110915760010190565b634e487b7160e01b600052601160045260246000fd5b9190820391821161109157565b8181029291811591840414171561109157565b81156110d1570490565b634e487b7160e01b600052601260045260246000fd5b9190820180921161109157565b3d1561112f573d9067ffffffffffffffff82116110325760405191611123601f8201601f191660200184611048565b82523d6000602084013e565b606090565b6040519061114182611015565b816101006000918281528260208201528260408201528260608201528260808201528260a08201528260c08201528260e08201520152565b9060405161118681611015565b8254815260018301546001600160a01b039081166020830152600284015481166040830152600384015416606082015260048301546080820152600583015460a0820152600683015460c0820152600783015460e082015260089092015460ff161515610100830152565b67ffffffffffffffff81116110325760051b60200190565b805182101561121d5760209160051b010190565b634e487b7160e01b600052603260045260246000fd5b60ff6008820154166112515760046006820154910154111561125157565b604051631d4ecc5b60e01b8152600490fdfea2646970667358221220fa3028ee3d0fcd38273dbc585d11ae60a76b8375f65a7b8b3dd1a6f06fa33f2b64736f6c63430008140033",
  "linkReferences": {},
  "deployedLinkReferences": {}
}