{
  "_format": "hh-sol-artifact-1",
  "contractName": "EasyAccessControl",
  "sourceName": "contracts/security-token/EasyAccessControl.sol",
  "abi": [
    {
      "anonymous": false,
      "inputs": [
        {
          "indexed": true,
          "internalType": "address",
          "name": "grantor",
          "type": "address"
        },
        {
          "indexed": true,
          "internalType": "address",
          "name": "grantee",
          "type": "address"
        },
        {
          "indexed": false,
          "internalType": "uint8",
          "name": "role",
          "type": "uint8"
        },
        {
          "indexed": true,
          "internalType": "bool",
          "name": "status",
          "type": "bool"
        }
      ],
      "name": "RoleChange",
      "type": "event"
    },
    {
      "inputs": [],
      "name": "contractAdminCount",
      "outputs": [
        {
          "internalType": "uint8",
          "name": "",
          "type": "uint8"
        }
      ],
      "stateMutability": "view",
      "type": "function"
    },
    {
      "inputs": [
        {
          "internalType": "address",
          "name": "addr",
          "type": "address"
        },
        {
          "internalType": "uint8",
          "name": "role",
          "type": "uint8"
        }
      ],
      "name": "grantRole",
      "outputs": [],
      "stateMutability": "nonpayable",
      "type": "function"
    },
    {
      "inputs": [
        {
          "internalType": "address",
          "name": "addr",
          "type": "address"
        },
        {
          "internalType": "uint8",
          "name": "role",
          "type": "uint8"
        }
      ],
      "name": "hasRole",
      "outputs": [
        {
          "internalType": "bool",
          "name": "",
          "type": "bool"
        }
      ],
      "stateMutability": "view",
      "type": "function"
    },
    {
      "inputs": [
        {
          "internalType": "address",
          "name": "addr",
          "type": "address"
        },
        {
          "internalType": "uint8",
          "name": "role",
          "type": "uint8"
        }
      ],
      "name": "revokeRole",
      "outputs": [],
      "stateMutability": "nonpayable",
      "type": "function"
    }
  ],
  "bytecode": "0x60808060405234610016576104bd908161001c8239f35b600080fdfe604060808152600436101561001357600080fd5b600090813560e01c8063077d3c03146101845780633e840236146100935780638e64eac514610072576395a8c58d1461004b57600080fd5b3461006e5760209061006561005f36610301565b90610441565b90519015158152f35b5080fd5b503461006e578160031936011261006e5760209060ff600154169051908152f35b503461006e576100a236610301565b919060ff918284169182151580610176575b6100bd90610336565b6001600160a01b0316926100d284151561037d565b6100e36100de33610417565b6103c1565b838652856020526001948580848920541615918261016a575b5050610138575b8386528560205281862090838254918216179060ff19161790555190815260008051602061049183398151915260203392a480f35b84548181168281146101565786839101169060ff1916178555610103565b634e487b7160e01b88526011600452602488fd5b161515905085386100fc565b50600f8581178516146100b4565b5090346102fe5761019436610301565b9260ff9081851691821515806102f0575b6101ae90610336565b6001600160a01b038416936101db9087906101ca87151561037d565b6101d66100de33610417565b610441565b156102b65760018616610221575b8495848652856020528286209182549181831618169060ff19161790555190815260008051602061049183398151915260203392a480f35b600154958187169660018811156102645787156102505760ff19166000199097018216969096176001556101e9565b634e487b7160e01b87526011600452602487fd5b835162461bcd60e51b815260206004820152602560248201527f4d7573742068617665206174206c65617374206f6e6520636f6e74726163742060448201526430b236b4b760d91b6064820152608490fd5b815162461bcd60e51b815260206004820152601360248201527243414e204e4f54205245564f4b4520524f4c4560681b6044820152606490fd5b50600f8681178216146101a5565b80fd5b6040906003190112610331576004356001600160a01b0381168103610331579060243560ff811681036103315790565b600080fd5b1561033d57565b60405162461bcd60e51b8152602060048201526018602482015277444f4553204e4f5420484156452056414c494420524f4c4560401b6044820152606490fd5b1561038457565b60405162461bcd60e51b81526020600482015260156024820152740416464726573732063616e6e6f742062652030783605c1b6044820152606490fd5b156103c857565b60405162461bcd60e51b815260206004820152602160248201527f444f4553204e4f54204841564520434f4e54524143542041444d494e20524f4c6044820152604560f81b6064820152608490fd5b6001600160a01b031661042b81151561037d565b6000526000602052600160406000205416151590565b9060ff91828216151580610482575b61045990610336565b6001600160a01b031661046d81151561037d565b60005260006020526040600020541616151590565b50600f82811784161461045056fe7e9e87d17fbf2950f3379a6331b75b6e997a147bbd3eaedc68c30c62186c68cba164736f6c6343000814000a",
  "linkReferences": {},
  "deployedLinkReferences": {}
}