{
  "_format": "hh-sol-artifact-1",
  "contractName": "OrbitalRouter",
  "sourceName": "contracts/orbital/OrbitalRouter.sol",
  "abi": [
    {
      "inputs": [
        {
          "internalType": "address",
          "name": "_factory",
          "type": "address"
        },
        {
          "internalType": "address",
          "name": "_owner",
          "type": "address"
        }
      ],
      "stateMutability": "nonpayable",
      "type": "constructor"
    },
    {
      "inputs": [],
      "name": "DeadlineExpired",
      "type": "error"
    },
    {
      "inputs": [],
      "name": "InsufficientAllowance",
      "type": "error"
    },
    {
      "inputs": [],
      "name": "InvalidPath",
      "type": "error"
    },
    {
      "inputs": [],
      "name": "NotOwner",
      "type": "error"
    },
    {
      "inputs": [],
      "name": "PoolNotFound",
      "type": "error"
    },
    {
      "inputs": [],
      "name": "ReentrancyGuard",
      "type": "error"
    },
    {
      "inputs": [],
      "name": "SlippageExceeded",
      "type": "error"
    },
    {
      "inputs": [],
      "name": "TokenNotInPool",
      "type": "error"
    },
    {
      "inputs": [],
      "name": "TooManyHops",
      "type": "error"
    },
    {
      "inputs": [],
      "name": "TransferFailed",
      "type": "error"
    },
    {
      "inputs": [],
      "name": "ZeroAddress",
      "type": "error"
    },
    {
      "inputs": [],
      "name": "ZeroAmount",
      "type": "error"
    },
    {
      "anonymous": false,
      "inputs": [
        {
          "indexed": true,
          "internalType": "address",
          "name": "token",
          "type": "address"
        },
        {
          "indexed": true,
          "internalType": "address",
          "name": "to",
          "type": "address"
        },
        {
          "indexed": false,
          "internalType": "uint256",
          "name": "amount",
          "type": "uint256"
        }
      ],
      "name": "DustRecovered",
      "type": "event"
    },
    {
      "anonymous": false,
      "inputs": [
        {
          "indexed": true,
          "internalType": "address",
          "name": "sender",
          "type": "address"
        },
        {
          "indexed": true,
          "internalType": "address",
          "name": "pool",
          "type": "address"
        },
        {
          "indexed": false,
          "internalType": "uint256",
          "name": "lpMinted",
          "type": "uint256"
        }
      ],
      "name": "LiquidityAdded",
      "type": "event"
    },
    {
      "anonymous": false,
      "inputs": [
        {
          "indexed": true,
          "internalType": "address",
          "name": "sender",
          "type": "address"
        },
        {
          "indexed": true,
          "internalType": "address",
          "name": "pool",
          "type": "address"
        },
        {
          "indexed": false,
          "internalType": "uint256",
          "name": "lpBurned",
          "type": "uint256"
        }
      ],
      "name": "LiquidityRemoved",
      "type": "event"
    },
    {
      "anonymous": false,
      "inputs": [
        {
          "indexed": true,
          "internalType": "address",
          "name": "sender",
          "type": "address"
        },
        {
          "indexed": false,
          "internalType": "address",
          "name": "tokenIn",
          "type": "address"
        },
        {
          "indexed": false,
          "internalType": "address",
          "name": "tokenOut",
          "type": "address"
        },
        {
          "indexed": false,
          "internalType": "uint256",
          "name": "amountIn",
          "type": "uint256"
        },
        {
          "indexed": false,
          "internalType": "uint256",
          "name": "amountOut",
          "type": "uint256"
        },
        {
          "indexed": false,
          "internalType": "uint256",
          "name": "hops",
          "type": "uint256"
        }
      ],
      "name": "MultiHopSwapExecuted",
      "type": "event"
    },
    {
      "anonymous": false,
      "inputs": [
        {
          "indexed": true,
          "internalType": "address",
          "name": "previousOwner",
          "type": "address"
        },
        {
          "indexed": true,
          "internalType": "address",
          "name": "newOwner",
          "type": "address"
        }
      ],
      "name": "OwnershipTransferred",
      "type": "event"
    },
    {
      "anonymous": false,
      "inputs": [
        {
          "indexed": true,
          "internalType": "address",
          "name": "sender",
          "type": "address"
        },
        {
          "indexed": true,
          "internalType": "address",
          "name": "pool",
          "type": "address"
        },
        {
          "indexed": false,
          "internalType": "address",
          "name": "tokenIn",
          "type": "address"
        },
        {
          "indexed": false,
          "internalType": "address",
          "name": "tokenOut",
          "type": "address"
        },
        {
          "indexed": false,
          "internalType": "uint256",
          "name": "amountIn",
          "type": "uint256"
        },
        {
          "indexed": false,
          "internalType": "uint256",
          "name": "amountOut",
          "type": "uint256"
        }
      ],
      "name": "SwapExecuted",
      "type": "event"
    },
    {
      "inputs": [],
      "name": "MAX_HOPS",
      "outputs": [
        {
          "internalType": "uint256",
          "name": "",
          "type": "uint256"
        }
      ],
      "stateMutability": "view",
      "type": "function"
    },
    {
      "inputs": [
        {
          "internalType": "address",
          "name": "pool",
          "type": "address"
        },
        {
          "internalType": "uint256[]",
          "name": "amounts",
          "type": "uint256[]"
        },
        {
          "internalType": "uint256",
          "name": "minLiquidity",
          "type": "uint256"
        },
        {
          "internalType": "uint256",
          "name": "deadline",
          "type": "uint256"
        }
      ],
      "name": "addLiquidity",
      "outputs": [
        {
          "internalType": "uint256",
          "name": "liquidity",
          "type": "uint256"
        }
      ],
      "stateMutability": "nonpayable",
      "type": "function"
    },
    {
      "inputs": [
        {
          "internalType": "address",
          "name": "pool",
          "type": "address"
        },
        {
          "internalType": "address",
          "name": "tokenIn",
          "type": "address"
        },
        {
          "internalType": "address",
          "name": "tokenOut",
          "type": "address"
        },
        {
          "internalType": "uint256",
          "name": "amountIn",
          "type": "uint256"
        }
      ],
      "name": "getAmountOut",
      "outputs": [
        {
          "internalType": "uint256",
          "name": "amountOut",
          "type": "uint256"
        },
        {
          "internalType": "uint256",
          "name": "feeAmount",
          "type": "uint256"
        }
      ],
      "stateMutability": "view",
      "type": "function"
    },
    {
      "inputs": [
        {
          "internalType": "address[]",
          "name": "pools",
          "type": "address[]"
        },
        {
          "internalType": "address[]",
          "name": "tokenPath",
          "type": "address[]"
        },
        {
          "internalType": "uint256",
          "name": "amountIn",
          "type": "uint256"
        }
      ],
      "name": "getAmountOutMultiHop",
      "outputs": [
        {
          "internalType": "uint256",
          "name": "amountOut",
          "type": "uint256"
        }
      ],
      "stateMutability": "view",
      "type": "function"
    },
    {
      "inputs": [],
      "name": "orbitalFactory",
      "outputs": [
        {
          "internalType": "contract OrbitalFactory",
          "name": "",
          "type": "address"
        }
      ],
      "stateMutability": "view",
      "type": "function"
    },
    {
      "inputs": [],
      "name": "owner",
      "outputs": [
        {
          "internalType": "address",
          "name": "",
          "type": "address"
        }
      ],
      "stateMutability": "view",
      "type": "function"
    },
    {
      "inputs": [
        {
          "internalType": "address",
          "name": "token",
          "type": "address"
        },
        {
          "internalType": "address",
          "name": "to",
          "type": "address"
        },
        {
          "internalType": "uint256",
          "name": "amount",
          "type": "uint256"
        }
      ],
      "name": "recoverDust",
      "outputs": [],
      "stateMutability": "nonpayable",
      "type": "function"
    },
    {
      "inputs": [
        {
          "internalType": "address",
          "name": "pool",
          "type": "address"
        },
        {
          "internalType": "uint256",
          "name": "liquidity",
          "type": "uint256"
        },
        {
          "internalType": "uint256[]",
          "name": "minAmounts",
          "type": "uint256[]"
        },
        {
          "internalType": "uint256",
          "name": "deadline",
          "type": "uint256"
        }
      ],
      "name": "removeLiquidity",
      "outputs": [
        {
          "internalType": "uint256[]",
          "name": "amounts",
          "type": "uint256[]"
        }
      ],
      "stateMutability": "nonpayable",
      "type": "function"
    },
    {
      "inputs": [
        {
          "internalType": "address",
          "name": "pool",
          "type": "address"
        },
        {
          "internalType": "address",
          "name": "tokenIn",
          "type": "address"
        },
        {
          "internalType": "address",
          "name": "tokenOut",
          "type": "address"
        },
        {
          "internalType": "uint256",
          "name": "amountIn",
          "type": "uint256"
        },
        {
          "internalType": "uint256",
          "name": "minAmountOut",
          "type": "uint256"
        },
        {
          "internalType": "uint256",
          "name": "deadline",
          "type": "uint256"
        }
      ],
      "name": "swap",
      "outputs": [
        {
          "internalType": "uint256",
          "name": "amountOut",
          "type": "uint256"
        }
      ],
      "stateMutability": "nonpayable",
      "type": "function"
    },
    {
      "inputs": [
        {
          "internalType": "address[]",
          "name": "pools",
          "type": "address[]"
        },
        {
          "internalType": "address[]",
          "name": "tokenPath",
          "type": "address[]"
        },
        {
          "internalType": "uint256",
          "name": "amountIn",
          "type": "uint256"
        },
        {
          "internalType": "uint256",
          "name": "minAmountOut",
          "type": "uint256"
        },
        {
          "internalType": "uint256",
          "name": "deadline",
          "type": "uint256"
        }
      ],
      "name": "swapMultiHop",
      "outputs": [
        {
          "internalType": "uint256",
          "name": "amountOut",
          "type": "uint256"
        }
      ],
      "stateMutability": "nonpayable",
      "type": "function"
    },
    {
      "inputs": [
        {
          "internalType": "address",
          "name": "newOwner",
          "type": "address"
        }
      ],
      "name": "transferOwnership",
      "outputs": [],
      "stateMutability": "nonpayable",
      "type": "function"
    }
  ],
  "bytecode": "0x60a034620000eb57601f62001a3c38819003918201601f19168301916001600160401b03831184841017620000f0578084926040948552833981010312620000eb576200005a6020620000528362000106565b920162000106565b60016000556001600160a01b0391821680158015620000e0575b620000ce57608052168060018060a01b031960015416176001556040519060007f8be0079c531659141344cd1fd0a4f28419497f9722a3daafe3b4186f6b6457e08180a361192090816200011c823960805181610eb40152f35b60405163d92e233d60e01b8152600490fd5b508282161562000074565b600080fd5b634e487b7160e01b600052604160045260246000fd5b51906001600160a01b0382168203620000eb5756fe608080604052600436101561001357600080fd5b60003560e01c9081632d94e2fa14611277575080636760d6c8146111f257806375ce8b8314610f285780638c51222e14610f0c5780638da5cb5b14610ee3578063afdc876514610e9e578063bd0cfd1c14610a20578063d3b7634f146106b0578063d7176ca9146104a1578063f2fde38b146104205763faea590a1461009857600080fd5b346103195760603660031901126103195767ffffffffffffffff600435818111610319576100ca90369060040161153b565b6024928335908111610319576100e490369060040161153b565b82156103e7576004831161040e57600183018084116103f95781036103e757929190604435936000935b83851061012057602086604051908152f35b909192939460018060a01b0361013f61013a8888866115cf565b6115df565b16156103d5576001600160a01b0361015b61013a8888866115cf565b169061016b61013a8886886115cf565b6040516319b02f4960e21b81526001600160a01b039091166004820152906020828a81865afa9182156102d1576000926103a1575b5060018801881161038c576101bc61013a60018a0187896115cf565b6040516319b02f4960e21b81526001600160a01b039091166004820152926020848b81845afa9384156102d157600094610358575b50604051638e499bcf60e01b80825290602081600481865afa9081156102d157600091610326575b508410156102dd57604051908152602081600481855afa9081156102d1576000916102ef575b508410156102dd5761027b93604093845195869485938493630153543560e21b8552600485016040919493926060820195825260208201520152565b03915afa80156102d157610298916000916102a1575b50956115c0565b9392919061010e565b6102c3915060403d6040116102ca575b6102bb818361159e565b810190611662565b5038610291565b503d6102b1565b6040513d6000823e3d90fd5b604051630732619560e01b8152600490fd5b90506020813d60201161031e575b8161030a6020938361159e565b8101031261031957513861023f565b600080fd5b3d91506102fd565b90506020813d602011610350575b816103416020938361159e565b81010312610319575138610219565b3d9150610334565b9093506020813d602011610384575b816103746020938361159e565b81010312610319575192386101f1565b3d9150610367565b88634e487b7160e01b60005260116004526000fd5b9091506020813d6020116103cd575b816103bd6020938361159e565b81010312610319575190386101a0565b3d91506103b0565b60405163d92e233d60e01b8152600490fd5b6040516320db826760e01b8152600490fd5b85634e487b7160e01b60005260116004526000fd5b604051630541e42960e11b8152600490fd5b34610319576020366003190112610319576104396114f9565b600154906001600160a01b03808316913383900361048f57169182156103d5576001600160a01b03191682176001557f8be0079c531659141344cd1fd0a4f28419497f9722a3daafe3b4186f6b6457e0600080a3005b6040516330cd747160e01b8152600490fd5b34610319576080366003190112610319576104ba6114f9565b6104c261150f565b906104cb611525565b916001600160a01b039182169182156103d55760405190806319b02f4960e21b938484521660048301526020948583602481885afa9283156102d157600093610681575b506040519384521660048301528382602481865afa9182156102d157600092610652575b50604051638e499bcf60e01b808252908581600481885afa9081156102d157600091610625575b508210156102dd576040519081528481600481875afa9081156102d1576000916105f8575b508210156102dd5760408051630153543560e21b815260048101929092526024820192909252606480356044830152909283919082905afa80156102d1576040926000926000926105d6575b508351928352820152f35b9092506105f09150833d85116102ca576102bb818361159e565b9091846105cb565b90508481813d831161061e575b61060f818361159e565b8101031261031957518561057f565b503d610605565b90508581813d831161064b575b61063c818361159e565b8101031261031957518661055a565b503d610632565b9091508381813d831161067a575b61066a818361159e565b8101031261031957519084610533565b503d610660565b9092508581813d83116106a9575b610699818361159e565b810103126103195751918661050f565b503d61068f565b34610319576080366003190112610319576106c96114f9565b602480359067ffffffffffffffff604435818111610319576106ef90369060040161153b565b939092606435926001968760005403610a0e5760026000558442116109fc5783156109ea576001600160a01b03169384156103d5576040516323b872dd60e01b815233600482015230602482015260448101859052602097909690888860648160008b5af19283156102d157610791986000946109bd575b5060405163031cd52b60e41b81526004810188905260608782015298899384936064850191611612565b906044830152038183885af19485156102d15760009561091a575b5050604051638e499bcf60e01b8152908582600481875afa9182156102d1576000926108eb575b5060009694965b82811061084d575050506040519081527f983e86fda8e7b1e2eae380201830eaf1cac55772e8e39583da349865e8178863843392a380600055604051918083018184528451809152816040850195019160005b82811061083a5785870386f35b835187529581019592810192840161082d565b6108598189979961164e565b51610870575b610868906115c0565b9694966107da565b6040516327b2595f60e11b8152600481018290529087828481895afa9182156102d157610868926108b7916000916108be575b506108ae838a61164e565b519033906118ab565b905061085f565b6108de91508a3d8c116108e4575b6108d6818361159e565b8101906115f3565b8b6108a3565b503d6108cc565b9091508581813d8311610913575b610903818361159e565b81010312610319575190876107d3565b503d6108f9565b909194503d806000833e61092e818361159e565b810190868183031261031957805190838211610319570181601f820112156103195780519283116109a8578260051b906040519361096e8984018661159e565b845287808501928201019283116103195787809101915b83831061099857505050509286806107ac565b8251815291810191889101610985565b85634e487b7160e01b60005260416004526000fd5b6109dc908b3d8d116109e3575b6109d4818361159e565b810190611636565b508b610767565b503d6109ca565b604051631f2a200560e01b8152600490fd5b604051631ab7da6b60e01b8152600490fd5b6040516345f5ce8b60e11b8152600490fd5b346103195760a03660031901126103195767ffffffffffffffff60043581811161031957610a5290369060040161153b565b9160243590811161031957610a6b90369060040161153b565b92600160005403610a0e57600260005560843542116109fc5780156103e7576004811161040e5760018101808211610b935784036103e757604435156109ea5760005b848110610e74575060005b818110610e4a57508315610e3457610ae0610ad3836115df565b60443590309033906117f9565b604435926000905b828210610bbb5750506064358310610ba9576000198401848111610b935761013a610b3791602096610b288733610b2361013a86868c6115cf565b6118ab565b610b31866115df565b956115cf565b916040519260018060a01b0380921684521684830152604435604083015282606083015260808201527f34523fcdc91db4fd3a4e04da906a793a2454090d389c378b71cecdad063a60dd60a03392a26001600055604051908152f35b634e487b7160e01b600052601160045260246000fd5b604051638199f5f360e01b8152600490fd5b90936001600160a01b03610bd361013a8786866115cf565b16610be261013a8789886115cf565b90600187018711610b9357610bfe61013a600189018a896115cf565b6040516319b02f4960e21b81526001600160a01b0384166004820152909190602081602481855afa9081156102d157600091610e02575b506040516319b02f4960e21b81526001600160a01b039093166004840152602083602481855afa9283156102d157600093610dce575b50604051638e499bcf60e01b8152602081600481865afa9081156102d157600091610d9c575b508110156102dd57604051638e499bcf60e01b8152602081600481865afa9081156102d157600091610d6a575b508310156102dd57600060a492610ce687602097610ce061013a8f8e8e6115cf565b906116b8565b6040519687958694630c45c5c360e41b865260048601526024850152604484015281606484015260843560848401525af180156102d157600090610d36575b610d309150946115c0565b90610ae8565b506020813d602011610d62575b81610d506020938361159e565b8101031261031957610d309051610d25565b3d9150610d43565b90506020813d602011610d94575b81610d856020938361159e565b8101031261031957518b610cbe565b3d9150610d78565b90506020813d602011610dc6575b81610db76020938361159e565b8101031261031957518b610c91565b3d9150610daa565b9092506020813d602011610dfa575b81610dea6020938361159e565b810103126103195751918a610c6b565b3d9150610ddd565b90506020813d602011610e2c575b81610e1d6020938361159e565b8101031261031957518a610c35565b3d9150610e10565b634e487b7160e01b600052603260045260246000fd5b6001600160a01b03610e6061013a8385886115cf565b16156103d557610e6f906115c0565b610ab9565b6001600160a01b03610e8a61013a8388876115cf565b16156103d557610e99906115c0565b610aae565b34610319576000366003190112610319576040517f00000000000000000000000000000000000000000000000000000000000000006001600160a01b03168152602090f35b34610319576000366003190112610319576001546040516001600160a01b039091168152602090f35b3461031957600036600319011261031957602060405160048152f35b346103195760c036600319011261031957610f416114f9565b610f4961150f565b90610f52611525565b6064359160a43592600160005403610a0e5760026000558342116109fc5780156109ea576001600160a01b039482861693841580156111e8575b80156111de575b6103d557604051956319b02f4960e21b808852888416958660048a01526020998a8a6024818c5afa998a156102d15760009a6111af575b506040519283528416948560048401528a836024818c5afa9283156102d157600093611180575b50604051638e499bcf60e01b808252908c816004818e5afa9081156102d157600091611153575b508b10156102dd576040519081528b816004818d5afa9081156102d157600091611126575b508310156102dd5761105c918791611057833033846117f9565b6116b8565b60405197630c45c5c360e41b89526004890152602488015283604488015260843560648801526084870152868660a4816000895af19586156102d1576000966110f5575b50856110ad9133906118ab565b6040519283528583015260408201528260608201527f28d00b9419287441aad457025bbaa9aaead77e93e2739080543e5261012b0eee60803392a36001600055604051908152f35b9095508681813d831161111f575b61110d818361159e565b810103126103195751946110ad6110a0565b503d611103565b90508b81813d831161114c575b61113d818361159e565b8101031261031957518c61103d565b503d611133565b90508c81813d8311611179575b61116a818361159e565b8101031261031957518d611018565b503d611160565b9092508a81813d83116111a8575b611198818361159e565b810103126103195751918b610ff1565b503d61118e565b9099508a81813d83116111d7575b6111c7818361159e565b810103126103195751988b610fca565b503d6111bd565b5086811615610f93565b5086821615610f8c565b346103195760603660031901126103195761120b6114f9565b61121361150f565b6001546001600160a01b03926044359290918416330361048f578381169384156103d55783156109ea578261126c856020947f108c8def268d7135f80ce9a27f8ec3d319b83b3857af193d41fd1da1371e4fd6966118ab565b6040519485521692a3005b34610319576080366003190112610319576112906114f9565b6024803567ffffffffffffffff8111610319576112b190369060040161153b565b9190606435946001600054036114ea575060026000558442116109fc576001600160a01b0384169283156103d55760405192638e499bcf60e01b84526020968785600481895afa9687156102d15788956000986114b9575b506000905b888210611418575050604051634d49e87d60e01b81526060600482015296508693849361134091606486019190611612565b9160443590840152604483015203816000855af19182156102d1576000926113e9575b5060405163a9059cbb60e01b81523360048201526024810183905283816044816000865af180156102d1576113cc575b506040518281527f9d278c56ba6dc86a12eefe6b43112bd6e06648eb4ec0b950ee2d783d40e2acb4843392a36001600055604051908152f35b6113e290843d86116109e3576109d4818361159e565b5083611393565b9091508281813d8311611411575b611401818361159e565b8101031261031957519083611363565b503d6113f7565b9095506040516327b2595f60e11b8152866004820152898185818b5afa9687156102d1578a976114629260009161149c575b5061145682888a6115cf565b35611468575b506115c0565b9061130e565b6114969061148361147a848a8c6115cf565b353033846117f9565b8461148f848a8c6115cf565b35916116b8565b8b61145c565b6114b39150893d8b116108e4576108d6818361159e565b8c61144a565b8681979299503d83116114e3575b6114d1818361159e565b81010312610319578794519689611309565b503d6114c7565b6345f5ce8b60e11b8152600490fd5b600435906001600160a01b038216820361031957565b602435906001600160a01b038216820361031957565b604435906001600160a01b038216820361031957565b9181601f840112156103195782359167ffffffffffffffff8311610319576020808501948460051b01011161031957565b6080810190811067ffffffffffffffff82111761158857604052565b634e487b7160e01b600052604160045260246000fd5b90601f8019910116810190811067ffffffffffffffff82111761158857604052565b6000198114610b935760010190565b9190811015610e345760051b0190565b356001600160a01b03811681036103195790565b9081602091031261031957516001600160a01b03811681036103195790565b81835290916001600160fb1b0383116103195760209260051b809284830137010190565b90816020910312610319575180151581036103195790565b8051821015610e345760209160051b010190565b9190826040910312610319576020825192015190565b3d156116b3573d9067ffffffffffffffff821161158857604051916116a7601f8201601f19166020018461159e565b82523d6000602084013e565b606090565b9060409283518091636eb1769f60e11b825230600483015260018060a01b0380941693846024840152826044602095869389165afa9182156117ee576000926117bc575b50811061170b575b5050505050565b61176c575b916000929183809386519081019263095ea7b360e01b8452602482015281196044820152604481526117418161156c565b51925af161174d611678565b501561175c5780808080611704565b516312171d8360e31b8152600490fd5b60008085518381019063095ea7b360e01b8252856024820152826044820152604481526117988161156c565b519082875af16117a6611678565b506117105783516312171d8360e31b8152600490fd5b90918382813d83116117e7575b6117d3818361159e565b810103126117e457505190386116fc565b80fd5b503d6117c9565b86513d6000823e3d90fd5b6040516323b872dd60e01b602082019081526001600160a01b039384166024830152939092166044830152606482019390935260009283929091839061184c81608481015b03601f19810183528261159e565b51925af1611858611678565b901590811561187b575b5061186957565b6040516312171d8360e31b8152600490fd5b8051801515925082611890575b505038611862565b6118a39250602080918301019101611636565b153880611888565b60405163a9059cbb60e01b602082019081526001600160a01b0390931660248201526044810193909352600092839290839061184c816064810161183e56fea2646970667358221220647253b02d762e7b570068a4ba2b4c9511adbfd480d38c8f8ba14296a75d00ce64736f6c63430008140033",
  "linkReferences": {},
  "deployedLinkReferences": {}
}