{
  "_format": "hh-sol-artifact-1",
  "contractName": "OrbitalRouter",
  "sourceName": "contracts/orbital/OrbitalRouter.sol",
  "abi": [
    {
      "inputs": [
        {
          "internalType": "address",
          "name": "_factory",
          "type": "address"
        }
      ],
      "stateMutability": "nonpayable",
      "type": "constructor"
    },
    {
      "inputs": [],
      "name": "DeadlineExpired",
      "type": "error"
    },
    {
      "inputs": [],
      "name": "InsufficientAllowance",
      "type": "error"
    },
    {
      "inputs": [],
      "name": "InvalidPath",
      "type": "error"
    },
    {
      "inputs": [],
      "name": "PoolNotFound",
      "type": "error"
    },
    {
      "inputs": [],
      "name": "SlippageExceeded",
      "type": "error"
    },
    {
      "inputs": [],
      "name": "TokenNotInPool",
      "type": "error"
    },
    {
      "inputs": [],
      "name": "TransferFailed",
      "type": "error"
    },
    {
      "inputs": [],
      "name": "ZeroAmount",
      "type": "error"
    },
    {
      "anonymous": false,
      "inputs": [
        {
          "indexed": true,
          "internalType": "address",
          "name": "sender",
          "type": "address"
        },
        {
          "indexed": true,
          "internalType": "address",
          "name": "pool",
          "type": "address"
        },
        {
          "indexed": false,
          "internalType": "uint256",
          "name": "lpMinted",
          "type": "uint256"
        }
      ],
      "name": "LiquidityAdded",
      "type": "event"
    },
    {
      "anonymous": false,
      "inputs": [
        {
          "indexed": true,
          "internalType": "address",
          "name": "sender",
          "type": "address"
        },
        {
          "indexed": true,
          "internalType": "address",
          "name": "pool",
          "type": "address"
        },
        {
          "indexed": false,
          "internalType": "uint256",
          "name": "lpBurned",
          "type": "uint256"
        }
      ],
      "name": "LiquidityRemoved",
      "type": "event"
    },
    {
      "anonymous": false,
      "inputs": [
        {
          "indexed": true,
          "internalType": "address",
          "name": "sender",
          "type": "address"
        },
        {
          "indexed": true,
          "internalType": "address",
          "name": "pool",
          "type": "address"
        },
        {
          "indexed": false,
          "internalType": "address",
          "name": "tokenIn",
          "type": "address"
        },
        {
          "indexed": false,
          "internalType": "address",
          "name": "tokenOut",
          "type": "address"
        },
        {
          "indexed": false,
          "internalType": "uint256",
          "name": "amountIn",
          "type": "uint256"
        },
        {
          "indexed": false,
          "internalType": "uint256",
          "name": "amountOut",
          "type": "uint256"
        }
      ],
      "name": "SwapExecuted",
      "type": "event"
    },
    {
      "inputs": [
        {
          "internalType": "address",
          "name": "pool",
          "type": "address"
        },
        {
          "internalType": "uint256[]",
          "name": "amounts",
          "type": "uint256[]"
        },
        {
          "internalType": "uint256",
          "name": "minLiquidity",
          "type": "uint256"
        },
        {
          "internalType": "uint256",
          "name": "deadline",
          "type": "uint256"
        }
      ],
      "name": "addLiquidity",
      "outputs": [
        {
          "internalType": "uint256",
          "name": "liquidity",
          "type": "uint256"
        }
      ],
      "stateMutability": "nonpayable",
      "type": "function"
    },
    {
      "inputs": [
        {
          "internalType": "address",
          "name": "pool",
          "type": "address"
        },
        {
          "internalType": "address",
          "name": "tokenIn",
          "type": "address"
        },
        {
          "internalType": "address",
          "name": "tokenOut",
          "type": "address"
        },
        {
          "internalType": "uint256",
          "name": "amountIn",
          "type": "uint256"
        }
      ],
      "name": "getAmountOut",
      "outputs": [
        {
          "internalType": "uint256",
          "name": "amountOut",
          "type": "uint256"
        },
        {
          "internalType": "uint256",
          "name": "feeAmount",
          "type": "uint256"
        }
      ],
      "stateMutability": "view",
      "type": "function"
    },
    {
      "inputs": [
        {
          "internalType": "address[]",
          "name": "pools",
          "type": "address[]"
        },
        {
          "internalType": "address[]",
          "name": "tokenPath",
          "type": "address[]"
        },
        {
          "internalType": "uint256",
          "name": "amountIn",
          "type": "uint256"
        }
      ],
      "name": "getAmountOutMultiHop",
      "outputs": [
        {
          "internalType": "uint256",
          "name": "amountOut",
          "type": "uint256"
        }
      ],
      "stateMutability": "view",
      "type": "function"
    },
    {
      "inputs": [],
      "name": "orbitalFactory",
      "outputs": [
        {
          "internalType": "contract OrbitalFactory",
          "name": "",
          "type": "address"
        }
      ],
      "stateMutability": "view",
      "type": "function"
    },
    {
      "inputs": [
        {
          "internalType": "address",
          "name": "pool",
          "type": "address"
        },
        {
          "internalType": "uint256",
          "name": "liquidity",
          "type": "uint256"
        },
        {
          "internalType": "uint256[]",
          "name": "minAmounts",
          "type": "uint256[]"
        },
        {
          "internalType": "uint256",
          "name": "deadline",
          "type": "uint256"
        }
      ],
      "name": "removeLiquidity",
      "outputs": [
        {
          "internalType": "uint256[]",
          "name": "amounts",
          "type": "uint256[]"
        }
      ],
      "stateMutability": "nonpayable",
      "type": "function"
    },
    {
      "inputs": [
        {
          "internalType": "address",
          "name": "pool",
          "type": "address"
        },
        {
          "internalType": "address",
          "name": "tokenIn",
          "type": "address"
        },
        {
          "internalType": "address",
          "name": "tokenOut",
          "type": "address"
        },
        {
          "internalType": "uint256",
          "name": "amountIn",
          "type": "uint256"
        },
        {
          "internalType": "uint256",
          "name": "minAmountOut",
          "type": "uint256"
        },
        {
          "internalType": "uint256",
          "name": "deadline",
          "type": "uint256"
        }
      ],
      "name": "swap",
      "outputs": [
        {
          "internalType": "uint256",
          "name": "amountOut",
          "type": "uint256"
        }
      ],
      "stateMutability": "nonpayable",
      "type": "function"
    },
    {
      "inputs": [
        {
          "internalType": "address[]",
          "name": "pools",
          "type": "address[]"
        },
        {
          "internalType": "address[]",
          "name": "tokenPath",
          "type": "address[]"
        },
        {
          "internalType": "uint256",
          "name": "amountIn",
          "type": "uint256"
        },
        {
          "internalType": "uint256",
          "name": "minAmountOut",
          "type": "uint256"
        },
        {
          "internalType": "uint256",
          "name": "deadline",
          "type": "uint256"
        }
      ],
      "name": "swapMultiHop",
      "outputs": [
        {
          "internalType": "uint256",
          "name": "amountOut",
          "type": "uint256"
        }
      ],
      "stateMutability": "nonpayable",
      "type": "function"
    }
  ],
  "bytecode": "0x60a03461006c57601f6115e538819003918201601f19168301916001600160401b038311848410176100715780849260209460405283398101031261006c57516001600160a01b0381169081900361006c5760805260405161155d9081610088823960805181610bd30152f35b600080fd5b634e487b7160e01b600052604160045260246000fdfe608080604052600436101561001357600080fd5b60003560e01c9081632d94e2fa14610ecc5750806375ce8b8314610c02578063afdc876514610bbd578063bd0cfd1c1461083b578063d3b7634f146104ed578063d7176ca9146102d25763faea590a1461006c57600080fd5b3461026b57606036600319011261026b5767ffffffffffffffff60043581811161026b5761009e903690600401611178565b9160243590811161026b576100b7903690600401611178565b839193156102c057600182018083116102785781036102c0579190604435926000925b8284106100ec57602085604051908152f35b9293919290916001600160a01b0361010d6101088787866111fd565b61120d565b169061011d61010887868a6111fd565b6040516319b02f4960e21b81526001600160a01b039091166004820152602081602481865afa90811561022b5760009161028e575b506001870187116102785761016e61010860018901878b6111fd565b6040516319b02f4960e21b81526001600160a01b03909116600482015290602082602481875afa91821561022b57600092610237575b5060408051630153543560e21b8152600481019290925260248201929092526044810192909252909182908180606481015b03915afa801561022b576101f3916000916101fb575b5094611221565b9291906100da565b61021d915060403d604011610224575b61021581836111db565b81019061129f565b50386101ec565b503d61020b565b6040513d6000823e3d90fd5b929150926020833d602011610270575b81610254602093836111db565b8101031261026b57915191929091906101d66101a4565b600080fd5b3d9150610247565b634e487b7160e01b600052601160045260246000fd5b90506020813d6020116102b8575b816102a9602093836111db565b8101031261026b575138610152565b3d915061029c565b6040516320db826760e01b8152600490fd5b3461026b57608036600319011261026b576102eb611136565b6102f361114c565b906102fc611162565b6040516319b02f4960e21b8082526001600160a01b0394851660048301526020949384169390928583602481885afa92831561022b576000936104be575b506040519384521660048301528382602481865afa91821561022b5760009261048f575b50604051638e499bcf60e01b808252908581600481885afa90811561022b57600091610462575b50821015610423576040519081528481600481875afa90811561022b57600091610435575b508210156104235760408051630153543560e21b815260048101929092526024820192909252606480356044830152909283919082905afa801561022b57604092600092600092610401575b508351928352820152f35b90925061041b9150833d85116102245761021581836111db565b9091846103f6565b604051630732619560e01b8152600490fd5b90508481813d831161045b575b61044c81836111db565b8101031261026b5751856103aa565b503d610442565b90508581813d8311610488575b61047981836111db565b8101031261026b575186610385565b503d61046f565b9091508381813d83116104b7575b6104a781836111db565b8101031261026b5751908461035e565b503d61049d565b9092508581813d83116104e6575b6104d681836111db565b8101031261026b5751918661033a565b503d6104cc565b3461026b57608036600319011261026b57610506611136565b60249067ffffffffffffffff90823560443583811161026b5761052d903690600401611178565b94909360643593844211610829578315610817576040516323b872dd60e01b81523360048201523060248201526044810185905260209790966001600160a01b0392909216959190888860648160008b5af192831561022b576105bc986000946107ea575b5060405163031cd52b60e41b8152600481018890526060878201529889938493606485019161124f565b906044830152038183885af194851561022b57600095610749575b5050604051638e499bcf60e01b8152908582600481875afa91821561022b5760009261071a575b5060009594955b82811061067c575050506040519081527f983e86fda8e7b1e2eae380201830eaf1cac55772e8e39583da349865e8178863833392a36040519181839283018184528251809152816040850193019160005b82811061066557505050500390f35b835185528695509381019392810192600101610656565b6106888188979861128b565b5161069f575b61069790611221565b959495610605565b6040516327b2595f60e11b8152600481018290529087828481895afa91821561022b57610697926106e6916000916106ed575b506106dd838a61128b565b519033906114e8565b905061068e565b61070d91508a3d8c11610713575b61070581836111db565b810190611230565b8a6106d2565b503d6106fb565b9091508581813d8311610742575b61073281836111db565b8101031261026b575190866105fe565b503d610728565b909194503d806000833e61075d81836111db565b810190868183031261026b5780519083821161026b570181601f8201121561026b5780519283116107d5578260051b6040519361079c898301866111db565b8452878085019183010192831161026b5787809201905b8382106107c657505050509285806105d7565b815181529082019082016107b3565b85634e487b7160e01b60005260416004526000fd5b610809908b3d8d11610810575b61080181836111db565b810190611273565b508a610592565b503d6107f7565b604051631f2a200560e01b8152600490fd5b604051631ab7da6b60e01b8152600490fd5b3461026b5760a036600319011261026b5767ffffffffffffffff60043581811161026b5761086d903690600401611178565b9160243590811161026b57610886903690600401611178565b909260443560843542116108295781156102c057600182018083116102785783036102c0578015610817578215610ba7576108d0816108c78796949661120d565b30903390611436565b926000915b81831061092a575050506064358210610918576000198101908082116102785760209361090b61010861091094869433946111fd565b6114e8565b604051908152f35b604051638199f5f360e01b8152600490fd5b91939091906001600160a01b036109456101088786866111fd565b1661095461010887878a6111fd565b906001870187116102785761097061010860018901888b6111fd565b6040516319b02f4960e21b81526001600160a01b0384166004820152909190602081602481855afa90811561022b57600091610b75575b506040516319b02f4960e21b81526001600160a01b039093166004840152602083602481855afa92831561022b57600093610b41575b50604051638e499bcf60e01b8152602081600481865afa90811561022b57600091610b0f575b5081101561042357604051638e499bcf60e01b8152602081600481865afa90811561022b57600091610add575b5083101561042357600060a492610a5887602097610a526101088f8e8e6111fd565b906112f5565b6040519687958694630c45c5c360e41b865260048601526024850152604484015281606484015260843560848401525af1801561022b57600090610aa9575b610aa2915094611221565b91906108d5565b506020813d602011610ad5575b81610ac3602093836111db565b8101031261026b57610aa29051610a97565b3d9150610ab6565b90506020813d602011610b07575b81610af8602093836111db565b8101031261026b57518b610a30565b3d9150610aeb565b90506020813d602011610b39575b81610b2a602093836111db565b8101031261026b57518b610a03565b3d9150610b1d565b9092506020813d602011610b6d575b81610b5d602093836111db565b8101031261026b5751918a6109dd565b3d9150610b50565b90506020813d602011610b9f575b81610b90602093836111db565b8101031261026b57518a6109a7565b3d9150610b83565b634e487b7160e01b600052603260045260246000fd5b3461026b57600036600319011261026b576040517f00000000000000000000000000000000000000000000000000000000000000006001600160a01b03168152602090f35b3461026b5760c036600319011261026b57610c1b611136565b610c2361114c565b610c2b611162565b9160a43542116108295760643515610817576040516319b02f4960e21b8082526001600160a01b038085166004840181905292949293909290916020866024818787165afa95861561022b57600096610e98575b50604051908152838716918260048301526020826024818888165afa91821561022b57600092610e64575b50604051638e499bcf60e01b8152602081600481888a165afa90811561022b57600091610e32575b5087101561042357604051638e499bcf60e01b8152602081600481888a165afa90811561022b57600091610e00575b5082101561042357610d2590610d1b606435303384611436565b84606435916112f5565b60405195630c45c5c360e41b8752600487015260248601526064356044860152608435606486015260a435608486015260208560a48160008787165af194851561022b57600095610dc8575b50610d808560209733906114e8565b60405193845285840152606435604084015283606084015216907f28d00b9419287441aad457025bbaa9aaead77e93e2739080543e5261012b0eee60803392a3604051908152f35b9594506020863d602011610df8575b81610de4602093836111db565b8101031261026b5794519394610d80610d71565b3d9150610dd7565b90506020813d602011610e2a575b81610e1b602093836111db565b8101031261026b575189610d01565b3d9150610e0e565b90506020813d602011610e5c575b81610e4d602093836111db565b8101031261026b575189610cd2565b3d9150610e40565b9091506020813d602011610e90575b81610e80602093836111db565b8101031261026b57519088610caa565b3d9150610e73565b9095506020813d602011610ec4575b81610eb4602093836111db565b8101031261026b57519487610c7f565b3d9150610ea7565b3461026b57608036600319011261026b57610ee5611136565b6024803567ffffffffffffffff811161026b57610f06903690600401611178565b9190606435948542116111275750604051638e499bcf60e01b81526020956001600160a01b038616949193908785600481895afa96871561022b5788956000986110f6575b506000905b888210611055575050604051634d49e87d60e01b815260606004820152965086938493610f829160648601919061124f565b9160443590840152604483015203816000855af191821561022b57600092611026575b5060405163a9059cbb60e01b81523360048201526024810183905283816044816000865af1801561022b57611009575b506040518281527f9d278c56ba6dc86a12eefe6b43112bd6e06648eb4ec0b950ee2d783d40e2acb4843392a3604051908152f35b61101f90843d86116108105761080181836111db565b5083610fd5565b9091508281813d831161104e575b61103e81836111db565b8101031261026b57519083610fa5565b503d611034565b9095506040516327b2595f60e11b8152866004820152898185818b5afa96871561022b578a9761109f926000916110d9575b5061109382888a6111fd565b356110a5575b50611221565b90610f50565b6110d3906110c06110b7848a8c6111fd565b35303384611436565b846110cc848a8c6111fd565b35916112f5565b8b611099565b6110f09150893d8b116107135761070581836111db565b8c611087565b8681979299503d8311611120575b61110e81836111db565b8101031261026b578794519689610f4b565b503d611104565b631ab7da6b60e01b8152600490fd5b600435906001600160a01b038216820361026b57565b602435906001600160a01b038216820361026b57565b604435906001600160a01b038216820361026b57565b9181601f8401121561026b5782359167ffffffffffffffff831161026b576020808501948460051b01011161026b57565b6080810190811067ffffffffffffffff8211176111c557604052565b634e487b7160e01b600052604160045260246000fd5b90601f8019910116810190811067ffffffffffffffff8211176111c557604052565b9190811015610ba75760051b0190565b356001600160a01b038116810361026b5790565b60001981146102785760010190565b9081602091031261026b57516001600160a01b038116810361026b5790565b81835290916001600160fb1b03831161026b5760209260051b809284830137010190565b9081602091031261026b5751801515810361026b5790565b8051821015610ba75760209160051b010190565b919082604091031261026b576020825192015190565b3d156112f0573d9067ffffffffffffffff82116111c557604051916112e4601f8201601f1916602001846111db565b82523d6000602084013e565b606090565b9060409283518091636eb1769f60e11b825230600483015260018060a01b0380941693846024840152826044602095869389165afa91821561142b576000926113f9575b508110611348575b5050505050565b6113a9575b916000929183809386519081019263095ea7b360e01b84526024820152811960448201526044815261137e816111a9565b51925af161138a6112b5565b50156113995780808080611341565b516312171d8360e31b8152600490fd5b60008085518381019063095ea7b360e01b8252856024820152826044820152604481526113d5816111a9565b519082875af16113e36112b5565b5061134d5783516312171d8360e31b8152600490fd5b90918382813d8311611424575b61141081836111db565b810103126114215750519038611339565b80fd5b503d611406565b86513d6000823e3d90fd5b6040516323b872dd60e01b602082019081526001600160a01b039384166024830152939092166044830152606482019390935260009283929091839061148981608481015b03601f1981018352826111db565b51925af16114956112b5565b90159081156114b8575b506114a657565b6040516312171d8360e31b8152600490fd5b80518015159250826114cd575b50503861149f565b6114e09250602080918301019101611273565b1538806114c5565b60405163a9059cbb60e01b602082019081526001600160a01b03909316602482015260448101939093526000928392908390611489816064810161147b56fea26469706673582212209bc90da3ab50705e156817faa2281ce369a3c532c84fea6d945dd89be16f970064736f6c63430008140033",
  "linkReferences": {},
  "deployedLinkReferences": {}
}