{
  "_format": "hh-sol-artifact-1",
  "contractName": "TransferRules",
  "sourceName": "contracts/security-token/TransferRules.sol",
  "abi": [
    {
      "inputs": [],
      "stateMutability": "nonpayable",
      "type": "constructor"
    },
    {
      "inputs": [],
      "name": "ALL_TRANSFERS_PAUSED",
      "outputs": [
        {
          "internalType": "uint8",
          "name": "",
          "type": "uint8"
        }
      ],
      "stateMutability": "view",
      "type": "function"
    },
    {
      "inputs": [],
      "name": "DO_NOT_SEND_TO_EMPTY_ADDRESS",
      "outputs": [
        {
          "internalType": "uint8",
          "name": "",
          "type": "uint8"
        }
      ],
      "stateMutability": "view",
      "type": "function"
    },
    {
      "inputs": [],
      "name": "DO_NOT_SEND_TO_TOKEN_CONTRACT",
      "outputs": [
        {
          "internalType": "uint8",
          "name": "",
          "type": "uint8"
        }
      ],
      "stateMutability": "view",
      "type": "function"
    },
    {
      "inputs": [],
      "name": "GREATER_THAN_RECIPIENT_MAX_BALANCE",
      "outputs": [
        {
          "internalType": "uint8",
          "name": "",
          "type": "uint8"
        }
      ],
      "stateMutability": "view",
      "type": "function"
    },
    {
      "inputs": [],
      "name": "RECIPIENT_ADDRESS_FROZEN",
      "outputs": [
        {
          "internalType": "uint8",
          "name": "",
          "type": "uint8"
        }
      ],
      "stateMutability": "view",
      "type": "function"
    },
    {
      "inputs": [],
      "name": "SENDER_ADDRESS_FROZEN",
      "outputs": [
        {
          "internalType": "uint8",
          "name": "",
          "type": "uint8"
        }
      ],
      "stateMutability": "view",
      "type": "function"
    },
    {
      "inputs": [],
      "name": "SENDER_TOKENS_TIME_LOCKED",
      "outputs": [
        {
          "internalType": "uint8",
          "name": "",
          "type": "uint8"
        }
      ],
      "stateMutability": "view",
      "type": "function"
    },
    {
      "inputs": [],
      "name": "SUCCESS",
      "outputs": [
        {
          "internalType": "uint8",
          "name": "",
          "type": "uint8"
        }
      ],
      "stateMutability": "view",
      "type": "function"
    },
    {
      "inputs": [],
      "name": "TRANSFER_GROUP_NOT_ALLOWED_UNTIL_LATER",
      "outputs": [
        {
          "internalType": "uint8",
          "name": "",
          "type": "uint8"
        }
      ],
      "stateMutability": "view",
      "type": "function"
    },
    {
      "inputs": [],
      "name": "TRANSFER_GROUP_NOT_APPROVED",
      "outputs": [
        {
          "internalType": "uint8",
          "name": "",
          "type": "uint8"
        }
      ],
      "stateMutability": "view",
      "type": "function"
    },
    {
      "inputs": [
        {
          "internalType": "uint8",
          "name": "restrictionCode",
          "type": "uint8"
        }
      ],
      "name": "checkSuccess",
      "outputs": [
        {
          "internalType": "bool",
          "name": "isSuccess",
          "type": "bool"
        }
      ],
      "stateMutability": "pure",
      "type": "function"
    },
    {
      "inputs": [
        {
          "internalType": "address",
          "name": "_token",
          "type": "address"
        },
        {
          "internalType": "address",
          "name": "from",
          "type": "address"
        },
        {
          "internalType": "address",
          "name": "to",
          "type": "address"
        },
        {
          "internalType": "uint256",
          "name": "value",
          "type": "uint256"
        }
      ],
      "name": "detectTransferRestriction",
      "outputs": [
        {
          "internalType": "uint8",
          "name": "",
          "type": "uint8"
        }
      ],
      "stateMutability": "view",
      "type": "function"
    },
    {
      "inputs": [
        {
          "internalType": "uint8",
          "name": "restrictionCode",
          "type": "uint8"
        }
      ],
      "name": "messageForTransferRestriction",
      "outputs": [
        {
          "internalType": "string",
          "name": "",
          "type": "string"
        }
      ],
      "stateMutability": "view",
      "type": "function"
    }
  ],
  "bytecode": "0x60406080815234620002b357806000808052806020818152838220620000316200002a8254620002b8565b82620002f5565b600e665355434345535360c81b01905560018252818152838220620000626200005b8254620002b8565b826200032f565b60458155825261434560f01b60018284207f47524541544552205448414e20524543495049454e54204d41582042414c414e8155015560028252818152838220620000b26200002a8254620002b8565b60287f53454e44455220544f4b454e53204c4f434b454400000000000000000000000001905560038252818152838220620000f26200002a8254620002b8565b603a7f444f204e4f542053454e4420544f20544f4b454e20434f4e545241435400000001905560048252818152838220620001326200002a8254620002b8565b60387f444f204e4f542053454e4420544f20454d50545920414444524553530000000001905560058252818152838220620001726200002a8254620002b8565b60307f53454e44455220414444524553532049532046524f5a454e000000000000000001905560068252818152838220620001b26200002a8254620002b8565b60287f414c4c205452414e53464552532050415553454400000000000000000000000001905560078252818152838220620001f26200002a8254620002b8565b60367f5452414e534645522047524f5550204e4f5420415050524f564544000000000001905560088252818152838220620002326200005b8254620002b8565b604d8155825265102620aa22a960d11b60018284207f5452414e534645522047524f5550204e4f5420414c4c4f57454420554e54494c81550155600982525220620002826200002a8254620002b8565b7f524543495049454e5420414444524553532049532046524f5a454e000000003690555161086990816200036d8239f35b600080fd5b90600182811c92168015620002ea575b6020831014620002d457565b634e487b7160e01b600052602260045260246000fd5b91607f1691620002c8565b601f821162000302575050565b6000908152601f60208220920160051c8201915b8281106200032357505050565b81815560010162000316565b601f82116200033c575050565b60009081526002601f60208320930160051c830192015b8281106200036057505050565b8181556001016200035356fe608060408181526004918236101561001657600080fd5b600092833560e01c9182630e65f5b2146103c35750816339b80fa9146103a75781634b5f02801461038b5781634f52bf731461036e578163796a79f4146103525781637ac904eb146103365781637d8e7d1b1461030b5781637f4ab1dd14610188578163a5c9d28a1461016c578163b46c6d2914610150578163cceec23f14610134578163cfdb31a9146100d1575063d0a6d1a6146100b457600080fd5b346100cd57816003193601126100cd5751908152602090f35b5080fd5b9050346101305760803660031901126101305735916001600160a01b0390818416840361012d5760243590828216820361012d57604435928316830361012d575060209360ff926101259260643592610434565b915191168152f35b80fd5b8280fd5b5050346100cd57816003193601126100cd576020905160028152f35b5050346100cd57816003193601126100cd576020905160018152f35b5050346100cd57816003193601126100cd576020905160068152f35b905034610130576020928360031936011261012d57813560ff81168091036100cd57600981116102d1578152808452828120835192829180549060019180831c938382169081156102c7575b8a861082146102b45750918995939185938996875290816000146102915750600114610254575b50505061020e92509593929503826103de565b82519382859384528251928382860152825b84811061023e57505050828201840152601f01601f19168101030190f35b8181018301518882018801528795508201610220565b86528486209492508591905b81831061027957508894505082010161020e38806101fb565b85548884018501529485019487945091830191610260565b9250505061020e94925060ff191682840152151560051b820101869238806101fb565b634e487b7160e01b885260229052602487fd5b94607f16946101d4565b835162461bcd60e51b81528084018690526014602482015273424144205245535452494354494f4e20434f444560601b6044820152606490fd5b90503461013057602036600319011261013057359060ff821680920361013057602092505190158152f35b5050346100cd57816003193601126100cd576020905160058152f35b5050346100cd57816003193601126100cd576020905160088152f35b919050346101305782600319360112610130576020925051908152f35b5050346100cd57816003193601126100cd576020905160038152f35b5050346100cd57816003193601126100cd576020905160078152f35b8490346100cd57816003193601126100cd5780600960209252f35b601f909101601f19168101906001600160401b0382119082101761040157604052565b634e487b7160e01b600052604160045260246000fd5b9081602091031261042f5751801515810361042f5790565b600080fd5b604080516358c3de9360e11b8152600495946001600160a01b03938416949293602093909290919084818a818a5afa9081156106c85760009161083f575b5061083257821680156108285785811461081b57845163c63aa52160e01b80825289820183905260249391868186818c5afa9081156107a2576000916107ee575b5015159081610717575b5061070957855193631f92defb60e31b918286521693848a820152858185818b5afa9081156106fe576000916106e1575b506106d35785519081528189820152848184818a5afa9081156106c85760009161069b575b5061068e578451906340dc95c560e01b82528389830152828201528381604481895afa90811561063d57600091610661575b508015610654574210610648578351631092ab9160e31b815287810183905283818381895afa90811561063d5790879160009161060d575b5010968761059b575b5050505050505061059657600090565b600290565b848495969798505196879384926370a0823160e01b84528301525afa91821561060357506000916105d7575b5090501138808080808080610586565b82813d83116105fc575b6105eb81836103de565b8101031261012d57505180386105c7565b503d6105e1565b513d6000823e3d90fd5b91508482813d8311610636575b61062481836103de565b8101031261012d57508690513861057d565b503d61061a565b85513d6000823e3d90fd5b50505050505050600890565b5050505050505050600790565b908482813d8311610687575b61067781836103de565b8101031261012d57505138610545565b503d61066d565b5050505050505050600990565b6106bb9150853d87116106c1575b6106b381836103de565b810190610417565b38610513565b503d6106a9565b86513d6000823e3d90fd5b505050505050505050600590565b6106f89150863d88116106c1576106b381836103de565b386104ee565b87513d6000823e3d90fd5b505050505050505050600190565b905086516370a0823160e01b8152838b820152868186818c5afa9081156107a2576000916107c1575b508981018091116107ad578751918252838b830152868286818c5afa9182156107a257600092610773575b5011386104bd565b90918782813d831161079b575b61078a81836103de565b8101031261012d575051903861076b565b503d610780565b88513d6000823e3d90fd5b8460118c634e487b7160e01b600052526000fd5b908782813d83116107e7575b6107d781836103de565b8101031261012d57505138610740565b503d6107cd565b908782813d8311610814575b61080481836103de565b8101031261012d575051386104b3565b503d6107fa565b5050505050505050600390565b5050505050505090565b5050505050505050600690565b6108569150853d87116106c1576106b381836103de565b3861047256fea164736f6c6343000814000a",
  "linkReferences": {},
  "deployedLinkReferences": {}
}