{
  "_format": "hh-sol-artifact-1",
  "contractName": "OrbitalFactory",
  "sourceName": "contracts/orbital/OrbitalFactory.sol",
  "abi": [
    {
      "inputs": [
        {
          "internalType": "address",
          "name": "_admin",
          "type": "address"
        },
        {
          "internalType": "address",
          "name": "_feeCollector",
          "type": "address"
        },
        {
          "internalType": "uint256",
          "name": "_defaultSwapFeeBps",
          "type": "uint256"
        }
      ],
      "stateMutability": "nonpayable",
      "type": "constructor"
    },
    {
      "inputs": [],
      "name": "InvalidFee",
      "type": "error"
    },
    {
      "inputs": [],
      "name": "NotAdmin",
      "type": "error"
    },
    {
      "inputs": [],
      "name": "NotPendingAdmin",
      "type": "error"
    },
    {
      "inputs": [],
      "name": "PoolExists",
      "type": "error"
    },
    {
      "inputs": [],
      "name": "PoolNotRegistered",
      "type": "error"
    },
    {
      "inputs": [],
      "name": "ZeroAddress",
      "type": "error"
    },
    {
      "anonymous": false,
      "inputs": [
        {
          "indexed": true,
          "internalType": "address",
          "name": "currentAdmin",
          "type": "address"
        },
        {
          "indexed": true,
          "internalType": "address",
          "name": "pendingAdmin",
          "type": "address"
        }
      ],
      "name": "AdminTransferStarted",
      "type": "event"
    },
    {
      "anonymous": false,
      "inputs": [
        {
          "indexed": true,
          "internalType": "address",
          "name": "oldAdmin",
          "type": "address"
        },
        {
          "indexed": true,
          "internalType": "address",
          "name": "newAdmin",
          "type": "address"
        }
      ],
      "name": "AdminUpdated",
      "type": "event"
    },
    {
      "anonymous": false,
      "inputs": [
        {
          "indexed": true,
          "internalType": "address",
          "name": "collector",
          "type": "address"
        }
      ],
      "name": "DefaultFeeCollectorUpdated",
      "type": "event"
    },
    {
      "anonymous": false,
      "inputs": [
        {
          "indexed": false,
          "internalType": "uint256",
          "name": "newFeeBps",
          "type": "uint256"
        }
      ],
      "name": "DefaultSwapFeeUpdated",
      "type": "event"
    },
    {
      "anonymous": false,
      "inputs": [
        {
          "indexed": true,
          "internalType": "address",
          "name": "pool",
          "type": "address"
        },
        {
          "indexed": false,
          "internalType": "address[]",
          "name": "tokens",
          "type": "address[]"
        },
        {
          "indexed": false,
          "internalType": "uint8",
          "name": "concentration",
          "type": "uint8"
        },
        {
          "indexed": false,
          "internalType": "uint256",
          "name": "swapFeeBps",
          "type": "uint256"
        },
        {
          "indexed": false,
          "internalType": "address",
          "name": "feeCollector",
          "type": "address"
        }
      ],
      "name": "PoolCreated",
      "type": "event"
    },
    {
      "anonymous": false,
      "inputs": [
        {
          "indexed": true,
          "internalType": "address",
          "name": "pool",
          "type": "address"
        },
        {
          "indexed": true,
          "internalType": "address",
          "name": "by",
          "type": "address"
        }
      ],
      "name": "PoolPaused",
      "type": "event"
    },
    {
      "anonymous": false,
      "inputs": [
        {
          "indexed": true,
          "internalType": "address",
          "name": "pool",
          "type": "address"
        },
        {
          "indexed": true,
          "internalType": "address",
          "name": "by",
          "type": "address"
        }
      ],
      "name": "PoolUnpaused",
      "type": "event"
    },
    {
      "inputs": [],
      "name": "acceptAdmin",
      "outputs": [],
      "stateMutability": "nonpayable",
      "type": "function"
    },
    {
      "inputs": [],
      "name": "admin",
      "outputs": [
        {
          "internalType": "address",
          "name": "",
          "type": "address"
        }
      ],
      "stateMutability": "view",
      "type": "function"
    },
    {
      "inputs": [
        {
          "internalType": "address[]",
          "name": "_tokens",
          "type": "address[]"
        },
        {
          "internalType": "uint8",
          "name": "_concentration",
          "type": "uint8"
        },
        {
          "internalType": "uint256",
          "name": "_swapFeeBps",
          "type": "uint256"
        },
        {
          "internalType": "string",
          "name": "_name",
          "type": "string"
        },
        {
          "internalType": "string",
          "name": "_symbol",
          "type": "string"
        }
      ],
      "name": "createPool",
      "outputs": [
        {
          "internalType": "address",
          "name": "pool",
          "type": "address"
        }
      ],
      "stateMutability": "nonpayable",
      "type": "function"
    },
    {
      "inputs": [],
      "name": "defaultFeeCollector",
      "outputs": [
        {
          "internalType": "address",
          "name": "",
          "type": "address"
        }
      ],
      "stateMutability": "view",
      "type": "function"
    },
    {
      "inputs": [],
      "name": "defaultSwapFeeBps",
      "outputs": [
        {
          "internalType": "uint256",
          "name": "",
          "type": "uint256"
        }
      ],
      "stateMutability": "view",
      "type": "function"
    },
    {
      "inputs": [],
      "name": "getAllPools",
      "outputs": [
        {
          "internalType": "address[]",
          "name": "",
          "type": "address[]"
        }
      ],
      "stateMutability": "view",
      "type": "function"
    },
    {
      "inputs": [
        {
          "internalType": "address[]",
          "name": "_tokens",
          "type": "address[]"
        },
        {
          "internalType": "uint8",
          "name": "_concentration",
          "type": "uint8"
        }
      ],
      "name": "getPool",
      "outputs": [
        {
          "internalType": "address",
          "name": "",
          "type": "address"
        }
      ],
      "stateMutability": "view",
      "type": "function"
    },
    {
      "inputs": [
        {
          "internalType": "uint256",
          "name": "index",
          "type": "uint256"
        }
      ],
      "name": "getPoolAtIndex",
      "outputs": [
        {
          "internalType": "address",
          "name": "",
          "type": "address"
        }
      ],
      "stateMutability": "view",
      "type": "function"
    },
    {
      "inputs": [
        {
          "internalType": "uint256",
          "name": "offset",
          "type": "uint256"
        },
        {
          "internalType": "uint256",
          "name": "limit",
          "type": "uint256"
        }
      ],
      "name": "getPools",
      "outputs": [
        {
          "internalType": "address[]",
          "name": "result",
          "type": "address[]"
        }
      ],
      "stateMutability": "view",
      "type": "function"
    },
    {
      "inputs": [
        {
          "internalType": "address",
          "name": "token",
          "type": "address"
        }
      ],
      "name": "getPoolsForToken",
      "outputs": [
        {
          "internalType": "address[]",
          "name": "",
          "type": "address[]"
        }
      ],
      "stateMutability": "view",
      "type": "function"
    },
    {
      "inputs": [
        {
          "internalType": "address",
          "name": "",
          "type": "address"
        }
      ],
      "name": "isRegisteredPool",
      "outputs": [
        {
          "internalType": "bool",
          "name": "",
          "type": "bool"
        }
      ],
      "stateMutability": "view",
      "type": "function"
    },
    {
      "inputs": [
        {
          "internalType": "address",
          "name": "pool",
          "type": "address"
        }
      ],
      "name": "pausePool",
      "outputs": [],
      "stateMutability": "nonpayable",
      "type": "function"
    },
    {
      "inputs": [],
      "name": "pendingAdmin",
      "outputs": [
        {
          "internalType": "address",
          "name": "",
          "type": "address"
        }
      ],
      "stateMutability": "view",
      "type": "function"
    },
    {
      "inputs": [
        {
          "internalType": "bytes32",
          "name": "",
          "type": "bytes32"
        }
      ],
      "name": "poolsByKey",
      "outputs": [
        {
          "internalType": "address",
          "name": "",
          "type": "address"
        }
      ],
      "stateMutability": "view",
      "type": "function"
    },
    {
      "inputs": [
        {
          "internalType": "address",
          "name": "_newAdmin",
          "type": "address"
        }
      ],
      "name": "setAdmin",
      "outputs": [],
      "stateMutability": "nonpayable",
      "type": "function"
    },
    {
      "inputs": [
        {
          "internalType": "address",
          "name": "_collector",
          "type": "address"
        }
      ],
      "name": "setDefaultFeeCollector",
      "outputs": [],
      "stateMutability": "nonpayable",
      "type": "function"
    },
    {
      "inputs": [
        {
          "internalType": "uint256",
          "name": "_feeBps",
          "type": "uint256"
        }
      ],
      "name": "setDefaultSwapFee",
      "outputs": [],
      "stateMutability": "nonpayable",
      "type": "function"
    },
    {
      "inputs": [],
      "name": "totalPools",
      "outputs": [
        {
          "internalType": "uint256",
          "name": "",
          "type": "uint256"
        }
      ],
      "stateMutability": "view",
      "type": "function"
    },
    {
      "inputs": [
        {
          "internalType": "address",
          "name": "_newAdmin",
          "type": "address"
        }
      ],
      "name": "transferAdmin",
      "outputs": [],
      "stateMutability": "nonpayable",
      "type": "function"
    },
    {
      "inputs": [
        {
          "internalType": "address",
          "name": "pool",
          "type": "address"
        }
      ],
      "name": "unpausePool",
      "outputs": [],
      "stateMutability": "nonpayable",
      "type": "function"
    }
  ],
  "bytecode": "0x6080346100d957601f62003bac38819003918201601f19168301916001600160401b038311848410176100de578084926060946040528339810103126100d957610048816100f4565b906040610057602083016100f4565b910151916001600160a01b0390811691821580156100cf575b6100bd57606484116100ab5760018060a01b03199283600054161760005516906002541617600255600355604051613aa39081620001098239f35b6040516358d620b360e01b8152600490fd5b60405163d92e233d60e01b8152600490fd5b5081811615610070565b600080fd5b634e487b7160e01b600052604160045260246000fd5b51906001600160a01b03821682036100d95756fe608080604052600436101561001357600080fd5b600090813560e01c9081630e18b68114610acb575080631010b58c14610a9357806312fb31c414610a75578063162f37fa146109fd57806326782247146109d4578063334dc4f31461096157806355aca1ec146108ba5780636385c30614610541578063704b6c02146104c357806375829def14610452578063759261371461042957806397c0df23146103c8578063a423ba8f14610395578063ab3c7e5214610377578063bbe9583714610354578063c699e63314610315578063ccceb7cd14610295578063d88ff1f414610206578063f21c38cd146101265763f851a440146100fd57600080fd5b34610123578060031936011261012357546040516001600160a01b039091168152602090f35b80fd5b503461012357602036600319011261012357610140610b44565b81546001600160a01b039190821633036101f45716808252600760205260ff604083205416156101e257803b156101d357604051631fa5d41d60e11b81528290818160048183875af180156101d7576101bf575b505033907f123955baf38deb0e5908472ba06b1661710d017d1229d0015235fccabe2e97bf8380a380f35b6101c890610c12565b6101d3578138610194565b5080fd5b6040513d84823e3d90fd5b60405163739f418560e01b8152600490fd5b604051637bfa4b9f60e01b8152600490fd5b5034610123578060031936011261012357604051600480548083529083526020808301937f8a35acfbc15ff81a39ae7d344fd709f28e8600b4aa8c65c6b64bfe7fe36bd19b92915b828210610275576102718561026581890382610c26565b60405191829182610b5f565b0390f35b83546001600160a01b03168652948501946001938401939091019061024e565b5034610123576020366003190112610123576102af610b44565b81546001600160a01b039190821633036101f45716801561030357600280546001600160a01b031916821790557f6400838e1a1b95176d26aaad4540fcef6778703092b09aa09467c8ef1cf2d17a8280a280f35b60405163d92e233d60e01b8152600490fd5b50346101235760203660031901126101235760209060ff906040906001600160a01b03610340610b44565b168152600784522054166040519015158152f35b503461012357604036600319011261012357610271610265602435600435610d9d565b50346101235780600319360112610123576020600454604051908152f35b503461012357602036600319011261012357602090600435815260058252604060018060a01b0391205416604051908152f35b50346101235760403660031901126101235760043567ffffffffffffffff81116101d3579061040e6104006020933690600401610ba3565b610408610bd4565b91610e54565b815260058252604060018060a01b0391205416604051908152f35b50346101235780600319360112610123576002546040516001600160a01b039091168152602090f35b50346101235760203660031901126101235761046c610b44565b81546001600160a01b0390811691338390036101f4571690811561030357600180546001600160a01b031916831790557fe5cd1c804f1c9cc6d7009e4c0fb532f0e2d8863524c3323a6b3790c3f80bf25c8380a380f35b5034610123576020366003190112610123576104dd610b44565b8154906001600160a01b0380831691338390036101f4571691821561030357826bffffffffffffffffffffffff60a01b809216178455600154166001557f101b8081ff3b56bbf45deb824d86a3b0fd38b7e3dd42421105cf8abe9106db0b8380a380f35b50346101235760a03660031901126101235767ffffffffffffffff6004358181116108b657610574903690600401610ba3565b9061057d610bd4565b92604435946064358281116101d35761059a903690600401610be4565b9290966084358281116108b2576105b5903690600401610be4565b9091806108ac5750600354945b6105cd898989610e54565b808652600560205260408620549094906001600160a01b031661089a5760405190612aba8083019182118383101761088657908291610fb48339039086f0998a1561087b576002546001600160a01b03908116908c163b1561087757889487946106838d8d9660c496610695968e60ff6106616040519e8f9d8e9d8e63fe485a1160e01b815260c060048201520191610c48565b951660248b015260448a01526064890152878303600319016084890152610c91565b8481036003190160a486015291610c91565b0381836001600160a01b038d165af1801561086c57908391610858575b505260056020526040812080546001600160a01b0319166001600160a01b038816179055600454600160401b811015610842578060016106f59201600455610cb2565b81546001600160a01b0389811660039390931b83811b91901b19909116179091558152600760205260408120805460ff19166001179055805b8481106107b257602087877fa12124ed4c3c01dfdddb182a73c7069e110095d092d57f64192c92fc2d617cc388888860ff61078060018060a01b03600254169360405195608087526080870191610c48565b951683880152604083015260608201526001600160a01b0384169281900390a26040516001600160a01b039091168152f35b6001600160a01b036107cd6107c8838888610d0e565b610d1e565b168252600660205260408220908154600160401b811015610842576001810180845581101561082c576108279260005260206000200160018060a01b0389166bffffffffffffffffffffffff60a01b825416179055610ce9565b61072e565b634e487b7160e01b600052603260045260246000fd5b634e487b7160e01b600052604160045260246000fd5b61086190610c12565b6101d35781386106b2565b6040513d85823e3d90fd5b8680fd5b6040513d87823e3d90fd5b634e487b7160e01b88526041600452602488fd5b604051637a471e1360e11b8152600490fd5b946105c2565b8380fd5b8280fd5b5034610123576020366003190112610123576108d4610b44565b81546001600160a01b039190821633036101f4571690818152600760205260ff604082205416156101e257813b1561012357604051638456cb5960e01b8152818160048183875af180156101d757610952575b509033907fdd5e02d0b8084024e260e0ea365b29c059ec8da2a4fa23e51f7f5bafa95b3e0c8380a380f35b61095b90610c12565b38610927565b5034610123576020366003190112610123578054600435906001600160a01b031633036101f457606481116109c2576020817f8ad313470434947a09c21678da40f1b57a6797b971e01d8278070ae88bbc7b9c92600355604051908152a180f35b6040516358d620b360e01b8152600490fd5b50346101235780600319360112610123576001546040516001600160a01b039091168152602090f35b5034610123576020806003193601126101d3576001600160a01b039182610a22610b44565b168152600682526040812092604051908193808654938481520195845280842093915b838310610a5c5761027186610265818a0382610c26565b8454811687529581019560019485019490920191610a45565b50346101235780600319360112610123576020600354604051908152f35b5034610123576020366003190112610123576020610ab2600435610cb2565b905460405160039290921b1c6001600160a01b03168152f35b9050346101d357816003193601126101d357600154906001600160a01b03908183163303610b35575082546001600160a01b03198082163390811786559316600155167f101b8081ff3b56bbf45deb824d86a3b0fd38b7e3dd42421105cf8abe9106db0b8380a380f35b63058d9a1b60e01b8152600490fd5b600435906001600160a01b0382168203610b5a57565b600080fd5b6020908160408183019282815285518094520193019160005b828110610b86575050505090565b83516001600160a01b031685529381019392810192600101610b78565b9181601f84011215610b5a5782359167ffffffffffffffff8311610b5a576020808501948460051b010111610b5a57565b6024359060ff82168203610b5a57565b9181601f84011215610b5a5782359167ffffffffffffffff8311610b5a5760208381860195010111610b5a57565b67ffffffffffffffff811161084257604052565b90601f8019910116810190811067ffffffffffffffff82111761084257604052565b9190808252602080920192916000805b838210610c6757505050505090565b9091929394853560018060a01b0381168091036108b6578152830194830193929160010190610c58565b908060209392818452848401376000828201840152601f01601f1916010190565b60045481101561082c5760046000527f8a35acfbc15ff81a39ae7d344fd709f28e8600b4aa8c65c6b64bfe7fe36bd19b0190600090565b6000198114610cf85760010190565b634e487b7160e01b600052601160045260246000fd5b919081101561082c5760051b0190565b356001600160a01b0381168103610b5a5790565b67ffffffffffffffff81116108425760051b60200190565b90610d5482610d32565b610d616040519182610c26565b8281528092610d72601f1991610d32565b0190602036910137565b91908201809211610cf857565b805182101561082c5760209160051b010190565b91906004549081841015610e2757610db59084610d7c565b90808211610e1f575b50828103908111610cf857610dd281610d4a565b9260005b828110610de257505050565b80610df8610df3610e1a9385610d7c565b610cb2565b905460039190911b1c6001600160a01b0316610e148288610d89565b52610ce9565b610dd6565b905038610dbe565b505090506040516020810181811067ffffffffffffffff8211176108425760405260008152600036813790565b610e5d82610d4a565b9160005b818110610f80575050508051600190815b818110610ee757505090604051918260209485820195868186519196019160005b828110610ec8575050505060f81b6001600160f81b0319168352601e1992039182018352610ec2910182610c26565b51902090565b83516001600160a01b0316885296810196889550928101928601610e93565b6001600160a01b038381610efb8488610d89565b51169183915b610f1b575b5090610e14610f16939287610d89565b610e72565b8115801580610f5f575b15610f5957600019830192808411610cf857610f4e83610f45868c610d89565b5116918a610d89565b52610cf85785610f01565b50610f06565b506000198301838111610cf85782610f7886928b610d89565b511611610f25565b80610f926107c8610fae938587610d0e565b610f9c8287610d89565b6001600160a01b039091169052610ce9565b610e6156fe60a0806040523461003d576001600c5533608052612a779081610043823960805181818161029a01528181610df20152818161111701526117970152f35b600080fdfe6080604090808252600436101561001557600080fd5b60003560e01c908163054d50d414611dc05750806306fdde0314611d285780630902f1ac14611cf7578063095ea7b314611c7e578063158ef93e14611c5a57806318160ddd14611c3b5780631965e18314611c1f5780631cc241c114611bf4578063219ce0d414611bd257806323b872dd14611abe5780632ffdaf8914611a9f57806331cd52b0146118165780633f4ba83a146117835780633f812882146117615780634d49e87d1461133d5780634f64b2be146112fc5780635df45a371461127e578063666771c41461125357806366c0bd241461122e5780636a1460241461120b57806370a08231146111d25780638334278d146111995780638456cb5914611103578063851ed85e146110e75780638e499bcf146110c857806395d89b4114610feb578063a9059cbb14610f50578063aa6ca80814610e8b578063ba9a7a5614610e6e578063c0ff1a1514610e4a578063c415b95c14610e21578063c45a015514610ddd578063c45c5c3014610ac1578063c879657214610999578063d55be8c61461097d578063d73792a914610960578063dd62ed3e14610913578063e5baca03146108f4578063e693c63c146108f4578063ed238e4214610863578063f46a3ac81461083c578063f47c84c5146108205763fe485a11146101fa57600080fd5b3461081b5760c036600319011261081b576004356001600160401b03811161081b5761022a9036906004016120d6565b9060243560ff811680910361081b576064356001600160a01b038116906044359082900361081b576084356001600160401b03811161081b57610271903690600401612106565b92909160a4356001600160401b03811161081b57610293903690600401612106565b90989095907f00000000000000000000000000000000000000000000000000000000000000006001600160a01b0316330361080b5760ff600654166107fc576002891080156107f2575b6107e2576002821415806107d7575b806107cc575b806107c1575b806107b6575b6107a657606483116107965783156107865760005b8981106106e95750508760015560ff1960025416176002556003556bffffffffffffffffffffffff60a01b60045416176004556001600160401b0382116104eb578190610361600754611ecd565b601f8111610675575b50600090601f8311600114610600576000926105f5575b50508160011b916000199060031b1c1916176007555b6001600160401b0381116104eb576103b0600854611ecd565b601f8111610590575b506000601f821160011461050c5781929394600092610501575b50508160011b916000199060031b1c1916176008555b60005b8281106104065742600e556006805460ff19166001179055005b610419610414828585612142565b612152565b90600054916801000000000000000092838110156104eb578060016104419201600055612055565b81546001600160a01b0393841660039290921b91821b9390911b191691909117905560058054838110156104eb5761047e9160018201905561201e565b908054600019809360031b1b19169055600d8054848110156104eb576104a991600182019055611fd1565b8282549160031b1b19169055600f8054938410156104eb57836104d49160016104e69601905561209f565b909182549160031b1b19169055612133565b6103ec565b634e487b7160e01b600052604160045260246000fd5b0135905038806103d3565b601f1982169460086000527ff3f7a9fe364faab93b216da50a3214154f22a0a2b415b23a84c8169e8b636ee39160005b87811061057857508360019596971061055e575b505050811b016008556103e9565b0135600019600384901b60f8161c19169055388080610550565b9092602060018192868601358155019401910161053c565b60086000527ff3f7a9fe364faab93b216da50a3214154f22a0a2b415b23a84c8169e8b636ee3601f830160051c810191602084106105eb575b601f0160051c01905b8181106105df57506103b9565b600081556001016105d2565b90915081906105c9565b013590503880610381565b600760009081529350600080516020612a02833981519152915b601f198416851061065d576001945083601f19811610610643575b505050811b01600755610397565b0135600019600384901b60f8161c19169055388080610635565b8181013583556020948501946001909301920161061a565b9091506007600052601f830160051c600080516020612a0283398151915201602084106106d4575b908392915b601f820160051c600080516020612a028339815191520181106106c5575061036a565b600081558493506001016106a2565b50600080516020612a0283398151915261069d565b6001600160a01b036106ff610414838d8d612142565b16156107755760005b81811061071e575061071990612133565b610313565b8a8a61074461041484610735610414888787612142565b946001600160a01b0394612142565b6001600160a01b039092169116146107645761075f90612133565b610708565b82516323271fb560e11b8152600490fd5b815163d92e233d60e01b8152600490fd5b5163d92e233d60e01b8152600490fd5b516358d620b360e01b8152600490fd5b51631676992b60e11b8152600490fd5b5060208214156102fe565b5060108214156102f8565b5060088214156102f2565b5060048214156102ec565b5163e778681d60e01b8152600490fd5b50600889116102dd565b5162dc149f60e41b8152600490fd5b51631966391b60e11b8152600490fd5b600080fd5b503461081b57600036600319011261081b576020905160088152f35b503461081b57600036600319011261081b5760209060ff60065460081c1690519015158152f35b503461081b57600036600319011261081b578051809182600f54808452602080940190600f6000527f8d1108e10bcb7c27dddfc02ed9d693a074039d026cf4ea4240b40f7d581ac8029060005b868282106108dd5785906108d9886108ca84890385611f07565b51928284938452830190611f71565b0390f35b8354855288955090930192600192830192016108b0565b503461081b57600036600319011261081b57602090600e549051908152f35b503461081b578060031936011261081b5760209061092f611fa5565b610937611fbb565b9060018060a01b03809116600052600b8452826000209116600052825280600020549051908152f35b503461081b57600036600319011261081b57602090516127108152f35b503461081b57600036600319011261081b576020905160648152f35b503461081b57600036600319011261081b576002600c5414610ab1576002600c556004546001600160a01b039081163303610aa057600154906109db82612579565b9160005b818110610a2e57847f9bc3ed6aed6a780294c85faeafe7c4bc19617c745bdf61b8d1fc8159c3d1aab1610a248686600454169351918291602083526020830190611f71565b0390a26001600c55005b80610a3b610a5292611fd1565b9054600391821b1c8581610a57575b505050612133565b6109df565b610a9892610a6485611fd1565b81549060001990841b1b1916905582610a7d868b612222565b52610a8785612055565b9054911b1c168660045416906129a5565b388085610a4a565b81516339fe69ff60e11b8152600490fd5b516306fda65d60e31b8152600490fd5b503461081b5760a036600319011261081b576004359060243590604435926002600c5414610dcc576002600c5560065460ff811615610dbb5760081c60ff16610daa576084354211610d995760015480821015610d8857831015610d7757828114610d66578315610d5557610b3461281f565b600393612710610b45865483612166565b0490610b518282612199565b94600154610b6681610b616121a6565b6125ab565b919060ff6002541690610b798282612236565b93610b848b85612166565b670de0b6b3a76400009384820291808304861490151715610d3f57610bbd93888c610bb286610bb896612179565b9261235c565b612166565b90808302908382041483151715610d3f57610bd791612179565b976064358910610d2e57610bea8461201e565b9054908b1b1c8911610d1d57610c7891610c338b610c6b93610c1c610c0e8c61201e565b929093838554911b1c612215565b825460001960039390931b92831b1916911b179055565b610c528b8b610c1c610c448961201e565b929093838554911b1c612199565b610c638b88610c1c610c0e8c611fd1565b610b616121a6565b5060ff6002541690612236565b10610d0c57610cc38660209884610cab610c9189612055565b90546001600160a01b03939130913391871b1c85166128ed565b610cb485612055565b929092339354911b1c166129a5565b8451938452868401528383015283606083015260808201527f6d2535bccee43630e01014525de773080b47e1a82c56ef6a30802933a48c9e3460a03392a26001600c5551908152f35b8451631228c0d560e11b8152600490fd5b875163bb55fd2760e01b8152600490fd5b8751638199f5f360e01b8152600490fd5b634e487b7160e01b600052601160045260246000fd5b8151631f2a200560e01b8152600490fd5b815163100dac0560e11b8152600490fd5b815163609f982f60e01b8152600490fd5b825163609f982f60e01b8152600490fd5b8151631ab7da6b60e01b8152600490fd5b81516321081abf60e01b8152600490fd5b82516321c4e35760e21b8152600490fd5b81516306fda65d60e31b8152600490fd5b503461081b57600036600319011261081b57517f00000000000000000000000000000000000000000000000000000000000000006001600160a01b03168152602090f35b503461081b57600036600319011261081b5760045490516001600160a01b039091168152602090f35b503461081b57600036600319011261081b57602090610e676126b6565b9051908152f35b503461081b57600036600319011261081b57602090516103e88152f35b503461081b57600036600319011261081b57805190816000549081815260208091018092600080527f290decd9548b62a8d60345a988386fc84ba6bc95484008f6362f93160ef3e5639060005b818110610f335750505084610eee910385611f07565b8251818152935181850181905284938401929160005b828110610f1357505050500390f35b83516001600160a01b031685528695509381019392810192600101610f04565b82546001600160a01b031684529284019260019283019201610ed8565b503461081b578060031936011261081b57610f69611fa5565b60243591906001600160a01b031680156107755733600052600a60205282826000205410610fda5760209233600052600a8452826000208181540390558160005282600020610fb9828254612215565b90558251908152600080516020612a22833981519152843392a35160018152f35b8151631e9acf1760e31b8152600490fd5b503461081b57600036600319011261081b57805160009160085461100e81611ecd565b808452906001908181169081156110a05750600114611043575b5050611039826108d9940383611f07565b5191829182611f28565b6008600090815294507ff3f7a9fe364faab93b216da50a3214154f22a0a2b415b23a84c8169e8b636ee35b828610611088575050509181016020019161103982611028565b8054602087870181019190915290950194810161106e565b6108d9965085925060209150926110399360ff191682840152151560051b8201019450611028565b503461081b57600036600319011261081b576020906001549051908152f35b503461081b57600036600319011261081b576020905160128152f35b503461081b57600036600319011261081b577f00000000000000000000000000000000000000000000000000000000000000006001600160a01b0316330361080b576006549060ff8260081c166111895761ff0019821661010017600655337f1b00cb367edea528121d97104aa810333aca90f6f51c43095eb64f6e6c66762d600080a2005b516321081abf60e01b8152600490fd5b503461081b57602036600319011261081b576004359060055482101561081b576111c460209261201e565b91905490519160031b1c8152f35b503461081b57602036600319011261081b576020906001600160a01b036111f7611fa5565b16600052600a825280600020549051908152f35b503461081b57600036600319011261081b5760209051670de0b6b3a76400008152f35b503461081b57602036600319011261081b57602090610e6761124e611fa5565b61266a565b503461081b57602036600319011261081b5760043590600f5482101561081b576111c460209261209f565b503461081b57600036600319011261081b578051809182600d54808452602080940190600d6000527fd7b6990105719101dabeb77144f2a3385c8033acd3af97e9423a695e81ad1eb59060005b868282106112e55785906108d9886108ca84890385611f07565b8354855288955090930192600192830192016112cb565b503461081b57602036600319011261081b576004359060005482101561081b57611327602092612055565b905491519160018060a01b039160031b1c168152f35b503461081b57606036600319011261081b576004356001600160401b03811161081b5761136e9036906004016120d6565b916002600c5414610ab1576002600c5560065460ff8116156117505760081c60ff16611189576044354211611740576001549182840361172f5760005b8381106116ff57506113bb61281f565b6009928354156000146115ca5760005b81811061155657506113f86113e282610b616121a6565b506113f360ff600254168092612236565b61240f565b936103e89485811115611545576103e7198101908111610d3f57948154818101809111610d3f57825560008052600a60205284600020908154818101809111610d3f57602060009392600080516020612a22833981519152928594558851908152a35b841561153457602435851061153457611475858254612215565b905533600052600a6020528260002061148f858254612215565b905582518481526000600080516020612a2283398151915260203393a36114b581612579565b9160005b82811061150f5760208686867fb60e972ce1258a7280a8e34204b1df88fcabbe8aea805e46bc1566cdc6e6e1486114f883519284845284840190611f71565b9184868201528033930390a26001600c5551908152f35b8061151e61152f928985612142565b356115298287612222565b52612133565b6114b9565b835163bb55fd2760e01b8152600490fd5b845163bb55fd2760e01b8152600490fd5b8061158f6115666115c593612055565b905490611574848b89612142565b35913091339160039190911b1c6001600160a01b03166128ed565b6115c061159d828987612142565b356115a78361201e565b90919082549060031b91821b91600019901b1916179055565b612133565b6113cb565b60001960005b828110611679575060005b8281106115fe57506115f7670de0b6b3a7640000918654612166565b049361145b565b81670de0b6b3a76400006116226116148461201e565b939054600394851b1c612166565b048015611668578291816116576115c09361163f61166397612055565b90543091339190871b1c6001600160a01b03166128ed565b610c1c610c0e8561201e565b6115db565b8651631f2a200560e01b8152600490fd5b6116828161201e565b9054600391821b1c156116ee5761169a828987612142565b35670de0b6b3a764000090818102918183041490151715610d3f576116cd916116c28461201e565b9054911b1c90612179565b8281106116e4575b506116df90612133565b6115d0565b91506116df6116d5565b855163bb55fd2760e01b8152600490fd5b61170a818684612142565b351561171e5761171990612133565b6113ab565b8251631f2a200560e01b8152600490fd5b815163e778681d60e01b8152600490fd5b51631ab7da6b60e01b8152600490fd5b81516321c4e35760e21b8152600490fd5b503461081b578060031936011261081b57602090610e676024356004356126e8565b503461081b57600036600319011261081b577f00000000000000000000000000000000000000000000000000000000000000006001600160a01b0316330361080b576006549060ff8260081c1615611806575061ff001916600655337fa3ca62de78a6fbc929dee1103c0a0cef66aa14f4f53ca00a716788848cc34558600080a2005b51637a991ac960e11b8152600490fd5b503461081b57606036600319011261081b57600435906024356001600160401b03811161081b5761184b9036906004016120d6565b9190926002600c5414610dcc576002600c5560ff6006541615611750576044354211610d9957600154808403611a8e57811561171e5733600052602093600a855282846000205410611a7d57600954956118a36121a6565b968751906118b082612579565b988660005b8b858210611a4c5750505050505060005b8381106119f05750505033600052600a8452818360002054106119df5733600052600a84528260002082815403905561190182600954612199565b60095560008351838152600080516020612a22833981519152863392a360005b818110611980575050906108d9917f0f74fe264fb7d04b4800409b8a3562eb271296e19c3ec8835639635b3e858c45825183815261196184820188611f71565b92868201528033930390a26001600c5551928284938452830190611f71565b806115c06119916119da9389612222565b516119b061199e8461201e565b610c1c82549460039583871b1c612199565b6119b983612055565b9054911b1c6001600160a01b03166119d1838a612222565b519033906129a5565b611921565b8251631e9acf1760e31b8152600490fd5b6119fa8189612222565b51611a06828585612142565b3511611a3b57611a168189612222565b5115611a2a57611a2590612133565b6118c6565b8551631f2a200560e01b8152600490fd5b8551638199f5f360e01b8152600490fd5b61152982611a7087611a6b611a7697611a65858b612222565b51612166565b612179565b92612222565b87906118b5565b8351631e9acf1760e31b8152600490fd5b825163e778681d60e01b8152600490fd5b503461081b57600036600319011261081b576020906003549051908152f35b503461081b57606036600319011261081b57611ad8611fa5565b90611ae1611fbb565b604435926001600160a01b0391821691908215611bc1571680600052602093600a855280846000205410611a7d5781600052600b8552836000203360005285528484600020546000198103611b76575b50600080516020612a228339815191529183600052600a8252856000208181540390558460005285600020611b67828254612215565b90558551908152a35160018152f35b9050818110611bb05781600080516020612a2283398151915292879285600052600b84528760002033600052845203866000205591611b31565b84516313be252b60e01b8152600490fd5b835163d92e233d60e01b8152600490fd5b503461081b57600036600319011261081b5760209060ff600254169051908152f35b503461081b57602036600319011261081b5760043590600d5482101561081b576111c4602092611fd1565b503461081b57600036600319011261081b576020905160028152f35b503461081b57600036600319011261081b576020906009549051908152f35b503461081b57600036600319011261081b5760209060ff6006541690519015158152f35b503461081b578060031936011261081b57611c97611fa5565b60243591906001600160a01b031680156107755760209233600052600b84528260002082600052845280836000205582519081527f8c5be1e5ebec7d5bd14f71427d1e84f3dd0314c0f7b2291e5b200ac8c7c3b925843392a35160018152f35b503461081b57600036600319011261081b576108d990611d156121a6565b9051918291602083526020830190611f71565b503461081b57600036600319011261081b578051600091600754611d4b81611ecd565b808452906001908181169081156110a05750600114611d75575050611039826108d9940383611f07565b600760009081529450600080516020612a028339815191525b828610611da8575050509181016020019161103982611028565b80546020878701810191909152909501948101611d8e565b90503461081b57606036600319011261081b57600154604435916004359060243590838310801590611ec3575b611eb45750808214611ea3578315611e9257611e31611e1c612710611e1460035488612166565b048096612199565b611e2885610b616121a6565b92909186612166565b90670de0b6b3a76400009485830292808404871490151715610d3f57611e6b94611e5e85610bb895612179565b9160ff600254169361235c565b91818102918183041490151715610d3f57611e8591612179565b9082519182526020820152f35b8451631f2a200560e01b8152600490fd5b845163100dac0560e11b8152600490fd5b63609f982f60e01b8152600490fd5b5083821015611ded565b90600182811c92168015611efd575b6020831014611ee757565b634e487b7160e01b600052602260045260246000fd5b91607f1691611edc565b90601f801991011681019081106001600160401b038211176104eb57604052565b6020808252825181830181905290939260005b828110611f5d57505060409293506000838284010152601f8019910116010190565b818101860151848201604001528501611f3b565b90815180825260208080930193019160005b828110611f91575050505090565b835185529381019392810192600101611f83565b600435906001600160a01b038216820361081b57565b602435906001600160a01b038216820361081b57565b600d5481101561200857600d6000527fd7b6990105719101dabeb77144f2a3385c8033acd3af97e9423a695e81ad1eb50190600090565b634e487b7160e01b600052603260045260246000fd5b6005548110156120085760056000527f036b6384b5eca791c62761152d0c79bb0604c104a5fb6f4eb0703f3154bb3db00190600090565b90600091825481101561208b578280527f290decd9548b62a8d60345a988386fc84ba6bc95484008f6362f93160ef3e563019190565b634e487b7160e01b83526032600452602483fd5b600f5481101561200857600f6000527f8d1108e10bcb7c27dddfc02ed9d693a074039d026cf4ea4240b40f7d581ac8020190600090565b9181601f8401121561081b578235916001600160401b03831161081b576020808501948460051b01011161081b57565b9181601f8401121561081b578235916001600160401b03831161081b576020838186019501011161081b57565b6000198114610d3f5760010190565b91908110156120085760051b0190565b356001600160a01b038116810361081b5790565b81810292918115918404141715610d3f57565b8115612183570490565b634e487b7160e01b600052601260045260246000fd5b91908203918211610d3f57565b60405190600554808352826020918282019060056000527f036b6384b5eca791c62761152d0c79bb0604c104a5fb6f4eb0703f3154bb3db0936000905b8282106121fb575050506121f992500383611f07565b565b8554845260019586019588955093810193909101906121e3565b91908201809211610d3f57565b80518210156120085760209160051b010190565b80516000939284925b82841061224c5750505050565b909192946122716122779161226b856122658a87612222565b5161227f565b90612215565b95612133565b92919061223f565b9060ff1660028114612348576004811461232e576008811461231057601081146122ed576020146122bc57604051634956aa2960e01b8152600490fd5b6122e96122e26122e26122e2936122e2670de0b6b3a76400008096818096858296612166565b0480612166565b0490565b506122e96122e26122e26122e293670de0b6b3a764000094858094838294612166565b506122e96122e2916122e2670de0b6b3a76400008094838294612166565b506122e96122e291670de0b6b3a764000092818492612166565b506122e981670de0b6b3a764000092612166565b9384519361236a8287612236565b9460009384925b8284106123bc5750505050838210156123aa576113f3611a709261239495612199565b5190818110156123aa576123a791612199565b90565b60405163302e29cb60e01b8152600490fd5b9091929488878714612404576123ed9161226b876123dd8a61227195612222565b5186888c146123f5575b5061227f565b929190612371565b6123fe91612215565b866123e7565b50946123ed90612133565b9060ff16600281146124965760048114612489576008811461247957601081146124665760201461244c57604051634956aa2960e01b8152600490fd5b6124616124616124616124616123a79461249c565b61249c565b506124616124616124616123a79361249c565b506124616124616123a79261249c565b506124616123a79161249c565b506123a7905b8015612502577812725dd1d243aba0e75fe645cc4873f9e65afe688c928e1f218111156124e5576124cc90612508565b633b9aca0090818102918183041490151715610d3f5790565b670de0b6b3a764000080820291820403610d3f576123a790612508565b50600090565b906000600383111561255557508160019080821c828101809111610d3f5791905b84831061253557505050565b9091935061254c846125478184612179565b612215565b821c9190612529565b9161255c57565b60019150565b6001600160401b0381116104eb5760051b60200190565b9061258382612562565b6125906040519182611f07565b82815280926125a1601f1991612562565b0190602036910137565b909160009160006125bb85612579565b94815b81811061264c5750841561263a57815b8181106125db5750505050565b6125ef6125e88286612222565b5183612166565b670de0b6b3a76400009081810291818304149015171561262657906126178761262193612179565b611529828a612222565b6125ce565b634e487b7160e01b84526011600452602484fd5b60405163af458c0760e01b8152600490fd5b946122716126659161265e8887612222565b5190612215565b6125be565b6001549060005b82811061267d57505090565b61268681612055565b905460039190911b1c6001600160a01b03908116908316146126b0576126ab90612133565b612671565b91505090565b60ff600654161580156126de575b6126d9576123a7610c6b600154610b616121a6565b600090565b50600954156126c4565b90600154908183108015906127eb575b6127d9578083146127c75761270c8361201e565b90549060031b1c1580156127b0575b6127a85761273961273161274093610b616121a6565b509384612222565b5192612222565b519060ff600254166002811460001461275d57506123a7916127f5565b9061277261276b838361227f565b928461227f565b91801561279f57670de0b6b3a764000093612793612799926122e9956127f5565b926127f5565b90612166565b50505050600090565b505050600090565b506127ba8161201e565b90549060031b1c1561271b565b60405163100dac0560e11b8152600490fd5b60405163609f982f60e01b8152600490fd5b50818110156126f8565b90801561263a57670de0b6b3a764000091828102928184041490151715610d3f576123a791612179565b61282b600e5442612199565b806128335750565b6001549060005b82811061284a5750505042600e55565b806115c08361285b6128919461201e565b919054916128688561209f565b929093600392831b1c0290828454911b1c019082549060031b91821b91600019901b1916179055565b61283a565b3d156128d0573d906001600160401b0382116104eb57604051916128c4601f8201601f191660200184611f07565b82523d6000602084013e565b606090565b9081602091031261081b5751801515810361081b5790565b6040516323b872dd60e01b602082019081526001600160a01b03938416602483015292909316604484015260648084019490945292825260a0820192906001600160401b038411838510176104eb576000809493819460405251925af1612952612896565b9015908115612975575b5061296357565b6040516312171d8360e31b8152600490fd5b805180151592508261298a575b50503861295c565b61299d92506020809183010191016128d5565b153880612982565b60405163a9059cbb60e01b602082019081526001600160a01b0390931660248201526044808201949094529283526080830192916001600160401b038411838510176104eb576000809493819460405251925af161295261289656fea66cc928b5edb82af9bd49922954155ab7b0942694bea4ce44661d9a8736c688ddf252ad1be2c89b69c2b068fc378daa952ba7f163c4a11628f55a4df523b3efa26469706673582212208c5edd94fc7c26bc6f03744b38ef4e7dabe09c5e2c169ef2c876f55550c7483064736f6c63430008140033a264697066735822122041aa5ae0aa18478f867de5cadeefb01a555f3ca18e66ee8b3298480ec8c9305664736f6c63430008140033",
  "linkReferences": {},
  "deployedLinkReferences": {}
}