{
  "_format": "hh-sol-artifact-1",
  "contractName": "WrappedAsset",
  "sourceName": "contracts/WrappedAsset.sol",
  "abi": [
    {
      "inputs": [
        {
          "internalType": "string",
          "name": "_name",
          "type": "string"
        },
        {
          "internalType": "string",
          "name": "_symbol",
          "type": "string"
        },
        {
          "internalType": "bytes32",
          "name": "_documentHash",
          "type": "bytes32"
        },
        {
          "internalType": "string",
          "name": "_documentType",
          "type": "string"
        },
        {
          "internalType": "uint256",
          "name": "_originalValue",
          "type": "uint256"
        }
      ],
      "stateMutability": "nonpayable",
      "type": "constructor"
    },
    {
      "inputs": [],
      "name": "InsufficientAllowance",
      "type": "error"
    },
    {
      "inputs": [],
      "name": "InsufficientBalance",
      "type": "error"
    },
    {
      "inputs": [],
      "name": "OnlyFactory",
      "type": "error"
    },
    {
      "inputs": [],
      "name": "ZeroAddress",
      "type": "error"
    },
    {
      "anonymous": false,
      "inputs": [
        {
          "indexed": true,
          "internalType": "address",
          "name": "owner",
          "type": "address"
        },
        {
          "indexed": true,
          "internalType": "address",
          "name": "spender",
          "type": "address"
        },
        {
          "indexed": false,
          "internalType": "uint256",
          "name": "value",
          "type": "uint256"
        }
      ],
      "name": "Approval",
      "type": "event"
    },
    {
      "anonymous": false,
      "inputs": [
        {
          "indexed": true,
          "internalType": "address",
          "name": "from",
          "type": "address"
        },
        {
          "indexed": true,
          "internalType": "address",
          "name": "to",
          "type": "address"
        },
        {
          "indexed": false,
          "internalType": "uint256",
          "name": "value",
          "type": "uint256"
        }
      ],
      "name": "Transfer",
      "type": "event"
    },
    {
      "inputs": [
        {
          "internalType": "address",
          "name": "",
          "type": "address"
        },
        {
          "internalType": "address",
          "name": "",
          "type": "address"
        }
      ],
      "name": "allowance",
      "outputs": [
        {
          "internalType": "uint256",
          "name": "",
          "type": "uint256"
        }
      ],
      "stateMutability": "view",
      "type": "function"
    },
    {
      "inputs": [
        {
          "internalType": "address",
          "name": "spender",
          "type": "address"
        },
        {
          "internalType": "uint256",
          "name": "amount",
          "type": "uint256"
        }
      ],
      "name": "approve",
      "outputs": [
        {
          "internalType": "bool",
          "name": "success",
          "type": "bool"
        }
      ],
      "stateMutability": "nonpayable",
      "type": "function"
    },
    {
      "inputs": [
        {
          "internalType": "address",
          "name": "",
          "type": "address"
        }
      ],
      "name": "balanceOf",
      "outputs": [
        {
          "internalType": "uint256",
          "name": "",
          "type": "uint256"
        }
      ],
      "stateMutability": "view",
      "type": "function"
    },
    {
      "inputs": [
        {
          "internalType": "uint256",
          "name": "amount",
          "type": "uint256"
        }
      ],
      "name": "burn",
      "outputs": [],
      "stateMutability": "nonpayable",
      "type": "function"
    },
    {
      "inputs": [],
      "name": "decimals",
      "outputs": [
        {
          "internalType": "uint8",
          "name": "",
          "type": "uint8"
        }
      ],
      "stateMutability": "view",
      "type": "function"
    },
    {
      "inputs": [],
      "name": "documentHash",
      "outputs": [
        {
          "internalType": "bytes32",
          "name": "",
          "type": "bytes32"
        }
      ],
      "stateMutability": "view",
      "type": "function"
    },
    {
      "inputs": [],
      "name": "documentType",
      "outputs": [
        {
          "internalType": "string",
          "name": "",
          "type": "string"
        }
      ],
      "stateMutability": "view",
      "type": "function"
    },
    {
      "inputs": [],
      "name": "factory",
      "outputs": [
        {
          "internalType": "address",
          "name": "",
          "type": "address"
        }
      ],
      "stateMutability": "view",
      "type": "function"
    },
    {
      "inputs": [
        {
          "internalType": "address",
          "name": "to",
          "type": "address"
        },
        {
          "internalType": "uint256",
          "name": "amount",
          "type": "uint256"
        }
      ],
      "name": "mint",
      "outputs": [],
      "stateMutability": "nonpayable",
      "type": "function"
    },
    {
      "inputs": [],
      "name": "name",
      "outputs": [
        {
          "internalType": "string",
          "name": "",
          "type": "string"
        }
      ],
      "stateMutability": "view",
      "type": "function"
    },
    {
      "inputs": [],
      "name": "originalValue",
      "outputs": [
        {
          "internalType": "uint256",
          "name": "",
          "type": "uint256"
        }
      ],
      "stateMutability": "view",
      "type": "function"
    },
    {
      "inputs": [],
      "name": "symbol",
      "outputs": [
        {
          "internalType": "string",
          "name": "",
          "type": "string"
        }
      ],
      "stateMutability": "view",
      "type": "function"
    },
    {
      "inputs": [],
      "name": "totalSupply",
      "outputs": [
        {
          "internalType": "uint256",
          "name": "",
          "type": "uint256"
        }
      ],
      "stateMutability": "view",
      "type": "function"
    },
    {
      "inputs": [
        {
          "internalType": "address",
          "name": "to",
          "type": "address"
        },
        {
          "internalType": "uint256",
          "name": "amount",
          "type": "uint256"
        }
      ],
      "name": "transfer",
      "outputs": [
        {
          "internalType": "bool",
          "name": "success",
          "type": "bool"
        }
      ],
      "stateMutability": "nonpayable",
      "type": "function"
    },
    {
      "inputs": [
        {
          "internalType": "address",
          "name": "from",
          "type": "address"
        },
        {
          "internalType": "address",
          "name": "to",
          "type": "address"
        },
        {
          "internalType": "uint256",
          "name": "amount",
          "type": "uint256"
        }
      ],
      "name": "transferFrom",
      "outputs": [
        {
          "internalType": "bool",
          "name": "success",
          "type": "bool"
        }
      ],
      "stateMutability": "nonpayable",
      "type": "function"
    }
  ],
  "bytecode": "0x60a060405234620004a15762000e96803803806200001d81620004a6565b928339810160a082820312620004a15781516001600160401b0390818111620004a157826200004e918501620004cc565b60209283850151838111620004a157816200006b918701620004cc565b946040810151916060820151858111620004a1576080916200008f918401620004cc565b910151958351928584116200048b576000918254946001968787811c9716801562000480575b8a88101462000389578190601f978881116200042d575b508a90888311600114620003c8578692620003bc575b5050600019600383901b1c191690871b1783555b805190878211620003a85786548781811c911680156200039d575b8a821014620003895790818784931162000336575b508990878311600114620002d2578592620002c6575b5050600019600383901b1c191690861b1785555b6005558151948511620002b2576006548481811c91168015620002a7575b8782101462000293578381116200024a575b5085928511600114620001e1579394508492919083620001d5575b50501b916000199060031b1c1916176006555b6007553360805260405161095790816200053f823960805181818161012801526105020152f35b0151925038806200019b565b6006815285812093958591601f198316915b888383106200022f575050501062000215575b505050811b01600655620001ae565b015160001960f88460031b161c1916905538808062000206565b858701518855909601959485019487935090810190620001f3565b600682528682208480880160051c82019289891062000289575b0160051c019085905b8281106200027d57505062000180565b8381550185906200026d565b9250819262000264565b634e487b7160e01b82526022600452602482fd5b90607f16906200016e565b634e487b7160e01b81526041600452602490fd5b0151905038806200013c565b8886528a86208994509190601f198416875b8d8282106200031f575050841162000305575b505050811b01855562000150565b015160001960f88460031b161c19169055388080620002f7565b8385015186558c97909501949384019301620002e4565b9091508785528985208780850160051c8201928c86106200037f575b918a91869594930160051c01915b8281106200037057505062000126565b8781558594508a910162000360565b9250819262000352565b634e487b7160e01b85526022600452602485fd5b90607f169062000111565b634e487b7160e01b84526041600452602484fd5b015190503880620000e2565b8680528b87208a94509190601f198416888e5b828210620004155750508411620003fb575b505050811b018355620000f6565b015160001960f88460031b161c19169055388080620003ed565b8385015186558d979095019493840193018e620003db565b9091508580528a86208880850160051c8201928d861062000476575b918b91869594930160051c01915b82811062000467575050620000cc565b8881558594508b910162000457565b9250819262000449565b96607f1696620000b5565b634e487b7160e01b600052604160045260246000fd5b600080fd5b6040519190601f01601f191682016001600160401b038111838210176200048b57604052565b919080601f84011215620004a15782516001600160401b0381116200048b5760209062000502601f8201601f19168301620004a6565b92818452828287010111620004a15760005b8181106200052a57508260009394955001015290565b85810183015184820184015282016200051456fe6080604081815260048036101561001557600080fd5b600092833560e01c908163052aa7e1146108485750806306fdde031461076f578063095ea7b3146106eb57806318160ddd146106cc57806323b872dd146105ae578063313ce5671461059257806340c10f19146104d857806342966c681461044e57806370a0823114610416578063797bec77146103f757806395d89b411461031d578063a9059cbb1461027d578063b7fbc8b41461015b578063c45a0155146101135763dd62ed3e146100c857600080fd5b3461010f578160031936011261010f5760209282916100e56108ad565b6100ed6108c8565b6001600160a01b03918216845291865283832091168252845220549051908152f35b8280fd5b505034610157578160031936011261015757517f00000000000000000000000000000000000000000000000000000000000000006001600160a01b03168152602090f35b5080fd5b5091903461015757816003193601126101575780519082600654600181811c90808316928315610273575b60209384841081146102605783885290811561024457506001146101ee575b505050829003601f01601f191682019267ffffffffffffffff8411838510176101db57508291826101d7925282610864565b0390f35b634e487b7160e01b815260418552602490fd5b600687529192508591837ff652222313e28459528d920b65115c16c04f3efc82aaedc97be59f3f377c0d3f5b83851061023057505050508301013880806101a5565b80548886018301529301928490820161021a565b60ff1916878501525050151560051b84010190503880806101a5565b634e487b7160e01b895260228a52602489fd5b91607f1691610186565b503461010f578160031936011261010f576102966108ad565b6001600160a01b03169060243590821561030f57338552600360205281848620541061030157508260209433815260038652818120838154039055838152206102e08282546108de565b90558251908152600080516020610902833981519152843392a35160018152f35b8351631e9acf1760e31b8152fd5b835163d92e233d60e01b8152fd5b5091903461015757816003193601126101575780519082600180549081811c908083169283156103ed575b602093848410811461026057838852908115610244575060011461039857505050829003601f01601f191682019267ffffffffffffffff8411838510176101db57508291826101d7925282610864565b8087529192508591837fb10e2d527612073b26eecdfd717e6a320cf44b4afac2b0732d9fcbe2b7fa0cf65b8385106103d957505050508301013880806101a5565b8054888601830152930192849082016103c3565b91607f1691610348565b5050346101575781600319360112610157576020906005549051908152f35b5050346101575760203660031901126101575760209181906001600160a01b0361043e6108ad565b1681526003845220549051908152f35b509190346101575760203660031901126101575782359033835260036020528181842054106104c95733835260036020528083208281540390556002548281039081116104b6578394506002555190815260008051602061090283398151915260203392a380f35b634e487b7160e01b845260118552602484fd5b51631e9acf1760e31b81528390fd5b50903461010f578060031936011261010f576104f26108ad565b60243591906001600160a01b03907f000000000000000000000000000000000000000000000000000000000000000082163303610582571692831561057457506020826000805160206109028339815191529261055287956002546108de565b6002558585526003835280852061056a8382546108de565b905551908152a380f35b905163d92e233d60e01b8152fd5b8251630636a15760e11b81528590fd5b5050346101575781600319360112610157576020905160128152f35b5091346106c95760603660031901126106c9576105c96108ad565b906105d26108c8565b6001600160a01b039081169260443592919084156106b9571691828252602095600387528186842054106106ab5790858792858552808452818520338652845281852054906000198203610661575b50508385600080516020610902833981519152955260038452818120838154039055868152206106528282546108de565b90558551908152a35160018152f35b91509180949350821061069d57828460008051602061090283398151915295938993888c97528652838320338452865203828220559338610621565b86516313be252b60e01b8152fd5b8551631e9acf1760e31b8152fd5b855163d92e233d60e01b81528790fd5b80fd5b5050346101575781600319360112610157576020906002549051908152f35b5091346106c957816003193601126106c9576107056108ad565b6001600160a01b03169060243590821561075f5783829160209633825287528181208582528752205582519081527f8c5be1e5ebec7d5bd14f71427d1e84f3dd0314c0f7b2291e5b200ac8c7c3b925843392a35160018152f35b5050505163d92e233d60e01b8152fd5b50919034610157578160031936011261015757805190828354600181811c9080831692831561083e575b60209384841081146102605783885290811561024457506001146107e957505050829003601f01601f191682019267ffffffffffffffff8411838510176101db57508291826101d7925282610864565b8680529192508591837f290decd9548b62a8d60345a988386fc84ba6bc95484008f6362f93160ef3e5635b83851061082a57505050508301013880806101a5565b805488860183015293019284908201610814565b91607f1691610799565b8490346101575781600319360112610157576020906007548152f35b6020808252825181830181905290939260005b82811061089957505060409293506000838284010152601f8019910116010190565b818101860151848201604001528501610877565b600435906001600160a01b03821682036108c357565b600080fd5b602435906001600160a01b03821682036108c357565b919082018092116108eb57565b634e487b7160e01b600052601160045260246000fdfeddf252ad1be2c89b69c2b068fc378daa952ba7f163c4a11628f55a4df523b3efa2646970667358221220efd55ec57860876ee32b2b7479bb08029d5e00ecbcb46c4d57602886ef66764a64736f6c63430008140033",
  "linkReferences": {},
  "deployedLinkReferences": {}
}