{
  "_format": "hh-sol-artifact-1",
  "contractName": "LiquidityPoolAMM",
  "sourceName": "contracts/LiquidityPoolAMM.sol",
  "abi": [
    {
      "inputs": [],
      "stateMutability": "nonpayable",
      "type": "constructor"
    },
    {
      "inputs": [],
      "name": "DeadlineExpired",
      "type": "error"
    },
    {
      "inputs": [],
      "name": "InsufficientAAmount",
      "type": "error"
    },
    {
      "inputs": [],
      "name": "InsufficientBAmount",
      "type": "error"
    },
    {
      "inputs": [],
      "name": "InsufficientEth",
      "type": "error"
    },
    {
      "inputs": [],
      "name": "InsufficientLiquidity",
      "type": "error"
    },
    {
      "inputs": [],
      "name": "InsufficientOutput",
      "type": "error"
    },
    {
      "inputs": [],
      "name": "InvalidK",
      "type": "error"
    },
    {
      "inputs": [],
      "name": "InvariantViolation",
      "type": "error"
    },
    {
      "inputs": [],
      "name": "NothingToWithdraw",
      "type": "error"
    },
    {
      "inputs": [],
      "name": "PoolExists",
      "type": "error"
    },
    {
      "inputs": [],
      "name": "PoolNotFound",
      "type": "error"
    },
    {
      "inputs": [],
      "name": "ReentrantCall",
      "type": "error"
    },
    {
      "inputs": [],
      "name": "SameToken",
      "type": "error"
    },
    {
      "inputs": [],
      "name": "TransferFailed",
      "type": "error"
    },
    {
      "inputs": [],
      "name": "ZeroAddress",
      "type": "error"
    },
    {
      "inputs": [],
      "name": "ZeroAmount",
      "type": "error"
    },
    {
      "anonymous": false,
      "inputs": [
        {
          "indexed": true,
          "internalType": "address",
          "name": "to",
          "type": "address"
        },
        {
          "indexed": false,
          "internalType": "uint256",
          "name": "amount",
          "type": "uint256"
        }
      ],
      "name": "EthWithdrawn",
      "type": "event"
    },
    {
      "anonymous": false,
      "inputs": [
        {
          "indexed": true,
          "internalType": "bytes32",
          "name": "poolId",
          "type": "bytes32"
        },
        {
          "indexed": true,
          "internalType": "address",
          "name": "provider",
          "type": "address"
        },
        {
          "indexed": false,
          "internalType": "uint256",
          "name": "amount0",
          "type": "uint256"
        },
        {
          "indexed": false,
          "internalType": "uint256",
          "name": "amount1",
          "type": "uint256"
        },
        {
          "indexed": false,
          "internalType": "uint256",
          "name": "liquidity",
          "type": "uint256"
        }
      ],
      "name": "LiquidityAdded",
      "type": "event"
    },
    {
      "anonymous": false,
      "inputs": [
        {
          "indexed": true,
          "internalType": "bytes32",
          "name": "poolId",
          "type": "bytes32"
        },
        {
          "indexed": true,
          "internalType": "address",
          "name": "provider",
          "type": "address"
        },
        {
          "indexed": false,
          "internalType": "uint256",
          "name": "amount0",
          "type": "uint256"
        },
        {
          "indexed": false,
          "internalType": "uint256",
          "name": "amount1",
          "type": "uint256"
        },
        {
          "indexed": false,
          "internalType": "uint256",
          "name": "liquidity",
          "type": "uint256"
        }
      ],
      "name": "LiquidityRemoved",
      "type": "event"
    },
    {
      "anonymous": false,
      "inputs": [
        {
          "indexed": true,
          "internalType": "bytes32",
          "name": "poolId",
          "type": "bytes32"
        },
        {
          "indexed": true,
          "internalType": "address",
          "name": "token0",
          "type": "address"
        },
        {
          "indexed": true,
          "internalType": "address",
          "name": "token1",
          "type": "address"
        }
      ],
      "name": "PoolCreated",
      "type": "event"
    },
    {
      "anonymous": false,
      "inputs": [
        {
          "indexed": true,
          "internalType": "bytes32",
          "name": "poolId",
          "type": "bytes32"
        },
        {
          "indexed": true,
          "internalType": "address",
          "name": "sender",
          "type": "address"
        },
        {
          "indexed": false,
          "internalType": "address",
          "name": "tokenIn",
          "type": "address"
        },
        {
          "indexed": false,
          "internalType": "address",
          "name": "tokenOut",
          "type": "address"
        },
        {
          "indexed": false,
          "internalType": "uint256",
          "name": "amountIn",
          "type": "uint256"
        },
        {
          "indexed": false,
          "internalType": "uint256",
          "name": "amountOut",
          "type": "uint256"
        }
      ],
      "name": "Swap",
      "type": "event"
    },
    {
      "inputs": [],
      "name": "ETH_ADDRESS",
      "outputs": [
        {
          "internalType": "address",
          "name": "",
          "type": "address"
        }
      ],
      "stateMutability": "view",
      "type": "function"
    },
    {
      "inputs": [],
      "name": "FEE_DENOMINATOR",
      "outputs": [
        {
          "internalType": "uint256",
          "name": "",
          "type": "uint256"
        }
      ],
      "stateMutability": "view",
      "type": "function"
    },
    {
      "inputs": [],
      "name": "FEE_NUMERATOR",
      "outputs": [
        {
          "internalType": "uint256",
          "name": "",
          "type": "uint256"
        }
      ],
      "stateMutability": "view",
      "type": "function"
    },
    {
      "inputs": [],
      "name": "MINIMUM_LIQUIDITY",
      "outputs": [
        {
          "internalType": "uint256",
          "name": "",
          "type": "uint256"
        }
      ],
      "stateMutability": "view",
      "type": "function"
    },
    {
      "inputs": [
        {
          "internalType": "address",
          "name": "tokenA",
          "type": "address"
        },
        {
          "internalType": "address",
          "name": "tokenB",
          "type": "address"
        },
        {
          "internalType": "uint256",
          "name": "amountADesired",
          "type": "uint256"
        },
        {
          "internalType": "uint256",
          "name": "amountBDesired",
          "type": "uint256"
        },
        {
          "internalType": "uint256",
          "name": "amountAMin",
          "type": "uint256"
        },
        {
          "internalType": "uint256",
          "name": "amountBMin",
          "type": "uint256"
        },
        {
          "internalType": "uint256",
          "name": "minLiquidity",
          "type": "uint256"
        },
        {
          "internalType": "uint256",
          "name": "deadline",
          "type": "uint256"
        }
      ],
      "name": "addLiquidity",
      "outputs": [
        {
          "internalType": "uint256",
          "name": "liquidity",
          "type": "uint256"
        }
      ],
      "stateMutability": "nonpayable",
      "type": "function"
    },
    {
      "inputs": [
        {
          "internalType": "address",
          "name": "token",
          "type": "address"
        },
        {
          "internalType": "uint256",
          "name": "amountToken",
          "type": "uint256"
        },
        {
          "internalType": "uint256",
          "name": "minLiquidity",
          "type": "uint256"
        },
        {
          "internalType": "uint256",
          "name": "deadline",
          "type": "uint256"
        }
      ],
      "name": "addLiquidityETH",
      "outputs": [
        {
          "internalType": "uint256",
          "name": "liquidity",
          "type": "uint256"
        }
      ],
      "stateMutability": "payable",
      "type": "function"
    },
    {
      "inputs": [
        {
          "internalType": "address",
          "name": "tokenA",
          "type": "address"
        },
        {
          "internalType": "address",
          "name": "tokenB",
          "type": "address"
        }
      ],
      "name": "createPool",
      "outputs": [
        {
          "internalType": "bytes32",
          "name": "poolId",
          "type": "bytes32"
        }
      ],
      "stateMutability": "nonpayable",
      "type": "function"
    },
    {
      "inputs": [
        {
          "internalType": "address",
          "name": "",
          "type": "address"
        }
      ],
      "name": "ethBalances",
      "outputs": [
        {
          "internalType": "uint256",
          "name": "",
          "type": "uint256"
        }
      ],
      "stateMutability": "view",
      "type": "function"
    },
    {
      "inputs": [
        {
          "internalType": "uint256",
          "name": "amountIn",
          "type": "uint256"
        },
        {
          "internalType": "uint256",
          "name": "reserveIn",
          "type": "uint256"
        },
        {
          "internalType": "uint256",
          "name": "reserveOut",
          "type": "uint256"
        }
      ],
      "name": "getAmountOut",
      "outputs": [
        {
          "internalType": "uint256",
          "name": "amountOut",
          "type": "uint256"
        }
      ],
      "stateMutability": "pure",
      "type": "function"
    },
    {
      "inputs": [
        {
          "internalType": "address",
          "name": "tokenA",
          "type": "address"
        },
        {
          "internalType": "address",
          "name": "tokenB",
          "type": "address"
        },
        {
          "internalType": "address",
          "name": "provider",
          "type": "address"
        }
      ],
      "name": "getLiquidityBalance",
      "outputs": [
        {
          "internalType": "uint256",
          "name": "",
          "type": "uint256"
        }
      ],
      "stateMutability": "view",
      "type": "function"
    },
    {
      "inputs": [
        {
          "internalType": "address",
          "name": "tokenA",
          "type": "address"
        },
        {
          "internalType": "address",
          "name": "tokenB",
          "type": "address"
        }
      ],
      "name": "getPool",
      "outputs": [
        {
          "components": [
            {
              "internalType": "address",
              "name": "token0",
              "type": "address"
            },
            {
              "internalType": "address",
              "name": "token1",
              "type": "address"
            },
            {
              "internalType": "uint256",
              "name": "reserve0",
              "type": "uint256"
            },
            {
              "internalType": "uint256",
              "name": "reserve1",
              "type": "uint256"
            },
            {
              "internalType": "uint256",
              "name": "totalLiquidity",
              "type": "uint256"
            },
            {
              "internalType": "uint256",
              "name": "kLast",
              "type": "uint256"
            }
          ],
          "internalType": "struct LiquidityPoolAMM.Pool",
          "name": "",
          "type": "tuple"
        }
      ],
      "stateMutability": "view",
      "type": "function"
    },
    {
      "inputs": [
        {
          "internalType": "address",
          "name": "tokenA",
          "type": "address"
        },
        {
          "internalType": "address",
          "name": "tokenB",
          "type": "address"
        }
      ],
      "name": "getPoolId",
      "outputs": [
        {
          "internalType": "bytes32",
          "name": "",
          "type": "bytes32"
        }
      ],
      "stateMutability": "pure",
      "type": "function"
    },
    {
      "inputs": [
        {
          "internalType": "bytes32",
          "name": "",
          "type": "bytes32"
        },
        {
          "internalType": "address",
          "name": "",
          "type": "address"
        }
      ],
      "name": "liquidityBalances",
      "outputs": [
        {
          "internalType": "uint256",
          "name": "",
          "type": "uint256"
        }
      ],
      "stateMutability": "view",
      "type": "function"
    },
    {
      "inputs": [
        {
          "internalType": "bytes32",
          "name": "",
          "type": "bytes32"
        }
      ],
      "name": "pools",
      "outputs": [
        {
          "internalType": "address",
          "name": "token0",
          "type": "address"
        },
        {
          "internalType": "address",
          "name": "token1",
          "type": "address"
        },
        {
          "internalType": "uint256",
          "name": "reserve0",
          "type": "uint256"
        },
        {
          "internalType": "uint256",
          "name": "reserve1",
          "type": "uint256"
        },
        {
          "internalType": "uint256",
          "name": "totalLiquidity",
          "type": "uint256"
        },
        {
          "internalType": "uint256",
          "name": "kLast",
          "type": "uint256"
        }
      ],
      "stateMutability": "view",
      "type": "function"
    },
    {
      "inputs": [
        {
          "internalType": "address",
          "name": "tokenIn",
          "type": "address"
        },
        {
          "internalType": "address",
          "name": "tokenOut",
          "type": "address"
        },
        {
          "internalType": "uint256",
          "name": "amountIn",
          "type": "uint256"
        }
      ],
      "name": "quote",
      "outputs": [
        {
          "internalType": "uint256",
          "name": "amountOut",
          "type": "uint256"
        }
      ],
      "stateMutability": "view",
      "type": "function"
    },
    {
      "inputs": [
        {
          "internalType": "address",
          "name": "tokenA",
          "type": "address"
        },
        {
          "internalType": "address",
          "name": "tokenB",
          "type": "address"
        },
        {
          "internalType": "uint256",
          "name": "liquidity",
          "type": "uint256"
        },
        {
          "internalType": "uint256",
          "name": "minA",
          "type": "uint256"
        },
        {
          "internalType": "uint256",
          "name": "minB",
          "type": "uint256"
        },
        {
          "internalType": "uint256",
          "name": "deadline",
          "type": "uint256"
        }
      ],
      "name": "removeLiquidity",
      "outputs": [
        {
          "internalType": "uint256",
          "name": "amountA",
          "type": "uint256"
        },
        {
          "internalType": "uint256",
          "name": "amountB",
          "type": "uint256"
        }
      ],
      "stateMutability": "nonpayable",
      "type": "function"
    },
    {
      "inputs": [
        {
          "internalType": "address",
          "name": "token",
          "type": "address"
        },
        {
          "internalType": "uint256",
          "name": "liquidity",
          "type": "uint256"
        },
        {
          "internalType": "uint256",
          "name": "minToken",
          "type": "uint256"
        },
        {
          "internalType": "uint256",
          "name": "minETH",
          "type": "uint256"
        },
        {
          "internalType": "uint256",
          "name": "deadline",
          "type": "uint256"
        }
      ],
      "name": "removeLiquidityETH",
      "outputs": [
        {
          "internalType": "uint256",
          "name": "amountToken",
          "type": "uint256"
        },
        {
          "internalType": "uint256",
          "name": "amountETH",
          "type": "uint256"
        }
      ],
      "stateMutability": "nonpayable",
      "type": "function"
    },
    {
      "inputs": [
        {
          "internalType": "address",
          "name": "tokenIn",
          "type": "address"
        },
        {
          "internalType": "address",
          "name": "tokenOut",
          "type": "address"
        },
        {
          "internalType": "uint256",
          "name": "amountIn",
          "type": "uint256"
        },
        {
          "internalType": "uint256",
          "name": "minAmountOut",
          "type": "uint256"
        },
        {
          "internalType": "uint256",
          "name": "deadline",
          "type": "uint256"
        }
      ],
      "name": "swap",
      "outputs": [
        {
          "internalType": "uint256",
          "name": "amountOut",
          "type": "uint256"
        }
      ],
      "stateMutability": "nonpayable",
      "type": "function"
    },
    {
      "inputs": [
        {
          "internalType": "address",
          "name": "token",
          "type": "address"
        },
        {
          "internalType": "uint256",
          "name": "minAmountOut",
          "type": "uint256"
        },
        {
          "internalType": "uint256",
          "name": "deadline",
          "type": "uint256"
        }
      ],
      "name": "swapETHForToken",
      "outputs": [
        {
          "internalType": "uint256",
          "name": "amountOut",
          "type": "uint256"
        }
      ],
      "stateMutability": "payable",
      "type": "function"
    },
    {
      "inputs": [
        {
          "internalType": "address",
          "name": "token",
          "type": "address"
        },
        {
          "internalType": "uint256",
          "name": "amountIn",
          "type": "uint256"
        },
        {
          "internalType": "uint256",
          "name": "minETH",
          "type": "uint256"
        },
        {
          "internalType": "uint256",
          "name": "deadline",
          "type": "uint256"
        }
      ],
      "name": "swapTokenForETH",
      "outputs": [
        {
          "internalType": "uint256",
          "name": "amountOut",
          "type": "uint256"
        }
      ],
      "stateMutability": "nonpayable",
      "type": "function"
    },
    {
      "inputs": [],
      "name": "withdrawEth",
      "outputs": [],
      "stateMutability": "nonpayable",
      "type": "function"
    },
    {
      "stateMutability": "payable",
      "type": "receive"
    }
  ],
  "bytecode": "0x6080806040523461001b576001600355611c1290816100218239f35b600080fdfe60406080815260049081361015610020575b5050361561001e57600080fd5b005b600091823560e01c908163054d50d41461125d578163088ebc25146111215781632ef61c21146110f05781633cfba0e3146110b857816341cd47bf1461109c578163421c460014610e9157816344483d5314610d415781634fb5bf7f14610cff578163531aa03e14610c1d5781635625d38314610a9a5781637a950f991461090e578163a0ef91df1461085a578163a2ad989f1461068e578163a734f06e14610665578163b5217bb4146105fd578163b646638414610557578163ba1ffd03146102e0578163ba9a7a56146102db578163d73792a9146102db578163e34336151461017e575063f0a0046803610011573461017a57606036600319011261017a57610129611285565b6101316112a0565b6044356001600160a01b0381169290839003610176579161015f610159602096938695611b55565b90611b70565b825260018552828220908252845220549051908152f35b8480fd5b5080fd5b83833461017a578060031936011261017a57610198611285565b6101a06112a0565b6001600160a01b0391808316801580156102d1575b6102c157838316146102b157906101cb91611b55565b9190926101d88385611b70565b93848652856020528282872054166102a157817fc0c143d18100b0ec0b6c08cc52247dd860ffd3fc2af30733326e5f980c19635a9160058760209a8a888398519561022287611301565b1698898652808e87019b169a8b8152878701908382526060880192848452808a60808b019680885260a08c0199818b528152602081905220995116906bffffffffffffffffffffffff60a01b91828b5416178a5560018a0192511690825416179055516002870155516003860155519084015551910155519580a48152f35b8151637a471e1360e11b81528790fd5b835163100dac0560e11b81528690fd5b845163d92e233d60e01b81528790fd5b50838316156101b5565b6112e4565b9190503461055357610100366003190112610553576102fd611285565b926103066112a0565b6044356064359260026003541461054357600260035560e4354211610533576001600160a01b0387811697909390600080516020611bbd833981519152808a14908115610527575b50610517578315801561050f575b6104ff579061036a91611b55565b949097610377868a611b70565b94858452836020528784209481865416156104ef57858a015461043757926103b8926103cb9695926103c29592935b508c16036104315790995b33906118de565b97889533906118de565b9687918461147a565b9360c4358510610423575082519182526020828101959095526040820184905233917f9c8e2178a53b464e8c6d21c6d0d1f5189e5d2f6f6a79237ba611cf996a6e6b329080606081015b0390a3600160035551908152f35b835163bb55fd2760e01b8152fd5b996103b1565b8a821683036104df5760028601549360038701545b61045f8661045a8386611355565b61137e565b958287116104995750505060a435841061048957926103b8926103cb9695926103c29592936103a6565b885163ef71d09160e01b81528a90fd5b82965061045a906104a993611355565b9081116104cf5760843581106104cf57926103b8926103cb9695926103c29592936103a6565b8851638dc525d160e01b81528a90fd5b600386015493600287015461044c565b88516301dbb3ff60e61b81528a90fd5b8651631f2a200560e01b81528890fd5b50851561035c565b865163d92e233d60e01b81528890fd5b9050858316143861034e565b8451631ab7da6b60e01b81528690fd5b84516306fda65d60e31b81528690fd5b8280fd5b90503461055357606036600319011261055357610572611285565b9061058f6105876105816112a0565b84611b55565b819291611b70565b8552846020528385209460018060a01b039283875416156105ef575091806105d8949284602098955050169116146000146105df5760036002820154910154905b6044356113f8565b9051908152f35b60026003820154910154906105d0565b85516301dbb3ff60e61b8152fd5b91905034610553576020366003190112610553578060c09383358152806020522060018060a01b0392838254169360018301541692600283015490600560038501549385015494015494815196875260208701528501526060840152608083015260a0820152f35b50503461017a578160031936011261017a5760209051600080516020611bbd8339815191528152f35b905082346108575760a0366003190112610857576106aa611285565b906024356002600354146108475760026003556084354211610837576001600160a01b03838116919082158015610820575b61081057811561080057600080516020611bbd833981519152928310156107f557829361070a865b86611b70565b938482528160205288822083815416156107e55784610729918761163c565b93909616146000146107db57849582975b60443589106107cd5760643588106107bf57507f1644e236c5520c62ce0dee793b42f87f940781d55b02c890fbbcdfff1ee5e25193929161077e898b933390611a6d565b33815260026020522061079287825461139e565b9055875194855260208501526040840152339280606081015b0390a3600160035582519182526020820152f35b895163ef71d09160e01b8152fd5b8951638dc525d160e01b8152fd5b849695829661073a565b89516301dbb3ff60e61b81528990fd5b849361070a84610704565b8651631f2a200560e01b81528690fd5b865163d92e233d60e01b81528690fd5b50600080516020611bbd83398151915283146106dc565b8451631ab7da6b60e01b81528490fd5b84516306fda65d60e31b81528490fd5b80fd5b919050346105535782600319360112610553576002600354146109015760026003553383526002602052808320549182156108f357338452600260205283828120558380808086335af16108ac6113ab565b50156108e55750519081527f8455ae6be5d92f1df1c3c1484388e247a36c7e60d72055ae216dbc258f257d4b60203392a2600160035580f35b90516312171d8360e31b8152fd5b9051630686827b60e51b8152fd5b516306fda65d60e31b8152fd5b919050346105535760a03660031901126105535761092a611285565b6109326112a0565b9360443591600260035414610a8a5760026003556084354211610a7a576001600160a01b038181169390600080516020611bbd833981519152808614908115610a6e575b50610a5e578115610a4e5780881691828614610a3e578661099a6101598b87611b55565b9586815280602052209182541615610a2e57906109bb6109c39233866118de565b93849161171b565b956064358710610a2057506109dc866020983390611a6d565b845193845286840152838301528360608301527f0c8d1c4d9e04dd566f62cc25a237c76ae445c7d40c5f2a485e51c9177bc7558b60803393a3600160035551908152f35b855163bb2875c360e01b8152fd5b86516301dbb3ff60e61b81528890fd5b865163100dac0560e11b81528890fd5b8551631f2a200560e01b81528790fd5b855163d92e233d60e01b81528790fd5b90508189161438610976565b50505051631ab7da6b60e01b8152fd5b505050516306fda65d60e31b8152fd5b919050610aa6366112b6565b60026003979493979692965414610c0e5760026003554211610c00576001600160a01b03918083169081158015610be9575b610bd95734158015610bd1575b610bc157600080516020611bbd83398151915291821015610bbb5790805b610b0d8383611b70565b9485875286602052878720968188541615610bab5750610b4893929190821603610b935750348095610b428a8b94339061181c565b8561147a565b948510610423575082519182526020828101959095526040820184905233917f9c8e2178a53b464e8c6d21c6d0d1f5189e5d2f6f6a79237ba611cf996a6e6b32908060608101610415565b9050878095610ba6349a8b94339061181c565b610b42565b88516301dbb3ff60e61b81528690fd5b81610b03565b8551631f2a200560e01b81528390fd5b508715610ae5565b855163d92e233d60e01b81528390fd5b50600080516020611bbd8339815191528214610ad8565b8351631ab7da6b60e01b8152fd5b5083516306fda65d60e31b8152fd5b9050346105535781600319360112610553578160c093610c79610159610c41611285565b610c496112a0565b908460a08751610c5881611301565b82815282602082015282898201528260608201528260808201520152611b55565b81528060205220825191610c8c83611301565b60018060a01b0393848354169485855280600185015416906020860191825260028501549183870192835260a0600560038801549660608a019788528801549760808a019889520154970196875283519788525116602087015251908501525160608401525160808301525160a0820152f35b9050346105535781600319360112610553576020928291610d1e6112a0565b90358252600185528282206001600160a01b039091168252845220549051908152f35b8391503461017a5760c036600319011261017a57610d5d611285565b91610d666112a0565b9060443591600260035414610e8157600260035560a4354211610e71578215610e6157610d939085611b55565b92909486610da18588611b70565b8085526020859052932080546001600160a01b03959190861615610e515783610dca918661163c565b929095808916911614600014610e4857849682965b60643589106107cd5760843588106107bf5750827f1644e236c5520c62ce0dee793b42f87f940781d55b02c890fbbcdfff1ee5e251949392610e2688610e2d943390611adc565b3390611adc565b875194855260208501526040840152339280606081016107ab565b81968596610ddf565b88516301dbb3ff60e61b81528790fd5b8551631f2a200560e01b81528490fd5b8551631ab7da6b60e01b81528490fd5b85516306fda65d60e31b81528490fd5b8383606036600319011261017a57610ea7611285565b916002906003948286541461108e578286556044354211610c00576001600160a01b03948086169182158015611077575b61106957341561105b57600080516020611bbd833981519152948386101561105157610f048387611b70565b94858152806020528781209889541690811561104157508614978815611030578181015491610f428b8301545b610f3b8186611355565b94346113f8565b998a1561102057610f81919015610ffb57808301610f6134825461139e565b90558b8301610f718c82546113eb565b90555b8201548b83015490611355565b918210610feb57600501556024358710610a2057509160019391610faa87602099953390611a6d565b85519283528783015234858301528560608301527f0c8d1c4d9e04dd566f62cc25a237c76ae445c7d40c5f2a485e51c9177bc7558b60803393a35551908152f35b875163302e29cb60e01b81528390fd5b8b830161100934825461139e565b90558083016110198c82546113eb565b9055610f74565b895163bb2875c360e01b81528590fd5b8981015491610f4281830154610f31565b88516301dbb3ff60e61b81528490fd5b610f048684611b70565b8551631f2a200560e01b8152fd5b855163d92e233d60e01b8152fd5b50600080516020611bbd8339815191528314610ed8565b83516306fda65d60e31b8152fd5b50503461017a578160031936011261017a576020905160038152f35b50503461017a57602036600319011261017a5760209181906001600160a01b036110e0611285565b1681526002845220549051908152f35b50503461017a578060031936011261017a576020906105d8610159611113611285565b61111b6112a0565b90611b55565b9190503461055357611132366112b6565b60026003969492965414610847576002600355421161124d576001600160a01b038181169384158015611236575b61106957831561105b57600080516020611bbd833981519152918583101561122c5761118c8484611b70565b94858a5289602052878a20918254161561121c57906111af6111b79233876118de565b94859161171b565b968710610a2057508460209733815260028952206111d687825461139e565b9055845193845286840152838301528360608301527f0c8d1c4d9e04dd566f62cc25a237c76ae445c7d40c5f2a485e51c9177bc7558b60803393a3600160035551908152f35b87516301dbb3ff60e61b81528390fd5b61118c8385611b70565b50600080516020611bbd8339815191528514611160565b8351631ab7da6b60e01b81528390fd5b82843461085757606036600319011261085757506105d86020926044359060243590356113f8565b600435906001600160a01b038216820361129b57565b600080fd5b602435906001600160a01b038216820361129b57565b608090600319011261129b576004356001600160a01b038116810361129b5790602435906044359060643590565b3461129b57600036600319011261129b5760206040516103e88152f35b60c0810190811067ffffffffffffffff82111761131d57604052565b634e487b7160e01b600052604160045260246000fd5b90601f8019910116810190811067ffffffffffffffff82111761131d57604052565b8181029291811591840414171561136857565b634e487b7160e01b600052601160045260246000fd5b8115611388570490565b634e487b7160e01b600052601260045260246000fd5b9190820180921161136857565b3d156113e6573d9067ffffffffffffffff821161131d57604051916113da601f8201601f191660200184611333565b82523d6000602084013e565b606090565b9190820391821161136857565b9190821561146857801591828015611460575b61144e576103e580850294850403611368576114279084611355565b916103e88083029283041417156113685761144b926114459161139e565b9061137e565b90565b60405163bb55fd2760e01b8152600490fd5b50801561140b565b604051631f2a200560e01b8152600490fd5b9392909160049485840190815480156000146115f5575061149b8484611355565b96600060038911156115e657508760019080821c82810180911161158c5791905b8a83106115c6575050505b6103e897888111156115b6576103e71981019081116115a15797826000526001602052604060002060008052602052604060002080549082820180921161158c575583555b871561157d57509160059391611578936000526001602052604060002033600052602052604060002061154089825461139e565b905561154d88825461139e565b905561155e6002860191825461139e565b8091556115706003860192835461139e565b809255611355565b910155565b60405163bb55fd2760e01b8152fd5b601184634e487b7160e01b6000525260246000fd5b601182634e487b7160e01b6000525260246000fd5b5060405163bb55fd2760e01b8152fd5b909199506115dd8a6115d8818461137e565b61139e565b821c91906114bc565b97156114c757600197506114c7565b61162561161a6116136116088488611355565b60028a01549061137e565b9287611355565b60038801549061137e565b8082101561163557505b9661150c565b905061162f565b9192906000938385526001602052604080862033875260205281818720541061170b57600283019061166f825484611355565b9260048501916116818354809661137e565b98611695600388019661045a885486611355565b988a158015611703575b6116f2579260059694928261157897956116d794526001602052818120338252602052206116ce8282546113eb565b905582546113eb565b90556116e48882546113eb565b8091556115708783546113eb565b825163bb55fd2760e01b8152600490fd5b50891561169f565b5163bb55fd2760e01b8152600490fd5b80546001600160a01b0392831692169190911492919083156117f15760028101549161175760038301545b6117508186611355565b94836113f8565b9485156117df57156117b8576117726002830191825461139e565b9055600381016117838582546113eb565b90555b6117996002820154600383015490611355565b9182106117a65760050155565b60405163302e29cb60e01b8152600490fd5b6117c76003830191825461139e565b9055600281016117d88582546113eb565b9055611786565b60405163bb2875c360e01b8152600490fd5b6003810154916117576002830154611746565b9081602091031261129b5751801515810361129b5790565b6001600160a01b031691600080516020611bbd83398151915283146118d9576040516323b872dd60e01b81526001600160a01b039092166004830152306024830152604482015290602090829081600081606481015b03925af19081156118cd5760009161189f575b501561188d57565b6040516312171d8360e31b8152600490fd5b6118c0915060203d81116118c6575b6118b88183611333565b810190611804565b38611885565b503d6118ae565b6040513d6000823e3d90fd5b505050565b604080516370a0823160e01b808252306004830152919594602094936001600160a01b03169291908582602481875afa948515611a62578692600096611a2c575b5088516323b872dd60e01b81526001600160a01b0390911660048201523060248201526044810191909152908180606481015b03816000875af1908115611a2157600091611a04575b50156119f3578390602487518094819382523060048301525afa9081156119e8576000916119b6575b5061199c92506113eb565b9182156119a65750565b51631f2a200560e01b8152600490fd5b919282813d83116119e1575b6119cc8183611333565b8101031261085757509061199c915138611991565b503d6119c2565b85513d6000823e3d90fd5b85516312171d8360e31b8152600490fd5b611a1b9150853d87116118c6576118b88183611333565b38611968565b87513d6000823e3d90fd5b919282819792973d8311611a5b575b611a458183611333565b810103126108575750519385919061195261191f565b503d611a3b565b88513d6000823e3d90fd5b6001600160a01b039081169190600080516020611bbd8339815191528314611ac7575060405163a9059cbb60e01b81526001600160a01b039091166004820152602481019290925260209082908160008160448101611872565b60009384935083928392165af16118856113ab565b6001600160a01b039081169190600080516020611bbd8339815191528314611b36575060405163a9059cbb60e01b81526001600160a01b039091166004820152602481019290925260209082908160008160448101611872565b9150166000526002602052611b51604060002091825461139e565b9055565b9091906001600160a01b03808416908216101561144b579190565b6040519060208201926bffffffffffffffffffffffff19809260601b16845260601b166034820152602881526060810181811067ffffffffffffffff82111761131d576040525190209056fe000000000000000000000000eeeeeeeeeeeeeeeeeeeeeeeeeeeeeeeeeeeeeeeea2646970667358221220bd56149ae3b7fd45344a9493e9173fa95016fd5d8294f2feb7ade077fdcf593d64736f6c63430008140033",
  "linkReferences": {},
  "deployedLinkReferences": {}
}