{
  "_format": "hh-sol-artifact-1",
  "contractName": "LiquidityPoolAMM",
  "sourceName": "contracts/LiquidityPoolAMM.sol",
  "abi": [
    {
      "inputs": [
        {
          "internalType": "address",
          "name": "_owner",
          "type": "address"
        }
      ],
      "stateMutability": "nonpayable",
      "type": "constructor"
    },
    {
      "inputs": [],
      "name": "AMMPaused",
      "type": "error"
    },
    {
      "inputs": [],
      "name": "AlreadyExecuted",
      "type": "error"
    },
    {
      "inputs": [],
      "name": "DeadlineExpired",
      "type": "error"
    },
    {
      "inputs": [],
      "name": "InsufficientAAmount",
      "type": "error"
    },
    {
      "inputs": [],
      "name": "InsufficientBAmount",
      "type": "error"
    },
    {
      "inputs": [],
      "name": "InsufficientEth",
      "type": "error"
    },
    {
      "inputs": [],
      "name": "InsufficientLiquidity",
      "type": "error"
    },
    {
      "inputs": [],
      "name": "InsufficientOutput",
      "type": "error"
    },
    {
      "inputs": [],
      "name": "InvalidK",
      "type": "error"
    },
    {
      "inputs": [],
      "name": "InvariantViolation",
      "type": "error"
    },
    {
      "inputs": [],
      "name": "NotOwner",
      "type": "error"
    },
    {
      "inputs": [],
      "name": "NotPaused",
      "type": "error"
    },
    {
      "inputs": [],
      "name": "NotPendingOwner",
      "type": "error"
    },
    {
      "inputs": [],
      "name": "NothingToWithdraw",
      "type": "error"
    },
    {
      "inputs": [],
      "name": "PoolExists",
      "type": "error"
    },
    {
      "inputs": [],
      "name": "PoolNotFound",
      "type": "error"
    },
    {
      "inputs": [],
      "name": "ReentrantCall",
      "type": "error"
    },
    {
      "inputs": [],
      "name": "SameToken",
      "type": "error"
    },
    {
      "inputs": [],
      "name": "TimelockNotMet",
      "type": "error"
    },
    {
      "inputs": [],
      "name": "TransferFailed",
      "type": "error"
    },
    {
      "inputs": [],
      "name": "ZeroAddress",
      "type": "error"
    },
    {
      "inputs": [],
      "name": "ZeroAmount",
      "type": "error"
    },
    {
      "anonymous": false,
      "inputs": [
        {
          "indexed": true,
          "internalType": "uint256",
          "name": "requestId",
          "type": "uint256"
        }
      ],
      "name": "EmergencyWithdrawCancelled",
      "type": "event"
    },
    {
      "anonymous": false,
      "inputs": [
        {
          "indexed": true,
          "internalType": "uint256",
          "name": "requestId",
          "type": "uint256"
        }
      ],
      "name": "EmergencyWithdrawExecuted",
      "type": "event"
    },
    {
      "anonymous": false,
      "inputs": [
        {
          "indexed": true,
          "internalType": "uint256",
          "name": "requestId",
          "type": "uint256"
        },
        {
          "indexed": false,
          "internalType": "address",
          "name": "token",
          "type": "address"
        },
        {
          "indexed": false,
          "internalType": "uint256",
          "name": "amount",
          "type": "uint256"
        },
        {
          "indexed": false,
          "internalType": "address",
          "name": "recipient",
          "type": "address"
        },
        {
          "indexed": false,
          "internalType": "uint256",
          "name": "executeAfter",
          "type": "uint256"
        }
      ],
      "name": "EmergencyWithdrawRequested",
      "type": "event"
    },
    {
      "anonymous": false,
      "inputs": [
        {
          "indexed": true,
          "internalType": "address",
          "name": "to",
          "type": "address"
        },
        {
          "indexed": false,
          "internalType": "uint256",
          "name": "amount",
          "type": "uint256"
        }
      ],
      "name": "EthWithdrawn",
      "type": "event"
    },
    {
      "anonymous": false,
      "inputs": [
        {
          "indexed": true,
          "internalType": "bytes32",
          "name": "poolId",
          "type": "bytes32"
        },
        {
          "indexed": true,
          "internalType": "address",
          "name": "provider",
          "type": "address"
        },
        {
          "indexed": false,
          "internalType": "uint256",
          "name": "amount0",
          "type": "uint256"
        },
        {
          "indexed": false,
          "internalType": "uint256",
          "name": "amount1",
          "type": "uint256"
        },
        {
          "indexed": false,
          "internalType": "uint256",
          "name": "liquidity",
          "type": "uint256"
        }
      ],
      "name": "LiquidityAdded",
      "type": "event"
    },
    {
      "anonymous": false,
      "inputs": [
        {
          "indexed": true,
          "internalType": "bytes32",
          "name": "poolId",
          "type": "bytes32"
        },
        {
          "indexed": true,
          "internalType": "address",
          "name": "provider",
          "type": "address"
        },
        {
          "indexed": false,
          "internalType": "uint256",
          "name": "amount0",
          "type": "uint256"
        },
        {
          "indexed": false,
          "internalType": "uint256",
          "name": "amount1",
          "type": "uint256"
        },
        {
          "indexed": false,
          "internalType": "uint256",
          "name": "liquidity",
          "type": "uint256"
        }
      ],
      "name": "LiquidityRemoved",
      "type": "event"
    },
    {
      "anonymous": false,
      "inputs": [
        {
          "indexed": true,
          "internalType": "address",
          "name": "currentOwner",
          "type": "address"
        },
        {
          "indexed": true,
          "internalType": "address",
          "name": "pendingOwner",
          "type": "address"
        }
      ],
      "name": "OwnershipTransferStarted",
      "type": "event"
    },
    {
      "anonymous": false,
      "inputs": [
        {
          "indexed": true,
          "internalType": "address",
          "name": "previousOwner",
          "type": "address"
        },
        {
          "indexed": true,
          "internalType": "address",
          "name": "newOwner",
          "type": "address"
        }
      ],
      "name": "OwnershipTransferred",
      "type": "event"
    },
    {
      "anonymous": false,
      "inputs": [
        {
          "indexed": true,
          "internalType": "address",
          "name": "by",
          "type": "address"
        }
      ],
      "name": "Paused",
      "type": "event"
    },
    {
      "anonymous": false,
      "inputs": [
        {
          "indexed": true,
          "internalType": "bytes32",
          "name": "poolId",
          "type": "bytes32"
        },
        {
          "indexed": true,
          "internalType": "address",
          "name": "token0",
          "type": "address"
        },
        {
          "indexed": true,
          "internalType": "address",
          "name": "token1",
          "type": "address"
        }
      ],
      "name": "PoolCreated",
      "type": "event"
    },
    {
      "anonymous": false,
      "inputs": [
        {
          "indexed": true,
          "internalType": "bytes32",
          "name": "poolId",
          "type": "bytes32"
        },
        {
          "indexed": true,
          "internalType": "address",
          "name": "sender",
          "type": "address"
        },
        {
          "indexed": false,
          "internalType": "address",
          "name": "tokenIn",
          "type": "address"
        },
        {
          "indexed": false,
          "internalType": "address",
          "name": "tokenOut",
          "type": "address"
        },
        {
          "indexed": false,
          "internalType": "uint256",
          "name": "amountIn",
          "type": "uint256"
        },
        {
          "indexed": false,
          "internalType": "uint256",
          "name": "amountOut",
          "type": "uint256"
        }
      ],
      "name": "Swap",
      "type": "event"
    },
    {
      "anonymous": false,
      "inputs": [
        {
          "indexed": true,
          "internalType": "address",
          "name": "by",
          "type": "address"
        }
      ],
      "name": "Unpaused",
      "type": "event"
    },
    {
      "inputs": [],
      "name": "EMERGENCY_TIMELOCK",
      "outputs": [
        {
          "internalType": "uint256",
          "name": "",
          "type": "uint256"
        }
      ],
      "stateMutability": "view",
      "type": "function"
    },
    {
      "inputs": [],
      "name": "ETH_ADDRESS",
      "outputs": [
        {
          "internalType": "address",
          "name": "",
          "type": "address"
        }
      ],
      "stateMutability": "view",
      "type": "function"
    },
    {
      "inputs": [],
      "name": "FEE_DENOMINATOR",
      "outputs": [
        {
          "internalType": "uint256",
          "name": "",
          "type": "uint256"
        }
      ],
      "stateMutability": "view",
      "type": "function"
    },
    {
      "inputs": [],
      "name": "FEE_NUMERATOR",
      "outputs": [
        {
          "internalType": "uint256",
          "name": "",
          "type": "uint256"
        }
      ],
      "stateMutability": "view",
      "type": "function"
    },
    {
      "inputs": [],
      "name": "MINIMUM_LIQUIDITY",
      "outputs": [
        {
          "internalType": "uint256",
          "name": "",
          "type": "uint256"
        }
      ],
      "stateMutability": "view",
      "type": "function"
    },
    {
      "inputs": [],
      "name": "acceptOwnership",
      "outputs": [],
      "stateMutability": "nonpayable",
      "type": "function"
    },
    {
      "inputs": [
        {
          "internalType": "address",
          "name": "tokenA",
          "type": "address"
        },
        {
          "internalType": "address",
          "name": "tokenB",
          "type": "address"
        },
        {
          "internalType": "uint256",
          "name": "amountADesired",
          "type": "uint256"
        },
        {
          "internalType": "uint256",
          "name": "amountBDesired",
          "type": "uint256"
        },
        {
          "internalType": "uint256",
          "name": "amountAMin",
          "type": "uint256"
        },
        {
          "internalType": "uint256",
          "name": "amountBMin",
          "type": "uint256"
        },
        {
          "internalType": "uint256",
          "name": "minLiquidity",
          "type": "uint256"
        },
        {
          "internalType": "uint256",
          "name": "deadline",
          "type": "uint256"
        }
      ],
      "name": "addLiquidity",
      "outputs": [
        {
          "internalType": "uint256",
          "name": "liquidity",
          "type": "uint256"
        }
      ],
      "stateMutability": "nonpayable",
      "type": "function"
    },
    {
      "inputs": [
        {
          "internalType": "address",
          "name": "token",
          "type": "address"
        },
        {
          "internalType": "uint256",
          "name": "amountTokenDesired",
          "type": "uint256"
        },
        {
          "internalType": "uint256",
          "name": "amountTokenMin",
          "type": "uint256"
        },
        {
          "internalType": "uint256",
          "name": "amountETHMin",
          "type": "uint256"
        },
        {
          "internalType": "uint256",
          "name": "minLiquidity",
          "type": "uint256"
        },
        {
          "internalType": "uint256",
          "name": "deadline",
          "type": "uint256"
        }
      ],
      "name": "addLiquidityETH",
      "outputs": [
        {
          "internalType": "uint256",
          "name": "liquidity",
          "type": "uint256"
        }
      ],
      "stateMutability": "payable",
      "type": "function"
    },
    {
      "inputs": [
        {
          "internalType": "uint256",
          "name": "requestId",
          "type": "uint256"
        }
      ],
      "name": "cancelEmergencyWithdraw",
      "outputs": [],
      "stateMutability": "nonpayable",
      "type": "function"
    },
    {
      "inputs": [
        {
          "internalType": "address",
          "name": "tokenA",
          "type": "address"
        },
        {
          "internalType": "address",
          "name": "tokenB",
          "type": "address"
        }
      ],
      "name": "createPool",
      "outputs": [
        {
          "internalType": "bytes32",
          "name": "poolId",
          "type": "bytes32"
        }
      ],
      "stateMutability": "nonpayable",
      "type": "function"
    },
    {
      "inputs": [
        {
          "internalType": "uint256",
          "name": "",
          "type": "uint256"
        }
      ],
      "name": "emergencyRequests",
      "outputs": [
        {
          "internalType": "address",
          "name": "token",
          "type": "address"
        },
        {
          "internalType": "uint256",
          "name": "amount",
          "type": "uint256"
        },
        {
          "internalType": "address",
          "name": "recipient",
          "type": "address"
        },
        {
          "internalType": "uint256",
          "name": "executeAfter",
          "type": "uint256"
        },
        {
          "internalType": "bool",
          "name": "executed",
          "type": "bool"
        }
      ],
      "stateMutability": "view",
      "type": "function"
    },
    {
      "inputs": [
        {
          "internalType": "address",
          "name": "",
          "type": "address"
        }
      ],
      "name": "ethBalances",
      "outputs": [
        {
          "internalType": "uint256",
          "name": "",
          "type": "uint256"
        }
      ],
      "stateMutability": "view",
      "type": "function"
    },
    {
      "inputs": [
        {
          "internalType": "uint256",
          "name": "requestId",
          "type": "uint256"
        }
      ],
      "name": "executeEmergencyWithdraw",
      "outputs": [],
      "stateMutability": "nonpayable",
      "type": "function"
    },
    {
      "inputs": [
        {
          "internalType": "uint256",
          "name": "amountIn",
          "type": "uint256"
        },
        {
          "internalType": "uint256",
          "name": "reserveIn",
          "type": "uint256"
        },
        {
          "internalType": "uint256",
          "name": "reserveOut",
          "type": "uint256"
        }
      ],
      "name": "getAmountOut",
      "outputs": [
        {
          "internalType": "uint256",
          "name": "amountOut",
          "type": "uint256"
        }
      ],
      "stateMutability": "pure",
      "type": "function"
    },
    {
      "inputs": [
        {
          "internalType": "address",
          "name": "tokenA",
          "type": "address"
        },
        {
          "internalType": "address",
          "name": "tokenB",
          "type": "address"
        },
        {
          "internalType": "address",
          "name": "provider",
          "type": "address"
        }
      ],
      "name": "getLiquidityBalance",
      "outputs": [
        {
          "internalType": "uint256",
          "name": "",
          "type": "uint256"
        }
      ],
      "stateMutability": "view",
      "type": "function"
    },
    {
      "inputs": [
        {
          "internalType": "address",
          "name": "tokenA",
          "type": "address"
        },
        {
          "internalType": "address",
          "name": "tokenB",
          "type": "address"
        }
      ],
      "name": "getPool",
      "outputs": [
        {
          "components": [
            {
              "internalType": "address",
              "name": "token0",
              "type": "address"
            },
            {
              "internalType": "address",
              "name": "token1",
              "type": "address"
            },
            {
              "internalType": "uint256",
              "name": "reserve0",
              "type": "uint256"
            },
            {
              "internalType": "uint256",
              "name": "reserve1",
              "type": "uint256"
            },
            {
              "internalType": "uint256",
              "name": "totalLiquidity",
              "type": "uint256"
            },
            {
              "internalType": "uint256",
              "name": "kLast",
              "type": "uint256"
            }
          ],
          "internalType": "struct LiquidityPoolAMM.Pool",
          "name": "",
          "type": "tuple"
        }
      ],
      "stateMutability": "view",
      "type": "function"
    },
    {
      "inputs": [
        {
          "internalType": "address",
          "name": "tokenA",
          "type": "address"
        },
        {
          "internalType": "address",
          "name": "tokenB",
          "type": "address"
        }
      ],
      "name": "getPoolId",
      "outputs": [
        {
          "internalType": "bytes32",
          "name": "",
          "type": "bytes32"
        }
      ],
      "stateMutability": "pure",
      "type": "function"
    },
    {
      "inputs": [
        {
          "internalType": "address",
          "name": "tokenA",
          "type": "address"
        },
        {
          "internalType": "address",
          "name": "tokenB",
          "type": "address"
        }
      ],
      "name": "getPriceObservation",
      "outputs": [
        {
          "components": [
            {
              "internalType": "uint256",
              "name": "timestamp",
              "type": "uint256"
            },
            {
              "internalType": "uint256",
              "name": "price0CumulativeLast",
              "type": "uint256"
            },
            {
              "internalType": "uint256",
              "name": "price1CumulativeLast",
              "type": "uint256"
            }
          ],
          "internalType": "struct LiquidityPoolAMM.PriceObservation",
          "name": "observation",
          "type": "tuple"
        }
      ],
      "stateMutability": "view",
      "type": "function"
    },
    {
      "inputs": [
        {
          "internalType": "bytes32",
          "name": "",
          "type": "bytes32"
        },
        {
          "internalType": "address",
          "name": "",
          "type": "address"
        }
      ],
      "name": "liquidityBalances",
      "outputs": [
        {
          "internalType": "uint256",
          "name": "",
          "type": "uint256"
        }
      ],
      "stateMutability": "view",
      "type": "function"
    },
    {
      "inputs": [],
      "name": "nextEmergencyId",
      "outputs": [
        {
          "internalType": "uint256",
          "name": "",
          "type": "uint256"
        }
      ],
      "stateMutability": "view",
      "type": "function"
    },
    {
      "inputs": [],
      "name": "owner",
      "outputs": [
        {
          "internalType": "address",
          "name": "",
          "type": "address"
        }
      ],
      "stateMutability": "view",
      "type": "function"
    },
    {
      "inputs": [],
      "name": "pause",
      "outputs": [],
      "stateMutability": "nonpayable",
      "type": "function"
    },
    {
      "inputs": [],
      "name": "paused",
      "outputs": [
        {
          "internalType": "bool",
          "name": "",
          "type": "bool"
        }
      ],
      "stateMutability": "view",
      "type": "function"
    },
    {
      "inputs": [],
      "name": "pendingOwner",
      "outputs": [
        {
          "internalType": "address",
          "name": "",
          "type": "address"
        }
      ],
      "stateMutability": "view",
      "type": "function"
    },
    {
      "inputs": [
        {
          "internalType": "bytes32",
          "name": "",
          "type": "bytes32"
        }
      ],
      "name": "pools",
      "outputs": [
        {
          "internalType": "address",
          "name": "token0",
          "type": "address"
        },
        {
          "internalType": "address",
          "name": "token1",
          "type": "address"
        },
        {
          "internalType": "uint256",
          "name": "reserve0",
          "type": "uint256"
        },
        {
          "internalType": "uint256",
          "name": "reserve1",
          "type": "uint256"
        },
        {
          "internalType": "uint256",
          "name": "totalLiquidity",
          "type": "uint256"
        },
        {
          "internalType": "uint256",
          "name": "kLast",
          "type": "uint256"
        }
      ],
      "stateMutability": "view",
      "type": "function"
    },
    {
      "inputs": [
        {
          "internalType": "bytes32",
          "name": "",
          "type": "bytes32"
        }
      ],
      "name": "priceObservations",
      "outputs": [
        {
          "internalType": "uint256",
          "name": "timestamp",
          "type": "uint256"
        },
        {
          "internalType": "uint256",
          "name": "price0CumulativeLast",
          "type": "uint256"
        },
        {
          "internalType": "uint256",
          "name": "price1CumulativeLast",
          "type": "uint256"
        }
      ],
      "stateMutability": "view",
      "type": "function"
    },
    {
      "inputs": [
        {
          "internalType": "address",
          "name": "tokenIn",
          "type": "address"
        },
        {
          "internalType": "address",
          "name": "tokenOut",
          "type": "address"
        },
        {
          "internalType": "uint256",
          "name": "amountIn",
          "type": "uint256"
        }
      ],
      "name": "quote",
      "outputs": [
        {
          "internalType": "uint256",
          "name": "amountOut",
          "type": "uint256"
        }
      ],
      "stateMutability": "view",
      "type": "function"
    },
    {
      "inputs": [
        {
          "internalType": "address",
          "name": "tokenA",
          "type": "address"
        },
        {
          "internalType": "address",
          "name": "tokenB",
          "type": "address"
        },
        {
          "internalType": "uint256",
          "name": "liquidity",
          "type": "uint256"
        },
        {
          "internalType": "uint256",
          "name": "minA",
          "type": "uint256"
        },
        {
          "internalType": "uint256",
          "name": "minB",
          "type": "uint256"
        },
        {
          "internalType": "uint256",
          "name": "deadline",
          "type": "uint256"
        }
      ],
      "name": "removeLiquidity",
      "outputs": [
        {
          "internalType": "uint256",
          "name": "amountA",
          "type": "uint256"
        },
        {
          "internalType": "uint256",
          "name": "amountB",
          "type": "uint256"
        }
      ],
      "stateMutability": "nonpayable",
      "type": "function"
    },
    {
      "inputs": [
        {
          "internalType": "address",
          "name": "token",
          "type": "address"
        },
        {
          "internalType": "uint256",
          "name": "liquidity",
          "type": "uint256"
        },
        {
          "internalType": "uint256",
          "name": "minToken",
          "type": "uint256"
        },
        {
          "internalType": "uint256",
          "name": "minETH",
          "type": "uint256"
        },
        {
          "internalType": "uint256",
          "name": "deadline",
          "type": "uint256"
        }
      ],
      "name": "removeLiquidityETH",
      "outputs": [
        {
          "internalType": "uint256",
          "name": "amountToken",
          "type": "uint256"
        },
        {
          "internalType": "uint256",
          "name": "amountETH",
          "type": "uint256"
        }
      ],
      "stateMutability": "nonpayable",
      "type": "function"
    },
    {
      "inputs": [
        {
          "internalType": "address",
          "name": "token",
          "type": "address"
        },
        {
          "internalType": "uint256",
          "name": "amount",
          "type": "uint256"
        },
        {
          "internalType": "address",
          "name": "recipient",
          "type": "address"
        }
      ],
      "name": "requestEmergencyWithdraw",
      "outputs": [
        {
          "internalType": "uint256",
          "name": "requestId",
          "type": "uint256"
        }
      ],
      "stateMutability": "nonpayable",
      "type": "function"
    },
    {
      "inputs": [
        {
          "internalType": "address",
          "name": "tokenIn",
          "type": "address"
        },
        {
          "internalType": "address",
          "name": "tokenOut",
          "type": "address"
        },
        {
          "internalType": "uint256",
          "name": "amountIn",
          "type": "uint256"
        },
        {
          "internalType": "uint256",
          "name": "minAmountOut",
          "type": "uint256"
        },
        {
          "internalType": "uint256",
          "name": "deadline",
          "type": "uint256"
        }
      ],
      "name": "swap",
      "outputs": [
        {
          "internalType": "uint256",
          "name": "amountOut",
          "type": "uint256"
        }
      ],
      "stateMutability": "nonpayable",
      "type": "function"
    },
    {
      "inputs": [
        {
          "internalType": "address",
          "name": "token",
          "type": "address"
        },
        {
          "internalType": "uint256",
          "name": "minAmountOut",
          "type": "uint256"
        },
        {
          "internalType": "uint256",
          "name": "deadline",
          "type": "uint256"
        }
      ],
      "name": "swapETHForToken",
      "outputs": [
        {
          "internalType": "uint256",
          "name": "amountOut",
          "type": "uint256"
        }
      ],
      "stateMutability": "payable",
      "type": "function"
    },
    {
      "inputs": [
        {
          "internalType": "address",
          "name": "token",
          "type": "address"
        },
        {
          "internalType": "uint256",
          "name": "amountIn",
          "type": "uint256"
        },
        {
          "internalType": "uint256",
          "name": "minETH",
          "type": "uint256"
        },
        {
          "internalType": "uint256",
          "name": "deadline",
          "type": "uint256"
        }
      ],
      "name": "swapTokenForETH",
      "outputs": [
        {
          "internalType": "uint256",
          "name": "amountOut",
          "type": "uint256"
        }
      ],
      "stateMutability": "nonpayable",
      "type": "function"
    },
    {
      "inputs": [
        {
          "internalType": "address",
          "name": "newOwner",
          "type": "address"
        }
      ],
      "name": "transferOwnership",
      "outputs": [],
      "stateMutability": "nonpayable",
      "type": "function"
    },
    {
      "inputs": [],
      "name": "unpause",
      "outputs": [],
      "stateMutability": "nonpayable",
      "type": "function"
    },
    {
      "inputs": [],
      "name": "withdrawEth",
      "outputs": [],
      "stateMutability": "nonpayable",
      "type": "function"
    },
    {
      "stateMutability": "payable",
      "type": "receive"
    }
  ],
  "bytecode": "0x6080346100b857601f620027d438819003918201601f19168301916001600160401b038311848410176100bd578084926020946040528339810103126100b857516001600160a01b038116908190036100b85780156100a6576001600355600480546001600160a01b031916821790556040519060007f8be0079c531659141344cd1fd0a4f28419497f9722a3daafe3b4186f6b6457e08180a36127009081620000d48239f35b60405163d92e233d60e01b8152600490fd5b600080fd5b634e487b7160e01b600052604160045260246000fdfe60806040818152600480361015610021575b505050361561001f57600080fd5b005b600092833560e01c908162dd8dea14611caa57508063054d50d414611c82578063088ebc2514611b4e57806310bb7c2b14611aee5780632ef61c2114611abd5780633cfba0e314611a855780633f4ba83a14611a1257806341cd47bf146119f6578063421c46001461179f57806344483d53146116455780634fb5bf7f14611604578063531aa03e14611523578063582ee98d146113645780635c975abb1461133d5780635fab9ae51461119057806360d7442b1461117257806379ba5097146110f85780637a950f9914610f465780637aae1bb214610ead5780638456cb5914610e275780638da5cb5b14610e00578063a0ef91df14610d4d578063a242cd7814610ad4578063a2ad989f146108ff578063a734f06e146108d6578063b5217bb41461086f578063b6466384146107ca578063b998ef001461073d578063ba1ffd03146104a4578063ba9a7a561461049f578063d73792a91461049f578063e30c397814610476578063e3433615146102ce578063efdfb762146102af578063f0a00468146102495763f2fde38b036100115734610245576020366003190112610245576101ce611cf0565b81546001600160a01b039081169291338490036102355716928315610228575050600580546001600160a01b031916831790557f38d16b8cac22d99fc7c124b9cd0de2d3fa1faef420bfe791d8c362d765e227008380a380f35b5163d92e233d60e01b8152fd5b84516330cd747160e01b81528390fd5b8280fd5b5050346102ab5760603660031901126102ab5780602092610268611cf0565b61028a610284610276611d0b565b61027e611d21565b93612659565b90612674565b8252600185528282206001600160a01b039091168252845220549051908152f35b5080fd5b5050346102ab57816003193601126102ab576020906006549051908152f35b508290346102ab57826003193601126102ab576102e9611cf0565b6102f1611d0b565b60ff60055460a01c16610466576001600160a01b03918083168015801561045c575b61044c578383161461043c579061032991612659565b90946103358287612674565b9384865260209686885284838820541661042d5791846005877fc0c143d18100b0ec0b6c08cc52247dd860ffd3fc2af30733326e5f980c19635a9481968c8c875196879361038285611d77565b169a8b84528c83850191169c8d8252808a8087019480865280606089019781895260a060808b019a838c52019b828d5282525220995116906001600160601b0360a01b91828b5416178a5560018a019251169082541617905551600287015551600386015551908401555191015580516103fb81611da9565b4281526002898201898152838301908a8252868b5260088c52848b209351845551600184015551910155519580a48152f35b509051637a471e1360e11b8152fd5b855163100dac0560e11b81528490fd5b865163d92e233d60e01b81528590fd5b5083831615610313565b8451635d88c8a760e11b81528390fd5b5050346102ab57816003193601126102ab5760055490516001600160a01b039091168152602090f35b611d37565b50903461024557610100366003190112610245576104c0611cf0565b926104c9611d0b565b6044356064359260026003541461072d57600260035560e435421161071d5760ff60055460a01c1661070d576001600160a01b03878116979093906000805160206126ab833981519152808a14908115610701575b506106f157831580156106e9575b6106d9579061053a91612659565b949097610547868a612674565b94858452836020528784209481865416156106c9576105668688611f01565b858a01546106115792610592926105a596959261059c9592935b508c160361060b5790995b33906123e2565b97889533906123e2565b96879184611f9f565b9360c43585106105fd575082519182526020828101959095526040820184905233917f9c8e2178a53b464e8c6d21c6d0d1f5189e5d2f6f6a79237ba611cf996a6e6b329080606081015b0390a3600160035551908152f35b835163bb55fd2760e01b8152fd5b9961058b565b8a821683036106b95760028601549360038701545b610639866106348386611e3f565b611e52565b958287116106735750505060a43584106106635792610592926105a596959261059c959293610580565b885163ef71d09160e01b81528a90fd5b8296506106349061068393611e3f565b9081116106a95760843581106106a95792610592926105a596959261059c959293610580565b8851638dc525d160e01b81528a90fd5b6003860154936002870154610626565b88516301dbb3ff60e61b81528a90fd5b8651631f2a200560e01b81528890fd5b50851561052c565b865163d92e233d60e01b81528890fd5b9050858316143861051e565b8451635d88c8a760e11b81528690fd5b8451631ab7da6b60e01b81528690fd5b84516306fda65d60e31b81528690fd5b5050346102ab57806003193601126102ab5780606092610787610284610761611cf0565b610769611d0b565b908486805161077781611da9565b8281528260208201520152612659565b815260086020522090805161079b81611da9565b825492838252826002600183015492602085019384520154920191825282519384525160208401525190820152f35b5034610245576060366003190112610245576107e4611cf0565b906108016107f96107f3611d0b565b84612659565b819291612674565b8552846020528385209460018060a01b039283875416156108615750918061084a949284602098955050169116146000146108515760036002820154910154905b604435611e7f565b9051908152f35b6002600382015491015490610842565b85516301dbb3ff60e61b8152fd5b509034610245576020366003190112610245578060c09383358152806020522060018060a01b0392838254169360018301541692600283015490600560038501549385015494015494815196875260208701528501526060840152608083015260a0820152f35b5050346102ab57816003193601126102ab57602090516000805160206126ab8339815191528152f35b508234610ad15760a0366003190112610ad15761091a611cf0565b90602435600260035414610ac15760026003556084354211610ab1576001600160a01b03838116919082158015610a9a575b610a8a578115610a7a576000805160206126ab83398151915292831015610a6f57829361097a865b86612674565b93848252816020528882208381541615610a5f57848161099d6109a39389611f01565b87612161565b9390961614600014610a5557849582975b6044358910610a47576064358810610a3957507f1644e236c5520c62ce0dee793b42f87f940781d55b02c890fbbcdfff1ee5e2519392916109f8898b933390612571565b338152600260205220610a0c878254611d54565b9055875194855260208501526040840152339280606081015b0390a3600160035582519182526020820152f35b895163ef71d09160e01b8152fd5b8951638dc525d160e01b8152fd5b84969582966109b4565b89516301dbb3ff60e61b81528990fd5b849361097a84610974565b8651631f2a200560e01b81528690fd5b865163d92e233d60e01b81528690fd5b506000805160206126ab833981519152831461094c565b8451631ab7da6b60e01b81528490fd5b84516306fda65d60e31b81528490fd5b80fd5b509060c036600319011261024557610aea611cf0565b602435600260035414610d3e57600260035560a4354211610d2f5760ff60055460a01c16610d20576001600160a01b03918083169182158015610d09575b610cf95734158015610cf1575b610ce1576000805160206126ab83398151915292831015610cda57825b610b5c8382612674565b9384895288602052868920958087541615610cca57610b7b8787611f01565b86890154610c44573493995b843411610c1d575b50821603610c00575090610bb2918094610bac898a943390612330565b84611f9f565b9360843585106105fd575082519182526020828101959095526040820184905233917f9c8e2178a53b464e8c6d21c6d0d1f5189e5d2f6f6a79237ba611cf996a6e6b329080606081016105ef565b90610bb29250610c189488958692998a943390612330565b610bac565b610c278534611e72565b3382526002602052610c3d8a8320918254611d54565b9055610b8f565b8281168203610cba5760028701549360038801545b610c67866106348334611e3f565b95828711610c93575050506044358410610c8357349399610b87565b8751638dc525d160e01b81528990fd5b82965061063490610ca393611e3f565b348111610663576064358110610663579399610b87565b6003870154936002880154610c59565b87516301dbb3ff60e61b81528990fd5b8291610b52565b8451631f2a200560e01b81528690fd5b508015610b35565b845163d92e233d60e01b81528690fd5b506000805160206126ab8339815191528314610b28565b505051635d88c8a760e11b8152fd5b505051631ab7da6b60e01b8152fd5b5050516306fda65d60e31b8152fd5b509034610245578260031936011261024557600260035414610df3576002600355338352600260205280832054918215610de557338452600260205283828120558380808086335af1610d9e611dff565b5015610dd75750519081527f8455ae6be5d92f1df1c3c1484388e247a36c7e60d72055ae216dbc258f257d4b60203392a2600160035580f35b90516312171d8360e31b8152fd5b9051630686827b60e51b8152fd5b516306fda65d60e31b8152fd5b50346102455782600319360112610245575490516001600160a01b03909116815260209150f35b503461024557826003193601126102455780546001600160a01b03163303610e9f576005549160ff8360a01c16610e9257505060ff60a01b1916600160a01b17600555337f62e78cea01bee320cd4e420270b5ea74000d11b0c9f74754ebdbfc544b05a2588280a280f35b51635d88c8a760e11b8152fd5b90516330cd747160e01b8152fd5b509034610245576020366003190112610245578154823592906001600160a01b03163303610e9f578284526007602052818420908082019283549260ff8416610f38576001015415610f2b57505060ff191660011790557f063c09fbefb35d5bb16d75da375f0e4c90a798eb8bfad5783b2cdcfbf8c89f838280a280f35b51631f2a200560e01b8152fd5b5051630dc1019760e01b8152fd5b5090346102455760a036600319011261024557610f61611cf0565b610f69611d0b565b93604435916002600354146110e857600260035560843542116110d85760ff60055460a01c166110c8576001600160a01b0381811693906000805160206126ab8339815191528086149081156110bc575b506110ac57811561109c578088169182861461108c5786610fde6102848b87612659565b958681528060205220918254161561107c5790611009611011926110028388611f01565b33866123e2565b938491612240565b95606435871061106e575061102a866020983390612571565b845193845286840152838301528360608301527f0c8d1c4d9e04dd566f62cc25a237c76ae445c7d40c5f2a485e51c9177bc7558b60803393a3600160035551908152f35b855163bb2875c360e01b8152fd5b86516301dbb3ff60e61b81528890fd5b865163100dac0560e11b81528890fd5b8551631f2a200560e01b81528790fd5b855163d92e233d60e01b81528790fd5b90508189161438610fba565b50505051635d88c8a760e11b8152fd5b50505051631ab7da6b60e01b8152fd5b505050516306fda65d60e31b8152fd5b509034610245578260031936011261024557600554916001600160a01b0391828416330361116557508054926001600160601b0360a01b9133838616179055166005553391167f8be0079c531659141344cd1fd0a4f28419497f9722a3daafe3b4186f6b6457e08380a380f35b51630614e5c760e21b8152fd5b5050346102ab57816003193601126102ab57602090516202a3008152f35b509190346102ab5760603660031901126102ab576111ac611cf0565b91602435906111b9611d21565b85546001600160a01b039391908416330361132d57811561131d57831690811561130d576006549560001987146112fa57600187016006556202a3004201938442116112e75786519160a0830183811067ffffffffffffffff8211176112d45760209a7f88a1f0b46553efe60fc3cd64c295f3e31eabb731ede3c76c68204985359dfa429794608097948b8b8e9c99968d96835216988984528f84019087825280838601938a855260608701958c87528e880199818b52815260206007905220955116916001600160601b0360a01b92838754161786555160018601556002850192511690825416179055516003820155019051151560ff80198354169116179055875193845289840152868301526060820152a251908152f35b634e487b7160e01b835260418b52602483fd5b634e487b7160e01b815260118952602490fd5b634e487b7160e01b845260118852602484fd5b845163d92e233d60e01b81528790fd5b8451631f2a200560e01b81528790fd5b84516330cd747160e01b81528790fd5b5050346102ab57816003193601126102ab5760209060ff60055460a01c1690519015158152f35b5034610245576020366003190112610245578054813592906001600160a01b0390811633036115155760026003541461150757600260035583855260076020528185209083820191825460ff81166114f757600182019384549182156106d957600384015442106114e75760ff19166001179055815488949392919083166000805160206126ab833981519152810361145357505083928392600284930154169054905af1611411611dff565b50156114465750505b7fa7d096069a26edbff974ac62b79d901783aa4bd4243483de31bf3ac923e88e598280a2600160035580f35b516312171d8360e31b8152fd5b60029290920154865163a9059cbb60e01b815293166001600160a01b03168784019081526020808201929092529294509250839182908990829060400103925af19081156114dd5785916114af575b501561144657505061141a565b6114d0915060203d81116114d6575b6114c88183611dc5565b810190611de7565b386114a2565b503d6114be565b82513d87823e3d90fd5b86516327056b2160e01b81528890fd5b8451630dc1019760e01b81528690fd5b50516306fda65d60e31b8152fd5b50516330cd747160e01b8152fd5b50346102455781600319360112610245578160c09361157e610284611546611cf0565b61154e611d0b565b908460a0875161155d81611d77565b82815282602082015282898201528260608201528260808201520152612659565b8152806020522082519161159183611d77565b60018060a01b0393848354169485855280600185015416906020860191825260028501549183870192835260a0600560038801549660608a019788528801549760808a019889520154970196875283519788525116602087015251908501525160608401525160808301525160a0820152f35b50346102455781600319360112610245576020928291611622611d0b565b90358252600185528282206001600160a01b039091168252845220549051908152f35b508290346102ab5760c03660031901126102ab57611661611cf0565b9161166a611d0b565b906044359160026003541461178f57600260035560a435421161177f57821561176f576116979085612659565b929094866116a58588612674565b8085526020859052932080546001600160a01b0395919086161561175f5783816116d26116d89388611f01565b86612161565b92909580891691161460001461175657849682965b6064358910610a47576084358810610a395750827f1644e236c5520c62ce0dee793b42f87f940781d55b02c890fbbcdfff1ee5e2519493926117348861173b9433906125e0565b33906125e0565b87519485526020850152604084015233928060608101610a25565b819685966116ed565b88516301dbb3ff60e61b81528790fd5b8551631f2a200560e01b81528490fd5b8551631ab7da6b60e01b81528490fd5b85516306fda65d60e31b81528490fd5b50919060603660031901126102ab576117b6611cf0565b600290600394828654146119e85782865560443542116119da5760ff60055460a01c166119cc576001600160a01b039180831691821580156119b5575b6119a7573415611999576000805160206126ab833981519152948386101561198f5761181f8387612674565b948589528860205287892098818a54161561197f5761183e8a88611f01565b5088541686149788156119705781810154918a820154995b61186b8b6118648187611e3f565b9534611e7f565b9a8b15611960578b1015611950576118b191901561192b57808301611891348254611d54565b90558b83016118a18c8254611e72565b90555b8201548b83015490611e3f565b91821061191b5760050155602435871061106e575091600193916118da87602099953390612571565b85519283528783015234858301528560608301527f0c8d1c4d9e04dd566f62cc25a237c76ae445c7d40c5f2a485e51c9177bc7558b60803393a35551908152f35b875163302e29cb60e01b81528390fd5b8b8301611939348254611d54565b90558083016119498c8254611e72565b90556118a4565b895163bb55fd2760e01b81528590fd5b8a5163bb2875c360e01b81528690fd5b89810154918082015499611856565b88516301dbb3ff60e61b81528490fd5b61181f8684612674565b8551631f2a200560e01b8152fd5b855163d92e233d60e01b8152fd5b506000805160206126ab83398151915283146117f3565b8351635d88c8a760e11b8152fd5b8351631ab7da6b60e01b8152fd5b83516306fda65d60e31b8152fd5b5050346102ab57816003193601126102ab576020905160038152f35b503461024557826003193601126102455780546001600160a01b03163303610e9f576005549160ff8360a01c1615611a7857505060ff60a01b1916600555337f5db9ee0a495bf2e6ff9c91a7834c1ba4fdd244a5e8aa4e537bd38aeae4b073aa8280a280f35b51636cd6020160e01b8152fd5b5050346102ab5760203660031901126102ab5760209181906001600160a01b03611aad611cf0565b1681526002845220549051908152f35b5050346102ab57806003193601126102ab5760209061084a610284611ae0611cf0565b611ae8611d0b565b90612659565b5034610245576020366003190112610245578160a09382358152600760205220600180851b0391828254169360ff600184015494600285015416926003850154940154169381519586526020860152840152606083015215156080820152f35b50903461024557608036600319011261024557611b69611cf0565b602435600260035414610d3e5760026003556064354211610d2f5760ff60055460a01c16610d20576001600160a01b03828116929083158015611c6b575b610cf9578215610ce1576000805160206126ab8339815191529084821015611c6157611bd38383612674565b9384895288602052868920918254161561107c5790611009611bf9926110028388611f01565b95604435871061106e5750846020973381526002895220611c1b878254611d54565b9055845193845286840152838301528360608301527f0c8d1c4d9e04dd566f62cc25a237c76ae445c7d40c5f2a485e51c9177bc7558b60803393a3600160035551908152f35b611bd38284612674565b506000805160206126ab8339815191528414611ba7565b509134610ad1576060366003190112610ad1575061084a602092604435906024359035611e7f565b9291905034611cec576020366003190112611cec5735835260086020908152922080546001820154600290920154908352928201526040810191909152606090f35b8380fd5b600435906001600160a01b0382168203611d0657565b600080fd5b602435906001600160a01b0382168203611d0657565b604435906001600160a01b0382168203611d0657565b34611d06576000366003190112611d065760206040516103e88152f35b91908201809211611d6157565b634e487b7160e01b600052601160045260246000fd5b60c0810190811067ffffffffffffffff821117611d9357604052565b634e487b7160e01b600052604160045260246000fd5b6060810190811067ffffffffffffffff821117611d9357604052565b90601f8019910116810190811067ffffffffffffffff821117611d9357604052565b90816020910312611d0657518015158103611d065790565b3d15611e3a573d9067ffffffffffffffff8211611d935760405191611e2e601f8201601f191660200184611dc5565b82523d6000602084013e565b606090565b81810292918115918404141715611d6157565b8115611e5c570490565b634e487b7160e01b600052601260045260246000fd5b91908203918211611d6157565b91908215611eef57801591828015611ee7575b611ed5576103e580850294850403611d6157611eae9084611e3f565b916103e8808302928304141715611d6157611ed292611ecc91611d54565b90611e52565b90565b60405163bb55fd2760e01b8152600490fd5b508015611e92565b604051631f2a200560e01b8152600490fd5b6000526008602052604060002090611f1a825442611e72565b9081151580611f92575b80611f85575b611f36575b5050429055565b806003611f73920190670de0b6b3a76400009084611f5e600284865402930192835490611e52565b02600187019081540190555402905490611e52565b02600282019081540190553880611f2f565b5060038101541515611f2a565b5060028101541515611f24565b93929091600494858401908154801560001461211a5750611fc08484611e3f565b966000600389111561210b57508760019080821c8281018091116120b15791905b8a83106120eb575050505b6103e897888111156120db576103e71981019081116120c6579782600052600160205260406000206000805260205260406000208054908282018092116120b1575583555b87156120a25750916005939161209d9360005260016020526040600020336000526020526040600020612065898254611d54565b9055612072888254611d54565b905561208360028601918254611d54565b80915561209560038601928354611d54565b809255611e3f565b910155565b60405163bb55fd2760e01b8152fd5b601184634e487b7160e01b6000525260246000fd5b601182634e487b7160e01b6000525260246000fd5b5060405163bb55fd2760e01b8152fd5b909199506121028a6120fd8184611e52565b611d54565b821c9190611fe1565b9715611fec5760019750611fec565b61214a61213f61213861212d8488611e3f565b60028a015490611e52565b9287611e3f565b600388015490611e52565b8082101561215a57505b96612031565b9050612154565b91929060009383855260016020526040808620338752602052818187205410612230576002830190612194825484611e3f565b9260048501916121a683548096611e52565b986121ba6003880196610634885486611e3f565b988a158015612228575b612217579260059694928261209d97956121fc94526001602052818120338252602052206121f3828254611e72565b90558254611e72565b9055612209888254611e72565b809155612095878354611e72565b825163bb55fd2760e01b8152600490fd5b5089156121c4565b5163bb55fd2760e01b8152600490fd5b80546001600160a01b03928316921691909114929190831561231f576002810154916003820154945b61227e866122778187611e3f565b9584611e7f565b95861561230d57861015611ed557156122e6576122a060028301918254611d54565b9055600381016122b1858254611e72565b90555b6122c76002820154600383015490611e3f565b9182106122d45760050155565b60405163302e29cb60e01b8152600490fd5b6122f560038301918254611d54565b905560028101612306858254611e72565b90556122b4565b60405163bb2875c360e01b8152600490fd5b600381015491600282015494612269565b6001600160a01b0316916000805160206126ab83398151915283146123dd576040516323b872dd60e01b81526001600160a01b039092166004830152306024830152604482015290602090829081600081606481015b03925af19081156123d1576000916123b3575b50156123a157565b6040516312171d8360e31b8152600490fd5b6123cb915060203d81116114d6576114c88183611dc5565b38612399565b6040513d6000823e3d90fd5b505050565b604080516370a0823160e01b808252306004830152919594602094936001600160a01b03169291908582602481875afa948515612566578692600096612530575b5088516323b872dd60e01b81526001600160a01b0390911660048201523060248201526044810191909152908180606481015b03816000875af190811561252557600091612508575b50156124f7578390602487518094819382523060048301525afa9081156124ec576000916124ba575b506124a09250611e72565b9182156124aa5750565b51631f2a200560e01b8152600490fd5b919282813d83116124e5575b6124d08183611dc5565b81010312610ad15750906124a0915138612495565b503d6124c6565b85513d6000823e3d90fd5b85516312171d8360e31b8152600490fd5b61251f9150853d87116114d6576114c88183611dc5565b3861246c565b87513d6000823e3d90fd5b919282819792973d831161255f575b6125498183611dc5565b81010312610ad157505193859190612456612423565b503d61253f565b88513d6000823e3d90fd5b6001600160a01b0390811691906000805160206126ab83398151915283146125cb575060405163a9059cbb60e01b81526001600160a01b039091166004820152602481019290925260209082908160008160448101612386565b60009384935083928392165af1612399611dff565b6001600160a01b0390811691906000805160206126ab833981519152831461263a575060405163a9059cbb60e01b81526001600160a01b039091166004820152602481019290925260209082908160008160448101612386565b91501660005260026020526126556040600020918254611d54565b9055565b9091906001600160a01b038084169082161015611ed2579190565b6040519060208201926001600160601b0319809260601b16845260601b166034820152602881526126a481611da9565b5190209056fe000000000000000000000000eeeeeeeeeeeeeeeeeeeeeeeeeeeeeeeeeeeeeeeea2646970667358221220f5d4ccc80a067e2cc5a75ab524f11fd7c633b96742b73510f897cedbb1625a4364736f6c63430008140033",
  "linkReferences": {},
  "deployedLinkReferences": {}
}